{
	"contracts/AbiDecode.sol": {
		"ABIDecode": {
			"abi": [
				{
					"inputs": [
						{
							"internalType": "bytes",
							"name": "data",
							"type": "bytes"
						}
					],
					"name": "decode",
					"outputs": [
						{
							"internalType": "uint256",
							"name": "x",
							"type": "uint256"
						},
						{
							"internalType": "address",
							"name": "addr",
							"type": "address"
						},
						{
							"internalType": "uint256[]",
							"name": "arr",
							"type": "uint256[]"
						}
					],
					"stateMutability": "pure",
					"type": "function"
				},
				{
					"inputs": [
						{
							"internalType": "uint256",
							"name": "x",
							"type": "uint256"
						},
						{
							"internalType": "address",
							"name": "addr",
							"type": "address"
						},
						{
							"internalType": "uint256[]",
							"name": "arr",
							"type": "uint256[]"
						}
					],
					"name": "encode",
					"outputs": [
						{
							"internalType": "bytes",
							"name": "",
							"type": "bytes"
						}
					],
					"stateMutability": "pure",
					"type": "function"
				},
				{
					"inputs": [
						{
							"internalType": "uint256",
							"name": "x",
							"type": "uint256"
						},
						{
							"internalType": "address",
							"name": "addr",
							"type": "address"
						},
						{
							"internalType": "uint256[]",
							"name": "arr",
							"type": "uint256[]"
						}
					],
					"name": "encodePacked",
					"outputs": [
						{
							"internalType": "bytes",
							"name": "result",
							"type": "bytes"
						}
					],
					"stateMutability": "pure",
					"type": "function"
				}
			],
			"devdoc": {
				"kind": "dev",
				"methods": {},
				"version": 1
			},
			"evm": {
				"assembly": "    /* \"contracts/AbiDecode.sol\":60:665  contract ABIDecode {... */\n  mstore(0x40, 0x80)\n  callvalue\n  dup1\n  iszero\n  tag_1\n  jumpi\n  0x00\n  dup1\n  revert\ntag_1:\n  pop\n  dataSize(sub_0)\n  dup1\n  dataOffset(sub_0)\n  0x00\n  codecopy\n  0x00\n  return\nstop\n\nsub_0: assembly {\n        /* \"contracts/AbiDecode.sol\":60:665  contract ABIDecode {... */\n      mstore(0x40, 0x80)\n      callvalue\n      dup1\n      iszero\n      tag_1\n      jumpi\n      0x00\n      dup1\n      revert\n    tag_1:\n      pop\n      jumpi(tag_2, lt(calldatasize, 0x04))\n      shr(0xe0, calldataload(0x00))\n      dup1\n      0x72b9d249\n      eq\n      tag_3\n      jumpi\n      dup1\n      0xe5c5e9a3\n      eq\n      tag_4\n      jumpi\n      dup1\n      0xeacc0e01\n      eq\n      tag_5\n      jumpi\n    tag_2:\n      0x00\n      dup1\n      revert\n        /* \"contracts/AbiDecode.sol\":177:316  function encode(uint x,address addr,uint[] memory arr) external pure returns(bytes memory) {... */\n    tag_3:\n      tag_6\n      0x04\n      dup1\n      calldatasize\n      sub\n      dup2\n      add\n      swap1\n      tag_7\n      swap2\n      swap1\n      tag_8\n      jump\t// in\n    tag_7:\n      tag_9\n      jump\t// in\n    tag_6:\n      mload(0x40)\n      tag_10\n      swap2\n      swap1\n      tag_11\n      jump\t// in\n    tag_10:\n      mload(0x40)\n      dup1\n      swap2\n      sub\n      swap1\n      return\n        /* \"contracts/AbiDecode.sol\":490:658  function decode(bytes memory data) external pure returns(uint x,address addr,uint[] memory arr) {... */\n    tag_4:\n      tag_12\n      0x04\n      dup1\n      calldatasize\n      sub\n      dup2\n      add\n      swap1\n      tag_13\n      swap2\n      swap1\n      tag_14\n      jump\t// in\n    tag_13:\n      tag_15\n      jump\t// in\n    tag_12:\n      mload(0x40)\n      tag_16\n      swap4\n      swap3\n      swap2\n      swap1\n      tag_17\n      jump\t// in\n    tag_16:\n      mload(0x40)\n      dup1\n      swap2\n      sub\n      swap1\n      return\n        /* \"contracts/AbiDecode.sol\":324:482  function encodePacked(uint x,address addr,uint[] memory arr) public pure returns(bytes memory result) {... */\n    tag_5:\n      tag_18\n      0x04\n      dup1\n      calldatasize\n      sub\n      dup2\n      add\n      swap1\n      tag_19\n      swap2\n      swap1\n      tag_8\n      jump\t// in\n    tag_19:\n      tag_20\n      jump\t// in\n    tag_18:\n      mload(0x40)\n      tag_21\n      swap2\n      swap1\n      tag_11\n      jump\t// in\n    tag_21:\n      mload(0x40)\n      dup1\n      swap2\n      sub\n      swap1\n      return\n        /* \"contracts/AbiDecode.sol\":177:316  function encode(uint x,address addr,uint[] memory arr) external pure returns(bytes memory) {... */\n    tag_9:\n        /* \"contracts/AbiDecode.sol\":254:266  bytes memory */\n      0x60\n        /* \"contracts/AbiDecode.sol\":297:298  x */\n      dup4\n        /* \"contracts/AbiDecode.sol\":299:303  addr */\n      dup4\n        /* \"contracts/AbiDecode.sol\":304:307  arr */\n      dup4\n        /* \"contracts/AbiDecode.sol\":286:308  abi.encode(x,addr,arr) */\n      add(0x20, mload(0x40))\n      tag_23\n      swap4\n      swap3\n      swap2\n      swap1\n      tag_17\n      jump\t// in\n    tag_23:\n      mload(0x40)\n      0x20\n      dup2\n      dup4\n      sub\n      sub\n      dup2\n      mstore\n      swap1\n      0x40\n      mstore\n        /* \"contracts/AbiDecode.sol\":279:308  return abi.encode(x,addr,arr) */\n      swap1\n      pop\n        /* \"contracts/AbiDecode.sol\":177:316  function encode(uint x,address addr,uint[] memory arr) external pure returns(bytes memory) {... */\n      swap4\n      swap3\n      pop\n      pop\n      pop\n      jump\t// out\n        /* \"contracts/AbiDecode.sol\":490:658  function decode(bytes memory data) external pure returns(uint x,address addr,uint[] memory arr) {... */\n    tag_15:\n        /* \"contracts/AbiDecode.sol\":547:553  uint x */\n      0x00\n        /* \"contracts/AbiDecode.sol\":554:566  address addr */\n      dup1\n        /* \"contracts/AbiDecode.sol\":567:584  uint[] memory arr */\n      0x60\n        /* \"contracts/AbiDecode.sol\":623:627  data */\n      dup4\n        /* \"contracts/AbiDecode.sol\":612:650  abi.decode(data,(uint,address,uint[])) */\n      dup1\n      0x20\n      add\n      swap1\n      mload\n      dup2\n      add\n      swap1\n      tag_25\n      swap2\n      swap1\n      tag_26\n      jump\t// in\n    tag_25:\n        /* \"contracts/AbiDecode.sol\":597:650  (x,addr,arr) = abi.decode(data,(uint,address,uint[])) */\n      dup1\n      swap4\n      pop\n      dup2\n      swap5\n      pop\n      dup3\n      swap6\n      pop\n      pop\n      pop\n      pop\n        /* \"contracts/AbiDecode.sol\":490:658  function decode(bytes memory data) external pure returns(uint x,address addr,uint[] memory arr) {... */\n      swap2\n      swap4\n      swap1\n      swap3\n      pop\n      jump\t// out\n        /* \"contracts/AbiDecode.sol\":324:482  function encodePacked(uint x,address addr,uint[] memory arr) public pure returns(bytes memory result) {... */\n    tag_20:\n        /* \"contracts/AbiDecode.sol\":405:424  bytes memory result */\n      0x60\n        /* \"contracts/AbiDecode.sol\":463:464  x */\n      dup4\n        /* \"contracts/AbiDecode.sol\":465:469  addr */\n      dup4\n        /* \"contracts/AbiDecode.sol\":470:473  arr */\n      dup4\n        /* \"contracts/AbiDecode.sol\":446:474  abi.encodePacked(x,addr,arr) */\n      add(0x20, mload(0x40))\n      tag_28\n      swap4\n      swap3\n      swap2\n      swap1\n      tag_29\n      jump\t// in\n    tag_28:\n      mload(0x40)\n      0x20\n      dup2\n      dup4\n      sub\n      sub\n      dup2\n      mstore\n      swap1\n      0x40\n      mstore\n        /* \"contracts/AbiDecode.sol\":437:474  result = abi.encodePacked(x,addr,arr) */\n      swap1\n      pop\n        /* \"contracts/AbiDecode.sol\":324:482  function encodePacked(uint x,address addr,uint[] memory arr) public pure returns(bytes memory result) {... */\n      swap4\n      swap3\n      pop\n      pop\n      pop\n      jump\t// out\n        /* \"#utility.yul\":7:82   */\n    tag_30:\n        /* \"#utility.yul\":40:46   */\n      0x00\n        /* \"#utility.yul\":73:75   */\n      0x40\n        /* \"#utility.yul\":67:76   */\n      mload\n        /* \"#utility.yul\":57:76   */\n      swap1\n      pop\n        /* \"#utility.yul\":7:82   */\n      swap1\n      jump\t// out\n        /* \"#utility.yul\":88:205   */\n    tag_31:\n        /* \"#utility.yul\":197:198   */\n      0x00\n        /* \"#utility.yul\":194:195   */\n      dup1\n        /* \"#utility.yul\":187:199   */\n      revert\n        /* \"#utility.yul\":211:328   */\n    tag_32:\n        /* \"#utility.yul\":320:321   */\n      0x00\n        /* \"#utility.yul\":317:318   */\n      dup1\n        /* \"#utility.yul\":310:322   */\n      revert\n        /* \"#utility.yul\":334:411   */\n    tag_33:\n        /* \"#utility.yul\":371:378   */\n      0x00\n        /* \"#utility.yul\":400:405   */\n      dup2\n        /* \"#utility.yul\":389:405   */\n      swap1\n      pop\n        /* \"#utility.yul\":334:411   */\n      swap2\n      swap1\n      pop\n      jump\t// out\n        /* \"#utility.yul\":417:539   */\n    tag_34:\n        /* \"#utility.yul\":490:514   */\n      tag_89\n        /* \"#utility.yul\":508:513   */\n      dup2\n        /* \"#utility.yul\":490:514   */\n      tag_33\n      jump\t// in\n    tag_89:\n        /* \"#utility.yul\":483:488   */\n      dup2\n        /* \"#utility.yul\":480:515   */\n      eq\n        /* \"#utility.yul\":470:533   */\n      tag_90\n      jumpi\n        /* \"#utility.yul\":529:530   */\n      0x00\n        /* \"#utility.yul\":526:527   */\n      dup1\n        /* \"#utility.yul\":519:531   */\n      revert\n        /* \"#utility.yul\":470:533   */\n    tag_90:\n        /* \"#utility.yul\":417:539   */\n      pop\n      jump\t// out\n        /* \"#utility.yul\":545:684   */\n    tag_35:\n        /* \"#utility.yul\":591:596   */\n      0x00\n        /* \"#utility.yul\":629:635   */\n      dup2\n        /* \"#utility.yul\":616:636   */\n      calldataload\n        /* \"#utility.yul\":607:636   */\n      swap1\n      pop\n        /* \"#utility.yul\":645:678   */\n      tag_92\n        /* \"#utility.yul\":672:677   */\n      dup2\n        /* \"#utility.yul\":645:678   */\n      tag_34\n      jump\t// in\n    tag_92:\n        /* \"#utility.yul\":545:684   */\n      swap3\n      swap2\n      pop\n      pop\n      jump\t// out\n        /* \"#utility.yul\":690:816   */\n    tag_36:\n        /* \"#utility.yul\":727:734   */\n      0x00\n        /* \"#utility.yul\":767:809   */\n      0xffffffffffffffffffffffffffffffffffffffff\n        /* \"#utility.yul\":760:765   */\n      dup3\n        /* \"#utility.yul\":756:810   */\n      and\n        /* \"#utility.yul\":745:810   */\n      swap1\n      pop\n        /* \"#utility.yul\":690:816   */\n      swap2\n      swap1\n      pop\n      jump\t// out\n        /* \"#utility.yul\":822:918   */\n    tag_37:\n        /* \"#utility.yul\":859:866   */\n      0x00\n        /* \"#utility.yul\":888:912   */\n      tag_95\n        /* \"#utility.yul\":906:911   */\n      dup3\n        /* \"#utility.yul\":888:912   */\n      tag_36\n      jump\t// in\n    tag_95:\n        /* \"#utility.yul\":877:912   */\n      swap1\n      pop\n        /* \"#utility.yul\":822:918   */\n      swap2\n      swap1\n      pop\n      jump\t// out\n        /* \"#utility.yul\":924:1046   */\n    tag_38:\n        /* \"#utility.yul\":997:1021   */\n      tag_97\n        /* \"#utility.yul\":1015:1020   */\n      dup2\n        /* \"#utility.yul\":997:1021   */\n      tag_37\n      jump\t// in\n    tag_97:\n        /* \"#utility.yul\":990:995   */\n      dup2\n        /* \"#utility.yul\":987:1022   */\n      eq\n        /* \"#utility.yul\":977:1040   */\n      tag_98\n      jumpi\n        /* \"#utility.yul\":1036:1037   */\n      0x00\n        /* \"#utility.yul\":1033:1034   */\n      dup1\n        /* \"#utility.yul\":1026:1038   */\n      revert\n        /* \"#utility.yul\":977:1040   */\n    tag_98:\n        /* \"#utility.yul\":924:1046   */\n      pop\n      jump\t// out\n        /* \"#utility.yul\":1052:1191   */\n    tag_39:\n        /* \"#utility.yul\":1098:1103   */\n      0x00\n        /* \"#utility.yul\":1136:1142   */\n      dup2\n        /* \"#utility.yul\":1123:1143   */\n      calldataload\n        /* \"#utility.yul\":1114:1143   */\n      swap1\n      pop\n        /* \"#utility.yul\":1152:1185   */\n      tag_100\n        /* \"#utility.yul\":1179:1184   */\n      dup2\n        /* \"#utility.yul\":1152:1185   */\n      tag_38\n      jump\t// in\n    tag_100:\n        /* \"#utility.yul\":1052:1191   */\n      swap3\n      swap2\n      pop\n      pop\n      jump\t// out\n        /* \"#utility.yul\":1197:1314   */\n    tag_40:\n        /* \"#utility.yul\":1306:1307   */\n      0x00\n        /* \"#utility.yul\":1303:1304   */\n      dup1\n        /* \"#utility.yul\":1296:1308   */\n      revert\n        /* \"#utility.yul\":1320:1422   */\n    tag_41:\n        /* \"#utility.yul\":1361:1367   */\n      0x00\n        /* \"#utility.yul\":1412:1414   */\n      0x1f\n        /* \"#utility.yul\":1408:1415   */\n      not\n        /* \"#utility.yul\":1403:1405   */\n      0x1f\n        /* \"#utility.yul\":1396:1401   */\n      dup4\n        /* \"#utility.yul\":1392:1406   */\n      add\n        /* \"#utility.yul\":1388:1416   */\n      and\n        /* \"#utility.yul\":1378:1416   */\n      swap1\n      pop\n        /* \"#utility.yul\":1320:1422   */\n      swap2\n      swap1\n      pop\n      jump\t// out\n        /* \"#utility.yul\":1428:1608   */\n    tag_42:\n        /* \"#utility.yul\":1476:1553   */\n      0x4e487b7100000000000000000000000000000000000000000000000000000000\n        /* \"#utility.yul\":1473:1474   */\n      0x00\n        /* \"#utility.yul\":1466:1554   */\n      mstore\n        /* \"#utility.yul\":1573:1577   */\n      0x41\n        /* \"#utility.yul\":1570:1571   */\n      0x04\n        /* \"#utility.yul\":1563:1578   */\n      mstore\n        /* \"#utility.yul\":1597:1601   */\n      0x24\n        /* \"#utility.yul\":1594:1595   */\n      0x00\n        /* \"#utility.yul\":1587:1602   */\n      revert\n        /* \"#utility.yul\":1614:1895   */\n    tag_43:\n        /* \"#utility.yul\":1697:1724   */\n      tag_105\n        /* \"#utility.yul\":1719:1723   */\n      dup3\n        /* \"#utility.yul\":1697:1724   */\n      tag_41\n      jump\t// in\n    tag_105:\n        /* \"#utility.yul\":1689:1695   */\n      dup2\n        /* \"#utility.yul\":1685:1725   */\n      add\n        /* \"#utility.yul\":1827:1833   */\n      dup2\n        /* \"#utility.yul\":1815:1825   */\n      dup2\n        /* \"#utility.yul\":1812:1834   */\n      lt\n        /* \"#utility.yul\":1791:1809   */\n      0xffffffffffffffff\n        /* \"#utility.yul\":1779:1789   */\n      dup3\n        /* \"#utility.yul\":1776:1810   */\n      gt\n        /* \"#utility.yul\":1773:1835   */\n      or\n        /* \"#utility.yul\":1770:1858   */\n      iszero\n      tag_106\n      jumpi\n        /* \"#utility.yul\":1838:1856   */\n      tag_107\n      tag_42\n      jump\t// in\n    tag_107:\n        /* \"#utility.yul\":1770:1858   */\n    tag_106:\n        /* \"#utility.yul\":1878:1888   */\n      dup1\n        /* \"#utility.yul\":1874:1876   */\n      0x40\n        /* \"#utility.yul\":1867:1889   */\n      mstore\n        /* \"#utility.yul\":1657:1895   */\n      pop\n        /* \"#utility.yul\":1614:1895   */\n      pop\n      pop\n      jump\t// out\n        /* \"#utility.yul\":1901:2030   */\n    tag_44:\n        /* \"#utility.yul\":1935:1941   */\n      0x00\n        /* \"#utility.yul\":1962:1982   */\n      tag_109\n      tag_30\n      jump\t// in\n    tag_109:\n        /* \"#utility.yul\":1952:1982   */\n      swap1\n      pop\n        /* \"#utility.yul\":1991:2024   */\n      tag_110\n        /* \"#utility.yul\":2019:2023   */\n      dup3\n        /* \"#utility.yul\":2011:2017   */\n      dup3\n        /* \"#utility.yul\":1991:2024   */\n      tag_43\n      jump\t// in\n    tag_110:\n        /* \"#utility.yul\":1901:2030   */\n      swap2\n      swap1\n      pop\n      jump\t// out\n        /* \"#utility.yul\":2036:2347   */\n    tag_45:\n        /* \"#utility.yul\":2113:2117   */\n      0x00\n        /* \"#utility.yul\":2203:2221   */\n      0xffffffffffffffff\n        /* \"#utility.yul\":2195:2201   */\n      dup3\n        /* \"#utility.yul\":2192:2222   */\n      gt\n        /* \"#utility.yul\":2189:2245   */\n      iszero\n      tag_112\n      jumpi\n        /* \"#utility.yul\":2225:2243   */\n      tag_113\n      tag_42\n      jump\t// in\n    tag_113:\n        /* \"#utility.yul\":2189:2245   */\n    tag_112:\n        /* \"#utility.yul\":2275:2279   */\n      0x20\n        /* \"#utility.yul\":2267:2273   */\n      dup3\n        /* \"#utility.yul\":2263:2280   */\n      mul\n        /* \"#utility.yul\":2255:2280   */\n      swap1\n      pop\n        /* \"#utility.yul\":2335:2339   */\n      0x20\n        /* \"#utility.yul\":2329:2333   */\n      dup2\n        /* \"#utility.yul\":2325:2340   */\n      add\n        /* \"#utility.yul\":2317:2340   */\n      swap1\n      pop\n        /* \"#utility.yul\":2036:2347   */\n      swap2\n      swap1\n      pop\n      jump\t// out\n        /* \"#utility.yul\":2353:2470   */\n    tag_46:\n        /* \"#utility.yul\":2462:2463   */\n      0x00\n        /* \"#utility.yul\":2459:2460   */\n      dup1\n        /* \"#utility.yul\":2452:2464   */\n      revert\n        /* \"#utility.yul\":2493:3203   */\n    tag_47:\n        /* \"#utility.yul\":2589:2594   */\n      0x00\n        /* \"#utility.yul\":2614:2695   */\n      tag_116\n        /* \"#utility.yul\":2630:2694   */\n      tag_117\n        /* \"#utility.yul\":2687:2693   */\n      dup5\n        /* \"#utility.yul\":2630:2694   */\n      tag_45\n      jump\t// in\n    tag_117:\n        /* \"#utility.yul\":2614:2695   */\n      tag_44\n      jump\t// in\n    tag_116:\n        /* \"#utility.yul\":2605:2695   */\n      swap1\n      pop\n        /* \"#utility.yul\":2715:2720   */\n      dup1\n        /* \"#utility.yul\":2744:2750   */\n      dup4\n        /* \"#utility.yul\":2737:2742   */\n      dup3\n        /* \"#utility.yul\":2730:2751   */\n      mstore\n        /* \"#utility.yul\":2778:2782   */\n      0x20\n        /* \"#utility.yul\":2771:2776   */\n      dup3\n        /* \"#utility.yul\":2767:2783   */\n      add\n        /* \"#utility.yul\":2760:2783   */\n      swap1\n      pop\n        /* \"#utility.yul\":2831:2835   */\n      0x20\n        /* \"#utility.yul\":2823:2829   */\n      dup5\n        /* \"#utility.yul\":2819:2836   */\n      mul\n        /* \"#utility.yul\":2811:2817   */\n      dup4\n        /* \"#utility.yul\":2807:2837   */\n      add\n        /* \"#utility.yul\":2860:2863   */\n      dup6\n        /* \"#utility.yul\":2852:2858   */\n      dup2\n        /* \"#utility.yul\":2849:2864   */\n      gt\n        /* \"#utility.yul\":2846:2968   */\n      iszero\n      tag_118\n      jumpi\n        /* \"#utility.yul\":2879:2958   */\n      tag_119\n      tag_46\n      jump\t// in\n    tag_119:\n        /* \"#utility.yul\":2846:2968   */\n    tag_118:\n        /* \"#utility.yul\":2994:3000   */\n      dup4\n        /* \"#utility.yul\":2977:3197   */\n    tag_120:\n        /* \"#utility.yul\":3011:3017   */\n      dup2\n        /* \"#utility.yul\":3006:3009   */\n      dup2\n        /* \"#utility.yul\":3003:3018   */\n      lt\n        /* \"#utility.yul\":2977:3197   */\n      iszero\n      tag_122\n      jumpi\n        /* \"#utility.yul\":3086:3089   */\n      dup1\n        /* \"#utility.yul\":3115:3152   */\n      tag_123\n        /* \"#utility.yul\":3148:3151   */\n      dup9\n        /* \"#utility.yul\":3136:3146   */\n      dup3\n        /* \"#utility.yul\":3115:3152   */\n      tag_35\n      jump\t// in\n    tag_123:\n        /* \"#utility.yul\":3110:3113   */\n      dup5\n        /* \"#utility.yul\":3103:3153   */\n      mstore\n        /* \"#utility.yul\":3182:3186   */\n      0x20\n        /* \"#utility.yul\":3177:3180   */\n      dup5\n        /* \"#utility.yul\":3173:3187   */\n      add\n        /* \"#utility.yul\":3166:3187   */\n      swap4\n      pop\n        /* \"#utility.yul\":3053:3197   */\n      pop\n        /* \"#utility.yul\":3037:3041   */\n      0x20\n        /* \"#utility.yul\":3032:3035   */\n      dup2\n        /* \"#utility.yul\":3028:3042   */\n      add\n        /* \"#utility.yul\":3021:3042   */\n      swap1\n      pop\n        /* \"#utility.yul\":2977:3197   */\n      jump(tag_120)\n    tag_122:\n        /* \"#utility.yul\":2981:3002   */\n      pop\n        /* \"#utility.yul\":2595:3203   */\n      pop\n      pop\n        /* \"#utility.yul\":2493:3203   */\n      swap4\n      swap3\n      pop\n      pop\n      pop\n      jump\t// out\n        /* \"#utility.yul\":3226:3596   */\n    tag_48:\n        /* \"#utility.yul\":3297:3302   */\n      0x00\n        /* \"#utility.yul\":3346:3349   */\n      dup3\n        /* \"#utility.yul\":3339:3343   */\n      0x1f\n        /* \"#utility.yul\":3331:3337   */\n      dup4\n        /* \"#utility.yul\":3327:3344   */\n      add\n        /* \"#utility.yul\":3323:3350   */\n      slt\n        /* \"#utility.yul\":3313:3435   */\n      tag_125\n      jumpi\n        /* \"#utility.yul\":3354:3433   */\n      tag_126\n      tag_40\n      jump\t// in\n    tag_126:\n        /* \"#utility.yul\":3313:3435   */\n    tag_125:\n        /* \"#utility.yul\":3471:3477   */\n      dup2\n        /* \"#utility.yul\":3458:3478   */\n      calldataload\n        /* \"#utility.yul\":3496:3590   */\n      tag_127\n        /* \"#utility.yul\":3586:3589   */\n      dup5\n        /* \"#utility.yul\":3578:3584   */\n      dup3\n        /* \"#utility.yul\":3571:3575   */\n      0x20\n        /* \"#utility.yul\":3563:3569   */\n      dup7\n        /* \"#utility.yul\":3559:3576   */\n      add\n        /* \"#utility.yul\":3496:3590   */\n      tag_47\n      jump\t// in\n    tag_127:\n        /* \"#utility.yul\":3487:3590   */\n      swap2\n      pop\n        /* \"#utility.yul\":3303:3596   */\n      pop\n        /* \"#utility.yul\":3226:3596   */\n      swap3\n      swap2\n      pop\n      pop\n      jump\t// out\n        /* \"#utility.yul\":3602:4431   */\n    tag_8:\n        /* \"#utility.yul\":3704:3710   */\n      0x00\n        /* \"#utility.yul\":3712:3718   */\n      dup1\n        /* \"#utility.yul\":3720:3726   */\n      0x00\n        /* \"#utility.yul\":3769:3771   */\n      0x60\n        /* \"#utility.yul\":3757:3766   */\n      dup5\n        /* \"#utility.yul\":3748:3755   */\n      dup7\n        /* \"#utility.yul\":3744:3767   */\n      sub\n        /* \"#utility.yul\":3740:3772   */\n      slt\n        /* \"#utility.yul\":3737:3856   */\n      iszero\n      tag_129\n      jumpi\n        /* \"#utility.yul\":3775:3854   */\n      tag_130\n      tag_31\n      jump\t// in\n    tag_130:\n        /* \"#utility.yul\":3737:3856   */\n    tag_129:\n        /* \"#utility.yul\":3895:3896   */\n      0x00\n        /* \"#utility.yul\":3920:3973   */\n      tag_131\n        /* \"#utility.yul\":3965:3972   */\n      dup7\n        /* \"#utility.yul\":3956:3962   */\n      dup3\n        /* \"#utility.yul\":3945:3954   */\n      dup8\n        /* \"#utility.yul\":3941:3963   */\n      add\n        /* \"#utility.yul\":3920:3973   */\n      tag_35\n      jump\t// in\n    tag_131:\n        /* \"#utility.yul\":3910:3973   */\n      swap4\n      pop\n        /* \"#utility.yul\":3866:3983   */\n      pop\n        /* \"#utility.yul\":4022:4024   */\n      0x20\n        /* \"#utility.yul\":4048:4101   */\n      tag_132\n        /* \"#utility.yul\":4093:4100   */\n      dup7\n        /* \"#utility.yul\":4084:4090   */\n      dup3\n        /* \"#utility.yul\":4073:4082   */\n      dup8\n        /* \"#utility.yul\":4069:4091   */\n      add\n        /* \"#utility.yul\":4048:4101   */\n      tag_39\n      jump\t// in\n    tag_132:\n        /* \"#utility.yul\":4038:4101   */\n      swap3\n      pop\n        /* \"#utility.yul\":3993:4111   */\n      pop\n        /* \"#utility.yul\":4178:4180   */\n      0x40\n        /* \"#utility.yul\":4167:4176   */\n      dup5\n        /* \"#utility.yul\":4163:4181   */\n      add\n        /* \"#utility.yul\":4150:4182   */\n      calldataload\n        /* \"#utility.yul\":4209:4227   */\n      0xffffffffffffffff\n        /* \"#utility.yul\":4201:4207   */\n      dup2\n        /* \"#utility.yul\":4198:4228   */\n      gt\n        /* \"#utility.yul\":4195:4312   */\n      iszero\n      tag_133\n      jumpi\n        /* \"#utility.yul\":4231:4310   */\n      tag_134\n      tag_32\n      jump\t// in\n    tag_134:\n        /* \"#utility.yul\":4195:4312   */\n    tag_133:\n        /* \"#utility.yul\":4336:4414   */\n      tag_135\n        /* \"#utility.yul\":4406:4413   */\n      dup7\n        /* \"#utility.yul\":4397:4403   */\n      dup3\n        /* \"#utility.yul\":4386:4395   */\n      dup8\n        /* \"#utility.yul\":4382:4404   */\n      add\n        /* \"#utility.yul\":4336:4414   */\n      tag_48\n      jump\t// in\n    tag_135:\n        /* \"#utility.yul\":4326:4414   */\n      swap2\n      pop\n        /* \"#utility.yul\":4121:4424   */\n      pop\n        /* \"#utility.yul\":3602:4431   */\n      swap3\n      pop\n      swap3\n      pop\n      swap3\n      jump\t// out\n        /* \"#utility.yul\":4437:4535   */\n    tag_49:\n        /* \"#utility.yul\":4488:4494   */\n      0x00\n        /* \"#utility.yul\":4522:4527   */\n      dup2\n        /* \"#utility.yul\":4516:4528   */\n      mload\n        /* \"#utility.yul\":4506:4528   */\n      swap1\n      pop\n        /* \"#utility.yul\":4437:4535   */\n      swap2\n      swap1\n      pop\n      jump\t// out\n        /* \"#utility.yul\":4541:4709   */\n    tag_50:\n        /* \"#utility.yul\":4624:4635   */\n      0x00\n        /* \"#utility.yul\":4658:4664   */\n      dup3\n        /* \"#utility.yul\":4653:4656   */\n      dup3\n        /* \"#utility.yul\":4646:4665   */\n      mstore\n        /* \"#utility.yul\":4698:4702   */\n      0x20\n        /* \"#utility.yul\":4693:4696   */\n      dup3\n        /* \"#utility.yul\":4689:4703   */\n      add\n        /* \"#utility.yul\":4674:4703   */\n      swap1\n      pop\n        /* \"#utility.yul\":4541:4709   */\n      swap3\n      swap2\n      pop\n      pop\n      jump\t// out\n        /* \"#utility.yul\":4715:4854   */\n    tag_51:\n        /* \"#utility.yul\":4804:4810   */\n      dup3\n        /* \"#utility.yul\":4799:4802   */\n      dup2\n        /* \"#utility.yul\":4794:4797   */\n      dup4\n        /* \"#utility.yul\":4788:4811   */\n      mcopy\n        /* \"#utility.yul\":4845:4846   */\n      0x00\n        /* \"#utility.yul\":4836:4842   */\n      dup4\n        /* \"#utility.yul\":4831:4834   */\n      dup4\n        /* \"#utility.yul\":4827:4843   */\n      add\n        /* \"#utility.yul\":4820:4847   */\n      mstore\n        /* \"#utility.yul\":4715:4854   */\n      pop\n      pop\n      pop\n      jump\t// out\n        /* \"#utility.yul\":4860:5233   */\n    tag_52:\n        /* \"#utility.yul\":4946:4949   */\n      0x00\n        /* \"#utility.yul\":4974:5012   */\n      tag_140\n        /* \"#utility.yul\":5006:5011   */\n      dup3\n        /* \"#utility.yul\":4974:5012   */\n      tag_49\n      jump\t// in\n    tag_140:\n        /* \"#utility.yul\":5028:5098   */\n      tag_141\n        /* \"#utility.yul\":5091:5097   */\n      dup2\n        /* \"#utility.yul\":5086:5089   */\n      dup6\n        /* \"#utility.yul\":5028:5098   */\n      tag_50\n      jump\t// in\n    tag_141:\n        /* \"#utility.yul\":5021:5098   */\n      swap4\n      pop\n        /* \"#utility.yul\":5107:5172   */\n      tag_142\n        /* \"#utility.yul\":5165:5171   */\n      dup2\n        /* \"#utility.yul\":5160:5163   */\n      dup6\n        /* \"#utility.yul\":5153:5157   */\n      0x20\n        /* \"#utility.yul\":5146:5151   */\n      dup7\n        /* \"#utility.yul\":5142:5158   */\n      add\n        /* \"#utility.yul\":5107:5172   */\n      tag_51\n      jump\t// in\n    tag_142:\n        /* \"#utility.yul\":5197:5226   */\n      tag_143\n        /* \"#utility.yul\":5219:5225   */\n      dup2\n        /* \"#utility.yul\":5197:5226   */\n      tag_41\n      jump\t// in\n    tag_143:\n        /* \"#utility.yul\":5192:5195   */\n      dup5\n        /* \"#utility.yul\":5188:5227   */\n      add\n        /* \"#utility.yul\":5181:5227   */\n      swap2\n      pop\n        /* \"#utility.yul\":4950:5233   */\n      pop\n        /* \"#utility.yul\":4860:5233   */\n      swap3\n      swap2\n      pop\n      pop\n      jump\t// out\n        /* \"#utility.yul\":5239:5548   */\n    tag_11:\n        /* \"#utility.yul\":5350:5354   */\n      0x00\n        /* \"#utility.yul\":5388:5390   */\n      0x20\n        /* \"#utility.yul\":5377:5386   */\n      dup3\n        /* \"#utility.yul\":5373:5391   */\n      add\n        /* \"#utility.yul\":5365:5391   */\n      swap1\n      pop\n        /* \"#utility.yul\":5437:5446   */\n      dup2\n        /* \"#utility.yul\":5431:5435   */\n      dup2\n        /* \"#utility.yul\":5427:5447   */\n      sub\n        /* \"#utility.yul\":5423:5424   */\n      0x00\n        /* \"#utility.yul\":5412:5421   */\n      dup4\n        /* \"#utility.yul\":5408:5425   */\n      add\n        /* \"#utility.yul\":5401:5448   */\n      mstore\n        /* \"#utility.yul\":5465:5541   */\n      tag_145\n        /* \"#utility.yul\":5536:5540   */\n      dup2\n        /* \"#utility.yul\":5527:5533   */\n      dup5\n        /* \"#utility.yul\":5465:5541   */\n      tag_52\n      jump\t// in\n    tag_145:\n        /* \"#utility.yul\":5457:5541   */\n      swap1\n      pop\n        /* \"#utility.yul\":5239:5548   */\n      swap3\n      swap2\n      pop\n      pop\n      jump\t// out\n        /* \"#utility.yul\":5554:5671   */\n    tag_53:\n        /* \"#utility.yul\":5663:5664   */\n      0x00\n        /* \"#utility.yul\":5660:5661   */\n      dup1\n        /* \"#utility.yul\":5653:5665   */\n      revert\n        /* \"#utility.yul\":5677:5984   */\n    tag_54:\n        /* \"#utility.yul\":5738:5742   */\n      0x00\n        /* \"#utility.yul\":5828:5846   */\n      0xffffffffffffffff\n        /* \"#utility.yul\":5820:5826   */\n      dup3\n        /* \"#utility.yul\":5817:5847   */\n      gt\n        /* \"#utility.yul\":5814:5870   */\n      iszero\n      tag_148\n      jumpi\n        /* \"#utility.yul\":5850:5868   */\n      tag_149\n      tag_42\n      jump\t// in\n    tag_149:\n        /* \"#utility.yul\":5814:5870   */\n    tag_148:\n        /* \"#utility.yul\":5888:5917   */\n      tag_150\n        /* \"#utility.yul\":5910:5916   */\n      dup3\n        /* \"#utility.yul\":5888:5917   */\n      tag_41\n      jump\t// in\n    tag_150:\n        /* \"#utility.yul\":5880:5917   */\n      swap1\n      pop\n        /* \"#utility.yul\":5972:5976   */\n      0x20\n        /* \"#utility.yul\":5966:5970   */\n      dup2\n        /* \"#utility.yul\":5962:5977   */\n      add\n        /* \"#utility.yul\":5954:5977   */\n      swap1\n      pop\n        /* \"#utility.yul\":5677:5984   */\n      swap2\n      swap1\n      pop\n      jump\t// out\n        /* \"#utility.yul\":5990:6138   */\n    tag_55:\n        /* \"#utility.yul\":6088:6094   */\n      dup3\n        /* \"#utility.yul\":6083:6086   */\n      dup2\n        /* \"#utility.yul\":6078:6081   */\n      dup4\n        /* \"#utility.yul\":6065:6095   */\n      calldatacopy\n        /* \"#utility.yul\":6129:6130   */\n      0x00\n        /* \"#utility.yul\":6120:6126   */\n      dup4\n        /* \"#utility.yul\":6115:6118   */\n      dup4\n        /* \"#utility.yul\":6111:6127   */\n      add\n        /* \"#utility.yul\":6104:6131   */\n      mstore\n        /* \"#utility.yul\":5990:6138   */\n      pop\n      pop\n      pop\n      jump\t// out\n        /* \"#utility.yul\":6144:6567   */\n    tag_56:\n        /* \"#utility.yul\":6221:6226   */\n      0x00\n        /* \"#utility.yul\":6246:6311   */\n      tag_153\n        /* \"#utility.yul\":6262:6310   */\n      tag_154\n        /* \"#utility.yul\":6303:6309   */\n      dup5\n        /* \"#utility.yul\":6262:6310   */\n      tag_54\n      jump\t// in\n    tag_154:\n        /* \"#utility.yul\":6246:6311   */\n      tag_44\n      jump\t// in\n    tag_153:\n        /* \"#utility.yul\":6237:6311   */\n      swap1\n      pop\n        /* \"#utility.yul\":6334:6340   */\n      dup3\n        /* \"#utility.yul\":6327:6332   */\n      dup2\n        /* \"#utility.yul\":6320:6341   */\n      mstore\n        /* \"#utility.yul\":6372:6376   */\n      0x20\n        /* \"#utility.yul\":6365:6370   */\n      dup2\n        /* \"#utility.yul\":6361:6377   */\n      add\n        /* \"#utility.yul\":6410:6413   */\n      dup5\n        /* \"#utility.yul\":6401:6407   */\n      dup5\n        /* \"#utility.yul\":6396:6399   */\n      dup5\n        /* \"#utility.yul\":6392:6408   */\n      add\n        /* \"#utility.yul\":6389:6414   */\n      gt\n        /* \"#utility.yul\":6386:6498   */\n      iszero\n      tag_155\n      jumpi\n        /* \"#utility.yul\":6417:6496   */\n      tag_156\n      tag_53\n      jump\t// in\n    tag_156:\n        /* \"#utility.yul\":6386:6498   */\n    tag_155:\n        /* \"#utility.yul\":6507:6561   */\n      tag_157\n        /* \"#utility.yul\":6554:6560   */\n      dup5\n        /* \"#utility.yul\":6549:6552   */\n      dup3\n        /* \"#utility.yul\":6544:6547   */\n      dup6\n        /* \"#utility.yul\":6507:6561   */\n      tag_55\n      jump\t// in\n    tag_157:\n        /* \"#utility.yul\":6227:6567   */\n      pop\n        /* \"#utility.yul\":6144:6567   */\n      swap4\n      swap3\n      pop\n      pop\n      pop\n      jump\t// out\n        /* \"#utility.yul\":6586:6924   */\n    tag_57:\n        /* \"#utility.yul\":6641:6646   */\n      0x00\n        /* \"#utility.yul\":6690:6693   */\n      dup3\n        /* \"#utility.yul\":6683:6687   */\n      0x1f\n        /* \"#utility.yul\":6675:6681   */\n      dup4\n        /* \"#utility.yul\":6671:6688   */\n      add\n        /* \"#utility.yul\":6667:6694   */\n      slt\n        /* \"#utility.yul\":6657:6779   */\n      tag_159\n      jumpi\n        /* \"#utility.yul\":6698:6777   */\n      tag_160\n      tag_40\n      jump\t// in\n    tag_160:\n        /* \"#utility.yul\":6657:6779   */\n    tag_159:\n        /* \"#utility.yul\":6815:6821   */\n      dup2\n        /* \"#utility.yul\":6802:6822   */\n      calldataload\n        /* \"#utility.yul\":6840:6918   */\n      tag_161\n        /* \"#utility.yul\":6914:6917   */\n      dup5\n        /* \"#utility.yul\":6906:6912   */\n      dup3\n        /* \"#utility.yul\":6899:6903   */\n      0x20\n        /* \"#utility.yul\":6891:6897   */\n      dup7\n        /* \"#utility.yul\":6887:6904   */\n      add\n        /* \"#utility.yul\":6840:6918   */\n      tag_56\n      jump\t// in\n    tag_161:\n        /* \"#utility.yul\":6831:6918   */\n      swap2\n      pop\n        /* \"#utility.yul\":6647:6924   */\n      pop\n        /* \"#utility.yul\":6586:6924   */\n      swap3\n      swap2\n      pop\n      pop\n      jump\t// out\n        /* \"#utility.yul\":6930:7437   */\n    tag_14:\n        /* \"#utility.yul\":6998:7004   */\n      0x00\n        /* \"#utility.yul\":7047:7049   */\n      0x20\n        /* \"#utility.yul\":7035:7044   */\n      dup3\n        /* \"#utility.yul\":7026:7033   */\n      dup5\n        /* \"#utility.yul\":7022:7045   */\n      sub\n        /* \"#utility.yul\":7018:7050   */\n      slt\n        /* \"#utility.yul\":7015:7134   */\n      iszero\n      tag_163\n      jumpi\n        /* \"#utility.yul\":7053:7132   */\n      tag_164\n      tag_31\n      jump\t// in\n    tag_164:\n        /* \"#utility.yul\":7015:7134   */\n    tag_163:\n        /* \"#utility.yul\":7201:7202   */\n      0x00\n        /* \"#utility.yul\":7190:7199   */\n      dup3\n        /* \"#utility.yul\":7186:7203   */\n      add\n        /* \"#utility.yul\":7173:7204   */\n      calldataload\n        /* \"#utility.yul\":7231:7249   */\n      0xffffffffffffffff\n        /* \"#utility.yul\":7223:7229   */\n      dup2\n        /* \"#utility.yul\":7220:7250   */\n      gt\n        /* \"#utility.yul\":7217:7334   */\n      iszero\n      tag_165\n      jumpi\n        /* \"#utility.yul\":7253:7332   */\n      tag_166\n      tag_32\n      jump\t// in\n    tag_166:\n        /* \"#utility.yul\":7217:7334   */\n    tag_165:\n        /* \"#utility.yul\":7358:7420   */\n      tag_167\n        /* \"#utility.yul\":7412:7419   */\n      dup5\n        /* \"#utility.yul\":7403:7409   */\n      dup3\n        /* \"#utility.yul\":7392:7401   */\n      dup6\n        /* \"#utility.yul\":7388:7410   */\n      add\n        /* \"#utility.yul\":7358:7420   */\n      tag_57\n      jump\t// in\n    tag_167:\n        /* \"#utility.yul\":7348:7420   */\n      swap2\n      pop\n        /* \"#utility.yul\":7144:7430   */\n      pop\n        /* \"#utility.yul\":6930:7437   */\n      swap3\n      swap2\n      pop\n      pop\n      jump\t// out\n        /* \"#utility.yul\":7443:7561   */\n    tag_58:\n        /* \"#utility.yul\":7530:7554   */\n      tag_169\n        /* \"#utility.yul\":7548:7553   */\n      dup2\n        /* \"#utility.yul\":7530:7554   */\n      tag_33\n      jump\t// in\n    tag_169:\n        /* \"#utility.yul\":7525:7528   */\n      dup3\n        /* \"#utility.yul\":7518:7555   */\n      mstore\n        /* \"#utility.yul\":7443:7561   */\n      pop\n      pop\n      jump\t// out\n        /* \"#utility.yul\":7567:7685   */\n    tag_59:\n        /* \"#utility.yul\":7654:7678   */\n      tag_171\n        /* \"#utility.yul\":7672:7677   */\n      dup2\n        /* \"#utility.yul\":7654:7678   */\n      tag_37\n      jump\t// in\n    tag_171:\n        /* \"#utility.yul\":7649:7652   */\n      dup3\n        /* \"#utility.yul\":7642:7679   */\n      mstore\n        /* \"#utility.yul\":7567:7685   */\n      pop\n      pop\n      jump\t// out\n        /* \"#utility.yul\":7691:7805   */\n    tag_60:\n        /* \"#utility.yul\":7758:7764   */\n      0x00\n        /* \"#utility.yul\":7792:7797   */\n      dup2\n        /* \"#utility.yul\":7786:7798   */\n      mload\n        /* \"#utility.yul\":7776:7798   */\n      swap1\n      pop\n        /* \"#utility.yul\":7691:7805   */\n      swap2\n      swap1\n      pop\n      jump\t// out\n        /* \"#utility.yul\":7811:7995   */\n    tag_61:\n        /* \"#utility.yul\":7910:7921   */\n      0x00\n        /* \"#utility.yul\":7944:7950   */\n      dup3\n        /* \"#utility.yul\":7939:7942   */\n      dup3\n        /* \"#utility.yul\":7932:7951   */\n      mstore\n        /* \"#utility.yul\":7984:7988   */\n      0x20\n        /* \"#utility.yul\":7979:7982   */\n      dup3\n        /* \"#utility.yul\":7975:7989   */\n      add\n        /* \"#utility.yul\":7960:7989   */\n      swap1\n      pop\n        /* \"#utility.yul\":7811:7995   */\n      swap3\n      swap2\n      pop\n      pop\n      jump\t// out\n        /* \"#utility.yul\":8001:8133   */\n    tag_62:\n        /* \"#utility.yul\":8068:8072   */\n      0x00\n        /* \"#utility.yul\":8091:8094   */\n      dup2\n        /* \"#utility.yul\":8083:8094   */\n      swap1\n      pop\n        /* \"#utility.yul\":8121:8125   */\n      0x20\n        /* \"#utility.yul\":8116:8119   */\n      dup3\n        /* \"#utility.yul\":8112:8126   */\n      add\n        /* \"#utility.yul\":8104:8126   */\n      swap1\n      pop\n        /* \"#utility.yul\":8001:8133   */\n      swap2\n      swap1\n      pop\n      jump\t// out\n        /* \"#utility.yul\":8139:8247   */\n    tag_63:\n        /* \"#utility.yul\":8216:8240   */\n      tag_176\n        /* \"#utility.yul\":8234:8239   */\n      dup2\n        /* \"#utility.yul\":8216:8240   */\n      tag_33\n      jump\t// in\n    tag_176:\n        /* \"#utility.yul\":8211:8214   */\n      dup3\n        /* \"#utility.yul\":8204:8241   */\n      mstore\n        /* \"#utility.yul\":8139:8247   */\n      pop\n      pop\n      jump\t// out\n        /* \"#utility.yul\":8253:8432   */\n    tag_64:\n        /* \"#utility.yul\":8322:8332   */\n      0x00\n        /* \"#utility.yul\":8343:8389   */\n      tag_178\n        /* \"#utility.yul\":8385:8388   */\n      dup4\n        /* \"#utility.yul\":8377:8383   */\n      dup4\n        /* \"#utility.yul\":8343:8389   */\n      tag_63\n      jump\t// in\n    tag_178:\n        /* \"#utility.yul\":8421:8425   */\n      0x20\n        /* \"#utility.yul\":8416:8419   */\n      dup4\n        /* \"#utility.yul\":8412:8426   */\n      add\n        /* \"#utility.yul\":8398:8426   */\n      swap1\n      pop\n        /* \"#utility.yul\":8253:8432   */\n      swap3\n      swap2\n      pop\n      pop\n      jump\t// out\n        /* \"#utility.yul\":8438:8551   */\n    tag_65:\n        /* \"#utility.yul\":8508:8512   */\n      0x00\n        /* \"#utility.yul\":8540:8544   */\n      0x20\n        /* \"#utility.yul\":8535:8538   */\n      dup3\n        /* \"#utility.yul\":8531:8545   */\n      add\n        /* \"#utility.yul\":8523:8545   */\n      swap1\n      pop\n        /* \"#utility.yul\":8438:8551   */\n      swap2\n      swap1\n      pop\n      jump\t// out\n        /* \"#utility.yul\":8587:9319   */\n    tag_66:\n        /* \"#utility.yul\":8706:8709   */\n      0x00\n        /* \"#utility.yul\":8735:8789   */\n      tag_181\n        /* \"#utility.yul\":8783:8788   */\n      dup3\n        /* \"#utility.yul\":8735:8789   */\n      tag_60\n      jump\t// in\n    tag_181:\n        /* \"#utility.yul\":8805:8891   */\n      tag_182\n        /* \"#utility.yul\":8884:8890   */\n      dup2\n        /* \"#utility.yul\":8879:8882   */\n      dup6\n        /* \"#utility.yul\":8805:8891   */\n      tag_61\n      jump\t// in\n    tag_182:\n        /* \"#utility.yul\":8798:8891   */\n      swap4\n      pop\n        /* \"#utility.yul\":8915:8971   */\n      tag_183\n        /* \"#utility.yul\":8965:8970   */\n      dup4\n        /* \"#utility.yul\":8915:8971   */\n      tag_62\n      jump\t// in\n    tag_183:\n        /* \"#utility.yul\":8994:9001   */\n      dup1\n        /* \"#utility.yul\":9025:9026   */\n      0x00\n        /* \"#utility.yul\":9010:9294   */\n    tag_184:\n        /* \"#utility.yul\":9035:9041   */\n      dup4\n        /* \"#utility.yul\":9032:9033   */\n      dup2\n        /* \"#utility.yul\":9029:9042   */\n      lt\n        /* \"#utility.yul\":9010:9294   */\n      iszero\n      tag_186\n      jumpi\n        /* \"#utility.yul\":9111:9117   */\n      dup2\n        /* \"#utility.yul\":9105:9118   */\n      mload\n        /* \"#utility.yul\":9138:9201   */\n      tag_187\n        /* \"#utility.yul\":9197:9200   */\n      dup9\n        /* \"#utility.yul\":9182:9195   */\n      dup3\n        /* \"#utility.yul\":9138:9201   */\n      tag_64\n      jump\t// in\n    tag_187:\n        /* \"#utility.yul\":9131:9201   */\n      swap8\n      pop\n        /* \"#utility.yul\":9224:9284   */\n      tag_188\n        /* \"#utility.yul\":9277:9283   */\n      dup4\n        /* \"#utility.yul\":9224:9284   */\n      tag_65\n      jump\t// in\n    tag_188:\n        /* \"#utility.yul\":9214:9284   */\n      swap3\n      pop\n        /* \"#utility.yul\":9070:9294   */\n      pop\n        /* \"#utility.yul\":9057:9058   */\n      0x01\n        /* \"#utility.yul\":9054:9055   */\n      dup2\n        /* \"#utility.yul\":9050:9059   */\n      add\n        /* \"#utility.yul\":9045:9059   */\n      swap1\n      pop\n        /* \"#utility.yul\":9010:9294   */\n      jump(tag_184)\n    tag_186:\n        /* \"#utility.yul\":9014:9028   */\n      pop\n        /* \"#utility.yul\":9310:9313   */\n      dup6\n        /* \"#utility.yul\":9303:9313   */\n      swap4\n      pop\n        /* \"#utility.yul\":8711:9319   */\n      pop\n      pop\n      pop\n        /* \"#utility.yul\":8587:9319   */\n      swap3\n      swap2\n      pop\n      pop\n      jump\t// out\n        /* \"#utility.yul\":9325:9918   */\n    tag_17:\n        /* \"#utility.yul\":9524:9528   */\n      0x00\n        /* \"#utility.yul\":9562:9564   */\n      0x60\n        /* \"#utility.yul\":9551:9560   */\n      dup3\n        /* \"#utility.yul\":9547:9565   */\n      add\n        /* \"#utility.yul\":9539:9565   */\n      swap1\n      pop\n        /* \"#utility.yul\":9575:9646   */\n      tag_190\n        /* \"#utility.yul\":9643:9644   */\n      0x00\n        /* \"#utility.yul\":9632:9641   */\n      dup4\n        /* \"#utility.yul\":9628:9645   */\n      add\n        /* \"#utility.yul\":9619:9625   */\n      dup7\n        /* \"#utility.yul\":9575:9646   */\n      tag_58\n      jump\t// in\n    tag_190:\n        /* \"#utility.yul\":9656:9728   */\n      tag_191\n        /* \"#utility.yul\":9724:9726   */\n      0x20\n        /* \"#utility.yul\":9713:9722   */\n      dup4\n        /* \"#utility.yul\":9709:9727   */\n      add\n        /* \"#utility.yul\":9700:9706   */\n      dup6\n        /* \"#utility.yul\":9656:9728   */\n      tag_59\n      jump\t// in\n    tag_191:\n        /* \"#utility.yul\":9775:9784   */\n      dup2\n        /* \"#utility.yul\":9769:9773   */\n      dup2\n        /* \"#utility.yul\":9765:9785   */\n      sub\n        /* \"#utility.yul\":9760:9762   */\n      0x40\n        /* \"#utility.yul\":9749:9758   */\n      dup4\n        /* \"#utility.yul\":9745:9763   */\n      add\n        /* \"#utility.yul\":9738:9786   */\n      mstore\n        /* \"#utility.yul\":9803:9911   */\n      tag_192\n        /* \"#utility.yul\":9906:9910   */\n      dup2\n        /* \"#utility.yul\":9897:9903   */\n      dup5\n        /* \"#utility.yul\":9803:9911   */\n      tag_66\n      jump\t// in\n    tag_192:\n        /* \"#utility.yul\":9795:9911   */\n      swap1\n      pop\n        /* \"#utility.yul\":9325:9918   */\n      swap5\n      swap4\n      pop\n      pop\n      pop\n      pop\n      jump\t// out\n        /* \"#utility.yul\":9924:10067   */\n    tag_67:\n        /* \"#utility.yul\":9981:9986   */\n      0x00\n        /* \"#utility.yul\":10012:10018   */\n      dup2\n        /* \"#utility.yul\":10006:10019   */\n      mload\n        /* \"#utility.yul\":9997:10019   */\n      swap1\n      pop\n        /* \"#utility.yul\":10028:10061   */\n      tag_194\n        /* \"#utility.yul\":10055:10060   */\n      dup2\n        /* \"#utility.yul\":10028:10061   */\n      tag_34\n      jump\t// in\n    tag_194:\n        /* \"#utility.yul\":9924:10067   */\n      swap3\n      swap2\n      pop\n      pop\n      jump\t// out\n        /* \"#utility.yul\":10073:10177   */\n    tag_68:\n        /* \"#utility.yul\":10118:10125   */\n      0x00\n        /* \"#utility.yul\":10147:10171   */\n      tag_196\n        /* \"#utility.yul\":10165:10170   */\n      dup3\n        /* \"#utility.yul\":10147:10171   */\n      tag_36\n      jump\t// in\n    tag_196:\n        /* \"#utility.yul\":10136:10171   */\n      swap1\n      pop\n        /* \"#utility.yul\":10073:10177   */\n      swap2\n      swap1\n      pop\n      jump\t// out\n        /* \"#utility.yul\":10183:10321   */\n    tag_69:\n        /* \"#utility.yul\":10264:10296   */\n      tag_198\n        /* \"#utility.yul\":10290:10295   */\n      dup2\n        /* \"#utility.yul\":10264:10296   */\n      tag_68\n      jump\t// in\n    tag_198:\n        /* \"#utility.yul\":10257:10262   */\n      dup2\n        /* \"#utility.yul\":10254:10297   */\n      eq\n        /* \"#utility.yul\":10244:10315   */\n      tag_199\n      jumpi\n        /* \"#utility.yul\":10311:10312   */\n      0x00\n        /* \"#utility.yul\":10308:10309   */\n      dup1\n        /* \"#utility.yul\":10301:10313   */\n      revert\n        /* \"#utility.yul\":10244:10315   */\n    tag_199:\n        /* \"#utility.yul\":10183:10321   */\n      pop\n      jump\t// out\n        /* \"#utility.yul\":10327:10486   */\n    tag_70:\n        /* \"#utility.yul\":10392:10397   */\n      0x00\n        /* \"#utility.yul\":10423:10429   */\n      dup2\n        /* \"#utility.yul\":10417:10430   */\n      mload\n        /* \"#utility.yul\":10408:10430   */\n      swap1\n      pop\n        /* \"#utility.yul\":10439:10480   */\n      tag_201\n        /* \"#utility.yul\":10474:10479   */\n      dup2\n        /* \"#utility.yul\":10439:10480   */\n      tag_69\n      jump\t// in\n    tag_201:\n        /* \"#utility.yul\":10327:10486   */\n      swap3\n      swap2\n      pop\n      pop\n      jump\t// out\n        /* \"#utility.yul\":10509:11241   */\n    tag_71:\n        /* \"#utility.yul\":10616:10621   */\n      0x00\n        /* \"#utility.yul\":10641:10722   */\n      tag_203\n        /* \"#utility.yul\":10657:10721   */\n      tag_204\n        /* \"#utility.yul\":10714:10720   */\n      dup5\n        /* \"#utility.yul\":10657:10721   */\n      tag_45\n      jump\t// in\n    tag_204:\n        /* \"#utility.yul\":10641:10722   */\n      tag_44\n      jump\t// in\n    tag_203:\n        /* \"#utility.yul\":10632:10722   */\n      swap1\n      pop\n        /* \"#utility.yul\":10742:10747   */\n      dup1\n        /* \"#utility.yul\":10771:10777   */\n      dup4\n        /* \"#utility.yul\":10764:10769   */\n      dup3\n        /* \"#utility.yul\":10757:10778   */\n      mstore\n        /* \"#utility.yul\":10805:10809   */\n      0x20\n        /* \"#utility.yul\":10798:10803   */\n      dup3\n        /* \"#utility.yul\":10794:10810   */\n      add\n        /* \"#utility.yul\":10787:10810   */\n      swap1\n      pop\n        /* \"#utility.yul\":10858:10862   */\n      0x20\n        /* \"#utility.yul\":10850:10856   */\n      dup5\n        /* \"#utility.yul\":10846:10863   */\n      mul\n        /* \"#utility.yul\":10838:10844   */\n      dup4\n        /* \"#utility.yul\":10834:10864   */\n      add\n        /* \"#utility.yul\":10887:10890   */\n      dup6\n        /* \"#utility.yul\":10879:10885   */\n      dup2\n        /* \"#utility.yul\":10876:10891   */\n      gt\n        /* \"#utility.yul\":10873:10995   */\n      iszero\n      tag_205\n      jumpi\n        /* \"#utility.yul\":10906:10985   */\n      tag_206\n      tag_46\n      jump\t// in\n    tag_206:\n        /* \"#utility.yul\":10873:10995   */\n    tag_205:\n        /* \"#utility.yul\":11021:11027   */\n      dup4\n        /* \"#utility.yul\":11004:11235   */\n    tag_207:\n        /* \"#utility.yul\":11038:11044   */\n      dup2\n        /* \"#utility.yul\":11033:11036   */\n      dup2\n        /* \"#utility.yul\":11030:11045   */\n      lt\n        /* \"#utility.yul\":11004:11235   */\n      iszero\n      tag_209\n      jumpi\n        /* \"#utility.yul\":11113:11116   */\n      dup1\n        /* \"#utility.yul\":11142:11190   */\n      tag_210\n        /* \"#utility.yul\":11186:11189   */\n      dup9\n        /* \"#utility.yul\":11174:11184   */\n      dup3\n        /* \"#utility.yul\":11142:11190   */\n      tag_67\n      jump\t// in\n    tag_210:\n        /* \"#utility.yul\":11137:11140   */\n      dup5\n        /* \"#utility.yul\":11130:11191   */\n      mstore\n        /* \"#utility.yul\":11220:11224   */\n      0x20\n        /* \"#utility.yul\":11215:11218   */\n      dup5\n        /* \"#utility.yul\":11211:11225   */\n      add\n        /* \"#utility.yul\":11204:11225   */\n      swap4\n      pop\n        /* \"#utility.yul\":11080:11235   */\n      pop\n        /* \"#utility.yul\":11064:11068   */\n      0x20\n        /* \"#utility.yul\":11059:11062   */\n      dup2\n        /* \"#utility.yul\":11055:11069   */\n      add\n        /* \"#utility.yul\":11048:11069   */\n      swap1\n      pop\n        /* \"#utility.yul\":11004:11235   */\n      jump(tag_207)\n    tag_209:\n        /* \"#utility.yul\":11008:11029   */\n      pop\n        /* \"#utility.yul\":10622:11241   */\n      pop\n      pop\n        /* \"#utility.yul\":10509:11241   */\n      swap4\n      swap3\n      pop\n      pop\n      pop\n      jump\t// out\n        /* \"#utility.yul\":11264:11649   */\n    tag_72:\n        /* \"#utility.yul\":11346:11351   */\n      0x00\n        /* \"#utility.yul\":11395:11398   */\n      dup3\n        /* \"#utility.yul\":11388:11392   */\n      0x1f\n        /* \"#utility.yul\":11380:11386   */\n      dup4\n        /* \"#utility.yul\":11376:11393   */\n      add\n        /* \"#utility.yul\":11372:11399   */\n      slt\n        /* \"#utility.yul\":11362:11484   */\n      tag_212\n      jumpi\n        /* \"#utility.yul\":11403:11482   */\n      tag_213\n      tag_40\n      jump\t// in\n    tag_213:\n        /* \"#utility.yul\":11362:11484   */\n    tag_212:\n        /* \"#utility.yul\":11513:11519   */\n      dup2\n        /* \"#utility.yul\":11507:11520   */\n      mload\n        /* \"#utility.yul\":11538:11643   */\n      tag_214\n        /* \"#utility.yul\":11639:11642   */\n      dup5\n        /* \"#utility.yul\":11631:11637   */\n      dup3\n        /* \"#utility.yul\":11624:11628   */\n      0x20\n        /* \"#utility.yul\":11616:11622   */\n      dup7\n        /* \"#utility.yul\":11612:11629   */\n      add\n        /* \"#utility.yul\":11538:11643   */\n      tag_71\n      jump\t// in\n    tag_214:\n        /* \"#utility.yul\":11529:11643   */\n      swap2\n      pop\n        /* \"#utility.yul\":11352:11649   */\n      pop\n        /* \"#utility.yul\":11264:11649   */\n      swap3\n      swap2\n      pop\n      pop\n      jump\t// out\n        /* \"#utility.yul\":11655:12537   */\n    tag_26:\n        /* \"#utility.yul\":11776:11782   */\n      0x00\n        /* \"#utility.yul\":11784:11790   */\n      dup1\n        /* \"#utility.yul\":11792:11798   */\n      0x00\n        /* \"#utility.yul\":11841:11843   */\n      0x60\n        /* \"#utility.yul\":11829:11838   */\n      dup5\n        /* \"#utility.yul\":11820:11827   */\n      dup7\n        /* \"#utility.yul\":11816:11839   */\n      sub\n        /* \"#utility.yul\":11812:11844   */\n      slt\n        /* \"#utility.yul\":11809:11928   */\n      iszero\n      tag_216\n      jumpi\n        /* \"#utility.yul\":11847:11926   */\n      tag_217\n      tag_31\n      jump\t// in\n    tag_217:\n        /* \"#utility.yul\":11809:11928   */\n    tag_216:\n        /* \"#utility.yul\":11967:11968   */\n      0x00\n        /* \"#utility.yul\":11992:12056   */\n      tag_218\n        /* \"#utility.yul\":12048:12055   */\n      dup7\n        /* \"#utility.yul\":12039:12045   */\n      dup3\n        /* \"#utility.yul\":12028:12037   */\n      dup8\n        /* \"#utility.yul\":12024:12046   */\n      add\n        /* \"#utility.yul\":11992:12056   */\n      tag_67\n      jump\t// in\n    tag_218:\n        /* \"#utility.yul\":11982:12056   */\n      swap4\n      pop\n        /* \"#utility.yul\":11938:12066   */\n      pop\n        /* \"#utility.yul\":12105:12107   */\n      0x20\n        /* \"#utility.yul\":12131:12203   */\n      tag_219\n        /* \"#utility.yul\":12195:12202   */\n      dup7\n        /* \"#utility.yul\":12186:12192   */\n      dup3\n        /* \"#utility.yul\":12175:12184   */\n      dup8\n        /* \"#utility.yul\":12171:12193   */\n      add\n        /* \"#utility.yul\":12131:12203   */\n      tag_70\n      jump\t// in\n    tag_219:\n        /* \"#utility.yul\":12121:12203   */\n      swap3\n      pop\n        /* \"#utility.yul\":12076:12213   */\n      pop\n        /* \"#utility.yul\":12273:12275   */\n      0x40\n        /* \"#utility.yul\":12262:12271   */\n      dup5\n        /* \"#utility.yul\":12258:12276   */\n      add\n        /* \"#utility.yul\":12252:12277   */\n      mload\n        /* \"#utility.yul\":12304:12322   */\n      0xffffffffffffffff\n        /* \"#utility.yul\":12296:12302   */\n      dup2\n        /* \"#utility.yul\":12293:12323   */\n      gt\n        /* \"#utility.yul\":12290:12407   */\n      iszero\n      tag_220\n      jumpi\n        /* \"#utility.yul\":12326:12405   */\n      tag_221\n      tag_32\n      jump\t// in\n    tag_221:\n        /* \"#utility.yul\":12290:12407   */\n    tag_220:\n        /* \"#utility.yul\":12431:12520   */\n      tag_222\n        /* \"#utility.yul\":12512:12519   */\n      dup7\n        /* \"#utility.yul\":12503:12509   */\n      dup3\n        /* \"#utility.yul\":12492:12501   */\n      dup8\n        /* \"#utility.yul\":12488:12510   */\n      add\n        /* \"#utility.yul\":12431:12520   */\n      tag_72\n      jump\t// in\n    tag_222:\n        /* \"#utility.yul\":12421:12520   */\n      swap2\n      pop\n        /* \"#utility.yul\":12223:12530   */\n      pop\n        /* \"#utility.yul\":11655:12537   */\n      swap3\n      pop\n      swap3\n      pop\n      swap3\n      jump\t// out\n        /* \"#utility.yul\":12543:12622   */\n    tag_73:\n        /* \"#utility.yul\":12582:12589   */\n      0x00\n        /* \"#utility.yul\":12611:12616   */\n      dup2\n        /* \"#utility.yul\":12600:12616   */\n      swap1\n      pop\n        /* \"#utility.yul\":12543:12622   */\n      swap2\n      swap1\n      pop\n      jump\t// out\n        /* \"#utility.yul\":12628:12785   */\n    tag_74:\n        /* \"#utility.yul\":12733:12778   */\n      tag_225\n        /* \"#utility.yul\":12753:12777   */\n      tag_226\n        /* \"#utility.yul\":12771:12776   */\n      dup3\n        /* \"#utility.yul\":12753:12777   */\n      tag_33\n      jump\t// in\n    tag_226:\n        /* \"#utility.yul\":12733:12778   */\n      tag_73\n      jump\t// in\n    tag_225:\n        /* \"#utility.yul\":12728:12731   */\n      dup3\n        /* \"#utility.yul\":12721:12779   */\n      mstore\n        /* \"#utility.yul\":12628:12785   */\n      pop\n      pop\n      jump\t// out\n        /* \"#utility.yul\":12791:12885   */\n    tag_75:\n        /* \"#utility.yul\":12824:12832   */\n      0x00\n        /* \"#utility.yul\":12872:12877   */\n      dup2\n        /* \"#utility.yul\":12868:12870   */\n      0x60\n        /* \"#utility.yul\":12864:12878   */\n      shl\n        /* \"#utility.yul\":12843:12878   */\n      swap1\n      pop\n        /* \"#utility.yul\":12791:12885   */\n      swap2\n      swap1\n      pop\n      jump\t// out\n        /* \"#utility.yul\":12891:12985   */\n    tag_76:\n        /* \"#utility.yul\":12930:12937   */\n      0x00\n        /* \"#utility.yul\":12959:12979   */\n      tag_229\n        /* \"#utility.yul\":12973:12978   */\n      dup3\n        /* \"#utility.yul\":12959:12979   */\n      tag_75\n      jump\t// in\n    tag_229:\n        /* \"#utility.yul\":12948:12979   */\n      swap1\n      pop\n        /* \"#utility.yul\":12891:12985   */\n      swap2\n      swap1\n      pop\n      jump\t// out\n        /* \"#utility.yul\":12991:13091   */\n    tag_77:\n        /* \"#utility.yul\":13030:13037   */\n      0x00\n        /* \"#utility.yul\":13059:13085   */\n      tag_231\n        /* \"#utility.yul\":13079:13084   */\n      dup3\n        /* \"#utility.yul\":13059:13085   */\n      tag_76\n      jump\t// in\n    tag_231:\n        /* \"#utility.yul\":13048:13085   */\n      swap1\n      pop\n        /* \"#utility.yul\":12991:13091   */\n      swap2\n      swap1\n      pop\n      jump\t// out\n        /* \"#utility.yul\":13097:13254   */\n    tag_78:\n        /* \"#utility.yul\":13202:13247   */\n      tag_233\n        /* \"#utility.yul\":13222:13246   */\n      tag_234\n        /* \"#utility.yul\":13240:13245   */\n      dup3\n        /* \"#utility.yul\":13222:13246   */\n      tag_37\n      jump\t// in\n    tag_234:\n        /* \"#utility.yul\":13202:13247   */\n      tag_77\n      jump\t// in\n    tag_233:\n        /* \"#utility.yul\":13197:13200   */\n      dup3\n        /* \"#utility.yul\":13190:13248   */\n      mstore\n        /* \"#utility.yul\":13097:13254   */\n      pop\n      pop\n      jump\t// out\n        /* \"#utility.yul\":13260:13423   */\n    tag_79:\n        /* \"#utility.yul\":13377:13388   */\n      0x00\n        /* \"#utility.yul\":13414:13417   */\n      dup2\n        /* \"#utility.yul\":13399:13417   */\n      swap1\n      pop\n        /* \"#utility.yul\":13260:13423   */\n      swap3\n      swap2\n      pop\n      pop\n      jump\t// out\n        /* \"#utility.yul\":13429:13545   */\n    tag_80:\n        /* \"#utility.yul\":13514:13538   */\n      tag_237\n        /* \"#utility.yul\":13532:13537   */\n      dup2\n        /* \"#utility.yul\":13514:13538   */\n      tag_33\n      jump\t// in\n    tag_237:\n        /* \"#utility.yul\":13509:13512   */\n      dup3\n        /* \"#utility.yul\":13502:13539   */\n      mstore\n        /* \"#utility.yul\":13429:13545   */\n      pop\n      pop\n      jump\t// out\n        /* \"#utility.yul\":13551:13746   */\n    tag_81:\n        /* \"#utility.yul\":13628:13638   */\n      0x00\n        /* \"#utility.yul\":13649:13703   */\n      tag_239\n        /* \"#utility.yul\":13699:13702   */\n      dup4\n        /* \"#utility.yul\":13691:13697   */\n      dup4\n        /* \"#utility.yul\":13649:13703   */\n      tag_80\n      jump\t// in\n    tag_239:\n        /* \"#utility.yul\":13735:13739   */\n      0x20\n        /* \"#utility.yul\":13730:13733   */\n      dup4\n        /* \"#utility.yul\":13726:13740   */\n      add\n        /* \"#utility.yul\":13712:13740   */\n      swap1\n      pop\n        /* \"#utility.yul\":13551:13746   */\n      swap3\n      swap2\n      pop\n      pop\n      jump\t// out\n        /* \"#utility.yul\":13782:14558   */\n    tag_82:\n        /* \"#utility.yul\":13919:13922   */\n      0x00\n        /* \"#utility.yul\":13948:14002   */\n      tag_241\n        /* \"#utility.yul\":13996:14001   */\n      dup3\n        /* \"#utility.yul\":13948:14002   */\n      tag_60\n      jump\t// in\n    tag_241:\n        /* \"#utility.yul\":14018:14122   */\n      tag_242\n        /* \"#utility.yul\":14115:14121   */\n      dup2\n        /* \"#utility.yul\":14110:14113   */\n      dup6\n        /* \"#utility.yul\":14018:14122   */\n      tag_79\n      jump\t// in\n    tag_242:\n        /* \"#utility.yul\":14011:14122   */\n      swap4\n      pop\n        /* \"#utility.yul\":14146:14202   */\n      tag_243\n        /* \"#utility.yul\":14196:14201   */\n      dup4\n        /* \"#utility.yul\":14146:14202   */\n      tag_62\n      jump\t// in\n    tag_243:\n        /* \"#utility.yul\":14225:14232   */\n      dup1\n        /* \"#utility.yul\":14256:14257   */\n      0x00\n        /* \"#utility.yul\":14241:14533   */\n    tag_244:\n        /* \"#utility.yul\":14266:14272   */\n      dup4\n        /* \"#utility.yul\":14263:14264   */\n      dup2\n        /* \"#utility.yul\":14260:14273   */\n      lt\n        /* \"#utility.yul\":14241:14533   */\n      iszero\n      tag_246\n      jumpi\n        /* \"#utility.yul\":14342:14348   */\n      dup2\n        /* \"#utility.yul\":14336:14349   */\n      mload\n        /* \"#utility.yul\":14369:14440   */\n      tag_247\n        /* \"#utility.yul\":14436:14439   */\n      dup9\n        /* \"#utility.yul\":14421:14434   */\n      dup3\n        /* \"#utility.yul\":14369:14440   */\n      tag_81\n      jump\t// in\n    tag_247:\n        /* \"#utility.yul\":14362:14440   */\n      swap8\n      pop\n        /* \"#utility.yul\":14463:14523   */\n      tag_248\n        /* \"#utility.yul\":14516:14522   */\n      dup4\n        /* \"#utility.yul\":14463:14523   */\n      tag_65\n      jump\t// in\n    tag_248:\n        /* \"#utility.yul\":14453:14523   */\n      swap3\n      pop\n        /* \"#utility.yul\":14301:14533   */\n      pop\n        /* \"#utility.yul\":14288:14289   */\n      0x01\n        /* \"#utility.yul\":14285:14286   */\n      dup2\n        /* \"#utility.yul\":14281:14290   */\n      add\n        /* \"#utility.yul\":14276:14290   */\n      swap1\n      pop\n        /* \"#utility.yul\":14241:14533   */\n      jump(tag_244)\n    tag_246:\n        /* \"#utility.yul\":14245:14259   */\n      pop\n        /* \"#utility.yul\":14549:14552   */\n      dup6\n        /* \"#utility.yul\":14542:14552   */\n      swap4\n      pop\n        /* \"#utility.yul\":13924:14558   */\n      pop\n      pop\n      pop\n        /* \"#utility.yul\":13782:14558   */\n      swap3\n      swap2\n      pop\n      pop\n      jump\t// out\n        /* \"#utility.yul\":14564:15181   */\n    tag_29:\n        /* \"#utility.yul\":14782:14785   */\n      0x00\n        /* \"#utility.yul\":14797:14872   */\n      tag_250\n        /* \"#utility.yul\":14868:14871   */\n      dup3\n        /* \"#utility.yul\":14859:14865   */\n      dup7\n        /* \"#utility.yul\":14797:14872   */\n      tag_74\n      jump\t// in\n    tag_250:\n        /* \"#utility.yul\":14897:14899   */\n      0x20\n        /* \"#utility.yul\":14892:14895   */\n      dup3\n        /* \"#utility.yul\":14888:14900   */\n      add\n        /* \"#utility.yul\":14881:14900   */\n      swap2\n      pop\n        /* \"#utility.yul\":14910:14985   */\n      tag_251\n        /* \"#utility.yul\":14981:14984   */\n      dup3\n        /* \"#utility.yul\":14972:14978   */\n      dup6\n        /* \"#utility.yul\":14910:14985   */\n      tag_78\n      jump\t// in\n    tag_251:\n        /* \"#utility.yul\":15010:15012   */\n      0x14\n        /* \"#utility.yul\":15005:15008   */\n      dup3\n        /* \"#utility.yul\":15001:15013   */\n      add\n        /* \"#utility.yul\":14994:15013   */\n      swap2\n      pop\n        /* \"#utility.yul\":15030:15155   */\n      tag_252\n        /* \"#utility.yul\":15151:15154   */\n      dup3\n        /* \"#utility.yul\":15142:15148   */\n      dup5\n        /* \"#utility.yul\":15030:15155   */\n      tag_82\n      jump\t// in\n    tag_252:\n        /* \"#utility.yul\":15023:15155   */\n      swap2\n      pop\n        /* \"#utility.yul\":15172:15175   */\n      dup2\n        /* \"#utility.yul\":15165:15175   */\n      swap1\n      pop\n        /* \"#utility.yul\":14564:15181   */\n      swap5\n      swap4\n      pop\n      pop\n      pop\n      pop\n      jump\t// out\n\n    auxdata: 0xa2646970667358221220496c8f4f7958f8be770c30742d876ecdb29a93ab574760f851898ad1b3391cde64736f6c634300081a0033\n}\n",
				"bytecode": {
					"linkReferences": {},
					"object": "6080604052348015600e575f80fd5b506108ef8061001c5f395ff3fe608060405234801561000f575f80fd5b506004361061003f575f3560e01c806372b9d24914610043578063e5c5e9a314610073578063eacc0e01146100a5575b5f80fd5b61005d6004803603810190610058919061034c565b6100d5565b60405161006a9190610418565b60405180910390f35b61008d600480360381019061008891906104e8565b610104565b60405161009c93929190610604565b60405180910390f35b6100bf60048036038101906100ba919061034c565b61012f565b6040516100cc9190610418565b60405180910390f35b60608383836040516020016100ec93929190610604565b60405160208183030381529060405290509392505050565b5f8060608380602001905181019061011c9190610724565b8093508194508295505050509193909250565b606083838360405160200161014693929190610881565b60405160208183030381529060405290509392505050565b5f604051905090565b5f80fd5b5f80fd5b5f819050919050565b6101818161016f565b811461018b575f80fd5b50565b5f8135905061019c81610178565b92915050565b5f73ffffffffffffffffffffffffffffffffffffffff82169050919050565b5f6101cb826101a2565b9050919050565b6101db816101c1565b81146101e5575f80fd5b50565b5f813590506101f6816101d2565b92915050565b5f80fd5b5f601f19601f8301169050919050565b7f4e487b71000000000000000000000000000000000000000000000000000000005f52604160045260245ffd5b61024682610200565b810181811067ffffffffffffffff8211171561026557610264610210565b5b80604052505050565b5f61027761015e565b9050610283828261023d565b919050565b5f67ffffffffffffffff8211156102a2576102a1610210565b5b602082029050602081019050919050565b5f80fd5b5f6102c96102c484610288565b61026e565b905080838252602082019050602084028301858111156102ec576102eb6102b3565b5b835b818110156103155780610301888261018e565b8452602084019350506020810190506102ee565b5050509392505050565b5f82601f830112610333576103326101fc565b5b81356103438482602086016102b7565b91505092915050565b5f805f6060848603121561036357610362610167565b5b5f6103708682870161018e565b9350506020610381868287016101e8565b925050604084013567ffffffffffffffff8111156103a2576103a161016b565b5b6103ae8682870161031f565b9150509250925092565b5f81519050919050565b5f82825260208201905092915050565b8281835e5f83830152505050565b5f6103ea826103b8565b6103f481856103c2565b93506104048185602086016103d2565b61040d81610200565b840191505092915050565b5f6020820190508181035f83015261043081846103e0565b905092915050565b5f80fd5b5f67ffffffffffffffff82111561045657610455610210565b5b61045f82610200565b9050602081019050919050565b828183375f83830152505050565b5f61048c6104878461043c565b61026e565b9050828152602081018484840111156104a8576104a7610438565b5b6104b384828561046c565b509392505050565b5f82601f8301126104cf576104ce6101fc565b5b81356104df84826020860161047a565b91505092915050565b5f602082840312156104fd576104fc610167565b5b5f82013567ffffffffffffffff81111561051a5761051961016b565b5b610526848285016104bb565b91505092915050565b6105388161016f565b82525050565b610547816101c1565b82525050565b5f81519050919050565b5f82825260208201905092915050565b5f819050602082019050919050565b61057f8161016f565b82525050565b5f6105908383610576565b60208301905092915050565b5f602082019050919050565b5f6105b28261054d565b6105bc8185610557565b93506105c783610567565b805f5b838110156105f75781516105de8882610585565b97506105e98361059c565b9250506001810190506105ca565b5085935050505092915050565b5f6060820190506106175f83018661052f565b610624602083018561053e565b818103604083015261063681846105a8565b9050949350505050565b5f8151905061064e81610178565b92915050565b5f61065e826101a2565b9050919050565b61066e81610654565b8114610678575f80fd5b50565b5f8151905061068981610665565b92915050565b5f6106a161069c84610288565b61026e565b905080838252602082019050602084028301858111156106c4576106c36102b3565b5b835b818110156106ed57806106d98882610640565b8452602084019350506020810190506106c6565b5050509392505050565b5f82601f83011261070b5761070a6101fc565b5b815161071b84826020860161068f565b91505092915050565b5f805f6060848603121561073b5761073a610167565b5b5f61074886828701610640565b93505060206107598682870161067b565b925050604084015167ffffffffffffffff81111561077a5761077961016b565b5b610786868287016106f7565b9150509250925092565b5f819050919050565b6107aa6107a58261016f565b610790565b82525050565b5f8160601b9050919050565b5f6107c6826107b0565b9050919050565b5f6107d7826107bc565b9050919050565b6107ef6107ea826101c1565b6107cd565b82525050565b5f81905092915050565b6108088161016f565b82525050565b5f61081983836107ff565b60208301905092915050565b5f61082f8261054d565b61083981856107f5565b935061084483610567565b805f5b8381101561087457815161085b888261080e565b97506108668361059c565b925050600181019050610847565b5085935050505092915050565b5f61088c8286610799565b60208201915061089c82856107de565b6014820191506108ac8284610825565b915081905094935050505056fea2646970667358221220496c8f4f7958f8be770c30742d876ecdb29a93ab574760f851898ad1b3391cde64736f6c634300081a0033",
					"opcodes": "PUSH1 0x80 PUSH1 0x40 MSTORE CALLVALUE DUP1 ISZERO PUSH1 0xE JUMPI PUSH0 DUP1 REVERT JUMPDEST POP PUSH2 0x8EF DUP1 PUSH2 0x1C PUSH0 CODECOPY PUSH0 RETURN INVALID PUSH1 0x80 PUSH1 0x40 MSTORE CALLVALUE DUP1 ISZERO PUSH2 0xF JUMPI PUSH0 DUP1 REVERT JUMPDEST POP PUSH1 0x4 CALLDATASIZE LT PUSH2 0x3F JUMPI PUSH0 CALLDATALOAD PUSH1 0xE0 SHR DUP1 PUSH4 0x72B9D249 EQ PUSH2 0x43 JUMPI DUP1 PUSH4 0xE5C5E9A3 EQ PUSH2 0x73 JUMPI DUP1 PUSH4 0xEACC0E01 EQ PUSH2 0xA5 JUMPI JUMPDEST PUSH0 DUP1 REVERT JUMPDEST PUSH2 0x5D PUSH1 0x4 DUP1 CALLDATASIZE SUB DUP2 ADD SWAP1 PUSH2 0x58 SWAP2 SWAP1 PUSH2 0x34C JUMP JUMPDEST PUSH2 0xD5 JUMP JUMPDEST PUSH1 0x40 MLOAD PUSH2 0x6A SWAP2 SWAP1 PUSH2 0x418 JUMP JUMPDEST PUSH1 0x40 MLOAD DUP1 SWAP2 SUB SWAP1 RETURN JUMPDEST PUSH2 0x8D PUSH1 0x4 DUP1 CALLDATASIZE SUB DUP2 ADD SWAP1 PUSH2 0x88 SWAP2 SWAP1 PUSH2 0x4E8 JUMP JUMPDEST PUSH2 0x104 JUMP JUMPDEST PUSH1 0x40 MLOAD PUSH2 0x9C SWAP4 SWAP3 SWAP2 SWAP1 PUSH2 0x604 JUMP JUMPDEST PUSH1 0x40 MLOAD DUP1 SWAP2 SUB SWAP1 RETURN JUMPDEST PUSH2 0xBF PUSH1 0x4 DUP1 CALLDATASIZE SUB DUP2 ADD SWAP1 PUSH2 0xBA SWAP2 SWAP1 PUSH2 0x34C JUMP JUMPDEST PUSH2 0x12F JUMP JUMPDEST PUSH1 0x40 MLOAD PUSH2 0xCC SWAP2 SWAP1 PUSH2 0x418 JUMP JUMPDEST PUSH1 0x40 MLOAD DUP1 SWAP2 SUB SWAP1 RETURN JUMPDEST PUSH1 0x60 DUP4 DUP4 DUP4 PUSH1 0x40 MLOAD PUSH1 0x20 ADD PUSH2 0xEC SWAP4 SWAP3 SWAP2 SWAP1 PUSH2 0x604 JUMP JUMPDEST PUSH1 0x40 MLOAD PUSH1 0x20 DUP2 DUP4 SUB SUB DUP2 MSTORE SWAP1 PUSH1 0x40 MSTORE SWAP1 POP SWAP4 SWAP3 POP POP POP JUMP JUMPDEST PUSH0 DUP1 PUSH1 0x60 DUP4 DUP1 PUSH1 0x20 ADD SWAP1 MLOAD DUP2 ADD SWAP1 PUSH2 0x11C SWAP2 SWAP1 PUSH2 0x724 JUMP JUMPDEST DUP1 SWAP4 POP DUP2 SWAP5 POP DUP3 SWAP6 POP POP POP POP SWAP2 SWAP4 SWAP1 SWAP3 POP JUMP JUMPDEST PUSH1 0x60 DUP4 DUP4 DUP4 PUSH1 0x40 MLOAD PUSH1 0x20 ADD PUSH2 0x146 SWAP4 SWAP3 SWAP2 SWAP1 PUSH2 0x881 JUMP JUMPDEST PUSH1 0x40 MLOAD PUSH1 0x20 DUP2 DUP4 SUB SUB DUP2 MSTORE SWAP1 PUSH1 0x40 MSTORE SWAP1 POP SWAP4 SWAP3 POP POP POP JUMP JUMPDEST PUSH0 PUSH1 0x40 MLOAD SWAP1 POP SWAP1 JUMP JUMPDEST PUSH0 DUP1 REVERT JUMPDEST PUSH0 DUP1 REVERT JUMPDEST PUSH0 DUP2 SWAP1 POP SWAP2 SWAP1 POP JUMP JUMPDEST PUSH2 0x181 DUP2 PUSH2 0x16F JUMP JUMPDEST DUP2 EQ PUSH2 0x18B JUMPI PUSH0 DUP1 REVERT JUMPDEST POP JUMP JUMPDEST PUSH0 DUP2 CALLDATALOAD SWAP1 POP PUSH2 0x19C DUP2 PUSH2 0x178 JUMP JUMPDEST SWAP3 SWAP2 POP POP JUMP JUMPDEST PUSH0 PUSH20 0xFFFFFFFFFFFFFFFFFFFFFFFFFFFFFFFFFFFFFFFF DUP3 AND SWAP1 POP SWAP2 SWAP1 POP JUMP JUMPDEST PUSH0 PUSH2 0x1CB DUP3 PUSH2 0x1A2 JUMP JUMPDEST SWAP1 POP SWAP2 SWAP1 POP JUMP JUMPDEST PUSH2 0x1DB DUP2 PUSH2 0x1C1 JUMP JUMPDEST DUP2 EQ PUSH2 0x1E5 JUMPI PUSH0 DUP1 REVERT JUMPDEST POP JUMP JUMPDEST PUSH0 DUP2 CALLDATALOAD SWAP1 POP PUSH2 0x1F6 DUP2 PUSH2 0x1D2 JUMP JUMPDEST SWAP3 SWAP2 POP POP JUMP JUMPDEST PUSH0 DUP1 REVERT JUMPDEST PUSH0 PUSH1 0x1F NOT PUSH1 0x1F DUP4 ADD AND SWAP1 POP SWAP2 SWAP1 POP JUMP JUMPDEST PUSH32 0x4E487B7100000000000000000000000000000000000000000000000000000000 PUSH0 MSTORE PUSH1 0x41 PUSH1 0x4 MSTORE PUSH1 0x24 PUSH0 REVERT JUMPDEST PUSH2 0x246 DUP3 PUSH2 0x200 JUMP JUMPDEST DUP2 ADD DUP2 DUP2 LT PUSH8 0xFFFFFFFFFFFFFFFF DUP3 GT OR ISZERO PUSH2 0x265 JUMPI PUSH2 0x264 PUSH2 0x210 JUMP JUMPDEST JUMPDEST DUP1 PUSH1 0x40 MSTORE POP POP POP JUMP JUMPDEST PUSH0 PUSH2 0x277 PUSH2 0x15E JUMP JUMPDEST SWAP1 POP PUSH2 0x283 DUP3 DUP3 PUSH2 0x23D JUMP JUMPDEST SWAP2 SWAP1 POP JUMP JUMPDEST PUSH0 PUSH8 0xFFFFFFFFFFFFFFFF DUP3 GT ISZERO PUSH2 0x2A2 JUMPI PUSH2 0x2A1 PUSH2 0x210 JUMP JUMPDEST JUMPDEST PUSH1 0x20 DUP3 MUL SWAP1 POP PUSH1 0x20 DUP2 ADD SWAP1 POP SWAP2 SWAP1 POP JUMP JUMPDEST PUSH0 DUP1 REVERT JUMPDEST PUSH0 PUSH2 0x2C9 PUSH2 0x2C4 DUP5 PUSH2 0x288 JUMP JUMPDEST PUSH2 0x26E JUMP JUMPDEST SWAP1 POP DUP1 DUP4 DUP3 MSTORE PUSH1 0x20 DUP3 ADD SWAP1 POP PUSH1 0x20 DUP5 MUL DUP4 ADD DUP6 DUP2 GT ISZERO PUSH2 0x2EC JUMPI PUSH2 0x2EB PUSH2 0x2B3 JUMP JUMPDEST JUMPDEST DUP4 JUMPDEST DUP2 DUP2 LT ISZERO PUSH2 0x315 JUMPI DUP1 PUSH2 0x301 DUP9 DUP3 PUSH2 0x18E JUMP JUMPDEST DUP5 MSTORE PUSH1 0x20 DUP5 ADD SWAP4 POP POP PUSH1 0x20 DUP2 ADD SWAP1 POP PUSH2 0x2EE JUMP JUMPDEST POP POP POP SWAP4 SWAP3 POP POP POP JUMP JUMPDEST PUSH0 DUP3 PUSH1 0x1F DUP4 ADD SLT PUSH2 0x333 JUMPI PUSH2 0x332 PUSH2 0x1FC JUMP JUMPDEST JUMPDEST DUP2 CALLDATALOAD PUSH2 0x343 DUP5 DUP3 PUSH1 0x20 DUP7 ADD PUSH2 0x2B7 JUMP JUMPDEST SWAP2 POP POP SWAP3 SWAP2 POP POP JUMP JUMPDEST PUSH0 DUP1 PUSH0 PUSH1 0x60 DUP5 DUP7 SUB SLT ISZERO PUSH2 0x363 JUMPI PUSH2 0x362 PUSH2 0x167 JUMP JUMPDEST JUMPDEST PUSH0 PUSH2 0x370 DUP7 DUP3 DUP8 ADD PUSH2 0x18E JUMP JUMPDEST SWAP4 POP POP PUSH1 0x20 PUSH2 0x381 DUP7 DUP3 DUP8 ADD PUSH2 0x1E8 JUMP JUMPDEST SWAP3 POP POP PUSH1 0x40 DUP5 ADD CALLDATALOAD PUSH8 0xFFFFFFFFFFFFFFFF DUP2 GT ISZERO PUSH2 0x3A2 JUMPI PUSH2 0x3A1 PUSH2 0x16B JUMP JUMPDEST JUMPDEST PUSH2 0x3AE DUP7 DUP3 DUP8 ADD PUSH2 0x31F JUMP JUMPDEST SWAP2 POP POP SWAP3 POP SWAP3 POP SWAP3 JUMP JUMPDEST PUSH0 DUP2 MLOAD SWAP1 POP SWAP2 SWAP1 POP JUMP JUMPDEST PUSH0 DUP3 DUP3 MSTORE PUSH1 0x20 DUP3 ADD SWAP1 POP SWAP3 SWAP2 POP POP JUMP JUMPDEST DUP3 DUP2 DUP4 MCOPY PUSH0 DUP4 DUP4 ADD MSTORE POP POP POP JUMP JUMPDEST PUSH0 PUSH2 0x3EA DUP3 PUSH2 0x3B8 JUMP JUMPDEST PUSH2 0x3F4 DUP2 DUP6 PUSH2 0x3C2 JUMP JUMPDEST SWAP4 POP PUSH2 0x404 DUP2 DUP6 PUSH1 0x20 DUP7 ADD PUSH2 0x3D2 JUMP JUMPDEST PUSH2 0x40D DUP2 PUSH2 0x200 JUMP JUMPDEST DUP5 ADD SWAP2 POP POP SWAP3 SWAP2 POP POP JUMP JUMPDEST PUSH0 PUSH1 0x20 DUP3 ADD SWAP1 POP DUP2 DUP2 SUB PUSH0 DUP4 ADD MSTORE PUSH2 0x430 DUP2 DUP5 PUSH2 0x3E0 JUMP JUMPDEST SWAP1 POP SWAP3 SWAP2 POP POP JUMP JUMPDEST PUSH0 DUP1 REVERT JUMPDEST PUSH0 PUSH8 0xFFFFFFFFFFFFFFFF DUP3 GT ISZERO PUSH2 0x456 JUMPI PUSH2 0x455 PUSH2 0x210 JUMP JUMPDEST JUMPDEST PUSH2 0x45F DUP3 PUSH2 0x200 JUMP JUMPDEST SWAP1 POP PUSH1 0x20 DUP2 ADD SWAP1 POP SWAP2 SWAP1 POP JUMP JUMPDEST DUP3 DUP2 DUP4 CALLDATACOPY PUSH0 DUP4 DUP4 ADD MSTORE POP POP POP JUMP JUMPDEST PUSH0 PUSH2 0x48C PUSH2 0x487 DUP5 PUSH2 0x43C JUMP JUMPDEST PUSH2 0x26E JUMP JUMPDEST SWAP1 POP DUP3 DUP2 MSTORE PUSH1 0x20 DUP2 ADD DUP5 DUP5 DUP5 ADD GT ISZERO PUSH2 0x4A8 JUMPI PUSH2 0x4A7 PUSH2 0x438 JUMP JUMPDEST JUMPDEST PUSH2 0x4B3 DUP5 DUP3 DUP6 PUSH2 0x46C JUMP JUMPDEST POP SWAP4 SWAP3 POP POP POP JUMP JUMPDEST PUSH0 DUP3 PUSH1 0x1F DUP4 ADD SLT PUSH2 0x4CF JUMPI PUSH2 0x4CE PUSH2 0x1FC JUMP JUMPDEST JUMPDEST DUP2 CALLDATALOAD PUSH2 0x4DF DUP5 DUP3 PUSH1 0x20 DUP7 ADD PUSH2 0x47A JUMP JUMPDEST SWAP2 POP POP SWAP3 SWAP2 POP POP JUMP JUMPDEST PUSH0 PUSH1 0x20 DUP3 DUP5 SUB SLT ISZERO PUSH2 0x4FD JUMPI PUSH2 0x4FC PUSH2 0x167 JUMP JUMPDEST JUMPDEST PUSH0 DUP3 ADD CALLDATALOAD PUSH8 0xFFFFFFFFFFFFFFFF DUP2 GT ISZERO PUSH2 0x51A JUMPI PUSH2 0x519 PUSH2 0x16B JUMP JUMPDEST JUMPDEST PUSH2 0x526 DUP5 DUP3 DUP6 ADD PUSH2 0x4BB JUMP JUMPDEST SWAP2 POP POP SWAP3 SWAP2 POP POP JUMP JUMPDEST PUSH2 0x538 DUP2 PUSH2 0x16F JUMP JUMPDEST DUP3 MSTORE POP POP JUMP JUMPDEST PUSH2 0x547 DUP2 PUSH2 0x1C1 JUMP JUMPDEST DUP3 MSTORE POP POP JUMP JUMPDEST PUSH0 DUP2 MLOAD SWAP1 POP SWAP2 SWAP1 POP JUMP JUMPDEST PUSH0 DUP3 DUP3 MSTORE PUSH1 0x20 DUP3 ADD SWAP1 POP SWAP3 SWAP2 POP POP JUMP JUMPDEST PUSH0 DUP2 SWAP1 POP PUSH1 0x20 DUP3 ADD SWAP1 POP SWAP2 SWAP1 POP JUMP JUMPDEST PUSH2 0x57F DUP2 PUSH2 0x16F JUMP JUMPDEST DUP3 MSTORE POP POP JUMP JUMPDEST PUSH0 PUSH2 0x590 DUP4 DUP4 PUSH2 0x576 JUMP JUMPDEST PUSH1 0x20 DUP4 ADD SWAP1 POP SWAP3 SWAP2 POP POP JUMP JUMPDEST PUSH0 PUSH1 0x20 DUP3 ADD SWAP1 POP SWAP2 SWAP1 POP JUMP JUMPDEST PUSH0 PUSH2 0x5B2 DUP3 PUSH2 0x54D JUMP JUMPDEST PUSH2 0x5BC DUP2 DUP6 PUSH2 0x557 JUMP JUMPDEST SWAP4 POP PUSH2 0x5C7 DUP4 PUSH2 0x567 JUMP JUMPDEST DUP1 PUSH0 JUMPDEST DUP4 DUP2 LT ISZERO PUSH2 0x5F7 JUMPI DUP2 MLOAD PUSH2 0x5DE DUP9 DUP3 PUSH2 0x585 JUMP JUMPDEST SWAP8 POP PUSH2 0x5E9 DUP4 PUSH2 0x59C JUMP JUMPDEST SWAP3 POP POP PUSH1 0x1 DUP2 ADD SWAP1 POP PUSH2 0x5CA JUMP JUMPDEST POP DUP6 SWAP4 POP POP POP POP SWAP3 SWAP2 POP POP JUMP JUMPDEST PUSH0 PUSH1 0x60 DUP3 ADD SWAP1 POP PUSH2 0x617 PUSH0 DUP4 ADD DUP7 PUSH2 0x52F JUMP JUMPDEST PUSH2 0x624 PUSH1 0x20 DUP4 ADD DUP6 PUSH2 0x53E JUMP JUMPDEST DUP2 DUP2 SUB PUSH1 0x40 DUP4 ADD MSTORE PUSH2 0x636 DUP2 DUP5 PUSH2 0x5A8 JUMP JUMPDEST SWAP1 POP SWAP5 SWAP4 POP POP POP POP JUMP JUMPDEST PUSH0 DUP2 MLOAD SWAP1 POP PUSH2 0x64E DUP2 PUSH2 0x178 JUMP JUMPDEST SWAP3 SWAP2 POP POP JUMP JUMPDEST PUSH0 PUSH2 0x65E DUP3 PUSH2 0x1A2 JUMP JUMPDEST SWAP1 POP SWAP2 SWAP1 POP JUMP JUMPDEST PUSH2 0x66E DUP2 PUSH2 0x654 JUMP JUMPDEST DUP2 EQ PUSH2 0x678 JUMPI PUSH0 DUP1 REVERT JUMPDEST POP JUMP JUMPDEST PUSH0 DUP2 MLOAD SWAP1 POP PUSH2 0x689 DUP2 PUSH2 0x665 JUMP JUMPDEST SWAP3 SWAP2 POP POP JUMP JUMPDEST PUSH0 PUSH2 0x6A1 PUSH2 0x69C DUP5 PUSH2 0x288 JUMP JUMPDEST PUSH2 0x26E JUMP JUMPDEST SWAP1 POP DUP1 DUP4 DUP3 MSTORE PUSH1 0x20 DUP3 ADD SWAP1 POP PUSH1 0x20 DUP5 MUL DUP4 ADD DUP6 DUP2 GT ISZERO PUSH2 0x6C4 JUMPI PUSH2 0x6C3 PUSH2 0x2B3 JUMP JUMPDEST JUMPDEST DUP4 JUMPDEST DUP2 DUP2 LT ISZERO PUSH2 0x6ED JUMPI DUP1 PUSH2 0x6D9 DUP9 DUP3 PUSH2 0x640 JUMP JUMPDEST DUP5 MSTORE PUSH1 0x20 DUP5 ADD SWAP4 POP POP PUSH1 0x20 DUP2 ADD SWAP1 POP PUSH2 0x6C6 JUMP JUMPDEST POP POP POP SWAP4 SWAP3 POP POP POP JUMP JUMPDEST PUSH0 DUP3 PUSH1 0x1F DUP4 ADD SLT PUSH2 0x70B JUMPI PUSH2 0x70A PUSH2 0x1FC JUMP JUMPDEST JUMPDEST DUP2 MLOAD PUSH2 0x71B DUP5 DUP3 PUSH1 0x20 DUP7 ADD PUSH2 0x68F JUMP JUMPDEST SWAP2 POP POP SWAP3 SWAP2 POP POP JUMP JUMPDEST PUSH0 DUP1 PUSH0 PUSH1 0x60 DUP5 DUP7 SUB SLT ISZERO PUSH2 0x73B JUMPI PUSH2 0x73A PUSH2 0x167 JUMP JUMPDEST JUMPDEST PUSH0 PUSH2 0x748 DUP7 DUP3 DUP8 ADD PUSH2 0x640 JUMP JUMPDEST SWAP4 POP POP PUSH1 0x20 PUSH2 0x759 DUP7 DUP3 DUP8 ADD PUSH2 0x67B JUMP JUMPDEST SWAP3 POP POP PUSH1 0x40 DUP5 ADD MLOAD PUSH8 0xFFFFFFFFFFFFFFFF DUP2 GT ISZERO PUSH2 0x77A JUMPI PUSH2 0x779 PUSH2 0x16B JUMP JUMPDEST JUMPDEST PUSH2 0x786 DUP7 DUP3 DUP8 ADD PUSH2 0x6F7 JUMP JUMPDEST SWAP2 POP POP SWAP3 POP SWAP3 POP SWAP3 JUMP JUMPDEST PUSH0 DUP2 SWAP1 POP SWAP2 SWAP1 POP JUMP JUMPDEST PUSH2 0x7AA PUSH2 0x7A5 DUP3 PUSH2 0x16F JUMP JUMPDEST PUSH2 0x790 JUMP JUMPDEST DUP3 MSTORE POP POP JUMP JUMPDEST PUSH0 DUP2 PUSH1 0x60 SHL SWAP1 POP SWAP2 SWAP1 POP JUMP JUMPDEST PUSH0 PUSH2 0x7C6 DUP3 PUSH2 0x7B0 JUMP JUMPDEST SWAP1 POP SWAP2 SWAP1 POP JUMP JUMPDEST PUSH0 PUSH2 0x7D7 DUP3 PUSH2 0x7BC JUMP JUMPDEST SWAP1 POP SWAP2 SWAP1 POP JUMP JUMPDEST PUSH2 0x7EF PUSH2 0x7EA DUP3 PUSH2 0x1C1 JUMP JUMPDEST PUSH2 0x7CD JUMP JUMPDEST DUP3 MSTORE POP POP JUMP JUMPDEST PUSH0 DUP2 SWAP1 POP SWAP3 SWAP2 POP POP JUMP JUMPDEST PUSH2 0x808 DUP2 PUSH2 0x16F JUMP JUMPDEST DUP3 MSTORE POP POP JUMP JUMPDEST PUSH0 PUSH2 0x819 DUP4 DUP4 PUSH2 0x7FF JUMP JUMPDEST PUSH1 0x20 DUP4 ADD SWAP1 POP SWAP3 SWAP2 POP POP JUMP JUMPDEST PUSH0 PUSH2 0x82F DUP3 PUSH2 0x54D JUMP JUMPDEST PUSH2 0x839 DUP2 DUP6 PUSH2 0x7F5 JUMP JUMPDEST SWAP4 POP PUSH2 0x844 DUP4 PUSH2 0x567 JUMP JUMPDEST DUP1 PUSH0 JUMPDEST DUP4 DUP2 LT ISZERO PUSH2 0x874 JUMPI DUP2 MLOAD PUSH2 0x85B DUP9 DUP3 PUSH2 0x80E JUMP JUMPDEST SWAP8 POP PUSH2 0x866 DUP4 PUSH2 0x59C JUMP JUMPDEST SWAP3 POP POP PUSH1 0x1 DUP2 ADD SWAP1 POP PUSH2 0x847 JUMP JUMPDEST POP DUP6 SWAP4 POP POP POP POP SWAP3 SWAP2 POP POP JUMP JUMPDEST PUSH0 PUSH2 0x88C DUP3 DUP7 PUSH2 0x799 JUMP JUMPDEST PUSH1 0x20 DUP3 ADD SWAP2 POP PUSH2 0x89C DUP3 DUP6 PUSH2 0x7DE JUMP JUMPDEST PUSH1 0x14 DUP3 ADD SWAP2 POP PUSH2 0x8AC DUP3 DUP5 PUSH2 0x825 JUMP JUMPDEST SWAP2 POP DUP2 SWAP1 POP SWAP5 SWAP4 POP POP POP POP JUMP INVALID LOG2 PUSH5 0x6970667358 0x22 SLT KECCAK256 BLOBHASH PUSH13 0x8F4F7958F8BE770C30742D876E 0xCD 0xB2 SWAP11 SWAP4 0xAB JUMPI SELFBALANCE PUSH1 0xF8 MLOAD DUP10 DUP11 0xD1 0xB3 CODECOPY SHR 0xDE PUSH5 0x736F6C6343 STOP ADDMOD BYTE STOP CALLER "
				},
				"gasEstimates": {
					"creation": {
						"codeDepositCost": "457400",
						"executionCost": "491",
						"totalCost": "457891"
					},
					"external": {
						"decode(bytes)": "infinite",
						"encode(uint256,address,uint256[])": "infinite",
						"encodePacked(uint256,address,uint256[])": "infinite"
					}
				},
				"methodIdentifiers": {
					"decode(bytes)": "e5c5e9a3",
					"encode(uint256,address,uint256[])": "72b9d249",
					"encodePacked(uint256,address,uint256[])": "eacc0e01"
				}
			},
			"storageLayout": {
				"storage": [],
				"types": null
			},
			"userdoc": {
				"kind": "user",
				"methods": {},
				"version": 1
			}
		}
	}
}