{
	"contracts/TimeLock.sol": {
		"TimeLock": {
			"abi": [
				{
					"inputs": [],
					"stateMutability": "nonpayable",
					"type": "constructor"
				},
				{
					"anonymous": false,
					"inputs": [
						{
							"indexed": true,
							"internalType": "bytes32",
							"name": "txId",
							"type": "bytes32"
						}
					],
					"name": "Cancel",
					"type": "event"
				},
				{
					"anonymous": false,
					"inputs": [
						{
							"indexed": true,
							"internalType": "bytes32",
							"name": "txId",
							"type": "bytes32"
						},
						{
							"indexed": true,
							"internalType": "address",
							"name": "target",
							"type": "address"
						},
						{
							"indexed": false,
							"internalType": "uint256",
							"name": "value",
							"type": "uint256"
						},
						{
							"indexed": false,
							"internalType": "string",
							"name": "func",
							"type": "string"
						},
						{
							"indexed": false,
							"internalType": "bytes",
							"name": "data",
							"type": "bytes"
						},
						{
							"indexed": false,
							"internalType": "uint256",
							"name": "timestamp",
							"type": "uint256"
						}
					],
					"name": "Execute",
					"type": "event"
				},
				{
					"anonymous": false,
					"inputs": [
						{
							"indexed": true,
							"internalType": "bytes32",
							"name": "txId",
							"type": "bytes32"
						},
						{
							"indexed": true,
							"internalType": "address",
							"name": "target",
							"type": "address"
						},
						{
							"indexed": false,
							"internalType": "uint256",
							"name": "value",
							"type": "uint256"
						},
						{
							"indexed": false,
							"internalType": "string",
							"name": "func",
							"type": "string"
						},
						{
							"indexed": false,
							"internalType": "bytes",
							"name": "data",
							"type": "bytes"
						},
						{
							"indexed": false,
							"internalType": "uint256",
							"name": "timestamp",
							"type": "uint256"
						}
					],
					"name": "Queue",
					"type": "event"
				},
				{
					"inputs": [],
					"name": "MAX_DELAY",
					"outputs": [
						{
							"internalType": "uint256",
							"name": "",
							"type": "uint256"
						}
					],
					"stateMutability": "view",
					"type": "function"
				},
				{
					"inputs": [],
					"name": "MIN_DELAY",
					"outputs": [
						{
							"internalType": "uint256",
							"name": "",
							"type": "uint256"
						}
					],
					"stateMutability": "view",
					"type": "function"
				},
				{
					"inputs": [
						{
							"internalType": "address",
							"name": "_target",
							"type": "address"
						},
						{
							"internalType": "uint256",
							"name": "_value",
							"type": "uint256"
						},
						{
							"internalType": "string",
							"name": "_func",
							"type": "string"
						},
						{
							"internalType": "bytes",
							"name": "_data",
							"type": "bytes"
						},
						{
							"internalType": "uint256",
							"name": "_timestamp",
							"type": "uint256"
						}
					],
					"name": "cancel",
					"outputs": [],
					"stateMutability": "nonpayable",
					"type": "function"
				},
				{
					"inputs": [
						{
							"internalType": "address",
							"name": "_target",
							"type": "address"
						},
						{
							"internalType": "uint256",
							"name": "_value",
							"type": "uint256"
						},
						{
							"internalType": "string",
							"name": "_func",
							"type": "string"
						},
						{
							"internalType": "bytes",
							"name": "_data",
							"type": "bytes"
						},
						{
							"internalType": "uint256",
							"name": "_timestamp",
							"type": "uint256"
						}
					],
					"name": "execute",
					"outputs": [
						{
							"internalType": "bytes",
							"name": "",
							"type": "bytes"
						}
					],
					"stateMutability": "nonpayable",
					"type": "function"
				},
				{
					"inputs": [
						{
							"internalType": "address",
							"name": "_target",
							"type": "address"
						},
						{
							"internalType": "uint256",
							"name": "_value",
							"type": "uint256"
						},
						{
							"internalType": "string",
							"name": "_func",
							"type": "string"
						},
						{
							"internalType": "bytes",
							"name": "_data",
							"type": "bytes"
						},
						{
							"internalType": "uint256",
							"name": "_timestamp",
							"type": "uint256"
						}
					],
					"name": "queue",
					"outputs": [],
					"stateMutability": "nonpayable",
					"type": "function"
				},
				{
					"inputs": [
						{
							"internalType": "bytes32",
							"name": "",
							"type": "bytes32"
						}
					],
					"name": "queued",
					"outputs": [
						{
							"internalType": "bool",
							"name": "",
							"type": "bool"
						}
					],
					"stateMutability": "view",
					"type": "function"
				}
			],
			"devdoc": {
				"kind": "dev",
				"methods": {},
				"version": 1
			},
			"evm": {
				"assembly": "    /* \"contracts/TimeLock.sol\":61:2679  contract TimeLock {... */\n  mstore(0x40, 0x80)\n    /* \"contracts/TimeLock.sol\":110:161  constructor() {... */\n  callvalue\n  dup1\n  iszero\n  tag_1\n  jumpi\n  0x00\n  dup1\n  revert\ntag_1:\n  pop\n    /* \"contracts/TimeLock.sol\":143:153  msg.sender */\n  caller\n    /* \"contracts/TimeLock.sol\":135:140  owner */\n  0x00\n  dup1\n    /* \"contracts/TimeLock.sol\":135:153  owner = msg.sender */\n  0x0100\n  exp\n  dup2\n  sload\n  dup2\n  0xffffffffffffffffffffffffffffffffffffffff\n  mul\n  not\n  and\n  swap1\n  dup4\n  0xffffffffffffffffffffffffffffffffffffffff\n  and\n  mul\n  or\n  swap1\n  sstore\n  pop\n    /* \"contracts/TimeLock.sol\":61:2679  contract TimeLock {... */\n  dataSize(sub_0)\n  dup1\n  dataOffset(sub_0)\n  0x00\n  codecopy\n  0x00\n  return\nstop\n\nsub_0: assembly {\n        /* \"contracts/TimeLock.sol\":61:2679  contract TimeLock {... */\n      mstore(0x40, 0x80)\n      callvalue\n      dup1\n      iszero\n      tag_1\n      jumpi\n      0x00\n      dup1\n      revert\n    tag_1:\n      pop\n      jumpi(tag_2, lt(calldatasize, 0x04))\n      shr(0xe0, calldataload(0x00))\n      dup1\n      0x228250c9\n      eq\n      tag_3\n      jumpi\n      dup1\n      0x4125ff90\n      eq\n      tag_4\n      jumpi\n      dup1\n      0x4b9915a5\n      eq\n      tag_5\n      jumpi\n      dup1\n      0x4cdbfad6\n      eq\n      tag_6\n      jumpi\n      dup1\n      0x9f81aed7\n      eq\n      tag_7\n      jumpi\n      dup1\n      0xb0f8b142\n      eq\n      tag_8\n      jumpi\n    tag_2:\n      0x00\n      dup1\n      revert\n        /* \"contracts/TimeLock.sol\":534:570  mapping(bytes32=>bool) public queued */\n    tag_3:\n      tag_9\n      0x04\n      dup1\n      calldatasize\n      sub\n      dup2\n      add\n      swap1\n      tag_10\n      swap2\n      swap1\n      tag_11\n      jump\t// in\n    tag_10:\n      tag_12\n      jump\t// in\n    tag_9:\n      mload(0x40)\n      tag_13\n      swap2\n      swap1\n      tag_14\n      jump\t// in\n    tag_13:\n      mload(0x40)\n      dup1\n      swap2\n      sub\n      swap1\n      return\n        /* \"contracts/TimeLock.sol\":620:657  uint constant public MAX_DELAY = 1000 */\n    tag_4:\n      tag_15\n      tag_16\n      jump\t// in\n    tag_15:\n      mload(0x40)\n      tag_17\n      swap2\n      swap1\n      tag_18\n      jump\t// in\n    tag_17:\n      mload(0x40)\n      dup1\n      swap2\n      sub\n      swap1\n      return\n        /* \"contracts/TimeLock.sol\":896:1462  function queue(address _target,uint _value,string calldata _func,bytes  calldata _data,uint _timestamp) onlyOwner external {... */\n    tag_5:\n      tag_19\n      0x04\n      dup1\n      calldatasize\n      sub\n      dup2\n      add\n      swap1\n      tag_20\n      swap2\n      swap1\n      tag_21\n      jump\t// in\n    tag_20:\n      tag_22\n      jump\t// in\n    tag_19:\n      stop\n        /* \"contracts/TimeLock.sol\":2357:2670  function cancel(address _target,uint _value,string calldata _func,bytes  calldata _data,uint _timestamp) onlyOwner external {... */\n    tag_6:\n      tag_23\n      0x04\n      dup1\n      calldatasize\n      sub\n      dup2\n      add\n      swap1\n      tag_24\n      swap2\n      swap1\n      tag_21\n      jump\t// in\n    tag_24:\n      tag_25\n      jump\t// in\n    tag_23:\n      stop\n        /* \"contracts/TimeLock.sol\":577:613  uint constant public  MIN_DELAY = 10 */\n    tag_7:\n      tag_26\n      tag_27\n      jump\t// in\n    tag_26:\n      mload(0x40)\n      tag_28\n      swap2\n      swap1\n      tag_18\n      jump\t// in\n    tag_28:\n      mload(0x40)\n      dup1\n      swap2\n      sub\n      swap1\n      return\n        /* \"contracts/TimeLock.sol\":1470:2349  function execute(address _target,uint _value,string calldata _func,bytes  calldata _data,uint _timestamp) onlyOwner external returns(bytes memory) {... */\n    tag_8:\n      tag_29\n      0x04\n      dup1\n      calldatasize\n      sub\n      dup2\n      add\n      swap1\n      tag_30\n      swap2\n      swap1\n      tag_21\n      jump\t// in\n    tag_30:\n      tag_31\n      jump\t// in\n    tag_29:\n      mload(0x40)\n      tag_32\n      swap2\n      swap1\n      tag_33\n      jump\t// in\n    tag_32:\n      mload(0x40)\n      dup1\n      swap2\n      sub\n      swap1\n      return\n        /* \"contracts/TimeLock.sol\":534:570  mapping(bytes32=>bool) public queued */\n    tag_12:\n      mstore(0x20, 0x01)\n      dup1\n      0x00\n      mstore\n      keccak256(0x00, 0x40)\n      0x00\n      swap2\n      pop\n      sload\n      swap1\n      0x0100\n      exp\n      swap1\n      div\n      0xff\n      and\n      dup2\n      jump\t// out\n        /* \"contracts/TimeLock.sol\":620:657  uint constant public MAX_DELAY = 1000 */\n    tag_16:\n        /* \"contracts/TimeLock.sol\":653:657  1000 */\n      0x03e8\n        /* \"contracts/TimeLock.sol\":620:657  uint constant public MAX_DELAY = 1000 */\n      dup2\n      jump\t// out\n        /* \"contracts/TimeLock.sol\":896:1462  function queue(address _target,uint _value,string calldata _func,bytes  calldata _data,uint _timestamp) onlyOwner external {... */\n    tag_22:\n        /* \"contracts/TimeLock.sol\":219:224  owner */\n      0x00\n      dup1\n      sload\n      swap1\n      0x0100\n      exp\n      swap1\n      div\n      0xffffffffffffffffffffffffffffffffffffffff\n      and\n        /* \"contracts/TimeLock.sol\":205:224  msg.sender == owner */\n      0xffffffffffffffffffffffffffffffffffffffff\n      and\n        /* \"contracts/TimeLock.sol\":205:215  msg.sender */\n      caller\n        /* \"contracts/TimeLock.sol\":205:224  msg.sender == owner */\n      0xffffffffffffffffffffffffffffffffffffffff\n      and\n      eq\n        /* \"contracts/TimeLock.sol\":197:237  require(msg.sender == owner,\"not owner\") */\n      tag_35\n      jumpi\n      mload(0x40)\n      0x08c379a000000000000000000000000000000000000000000000000000000000\n      dup2\n      mstore\n      0x04\n      add\n      tag_36\n      swap1\n      tag_37\n      jump\t// in\n    tag_36:\n      mload(0x40)\n      dup1\n      swap2\n      sub\n      swap1\n      revert\n    tag_35:\n        /* \"contracts/TimeLock.sol\":1056:1068  bytes32 txId */\n      0x00\n        /* \"contracts/TimeLock.sol\":1071:1121  getTxId(_target, _value, _func, _data, _timestamp) */\n      tag_39\n        /* \"contracts/TimeLock.sol\":1079:1086  _target */\n      dup9\n        /* \"contracts/TimeLock.sol\":1088:1094  _value */\n      dup9\n        /* \"contracts/TimeLock.sol\":1096:1101  _func */\n      dup9\n      dup9\n        /* \"contracts/TimeLock.sol\":1103:1108  _data */\n      dup9\n      dup9\n        /* \"contracts/TimeLock.sol\":1110:1120  _timestamp */\n      dup9\n        /* \"contracts/TimeLock.sol\":1071:1078  getTxId */\n      tag_40\n        /* \"contracts/TimeLock.sol\":1071:1121  getTxId(_target, _value, _func, _data, _timestamp) */\n      jump\t// in\n    tag_39:\n        /* \"contracts/TimeLock.sol\":1056:1121  bytes32 txId = getTxId(_target, _value, _func, _data, _timestamp) */\n      swap1\n      pop\n        /* \"contracts/TimeLock.sol\":1164:1170  queued */\n      0x01\n        /* \"contracts/TimeLock.sol\":1164:1176  queued[txId] */\n      0x00\n        /* \"contracts/TimeLock.sol\":1171:1175  txId */\n      dup3\n        /* \"contracts/TimeLock.sol\":1164:1176  queued[txId] */\n      dup2\n      mstore\n      0x20\n      add\n      swap1\n      dup2\n      mstore\n      0x20\n      add\n      0x00\n      keccak256\n      0x00\n      swap1\n      sload\n      swap1\n      0x0100\n      exp\n      swap1\n      div\n      0xff\n      and\n        /* \"contracts/TimeLock.sol\":1163:1176  !queued[txId] */\n      iszero\n        /* \"contracts/TimeLock.sol\":1155:1194  require(!queued[txId],\"already queued\") */\n      tag_41\n      jumpi\n      mload(0x40)\n      0x08c379a000000000000000000000000000000000000000000000000000000000\n      dup2\n      mstore\n      0x04\n      add\n      tag_42\n      swap1\n      tag_43\n      jump\t// in\n    tag_42:\n      mload(0x40)\n      dup1\n      swap2\n      sub\n      swap1\n      revert\n    tag_41:\n        /* \"contracts/TimeLock.sol\":611:613  10 */\n      0x0a\n        /* \"contracts/TimeLock.sol\":1249:1264  block.timestamp */\n      timestamp\n        /* \"contracts/TimeLock.sol\":1249:1276  block.timestamp + MIN_DELAY */\n      tag_44\n      swap2\n      swap1\n      tag_45\n      jump\t// in\n    tag_44:\n        /* \"contracts/TimeLock.sol\":1235:1245  _timestamp */\n      dup3\n        /* \"contracts/TimeLock.sol\":1235:1276  _timestamp >= block.timestamp + MIN_DELAY */\n      lt\n      iszero\n        /* \"contracts/TimeLock.sol\":1235:1321  _timestamp >= block.timestamp + MIN_DELAY && _timestamp <= block.timestamp + MAX_DELAY */\n      dup1\n      iszero\n      tag_46\n      jumpi\n      pop\n        /* \"contracts/TimeLock.sol\":653:657  1000 */\n      0x03e8\n        /* \"contracts/TimeLock.sol\":1294:1309  block.timestamp */\n      timestamp\n        /* \"contracts/TimeLock.sol\":1294:1321  block.timestamp + MAX_DELAY */\n      tag_47\n      swap2\n      swap1\n      tag_45\n      jump\t// in\n    tag_47:\n        /* \"contracts/TimeLock.sol\":1280:1290  _timestamp */\n      dup3\n        /* \"contracts/TimeLock.sol\":1280:1321  _timestamp <= block.timestamp + MAX_DELAY */\n      gt\n      iszero\n        /* \"contracts/TimeLock.sol\":1235:1321  _timestamp >= block.timestamp + MIN_DELAY && _timestamp <= block.timestamp + MAX_DELAY */\n    tag_46:\n        /* \"contracts/TimeLock.sol\":1227:1344  require(_timestamp >= block.timestamp + MIN_DELAY && _timestamp <= block.timestamp + MAX_DELAY,\"timestamp not valid\") */\n      tag_48\n      jumpi\n      mload(0x40)\n      0x08c379a000000000000000000000000000000000000000000000000000000000\n      dup2\n      mstore\n      0x04\n      add\n      tag_49\n      swap1\n      tag_50\n      jump\t// in\n    tag_49:\n      mload(0x40)\n      dup1\n      swap2\n      sub\n      swap1\n      revert\n    tag_48:\n        /* \"contracts/TimeLock.sol\":1380:1384  true */\n      0x01\n        /* \"contracts/TimeLock.sol\":1365:1371  queued */\n      dup1\n        /* \"contracts/TimeLock.sol\":1365:1377  queued[txId] */\n      0x00\n        /* \"contracts/TimeLock.sol\":1372:1376  txId */\n      dup4\n        /* \"contracts/TimeLock.sol\":1365:1377  queued[txId] */\n      dup2\n      mstore\n      0x20\n      add\n      swap1\n      dup2\n      mstore\n      0x20\n      add\n      0x00\n      keccak256\n      0x00\n        /* \"contracts/TimeLock.sol\":1365:1384  queued[txId] = true */\n      0x0100\n      exp\n      dup2\n      sload\n      dup2\n      0xff\n      mul\n      not\n      and\n      swap1\n      dup4\n      iszero\n      iszero\n      mul\n      or\n      swap1\n      sstore\n      pop\n        /* \"contracts/TimeLock.sol\":1414:1421  _target */\n      dup8\n        /* \"contracts/TimeLock.sol\":1402:1454  Queue(txId, _target, _value,_func,_data, _timestamp) */\n      0xffffffffffffffffffffffffffffffffffffffff\n      and\n        /* \"contracts/TimeLock.sol\":1408:1412  txId */\n      dup2\n        /* \"contracts/TimeLock.sol\":1402:1454  Queue(txId, _target, _value,_func,_data, _timestamp) */\n      0x3c22f47140594040d205a5533cfedd86c9ab8622c39ead03affb2d97052c794c\n        /* \"contracts/TimeLock.sol\":1423:1429  _value */\n      dup10\n        /* \"contracts/TimeLock.sol\":1430:1435  _func */\n      dup10\n      dup10\n        /* \"contracts/TimeLock.sol\":1436:1441  _data */\n      dup10\n      dup10\n        /* \"contracts/TimeLock.sol\":1443:1453  _timestamp */\n      dup10\n        /* \"contracts/TimeLock.sol\":1402:1454  Queue(txId, _target, _value,_func,_data, _timestamp) */\n      mload(0x40)\n      tag_51\n      swap7\n      swap6\n      swap5\n      swap4\n      swap3\n      swap2\n      swap1\n      tag_52\n      jump\t// in\n    tag_51:\n      mload(0x40)\n      dup1\n      swap2\n      sub\n      swap1\n      log3\n        /* \"contracts/TimeLock.sol\":1019:1462  {... */\n      pop\n        /* \"contracts/TimeLock.sol\":896:1462  function queue(address _target,uint _value,string calldata _func,bytes  calldata _data,uint _timestamp) onlyOwner external {... */\n      pop\n      pop\n      pop\n      pop\n      pop\n      pop\n      pop\n      jump\t// out\n        /* \"contracts/TimeLock.sol\":2357:2670  function cancel(address _target,uint _value,string calldata _func,bytes  calldata _data,uint _timestamp) onlyOwner external {... */\n    tag_25:\n        /* \"contracts/TimeLock.sol\":219:224  owner */\n      0x00\n      dup1\n      sload\n      swap1\n      0x0100\n      exp\n      swap1\n      div\n      0xffffffffffffffffffffffffffffffffffffffff\n      and\n        /* \"contracts/TimeLock.sol\":205:224  msg.sender == owner */\n      0xffffffffffffffffffffffffffffffffffffffff\n      and\n        /* \"contracts/TimeLock.sol\":205:215  msg.sender */\n      caller\n        /* \"contracts/TimeLock.sol\":205:224  msg.sender == owner */\n      0xffffffffffffffffffffffffffffffffffffffff\n      and\n      eq\n        /* \"contracts/TimeLock.sol\":197:237  require(msg.sender == owner,\"not owner\") */\n      tag_54\n      jumpi\n      mload(0x40)\n      0x08c379a000000000000000000000000000000000000000000000000000000000\n      dup2\n      mstore\n      0x04\n      add\n      tag_55\n      swap1\n      tag_37\n      jump\t// in\n    tag_55:\n      mload(0x40)\n      dup1\n      swap2\n      sub\n      swap1\n      revert\n    tag_54:\n        /* \"contracts/TimeLock.sol\":2492:2504  bytes32 txId */\n      0x00\n        /* \"contracts/TimeLock.sol\":2507:2557  getTxId(_target, _value, _func, _data, _timestamp) */\n      tag_57\n        /* \"contracts/TimeLock.sol\":2515:2522  _target */\n      dup9\n        /* \"contracts/TimeLock.sol\":2524:2530  _value */\n      dup9\n        /* \"contracts/TimeLock.sol\":2532:2537  _func */\n      dup9\n      dup9\n        /* \"contracts/TimeLock.sol\":2539:2544  _data */\n      dup9\n      dup9\n        /* \"contracts/TimeLock.sol\":2546:2556  _timestamp */\n      dup9\n        /* \"contracts/TimeLock.sol\":2507:2514  getTxId */\n      tag_40\n        /* \"contracts/TimeLock.sol\":2507:2557  getTxId(_target, _value, _func, _data, _timestamp) */\n      jump\t// in\n    tag_57:\n        /* \"contracts/TimeLock.sol\":2492:2557  bytes32 txId = getTxId(_target, _value, _func, _data, _timestamp) */\n      swap1\n      pop\n        /* \"contracts/TimeLock.sol\":2576:2582  queued */\n      0x01\n        /* \"contracts/TimeLock.sol\":2576:2588  queued[txId] */\n      0x00\n        /* \"contracts/TimeLock.sol\":2583:2587  txId */\n      dup3\n        /* \"contracts/TimeLock.sol\":2576:2588  queued[txId] */\n      dup2\n      mstore\n      0x20\n      add\n      swap1\n      dup2\n      mstore\n      0x20\n      add\n      0x00\n      keccak256\n      0x00\n      swap1\n      sload\n      swap1\n      0x0100\n      exp\n      swap1\n      div\n      0xff\n      and\n        /* \"contracts/TimeLock.sol\":2568:2601  require(queued[txId],\"not queue\") */\n      tag_58\n      jumpi\n      mload(0x40)\n      0x08c379a000000000000000000000000000000000000000000000000000000000\n      dup2\n      mstore\n      0x04\n      add\n      tag_59\n      swap1\n      tag_60\n      jump\t// in\n    tag_59:\n      mload(0x40)\n      dup1\n      swap2\n      sub\n      swap1\n      revert\n    tag_58:\n        /* \"contracts/TimeLock.sol\":2627:2632  false */\n      0x00\n        /* \"contracts/TimeLock.sol\":2612:2618  queued */\n      0x01\n        /* \"contracts/TimeLock.sol\":2612:2624  queued[txId] */\n      0x00\n        /* \"contracts/TimeLock.sol\":2619:2623  txId */\n      dup4\n        /* \"contracts/TimeLock.sol\":2612:2624  queued[txId] */\n      dup2\n      mstore\n      0x20\n      add\n      swap1\n      dup2\n      mstore\n      0x20\n      add\n      0x00\n      keccak256\n      0x00\n        /* \"contracts/TimeLock.sol\":2612:2632  queued[txId] = false */\n      0x0100\n      exp\n      dup2\n      sload\n      dup2\n      0xff\n      mul\n      not\n      and\n      swap1\n      dup4\n      iszero\n      iszero\n      mul\n      or\n      swap1\n      sstore\n      pop\n        /* \"contracts/TimeLock.sol\":2657:2661  txId */\n      dup1\n        /* \"contracts/TimeLock.sol\":2650:2662  Cancel(txId) */\n      0xe8d9861dbc9c663ed3accd261bbe2fe01e0d3d9e5f51fa38523b265c7757a93a\n      mload(0x40)\n      mload(0x40)\n      dup1\n      swap2\n      sub\n      swap1\n      log2\n        /* \"contracts/TimeLock.sol\":2481:2670  {... */\n      pop\n        /* \"contracts/TimeLock.sol\":2357:2670  function cancel(address _target,uint _value,string calldata _func,bytes  calldata _data,uint _timestamp) onlyOwner external {... */\n      pop\n      pop\n      pop\n      pop\n      pop\n      pop\n      pop\n      jump\t// out\n        /* \"contracts/TimeLock.sol\":577:613  uint constant public  MIN_DELAY = 10 */\n    tag_27:\n        /* \"contracts/TimeLock.sol\":611:613  10 */\n      0x0a\n        /* \"contracts/TimeLock.sol\":577:613  uint constant public  MIN_DELAY = 10 */\n      dup2\n      jump\t// out\n        /* \"contracts/TimeLock.sol\":1470:2349  function execute(address _target,uint _value,string calldata _func,bytes  calldata _data,uint _timestamp) onlyOwner external returns(bytes memory) {... */\n    tag_31:\n        /* \"contracts/TimeLock.sol\":1603:1615  bytes memory */\n      0x60\n        /* \"contracts/TimeLock.sol\":219:224  owner */\n      0x00\n      dup1\n      sload\n      swap1\n      0x0100\n      exp\n      swap1\n      div\n      0xffffffffffffffffffffffffffffffffffffffff\n      and\n        /* \"contracts/TimeLock.sol\":205:224  msg.sender == owner */\n      0xffffffffffffffffffffffffffffffffffffffff\n      and\n        /* \"contracts/TimeLock.sol\":205:215  msg.sender */\n      caller\n        /* \"contracts/TimeLock.sol\":205:224  msg.sender == owner */\n      0xffffffffffffffffffffffffffffffffffffffff\n      and\n      eq\n        /* \"contracts/TimeLock.sol\":197:237  require(msg.sender == owner,\"not owner\") */\n      tag_62\n      jumpi\n      mload(0x40)\n      0x08c379a000000000000000000000000000000000000000000000000000000000\n      dup2\n      mstore\n      0x04\n      add\n      tag_63\n      swap1\n      tag_37\n      jump\t// in\n    tag_63:\n      mload(0x40)\n      dup1\n      swap2\n      sub\n      swap1\n      revert\n    tag_62:\n        /* \"contracts/TimeLock.sol\":1628:1640  bytes32 txId */\n      0x00\n        /* \"contracts/TimeLock.sol\":1643:1693  getTxId(_target, _value, _func, _data, _timestamp) */\n      tag_65\n        /* \"contracts/TimeLock.sol\":1651:1658  _target */\n      dup10\n        /* \"contracts/TimeLock.sol\":1660:1666  _value */\n      dup10\n        /* \"contracts/TimeLock.sol\":1668:1673  _func */\n      dup10\n      dup10\n        /* \"contracts/TimeLock.sol\":1675:1680  _data */\n      dup10\n      dup10\n        /* \"contracts/TimeLock.sol\":1682:1692  _timestamp */\n      dup10\n        /* \"contracts/TimeLock.sol\":1643:1650  getTxId */\n      tag_40\n        /* \"contracts/TimeLock.sol\":1643:1693  getTxId(_target, _value, _func, _data, _timestamp) */\n      jump\t// in\n    tag_65:\n        /* \"contracts/TimeLock.sol\":1628:1693  bytes32 txId = getTxId(_target, _value, _func, _data, _timestamp) */\n      swap1\n      pop\n        /* \"contracts/TimeLock.sol\":1712:1718  queued */\n      0x01\n        /* \"contracts/TimeLock.sol\":1712:1724  queued[txId] */\n      0x00\n        /* \"contracts/TimeLock.sol\":1719:1723  txId */\n      dup3\n        /* \"contracts/TimeLock.sol\":1712:1724  queued[txId] */\n      dup2\n      mstore\n      0x20\n      add\n      swap1\n      dup2\n      mstore\n      0x20\n      add\n      0x00\n      keccak256\n      0x00\n      swap1\n      sload\n      swap1\n      0x0100\n      exp\n      swap1\n      div\n      0xff\n      and\n        /* \"contracts/TimeLock.sol\":1704:1737  require(queued[txId],\"not queue\") */\n      tag_66\n      jumpi\n      mload(0x40)\n      0x08c379a000000000000000000000000000000000000000000000000000000000\n      dup2\n      mstore\n      0x04\n      add\n      tag_67\n      swap1\n      tag_60\n      jump\t// in\n    tag_67:\n      mload(0x40)\n      dup1\n      swap2\n      sub\n      swap1\n      revert\n    tag_66:\n        /* \"contracts/TimeLock.sol\":1769:1784  block.timestamp */\n      timestamp\n        /* \"contracts/TimeLock.sol\":1756:1766  _timestamp */\n      dup4\n        /* \"contracts/TimeLock.sol\":1756:1784  _timestamp < block.timestamp */\n      lt\n        /* \"contracts/TimeLock.sol\":1748:1786  require(_timestamp < block.timestamp ) */\n      tag_68\n      jumpi\n      0x00\n      dup1\n      revert\n    tag_68:\n        /* \"contracts/TimeLock.sol\":1814:1819  false */\n      0x00\n        /* \"contracts/TimeLock.sol\":1799:1805  queued */\n      0x01\n        /* \"contracts/TimeLock.sol\":1799:1811  queued[txId] */\n      0x00\n        /* \"contracts/TimeLock.sol\":1806:1810  txId */\n      dup4\n        /* \"contracts/TimeLock.sol\":1799:1811  queued[txId] */\n      dup2\n      mstore\n      0x20\n      add\n      swap1\n      dup2\n      mstore\n      0x20\n      add\n      0x00\n      keccak256\n      0x00\n        /* \"contracts/TimeLock.sol\":1799:1819  queued[txId] = false */\n      0x0100\n      exp\n      dup2\n      sload\n      dup2\n      0xff\n      mul\n      not\n      and\n      swap1\n      dup4\n      iszero\n      iszero\n      mul\n      or\n      swap1\n      sstore\n      pop\n        /* \"contracts/TimeLock.sol\":1830:1847  bytes memory data */\n      0x60\n        /* \"contracts/TimeLock.sol\":1896:1897  0 */\n      0x00\n        /* \"contracts/TimeLock.sol\":1880:1885  _func */\n      dup9\n      dup9\n        /* \"contracts/TimeLock.sol\":1874:1893  bytes(_func).length */\n      swap1\n      pop\n        /* \"contracts/TimeLock.sol\":1874:1897  bytes(_func).length > 0 */\n      gt\n        /* \"contracts/TimeLock.sol\":1871:2128  if(bytes(_func).length > 0) {... */\n      iszero\n      tag_69\n      jumpi\n        /* \"contracts/TimeLock.sol\":1961:1966  _func */\n      dup8\n      dup8\n        /* \"contracts/TimeLock.sol\":1945:1968  keccak256(bytes(_func)) */\n      mload(0x40)\n      tag_70\n      swap3\n      swap2\n      swap1\n      tag_71\n      jump\t// in\n    tag_70:\n      mload(0x40)\n      dup1\n      swap2\n      sub\n      swap1\n      keccak256\n        /* \"contracts/TimeLock.sol\":1970:1975  _data */\n      dup7\n      dup7\n        /* \"contracts/TimeLock.sol\":1921:1976  abi.encodePacked(bytes4(keccak256(bytes(_func))),_data) */\n      add(0x20, mload(0x40))\n      tag_72\n      swap4\n      swap3\n      swap2\n      swap1\n      tag_73\n      jump\t// in\n    tag_72:\n      mload(0x40)\n      0x20\n      dup2\n      dup4\n      sub\n      sub\n      dup2\n      mstore\n      swap1\n      0x40\n      mstore\n        /* \"contracts/TimeLock.sol\":1914:1976  data = abi.encodePacked(bytes4(keccak256(bytes(_func))),_data) */\n      swap1\n      pop\n        /* \"contracts/TimeLock.sol\":2022:2027  _func */\n      dup8\n      dup8\n        /* \"contracts/TimeLock.sol\":2029:2034  _data */\n      dup8\n      dup8\n        /* \"contracts/TimeLock.sol\":1998:2035  abi.encodeWithSignature(_func, _data) */\n      add(0x24, mload(0x40))\n      tag_74\n      swap3\n      swap2\n      swap1\n      tag_75\n      jump\t// in\n    tag_74:\n      mload(0x40)\n      0x20\n      dup2\n      dup4\n      sub\n      sub\n      dup2\n      mstore\n      swap1\n      0x40\n      mstore\n      swap2\n      swap1\n      mload(0x40)\n      tag_76\n      swap3\n      swap2\n      swap1\n      tag_77\n      jump\t// in\n    tag_76:\n      mload(0x40)\n      dup1\n      swap2\n      sub\n      swap1\n      keccak256\n      not(0xffffffffffffffffffffffffffffffffffffffffffffffffffffffff)\n      and\n      0x20\n      dup3\n      add\n      dup1\n      mload\n      0xffffffffffffffffffffffffffffffffffffffffffffffffffffffff\n      dup4\n      dup2\n      dup4\n      and\n      or\n      dup4\n      mstore\n      pop\n      pop\n      pop\n      pop\n        /* \"contracts/TimeLock.sol\":1991:2035  data = abi.encodeWithSignature(_func, _data) */\n      swap1\n      pop\n        /* \"contracts/TimeLock.sol\":1871:2128  if(bytes(_func).length > 0) {... */\n      jump(tag_78)\n    tag_69:\n        /* \"contracts/TimeLock.sol\":2111:2116  _data */\n      dup6\n      dup6\n        /* \"contracts/TimeLock.sol\":2104:2116  data = _data */\n      dup1\n      dup1\n      0x1f\n      add\n      0x20\n      dup1\n      swap2\n      div\n      mul\n      0x20\n      add\n      mload(0x40)\n      swap1\n      dup2\n      add\n      0x40\n      mstore\n      dup1\n      swap4\n      swap3\n      swap2\n      swap1\n      dup2\n      dup2\n      mstore\n      0x20\n      add\n      dup4\n      dup4\n      dup1\n      dup3\n      dup5\n      calldatacopy\n      0x00\n      dup2\n      dup5\n      add\n      mstore\n      not(0x1f)\n      0x1f\n      dup3\n      add\n      and\n      swap1\n      pop\n      dup1\n      dup4\n      add\n      swap3\n      pop\n      pop\n      pop\n      pop\n      pop\n      pop\n      pop\n      swap1\n      pop\n        /* \"contracts/TimeLock.sol\":1871:2128  if(bytes(_func).length > 0) {... */\n    tag_78:\n        /* \"contracts/TimeLock.sol\":2141:2153  bool success */\n      0x00\n        /* \"contracts/TimeLock.sol\":2154:2170  bytes memory res */\n      dup1\n        /* \"contracts/TimeLock.sol\":2174:2181  _target */\n      dup12\n        /* \"contracts/TimeLock.sol\":2174:2186  _target.call */\n      0xffffffffffffffffffffffffffffffffffffffff\n      and\n        /* \"contracts/TimeLock.sol\":2193:2199  _value */\n      dup12\n        /* \"contracts/TimeLock.sol\":2201:2205  data */\n      dup5\n        /* \"contracts/TimeLock.sol\":2174:2206  _target.call{value:_value}(data) */\n      mload(0x40)\n      tag_79\n      swap2\n      swap1\n      tag_80\n      jump\t// in\n    tag_79:\n      0x00\n      mload(0x40)\n      dup1\n      dup4\n      sub\n      dup2\n      dup6\n      dup8\n      gas\n      call\n      swap3\n      pop\n      pop\n      pop\n      returndatasize\n      dup1\n      0x00\n      dup2\n      eq\n      tag_83\n      jumpi\n      mload(0x40)\n      swap2\n      pop\n      and(add(returndatasize, 0x3f), not(0x1f))\n      dup3\n      add\n      0x40\n      mstore\n      returndatasize\n      dup3\n      mstore\n      returndatasize\n      0x00\n      0x20\n      dup5\n      add\n      returndatacopy\n      jump(tag_82)\n    tag_83:\n      0x60\n      swap2\n      pop\n    tag_82:\n      pop\n        /* \"contracts/TimeLock.sol\":2140:2206  (bool success,bytes memory res) = _target.call{value:_value}(data) */\n      swap2\n      pop\n      swap2\n      pop\n        /* \"contracts/TimeLock.sol\":2225:2232  success */\n      dup2\n        /* \"contracts/TimeLock.sol\":2217:2247  require(success,\"call failed\") */\n      tag_84\n      jumpi\n      mload(0x40)\n      0x08c379a000000000000000000000000000000000000000000000000000000000\n      dup2\n      mstore\n      0x04\n      add\n      tag_85\n      swap1\n      tag_86\n      jump\t// in\n    tag_85:\n      mload(0x40)\n      dup1\n      swap2\n      sub\n      swap1\n      revert\n    tag_84:\n        /* \"contracts/TimeLock.sol\":2278:2285  _target */\n      dup12\n        /* \"contracts/TimeLock.sol\":2265:2316  Execute(txId,_target,_value,_func,_data,_timestamp) */\n      0xffffffffffffffffffffffffffffffffffffffff\n      and\n        /* \"contracts/TimeLock.sol\":2273:2277  txId */\n      dup5\n        /* \"contracts/TimeLock.sol\":2265:2316  Execute(txId,_target,_value,_func,_data,_timestamp) */\n      0xd1d5c3c892c18716bd88852091d1b63dc6849e9d7c37f69d566884bf954d4bd9\n        /* \"contracts/TimeLock.sol\":2286:2292  _value */\n      dup14\n        /* \"contracts/TimeLock.sol\":2293:2298  _func */\n      dup14\n      dup14\n        /* \"contracts/TimeLock.sol\":2299:2304  _data */\n      dup14\n      dup14\n        /* \"contracts/TimeLock.sol\":2305:2315  _timestamp */\n      dup14\n        /* \"contracts/TimeLock.sol\":2265:2316  Execute(txId,_target,_value,_func,_data,_timestamp) */\n      mload(0x40)\n      tag_87\n      swap7\n      swap6\n      swap5\n      swap4\n      swap3\n      swap2\n      swap1\n      tag_52\n      jump\t// in\n    tag_87:\n      mload(0x40)\n      dup1\n      swap2\n      sub\n      swap1\n      log3\n        /* \"contracts/TimeLock.sol\":2336:2339  res */\n      dup1\n        /* \"contracts/TimeLock.sol\":2329:2339  return res */\n      swap5\n      pop\n      pop\n      pop\n      pop\n      pop\n        /* \"contracts/TimeLock.sol\":1470:2349  function execute(address _target,uint _value,string calldata _func,bytes  calldata _data,uint _timestamp) onlyOwner external returns(bytes memory) {... */\n      swap8\n      swap7\n      pop\n      pop\n      pop\n      pop\n      pop\n      pop\n      pop\n      jump\t// out\n        /* \"contracts/TimeLock.sol\":668:890  function getTxId(address _target,uint _value,string calldata _func,bytes  calldata _data,uint _timestamp) private pure returns(bytes32) {... */\n    tag_40:\n        /* \"contracts/TimeLock.sol\":795:802  bytes32 */\n      0x00\n        /* \"contracts/TimeLock.sol\":843:850  _target */\n      dup8\n        /* \"contracts/TimeLock.sol\":851:857  _value */\n      dup8\n        /* \"contracts/TimeLock.sol\":858:863  _func */\n      dup8\n      dup8\n        /* \"contracts/TimeLock.sol\":864:869  _data */\n      dup8\n      dup8\n        /* \"contracts/TimeLock.sol\":870:880  _timestamp */\n      dup8\n        /* \"contracts/TimeLock.sol\":832:881  abi.encode(_target,_value,_func,_data,_timestamp) */\n      add(0x20, mload(0x40))\n      tag_89\n      swap8\n      swap7\n      swap6\n      swap5\n      swap4\n      swap3\n      swap2\n      swap1\n      tag_90\n      jump\t// in\n    tag_89:\n      mload(0x40)\n      0x20\n      dup2\n      dup4\n      sub\n      sub\n      dup2\n      mstore\n      swap1\n      0x40\n      mstore\n        /* \"contracts/TimeLock.sol\":822:882  keccak256(abi.encode(_target,_value,_func,_data,_timestamp)) */\n      dup1\n      mload\n      swap1\n      0x20\n      add\n      keccak256\n        /* \"contracts/TimeLock.sol\":815:882  return keccak256(abi.encode(_target,_value,_func,_data,_timestamp)) */\n      swap1\n      pop\n        /* \"contracts/TimeLock.sol\":668:890  function getTxId(address _target,uint _value,string calldata _func,bytes  calldata _data,uint _timestamp) private pure returns(bytes32) {... */\n      swap8\n      swap7\n      pop\n      pop\n      pop\n      pop\n      pop\n      pop\n      pop\n      jump\t// out\n        /* \"#utility.yul\":88:205   */\n    tag_92:\n        /* \"#utility.yul\":197:198   */\n      0x00\n        /* \"#utility.yul\":194:195   */\n      dup1\n        /* \"#utility.yul\":187:199   */\n      revert\n        /* \"#utility.yul\":211:328   */\n    tag_93:\n        /* \"#utility.yul\":320:321   */\n      0x00\n        /* \"#utility.yul\":317:318   */\n      dup1\n        /* \"#utility.yul\":310:322   */\n      revert\n        /* \"#utility.yul\":334:411   */\n    tag_94:\n        /* \"#utility.yul\":371:378   */\n      0x00\n        /* \"#utility.yul\":400:405   */\n      dup2\n        /* \"#utility.yul\":389:405   */\n      swap1\n      pop\n        /* \"#utility.yul\":334:411   */\n      swap2\n      swap1\n      pop\n      jump\t// out\n        /* \"#utility.yul\":417:539   */\n    tag_95:\n        /* \"#utility.yul\":490:514   */\n      tag_147\n        /* \"#utility.yul\":508:513   */\n      dup2\n        /* \"#utility.yul\":490:514   */\n      tag_94\n      jump\t// in\n    tag_147:\n        /* \"#utility.yul\":483:488   */\n      dup2\n        /* \"#utility.yul\":480:515   */\n      eq\n        /* \"#utility.yul\":470:533   */\n      tag_148\n      jumpi\n        /* \"#utility.yul\":529:530   */\n      0x00\n        /* \"#utility.yul\":526:527   */\n      dup1\n        /* \"#utility.yul\":519:531   */\n      revert\n        /* \"#utility.yul\":470:533   */\n    tag_148:\n        /* \"#utility.yul\":417:539   */\n      pop\n      jump\t// out\n        /* \"#utility.yul\":545:684   */\n    tag_96:\n        /* \"#utility.yul\":591:596   */\n      0x00\n        /* \"#utility.yul\":629:635   */\n      dup2\n        /* \"#utility.yul\":616:636   */\n      calldataload\n        /* \"#utility.yul\":607:636   */\n      swap1\n      pop\n        /* \"#utility.yul\":645:678   */\n      tag_150\n        /* \"#utility.yul\":672:677   */\n      dup2\n        /* \"#utility.yul\":645:678   */\n      tag_95\n      jump\t// in\n    tag_150:\n        /* \"#utility.yul\":545:684   */\n      swap3\n      swap2\n      pop\n      pop\n      jump\t// out\n        /* \"#utility.yul\":690:1019   */\n    tag_11:\n        /* \"#utility.yul\":749:755   */\n      0x00\n        /* \"#utility.yul\":798:800   */\n      0x20\n        /* \"#utility.yul\":786:795   */\n      dup3\n        /* \"#utility.yul\":777:784   */\n      dup5\n        /* \"#utility.yul\":773:796   */\n      sub\n        /* \"#utility.yul\":769:801   */\n      slt\n        /* \"#utility.yul\":766:885   */\n      iszero\n      tag_152\n      jumpi\n        /* \"#utility.yul\":804:883   */\n      tag_153\n      tag_92\n      jump\t// in\n    tag_153:\n        /* \"#utility.yul\":766:885   */\n    tag_152:\n        /* \"#utility.yul\":924:925   */\n      0x00\n        /* \"#utility.yul\":949:1002   */\n      tag_154\n        /* \"#utility.yul\":994:1001   */\n      dup5\n        /* \"#utility.yul\":985:991   */\n      dup3\n        /* \"#utility.yul\":974:983   */\n      dup6\n        /* \"#utility.yul\":970:992   */\n      add\n        /* \"#utility.yul\":949:1002   */\n      tag_96\n      jump\t// in\n    tag_154:\n        /* \"#utility.yul\":939:1002   */\n      swap2\n      pop\n        /* \"#utility.yul\":895:1012   */\n      pop\n        /* \"#utility.yul\":690:1019   */\n      swap3\n      swap2\n      pop\n      pop\n      jump\t// out\n        /* \"#utility.yul\":1025:1115   */\n    tag_97:\n        /* \"#utility.yul\":1059:1066   */\n      0x00\n        /* \"#utility.yul\":1102:1107   */\n      dup2\n        /* \"#utility.yul\":1095:1108   */\n      iszero\n        /* \"#utility.yul\":1088:1109   */\n      iszero\n        /* \"#utility.yul\":1077:1109   */\n      swap1\n      pop\n        /* \"#utility.yul\":1025:1115   */\n      swap2\n      swap1\n      pop\n      jump\t// out\n        /* \"#utility.yul\":1121:1230   */\n    tag_98:\n        /* \"#utility.yul\":1202:1223   */\n      tag_157\n        /* \"#utility.yul\":1217:1222   */\n      dup2\n        /* \"#utility.yul\":1202:1223   */\n      tag_97\n      jump\t// in\n    tag_157:\n        /* \"#utility.yul\":1197:1200   */\n      dup3\n        /* \"#utility.yul\":1190:1224   */\n      mstore\n        /* \"#utility.yul\":1121:1230   */\n      pop\n      pop\n      jump\t// out\n        /* \"#utility.yul\":1236:1446   */\n    tag_14:\n        /* \"#utility.yul\":1323:1327   */\n      0x00\n        /* \"#utility.yul\":1361:1363   */\n      0x20\n        /* \"#utility.yul\":1350:1359   */\n      dup3\n        /* \"#utility.yul\":1346:1364   */\n      add\n        /* \"#utility.yul\":1338:1364   */\n      swap1\n      pop\n        /* \"#utility.yul\":1374:1439   */\n      tag_159\n        /* \"#utility.yul\":1436:1437   */\n      0x00\n        /* \"#utility.yul\":1425:1434   */\n      dup4\n        /* \"#utility.yul\":1421:1438   */\n      add\n        /* \"#utility.yul\":1412:1418   */\n      dup5\n        /* \"#utility.yul\":1374:1439   */\n      tag_98\n      jump\t// in\n    tag_159:\n        /* \"#utility.yul\":1236:1446   */\n      swap3\n      swap2\n      pop\n      pop\n      jump\t// out\n        /* \"#utility.yul\":1452:1529   */\n    tag_99:\n        /* \"#utility.yul\":1489:1496   */\n      0x00\n        /* \"#utility.yul\":1518:1523   */\n      dup2\n        /* \"#utility.yul\":1507:1523   */\n      swap1\n      pop\n        /* \"#utility.yul\":1452:1529   */\n      swap2\n      swap1\n      pop\n      jump\t// out\n        /* \"#utility.yul\":1535:1653   */\n    tag_100:\n        /* \"#utility.yul\":1622:1646   */\n      tag_162\n        /* \"#utility.yul\":1640:1645   */\n      dup2\n        /* \"#utility.yul\":1622:1646   */\n      tag_99\n      jump\t// in\n    tag_162:\n        /* \"#utility.yul\":1617:1620   */\n      dup3\n        /* \"#utility.yul\":1610:1647   */\n      mstore\n        /* \"#utility.yul\":1535:1653   */\n      pop\n      pop\n      jump\t// out\n        /* \"#utility.yul\":1659:1881   */\n    tag_18:\n        /* \"#utility.yul\":1752:1756   */\n      0x00\n        /* \"#utility.yul\":1790:1792   */\n      0x20\n        /* \"#utility.yul\":1779:1788   */\n      dup3\n        /* \"#utility.yul\":1775:1793   */\n      add\n        /* \"#utility.yul\":1767:1793   */\n      swap1\n      pop\n        /* \"#utility.yul\":1803:1874   */\n      tag_164\n        /* \"#utility.yul\":1871:1872   */\n      0x00\n        /* \"#utility.yul\":1860:1869   */\n      dup4\n        /* \"#utility.yul\":1856:1873   */\n      add\n        /* \"#utility.yul\":1847:1853   */\n      dup5\n        /* \"#utility.yul\":1803:1874   */\n      tag_100\n      jump\t// in\n    tag_164:\n        /* \"#utility.yul\":1659:1881   */\n      swap3\n      swap2\n      pop\n      pop\n      jump\t// out\n        /* \"#utility.yul\":1887:2013   */\n    tag_101:\n        /* \"#utility.yul\":1924:1931   */\n      0x00\n        /* \"#utility.yul\":1964:2006   */\n      0xffffffffffffffffffffffffffffffffffffffff\n        /* \"#utility.yul\":1957:1962   */\n      dup3\n        /* \"#utility.yul\":1953:2007   */\n      and\n        /* \"#utility.yul\":1942:2007   */\n      swap1\n      pop\n        /* \"#utility.yul\":1887:2013   */\n      swap2\n      swap1\n      pop\n      jump\t// out\n        /* \"#utility.yul\":2019:2115   */\n    tag_102:\n        /* \"#utility.yul\":2056:2063   */\n      0x00\n        /* \"#utility.yul\":2085:2109   */\n      tag_167\n        /* \"#utility.yul\":2103:2108   */\n      dup3\n        /* \"#utility.yul\":2085:2109   */\n      tag_101\n      jump\t// in\n    tag_167:\n        /* \"#utility.yul\":2074:2109   */\n      swap1\n      pop\n        /* \"#utility.yul\":2019:2115   */\n      swap2\n      swap1\n      pop\n      jump\t// out\n        /* \"#utility.yul\":2121:2243   */\n    tag_103:\n        /* \"#utility.yul\":2194:2218   */\n      tag_169\n        /* \"#utility.yul\":2212:2217   */\n      dup2\n        /* \"#utility.yul\":2194:2218   */\n      tag_102\n      jump\t// in\n    tag_169:\n        /* \"#utility.yul\":2187:2192   */\n      dup2\n        /* \"#utility.yul\":2184:2219   */\n      eq\n        /* \"#utility.yul\":2174:2237   */\n      tag_170\n      jumpi\n        /* \"#utility.yul\":2233:2234   */\n      0x00\n        /* \"#utility.yul\":2230:2231   */\n      dup1\n        /* \"#utility.yul\":2223:2235   */\n      revert\n        /* \"#utility.yul\":2174:2237   */\n    tag_170:\n        /* \"#utility.yul\":2121:2243   */\n      pop\n      jump\t// out\n        /* \"#utility.yul\":2249:2388   */\n    tag_104:\n        /* \"#utility.yul\":2295:2300   */\n      0x00\n        /* \"#utility.yul\":2333:2339   */\n      dup2\n        /* \"#utility.yul\":2320:2340   */\n      calldataload\n        /* \"#utility.yul\":2311:2340   */\n      swap1\n      pop\n        /* \"#utility.yul\":2349:2382   */\n      tag_172\n        /* \"#utility.yul\":2376:2381   */\n      dup2\n        /* \"#utility.yul\":2349:2382   */\n      tag_103\n      jump\t// in\n    tag_172:\n        /* \"#utility.yul\":2249:2388   */\n      swap3\n      swap2\n      pop\n      pop\n      jump\t// out\n        /* \"#utility.yul\":2394:2516   */\n    tag_105:\n        /* \"#utility.yul\":2467:2491   */\n      tag_174\n        /* \"#utility.yul\":2485:2490   */\n      dup2\n        /* \"#utility.yul\":2467:2491   */\n      tag_99\n      jump\t// in\n    tag_174:\n        /* \"#utility.yul\":2460:2465   */\n      dup2\n        /* \"#utility.yul\":2457:2492   */\n      eq\n        /* \"#utility.yul\":2447:2510   */\n      tag_175\n      jumpi\n        /* \"#utility.yul\":2506:2507   */\n      0x00\n        /* \"#utility.yul\":2503:2504   */\n      dup1\n        /* \"#utility.yul\":2496:2508   */\n      revert\n        /* \"#utility.yul\":2447:2510   */\n    tag_175:\n        /* \"#utility.yul\":2394:2516   */\n      pop\n      jump\t// out\n        /* \"#utility.yul\":2522:2661   */\n    tag_106:\n        /* \"#utility.yul\":2568:2573   */\n      0x00\n        /* \"#utility.yul\":2606:2612   */\n      dup2\n        /* \"#utility.yul\":2593:2613   */\n      calldataload\n        /* \"#utility.yul\":2584:2613   */\n      swap1\n      pop\n        /* \"#utility.yul\":2622:2655   */\n      tag_177\n        /* \"#utility.yul\":2649:2654   */\n      dup2\n        /* \"#utility.yul\":2622:2655   */\n      tag_105\n      jump\t// in\n    tag_177:\n        /* \"#utility.yul\":2522:2661   */\n      swap3\n      swap2\n      pop\n      pop\n      jump\t// out\n        /* \"#utility.yul\":2667:2784   */\n    tag_107:\n        /* \"#utility.yul\":2776:2777   */\n      0x00\n        /* \"#utility.yul\":2773:2774   */\n      dup1\n        /* \"#utility.yul\":2766:2778   */\n      revert\n        /* \"#utility.yul\":2790:2907   */\n    tag_108:\n        /* \"#utility.yul\":2899:2900   */\n      0x00\n        /* \"#utility.yul\":2896:2897   */\n      dup1\n        /* \"#utility.yul\":2889:2901   */\n      revert\n        /* \"#utility.yul\":2913:3030   */\n    tag_109:\n        /* \"#utility.yul\":3022:3023   */\n      0x00\n        /* \"#utility.yul\":3019:3020   */\n      dup1\n        /* \"#utility.yul\":3012:3024   */\n      revert\n        /* \"#utility.yul\":3050:3603   */\n    tag_110:\n        /* \"#utility.yul\":3108:3116   */\n      0x00\n        /* \"#utility.yul\":3118:3124   */\n      dup1\n        /* \"#utility.yul\":3168:3171   */\n      dup4\n        /* \"#utility.yul\":3161:3165   */\n      0x1f\n        /* \"#utility.yul\":3153:3159   */\n      dup5\n        /* \"#utility.yul\":3149:3166   */\n      add\n        /* \"#utility.yul\":3145:3172   */\n      slt\n        /* \"#utility.yul\":3135:3257   */\n      tag_182\n      jumpi\n        /* \"#utility.yul\":3176:3255   */\n      tag_183\n      tag_107\n      jump\t// in\n    tag_183:\n        /* \"#utility.yul\":3135:3257   */\n    tag_182:\n        /* \"#utility.yul\":3289:3295   */\n      dup3\n        /* \"#utility.yul\":3276:3296   */\n      calldataload\n        /* \"#utility.yul\":3266:3296   */\n      swap1\n      pop\n        /* \"#utility.yul\":3319:3337   */\n      0xffffffffffffffff\n        /* \"#utility.yul\":3311:3317   */\n      dup2\n        /* \"#utility.yul\":3308:3338   */\n      gt\n        /* \"#utility.yul\":3305:3422   */\n      iszero\n      tag_184\n      jumpi\n        /* \"#utility.yul\":3341:3420   */\n      tag_185\n      tag_108\n      jump\t// in\n    tag_185:\n        /* \"#utility.yul\":3305:3422   */\n    tag_184:\n        /* \"#utility.yul\":3455:3459   */\n      0x20\n        /* \"#utility.yul\":3447:3453   */\n      dup4\n        /* \"#utility.yul\":3443:3460   */\n      add\n        /* \"#utility.yul\":3431:3460   */\n      swap2\n      pop\n        /* \"#utility.yul\":3509:3512   */\n      dup4\n        /* \"#utility.yul\":3501:3505   */\n      0x01\n        /* \"#utility.yul\":3493:3499   */\n      dup3\n        /* \"#utility.yul\":3489:3506   */\n      mul\n        /* \"#utility.yul\":3479:3487   */\n      dup4\n        /* \"#utility.yul\":3475:3507   */\n      add\n        /* \"#utility.yul\":3472:3513   */\n      gt\n        /* \"#utility.yul\":3469:3597   */\n      iszero\n      tag_186\n      jumpi\n        /* \"#utility.yul\":3516:3595   */\n      tag_187\n      tag_109\n      jump\t// in\n    tag_187:\n        /* \"#utility.yul\":3469:3597   */\n    tag_186:\n        /* \"#utility.yul\":3050:3603   */\n      swap3\n      pop\n      swap3\n      swap1\n      pop\n      jump\t// out\n        /* \"#utility.yul\":3622:4174   */\n    tag_111:\n        /* \"#utility.yul\":3679:3687   */\n      0x00\n        /* \"#utility.yul\":3689:3695   */\n      dup1\n        /* \"#utility.yul\":3739:3742   */\n      dup4\n        /* \"#utility.yul\":3732:3736   */\n      0x1f\n        /* \"#utility.yul\":3724:3730   */\n      dup5\n        /* \"#utility.yul\":3720:3737   */\n      add\n        /* \"#utility.yul\":3716:3743   */\n      slt\n        /* \"#utility.yul\":3706:3828   */\n      tag_189\n      jumpi\n        /* \"#utility.yul\":3747:3826   */\n      tag_190\n      tag_107\n      jump\t// in\n    tag_190:\n        /* \"#utility.yul\":3706:3828   */\n    tag_189:\n        /* \"#utility.yul\":3860:3866   */\n      dup3\n        /* \"#utility.yul\":3847:3867   */\n      calldataload\n        /* \"#utility.yul\":3837:3867   */\n      swap1\n      pop\n        /* \"#utility.yul\":3890:3908   */\n      0xffffffffffffffff\n        /* \"#utility.yul\":3882:3888   */\n      dup2\n        /* \"#utility.yul\":3879:3909   */\n      gt\n        /* \"#utility.yul\":3876:3993   */\n      iszero\n      tag_191\n      jumpi\n        /* \"#utility.yul\":3912:3991   */\n      tag_192\n      tag_108\n      jump\t// in\n    tag_192:\n        /* \"#utility.yul\":3876:3993   */\n    tag_191:\n        /* \"#utility.yul\":4026:4030   */\n      0x20\n        /* \"#utility.yul\":4018:4024   */\n      dup4\n        /* \"#utility.yul\":4014:4031   */\n      add\n        /* \"#utility.yul\":4002:4031   */\n      swap2\n      pop\n        /* \"#utility.yul\":4080:4083   */\n      dup4\n        /* \"#utility.yul\":4072:4076   */\n      0x01\n        /* \"#utility.yul\":4064:4070   */\n      dup3\n        /* \"#utility.yul\":4060:4077   */\n      mul\n        /* \"#utility.yul\":4050:4058   */\n      dup4\n        /* \"#utility.yul\":4046:4078   */\n      add\n        /* \"#utility.yul\":4043:4084   */\n      gt\n        /* \"#utility.yul\":4040:4168   */\n      iszero\n      tag_193\n      jumpi\n        /* \"#utility.yul\":4087:4166   */\n      tag_194\n      tag_109\n      jump\t// in\n    tag_194:\n        /* \"#utility.yul\":4040:4168   */\n    tag_193:\n        /* \"#utility.yul\":3622:4174   */\n      swap3\n      pop\n      swap3\n      swap1\n      pop\n      jump\t// out\n        /* \"#utility.yul\":4180:5489   */\n    tag_21:\n        /* \"#utility.yul\":4298:4304   */\n      0x00\n        /* \"#utility.yul\":4306:4312   */\n      dup1\n        /* \"#utility.yul\":4314:4320   */\n      0x00\n        /* \"#utility.yul\":4322:4328   */\n      dup1\n        /* \"#utility.yul\":4330:4336   */\n      0x00\n        /* \"#utility.yul\":4338:4344   */\n      dup1\n        /* \"#utility.yul\":4346:4352   */\n      0x00\n        /* \"#utility.yul\":4395:4398   */\n      0xa0\n        /* \"#utility.yul\":4383:4392   */\n      dup9\n        /* \"#utility.yul\":4374:4381   */\n      dup11\n        /* \"#utility.yul\":4370:4393   */\n      sub\n        /* \"#utility.yul\":4366:4399   */\n      slt\n        /* \"#utility.yul\":4363:4483   */\n      iszero\n      tag_196\n      jumpi\n        /* \"#utility.yul\":4402:4481   */\n      tag_197\n      tag_92\n      jump\t// in\n    tag_197:\n        /* \"#utility.yul\":4363:4483   */\n    tag_196:\n        /* \"#utility.yul\":4522:4523   */\n      0x00\n        /* \"#utility.yul\":4547:4600   */\n      tag_198\n        /* \"#utility.yul\":4592:4599   */\n      dup11\n        /* \"#utility.yul\":4583:4589   */\n      dup3\n        /* \"#utility.yul\":4572:4581   */\n      dup12\n        /* \"#utility.yul\":4568:4590   */\n      add\n        /* \"#utility.yul\":4547:4600   */\n      tag_104\n      jump\t// in\n    tag_198:\n        /* \"#utility.yul\":4537:4600   */\n      swap8\n      pop\n        /* \"#utility.yul\":4493:4610   */\n      pop\n        /* \"#utility.yul\":4649:4651   */\n      0x20\n        /* \"#utility.yul\":4675:4728   */\n      tag_199\n        /* \"#utility.yul\":4720:4727   */\n      dup11\n        /* \"#utility.yul\":4711:4717   */\n      dup3\n        /* \"#utility.yul\":4700:4709   */\n      dup12\n        /* \"#utility.yul\":4696:4718   */\n      add\n        /* \"#utility.yul\":4675:4728   */\n      tag_106\n      jump\t// in\n    tag_199:\n        /* \"#utility.yul\":4665:4728   */\n      swap7\n      pop\n        /* \"#utility.yul\":4620:4738   */\n      pop\n        /* \"#utility.yul\":4805:4807   */\n      0x40\n        /* \"#utility.yul\":4794:4803   */\n      dup9\n        /* \"#utility.yul\":4790:4808   */\n      add\n        /* \"#utility.yul\":4777:4809   */\n      calldataload\n        /* \"#utility.yul\":4836:4854   */\n      0xffffffffffffffff\n        /* \"#utility.yul\":4828:4834   */\n      dup2\n        /* \"#utility.yul\":4825:4855   */\n      gt\n        /* \"#utility.yul\":4822:4939   */\n      iszero\n      tag_200\n      jumpi\n        /* \"#utility.yul\":4858:4937   */\n      tag_201\n      tag_93\n      jump\t// in\n    tag_201:\n        /* \"#utility.yul\":4822:4939   */\n    tag_200:\n        /* \"#utility.yul\":4971:5036   */\n      tag_202\n        /* \"#utility.yul\":5028:5035   */\n      dup11\n        /* \"#utility.yul\":5019:5025   */\n      dup3\n        /* \"#utility.yul\":5008:5017   */\n      dup12\n        /* \"#utility.yul\":5004:5026   */\n      add\n        /* \"#utility.yul\":4971:5036   */\n      tag_110\n      jump\t// in\n    tag_202:\n        /* \"#utility.yul\":4953:5036   */\n      swap6\n      pop\n      swap6\n      pop\n        /* \"#utility.yul\":4748:5046   */\n      pop\n        /* \"#utility.yul\":5113:5115   */\n      0x60\n        /* \"#utility.yul\":5102:5111   */\n      dup9\n        /* \"#utility.yul\":5098:5116   */\n      add\n        /* \"#utility.yul\":5085:5117   */\n      calldataload\n        /* \"#utility.yul\":5144:5162   */\n      0xffffffffffffffff\n        /* \"#utility.yul\":5136:5142   */\n      dup2\n        /* \"#utility.yul\":5133:5163   */\n      gt\n        /* \"#utility.yul\":5130:5247   */\n      iszero\n      tag_203\n      jumpi\n        /* \"#utility.yul\":5166:5245   */\n      tag_204\n      tag_93\n      jump\t// in\n    tag_204:\n        /* \"#utility.yul\":5130:5247   */\n    tag_203:\n        /* \"#utility.yul\":5279:5343   */\n      tag_205\n        /* \"#utility.yul\":5335:5342   */\n      dup11\n        /* \"#utility.yul\":5326:5332   */\n      dup3\n        /* \"#utility.yul\":5315:5324   */\n      dup12\n        /* \"#utility.yul\":5311:5333   */\n      add\n        /* \"#utility.yul\":5279:5343   */\n      tag_111\n      jump\t// in\n    tag_205:\n        /* \"#utility.yul\":5261:5343   */\n      swap4\n      pop\n      swap4\n      pop\n        /* \"#utility.yul\":5056:5353   */\n      pop\n        /* \"#utility.yul\":5392:5395   */\n      0x80\n        /* \"#utility.yul\":5419:5472   */\n      tag_206\n        /* \"#utility.yul\":5464:5471   */\n      dup11\n        /* \"#utility.yul\":5455:5461   */\n      dup3\n        /* \"#utility.yul\":5444:5453   */\n      dup12\n        /* \"#utility.yul\":5440:5462   */\n      add\n        /* \"#utility.yul\":5419:5472   */\n      tag_106\n      jump\t// in\n    tag_206:\n        /* \"#utility.yul\":5409:5472   */\n      swap2\n      pop\n        /* \"#utility.yul\":5363:5482   */\n      pop\n        /* \"#utility.yul\":4180:5489   */\n      swap3\n      swap6\n      swap9\n      swap2\n      swap5\n      swap8\n      pop\n      swap3\n      swap6\n      pop\n      jump\t// out\n        /* \"#utility.yul\":5495:5593   */\n    tag_112:\n        /* \"#utility.yul\":5546:5552   */\n      0x00\n        /* \"#utility.yul\":5580:5585   */\n      dup2\n        /* \"#utility.yul\":5574:5586   */\n      mload\n        /* \"#utility.yul\":5564:5586   */\n      swap1\n      pop\n        /* \"#utility.yul\":5495:5593   */\n      swap2\n      swap1\n      pop\n      jump\t// out\n        /* \"#utility.yul\":5599:5767   */\n    tag_113:\n        /* \"#utility.yul\":5682:5693   */\n      0x00\n        /* \"#utility.yul\":5716:5722   */\n      dup3\n        /* \"#utility.yul\":5711:5714   */\n      dup3\n        /* \"#utility.yul\":5704:5723   */\n      mstore\n        /* \"#utility.yul\":5756:5760   */\n      0x20\n        /* \"#utility.yul\":5751:5754   */\n      dup3\n        /* \"#utility.yul\":5747:5761   */\n      add\n        /* \"#utility.yul\":5732:5761   */\n      swap1\n      pop\n        /* \"#utility.yul\":5599:5767   */\n      swap3\n      swap2\n      pop\n      pop\n      jump\t// out\n        /* \"#utility.yul\":5773:5912   */\n    tag_114:\n        /* \"#utility.yul\":5862:5868   */\n      dup3\n        /* \"#utility.yul\":5857:5860   */\n      dup2\n        /* \"#utility.yul\":5852:5855   */\n      dup4\n        /* \"#utility.yul\":5846:5869   */\n      mcopy\n        /* \"#utility.yul\":5903:5904   */\n      0x00\n        /* \"#utility.yul\":5894:5900   */\n      dup4\n        /* \"#utility.yul\":5889:5892   */\n      dup4\n        /* \"#utility.yul\":5885:5901   */\n      add\n        /* \"#utility.yul\":5878:5905   */\n      mstore\n        /* \"#utility.yul\":5773:5912   */\n      pop\n      pop\n      pop\n      jump\t// out\n        /* \"#utility.yul\":5918:6020   */\n    tag_115:\n        /* \"#utility.yul\":5959:5965   */\n      0x00\n        /* \"#utility.yul\":6010:6012   */\n      0x1f\n        /* \"#utility.yul\":6006:6013   */\n      not\n        /* \"#utility.yul\":6001:6003   */\n      0x1f\n        /* \"#utility.yul\":5994:5999   */\n      dup4\n        /* \"#utility.yul\":5990:6004   */\n      add\n        /* \"#utility.yul\":5986:6014   */\n      and\n        /* \"#utility.yul\":5976:6014   */\n      swap1\n      pop\n        /* \"#utility.yul\":5918:6020   */\n      swap2\n      swap1\n      pop\n      jump\t// out\n        /* \"#utility.yul\":6026:6399   */\n    tag_116:\n        /* \"#utility.yul\":6112:6115   */\n      0x00\n        /* \"#utility.yul\":6140:6178   */\n      tag_212\n        /* \"#utility.yul\":6172:6177   */\n      dup3\n        /* \"#utility.yul\":6140:6178   */\n      tag_112\n      jump\t// in\n    tag_212:\n        /* \"#utility.yul\":6194:6264   */\n      tag_213\n        /* \"#utility.yul\":6257:6263   */\n      dup2\n        /* \"#utility.yul\":6252:6255   */\n      dup6\n        /* \"#utility.yul\":6194:6264   */\n      tag_113\n      jump\t// in\n    tag_213:\n        /* \"#utility.yul\":6187:6264   */\n      swap4\n      pop\n        /* \"#utility.yul\":6273:6338   */\n      tag_214\n        /* \"#utility.yul\":6331:6337   */\n      dup2\n        /* \"#utility.yul\":6326:6329   */\n      dup6\n        /* \"#utility.yul\":6319:6323   */\n      0x20\n        /* \"#utility.yul\":6312:6317   */\n      dup7\n        /* \"#utility.yul\":6308:6324   */\n      add\n        /* \"#utility.yul\":6273:6338   */\n      tag_114\n      jump\t// in\n    tag_214:\n        /* \"#utility.yul\":6363:6392   */\n      tag_215\n        /* \"#utility.yul\":6385:6391   */\n      dup2\n        /* \"#utility.yul\":6363:6392   */\n      tag_115\n      jump\t// in\n    tag_215:\n        /* \"#utility.yul\":6358:6361   */\n      dup5\n        /* \"#utility.yul\":6354:6393   */\n      add\n        /* \"#utility.yul\":6347:6393   */\n      swap2\n      pop\n        /* \"#utility.yul\":6116:6399   */\n      pop\n        /* \"#utility.yul\":6026:6399   */\n      swap3\n      swap2\n      pop\n      pop\n      jump\t// out\n        /* \"#utility.yul\":6405:6714   */\n    tag_33:\n        /* \"#utility.yul\":6516:6520   */\n      0x00\n        /* \"#utility.yul\":6554:6556   */\n      0x20\n        /* \"#utility.yul\":6543:6552   */\n      dup3\n        /* \"#utility.yul\":6539:6557   */\n      add\n        /* \"#utility.yul\":6531:6557   */\n      swap1\n      pop\n        /* \"#utility.yul\":6603:6612   */\n      dup2\n        /* \"#utility.yul\":6597:6601   */\n      dup2\n        /* \"#utility.yul\":6593:6613   */\n      sub\n        /* \"#utility.yul\":6589:6590   */\n      0x00\n        /* \"#utility.yul\":6578:6587   */\n      dup4\n        /* \"#utility.yul\":6574:6591   */\n      add\n        /* \"#utility.yul\":6567:6614   */\n      mstore\n        /* \"#utility.yul\":6631:6707   */\n      tag_217\n        /* \"#utility.yul\":6702:6706   */\n      dup2\n        /* \"#utility.yul\":6693:6699   */\n      dup5\n        /* \"#utility.yul\":6631:6707   */\n      tag_116\n      jump\t// in\n    tag_217:\n        /* \"#utility.yul\":6623:6707   */\n      swap1\n      pop\n        /* \"#utility.yul\":6405:6714   */\n      swap3\n      swap2\n      pop\n      pop\n      jump\t// out\n        /* \"#utility.yul\":6720:6889   */\n    tag_117:\n        /* \"#utility.yul\":6804:6815   */\n      0x00\n        /* \"#utility.yul\":6838:6844   */\n      dup3\n        /* \"#utility.yul\":6833:6836   */\n      dup3\n        /* \"#utility.yul\":6826:6845   */\n      mstore\n        /* \"#utility.yul\":6878:6882   */\n      0x20\n        /* \"#utility.yul\":6873:6876   */\n      dup3\n        /* \"#utility.yul\":6869:6883   */\n      add\n        /* \"#utility.yul\":6854:6883   */\n      swap1\n      pop\n        /* \"#utility.yul\":6720:6889   */\n      swap3\n      swap2\n      pop\n      pop\n      jump\t// out\n        /* \"#utility.yul\":6895:7054   */\n    tag_118:\n        /* \"#utility.yul\":7035:7046   */\n      0x6e6f74206f776e65720000000000000000000000000000000000000000000000\n        /* \"#utility.yul\":7031:7032   */\n      0x00\n        /* \"#utility.yul\":7023:7029   */\n      dup3\n        /* \"#utility.yul\":7019:7033   */\n      add\n        /* \"#utility.yul\":7012:7047   */\n      mstore\n        /* \"#utility.yul\":6895:7054   */\n      pop\n      jump\t// out\n        /* \"#utility.yul\":7060:7425   */\n    tag_119:\n        /* \"#utility.yul\":7202:7205   */\n      0x00\n        /* \"#utility.yul\":7223:7289   */\n      tag_221\n        /* \"#utility.yul\":7287:7288   */\n      0x09\n        /* \"#utility.yul\":7282:7285   */\n      dup4\n        /* \"#utility.yul\":7223:7289   */\n      tag_117\n      jump\t// in\n    tag_221:\n        /* \"#utility.yul\":7216:7289   */\n      swap2\n      pop\n        /* \"#utility.yul\":7298:7391   */\n      tag_222\n        /* \"#utility.yul\":7387:7390   */\n      dup3\n        /* \"#utility.yul\":7298:7391   */\n      tag_118\n      jump\t// in\n    tag_222:\n        /* \"#utility.yul\":7416:7418   */\n      0x20\n        /* \"#utility.yul\":7411:7414   */\n      dup3\n        /* \"#utility.yul\":7407:7419   */\n      add\n        /* \"#utility.yul\":7400:7419   */\n      swap1\n      pop\n        /* \"#utility.yul\":7060:7425   */\n      swap2\n      swap1\n      pop\n      jump\t// out\n        /* \"#utility.yul\":7431:7850   */\n    tag_37:\n        /* \"#utility.yul\":7597:7601   */\n      0x00\n        /* \"#utility.yul\":7635:7637   */\n      0x20\n        /* \"#utility.yul\":7624:7633   */\n      dup3\n        /* \"#utility.yul\":7620:7638   */\n      add\n        /* \"#utility.yul\":7612:7638   */\n      swap1\n      pop\n        /* \"#utility.yul\":7684:7693   */\n      dup2\n        /* \"#utility.yul\":7678:7682   */\n      dup2\n        /* \"#utility.yul\":7674:7694   */\n      sub\n        /* \"#utility.yul\":7670:7671   */\n      0x00\n        /* \"#utility.yul\":7659:7668   */\n      dup4\n        /* \"#utility.yul\":7655:7672   */\n      add\n        /* \"#utility.yul\":7648:7695   */\n      mstore\n        /* \"#utility.yul\":7712:7843   */\n      tag_224\n        /* \"#utility.yul\":7838:7842   */\n      dup2\n        /* \"#utility.yul\":7712:7843   */\n      tag_119\n      jump\t// in\n    tag_224:\n        /* \"#utility.yul\":7704:7843   */\n      swap1\n      pop\n        /* \"#utility.yul\":7431:7850   */\n      swap2\n      swap1\n      pop\n      jump\t// out\n        /* \"#utility.yul\":7856:8020   */\n    tag_120:\n        /* \"#utility.yul\":7996:8012   */\n      0x616c726561647920717565756564000000000000000000000000000000000000\n        /* \"#utility.yul\":7992:7993   */\n      0x00\n        /* \"#utility.yul\":7984:7990   */\n      dup3\n        /* \"#utility.yul\":7980:7994   */\n      add\n        /* \"#utility.yul\":7973:8013   */\n      mstore\n        /* \"#utility.yul\":7856:8020   */\n      pop\n      jump\t// out\n        /* \"#utility.yul\":8026:8392   */\n    tag_121:\n        /* \"#utility.yul\":8168:8171   */\n      0x00\n        /* \"#utility.yul\":8189:8256   */\n      tag_227\n        /* \"#utility.yul\":8253:8255   */\n      0x0e\n        /* \"#utility.yul\":8248:8251   */\n      dup4\n        /* \"#utility.yul\":8189:8256   */\n      tag_117\n      jump\t// in\n    tag_227:\n        /* \"#utility.yul\":8182:8256   */\n      swap2\n      pop\n        /* \"#utility.yul\":8265:8358   */\n      tag_228\n        /* \"#utility.yul\":8354:8357   */\n      dup3\n        /* \"#utility.yul\":8265:8358   */\n      tag_120\n      jump\t// in\n    tag_228:\n        /* \"#utility.yul\":8383:8385   */\n      0x20\n        /* \"#utility.yul\":8378:8381   */\n      dup3\n        /* \"#utility.yul\":8374:8386   */\n      add\n        /* \"#utility.yul\":8367:8386   */\n      swap1\n      pop\n        /* \"#utility.yul\":8026:8392   */\n      swap2\n      swap1\n      pop\n      jump\t// out\n        /* \"#utility.yul\":8398:8817   */\n    tag_43:\n        /* \"#utility.yul\":8564:8568   */\n      0x00\n        /* \"#utility.yul\":8602:8604   */\n      0x20\n        /* \"#utility.yul\":8591:8600   */\n      dup3\n        /* \"#utility.yul\":8587:8605   */\n      add\n        /* \"#utility.yul\":8579:8605   */\n      swap1\n      pop\n        /* \"#utility.yul\":8651:8660   */\n      dup2\n        /* \"#utility.yul\":8645:8649   */\n      dup2\n        /* \"#utility.yul\":8641:8661   */\n      sub\n        /* \"#utility.yul\":8637:8638   */\n      0x00\n        /* \"#utility.yul\":8626:8635   */\n      dup4\n        /* \"#utility.yul\":8622:8639   */\n      add\n        /* \"#utility.yul\":8615:8662   */\n      mstore\n        /* \"#utility.yul\":8679:8810   */\n      tag_230\n        /* \"#utility.yul\":8805:8809   */\n      dup2\n        /* \"#utility.yul\":8679:8810   */\n      tag_121\n      jump\t// in\n    tag_230:\n        /* \"#utility.yul\":8671:8810   */\n      swap1\n      pop\n        /* \"#utility.yul\":8398:8817   */\n      swap2\n      swap1\n      pop\n      jump\t// out\n        /* \"#utility.yul\":8823:9003   */\n    tag_122:\n        /* \"#utility.yul\":8871:8948   */\n      0x4e487b7100000000000000000000000000000000000000000000000000000000\n        /* \"#utility.yul\":8868:8869   */\n      0x00\n        /* \"#utility.yul\":8861:8949   */\n      mstore\n        /* \"#utility.yul\":8968:8972   */\n      0x11\n        /* \"#utility.yul\":8965:8966   */\n      0x04\n        /* \"#utility.yul\":8958:8973   */\n      mstore\n        /* \"#utility.yul\":8992:8996   */\n      0x24\n        /* \"#utility.yul\":8989:8990   */\n      0x00\n        /* \"#utility.yul\":8982:8997   */\n      revert\n        /* \"#utility.yul\":9009:9200   */\n    tag_45:\n        /* \"#utility.yul\":9049:9052   */\n      0x00\n        /* \"#utility.yul\":9068:9088   */\n      tag_233\n        /* \"#utility.yul\":9086:9087   */\n      dup3\n        /* \"#utility.yul\":9068:9088   */\n      tag_99\n      jump\t// in\n    tag_233:\n        /* \"#utility.yul\":9063:9088   */\n      swap2\n      pop\n        /* \"#utility.yul\":9102:9122   */\n      tag_234\n        /* \"#utility.yul\":9120:9121   */\n      dup4\n        /* \"#utility.yul\":9102:9122   */\n      tag_99\n      jump\t// in\n    tag_234:\n        /* \"#utility.yul\":9097:9122   */\n      swap3\n      pop\n        /* \"#utility.yul\":9145:9146   */\n      dup3\n        /* \"#utility.yul\":9142:9143   */\n      dup3\n        /* \"#utility.yul\":9138:9147   */\n      add\n        /* \"#utility.yul\":9131:9147   */\n      swap1\n      pop\n        /* \"#utility.yul\":9166:9169   */\n      dup1\n        /* \"#utility.yul\":9163:9164   */\n      dup3\n        /* \"#utility.yul\":9160:9170   */\n      gt\n        /* \"#utility.yul\":9157:9193   */\n      iszero\n      tag_235\n      jumpi\n        /* \"#utility.yul\":9173:9191   */\n      tag_236\n      tag_122\n      jump\t// in\n    tag_236:\n        /* \"#utility.yul\":9157:9193   */\n    tag_235:\n        /* \"#utility.yul\":9009:9200   */\n      swap3\n      swap2\n      pop\n      pop\n      jump\t// out\n        /* \"#utility.yul\":9206:9375   */\n    tag_123:\n        /* \"#utility.yul\":9346:9367   */\n      0x74696d657374616d70206e6f742076616c696400000000000000000000000000\n        /* \"#utility.yul\":9342:9343   */\n      0x00\n        /* \"#utility.yul\":9334:9340   */\n      dup3\n        /* \"#utility.yul\":9330:9344   */\n      add\n        /* \"#utility.yul\":9323:9368   */\n      mstore\n        /* \"#utility.yul\":9206:9375   */\n      pop\n      jump\t// out\n        /* \"#utility.yul\":9381:9747   */\n    tag_124:\n        /* \"#utility.yul\":9523:9526   */\n      0x00\n        /* \"#utility.yul\":9544:9611   */\n      tag_239\n        /* \"#utility.yul\":9608:9610   */\n      0x13\n        /* \"#utility.yul\":9603:9606   */\n      dup4\n        /* \"#utility.yul\":9544:9611   */\n      tag_117\n      jump\t// in\n    tag_239:\n        /* \"#utility.yul\":9537:9611   */\n      swap2\n      pop\n        /* \"#utility.yul\":9620:9713   */\n      tag_240\n        /* \"#utility.yul\":9709:9712   */\n      dup3\n        /* \"#utility.yul\":9620:9713   */\n      tag_123\n      jump\t// in\n    tag_240:\n        /* \"#utility.yul\":9738:9740   */\n      0x20\n        /* \"#utility.yul\":9733:9736   */\n      dup3\n        /* \"#utility.yul\":9729:9741   */\n      add\n        /* \"#utility.yul\":9722:9741   */\n      swap1\n      pop\n        /* \"#utility.yul\":9381:9747   */\n      swap2\n      swap1\n      pop\n      jump\t// out\n        /* \"#utility.yul\":9753:10172   */\n    tag_50:\n        /* \"#utility.yul\":9919:9923   */\n      0x00\n        /* \"#utility.yul\":9957:9959   */\n      0x20\n        /* \"#utility.yul\":9946:9955   */\n      dup3\n        /* \"#utility.yul\":9942:9960   */\n      add\n        /* \"#utility.yul\":9934:9960   */\n      swap1\n      pop\n        /* \"#utility.yul\":10006:10015   */\n      dup2\n        /* \"#utility.yul\":10000:10004   */\n      dup2\n        /* \"#utility.yul\":9996:10016   */\n      sub\n        /* \"#utility.yul\":9992:9993   */\n      0x00\n        /* \"#utility.yul\":9981:9990   */\n      dup4\n        /* \"#utility.yul\":9977:9994   */\n      add\n        /* \"#utility.yul\":9970:10017   */\n      mstore\n        /* \"#utility.yul\":10034:10165   */\n      tag_242\n        /* \"#utility.yul\":10160:10164   */\n      dup2\n        /* \"#utility.yul\":10034:10165   */\n      tag_124\n      jump\t// in\n    tag_242:\n        /* \"#utility.yul\":10026:10165   */\n      swap1\n      pop\n        /* \"#utility.yul\":9753:10172   */\n      swap2\n      swap1\n      pop\n      jump\t// out\n        /* \"#utility.yul\":10178:10326   */\n    tag_125:\n        /* \"#utility.yul\":10276:10282   */\n      dup3\n        /* \"#utility.yul\":10271:10274   */\n      dup2\n        /* \"#utility.yul\":10266:10269   */\n      dup4\n        /* \"#utility.yul\":10253:10283   */\n      calldatacopy\n        /* \"#utility.yul\":10317:10318   */\n      0x00\n        /* \"#utility.yul\":10308:10314   */\n      dup4\n        /* \"#utility.yul\":10303:10306   */\n      dup4\n        /* \"#utility.yul\":10299:10315   */\n      add\n        /* \"#utility.yul\":10292:10319   */\n      mstore\n        /* \"#utility.yul\":10178:10326   */\n      pop\n      pop\n      pop\n      jump\t// out\n        /* \"#utility.yul\":10356:10673   */\n    tag_126:\n        /* \"#utility.yul\":10454:10457   */\n      0x00\n        /* \"#utility.yul\":10475:10546   */\n      tag_245\n        /* \"#utility.yul\":10539:10545   */\n      dup4\n        /* \"#utility.yul\":10534:10537   */\n      dup6\n        /* \"#utility.yul\":10475:10546   */\n      tag_117\n      jump\t// in\n    tag_245:\n        /* \"#utility.yul\":10468:10546   */\n      swap4\n      pop\n        /* \"#utility.yul\":10556:10612   */\n      tag_246\n        /* \"#utility.yul\":10605:10611   */\n      dup4\n        /* \"#utility.yul\":10600:10603   */\n      dup6\n        /* \"#utility.yul\":10593:10598   */\n      dup5\n        /* \"#utility.yul\":10556:10612   */\n      tag_125\n      jump\t// in\n    tag_246:\n        /* \"#utility.yul\":10637:10666   */\n      tag_247\n        /* \"#utility.yul\":10659:10665   */\n      dup4\n        /* \"#utility.yul\":10637:10666   */\n      tag_115\n      jump\t// in\n    tag_247:\n        /* \"#utility.yul\":10632:10635   */\n      dup5\n        /* \"#utility.yul\":10628:10667   */\n      add\n        /* \"#utility.yul\":10621:10667   */\n      swap1\n      pop\n        /* \"#utility.yul\":10356:10673   */\n      swap4\n      swap3\n      pop\n      pop\n      pop\n      jump\t// out\n        /* \"#utility.yul\":10701:11015   */\n    tag_127:\n        /* \"#utility.yul\":10797:10800   */\n      0x00\n        /* \"#utility.yul\":10818:10888   */\n      tag_249\n        /* \"#utility.yul\":10881:10887   */\n      dup4\n        /* \"#utility.yul\":10876:10879   */\n      dup6\n        /* \"#utility.yul\":10818:10888   */\n      tag_113\n      jump\t// in\n    tag_249:\n        /* \"#utility.yul\":10811:10888   */\n      swap4\n      pop\n        /* \"#utility.yul\":10898:10954   */\n      tag_250\n        /* \"#utility.yul\":10947:10953   */\n      dup4\n        /* \"#utility.yul\":10942:10945   */\n      dup6\n        /* \"#utility.yul\":10935:10940   */\n      dup5\n        /* \"#utility.yul\":10898:10954   */\n      tag_125\n      jump\t// in\n    tag_250:\n        /* \"#utility.yul\":10979:11008   */\n      tag_251\n        /* \"#utility.yul\":11001:11007   */\n      dup4\n        /* \"#utility.yul\":10979:11008   */\n      tag_115\n      jump\t// in\n    tag_251:\n        /* \"#utility.yul\":10974:10977   */\n      dup5\n        /* \"#utility.yul\":10970:11009   */\n      add\n        /* \"#utility.yul\":10963:11009   */\n      swap1\n      pop\n        /* \"#utility.yul\":10701:11015   */\n      swap4\n      swap3\n      pop\n      pop\n      pop\n      jump\t// out\n        /* \"#utility.yul\":11021:11792   */\n    tag_52:\n        /* \"#utility.yul\":11256:11260   */\n      0x00\n        /* \"#utility.yul\":11294:11297   */\n      0x80\n        /* \"#utility.yul\":11283:11292   */\n      dup3\n        /* \"#utility.yul\":11279:11298   */\n      add\n        /* \"#utility.yul\":11271:11298   */\n      swap1\n      pop\n        /* \"#utility.yul\":11308:11379   */\n      tag_253\n        /* \"#utility.yul\":11376:11377   */\n      0x00\n        /* \"#utility.yul\":11365:11374   */\n      dup4\n        /* \"#utility.yul\":11361:11378   */\n      add\n        /* \"#utility.yul\":11352:11358   */\n      dup10\n        /* \"#utility.yul\":11308:11379   */\n      tag_100\n      jump\t// in\n    tag_253:\n        /* \"#utility.yul\":11426:11435   */\n      dup2\n        /* \"#utility.yul\":11420:11424   */\n      dup2\n        /* \"#utility.yul\":11416:11436   */\n      sub\n        /* \"#utility.yul\":11411:11413   */\n      0x20\n        /* \"#utility.yul\":11400:11409   */\n      dup4\n        /* \"#utility.yul\":11396:11414   */\n      add\n        /* \"#utility.yul\":11389:11437   */\n      mstore\n        /* \"#utility.yul\":11454:11542   */\n      tag_254\n        /* \"#utility.yul\":11537:11541   */\n      dup2\n        /* \"#utility.yul\":11528:11534   */\n      dup8\n        /* \"#utility.yul\":11520:11526   */\n      dup10\n        /* \"#utility.yul\":11454:11542   */\n      tag_126\n      jump\t// in\n    tag_254:\n        /* \"#utility.yul\":11446:11542   */\n      swap1\n      pop\n        /* \"#utility.yul\":11589:11598   */\n      dup2\n        /* \"#utility.yul\":11583:11587   */\n      dup2\n        /* \"#utility.yul\":11579:11599   */\n      sub\n        /* \"#utility.yul\":11574:11576   */\n      0x40\n        /* \"#utility.yul\":11563:11572   */\n      dup4\n        /* \"#utility.yul\":11559:11577   */\n      add\n        /* \"#utility.yul\":11552:11600   */\n      mstore\n        /* \"#utility.yul\":11617:11703   */\n      tag_255\n        /* \"#utility.yul\":11698:11702   */\n      dup2\n        /* \"#utility.yul\":11689:11695   */\n      dup6\n        /* \"#utility.yul\":11681:11687   */\n      dup8\n        /* \"#utility.yul\":11617:11703   */\n      tag_127\n      jump\t// in\n    tag_255:\n        /* \"#utility.yul\":11609:11703   */\n      swap1\n      pop\n        /* \"#utility.yul\":11713:11785   */\n      tag_256\n        /* \"#utility.yul\":11781:11783   */\n      0x60\n        /* \"#utility.yul\":11770:11779   */\n      dup4\n        /* \"#utility.yul\":11766:11784   */\n      add\n        /* \"#utility.yul\":11757:11763   */\n      dup5\n        /* \"#utility.yul\":11713:11785   */\n      tag_100\n      jump\t// in\n    tag_256:\n        /* \"#utility.yul\":11021:11792   */\n      swap8\n      swap7\n      pop\n      pop\n      pop\n      pop\n      pop\n      pop\n      pop\n      jump\t// out\n        /* \"#utility.yul\":11798:11957   */\n    tag_128:\n        /* \"#utility.yul\":11938:11949   */\n      0x6e6f742071756575650000000000000000000000000000000000000000000000\n        /* \"#utility.yul\":11934:11935   */\n      0x00\n        /* \"#utility.yul\":11926:11932   */\n      dup3\n        /* \"#utility.yul\":11922:11936   */\n      add\n        /* \"#utility.yul\":11915:11950   */\n      mstore\n        /* \"#utility.yul\":11798:11957   */\n      pop\n      jump\t// out\n        /* \"#utility.yul\":11963:12328   */\n    tag_129:\n        /* \"#utility.yul\":12105:12108   */\n      0x00\n        /* \"#utility.yul\":12126:12192   */\n      tag_259\n        /* \"#utility.yul\":12190:12191   */\n      0x09\n        /* \"#utility.yul\":12185:12188   */\n      dup4\n        /* \"#utility.yul\":12126:12192   */\n      tag_117\n      jump\t// in\n    tag_259:\n        /* \"#utility.yul\":12119:12192   */\n      swap2\n      pop\n        /* \"#utility.yul\":12201:12294   */\n      tag_260\n        /* \"#utility.yul\":12290:12293   */\n      dup3\n        /* \"#utility.yul\":12201:12294   */\n      tag_128\n      jump\t// in\n    tag_260:\n        /* \"#utility.yul\":12319:12321   */\n      0x20\n        /* \"#utility.yul\":12314:12317   */\n      dup3\n        /* \"#utility.yul\":12310:12322   */\n      add\n        /* \"#utility.yul\":12303:12322   */\n      swap1\n      pop\n        /* \"#utility.yul\":11963:12328   */\n      swap2\n      swap1\n      pop\n      jump\t// out\n        /* \"#utility.yul\":12334:12753   */\n    tag_60:\n        /* \"#utility.yul\":12500:12504   */\n      0x00\n        /* \"#utility.yul\":12538:12540   */\n      0x20\n        /* \"#utility.yul\":12527:12536   */\n      dup3\n        /* \"#utility.yul\":12523:12541   */\n      add\n        /* \"#utility.yul\":12515:12541   */\n      swap1\n      pop\n        /* \"#utility.yul\":12587:12596   */\n      dup2\n        /* \"#utility.yul\":12581:12585   */\n      dup2\n        /* \"#utility.yul\":12577:12597   */\n      sub\n        /* \"#utility.yul\":12573:12574   */\n      0x00\n        /* \"#utility.yul\":12562:12571   */\n      dup4\n        /* \"#utility.yul\":12558:12575   */\n      add\n        /* \"#utility.yul\":12551:12598   */\n      mstore\n        /* \"#utility.yul\":12615:12746   */\n      tag_262\n        /* \"#utility.yul\":12741:12745   */\n      dup2\n        /* \"#utility.yul\":12615:12746   */\n      tag_129\n      jump\t// in\n    tag_262:\n        /* \"#utility.yul\":12607:12746   */\n      swap1\n      pop\n        /* \"#utility.yul\":12334:12753   */\n      swap2\n      swap1\n      pop\n      jump\t// out\n        /* \"#utility.yul\":12759:12906   */\n    tag_130:\n        /* \"#utility.yul\":12860:12871   */\n      0x00\n        /* \"#utility.yul\":12897:12900   */\n      dup2\n        /* \"#utility.yul\":12882:12900   */\n      swap1\n      pop\n        /* \"#utility.yul\":12759:12906   */\n      swap3\n      swap2\n      pop\n      pop\n      jump\t// out\n        /* \"#utility.yul\":12934:13261   */\n    tag_131:\n        /* \"#utility.yul\":13048:13051   */\n      0x00\n        /* \"#utility.yul\":13069:13157   */\n      tag_265\n        /* \"#utility.yul\":13150:13156   */\n      dup4\n        /* \"#utility.yul\":13145:13148   */\n      dup6\n        /* \"#utility.yul\":13069:13157   */\n      tag_130\n      jump\t// in\n    tag_265:\n        /* \"#utility.yul\":13062:13157   */\n      swap4\n      pop\n        /* \"#utility.yul\":13167:13223   */\n      tag_266\n        /* \"#utility.yul\":13216:13222   */\n      dup4\n        /* \"#utility.yul\":13211:13214   */\n      dup6\n        /* \"#utility.yul\":13204:13209   */\n      dup5\n        /* \"#utility.yul\":13167:13223   */\n      tag_125\n      jump\t// in\n    tag_266:\n        /* \"#utility.yul\":13248:13254   */\n      dup3\n        /* \"#utility.yul\":13243:13246   */\n      dup5\n        /* \"#utility.yul\":13239:13255   */\n      add\n        /* \"#utility.yul\":13232:13255   */\n      swap1\n      pop\n        /* \"#utility.yul\":12934:13261   */\n      swap4\n      swap3\n      pop\n      pop\n      pop\n      jump\t// out\n        /* \"#utility.yul\":13267:13558   */\n    tag_71:\n        /* \"#utility.yul\":13407:13410   */\n      0x00\n        /* \"#utility.yul\":13429:13532   */\n      tag_268\n        /* \"#utility.yul\":13528:13531   */\n      dup3\n        /* \"#utility.yul\":13519:13525   */\n      dup5\n        /* \"#utility.yul\":13511:13517   */\n      dup7\n        /* \"#utility.yul\":13429:13532   */\n      tag_131\n      jump\t// in\n    tag_268:\n        /* \"#utility.yul\":13422:13532   */\n      swap2\n      pop\n        /* \"#utility.yul\":13549:13552   */\n      dup2\n        /* \"#utility.yul\":13542:13552   */\n      swap1\n      pop\n        /* \"#utility.yul\":13267:13558   */\n      swap4\n      swap3\n      pop\n      pop\n      pop\n      jump\t// out\n        /* \"#utility.yul\":13564:13713   */\n    tag_132:\n        /* \"#utility.yul\":13600:13607   */\n      0x00\n        /* \"#utility.yul\":13640:13706   */\n      0xffffffff00000000000000000000000000000000000000000000000000000000\n        /* \"#utility.yul\":13633:13638   */\n      dup3\n        /* \"#utility.yul\":13629:13707   */\n      and\n        /* \"#utility.yul\":13618:13707   */\n      swap1\n      pop\n        /* \"#utility.yul\":13564:13713   */\n      swap2\n      swap1\n      pop\n      jump\t// out\n        /* \"#utility.yul\":13719:13797   */\n    tag_133:\n        /* \"#utility.yul\":13757:13764   */\n      0x00\n        /* \"#utility.yul\":13786:13791   */\n      dup2\n        /* \"#utility.yul\":13775:13791   */\n      swap1\n      pop\n        /* \"#utility.yul\":13719:13797   */\n      swap2\n      swap1\n      pop\n      jump\t// out\n        /* \"#utility.yul\":13803:13956   */\n    tag_134:\n        /* \"#utility.yul\":13906:13949   */\n      tag_272\n        /* \"#utility.yul\":13925:13948   */\n      tag_273\n        /* \"#utility.yul\":13942:13947   */\n      dup3\n        /* \"#utility.yul\":13925:13948   */\n      tag_132\n      jump\t// in\n    tag_273:\n        /* \"#utility.yul\":13906:13949   */\n      tag_133\n      jump\t// in\n    tag_272:\n        /* \"#utility.yul\":13901:13904   */\n      dup3\n        /* \"#utility.yul\":13894:13950   */\n      mstore\n        /* \"#utility.yul\":13803:13956   */\n      pop\n      pop\n      jump\t// out\n        /* \"#utility.yul\":13962:14389   */\n    tag_73:\n        /* \"#utility.yul\":14128:14131   */\n      0x00\n        /* \"#utility.yul\":14143:14216   */\n      tag_275\n        /* \"#utility.yul\":14212:14215   */\n      dup3\n        /* \"#utility.yul\":14203:14209   */\n      dup7\n        /* \"#utility.yul\":14143:14216   */\n      tag_134\n      jump\t// in\n    tag_275:\n        /* \"#utility.yul\":14241:14242   */\n      0x04\n        /* \"#utility.yul\":14236:14239   */\n      dup3\n        /* \"#utility.yul\":14232:14243   */\n      add\n        /* \"#utility.yul\":14225:14243   */\n      swap2\n      pop\n        /* \"#utility.yul\":14260:14363   */\n      tag_276\n        /* \"#utility.yul\":14359:14362   */\n      dup3\n        /* \"#utility.yul\":14350:14356   */\n      dup5\n        /* \"#utility.yul\":14342:14348   */\n      dup7\n        /* \"#utility.yul\":14260:14363   */\n      tag_131\n      jump\t// in\n    tag_276:\n        /* \"#utility.yul\":14253:14363   */\n      swap2\n      pop\n        /* \"#utility.yul\":14380:14383   */\n      dup2\n        /* \"#utility.yul\":14373:14383   */\n      swap1\n      pop\n        /* \"#utility.yul\":13962:14389   */\n      swap5\n      swap4\n      pop\n      pop\n      pop\n      pop\n      jump\t// out\n        /* \"#utility.yul\":14395:14724   */\n    tag_75:\n        /* \"#utility.yul\":14516:14520   */\n      0x00\n        /* \"#utility.yul\":14554:14556   */\n      0x20\n        /* \"#utility.yul\":14543:14552   */\n      dup3\n        /* \"#utility.yul\":14539:14557   */\n      add\n        /* \"#utility.yul\":14531:14557   */\n      swap1\n      pop\n        /* \"#utility.yul\":14603:14612   */\n      dup2\n        /* \"#utility.yul\":14597:14601   */\n      dup2\n        /* \"#utility.yul\":14593:14613   */\n      sub\n        /* \"#utility.yul\":14589:14590   */\n      0x00\n        /* \"#utility.yul\":14578:14587   */\n      dup4\n        /* \"#utility.yul\":14574:14591   */\n      add\n        /* \"#utility.yul\":14567:14614   */\n      mstore\n        /* \"#utility.yul\":14631:14717   */\n      tag_278\n        /* \"#utility.yul\":14712:14716   */\n      dup2\n        /* \"#utility.yul\":14703:14709   */\n      dup5\n        /* \"#utility.yul\":14695:14701   */\n      dup7\n        /* \"#utility.yul\":14631:14717   */\n      tag_127\n      jump\t// in\n    tag_278:\n        /* \"#utility.yul\":14623:14717   */\n      swap1\n      pop\n        /* \"#utility.yul\":14395:14724   */\n      swap4\n      swap3\n      pop\n      pop\n      pop\n      jump\t// out\n        /* \"#utility.yul\":14730:14878   */\n    tag_135:\n        /* \"#utility.yul\":14832:14843   */\n      0x00\n        /* \"#utility.yul\":14869:14872   */\n      dup2\n        /* \"#utility.yul\":14854:14872   */\n      swap1\n      pop\n        /* \"#utility.yul\":14730:14878   */\n      swap3\n      swap2\n      pop\n      pop\n      jump\t// out\n        /* \"#utility.yul\":14908:15238   */\n    tag_136:\n        /* \"#utility.yul\":15024:15027   */\n      0x00\n        /* \"#utility.yul\":15045:15134   */\n      tag_281\n        /* \"#utility.yul\":15127:15133   */\n      dup4\n        /* \"#utility.yul\":15122:15125   */\n      dup6\n        /* \"#utility.yul\":15045:15134   */\n      tag_135\n      jump\t// in\n    tag_281:\n        /* \"#utility.yul\":15038:15134   */\n      swap4\n      pop\n        /* \"#utility.yul\":15144:15200   */\n      tag_282\n        /* \"#utility.yul\":15193:15199   */\n      dup4\n        /* \"#utility.yul\":15188:15191   */\n      dup6\n        /* \"#utility.yul\":15181:15186   */\n      dup5\n        /* \"#utility.yul\":15144:15200   */\n      tag_125\n      jump\t// in\n    tag_282:\n        /* \"#utility.yul\":15225:15231   */\n      dup3\n        /* \"#utility.yul\":15220:15223   */\n      dup5\n        /* \"#utility.yul\":15216:15232   */\n      add\n        /* \"#utility.yul\":15209:15232   */\n      swap1\n      pop\n        /* \"#utility.yul\":14908:15238   */\n      swap4\n      swap3\n      pop\n      pop\n      pop\n      jump\t// out\n        /* \"#utility.yul\":15244:15539   */\n    tag_77:\n        /* \"#utility.yul\":15386:15389   */\n      0x00\n        /* \"#utility.yul\":15408:15513   */\n      tag_284\n        /* \"#utility.yul\":15509:15512   */\n      dup3\n        /* \"#utility.yul\":15500:15506   */\n      dup5\n        /* \"#utility.yul\":15492:15498   */\n      dup7\n        /* \"#utility.yul\":15408:15513   */\n      tag_136\n      jump\t// in\n    tag_284:\n        /* \"#utility.yul\":15401:15513   */\n      swap2\n      pop\n        /* \"#utility.yul\":15530:15533   */\n      dup2\n        /* \"#utility.yul\":15523:15533   */\n      swap1\n      pop\n        /* \"#utility.yul\":15244:15539   */\n      swap4\n      swap3\n      pop\n      pop\n      pop\n      jump\t// out\n        /* \"#utility.yul\":15545:15931   */\n    tag_137:\n        /* \"#utility.yul\":15649:15652   */\n      0x00\n        /* \"#utility.yul\":15677:15715   */\n      tag_286\n        /* \"#utility.yul\":15709:15714   */\n      dup3\n        /* \"#utility.yul\":15677:15715   */\n      tag_112\n      jump\t// in\n    tag_286:\n        /* \"#utility.yul\":15731:15819   */\n      tag_287\n        /* \"#utility.yul\":15812:15818   */\n      dup2\n        /* \"#utility.yul\":15807:15810   */\n      dup6\n        /* \"#utility.yul\":15731:15819   */\n      tag_130\n      jump\t// in\n    tag_287:\n        /* \"#utility.yul\":15724:15819   */\n      swap4\n      pop\n        /* \"#utility.yul\":15828:15893   */\n      tag_288\n        /* \"#utility.yul\":15886:15892   */\n      dup2\n        /* \"#utility.yul\":15881:15884   */\n      dup6\n        /* \"#utility.yul\":15874:15878   */\n      0x20\n        /* \"#utility.yul\":15867:15872   */\n      dup7\n        /* \"#utility.yul\":15863:15879   */\n      add\n        /* \"#utility.yul\":15828:15893   */\n      tag_114\n      jump\t// in\n    tag_288:\n        /* \"#utility.yul\":15918:15924   */\n      dup1\n        /* \"#utility.yul\":15913:15916   */\n      dup5\n        /* \"#utility.yul\":15909:15925   */\n      add\n        /* \"#utility.yul\":15902:15925   */\n      swap2\n      pop\n        /* \"#utility.yul\":15653:15931   */\n      pop\n        /* \"#utility.yul\":15545:15931   */\n      swap3\n      swap2\n      pop\n      pop\n      jump\t// out\n        /* \"#utility.yul\":15937:16208   */\n    tag_80:\n        /* \"#utility.yul\":16067:16070   */\n      0x00\n        /* \"#utility.yul\":16089:16182   */\n      tag_290\n        /* \"#utility.yul\":16178:16181   */\n      dup3\n        /* \"#utility.yul\":16169:16175   */\n      dup5\n        /* \"#utility.yul\":16089:16182   */\n      tag_137\n      jump\t// in\n    tag_290:\n        /* \"#utility.yul\":16082:16182   */\n      swap2\n      pop\n        /* \"#utility.yul\":16199:16202   */\n      dup2\n        /* \"#utility.yul\":16192:16202   */\n      swap1\n      pop\n        /* \"#utility.yul\":15937:16208   */\n      swap3\n      swap2\n      pop\n      pop\n      jump\t// out\n        /* \"#utility.yul\":16214:16375   */\n    tag_138:\n        /* \"#utility.yul\":16354:16367   */\n      0x63616c6c206661696c6564000000000000000000000000000000000000000000\n        /* \"#utility.yul\":16350:16351   */\n      0x00\n        /* \"#utility.yul\":16342:16348   */\n      dup3\n        /* \"#utility.yul\":16338:16352   */\n      add\n        /* \"#utility.yul\":16331:16368   */\n      mstore\n        /* \"#utility.yul\":16214:16375   */\n      pop\n      jump\t// out\n        /* \"#utility.yul\":16381:16747   */\n    tag_139:\n        /* \"#utility.yul\":16523:16526   */\n      0x00\n        /* \"#utility.yul\":16544:16611   */\n      tag_293\n        /* \"#utility.yul\":16608:16610   */\n      0x0b\n        /* \"#utility.yul\":16603:16606   */\n      dup4\n        /* \"#utility.yul\":16544:16611   */\n      tag_117\n      jump\t// in\n    tag_293:\n        /* \"#utility.yul\":16537:16611   */\n      swap2\n      pop\n        /* \"#utility.yul\":16620:16713   */\n      tag_294\n        /* \"#utility.yul\":16709:16712   */\n      dup3\n        /* \"#utility.yul\":16620:16713   */\n      tag_138\n      jump\t// in\n    tag_294:\n        /* \"#utility.yul\":16738:16740   */\n      0x20\n        /* \"#utility.yul\":16733:16736   */\n      dup3\n        /* \"#utility.yul\":16729:16741   */\n      add\n        /* \"#utility.yul\":16722:16741   */\n      swap1\n      pop\n        /* \"#utility.yul\":16381:16747   */\n      swap2\n      swap1\n      pop\n      jump\t// out\n        /* \"#utility.yul\":16753:17172   */\n    tag_86:\n        /* \"#utility.yul\":16919:16923   */\n      0x00\n        /* \"#utility.yul\":16957:16959   */\n      0x20\n        /* \"#utility.yul\":16946:16955   */\n      dup3\n        /* \"#utility.yul\":16942:16960   */\n      add\n        /* \"#utility.yul\":16934:16960   */\n      swap1\n      pop\n        /* \"#utility.yul\":17006:17015   */\n      dup2\n        /* \"#utility.yul\":17000:17004   */\n      dup2\n        /* \"#utility.yul\":16996:17016   */\n      sub\n        /* \"#utility.yul\":16992:16993   */\n      0x00\n        /* \"#utility.yul\":16981:16990   */\n      dup4\n        /* \"#utility.yul\":16977:16994   */\n      add\n        /* \"#utility.yul\":16970:17017   */\n      mstore\n        /* \"#utility.yul\":17034:17165   */\n      tag_296\n        /* \"#utility.yul\":17160:17164   */\n      dup2\n        /* \"#utility.yul\":17034:17165   */\n      tag_139\n      jump\t// in\n    tag_296:\n        /* \"#utility.yul\":17026:17165   */\n      swap1\n      pop\n        /* \"#utility.yul\":16753:17172   */\n      swap2\n      swap1\n      pop\n      jump\t// out\n        /* \"#utility.yul\":17178:17296   */\n    tag_140:\n        /* \"#utility.yul\":17265:17289   */\n      tag_298\n        /* \"#utility.yul\":17283:17288   */\n      dup2\n        /* \"#utility.yul\":17265:17289   */\n      tag_102\n      jump\t// in\n    tag_298:\n        /* \"#utility.yul\":17260:17263   */\n      dup3\n        /* \"#utility.yul\":17253:17290   */\n      mstore\n        /* \"#utility.yul\":17178:17296   */\n      pop\n      pop\n      jump\t// out\n        /* \"#utility.yul\":17302:18184   */\n    tag_90:\n        /* \"#utility.yul\":17565:17569   */\n      0x00\n        /* \"#utility.yul\":17603:17606   */\n      0xa0\n        /* \"#utility.yul\":17592:17601   */\n      dup3\n        /* \"#utility.yul\":17588:17607   */\n      add\n        /* \"#utility.yul\":17580:17607   */\n      swap1\n      pop\n        /* \"#utility.yul\":17617:17688   */\n      tag_300\n        /* \"#utility.yul\":17685:17686   */\n      0x00\n        /* \"#utility.yul\":17674:17683   */\n      dup4\n        /* \"#utility.yul\":17670:17687   */\n      add\n        /* \"#utility.yul\":17661:17667   */\n      dup11\n        /* \"#utility.yul\":17617:17688   */\n      tag_140\n      jump\t// in\n    tag_300:\n        /* \"#utility.yul\":17698:17770   */\n      tag_301\n        /* \"#utility.yul\":17766:17768   */\n      0x20\n        /* \"#utility.yul\":17755:17764   */\n      dup4\n        /* \"#utility.yul\":17751:17769   */\n      add\n        /* \"#utility.yul\":17742:17748   */\n      dup10\n        /* \"#utility.yul\":17698:17770   */\n      tag_100\n      jump\t// in\n    tag_301:\n        /* \"#utility.yul\":17817:17826   */\n      dup2\n        /* \"#utility.yul\":17811:17815   */\n      dup2\n        /* \"#utility.yul\":17807:17827   */\n      sub\n        /* \"#utility.yul\":17802:17804   */\n      0x40\n        /* \"#utility.yul\":17791:17800   */\n      dup4\n        /* \"#utility.yul\":17787:17805   */\n      add\n        /* \"#utility.yul\":17780:17828   */\n      mstore\n        /* \"#utility.yul\":17845:17933   */\n      tag_302\n        /* \"#utility.yul\":17928:17932   */\n      dup2\n        /* \"#utility.yul\":17919:17925   */\n      dup8\n        /* \"#utility.yul\":17911:17917   */\n      dup10\n        /* \"#utility.yul\":17845:17933   */\n      tag_126\n      jump\t// in\n    tag_302:\n        /* \"#utility.yul\":17837:17933   */\n      swap1\n      pop\n        /* \"#utility.yul\":17980:17989   */\n      dup2\n        /* \"#utility.yul\":17974:17978   */\n      dup2\n        /* \"#utility.yul\":17970:17990   */\n      sub\n        /* \"#utility.yul\":17965:17967   */\n      0x60\n        /* \"#utility.yul\":17954:17963   */\n      dup4\n        /* \"#utility.yul\":17950:17968   */\n      add\n        /* \"#utility.yul\":17943:17991   */\n      mstore\n        /* \"#utility.yul\":18008:18094   */\n      tag_303\n        /* \"#utility.yul\":18089:18093   */\n      dup2\n        /* \"#utility.yul\":18080:18086   */\n      dup6\n        /* \"#utility.yul\":18072:18078   */\n      dup8\n        /* \"#utility.yul\":18008:18094   */\n      tag_127\n      jump\t// in\n    tag_303:\n        /* \"#utility.yul\":18000:18094   */\n      swap1\n      pop\n        /* \"#utility.yul\":18104:18177   */\n      tag_304\n        /* \"#utility.yul\":18172:18175   */\n      0x80\n        /* \"#utility.yul\":18161:18170   */\n      dup4\n        /* \"#utility.yul\":18157:18176   */\n      add\n        /* \"#utility.yul\":18148:18154   */\n      dup5\n        /* \"#utility.yul\":18104:18177   */\n      tag_100\n      jump\t// in\n    tag_304:\n        /* \"#utility.yul\":17302:18184   */\n      swap9\n      swap8\n      pop\n      pop\n      pop\n      pop\n      pop\n      pop\n      pop\n      pop\n      jump\t// out\n\n    auxdata: 0xa2646970667358221220cf4a23cd013cb7246ca6977625075d7b1aa04a06eeabd679c55a0c1e4dc94bc864736f6c634300081a0033\n}\n",
				"bytecode": {
					"linkReferences": {},
					"object": "6080604052348015600e575f80fd5b50335f806101000a81548173ffffffffffffffffffffffffffffffffffffffff021916908373ffffffffffffffffffffffffffffffffffffffff1602179055506110e38061005b5f395ff3fe608060405234801561000f575f80fd5b5060043610610060575f3560e01c8063228250c9146100645780634125ff90146100945780634b9915a5146100b25780634cdbfad6146100ce5780639f81aed7146100ea578063b0f8b14214610108575b5f80fd5b61007e60048036038101906100799190610890565b610138565b60405161008b91906108d5565b60405180910390f35b61009c610155565b6040516100a99190610906565b60405180910390f35b6100cc60048036038101906100c79190610a59565b61015b565b005b6100e860048036038101906100e39190610a59565b61034b565b005b6100f26104a6565b6040516100ff9190610906565b60405180910390f35b610122600480360381019061011d9190610a59565b6104ab565b60405161012f9190610b80565b60405180910390f35b6001602052805f5260405f205f915054906101000a900460ff1681565b6103e881565b5f8054906101000a900473ffffffffffffffffffffffffffffffffffffffff1673ffffffffffffffffffffffffffffffffffffffff163373ffffffffffffffffffffffffffffffffffffffff16146101e8576040517f08c379a00000000000000000000000000000000000000000000000000000000081526004016101df90610bfa565b60405180910390fd5b5f6101f888888888888888610814565b905060015f8281526020019081526020015f205f9054906101000a900460ff1615610258576040517f08c379a000000000000000000000000000000000000000000000000000000000815260040161024f90610c62565b60405180910390fd5b600a426102659190610cad565b821015801561028157506103e84261027d9190610cad565b8211155b6102c0576040517f08c379a00000000000000000000000000000000000000000000000000000000081526004016102b790610d2a565b60405180910390fd5b6001805f8381526020019081526020015f205f6101000a81548160ff0219169083151502179055508773ffffffffffffffffffffffffffffffffffffffff16817f3c22f47140594040d205a5533cfedd86c9ab8622c39ead03affb2d97052c794c89898989898960405161033996959493929190610dae565b60405180910390a35050505050505050565b5f8054906101000a900473ffffffffffffffffffffffffffffffffffffffff1673ffffffffffffffffffffffffffffffffffffffff163373ffffffffffffffffffffffffffffffffffffffff16146103d8576040517f08c379a00000000000000000000000000000000000000000000000000000000081526004016103cf90610bfa565b60405180910390fd5b5f6103e888888888888888610814565b905060015f8281526020019081526020015f205f9054906101000a900460ff16610447576040517f08c379a000000000000000000000000000000000000000000000000000000000815260040161043e90610e4d565b60405180910390fd5b5f60015f8381526020019081526020015f205f6101000a81548160ff021916908315150217905550807fe8d9861dbc9c663ed3accd261bbe2fe01e0d3d9e5f51fa38523b265c7757a93a60405160405180910390a25050505050505050565b600a81565b60605f8054906101000a900473ffffffffffffffffffffffffffffffffffffffff1673ffffffffffffffffffffffffffffffffffffffff163373ffffffffffffffffffffffffffffffffffffffff161461053a576040517f08c379a000000000000000000000000000000000000000000000000000000000815260040161053190610bfa565b60405180910390fd5b5f61054a89898989898989610814565b905060015f8281526020019081526020015f205f9054906101000a900460ff166105a9576040517f08c379a00000000000000000000000000000000000000000000000000000000081526004016105a090610e4d565b60405180910390fd5b4283106105b4575f80fd5b5f60015f8381526020019081526020015f205f6101000a81548160ff02191690831515021790555060605f8888905011156106b65787876040516105f9929190610e99565b6040518091039020868660405160200161061593929190610efc565b60405160208183030381529060405290508787878760405160240161063b929190610f25565b604051602081830303815290604052919060405161065a929190610f75565b60405180910390207bffffffffffffffffffffffffffffffffffffffffffffffffffffffff19166020820180517bffffffffffffffffffffffffffffffffffffffffffffffffffffffff838183161783525050505090506106fd565b85858080601f0160208091040260200160405190810160405280939291908181526020018383808284375f81840152601f19601f8201169050808301925050505050505090505b5f808b73ffffffffffffffffffffffffffffffffffffffff168b846040516107259190610fbd565b5f6040518083038185875af1925050503d805f811461075f576040519150601f19603f3d011682016040523d82523d5f602084013e610764565b606091505b5091509150816107a9576040517f08c379a00000000000000000000000000000000000000000000000000000000081526004016107a09061101d565b60405180910390fd5b8b73ffffffffffffffffffffffffffffffffffffffff16847fd1d5c3c892c18716bd88852091d1b63dc6849e9d7c37f69d566884bf954d4bd98d8d8d8d8d8d6040516107fa96959493929190610dae565b60405180910390a380945050505050979650505050505050565b5f87878787878787604051602001610832979695949392919061104a565b604051602081830303815290604052805190602001209050979650505050505050565b5f80fd5b5f80fd5b5f819050919050565b61086f8161085d565b8114610879575f80fd5b50565b5f8135905061088a81610866565b92915050565b5f602082840312156108a5576108a4610855565b5b5f6108b28482850161087c565b91505092915050565b5f8115159050919050565b6108cf816108bb565b82525050565b5f6020820190506108e85f8301846108c6565b92915050565b5f819050919050565b610900816108ee565b82525050565b5f6020820190506109195f8301846108f7565b92915050565b5f73ffffffffffffffffffffffffffffffffffffffff82169050919050565b5f6109488261091f565b9050919050565b6109588161093e565b8114610962575f80fd5b50565b5f813590506109738161094f565b92915050565b610982816108ee565b811461098c575f80fd5b50565b5f8135905061099d81610979565b92915050565b5f80fd5b5f80fd5b5f80fd5b5f8083601f8401126109c4576109c36109a3565b5b8235905067ffffffffffffffff8111156109e1576109e06109a7565b5b6020830191508360018202830111156109fd576109fc6109ab565b5b9250929050565b5f8083601f840112610a1957610a186109a3565b5b8235905067ffffffffffffffff811115610a3657610a356109a7565b5b602083019150836001820283011115610a5257610a516109ab565b5b9250929050565b5f805f805f805f60a0888a031215610a7457610a73610855565b5b5f610a818a828b01610965565b9750506020610a928a828b0161098f565b965050604088013567ffffffffffffffff811115610ab357610ab2610859565b5b610abf8a828b016109af565b9550955050606088013567ffffffffffffffff811115610ae257610ae1610859565b5b610aee8a828b01610a04565b93509350506080610b018a828b0161098f565b91505092959891949750929550565b5f81519050919050565b5f82825260208201905092915050565b8281835e5f83830152505050565b5f601f19601f8301169050919050565b5f610b5282610b10565b610b5c8185610b1a565b9350610b6c818560208601610b2a565b610b7581610b38565b840191505092915050565b5f6020820190508181035f830152610b988184610b48565b905092915050565b5f82825260208201905092915050565b7f6e6f74206f776e657200000000000000000000000000000000000000000000005f82015250565b5f610be4600983610ba0565b9150610bef82610bb0565b602082019050919050565b5f6020820190508181035f830152610c1181610bd8565b9050919050565b7f616c7265616479207175657565640000000000000000000000000000000000005f82015250565b5f610c4c600e83610ba0565b9150610c5782610c18565b602082019050919050565b5f6020820190508181035f830152610c7981610c40565b9050919050565b7f4e487b71000000000000000000000000000000000000000000000000000000005f52601160045260245ffd5b5f610cb7826108ee565b9150610cc2836108ee565b9250828201905080821115610cda57610cd9610c80565b5b92915050565b7f74696d657374616d70206e6f742076616c6964000000000000000000000000005f82015250565b5f610d14601383610ba0565b9150610d1f82610ce0565b602082019050919050565b5f6020820190508181035f830152610d4181610d08565b9050919050565b828183375f83830152505050565b5f610d618385610ba0565b9350610d6e838584610d48565b610d7783610b38565b840190509392505050565b5f610d8d8385610b1a565b9350610d9a838584610d48565b610da383610b38565b840190509392505050565b5f608082019050610dc15f8301896108f7565b8181036020830152610dd4818789610d56565b90508181036040830152610de9818587610d82565b9050610df860608301846108f7565b979650505050505050565b7f6e6f7420717565756500000000000000000000000000000000000000000000005f82015250565b5f610e37600983610ba0565b9150610e4282610e03565b602082019050919050565b5f6020820190508181035f830152610e6481610e2b565b9050919050565b5f81905092915050565b5f610e808385610e6b565b9350610e8d838584610d48565b82840190509392505050565b5f610ea5828486610e75565b91508190509392505050565b5f7fffffffff0000000000000000000000000000000000000000000000000000000082169050919050565b5f819050919050565b610ef6610ef182610eb1565b610edc565b82525050565b5f610f078286610ee5565b600482019150610f18828486610e75565b9150819050949350505050565b5f6020820190508181035f830152610f3e818486610d82565b90509392505050565b5f81905092915050565b5f610f5c8385610f47565b9350610f69838584610d48565b82840190509392505050565b5f610f81828486610f51565b91508190509392505050565b5f610f9782610b10565b610fa18185610e6b565b9350610fb1818560208601610b2a565b80840191505092915050565b5f610fc88284610f8d565b915081905092915050565b7f63616c6c206661696c65640000000000000000000000000000000000000000005f82015250565b5f611007600b83610ba0565b915061101282610fd3565b602082019050919050565b5f6020820190508181035f83015261103481610ffb565b9050919050565b6110448161093e565b82525050565b5f60a08201905061105d5f83018a61103b565b61106a60208301896108f7565b818103604083015261107d818789610d56565b90508181036060830152611092818587610d82565b90506110a160808301846108f7565b9897505050505050505056fea2646970667358221220cf4a23cd013cb7246ca6977625075d7b1aa04a06eeabd679c55a0c1e4dc94bc864736f6c634300081a0033",
					"opcodes": "PUSH1 0x80 PUSH1 0x40 MSTORE CALLVALUE DUP1 ISZERO PUSH1 0xE JUMPI PUSH0 DUP1 REVERT JUMPDEST POP CALLER PUSH0 DUP1 PUSH2 0x100 EXP DUP2 SLOAD DUP2 PUSH20 0xFFFFFFFFFFFFFFFFFFFFFFFFFFFFFFFFFFFFFFFF MUL NOT AND SWAP1 DUP4 PUSH20 0xFFFFFFFFFFFFFFFFFFFFFFFFFFFFFFFFFFFFFFFF AND MUL OR SWAP1 SSTORE POP PUSH2 0x10E3 DUP1 PUSH2 0x5B PUSH0 CODECOPY PUSH0 RETURN INVALID PUSH1 0x80 PUSH1 0x40 MSTORE CALLVALUE DUP1 ISZERO PUSH2 0xF JUMPI PUSH0 DUP1 REVERT JUMPDEST POP PUSH1 0x4 CALLDATASIZE LT PUSH2 0x60 JUMPI PUSH0 CALLDATALOAD PUSH1 0xE0 SHR DUP1 PUSH4 0x228250C9 EQ PUSH2 0x64 JUMPI DUP1 PUSH4 0x4125FF90 EQ PUSH2 0x94 JUMPI DUP1 PUSH4 0x4B9915A5 EQ PUSH2 0xB2 JUMPI DUP1 PUSH4 0x4CDBFAD6 EQ PUSH2 0xCE JUMPI DUP1 PUSH4 0x9F81AED7 EQ PUSH2 0xEA JUMPI DUP1 PUSH4 0xB0F8B142 EQ PUSH2 0x108 JUMPI JUMPDEST PUSH0 DUP1 REVERT JUMPDEST PUSH2 0x7E PUSH1 0x4 DUP1 CALLDATASIZE SUB DUP2 ADD SWAP1 PUSH2 0x79 SWAP2 SWAP1 PUSH2 0x890 JUMP JUMPDEST PUSH2 0x138 JUMP JUMPDEST PUSH1 0x40 MLOAD PUSH2 0x8B SWAP2 SWAP1 PUSH2 0x8D5 JUMP JUMPDEST PUSH1 0x40 MLOAD DUP1 SWAP2 SUB SWAP1 RETURN JUMPDEST PUSH2 0x9C PUSH2 0x155 JUMP JUMPDEST PUSH1 0x40 MLOAD PUSH2 0xA9 SWAP2 SWAP1 PUSH2 0x906 JUMP JUMPDEST PUSH1 0x40 MLOAD DUP1 SWAP2 SUB SWAP1 RETURN JUMPDEST PUSH2 0xCC PUSH1 0x4 DUP1 CALLDATASIZE SUB DUP2 ADD SWAP1 PUSH2 0xC7 SWAP2 SWAP1 PUSH2 0xA59 JUMP JUMPDEST PUSH2 0x15B JUMP JUMPDEST STOP JUMPDEST PUSH2 0xE8 PUSH1 0x4 DUP1 CALLDATASIZE SUB DUP2 ADD SWAP1 PUSH2 0xE3 SWAP2 SWAP1 PUSH2 0xA59 JUMP JUMPDEST PUSH2 0x34B JUMP JUMPDEST STOP JUMPDEST PUSH2 0xF2 PUSH2 0x4A6 JUMP JUMPDEST PUSH1 0x40 MLOAD PUSH2 0xFF SWAP2 SWAP1 PUSH2 0x906 JUMP JUMPDEST PUSH1 0x40 MLOAD DUP1 SWAP2 SUB SWAP1 RETURN JUMPDEST PUSH2 0x122 PUSH1 0x4 DUP1 CALLDATASIZE SUB DUP2 ADD SWAP1 PUSH2 0x11D SWAP2 SWAP1 PUSH2 0xA59 JUMP JUMPDEST PUSH2 0x4AB JUMP JUMPDEST PUSH1 0x40 MLOAD PUSH2 0x12F SWAP2 SWAP1 PUSH2 0xB80 JUMP JUMPDEST PUSH1 0x40 MLOAD DUP1 SWAP2 SUB SWAP1 RETURN JUMPDEST PUSH1 0x1 PUSH1 0x20 MSTORE DUP1 PUSH0 MSTORE PUSH1 0x40 PUSH0 KECCAK256 PUSH0 SWAP2 POP SLOAD SWAP1 PUSH2 0x100 EXP SWAP1 DIV PUSH1 0xFF AND DUP2 JUMP JUMPDEST PUSH2 0x3E8 DUP2 JUMP JUMPDEST PUSH0 DUP1 SLOAD SWAP1 PUSH2 0x100 EXP SWAP1 DIV PUSH20 0xFFFFFFFFFFFFFFFFFFFFFFFFFFFFFFFFFFFFFFFF AND PUSH20 0xFFFFFFFFFFFFFFFFFFFFFFFFFFFFFFFFFFFFFFFF AND CALLER PUSH20 0xFFFFFFFFFFFFFFFFFFFFFFFFFFFFFFFFFFFFFFFF AND EQ PUSH2 0x1E8 JUMPI PUSH1 0x40 MLOAD PUSH32 0x8C379A000000000000000000000000000000000000000000000000000000000 DUP2 MSTORE PUSH1 0x4 ADD PUSH2 0x1DF SWAP1 PUSH2 0xBFA JUMP JUMPDEST PUSH1 0x40 MLOAD DUP1 SWAP2 SUB SWAP1 REVERT JUMPDEST PUSH0 PUSH2 0x1F8 DUP9 DUP9 DUP9 DUP9 DUP9 DUP9 DUP9 PUSH2 0x814 JUMP JUMPDEST SWAP1 POP PUSH1 0x1 PUSH0 DUP3 DUP2 MSTORE PUSH1 0x20 ADD SWAP1 DUP2 MSTORE PUSH1 0x20 ADD PUSH0 KECCAK256 PUSH0 SWAP1 SLOAD SWAP1 PUSH2 0x100 EXP SWAP1 DIV PUSH1 0xFF AND ISZERO PUSH2 0x258 JUMPI PUSH1 0x40 MLOAD PUSH32 0x8C379A000000000000000000000000000000000000000000000000000000000 DUP2 MSTORE PUSH1 0x4 ADD PUSH2 0x24F SWAP1 PUSH2 0xC62 JUMP JUMPDEST PUSH1 0x40 MLOAD DUP1 SWAP2 SUB SWAP1 REVERT JUMPDEST PUSH1 0xA TIMESTAMP PUSH2 0x265 SWAP2 SWAP1 PUSH2 0xCAD JUMP JUMPDEST DUP3 LT ISZERO DUP1 ISZERO PUSH2 0x281 JUMPI POP PUSH2 0x3E8 TIMESTAMP PUSH2 0x27D SWAP2 SWAP1 PUSH2 0xCAD JUMP JUMPDEST DUP3 GT ISZERO JUMPDEST PUSH2 0x2C0 JUMPI PUSH1 0x40 MLOAD PUSH32 0x8C379A000000000000000000000000000000000000000000000000000000000 DUP2 MSTORE PUSH1 0x4 ADD PUSH2 0x2B7 SWAP1 PUSH2 0xD2A JUMP JUMPDEST PUSH1 0x40 MLOAD DUP1 SWAP2 SUB SWAP1 REVERT JUMPDEST PUSH1 0x1 DUP1 PUSH0 DUP4 DUP2 MSTORE PUSH1 0x20 ADD SWAP1 DUP2 MSTORE PUSH1 0x20 ADD PUSH0 KECCAK256 PUSH0 PUSH2 0x100 EXP DUP2 SLOAD DUP2 PUSH1 0xFF MUL NOT AND SWAP1 DUP4 ISZERO ISZERO MUL OR SWAP1 SSTORE POP DUP8 PUSH20 0xFFFFFFFFFFFFFFFFFFFFFFFFFFFFFFFFFFFFFFFF AND DUP2 PUSH32 0x3C22F47140594040D205A5533CFEDD86C9AB8622C39EAD03AFFB2D97052C794C DUP10 DUP10 DUP10 DUP10 DUP10 DUP10 PUSH1 0x40 MLOAD PUSH2 0x339 SWAP7 SWAP6 SWAP5 SWAP4 SWAP3 SWAP2 SWAP1 PUSH2 0xDAE JUMP JUMPDEST PUSH1 0x40 MLOAD DUP1 SWAP2 SUB SWAP1 LOG3 POP POP POP POP POP POP POP POP JUMP JUMPDEST PUSH0 DUP1 SLOAD SWAP1 PUSH2 0x100 EXP SWAP1 DIV PUSH20 0xFFFFFFFFFFFFFFFFFFFFFFFFFFFFFFFFFFFFFFFF AND PUSH20 0xFFFFFFFFFFFFFFFFFFFFFFFFFFFFFFFFFFFFFFFF AND CALLER PUSH20 0xFFFFFFFFFFFFFFFFFFFFFFFFFFFFFFFFFFFFFFFF AND EQ PUSH2 0x3D8 JUMPI PUSH1 0x40 MLOAD PUSH32 0x8C379A000000000000000000000000000000000000000000000000000000000 DUP2 MSTORE PUSH1 0x4 ADD PUSH2 0x3CF SWAP1 PUSH2 0xBFA JUMP JUMPDEST PUSH1 0x40 MLOAD DUP1 SWAP2 SUB SWAP1 REVERT JUMPDEST PUSH0 PUSH2 0x3E8 DUP9 DUP9 DUP9 DUP9 DUP9 DUP9 DUP9 PUSH2 0x814 JUMP JUMPDEST SWAP1 POP PUSH1 0x1 PUSH0 DUP3 DUP2 MSTORE PUSH1 0x20 ADD SWAP1 DUP2 MSTORE PUSH1 0x20 ADD PUSH0 KECCAK256 PUSH0 SWAP1 SLOAD SWAP1 PUSH2 0x100 EXP SWAP1 DIV PUSH1 0xFF AND PUSH2 0x447 JUMPI PUSH1 0x40 MLOAD PUSH32 0x8C379A000000000000000000000000000000000000000000000000000000000 DUP2 MSTORE PUSH1 0x4 ADD PUSH2 0x43E SWAP1 PUSH2 0xE4D JUMP JUMPDEST PUSH1 0x40 MLOAD DUP1 SWAP2 SUB SWAP1 REVERT JUMPDEST PUSH0 PUSH1 0x1 PUSH0 DUP4 DUP2 MSTORE PUSH1 0x20 ADD SWAP1 DUP2 MSTORE PUSH1 0x20 ADD PUSH0 KECCAK256 PUSH0 PUSH2 0x100 EXP DUP2 SLOAD DUP2 PUSH1 0xFF MUL NOT AND SWAP1 DUP4 ISZERO ISZERO MUL OR SWAP1 SSTORE POP DUP1 PUSH32 0xE8D9861DBC9C663ED3ACCD261BBE2FE01E0D3D9E5F51FA38523B265C7757A93A PUSH1 0x40 MLOAD PUSH1 0x40 MLOAD DUP1 SWAP2 SUB SWAP1 LOG2 POP POP POP POP POP POP POP POP JUMP JUMPDEST PUSH1 0xA DUP2 JUMP JUMPDEST PUSH1 0x60 PUSH0 DUP1 SLOAD SWAP1 PUSH2 0x100 EXP SWAP1 DIV PUSH20 0xFFFFFFFFFFFFFFFFFFFFFFFFFFFFFFFFFFFFFFFF AND PUSH20 0xFFFFFFFFFFFFFFFFFFFFFFFFFFFFFFFFFFFFFFFF AND CALLER PUSH20 0xFFFFFFFFFFFFFFFFFFFFFFFFFFFFFFFFFFFFFFFF AND EQ PUSH2 0x53A JUMPI PUSH1 0x40 MLOAD PUSH32 0x8C379A000000000000000000000000000000000000000000000000000000000 DUP2 MSTORE PUSH1 0x4 ADD PUSH2 0x531 SWAP1 PUSH2 0xBFA JUMP JUMPDEST PUSH1 0x40 MLOAD DUP1 SWAP2 SUB SWAP1 REVERT JUMPDEST PUSH0 PUSH2 0x54A DUP10 DUP10 DUP10 DUP10 DUP10 DUP10 DUP10 PUSH2 0x814 JUMP JUMPDEST SWAP1 POP PUSH1 0x1 PUSH0 DUP3 DUP2 MSTORE PUSH1 0x20 ADD SWAP1 DUP2 MSTORE PUSH1 0x20 ADD PUSH0 KECCAK256 PUSH0 SWAP1 SLOAD SWAP1 PUSH2 0x100 EXP SWAP1 DIV PUSH1 0xFF AND PUSH2 0x5A9 JUMPI PUSH1 0x40 MLOAD PUSH32 0x8C379A000000000000000000000000000000000000000000000000000000000 DUP2 MSTORE PUSH1 0x4 ADD PUSH2 0x5A0 SWAP1 PUSH2 0xE4D JUMP JUMPDEST PUSH1 0x40 MLOAD DUP1 SWAP2 SUB SWAP1 REVERT JUMPDEST TIMESTAMP DUP4 LT PUSH2 0x5B4 JUMPI PUSH0 DUP1 REVERT JUMPDEST PUSH0 PUSH1 0x1 PUSH0 DUP4 DUP2 MSTORE PUSH1 0x20 ADD SWAP1 DUP2 MSTORE PUSH1 0x20 ADD PUSH0 KECCAK256 PUSH0 PUSH2 0x100 EXP DUP2 SLOAD DUP2 PUSH1 0xFF MUL NOT AND SWAP1 DUP4 ISZERO ISZERO MUL OR SWAP1 SSTORE POP PUSH1 0x60 PUSH0 DUP9 DUP9 SWAP1 POP GT ISZERO PUSH2 0x6B6 JUMPI DUP8 DUP8 PUSH1 0x40 MLOAD PUSH2 0x5F9 SWAP3 SWAP2 SWAP1 PUSH2 0xE99 JUMP JUMPDEST PUSH1 0x40 MLOAD DUP1 SWAP2 SUB SWAP1 KECCAK256 DUP7 DUP7 PUSH1 0x40 MLOAD PUSH1 0x20 ADD PUSH2 0x615 SWAP4 SWAP3 SWAP2 SWAP1 PUSH2 0xEFC JUMP JUMPDEST PUSH1 0x40 MLOAD PUSH1 0x20 DUP2 DUP4 SUB SUB DUP2 MSTORE SWAP1 PUSH1 0x40 MSTORE SWAP1 POP DUP8 DUP8 DUP8 DUP8 PUSH1 0x40 MLOAD PUSH1 0x24 ADD PUSH2 0x63B SWAP3 SWAP2 SWAP1 PUSH2 0xF25 JUMP JUMPDEST PUSH1 0x40 MLOAD PUSH1 0x20 DUP2 DUP4 SUB SUB DUP2 MSTORE SWAP1 PUSH1 0x40 MSTORE SWAP2 SWAP1 PUSH1 0x40 MLOAD PUSH2 0x65A SWAP3 SWAP2 SWAP1 PUSH2 0xF75 JUMP JUMPDEST PUSH1 0x40 MLOAD DUP1 SWAP2 SUB SWAP1 KECCAK256 PUSH28 0xFFFFFFFFFFFFFFFFFFFFFFFFFFFFFFFFFFFFFFFFFFFFFFFFFFFFFFFF NOT AND PUSH1 0x20 DUP3 ADD DUP1 MLOAD PUSH28 0xFFFFFFFFFFFFFFFFFFFFFFFFFFFFFFFFFFFFFFFFFFFFFFFFFFFFFFFF DUP4 DUP2 DUP4 AND OR DUP4 MSTORE POP POP POP POP SWAP1 POP PUSH2 0x6FD JUMP JUMPDEST DUP6 DUP6 DUP1 DUP1 PUSH1 0x1F ADD PUSH1 0x20 DUP1 SWAP2 DIV MUL PUSH1 0x20 ADD PUSH1 0x40 MLOAD SWAP1 DUP2 ADD PUSH1 0x40 MSTORE DUP1 SWAP4 SWAP3 SWAP2 SWAP1 DUP2 DUP2 MSTORE PUSH1 0x20 ADD DUP4 DUP4 DUP1 DUP3 DUP5 CALLDATACOPY PUSH0 DUP2 DUP5 ADD MSTORE PUSH1 0x1F NOT PUSH1 0x1F DUP3 ADD AND SWAP1 POP DUP1 DUP4 ADD SWAP3 POP POP POP POP POP POP POP SWAP1 POP JUMPDEST PUSH0 DUP1 DUP12 PUSH20 0xFFFFFFFFFFFFFFFFFFFFFFFFFFFFFFFFFFFFFFFF AND DUP12 DUP5 PUSH1 0x40 MLOAD PUSH2 0x725 SWAP2 SWAP1 PUSH2 0xFBD JUMP JUMPDEST PUSH0 PUSH1 0x40 MLOAD DUP1 DUP4 SUB DUP2 DUP6 DUP8 GAS CALL SWAP3 POP POP POP RETURNDATASIZE DUP1 PUSH0 DUP2 EQ PUSH2 0x75F JUMPI PUSH1 0x40 MLOAD SWAP2 POP PUSH1 0x1F NOT PUSH1 0x3F RETURNDATASIZE ADD AND DUP3 ADD PUSH1 0x40 MSTORE RETURNDATASIZE DUP3 MSTORE RETURNDATASIZE PUSH0 PUSH1 0x20 DUP5 ADD RETURNDATACOPY PUSH2 0x764 JUMP JUMPDEST PUSH1 0x60 SWAP2 POP JUMPDEST POP SWAP2 POP SWAP2 POP DUP2 PUSH2 0x7A9 JUMPI PUSH1 0x40 MLOAD PUSH32 0x8C379A000000000000000000000000000000000000000000000000000000000 DUP2 MSTORE PUSH1 0x4 ADD PUSH2 0x7A0 SWAP1 PUSH2 0x101D JUMP JUMPDEST PUSH1 0x40 MLOAD DUP1 SWAP2 SUB SWAP1 REVERT JUMPDEST DUP12 PUSH20 0xFFFFFFFFFFFFFFFFFFFFFFFFFFFFFFFFFFFFFFFF AND DUP5 PUSH32 0xD1D5C3C892C18716BD88852091D1B63DC6849E9D7C37F69D566884BF954D4BD9 DUP14 DUP14 DUP14 DUP14 DUP14 DUP14 PUSH1 0x40 MLOAD PUSH2 0x7FA SWAP7 SWAP6 SWAP5 SWAP4 SWAP3 SWAP2 SWAP1 PUSH2 0xDAE JUMP JUMPDEST PUSH1 0x40 MLOAD DUP1 SWAP2 SUB SWAP1 LOG3 DUP1 SWAP5 POP POP POP POP POP SWAP8 SWAP7 POP POP POP POP POP POP POP JUMP JUMPDEST PUSH0 DUP8 DUP8 DUP8 DUP8 DUP8 DUP8 DUP8 PUSH1 0x40 MLOAD PUSH1 0x20 ADD PUSH2 0x832 SWAP8 SWAP7 SWAP6 SWAP5 SWAP4 SWAP3 SWAP2 SWAP1 PUSH2 0x104A JUMP JUMPDEST PUSH1 0x40 MLOAD PUSH1 0x20 DUP2 DUP4 SUB SUB DUP2 MSTORE SWAP1 PUSH1 0x40 MSTORE DUP1 MLOAD SWAP1 PUSH1 0x20 ADD KECCAK256 SWAP1 POP SWAP8 SWAP7 POP POP POP POP POP POP POP JUMP JUMPDEST PUSH0 DUP1 REVERT JUMPDEST PUSH0 DUP1 REVERT JUMPDEST PUSH0 DUP2 SWAP1 POP SWAP2 SWAP1 POP JUMP JUMPDEST PUSH2 0x86F DUP2 PUSH2 0x85D JUMP JUMPDEST DUP2 EQ PUSH2 0x879 JUMPI PUSH0 DUP1 REVERT JUMPDEST POP JUMP JUMPDEST PUSH0 DUP2 CALLDATALOAD SWAP1 POP PUSH2 0x88A DUP2 PUSH2 0x866 JUMP JUMPDEST SWAP3 SWAP2 POP POP JUMP JUMPDEST PUSH0 PUSH1 0x20 DUP3 DUP5 SUB SLT ISZERO PUSH2 0x8A5 JUMPI PUSH2 0x8A4 PUSH2 0x855 JUMP JUMPDEST JUMPDEST PUSH0 PUSH2 0x8B2 DUP5 DUP3 DUP6 ADD PUSH2 0x87C JUMP JUMPDEST SWAP2 POP POP SWAP3 SWAP2 POP POP JUMP JUMPDEST PUSH0 DUP2 ISZERO ISZERO SWAP1 POP SWAP2 SWAP1 POP JUMP JUMPDEST PUSH2 0x8CF DUP2 PUSH2 0x8BB JUMP JUMPDEST DUP3 MSTORE POP POP JUMP JUMPDEST PUSH0 PUSH1 0x20 DUP3 ADD SWAP1 POP PUSH2 0x8E8 PUSH0 DUP4 ADD DUP5 PUSH2 0x8C6 JUMP JUMPDEST SWAP3 SWAP2 POP POP JUMP JUMPDEST PUSH0 DUP2 SWAP1 POP SWAP2 SWAP1 POP JUMP JUMPDEST PUSH2 0x900 DUP2 PUSH2 0x8EE JUMP JUMPDEST DUP3 MSTORE POP POP JUMP JUMPDEST PUSH0 PUSH1 0x20 DUP3 ADD SWAP1 POP PUSH2 0x919 PUSH0 DUP4 ADD DUP5 PUSH2 0x8F7 JUMP JUMPDEST SWAP3 SWAP2 POP POP JUMP JUMPDEST PUSH0 PUSH20 0xFFFFFFFFFFFFFFFFFFFFFFFFFFFFFFFFFFFFFFFF DUP3 AND SWAP1 POP SWAP2 SWAP1 POP JUMP JUMPDEST PUSH0 PUSH2 0x948 DUP3 PUSH2 0x91F JUMP JUMPDEST SWAP1 POP SWAP2 SWAP1 POP JUMP JUMPDEST PUSH2 0x958 DUP2 PUSH2 0x93E JUMP JUMPDEST DUP2 EQ PUSH2 0x962 JUMPI PUSH0 DUP1 REVERT JUMPDEST POP JUMP JUMPDEST PUSH0 DUP2 CALLDATALOAD SWAP1 POP PUSH2 0x973 DUP2 PUSH2 0x94F JUMP JUMPDEST SWAP3 SWAP2 POP POP JUMP JUMPDEST PUSH2 0x982 DUP2 PUSH2 0x8EE JUMP JUMPDEST DUP2 EQ PUSH2 0x98C JUMPI PUSH0 DUP1 REVERT JUMPDEST POP JUMP JUMPDEST PUSH0 DUP2 CALLDATALOAD SWAP1 POP PUSH2 0x99D DUP2 PUSH2 0x979 JUMP JUMPDEST SWAP3 SWAP2 POP POP JUMP JUMPDEST PUSH0 DUP1 REVERT JUMPDEST PUSH0 DUP1 REVERT JUMPDEST PUSH0 DUP1 REVERT JUMPDEST PUSH0 DUP1 DUP4 PUSH1 0x1F DUP5 ADD SLT PUSH2 0x9C4 JUMPI PUSH2 0x9C3 PUSH2 0x9A3 JUMP JUMPDEST JUMPDEST DUP3 CALLDATALOAD SWAP1 POP PUSH8 0xFFFFFFFFFFFFFFFF DUP2 GT ISZERO PUSH2 0x9E1 JUMPI PUSH2 0x9E0 PUSH2 0x9A7 JUMP JUMPDEST JUMPDEST PUSH1 0x20 DUP4 ADD SWAP2 POP DUP4 PUSH1 0x1 DUP3 MUL DUP4 ADD GT ISZERO PUSH2 0x9FD JUMPI PUSH2 0x9FC PUSH2 0x9AB JUMP JUMPDEST JUMPDEST SWAP3 POP SWAP3 SWAP1 POP JUMP JUMPDEST PUSH0 DUP1 DUP4 PUSH1 0x1F DUP5 ADD SLT PUSH2 0xA19 JUMPI PUSH2 0xA18 PUSH2 0x9A3 JUMP JUMPDEST JUMPDEST DUP3 CALLDATALOAD SWAP1 POP PUSH8 0xFFFFFFFFFFFFFFFF DUP2 GT ISZERO PUSH2 0xA36 JUMPI PUSH2 0xA35 PUSH2 0x9A7 JUMP JUMPDEST JUMPDEST PUSH1 0x20 DUP4 ADD SWAP2 POP DUP4 PUSH1 0x1 DUP3 MUL DUP4 ADD GT ISZERO PUSH2 0xA52 JUMPI PUSH2 0xA51 PUSH2 0x9AB JUMP JUMPDEST JUMPDEST SWAP3 POP SWAP3 SWAP1 POP JUMP JUMPDEST PUSH0 DUP1 PUSH0 DUP1 PUSH0 DUP1 PUSH0 PUSH1 0xA0 DUP9 DUP11 SUB SLT ISZERO PUSH2 0xA74 JUMPI PUSH2 0xA73 PUSH2 0x855 JUMP JUMPDEST JUMPDEST PUSH0 PUSH2 0xA81 DUP11 DUP3 DUP12 ADD PUSH2 0x965 JUMP JUMPDEST SWAP8 POP POP PUSH1 0x20 PUSH2 0xA92 DUP11 DUP3 DUP12 ADD PUSH2 0x98F JUMP JUMPDEST SWAP7 POP POP PUSH1 0x40 DUP9 ADD CALLDATALOAD PUSH8 0xFFFFFFFFFFFFFFFF DUP2 GT ISZERO PUSH2 0xAB3 JUMPI PUSH2 0xAB2 PUSH2 0x859 JUMP JUMPDEST JUMPDEST PUSH2 0xABF DUP11 DUP3 DUP12 ADD PUSH2 0x9AF JUMP JUMPDEST SWAP6 POP SWAP6 POP POP PUSH1 0x60 DUP9 ADD CALLDATALOAD PUSH8 0xFFFFFFFFFFFFFFFF DUP2 GT ISZERO PUSH2 0xAE2 JUMPI PUSH2 0xAE1 PUSH2 0x859 JUMP JUMPDEST JUMPDEST PUSH2 0xAEE DUP11 DUP3 DUP12 ADD PUSH2 0xA04 JUMP JUMPDEST SWAP4 POP SWAP4 POP POP PUSH1 0x80 PUSH2 0xB01 DUP11 DUP3 DUP12 ADD PUSH2 0x98F JUMP JUMPDEST SWAP2 POP POP SWAP3 SWAP6 SWAP9 SWAP2 SWAP5 SWAP8 POP SWAP3 SWAP6 POP JUMP JUMPDEST PUSH0 DUP2 MLOAD SWAP1 POP SWAP2 SWAP1 POP JUMP JUMPDEST PUSH0 DUP3 DUP3 MSTORE PUSH1 0x20 DUP3 ADD SWAP1 POP SWAP3 SWAP2 POP POP JUMP JUMPDEST DUP3 DUP2 DUP4 MCOPY PUSH0 DUP4 DUP4 ADD MSTORE POP POP POP JUMP JUMPDEST PUSH0 PUSH1 0x1F NOT PUSH1 0x1F DUP4 ADD AND SWAP1 POP SWAP2 SWAP1 POP JUMP JUMPDEST PUSH0 PUSH2 0xB52 DUP3 PUSH2 0xB10 JUMP JUMPDEST PUSH2 0xB5C DUP2 DUP6 PUSH2 0xB1A JUMP JUMPDEST SWAP4 POP PUSH2 0xB6C DUP2 DUP6 PUSH1 0x20 DUP7 ADD PUSH2 0xB2A JUMP JUMPDEST PUSH2 0xB75 DUP2 PUSH2 0xB38 JUMP JUMPDEST DUP5 ADD SWAP2 POP POP SWAP3 SWAP2 POP POP JUMP JUMPDEST PUSH0 PUSH1 0x20 DUP3 ADD SWAP1 POP DUP2 DUP2 SUB PUSH0 DUP4 ADD MSTORE PUSH2 0xB98 DUP2 DUP5 PUSH2 0xB48 JUMP JUMPDEST SWAP1 POP SWAP3 SWAP2 POP POP JUMP JUMPDEST PUSH0 DUP3 DUP3 MSTORE PUSH1 0x20 DUP3 ADD SWAP1 POP SWAP3 SWAP2 POP POP JUMP JUMPDEST PUSH32 0x6E6F74206F776E65720000000000000000000000000000000000000000000000 PUSH0 DUP3 ADD MSTORE POP JUMP JUMPDEST PUSH0 PUSH2 0xBE4 PUSH1 0x9 DUP4 PUSH2 0xBA0 JUMP JUMPDEST SWAP2 POP PUSH2 0xBEF DUP3 PUSH2 0xBB0 JUMP JUMPDEST PUSH1 0x20 DUP3 ADD SWAP1 POP SWAP2 SWAP1 POP JUMP JUMPDEST PUSH0 PUSH1 0x20 DUP3 ADD SWAP1 POP DUP2 DUP2 SUB PUSH0 DUP4 ADD MSTORE PUSH2 0xC11 DUP2 PUSH2 0xBD8 JUMP JUMPDEST SWAP1 POP SWAP2 SWAP1 POP JUMP JUMPDEST PUSH32 0x616C726561647920717565756564000000000000000000000000000000000000 PUSH0 DUP3 ADD MSTORE POP JUMP JUMPDEST PUSH0 PUSH2 0xC4C PUSH1 0xE DUP4 PUSH2 0xBA0 JUMP JUMPDEST SWAP2 POP PUSH2 0xC57 DUP3 PUSH2 0xC18 JUMP JUMPDEST PUSH1 0x20 DUP3 ADD SWAP1 POP SWAP2 SWAP1 POP JUMP JUMPDEST PUSH0 PUSH1 0x20 DUP3 ADD SWAP1 POP DUP2 DUP2 SUB PUSH0 DUP4 ADD MSTORE PUSH2 0xC79 DUP2 PUSH2 0xC40 JUMP JUMPDEST SWAP1 POP SWAP2 SWAP1 POP JUMP JUMPDEST PUSH32 0x4E487B7100000000000000000000000000000000000000000000000000000000 PUSH0 MSTORE PUSH1 0x11 PUSH1 0x4 MSTORE PUSH1 0x24 PUSH0 REVERT JUMPDEST PUSH0 PUSH2 0xCB7 DUP3 PUSH2 0x8EE JUMP JUMPDEST SWAP2 POP PUSH2 0xCC2 DUP4 PUSH2 0x8EE JUMP JUMPDEST SWAP3 POP DUP3 DUP3 ADD SWAP1 POP DUP1 DUP3 GT ISZERO PUSH2 0xCDA JUMPI PUSH2 0xCD9 PUSH2 0xC80 JUMP JUMPDEST JUMPDEST SWAP3 SWAP2 POP POP JUMP JUMPDEST PUSH32 0x74696D657374616D70206E6F742076616C696400000000000000000000000000 PUSH0 DUP3 ADD MSTORE POP JUMP JUMPDEST PUSH0 PUSH2 0xD14 PUSH1 0x13 DUP4 PUSH2 0xBA0 JUMP JUMPDEST SWAP2 POP PUSH2 0xD1F DUP3 PUSH2 0xCE0 JUMP JUMPDEST PUSH1 0x20 DUP3 ADD SWAP1 POP SWAP2 SWAP1 POP JUMP JUMPDEST PUSH0 PUSH1 0x20 DUP3 ADD SWAP1 POP DUP2 DUP2 SUB PUSH0 DUP4 ADD MSTORE PUSH2 0xD41 DUP2 PUSH2 0xD08 JUMP JUMPDEST SWAP1 POP SWAP2 SWAP1 POP JUMP JUMPDEST DUP3 DUP2 DUP4 CALLDATACOPY PUSH0 DUP4 DUP4 ADD MSTORE POP POP POP JUMP JUMPDEST PUSH0 PUSH2 0xD61 DUP4 DUP6 PUSH2 0xBA0 JUMP JUMPDEST SWAP4 POP PUSH2 0xD6E DUP4 DUP6 DUP5 PUSH2 0xD48 JUMP JUMPDEST PUSH2 0xD77 DUP4 PUSH2 0xB38 JUMP JUMPDEST DUP5 ADD SWAP1 POP SWAP4 SWAP3 POP POP POP JUMP JUMPDEST PUSH0 PUSH2 0xD8D DUP4 DUP6 PUSH2 0xB1A JUMP JUMPDEST SWAP4 POP PUSH2 0xD9A DUP4 DUP6 DUP5 PUSH2 0xD48 JUMP JUMPDEST PUSH2 0xDA3 DUP4 PUSH2 0xB38 JUMP JUMPDEST DUP5 ADD SWAP1 POP SWAP4 SWAP3 POP POP POP JUMP JUMPDEST PUSH0 PUSH1 0x80 DUP3 ADD SWAP1 POP PUSH2 0xDC1 PUSH0 DUP4 ADD DUP10 PUSH2 0x8F7 JUMP JUMPDEST DUP2 DUP2 SUB PUSH1 0x20 DUP4 ADD MSTORE PUSH2 0xDD4 DUP2 DUP8 DUP10 PUSH2 0xD56 JUMP JUMPDEST SWAP1 POP DUP2 DUP2 SUB PUSH1 0x40 DUP4 ADD MSTORE PUSH2 0xDE9 DUP2 DUP6 DUP8 PUSH2 0xD82 JUMP JUMPDEST SWAP1 POP PUSH2 0xDF8 PUSH1 0x60 DUP4 ADD DUP5 PUSH2 0x8F7 JUMP JUMPDEST SWAP8 SWAP7 POP POP POP POP POP POP POP JUMP JUMPDEST PUSH32 0x6E6F742071756575650000000000000000000000000000000000000000000000 PUSH0 DUP3 ADD MSTORE POP JUMP JUMPDEST PUSH0 PUSH2 0xE37 PUSH1 0x9 DUP4 PUSH2 0xBA0 JUMP JUMPDEST SWAP2 POP PUSH2 0xE42 DUP3 PUSH2 0xE03 JUMP JUMPDEST PUSH1 0x20 DUP3 ADD SWAP1 POP SWAP2 SWAP1 POP JUMP JUMPDEST PUSH0 PUSH1 0x20 DUP3 ADD SWAP1 POP DUP2 DUP2 SUB PUSH0 DUP4 ADD MSTORE PUSH2 0xE64 DUP2 PUSH2 0xE2B JUMP JUMPDEST SWAP1 POP SWAP2 SWAP1 POP JUMP JUMPDEST PUSH0 DUP2 SWAP1 POP SWAP3 SWAP2 POP POP JUMP JUMPDEST PUSH0 PUSH2 0xE80 DUP4 DUP6 PUSH2 0xE6B JUMP JUMPDEST SWAP4 POP PUSH2 0xE8D DUP4 DUP6 DUP5 PUSH2 0xD48 JUMP JUMPDEST DUP3 DUP5 ADD SWAP1 POP SWAP4 SWAP3 POP POP POP JUMP JUMPDEST PUSH0 PUSH2 0xEA5 DUP3 DUP5 DUP7 PUSH2 0xE75 JUMP JUMPDEST SWAP2 POP DUP2 SWAP1 POP SWAP4 SWAP3 POP POP POP JUMP JUMPDEST PUSH0 PUSH32 0xFFFFFFFF00000000000000000000000000000000000000000000000000000000 DUP3 AND SWAP1 POP SWAP2 SWAP1 POP JUMP JUMPDEST PUSH0 DUP2 SWAP1 POP SWAP2 SWAP1 POP JUMP JUMPDEST PUSH2 0xEF6 PUSH2 0xEF1 DUP3 PUSH2 0xEB1 JUMP JUMPDEST PUSH2 0xEDC JUMP JUMPDEST DUP3 MSTORE POP POP JUMP JUMPDEST PUSH0 PUSH2 0xF07 DUP3 DUP7 PUSH2 0xEE5 JUMP JUMPDEST PUSH1 0x4 DUP3 ADD SWAP2 POP PUSH2 0xF18 DUP3 DUP5 DUP7 PUSH2 0xE75 JUMP JUMPDEST SWAP2 POP DUP2 SWAP1 POP SWAP5 SWAP4 POP POP POP POP JUMP JUMPDEST PUSH0 PUSH1 0x20 DUP3 ADD SWAP1 POP DUP2 DUP2 SUB PUSH0 DUP4 ADD MSTORE PUSH2 0xF3E DUP2 DUP5 DUP7 PUSH2 0xD82 JUMP JUMPDEST SWAP1 POP SWAP4 SWAP3 POP POP POP JUMP JUMPDEST PUSH0 DUP2 SWAP1 POP SWAP3 SWAP2 POP POP JUMP JUMPDEST PUSH0 PUSH2 0xF5C DUP4 DUP6 PUSH2 0xF47 JUMP JUMPDEST SWAP4 POP PUSH2 0xF69 DUP4 DUP6 DUP5 PUSH2 0xD48 JUMP JUMPDEST DUP3 DUP5 ADD SWAP1 POP SWAP4 SWAP3 POP POP POP JUMP JUMPDEST PUSH0 PUSH2 0xF81 DUP3 DUP5 DUP7 PUSH2 0xF51 JUMP JUMPDEST SWAP2 POP DUP2 SWAP1 POP SWAP4 SWAP3 POP POP POP JUMP JUMPDEST PUSH0 PUSH2 0xF97 DUP3 PUSH2 0xB10 JUMP JUMPDEST PUSH2 0xFA1 DUP2 DUP6 PUSH2 0xE6B JUMP JUMPDEST SWAP4 POP PUSH2 0xFB1 DUP2 DUP6 PUSH1 0x20 DUP7 ADD PUSH2 0xB2A JUMP JUMPDEST DUP1 DUP5 ADD SWAP2 POP POP SWAP3 SWAP2 POP POP JUMP JUMPDEST PUSH0 PUSH2 0xFC8 DUP3 DUP5 PUSH2 0xF8D JUMP JUMPDEST SWAP2 POP DUP2 SWAP1 POP SWAP3 SWAP2 POP POP JUMP JUMPDEST PUSH32 0x63616C6C206661696C6564000000000000000000000000000000000000000000 PUSH0 DUP3 ADD MSTORE POP JUMP JUMPDEST PUSH0 PUSH2 0x1007 PUSH1 0xB DUP4 PUSH2 0xBA0 JUMP JUMPDEST SWAP2 POP PUSH2 0x1012 DUP3 PUSH2 0xFD3 JUMP JUMPDEST PUSH1 0x20 DUP3 ADD SWAP1 POP SWAP2 SWAP1 POP JUMP JUMPDEST PUSH0 PUSH1 0x20 DUP3 ADD SWAP1 POP DUP2 DUP2 SUB PUSH0 DUP4 ADD MSTORE PUSH2 0x1034 DUP2 PUSH2 0xFFB JUMP JUMPDEST SWAP1 POP SWAP2 SWAP1 POP JUMP JUMPDEST PUSH2 0x1044 DUP2 PUSH2 0x93E JUMP JUMPDEST DUP3 MSTORE POP POP JUMP JUMPDEST PUSH0 PUSH1 0xA0 DUP3 ADD SWAP1 POP PUSH2 0x105D PUSH0 DUP4 ADD DUP11 PUSH2 0x103B JUMP JUMPDEST PUSH2 0x106A PUSH1 0x20 DUP4 ADD DUP10 PUSH2 0x8F7 JUMP JUMPDEST DUP2 DUP2 SUB PUSH1 0x40 DUP4 ADD MSTORE PUSH2 0x107D DUP2 DUP8 DUP10 PUSH2 0xD56 JUMP JUMPDEST SWAP1 POP DUP2 DUP2 SUB PUSH1 0x60 DUP4 ADD MSTORE PUSH2 0x1092 DUP2 DUP6 DUP8 PUSH2 0xD82 JUMP JUMPDEST SWAP1 POP PUSH2 0x10A1 PUSH1 0x80 DUP4 ADD DUP5 PUSH2 0x8F7 JUMP JUMPDEST SWAP9 SWAP8 POP POP POP POP POP POP POP POP JUMP INVALID LOG2 PUSH5 0x6970667358 0x22 SLT KECCAK256 0xCF BLOBBASEFEE 0x23 0xCD ADD EXTCODECOPY 0xB7 0x24 PUSH13 0xA6977625075D7B1AA04A06EEAB 0xD6 PUSH26 0xC55A0C1E4DC94BC864736F6C634300081A003300000000000000 "
				},
				"gasEstimates": {
					"creation": {
						"codeDepositCost": "864600",
						"executionCost": "25166",
						"totalCost": "889766"
					},
					"external": {
						"MAX_DELAY()": "325",
						"MIN_DELAY()": "391",
						"cancel(address,uint256,string,bytes,uint256)": "infinite",
						"execute(address,uint256,string,bytes,uint256)": "infinite",
						"queue(address,uint256,string,bytes,uint256)": "infinite",
						"queued(bytes32)": "2763"
					},
					"internal": {
						"getTxId(address,uint256,string calldata,bytes calldata,uint256)": "infinite"
					}
				},
				"methodIdentifiers": {
					"MAX_DELAY()": "4125ff90",
					"MIN_DELAY()": "9f81aed7",
					"cancel(address,uint256,string,bytes,uint256)": "4cdbfad6",
					"execute(address,uint256,string,bytes,uint256)": "b0f8b142",
					"queue(address,uint256,string,bytes,uint256)": "4b9915a5",
					"queued(bytes32)": "228250c9"
				}
			},
			"storageLayout": {
				"storage": [
					{
						"astId": 3,
						"contract": "contracts/TimeLock.sol:TimeLock",
						"label": "owner",
						"offset": 0,
						"slot": "0",
						"type": "t_address"
					},
					{
						"astId": 60,
						"contract": "contracts/TimeLock.sol:TimeLock",
						"label": "queued",
						"offset": 0,
						"slot": "1",
						"type": "t_mapping(t_bytes32,t_bool)"
					}
				],
				"types": {
					"t_address": {
						"encoding": "inplace",
						"label": "address",
						"numberOfBytes": "20"
					},
					"t_bool": {
						"encoding": "inplace",
						"label": "bool",
						"numberOfBytes": "1"
					},
					"t_bytes32": {
						"encoding": "inplace",
						"label": "bytes32",
						"numberOfBytes": "32"
					},
					"t_mapping(t_bytes32,t_bool)": {
						"encoding": "mapping",
						"key": "t_bytes32",
						"label": "mapping(bytes32 => bool)",
						"numberOfBytes": "32",
						"value": "t_bool"
					}
				}
			},
			"userdoc": {
				"kind": "user",
				"methods": {},
				"version": 1
			}
		}
	}
}