{
	"contracts/TimeLock.sol": {
		"Temp": {
			"abi": [
				{
					"inputs": [],
					"name": "nolimitLoop",
					"outputs": [],
					"stateMutability": "pure",
					"type": "function"
				},
				{
					"inputs": [
						{
							"internalType": "string",
							"name": "_func",
							"type": "string"
						},
						{
							"internalType": "bytes",
							"name": "_data",
							"type": "bytes"
						}
					],
					"name": "testAbiPacked",
					"outputs": [
						{
							"internalType": "bytes",
							"name": "",
							"type": "bytes"
						}
					],
					"stateMutability": "pure",
					"type": "function"
				},
				{
					"inputs": [
						{
							"internalType": "string",
							"name": "_func",
							"type": "string"
						},
						{
							"internalType": "bytes",
							"name": "_data",
							"type": "bytes"
						}
					],
					"name": "testAbiSig",
					"outputs": [
						{
							"internalType": "bytes",
							"name": "",
							"type": "bytes"
						}
					],
					"stateMutability": "pure",
					"type": "function"
				}
			],
			"devdoc": {
				"kind": "dev",
				"methods": {},
				"version": 1
			},
			"evm": {
				"assembly": "    /* \"contracts/TimeLock.sol\":2935:3673  contract Temp {... */\n  mstore(0x40, 0x80)\n  callvalue\n  dup1\n  iszero\n  tag_1\n  jumpi\n  0x00\n  dup1\n  revert\ntag_1:\n  pop\n  dataSize(sub_0)\n  dup1\n  dataOffset(sub_0)\n  0x00\n  codecopy\n  0x00\n  return\nstop\n\nsub_0: assembly {\n        /* \"contracts/TimeLock.sol\":2935:3673  contract Temp {... */\n      mstore(0x40, 0x80)\n      callvalue\n      dup1\n      iszero\n      tag_1\n      jumpi\n      0x00\n      dup1\n      revert\n    tag_1:\n      pop\n      jumpi(tag_2, lt(calldatasize, 0x04))\n      shr(0xe0, calldataload(0x00))\n      dup1\n      0x57a0177e\n      eq\n      tag_3\n      jumpi\n      dup1\n      0xf3736695\n      eq\n      tag_4\n      jumpi\n      dup1\n      0xf787b6f8\n      eq\n      tag_5\n      jumpi\n    tag_2:\n      0x00\n      dup1\n      revert\n        /* \"contracts/TimeLock.sol\":2976:3159  function testAbiPacked(string calldata _func,bytes calldata _data) external pure returns(bytes memory){... */\n    tag_3:\n      tag_6\n      0x04\n      dup1\n      calldatasize\n      sub\n      dup2\n      add\n      swap1\n      tag_7\n      swap2\n      swap1\n      tag_8\n      jump\t// in\n    tag_7:\n      tag_9\n      jump\t// in\n    tag_6:\n      mload(0x40)\n      tag_10\n      swap2\n      swap1\n      tag_11\n      jump\t// in\n    tag_10:\n      mload(0x40)\n      dup1\n      swap2\n      sub\n      swap1\n      return\n        /* \"contracts/TimeLock.sol\":3551:3670  function nolimitLoop() external pure  {... */\n    tag_4:\n      tag_12\n      tag_13\n      jump\t// in\n    tag_12:\n      stop\n        /* \"contracts/TimeLock.sol\":3377:3543  function testAbiSig(string calldata _func,bytes calldata _data) external pure returns(bytes memory){... */\n    tag_5:\n      tag_14\n      0x04\n      dup1\n      calldatasize\n      sub\n      dup2\n      add\n      swap1\n      tag_15\n      swap2\n      swap1\n      tag_8\n      jump\t// in\n    tag_15:\n      tag_16\n      jump\t// in\n    tag_14:\n      mload(0x40)\n      tag_17\n      swap2\n      swap1\n      tag_11\n      jump\t// in\n    tag_17:\n      mload(0x40)\n      dup1\n      swap2\n      sub\n      swap1\n      return\n        /* \"contracts/TimeLock.sol\":2976:3159  function testAbiPacked(string calldata _func,bytes calldata _data) external pure returns(bytes memory){... */\n    tag_9:\n        /* \"contracts/TimeLock.sol\":3065:3077  bytes memory */\n      0x60\n        /* \"contracts/TimeLock.sol\":3136:3141  _func */\n      dup5\n      dup5\n        /* \"contracts/TimeLock.sol\":3120:3143  keccak256(bytes(_func)) */\n      mload(0x40)\n      tag_19\n      swap3\n      swap2\n      swap1\n      tag_20\n      jump\t// in\n    tag_19:\n      mload(0x40)\n      dup1\n      swap2\n      sub\n      swap1\n      keccak256\n        /* \"contracts/TimeLock.sol\":3145:3150  _data */\n      dup4\n      dup4\n        /* \"contracts/TimeLock.sol\":3096:3151  abi.encodePacked(bytes4(keccak256(bytes(_func))),_data) */\n      add(0x20, mload(0x40))\n      tag_21\n      swap4\n      swap3\n      swap2\n      swap1\n      tag_22\n      jump\t// in\n    tag_21:\n      mload(0x40)\n      0x20\n      dup2\n      dup4\n      sub\n      sub\n      dup2\n      mstore\n      swap1\n      0x40\n      mstore\n        /* \"contracts/TimeLock.sol\":3089:3151  return abi.encodePacked(bytes4(keccak256(bytes(_func))),_data) */\n      swap1\n      pop\n        /* \"contracts/TimeLock.sol\":2976:3159  function testAbiPacked(string calldata _func,bytes calldata _data) external pure returns(bytes memory){... */\n      swap5\n      swap4\n      pop\n      pop\n      pop\n      pop\n      jump\t// out\n        /* \"contracts/TimeLock.sol\":3551:3670  function nolimitLoop() external pure  {... */\n    tag_13:\n        /* \"contracts/TimeLock.sol\":3600:3606  uint i */\n      0x00\n        /* \"contracts/TimeLock.sol\":3621:3663  while(true) {... */\n    tag_24:\n        /* \"contracts/TimeLock.sol\":3627:3631  true */\n      0x01\n        /* \"contracts/TimeLock.sol\":3621:3663  while(true) {... */\n      iszero\n      tag_25\n      jumpi\n        /* \"contracts/TimeLock.sol\":3648:3651  i++ */\n      dup1\n      dup1\n      tag_26\n      swap1\n      tag_27\n      jump\t// in\n    tag_26:\n      swap2\n      pop\n      pop\n        /* \"contracts/TimeLock.sol\":3621:3663  while(true) {... */\n      jump(tag_24)\n    tag_25:\n        /* \"contracts/TimeLock.sol\":3589:3670  {... */\n      pop\n        /* \"contracts/TimeLock.sol\":3551:3670  function nolimitLoop() external pure  {... */\n      jump\t// out\n        /* \"contracts/TimeLock.sol\":3377:3543  function testAbiSig(string calldata _func,bytes calldata _data) external pure returns(bytes memory){... */\n    tag_16:\n        /* \"contracts/TimeLock.sol\":3463:3475  bytes memory */\n      0x60\n        /* \"contracts/TimeLock.sol\":3522:3527  _func */\n      dup5\n      dup5\n        /* \"contracts/TimeLock.sol\":3529:3534  _data */\n      dup5\n      dup5\n        /* \"contracts/TimeLock.sol\":3498:3535  abi.encodeWithSignature(_func, _data) */\n      add(0x24, mload(0x40))\n      tag_29\n      swap3\n      swap2\n      swap1\n      tag_30\n      jump\t// in\n    tag_29:\n      mload(0x40)\n      0x20\n      dup2\n      dup4\n      sub\n      sub\n      dup2\n      mstore\n      swap1\n      0x40\n      mstore\n      swap2\n      swap1\n      mload(0x40)\n      tag_31\n      swap3\n      swap2\n      swap1\n      tag_32\n      jump\t// in\n    tag_31:\n      mload(0x40)\n      dup1\n      swap2\n      sub\n      swap1\n      keccak256\n      not(0xffffffffffffffffffffffffffffffffffffffffffffffffffffffff)\n      and\n      0x20\n      dup3\n      add\n      dup1\n      mload\n      0xffffffffffffffffffffffffffffffffffffffffffffffffffffffff\n      dup4\n      dup2\n      dup4\n      and\n      or\n      dup4\n      mstore\n      pop\n      pop\n      pop\n      pop\n        /* \"contracts/TimeLock.sol\":3491:3535  return abi.encodeWithSignature(_func, _data) */\n      swap1\n      pop\n        /* \"contracts/TimeLock.sol\":3377:3543  function testAbiSig(string calldata _func,bytes calldata _data) external pure returns(bytes memory){... */\n      swap5\n      swap4\n      pop\n      pop\n      pop\n      pop\n      jump\t// out\n        /* \"#utility.yul\":88:205   */\n    tag_34:\n        /* \"#utility.yul\":197:198   */\n      0x00\n        /* \"#utility.yul\":194:195   */\n      dup1\n        /* \"#utility.yul\":187:199   */\n      revert\n        /* \"#utility.yul\":211:328   */\n    tag_35:\n        /* \"#utility.yul\":320:321   */\n      0x00\n        /* \"#utility.yul\":317:318   */\n      dup1\n        /* \"#utility.yul\":310:322   */\n      revert\n        /* \"#utility.yul\":334:451   */\n    tag_36:\n        /* \"#utility.yul\":443:444   */\n      0x00\n        /* \"#utility.yul\":440:441   */\n      dup1\n        /* \"#utility.yul\":433:445   */\n      revert\n        /* \"#utility.yul\":457:574   */\n    tag_37:\n        /* \"#utility.yul\":566:567   */\n      0x00\n        /* \"#utility.yul\":563:564   */\n      dup1\n        /* \"#utility.yul\":556:568   */\n      revert\n        /* \"#utility.yul\":580:697   */\n    tag_38:\n        /* \"#utility.yul\":689:690   */\n      0x00\n        /* \"#utility.yul\":686:687   */\n      dup1\n        /* \"#utility.yul\":679:691   */\n      revert\n        /* \"#utility.yul\":717:1270   */\n    tag_39:\n        /* \"#utility.yul\":775:783   */\n      0x00\n        /* \"#utility.yul\":785:791   */\n      dup1\n        /* \"#utility.yul\":835:838   */\n      dup4\n        /* \"#utility.yul\":828:832   */\n      0x1f\n        /* \"#utility.yul\":820:826   */\n      dup5\n        /* \"#utility.yul\":816:833   */\n      add\n        /* \"#utility.yul\":812:839   */\n      slt\n        /* \"#utility.yul\":802:924   */\n      tag_65\n      jumpi\n        /* \"#utility.yul\":843:922   */\n      tag_66\n      tag_36\n      jump\t// in\n    tag_66:\n        /* \"#utility.yul\":802:924   */\n    tag_65:\n        /* \"#utility.yul\":956:962   */\n      dup3\n        /* \"#utility.yul\":943:963   */\n      calldataload\n        /* \"#utility.yul\":933:963   */\n      swap1\n      pop\n        /* \"#utility.yul\":986:1004   */\n      0xffffffffffffffff\n        /* \"#utility.yul\":978:984   */\n      dup2\n        /* \"#utility.yul\":975:1005   */\n      gt\n        /* \"#utility.yul\":972:1089   */\n      iszero\n      tag_67\n      jumpi\n        /* \"#utility.yul\":1008:1087   */\n      tag_68\n      tag_37\n      jump\t// in\n    tag_68:\n        /* \"#utility.yul\":972:1089   */\n    tag_67:\n        /* \"#utility.yul\":1122:1126   */\n      0x20\n        /* \"#utility.yul\":1114:1120   */\n      dup4\n        /* \"#utility.yul\":1110:1127   */\n      add\n        /* \"#utility.yul\":1098:1127   */\n      swap2\n      pop\n        /* \"#utility.yul\":1176:1179   */\n      dup4\n        /* \"#utility.yul\":1168:1172   */\n      0x01\n        /* \"#utility.yul\":1160:1166   */\n      dup3\n        /* \"#utility.yul\":1156:1173   */\n      mul\n        /* \"#utility.yul\":1146:1154   */\n      dup4\n        /* \"#utility.yul\":1142:1174   */\n      add\n        /* \"#utility.yul\":1139:1180   */\n      gt\n        /* \"#utility.yul\":1136:1264   */\n      iszero\n      tag_69\n      jumpi\n        /* \"#utility.yul\":1183:1262   */\n      tag_70\n      tag_38\n      jump\t// in\n    tag_70:\n        /* \"#utility.yul\":1136:1264   */\n    tag_69:\n        /* \"#utility.yul\":717:1270   */\n      swap3\n      pop\n      swap3\n      swap1\n      pop\n      jump\t// out\n        /* \"#utility.yul\":1289:1841   */\n    tag_40:\n        /* \"#utility.yul\":1346:1354   */\n      0x00\n        /* \"#utility.yul\":1356:1362   */\n      dup1\n        /* \"#utility.yul\":1406:1409   */\n      dup4\n        /* \"#utility.yul\":1399:1403   */\n      0x1f\n        /* \"#utility.yul\":1391:1397   */\n      dup5\n        /* \"#utility.yul\":1387:1404   */\n      add\n        /* \"#utility.yul\":1383:1410   */\n      slt\n        /* \"#utility.yul\":1373:1495   */\n      tag_72\n      jumpi\n        /* \"#utility.yul\":1414:1493   */\n      tag_73\n      tag_36\n      jump\t// in\n    tag_73:\n        /* \"#utility.yul\":1373:1495   */\n    tag_72:\n        /* \"#utility.yul\":1527:1533   */\n      dup3\n        /* \"#utility.yul\":1514:1534   */\n      calldataload\n        /* \"#utility.yul\":1504:1534   */\n      swap1\n      pop\n        /* \"#utility.yul\":1557:1575   */\n      0xffffffffffffffff\n        /* \"#utility.yul\":1549:1555   */\n      dup2\n        /* \"#utility.yul\":1546:1576   */\n      gt\n        /* \"#utility.yul\":1543:1660   */\n      iszero\n      tag_74\n      jumpi\n        /* \"#utility.yul\":1579:1658   */\n      tag_75\n      tag_37\n      jump\t// in\n    tag_75:\n        /* \"#utility.yul\":1543:1660   */\n    tag_74:\n        /* \"#utility.yul\":1693:1697   */\n      0x20\n        /* \"#utility.yul\":1685:1691   */\n      dup4\n        /* \"#utility.yul\":1681:1698   */\n      add\n        /* \"#utility.yul\":1669:1698   */\n      swap2\n      pop\n        /* \"#utility.yul\":1747:1750   */\n      dup4\n        /* \"#utility.yul\":1739:1743   */\n      0x01\n        /* \"#utility.yul\":1731:1737   */\n      dup3\n        /* \"#utility.yul\":1727:1744   */\n      mul\n        /* \"#utility.yul\":1717:1725   */\n      dup4\n        /* \"#utility.yul\":1713:1745   */\n      add\n        /* \"#utility.yul\":1710:1751   */\n      gt\n        /* \"#utility.yul\":1707:1835   */\n      iszero\n      tag_76\n      jumpi\n        /* \"#utility.yul\":1754:1833   */\n      tag_77\n      tag_38\n      jump\t// in\n    tag_77:\n        /* \"#utility.yul\":1707:1835   */\n    tag_76:\n        /* \"#utility.yul\":1289:1841   */\n      swap3\n      pop\n      swap3\n      swap1\n      pop\n      jump\t// out\n        /* \"#utility.yul\":1847:2719   */\n    tag_8:\n        /* \"#utility.yul\":1938:1944   */\n      0x00\n        /* \"#utility.yul\":1946:1952   */\n      dup1\n        /* \"#utility.yul\":1954:1960   */\n      0x00\n        /* \"#utility.yul\":1962:1968   */\n      dup1\n        /* \"#utility.yul\":2011:2013   */\n      0x40\n        /* \"#utility.yul\":1999:2008   */\n      dup6\n        /* \"#utility.yul\":1990:1997   */\n      dup8\n        /* \"#utility.yul\":1986:2009   */\n      sub\n        /* \"#utility.yul\":1982:2014   */\n      slt\n        /* \"#utility.yul\":1979:2098   */\n      iszero\n      tag_79\n      jumpi\n        /* \"#utility.yul\":2017:2096   */\n      tag_80\n      tag_34\n      jump\t// in\n    tag_80:\n        /* \"#utility.yul\":1979:2098   */\n    tag_79:\n        /* \"#utility.yul\":2165:2166   */\n      0x00\n        /* \"#utility.yul\":2154:2163   */\n      dup6\n        /* \"#utility.yul\":2150:2167   */\n      add\n        /* \"#utility.yul\":2137:2168   */\n      calldataload\n        /* \"#utility.yul\":2195:2213   */\n      0xffffffffffffffff\n        /* \"#utility.yul\":2187:2193   */\n      dup2\n        /* \"#utility.yul\":2184:2214   */\n      gt\n        /* \"#utility.yul\":2181:2298   */\n      iszero\n      tag_81\n      jumpi\n        /* \"#utility.yul\":2217:2296   */\n      tag_82\n      tag_35\n      jump\t// in\n    tag_82:\n        /* \"#utility.yul\":2181:2298   */\n    tag_81:\n        /* \"#utility.yul\":2330:2395   */\n      tag_83\n        /* \"#utility.yul\":2387:2394   */\n      dup8\n        /* \"#utility.yul\":2378:2384   */\n      dup3\n        /* \"#utility.yul\":2367:2376   */\n      dup9\n        /* \"#utility.yul\":2363:2385   */\n      add\n        /* \"#utility.yul\":2330:2395   */\n      tag_39\n      jump\t// in\n    tag_83:\n        /* \"#utility.yul\":2312:2395   */\n      swap5\n      pop\n      swap5\n      pop\n        /* \"#utility.yul\":2108:2405   */\n      pop\n        /* \"#utility.yul\":2472:2474   */\n      0x20\n        /* \"#utility.yul\":2461:2470   */\n      dup6\n        /* \"#utility.yul\":2457:2475   */\n      add\n        /* \"#utility.yul\":2444:2476   */\n      calldataload\n        /* \"#utility.yul\":2503:2521   */\n      0xffffffffffffffff\n        /* \"#utility.yul\":2495:2501   */\n      dup2\n        /* \"#utility.yul\":2492:2522   */\n      gt\n        /* \"#utility.yul\":2489:2606   */\n      iszero\n      tag_84\n      jumpi\n        /* \"#utility.yul\":2525:2604   */\n      tag_85\n      tag_35\n      jump\t// in\n    tag_85:\n        /* \"#utility.yul\":2489:2606   */\n    tag_84:\n        /* \"#utility.yul\":2638:2702   */\n      tag_86\n        /* \"#utility.yul\":2694:2701   */\n      dup8\n        /* \"#utility.yul\":2685:2691   */\n      dup3\n        /* \"#utility.yul\":2674:2683   */\n      dup9\n        /* \"#utility.yul\":2670:2692   */\n      add\n        /* \"#utility.yul\":2638:2702   */\n      tag_40\n      jump\t// in\n    tag_86:\n        /* \"#utility.yul\":2620:2702   */\n      swap3\n      pop\n      swap3\n      pop\n        /* \"#utility.yul\":2415:2712   */\n      pop\n        /* \"#utility.yul\":1847:2719   */\n      swap3\n      swap6\n      swap2\n      swap5\n      pop\n      swap3\n      pop\n      jump\t// out\n        /* \"#utility.yul\":2725:2823   */\n    tag_41:\n        /* \"#utility.yul\":2776:2782   */\n      0x00\n        /* \"#utility.yul\":2810:2815   */\n      dup2\n        /* \"#utility.yul\":2804:2816   */\n      mload\n        /* \"#utility.yul\":2794:2816   */\n      swap1\n      pop\n        /* \"#utility.yul\":2725:2823   */\n      swap2\n      swap1\n      pop\n      jump\t// out\n        /* \"#utility.yul\":2829:2997   */\n    tag_42:\n        /* \"#utility.yul\":2912:2923   */\n      0x00\n        /* \"#utility.yul\":2946:2952   */\n      dup3\n        /* \"#utility.yul\":2941:2944   */\n      dup3\n        /* \"#utility.yul\":2934:2953   */\n      mstore\n        /* \"#utility.yul\":2986:2990   */\n      0x20\n        /* \"#utility.yul\":2981:2984   */\n      dup3\n        /* \"#utility.yul\":2977:2991   */\n      add\n        /* \"#utility.yul\":2962:2991   */\n      swap1\n      pop\n        /* \"#utility.yul\":2829:2997   */\n      swap3\n      swap2\n      pop\n      pop\n      jump\t// out\n        /* \"#utility.yul\":3003:3142   */\n    tag_43:\n        /* \"#utility.yul\":3092:3098   */\n      dup3\n        /* \"#utility.yul\":3087:3090   */\n      dup2\n        /* \"#utility.yul\":3082:3085   */\n      dup4\n        /* \"#utility.yul\":3076:3099   */\n      mcopy\n        /* \"#utility.yul\":3133:3134   */\n      0x00\n        /* \"#utility.yul\":3124:3130   */\n      dup4\n        /* \"#utility.yul\":3119:3122   */\n      dup4\n        /* \"#utility.yul\":3115:3131   */\n      add\n        /* \"#utility.yul\":3108:3135   */\n      mstore\n        /* \"#utility.yul\":3003:3142   */\n      pop\n      pop\n      pop\n      jump\t// out\n        /* \"#utility.yul\":3148:3250   */\n    tag_44:\n        /* \"#utility.yul\":3189:3195   */\n      0x00\n        /* \"#utility.yul\":3240:3242   */\n      0x1f\n        /* \"#utility.yul\":3236:3243   */\n      not\n        /* \"#utility.yul\":3231:3233   */\n      0x1f\n        /* \"#utility.yul\":3224:3229   */\n      dup4\n        /* \"#utility.yul\":3220:3234   */\n      add\n        /* \"#utility.yul\":3216:3244   */\n      and\n        /* \"#utility.yul\":3206:3244   */\n      swap1\n      pop\n        /* \"#utility.yul\":3148:3250   */\n      swap2\n      swap1\n      pop\n      jump\t// out\n        /* \"#utility.yul\":3256:3629   */\n    tag_45:\n        /* \"#utility.yul\":3342:3345   */\n      0x00\n        /* \"#utility.yul\":3370:3408   */\n      tag_92\n        /* \"#utility.yul\":3402:3407   */\n      dup3\n        /* \"#utility.yul\":3370:3408   */\n      tag_41\n      jump\t// in\n    tag_92:\n        /* \"#utility.yul\":3424:3494   */\n      tag_93\n        /* \"#utility.yul\":3487:3493   */\n      dup2\n        /* \"#utility.yul\":3482:3485   */\n      dup6\n        /* \"#utility.yul\":3424:3494   */\n      tag_42\n      jump\t// in\n    tag_93:\n        /* \"#utility.yul\":3417:3494   */\n      swap4\n      pop\n        /* \"#utility.yul\":3503:3568   */\n      tag_94\n        /* \"#utility.yul\":3561:3567   */\n      dup2\n        /* \"#utility.yul\":3556:3559   */\n      dup6\n        /* \"#utility.yul\":3549:3553   */\n      0x20\n        /* \"#utility.yul\":3542:3547   */\n      dup7\n        /* \"#utility.yul\":3538:3554   */\n      add\n        /* \"#utility.yul\":3503:3568   */\n      tag_43\n      jump\t// in\n    tag_94:\n        /* \"#utility.yul\":3593:3622   */\n      tag_95\n        /* \"#utility.yul\":3615:3621   */\n      dup2\n        /* \"#utility.yul\":3593:3622   */\n      tag_44\n      jump\t// in\n    tag_95:\n        /* \"#utility.yul\":3588:3591   */\n      dup5\n        /* \"#utility.yul\":3584:3623   */\n      add\n        /* \"#utility.yul\":3577:3623   */\n      swap2\n      pop\n        /* \"#utility.yul\":3346:3629   */\n      pop\n        /* \"#utility.yul\":3256:3629   */\n      swap3\n      swap2\n      pop\n      pop\n      jump\t// out\n        /* \"#utility.yul\":3635:3944   */\n    tag_11:\n        /* \"#utility.yul\":3746:3750   */\n      0x00\n        /* \"#utility.yul\":3784:3786   */\n      0x20\n        /* \"#utility.yul\":3773:3782   */\n      dup3\n        /* \"#utility.yul\":3769:3787   */\n      add\n        /* \"#utility.yul\":3761:3787   */\n      swap1\n      pop\n        /* \"#utility.yul\":3833:3842   */\n      dup2\n        /* \"#utility.yul\":3827:3831   */\n      dup2\n        /* \"#utility.yul\":3823:3843   */\n      sub\n        /* \"#utility.yul\":3819:3820   */\n      0x00\n        /* \"#utility.yul\":3808:3817   */\n      dup4\n        /* \"#utility.yul\":3804:3821   */\n      add\n        /* \"#utility.yul\":3797:3844   */\n      mstore\n        /* \"#utility.yul\":3861:3937   */\n      tag_97\n        /* \"#utility.yul\":3932:3936   */\n      dup2\n        /* \"#utility.yul\":3923:3929   */\n      dup5\n        /* \"#utility.yul\":3861:3937   */\n      tag_45\n      jump\t// in\n    tag_97:\n        /* \"#utility.yul\":3853:3937   */\n      swap1\n      pop\n        /* \"#utility.yul\":3635:3944   */\n      swap3\n      swap2\n      pop\n      pop\n      jump\t// out\n        /* \"#utility.yul\":3950:4097   */\n    tag_46:\n        /* \"#utility.yul\":4051:4062   */\n      0x00\n        /* \"#utility.yul\":4088:4091   */\n      dup2\n        /* \"#utility.yul\":4073:4091   */\n      swap1\n      pop\n        /* \"#utility.yul\":3950:4097   */\n      swap3\n      swap2\n      pop\n      pop\n      jump\t// out\n        /* \"#utility.yul\":4103:4251   */\n    tag_47:\n        /* \"#utility.yul\":4201:4207   */\n      dup3\n        /* \"#utility.yul\":4196:4199   */\n      dup2\n        /* \"#utility.yul\":4191:4194   */\n      dup4\n        /* \"#utility.yul\":4178:4208   */\n      calldatacopy\n        /* \"#utility.yul\":4242:4243   */\n      0x00\n        /* \"#utility.yul\":4233:4239   */\n      dup4\n        /* \"#utility.yul\":4228:4231   */\n      dup4\n        /* \"#utility.yul\":4224:4240   */\n      add\n        /* \"#utility.yul\":4217:4244   */\n      mstore\n        /* \"#utility.yul\":4103:4251   */\n      pop\n      pop\n      pop\n      jump\t// out\n        /* \"#utility.yul\":4279:4606   */\n    tag_48:\n        /* \"#utility.yul\":4393:4396   */\n      0x00\n        /* \"#utility.yul\":4414:4502   */\n      tag_101\n        /* \"#utility.yul\":4495:4501   */\n      dup4\n        /* \"#utility.yul\":4490:4493   */\n      dup6\n        /* \"#utility.yul\":4414:4502   */\n      tag_46\n      jump\t// in\n    tag_101:\n        /* \"#utility.yul\":4407:4502   */\n      swap4\n      pop\n        /* \"#utility.yul\":4512:4568   */\n      tag_102\n        /* \"#utility.yul\":4561:4567   */\n      dup4\n        /* \"#utility.yul\":4556:4559   */\n      dup6\n        /* \"#utility.yul\":4549:4554   */\n      dup5\n        /* \"#utility.yul\":4512:4568   */\n      tag_47\n      jump\t// in\n    tag_102:\n        /* \"#utility.yul\":4593:4599   */\n      dup3\n        /* \"#utility.yul\":4588:4591   */\n      dup5\n        /* \"#utility.yul\":4584:4600   */\n      add\n        /* \"#utility.yul\":4577:4600   */\n      swap1\n      pop\n        /* \"#utility.yul\":4279:4606   */\n      swap4\n      swap3\n      pop\n      pop\n      pop\n      jump\t// out\n        /* \"#utility.yul\":4612:4903   */\n    tag_20:\n        /* \"#utility.yul\":4752:4755   */\n      0x00\n        /* \"#utility.yul\":4774:4877   */\n      tag_104\n        /* \"#utility.yul\":4873:4876   */\n      dup3\n        /* \"#utility.yul\":4864:4870   */\n      dup5\n        /* \"#utility.yul\":4856:4862   */\n      dup7\n        /* \"#utility.yul\":4774:4877   */\n      tag_48\n      jump\t// in\n    tag_104:\n        /* \"#utility.yul\":4767:4877   */\n      swap2\n      pop\n        /* \"#utility.yul\":4894:4897   */\n      dup2\n        /* \"#utility.yul\":4887:4897   */\n      swap1\n      pop\n        /* \"#utility.yul\":4612:4903   */\n      swap4\n      swap3\n      pop\n      pop\n      pop\n      jump\t// out\n        /* \"#utility.yul\":4909:5058   */\n    tag_49:\n        /* \"#utility.yul\":4945:4952   */\n      0x00\n        /* \"#utility.yul\":4985:5051   */\n      0xffffffff00000000000000000000000000000000000000000000000000000000\n        /* \"#utility.yul\":4978:4983   */\n      dup3\n        /* \"#utility.yul\":4974:5052   */\n      and\n        /* \"#utility.yul\":4963:5052   */\n      swap1\n      pop\n        /* \"#utility.yul\":4909:5058   */\n      swap2\n      swap1\n      pop\n      jump\t// out\n        /* \"#utility.yul\":5064:5142   */\n    tag_50:\n        /* \"#utility.yul\":5102:5109   */\n      0x00\n        /* \"#utility.yul\":5131:5136   */\n      dup2\n        /* \"#utility.yul\":5120:5136   */\n      swap1\n      pop\n        /* \"#utility.yul\":5064:5142   */\n      swap2\n      swap1\n      pop\n      jump\t// out\n        /* \"#utility.yul\":5148:5301   */\n    tag_51:\n        /* \"#utility.yul\":5251:5294   */\n      tag_108\n        /* \"#utility.yul\":5270:5293   */\n      tag_109\n        /* \"#utility.yul\":5287:5292   */\n      dup3\n        /* \"#utility.yul\":5270:5293   */\n      tag_49\n      jump\t// in\n    tag_109:\n        /* \"#utility.yul\":5251:5294   */\n      tag_50\n      jump\t// in\n    tag_108:\n        /* \"#utility.yul\":5246:5249   */\n      dup3\n        /* \"#utility.yul\":5239:5295   */\n      mstore\n        /* \"#utility.yul\":5148:5301   */\n      pop\n      pop\n      jump\t// out\n        /* \"#utility.yul\":5307:5734   */\n    tag_22:\n        /* \"#utility.yul\":5473:5476   */\n      0x00\n        /* \"#utility.yul\":5488:5561   */\n      tag_111\n        /* \"#utility.yul\":5557:5560   */\n      dup3\n        /* \"#utility.yul\":5548:5554   */\n      dup7\n        /* \"#utility.yul\":5488:5561   */\n      tag_51\n      jump\t// in\n    tag_111:\n        /* \"#utility.yul\":5586:5587   */\n      0x04\n        /* \"#utility.yul\":5581:5584   */\n      dup3\n        /* \"#utility.yul\":5577:5588   */\n      add\n        /* \"#utility.yul\":5570:5588   */\n      swap2\n      pop\n        /* \"#utility.yul\":5605:5708   */\n      tag_112\n        /* \"#utility.yul\":5704:5707   */\n      dup3\n        /* \"#utility.yul\":5695:5701   */\n      dup5\n        /* \"#utility.yul\":5687:5693   */\n      dup7\n        /* \"#utility.yul\":5605:5708   */\n      tag_48\n      jump\t// in\n    tag_112:\n        /* \"#utility.yul\":5598:5708   */\n      swap2\n      pop\n        /* \"#utility.yul\":5725:5728   */\n      dup2\n        /* \"#utility.yul\":5718:5728   */\n      swap1\n      pop\n        /* \"#utility.yul\":5307:5734   */\n      swap5\n      swap4\n      pop\n      pop\n      pop\n      pop\n      jump\t// out\n        /* \"#utility.yul\":5740:5920   */\n    tag_52:\n        /* \"#utility.yul\":5788:5865   */\n      0x4e487b7100000000000000000000000000000000000000000000000000000000\n        /* \"#utility.yul\":5785:5786   */\n      0x00\n        /* \"#utility.yul\":5778:5866   */\n      mstore\n        /* \"#utility.yul\":5885:5889   */\n      0x11\n        /* \"#utility.yul\":5882:5883   */\n      0x04\n        /* \"#utility.yul\":5875:5890   */\n      mstore\n        /* \"#utility.yul\":5909:5913   */\n      0x24\n        /* \"#utility.yul\":5906:5907   */\n      0x00\n        /* \"#utility.yul\":5899:5914   */\n      revert\n        /* \"#utility.yul\":5926:6003   */\n    tag_53:\n        /* \"#utility.yul\":5963:5970   */\n      0x00\n        /* \"#utility.yul\":5992:5997   */\n      dup2\n        /* \"#utility.yul\":5981:5997   */\n      swap1\n      pop\n        /* \"#utility.yul\":5926:6003   */\n      swap2\n      swap1\n      pop\n      jump\t// out\n        /* \"#utility.yul\":6009:6242   */\n    tag_27:\n        /* \"#utility.yul\":6048:6051   */\n      0x00\n        /* \"#utility.yul\":6071:6095   */\n      tag_116\n        /* \"#utility.yul\":6089:6094   */\n      dup3\n        /* \"#utility.yul\":6071:6095   */\n      tag_53\n      jump\t// in\n    tag_116:\n        /* \"#utility.yul\":6062:6095   */\n      swap2\n      pop\n        /* \"#utility.yul\":6117:6183   */\n      0xffffffffffffffffffffffffffffffffffffffffffffffffffffffffffffffff\n        /* \"#utility.yul\":6110:6115   */\n      dup3\n        /* \"#utility.yul\":6107:6184   */\n      sub\n        /* \"#utility.yul\":6104:6207   */\n      tag_117\n      jumpi\n        /* \"#utility.yul\":6187:6205   */\n      tag_118\n      tag_52\n      jump\t// in\n    tag_118:\n        /* \"#utility.yul\":6104:6207   */\n    tag_117:\n        /* \"#utility.yul\":6234:6235   */\n      0x01\n        /* \"#utility.yul\":6227:6232   */\n      dup3\n        /* \"#utility.yul\":6223:6236   */\n      add\n        /* \"#utility.yul\":6216:6236   */\n      swap1\n      pop\n        /* \"#utility.yul\":6009:6242   */\n      swap2\n      swap1\n      pop\n      jump\t// out\n        /* \"#utility.yul\":6270:6584   */\n    tag_54:\n        /* \"#utility.yul\":6366:6369   */\n      0x00\n        /* \"#utility.yul\":6387:6457   */\n      tag_120\n        /* \"#utility.yul\":6450:6456   */\n      dup4\n        /* \"#utility.yul\":6445:6448   */\n      dup6\n        /* \"#utility.yul\":6387:6457   */\n      tag_42\n      jump\t// in\n    tag_120:\n        /* \"#utility.yul\":6380:6457   */\n      swap4\n      pop\n        /* \"#utility.yul\":6467:6523   */\n      tag_121\n        /* \"#utility.yul\":6516:6522   */\n      dup4\n        /* \"#utility.yul\":6511:6514   */\n      dup6\n        /* \"#utility.yul\":6504:6509   */\n      dup5\n        /* \"#utility.yul\":6467:6523   */\n      tag_47\n      jump\t// in\n    tag_121:\n        /* \"#utility.yul\":6548:6577   */\n      tag_122\n        /* \"#utility.yul\":6570:6576   */\n      dup4\n        /* \"#utility.yul\":6548:6577   */\n      tag_44\n      jump\t// in\n    tag_122:\n        /* \"#utility.yul\":6543:6546   */\n      dup5\n        /* \"#utility.yul\":6539:6578   */\n      add\n        /* \"#utility.yul\":6532:6578   */\n      swap1\n      pop\n        /* \"#utility.yul\":6270:6584   */\n      swap4\n      swap3\n      pop\n      pop\n      pop\n      jump\t// out\n        /* \"#utility.yul\":6590:6919   */\n    tag_30:\n        /* \"#utility.yul\":6711:6715   */\n      0x00\n        /* \"#utility.yul\":6749:6751   */\n      0x20\n        /* \"#utility.yul\":6738:6747   */\n      dup3\n        /* \"#utility.yul\":6734:6752   */\n      add\n        /* \"#utility.yul\":6726:6752   */\n      swap1\n      pop\n        /* \"#utility.yul\":6798:6807   */\n      dup2\n        /* \"#utility.yul\":6792:6796   */\n      dup2\n        /* \"#utility.yul\":6788:6808   */\n      sub\n        /* \"#utility.yul\":6784:6785   */\n      0x00\n        /* \"#utility.yul\":6773:6782   */\n      dup4\n        /* \"#utility.yul\":6769:6786   */\n      add\n        /* \"#utility.yul\":6762:6809   */\n      mstore\n        /* \"#utility.yul\":6826:6912   */\n      tag_124\n        /* \"#utility.yul\":6907:6911   */\n      dup2\n        /* \"#utility.yul\":6898:6904   */\n      dup5\n        /* \"#utility.yul\":6890:6896   */\n      dup7\n        /* \"#utility.yul\":6826:6912   */\n      tag_54\n      jump\t// in\n    tag_124:\n        /* \"#utility.yul\":6818:6912   */\n      swap1\n      pop\n        /* \"#utility.yul\":6590:6919   */\n      swap4\n      swap3\n      pop\n      pop\n      pop\n      jump\t// out\n        /* \"#utility.yul\":6925:7073   */\n    tag_55:\n        /* \"#utility.yul\":7027:7038   */\n      0x00\n        /* \"#utility.yul\":7064:7067   */\n      dup2\n        /* \"#utility.yul\":7049:7067   */\n      swap1\n      pop\n        /* \"#utility.yul\":6925:7073   */\n      swap3\n      swap2\n      pop\n      pop\n      jump\t// out\n        /* \"#utility.yul\":7103:7433   */\n    tag_56:\n        /* \"#utility.yul\":7219:7222   */\n      0x00\n        /* \"#utility.yul\":7240:7329   */\n      tag_127\n        /* \"#utility.yul\":7322:7328   */\n      dup4\n        /* \"#utility.yul\":7317:7320   */\n      dup6\n        /* \"#utility.yul\":7240:7329   */\n      tag_55\n      jump\t// in\n    tag_127:\n        /* \"#utility.yul\":7233:7329   */\n      swap4\n      pop\n        /* \"#utility.yul\":7339:7395   */\n      tag_128\n        /* \"#utility.yul\":7388:7394   */\n      dup4\n        /* \"#utility.yul\":7383:7386   */\n      dup6\n        /* \"#utility.yul\":7376:7381   */\n      dup5\n        /* \"#utility.yul\":7339:7395   */\n      tag_47\n      jump\t// in\n    tag_128:\n        /* \"#utility.yul\":7420:7426   */\n      dup3\n        /* \"#utility.yul\":7415:7418   */\n      dup5\n        /* \"#utility.yul\":7411:7427   */\n      add\n        /* \"#utility.yul\":7404:7427   */\n      swap1\n      pop\n        /* \"#utility.yul\":7103:7433   */\n      swap4\n      swap3\n      pop\n      pop\n      pop\n      jump\t// out\n        /* \"#utility.yul\":7439:7734   */\n    tag_32:\n        /* \"#utility.yul\":7581:7584   */\n      0x00\n        /* \"#utility.yul\":7603:7708   */\n      tag_130\n        /* \"#utility.yul\":7704:7707   */\n      dup3\n        /* \"#utility.yul\":7695:7701   */\n      dup5\n        /* \"#utility.yul\":7687:7693   */\n      dup7\n        /* \"#utility.yul\":7603:7708   */\n      tag_56\n      jump\t// in\n    tag_130:\n        /* \"#utility.yul\":7596:7708   */\n      swap2\n      pop\n        /* \"#utility.yul\":7725:7728   */\n      dup2\n        /* \"#utility.yul\":7718:7728   */\n      swap1\n      pop\n        /* \"#utility.yul\":7439:7734   */\n      swap4\n      swap3\n      pop\n      pop\n      pop\n      jump\t// out\n\n    auxdata: 0xa26469706673582212201b3ac28f9f9f60e22f589ddfa6c5d6e3a0167a318e603aeb1eb60d1fab5145cb64736f6c634300081a0033\n}\n",
				"bytecode": {
					"linkReferences": {},
					"object": "6080604052348015600e575f80fd5b506105838061001c5f395ff3fe608060405234801561000f575f80fd5b506004361061003f575f3560e01c806357a0177e14610043578063f373669514610073578063f787b6f81461007d575b5f80fd5b61005d60048036038101906100589190610266565b6100ad565b60405161006a9190610354565b60405180910390f35b61007b6100f4565b005b61009760048036038101906100929190610266565b610113565b6040516100a49190610354565b60405180910390f35b606084846040516100bf9291906103b0565b604051809103902083836040516020016100db93929190610413565b6040516020818303038152906040529050949350505050565b5f5b60011561011057808061010890610472565b9150506100f6565b50565b60608484848460405160240161012a9291906104e5565b6040516020818303038152906040529190604051610149929190610535565b60405180910390207bffffffffffffffffffffffffffffffffffffffffffffffffffffffff19166020820180517bffffffffffffffffffffffffffffffffffffffffffffffffffffffff83818316178352505050509050949350505050565b5f80fd5b5f80fd5b5f80fd5b5f80fd5b5f80fd5b5f8083601f8401126101d1576101d06101b0565b5b8235905067ffffffffffffffff8111156101ee576101ed6101b4565b5b60208301915083600182028301111561020a576102096101b8565b5b9250929050565b5f8083601f840112610226576102256101b0565b5b8235905067ffffffffffffffff811115610243576102426101b4565b5b60208301915083600182028301111561025f5761025e6101b8565b5b9250929050565b5f805f806040858703121561027e5761027d6101a8565b5b5f85013567ffffffffffffffff81111561029b5761029a6101ac565b5b6102a7878288016101bc565b9450945050602085013567ffffffffffffffff8111156102ca576102c96101ac565b5b6102d687828801610211565b925092505092959194509250565b5f81519050919050565b5f82825260208201905092915050565b8281835e5f83830152505050565b5f601f19601f8301169050919050565b5f610326826102e4565b61033081856102ee565b93506103408185602086016102fe565b6103498161030c565b840191505092915050565b5f6020820190508181035f83015261036c818461031c565b905092915050565b5f81905092915050565b828183375f83830152505050565b5f6103978385610374565b93506103a483858461037e565b82840190509392505050565b5f6103bc82848661038c565b91508190509392505050565b5f7fffffffff0000000000000000000000000000000000000000000000000000000082169050919050565b5f819050919050565b61040d610408826103c8565b6103f3565b82525050565b5f61041e82866103fc565b60048201915061042f82848661038c565b9150819050949350505050565b7f4e487b71000000000000000000000000000000000000000000000000000000005f52601160045260245ffd5b5f819050919050565b5f61047c82610469565b91507fffffffffffffffffffffffffffffffffffffffffffffffffffffffffffffffff82036104ae576104ad61043c565b5b600182019050919050565b5f6104c483856102ee565b93506104d183858461037e565b6104da8361030c565b840190509392505050565b5f6020820190508181035f8301526104fe8184866104b9565b90509392505050565b5f81905092915050565b5f61051c8385610507565b935061052983858461037e565b82840190509392505050565b5f610541828486610511565b9150819050939250505056fea26469706673582212201b3ac28f9f9f60e22f589ddfa6c5d6e3a0167a318e603aeb1eb60d1fab5145cb64736f6c634300081a0033",
					"opcodes": "PUSH1 0x80 PUSH1 0x40 MSTORE CALLVALUE DUP1 ISZERO PUSH1 0xE JUMPI PUSH0 DUP1 REVERT JUMPDEST POP PUSH2 0x583 DUP1 PUSH2 0x1C PUSH0 CODECOPY PUSH0 RETURN INVALID PUSH1 0x80 PUSH1 0x40 MSTORE CALLVALUE DUP1 ISZERO PUSH2 0xF JUMPI PUSH0 DUP1 REVERT JUMPDEST POP PUSH1 0x4 CALLDATASIZE LT PUSH2 0x3F JUMPI PUSH0 CALLDATALOAD PUSH1 0xE0 SHR DUP1 PUSH4 0x57A0177E EQ PUSH2 0x43 JUMPI DUP1 PUSH4 0xF3736695 EQ PUSH2 0x73 JUMPI DUP1 PUSH4 0xF787B6F8 EQ PUSH2 0x7D JUMPI JUMPDEST PUSH0 DUP1 REVERT JUMPDEST PUSH2 0x5D PUSH1 0x4 DUP1 CALLDATASIZE SUB DUP2 ADD SWAP1 PUSH2 0x58 SWAP2 SWAP1 PUSH2 0x266 JUMP JUMPDEST PUSH2 0xAD JUMP JUMPDEST PUSH1 0x40 MLOAD PUSH2 0x6A SWAP2 SWAP1 PUSH2 0x354 JUMP JUMPDEST PUSH1 0x40 MLOAD DUP1 SWAP2 SUB SWAP1 RETURN JUMPDEST PUSH2 0x7B PUSH2 0xF4 JUMP JUMPDEST STOP JUMPDEST PUSH2 0x97 PUSH1 0x4 DUP1 CALLDATASIZE SUB DUP2 ADD SWAP1 PUSH2 0x92 SWAP2 SWAP1 PUSH2 0x266 JUMP JUMPDEST PUSH2 0x113 JUMP JUMPDEST PUSH1 0x40 MLOAD PUSH2 0xA4 SWAP2 SWAP1 PUSH2 0x354 JUMP JUMPDEST PUSH1 0x40 MLOAD DUP1 SWAP2 SUB SWAP1 RETURN JUMPDEST PUSH1 0x60 DUP5 DUP5 PUSH1 0x40 MLOAD PUSH2 0xBF SWAP3 SWAP2 SWAP1 PUSH2 0x3B0 JUMP JUMPDEST PUSH1 0x40 MLOAD DUP1 SWAP2 SUB SWAP1 KECCAK256 DUP4 DUP4 PUSH1 0x40 MLOAD PUSH1 0x20 ADD PUSH2 0xDB SWAP4 SWAP3 SWAP2 SWAP1 PUSH2 0x413 JUMP JUMPDEST PUSH1 0x40 MLOAD PUSH1 0x20 DUP2 DUP4 SUB SUB DUP2 MSTORE SWAP1 PUSH1 0x40 MSTORE SWAP1 POP SWAP5 SWAP4 POP POP POP POP JUMP JUMPDEST PUSH0 JUMPDEST PUSH1 0x1 ISZERO PUSH2 0x110 JUMPI DUP1 DUP1 PUSH2 0x108 SWAP1 PUSH2 0x472 JUMP JUMPDEST SWAP2 POP POP PUSH2 0xF6 JUMP JUMPDEST POP JUMP JUMPDEST PUSH1 0x60 DUP5 DUP5 DUP5 DUP5 PUSH1 0x40 MLOAD PUSH1 0x24 ADD PUSH2 0x12A SWAP3 SWAP2 SWAP1 PUSH2 0x4E5 JUMP JUMPDEST PUSH1 0x40 MLOAD PUSH1 0x20 DUP2 DUP4 SUB SUB DUP2 MSTORE SWAP1 PUSH1 0x40 MSTORE SWAP2 SWAP1 PUSH1 0x40 MLOAD PUSH2 0x149 SWAP3 SWAP2 SWAP1 PUSH2 0x535 JUMP JUMPDEST PUSH1 0x40 MLOAD DUP1 SWAP2 SUB SWAP1 KECCAK256 PUSH28 0xFFFFFFFFFFFFFFFFFFFFFFFFFFFFFFFFFFFFFFFFFFFFFFFFFFFFFFFF NOT AND PUSH1 0x20 DUP3 ADD DUP1 MLOAD PUSH28 0xFFFFFFFFFFFFFFFFFFFFFFFFFFFFFFFFFFFFFFFFFFFFFFFFFFFFFFFF DUP4 DUP2 DUP4 AND OR DUP4 MSTORE POP POP POP POP SWAP1 POP SWAP5 SWAP4 POP POP POP POP JUMP JUMPDEST PUSH0 DUP1 REVERT JUMPDEST PUSH0 DUP1 REVERT JUMPDEST PUSH0 DUP1 REVERT JUMPDEST PUSH0 DUP1 REVERT JUMPDEST PUSH0 DUP1 REVERT JUMPDEST PUSH0 DUP1 DUP4 PUSH1 0x1F DUP5 ADD SLT PUSH2 0x1D1 JUMPI PUSH2 0x1D0 PUSH2 0x1B0 JUMP JUMPDEST JUMPDEST DUP3 CALLDATALOAD SWAP1 POP PUSH8 0xFFFFFFFFFFFFFFFF DUP2 GT ISZERO PUSH2 0x1EE JUMPI PUSH2 0x1ED PUSH2 0x1B4 JUMP JUMPDEST JUMPDEST PUSH1 0x20 DUP4 ADD SWAP2 POP DUP4 PUSH1 0x1 DUP3 MUL DUP4 ADD GT ISZERO PUSH2 0x20A JUMPI PUSH2 0x209 PUSH2 0x1B8 JUMP JUMPDEST JUMPDEST SWAP3 POP SWAP3 SWAP1 POP JUMP JUMPDEST PUSH0 DUP1 DUP4 PUSH1 0x1F DUP5 ADD SLT PUSH2 0x226 JUMPI PUSH2 0x225 PUSH2 0x1B0 JUMP JUMPDEST JUMPDEST DUP3 CALLDATALOAD SWAP1 POP PUSH8 0xFFFFFFFFFFFFFFFF DUP2 GT ISZERO PUSH2 0x243 JUMPI PUSH2 0x242 PUSH2 0x1B4 JUMP JUMPDEST JUMPDEST PUSH1 0x20 DUP4 ADD SWAP2 POP DUP4 PUSH1 0x1 DUP3 MUL DUP4 ADD GT ISZERO PUSH2 0x25F JUMPI PUSH2 0x25E PUSH2 0x1B8 JUMP JUMPDEST JUMPDEST SWAP3 POP SWAP3 SWAP1 POP JUMP JUMPDEST PUSH0 DUP1 PUSH0 DUP1 PUSH1 0x40 DUP6 DUP8 SUB SLT ISZERO PUSH2 0x27E JUMPI PUSH2 0x27D PUSH2 0x1A8 JUMP JUMPDEST JUMPDEST PUSH0 DUP6 ADD CALLDATALOAD PUSH8 0xFFFFFFFFFFFFFFFF DUP2 GT ISZERO PUSH2 0x29B JUMPI PUSH2 0x29A PUSH2 0x1AC JUMP JUMPDEST JUMPDEST PUSH2 0x2A7 DUP8 DUP3 DUP9 ADD PUSH2 0x1BC JUMP JUMPDEST SWAP5 POP SWAP5 POP POP PUSH1 0x20 DUP6 ADD CALLDATALOAD PUSH8 0xFFFFFFFFFFFFFFFF DUP2 GT ISZERO PUSH2 0x2CA JUMPI PUSH2 0x2C9 PUSH2 0x1AC JUMP JUMPDEST JUMPDEST PUSH2 0x2D6 DUP8 DUP3 DUP9 ADD PUSH2 0x211 JUMP JUMPDEST SWAP3 POP SWAP3 POP POP SWAP3 SWAP6 SWAP2 SWAP5 POP SWAP3 POP JUMP JUMPDEST PUSH0 DUP2 MLOAD SWAP1 POP SWAP2 SWAP1 POP JUMP JUMPDEST PUSH0 DUP3 DUP3 MSTORE PUSH1 0x20 DUP3 ADD SWAP1 POP SWAP3 SWAP2 POP POP JUMP JUMPDEST DUP3 DUP2 DUP4 MCOPY PUSH0 DUP4 DUP4 ADD MSTORE POP POP POP JUMP JUMPDEST PUSH0 PUSH1 0x1F NOT PUSH1 0x1F DUP4 ADD AND SWAP1 POP SWAP2 SWAP1 POP JUMP JUMPDEST PUSH0 PUSH2 0x326 DUP3 PUSH2 0x2E4 JUMP JUMPDEST PUSH2 0x330 DUP2 DUP6 PUSH2 0x2EE JUMP JUMPDEST SWAP4 POP PUSH2 0x340 DUP2 DUP6 PUSH1 0x20 DUP7 ADD PUSH2 0x2FE JUMP JUMPDEST PUSH2 0x349 DUP2 PUSH2 0x30C JUMP JUMPDEST DUP5 ADD SWAP2 POP POP SWAP3 SWAP2 POP POP JUMP JUMPDEST PUSH0 PUSH1 0x20 DUP3 ADD SWAP1 POP DUP2 DUP2 SUB PUSH0 DUP4 ADD MSTORE PUSH2 0x36C DUP2 DUP5 PUSH2 0x31C JUMP JUMPDEST SWAP1 POP SWAP3 SWAP2 POP POP JUMP JUMPDEST PUSH0 DUP2 SWAP1 POP SWAP3 SWAP2 POP POP JUMP JUMPDEST DUP3 DUP2 DUP4 CALLDATACOPY PUSH0 DUP4 DUP4 ADD MSTORE POP POP POP JUMP JUMPDEST PUSH0 PUSH2 0x397 DUP4 DUP6 PUSH2 0x374 JUMP JUMPDEST SWAP4 POP PUSH2 0x3A4 DUP4 DUP6 DUP5 PUSH2 0x37E JUMP JUMPDEST DUP3 DUP5 ADD SWAP1 POP SWAP4 SWAP3 POP POP POP JUMP JUMPDEST PUSH0 PUSH2 0x3BC DUP3 DUP5 DUP7 PUSH2 0x38C JUMP JUMPDEST SWAP2 POP DUP2 SWAP1 POP SWAP4 SWAP3 POP POP POP JUMP JUMPDEST PUSH0 PUSH32 0xFFFFFFFF00000000000000000000000000000000000000000000000000000000 DUP3 AND SWAP1 POP SWAP2 SWAP1 POP JUMP JUMPDEST PUSH0 DUP2 SWAP1 POP SWAP2 SWAP1 POP JUMP JUMPDEST PUSH2 0x40D PUSH2 0x408 DUP3 PUSH2 0x3C8 JUMP JUMPDEST PUSH2 0x3F3 JUMP JUMPDEST DUP3 MSTORE POP POP JUMP JUMPDEST PUSH0 PUSH2 0x41E DUP3 DUP7 PUSH2 0x3FC JUMP JUMPDEST PUSH1 0x4 DUP3 ADD SWAP2 POP PUSH2 0x42F DUP3 DUP5 DUP7 PUSH2 0x38C JUMP JUMPDEST SWAP2 POP DUP2 SWAP1 POP SWAP5 SWAP4 POP POP POP POP JUMP JUMPDEST PUSH32 0x4E487B7100000000000000000000000000000000000000000000000000000000 PUSH0 MSTORE PUSH1 0x11 PUSH1 0x4 MSTORE PUSH1 0x24 PUSH0 REVERT JUMPDEST PUSH0 DUP2 SWAP1 POP SWAP2 SWAP1 POP JUMP JUMPDEST PUSH0 PUSH2 0x47C DUP3 PUSH2 0x469 JUMP JUMPDEST SWAP2 POP PUSH32 0xFFFFFFFFFFFFFFFFFFFFFFFFFFFFFFFFFFFFFFFFFFFFFFFFFFFFFFFFFFFFFFFF DUP3 SUB PUSH2 0x4AE JUMPI PUSH2 0x4AD PUSH2 0x43C JUMP JUMPDEST JUMPDEST PUSH1 0x1 DUP3 ADD SWAP1 POP SWAP2 SWAP1 POP JUMP JUMPDEST PUSH0 PUSH2 0x4C4 DUP4 DUP6 PUSH2 0x2EE JUMP JUMPDEST SWAP4 POP PUSH2 0x4D1 DUP4 DUP6 DUP5 PUSH2 0x37E JUMP JUMPDEST PUSH2 0x4DA DUP4 PUSH2 0x30C JUMP JUMPDEST DUP5 ADD SWAP1 POP SWAP4 SWAP3 POP POP POP JUMP JUMPDEST PUSH0 PUSH1 0x20 DUP3 ADD SWAP1 POP DUP2 DUP2 SUB PUSH0 DUP4 ADD MSTORE PUSH2 0x4FE DUP2 DUP5 DUP7 PUSH2 0x4B9 JUMP JUMPDEST SWAP1 POP SWAP4 SWAP3 POP POP POP JUMP JUMPDEST PUSH0 DUP2 SWAP1 POP SWAP3 SWAP2 POP POP JUMP JUMPDEST PUSH0 PUSH2 0x51C DUP4 DUP6 PUSH2 0x507 JUMP JUMPDEST SWAP4 POP PUSH2 0x529 DUP4 DUP6 DUP5 PUSH2 0x37E JUMP JUMPDEST DUP3 DUP5 ADD SWAP1 POP SWAP4 SWAP3 POP POP POP JUMP JUMPDEST PUSH0 PUSH2 0x541 DUP3 DUP5 DUP7 PUSH2 0x511 JUMP JUMPDEST SWAP2 POP DUP2 SWAP1 POP SWAP4 SWAP3 POP POP POP JUMP INVALID LOG2 PUSH5 0x6970667358 0x22 SLT KECCAK256 SHL GASPRICE 0xC2 DUP16 SWAP16 SWAP16 PUSH1 0xE2 0x2F PC SWAP14 0xDF 0xA6 0xC5 0xD6 0xE3 LOG0 AND PUSH27 0x318E603AEB1EB60D1FAB5145CB64736F6C634300081A0033000000 "
				},
				"gasEstimates": {
					"creation": {
						"codeDepositCost": "282200",
						"executionCost": "322",
						"totalCost": "282522"
					},
					"external": {
						"nolimitLoop()": "infinite",
						"testAbiPacked(string,bytes)": "infinite",
						"testAbiSig(string,bytes)": "infinite"
					}
				},
				"methodIdentifiers": {
					"nolimitLoop()": "f3736695",
					"testAbiPacked(string,bytes)": "57a0177e",
					"testAbiSig(string,bytes)": "f787b6f8"
				}
			},
			"storageLayout": {
				"storage": [],
				"types": null
			},
			"userdoc": {
				"kind": "user",
				"methods": {},
				"version": 1
			}
		}
	}
}