{
	"contracts/MultiCall.sol": {
		"MultiCall": {
			"abi": [
				{
					"inputs": [
						{
							"internalType": "address[]",
							"name": "targets",
							"type": "address[]"
						},
						{
							"internalType": "bytes[]",
							"name": "datas",
							"type": "bytes[]"
						}
					],
					"name": "multiCall",
					"outputs": [
						{
							"internalType": "bytes[]",
							"name": "",
							"type": "bytes[]"
						}
					],
					"stateMutability": "view",
					"type": "function"
				}
			],
			"devdoc": {
				"kind": "dev",
				"methods": {},
				"version": 1
			},
			"evm": {
				"assembly": "    /* \"contracts/MultiCall.sol\":565:1111  contract MultiCall {... */\n  mstore(0x40, 0x80)\n  callvalue\n  dup1\n  iszero\n  tag_1\n  jumpi\n  0x00\n  dup1\n  revert\ntag_1:\n  pop\n  dataSize(sub_0)\n  dup1\n  dataOffset(sub_0)\n  0x00\n  codecopy\n  0x00\n  return\nstop\n\nsub_0: assembly {\n        /* \"contracts/MultiCall.sol\":565:1111  contract MultiCall {... */\n      mstore(0x40, 0x80)\n      callvalue\n      dup1\n      iszero\n      tag_1\n      jumpi\n      0x00\n      dup1\n      revert\n    tag_1:\n      pop\n      jumpi(tag_2, lt(calldatasize, 0x04))\n      shr(0xe0, calldataload(0x00))\n      dup1\n      0xda5b4ffd\n      eq\n      tag_3\n      jumpi\n    tag_2:\n      0x00\n      dup1\n      revert\n        /* \"contracts/MultiCall.sol\":593:1108  function multiCall(address[] memory targets,bytes[] calldata datas) external view returns(bytes[] memory ) {... */\n    tag_3:\n      tag_4\n      0x04\n      dup1\n      calldatasize\n      sub\n      dup2\n      add\n      swap1\n      tag_5\n      swap2\n      swap1\n      tag_6\n      jump\t// in\n    tag_5:\n      tag_7\n      jump\t// in\n    tag_4:\n      mload(0x40)\n      tag_8\n      swap2\n      swap1\n      tag_9\n      jump\t// in\n    tag_8:\n      mload(0x40)\n      dup1\n      swap2\n      sub\n      swap1\n      return\n    tag_7:\n        /* \"contracts/MultiCall.sol\":683:697  bytes[] memory */\n      0x60\n        /* \"contracts/MultiCall.sol\":737:742  datas */\n      dup3\n      dup3\n        /* \"contracts/MultiCall.sol\":737:749  datas.length */\n      swap1\n      pop\n        /* \"contracts/MultiCall.sol\":719:726  targets */\n      dup5\n        /* \"contracts/MultiCall.sol\":719:733  targets.length */\n      mload\n        /* \"contracts/MultiCall.sol\":719:749  targets.length == datas.length */\n      eq\n        /* \"contracts/MultiCall.sol\":711:783  require(targets.length == datas.length,\"targets.length != datas.length\") */\n      tag_11\n      jumpi\n      mload(0x40)\n      0x08c379a000000000000000000000000000000000000000000000000000000000\n      dup2\n      mstore\n      0x04\n      add\n      tag_12\n      swap1\n      tag_13\n      jump\t// in\n    tag_12:\n      mload(0x40)\n      dup1\n      swap2\n      sub\n      swap1\n      revert\n    tag_11:\n        /* \"contracts/MultiCall.sol\":796:818  bytes[] memory results */\n      0x00\n        /* \"contracts/MultiCall.sol\":833:840  targets */\n      dup5\n        /* \"contracts/MultiCall.sol\":833:847  targets.length */\n      mload\n        /* \"contracts/MultiCall.sol\":821:848  new bytes[](targets.length) */\n      0xffffffffffffffff\n      dup2\n      gt\n      iszero\n      tag_14\n      jumpi\n      tag_15\n      tag_16\n      jump\t// in\n    tag_15:\n    tag_14:\n      mload(0x40)\n      swap1\n      dup1\n      dup3\n      mstore\n      dup1\n      0x20\n      mul\n      0x20\n      add\n      dup3\n      add\n      0x40\n      mstore\n      dup1\n      iszero\n      tag_17\n      jumpi\n      dup2\n      0x20\n      add\n    tag_18:\n      0x60\n      dup2\n      mstore\n      0x20\n      add\n      swap1\n      0x01\n      swap1\n      sub\n      swap1\n      dup2\n      tag_18\n      jumpi\n      swap1\n      pop\n    tag_17:\n      pop\n        /* \"contracts/MultiCall.sol\":796:848  bytes[] memory results = new bytes[](targets.length) */\n      swap1\n      pop\n        /* \"contracts/MultiCall.sol\":864:870  uint i */\n      0x00\n        /* \"contracts/MultiCall.sol\":859:1074  for (uint i = 0; i < targets.length; i++) {... */\n    tag_19:\n        /* \"contracts/MultiCall.sol\":880:887  targets */\n      dup6\n        /* \"contracts/MultiCall.sol\":880:894  targets.length */\n      mload\n        /* \"contracts/MultiCall.sol\":876:877  i */\n      dup2\n        /* \"contracts/MultiCall.sol\":876:894  i < targets.length */\n      lt\n        /* \"contracts/MultiCall.sol\":859:1074  for (uint i = 0; i < targets.length; i++) {... */\n      iszero\n      tag_20\n      jumpi\n        /* \"contracts/MultiCall.sol\":917:929  bool success */\n      0x00\n        /* \"contracts/MultiCall.sol\":930:946  bytes memory res */\n      dup1\n        /* \"contracts/MultiCall.sol\":950:957  targets */\n      dup8\n        /* \"contracts/MultiCall.sol\":958:959  i */\n      dup4\n        /* \"contracts/MultiCall.sol\":950:960  targets[i] */\n      dup2\n      mload\n      dup2\n      lt\n      tag_22\n      jumpi\n      tag_23\n      tag_24\n      jump\t// in\n    tag_23:\n    tag_22:\n      0x20\n      mul\n      0x20\n      add\n      add\n      mload\n        /* \"contracts/MultiCall.sol\":950:971  targets[i].staticcall */\n      0xffffffffffffffffffffffffffffffffffffffff\n      and\n        /* \"contracts/MultiCall.sol\":972:977  datas */\n      dup8\n      dup8\n        /* \"contracts/MultiCall.sol\":978:979  i */\n      dup6\n        /* \"contracts/MultiCall.sol\":972:980  datas[i] */\n      dup2\n      dup2\n      lt\n      tag_25\n      jumpi\n      tag_26\n      tag_24\n      jump\t// in\n    tag_26:\n    tag_25:\n      swap1\n      pop\n      0x20\n      mul\n      dup2\n      add\n      swap1\n      tag_27\n      swap2\n      swap1\n      tag_28\n      jump\t// in\n    tag_27:\n        /* \"contracts/MultiCall.sol\":950:981  targets[i].staticcall(datas[i]) */\n      mload(0x40)\n      tag_29\n      swap3\n      swap2\n      swap1\n      tag_30\n      jump\t// in\n    tag_29:\n      0x00\n      mload(0x40)\n      dup1\n      dup4\n      sub\n      dup2\n      dup6\n      gas\n      staticcall\n      swap2\n      pop\n      pop\n      returndatasize\n      dup1\n      0x00\n      dup2\n      eq\n      tag_33\n      jumpi\n      mload(0x40)\n      swap2\n      pop\n      and(add(returndatasize, 0x3f), not(0x1f))\n      dup3\n      add\n      0x40\n      mstore\n      returndatasize\n      dup3\n      mstore\n      returndatasize\n      0x00\n      0x20\n      dup5\n      add\n      returndatacopy\n      jump(tag_32)\n    tag_33:\n      0x60\n      swap2\n      pop\n    tag_32:\n      pop\n        /* \"contracts/MultiCall.sol\":916:981  (bool success,bytes memory res) = targets[i].staticcall(datas[i]) */\n      swap2\n      pop\n      swap2\n      pop\n        /* \"contracts/MultiCall.sol\":1004:1011  success */\n      dup2\n        /* \"contracts/MultiCall.sol\":996:1031  require(success,\"static call fail\") */\n      tag_34\n      jumpi\n      mload(0x40)\n      0x08c379a000000000000000000000000000000000000000000000000000000000\n      dup2\n      mstore\n      0x04\n      add\n      tag_35\n      swap1\n      tag_36\n      jump\t// in\n    tag_35:\n      mload(0x40)\n      dup1\n      swap2\n      sub\n      swap1\n      revert\n    tag_34:\n        /* \"contracts/MultiCall.sol\":1059:1062  res */\n      dup1\n        /* \"contracts/MultiCall.sol\":1046:1053  results */\n      dup5\n        /* \"contracts/MultiCall.sol\":1054:1055  i */\n      dup5\n        /* \"contracts/MultiCall.sol\":1046:1056  results[i] */\n      dup2\n      mload\n      dup2\n      lt\n      tag_37\n      jumpi\n      tag_38\n      tag_24\n      jump\t// in\n    tag_38:\n    tag_37:\n      0x20\n      mul\n      0x20\n      add\n      add\n        /* \"contracts/MultiCall.sol\":1046:1062  results[i] = res */\n      dup2\n      swap1\n      mstore\n      pop\n        /* \"contracts/MultiCall.sol\":901:1074  {... */\n      pop\n      pop\n        /* \"contracts/MultiCall.sol\":896:899  i++ */\n      dup1\n      dup1\n      0x01\n      add\n      swap2\n      pop\n      pop\n        /* \"contracts/MultiCall.sol\":859:1074  for (uint i = 0; i < targets.length; i++) {... */\n      jump(tag_19)\n    tag_20:\n      pop\n        /* \"contracts/MultiCall.sol\":1093:1100  results */\n      dup1\n        /* \"contracts/MultiCall.sol\":1086:1100  return results */\n      swap2\n      pop\n      pop\n        /* \"contracts/MultiCall.sol\":593:1108  function multiCall(address[] memory targets,bytes[] calldata datas) external view returns(bytes[] memory ) {... */\n      swap4\n      swap3\n      pop\n      pop\n      pop\n      jump\t// out\n        /* \"#utility.yul\":7:82   */\n    tag_39:\n        /* \"#utility.yul\":40:46   */\n      0x00\n        /* \"#utility.yul\":73:75   */\n      0x40\n        /* \"#utility.yul\":67:76   */\n      mload\n        /* \"#utility.yul\":57:76   */\n      swap1\n      pop\n        /* \"#utility.yul\":7:82   */\n      swap1\n      jump\t// out\n        /* \"#utility.yul\":88:205   */\n    tag_40:\n        /* \"#utility.yul\":197:198   */\n      0x00\n        /* \"#utility.yul\":194:195   */\n      dup1\n        /* \"#utility.yul\":187:199   */\n      revert\n        /* \"#utility.yul\":211:328   */\n    tag_41:\n        /* \"#utility.yul\":320:321   */\n      0x00\n        /* \"#utility.yul\":317:318   */\n      dup1\n        /* \"#utility.yul\":310:322   */\n      revert\n        /* \"#utility.yul\":334:451   */\n    tag_42:\n        /* \"#utility.yul\":443:444   */\n      0x00\n        /* \"#utility.yul\":440:441   */\n      dup1\n        /* \"#utility.yul\":433:445   */\n      revert\n        /* \"#utility.yul\":457:559   */\n    tag_43:\n        /* \"#utility.yul\":498:504   */\n      0x00\n        /* \"#utility.yul\":549:551   */\n      0x1f\n        /* \"#utility.yul\":545:552   */\n      not\n        /* \"#utility.yul\":540:542   */\n      0x1f\n        /* \"#utility.yul\":533:538   */\n      dup4\n        /* \"#utility.yul\":529:543   */\n      add\n        /* \"#utility.yul\":525:553   */\n      and\n        /* \"#utility.yul\":515:553   */\n      swap1\n      pop\n        /* \"#utility.yul\":457:559   */\n      swap2\n      swap1\n      pop\n      jump\t// out\n        /* \"#utility.yul\":565:745   */\n    tag_16:\n        /* \"#utility.yul\":613:690   */\n      0x4e487b7100000000000000000000000000000000000000000000000000000000\n        /* \"#utility.yul\":610:611   */\n      0x00\n        /* \"#utility.yul\":603:691   */\n      mstore\n        /* \"#utility.yul\":710:714   */\n      0x41\n        /* \"#utility.yul\":707:708   */\n      0x04\n        /* \"#utility.yul\":700:715   */\n      mstore\n        /* \"#utility.yul\":734:738   */\n      0x24\n        /* \"#utility.yul\":731:732   */\n      0x00\n        /* \"#utility.yul\":724:739   */\n      revert\n        /* \"#utility.yul\":751:1032   */\n    tag_44:\n        /* \"#utility.yul\":834:861   */\n      tag_85\n        /* \"#utility.yul\":856:860   */\n      dup3\n        /* \"#utility.yul\":834:861   */\n      tag_43\n      jump\t// in\n    tag_85:\n        /* \"#utility.yul\":826:832   */\n      dup2\n        /* \"#utility.yul\":822:862   */\n      add\n        /* \"#utility.yul\":964:970   */\n      dup2\n        /* \"#utility.yul\":952:962   */\n      dup2\n        /* \"#utility.yul\":949:971   */\n      lt\n        /* \"#utility.yul\":928:946   */\n      0xffffffffffffffff\n        /* \"#utility.yul\":916:926   */\n      dup3\n        /* \"#utility.yul\":913:947   */\n      gt\n        /* \"#utility.yul\":910:972   */\n      or\n        /* \"#utility.yul\":907:995   */\n      iszero\n      tag_86\n      jumpi\n        /* \"#utility.yul\":975:993   */\n      tag_87\n      tag_16\n      jump\t// in\n    tag_87:\n        /* \"#utility.yul\":907:995   */\n    tag_86:\n        /* \"#utility.yul\":1015:1025   */\n      dup1\n        /* \"#utility.yul\":1011:1013   */\n      0x40\n        /* \"#utility.yul\":1004:1026   */\n      mstore\n        /* \"#utility.yul\":794:1032   */\n      pop\n        /* \"#utility.yul\":751:1032   */\n      pop\n      pop\n      jump\t// out\n        /* \"#utility.yul\":1038:1167   */\n    tag_45:\n        /* \"#utility.yul\":1072:1078   */\n      0x00\n        /* \"#utility.yul\":1099:1119   */\n      tag_89\n      tag_39\n      jump\t// in\n    tag_89:\n        /* \"#utility.yul\":1089:1119   */\n      swap1\n      pop\n        /* \"#utility.yul\":1128:1161   */\n      tag_90\n        /* \"#utility.yul\":1156:1160   */\n      dup3\n        /* \"#utility.yul\":1148:1154   */\n      dup3\n        /* \"#utility.yul\":1128:1161   */\n      tag_44\n      jump\t// in\n    tag_90:\n        /* \"#utility.yul\":1038:1167   */\n      swap2\n      swap1\n      pop\n      jump\t// out\n        /* \"#utility.yul\":1173:1484   */\n    tag_46:\n        /* \"#utility.yul\":1250:1254   */\n      0x00\n        /* \"#utility.yul\":1340:1358   */\n      0xffffffffffffffff\n        /* \"#utility.yul\":1332:1338   */\n      dup3\n        /* \"#utility.yul\":1329:1359   */\n      gt\n        /* \"#utility.yul\":1326:1382   */\n      iszero\n      tag_92\n      jumpi\n        /* \"#utility.yul\":1362:1380   */\n      tag_93\n      tag_16\n      jump\t// in\n    tag_93:\n        /* \"#utility.yul\":1326:1382   */\n    tag_92:\n        /* \"#utility.yul\":1412:1416   */\n      0x20\n        /* \"#utility.yul\":1404:1410   */\n      dup3\n        /* \"#utility.yul\":1400:1417   */\n      mul\n        /* \"#utility.yul\":1392:1417   */\n      swap1\n      pop\n        /* \"#utility.yul\":1472:1476   */\n      0x20\n        /* \"#utility.yul\":1466:1470   */\n      dup2\n        /* \"#utility.yul\":1462:1477   */\n      add\n        /* \"#utility.yul\":1454:1477   */\n      swap1\n      pop\n        /* \"#utility.yul\":1173:1484   */\n      swap2\n      swap1\n      pop\n      jump\t// out\n        /* \"#utility.yul\":1490:1607   */\n    tag_47:\n        /* \"#utility.yul\":1599:1600   */\n      0x00\n        /* \"#utility.yul\":1596:1597   */\n      dup1\n        /* \"#utility.yul\":1589:1601   */\n      revert\n        /* \"#utility.yul\":1613:1739   */\n    tag_48:\n        /* \"#utility.yul\":1650:1657   */\n      0x00\n        /* \"#utility.yul\":1690:1732   */\n      0xffffffffffffffffffffffffffffffffffffffff\n        /* \"#utility.yul\":1683:1688   */\n      dup3\n        /* \"#utility.yul\":1679:1733   */\n      and\n        /* \"#utility.yul\":1668:1733   */\n      swap1\n      pop\n        /* \"#utility.yul\":1613:1739   */\n      swap2\n      swap1\n      pop\n      jump\t// out\n        /* \"#utility.yul\":1745:1841   */\n    tag_49:\n        /* \"#utility.yul\":1782:1789   */\n      0x00\n        /* \"#utility.yul\":1811:1835   */\n      tag_97\n        /* \"#utility.yul\":1829:1834   */\n      dup3\n        /* \"#utility.yul\":1811:1835   */\n      tag_48\n      jump\t// in\n    tag_97:\n        /* \"#utility.yul\":1800:1835   */\n      swap1\n      pop\n        /* \"#utility.yul\":1745:1841   */\n      swap2\n      swap1\n      pop\n      jump\t// out\n        /* \"#utility.yul\":1847:1969   */\n    tag_50:\n        /* \"#utility.yul\":1920:1944   */\n      tag_99\n        /* \"#utility.yul\":1938:1943   */\n      dup2\n        /* \"#utility.yul\":1920:1944   */\n      tag_49\n      jump\t// in\n    tag_99:\n        /* \"#utility.yul\":1913:1918   */\n      dup2\n        /* \"#utility.yul\":1910:1945   */\n      eq\n        /* \"#utility.yul\":1900:1963   */\n      tag_100\n      jumpi\n        /* \"#utility.yul\":1959:1960   */\n      0x00\n        /* \"#utility.yul\":1956:1957   */\n      dup1\n        /* \"#utility.yul\":1949:1961   */\n      revert\n        /* \"#utility.yul\":1900:1963   */\n    tag_100:\n        /* \"#utility.yul\":1847:1969   */\n      pop\n      jump\t// out\n        /* \"#utility.yul\":1975:2114   */\n    tag_51:\n        /* \"#utility.yul\":2021:2026   */\n      0x00\n        /* \"#utility.yul\":2059:2065   */\n      dup2\n        /* \"#utility.yul\":2046:2066   */\n      calldataload\n        /* \"#utility.yul\":2037:2066   */\n      swap1\n      pop\n        /* \"#utility.yul\":2075:2108   */\n      tag_102\n        /* \"#utility.yul\":2102:2107   */\n      dup2\n        /* \"#utility.yul\":2075:2108   */\n      tag_50\n      jump\t// in\n    tag_102:\n        /* \"#utility.yul\":1975:2114   */\n      swap3\n      swap2\n      pop\n      pop\n      jump\t// out\n        /* \"#utility.yul\":2137:2847   */\n    tag_52:\n        /* \"#utility.yul\":2233:2238   */\n      0x00\n        /* \"#utility.yul\":2258:2339   */\n      tag_104\n        /* \"#utility.yul\":2274:2338   */\n      tag_105\n        /* \"#utility.yul\":2331:2337   */\n      dup5\n        /* \"#utility.yul\":2274:2338   */\n      tag_46\n      jump\t// in\n    tag_105:\n        /* \"#utility.yul\":2258:2339   */\n      tag_45\n      jump\t// in\n    tag_104:\n        /* \"#utility.yul\":2249:2339   */\n      swap1\n      pop\n        /* \"#utility.yul\":2359:2364   */\n      dup1\n        /* \"#utility.yul\":2388:2394   */\n      dup4\n        /* \"#utility.yul\":2381:2386   */\n      dup3\n        /* \"#utility.yul\":2374:2395   */\n      mstore\n        /* \"#utility.yul\":2422:2426   */\n      0x20\n        /* \"#utility.yul\":2415:2420   */\n      dup3\n        /* \"#utility.yul\":2411:2427   */\n      add\n        /* \"#utility.yul\":2404:2427   */\n      swap1\n      pop\n        /* \"#utility.yul\":2475:2479   */\n      0x20\n        /* \"#utility.yul\":2467:2473   */\n      dup5\n        /* \"#utility.yul\":2463:2480   */\n      mul\n        /* \"#utility.yul\":2455:2461   */\n      dup4\n        /* \"#utility.yul\":2451:2481   */\n      add\n        /* \"#utility.yul\":2504:2507   */\n      dup6\n        /* \"#utility.yul\":2496:2502   */\n      dup2\n        /* \"#utility.yul\":2493:2508   */\n      gt\n        /* \"#utility.yul\":2490:2612   */\n      iszero\n      tag_106\n      jumpi\n        /* \"#utility.yul\":2523:2602   */\n      tag_107\n      tag_47\n      jump\t// in\n    tag_107:\n        /* \"#utility.yul\":2490:2612   */\n    tag_106:\n        /* \"#utility.yul\":2638:2644   */\n      dup4\n        /* \"#utility.yul\":2621:2841   */\n    tag_108:\n        /* \"#utility.yul\":2655:2661   */\n      dup2\n        /* \"#utility.yul\":2650:2653   */\n      dup2\n        /* \"#utility.yul\":2647:2662   */\n      lt\n        /* \"#utility.yul\":2621:2841   */\n      iszero\n      tag_110\n      jumpi\n        /* \"#utility.yul\":2730:2733   */\n      dup1\n        /* \"#utility.yul\":2759:2796   */\n      tag_111\n        /* \"#utility.yul\":2792:2795   */\n      dup9\n        /* \"#utility.yul\":2780:2790   */\n      dup3\n        /* \"#utility.yul\":2759:2796   */\n      tag_51\n      jump\t// in\n    tag_111:\n        /* \"#utility.yul\":2754:2757   */\n      dup5\n        /* \"#utility.yul\":2747:2797   */\n      mstore\n        /* \"#utility.yul\":2826:2830   */\n      0x20\n        /* \"#utility.yul\":2821:2824   */\n      dup5\n        /* \"#utility.yul\":2817:2831   */\n      add\n        /* \"#utility.yul\":2810:2831   */\n      swap4\n      pop\n        /* \"#utility.yul\":2697:2841   */\n      pop\n        /* \"#utility.yul\":2681:2685   */\n      0x20\n        /* \"#utility.yul\":2676:2679   */\n      dup2\n        /* \"#utility.yul\":2672:2686   */\n      add\n        /* \"#utility.yul\":2665:2686   */\n      swap1\n      pop\n        /* \"#utility.yul\":2621:2841   */\n      jump(tag_108)\n    tag_110:\n        /* \"#utility.yul\":2625:2646   */\n      pop\n        /* \"#utility.yul\":2239:2847   */\n      pop\n      pop\n        /* \"#utility.yul\":2137:2847   */\n      swap4\n      swap3\n      pop\n      pop\n      pop\n      jump\t// out\n        /* \"#utility.yul\":2870:3240   */\n    tag_53:\n        /* \"#utility.yul\":2941:2946   */\n      0x00\n        /* \"#utility.yul\":2990:2993   */\n      dup3\n        /* \"#utility.yul\":2983:2987   */\n      0x1f\n        /* \"#utility.yul\":2975:2981   */\n      dup4\n        /* \"#utility.yul\":2971:2988   */\n      add\n        /* \"#utility.yul\":2967:2994   */\n      slt\n        /* \"#utility.yul\":2957:3079   */\n      tag_113\n      jumpi\n        /* \"#utility.yul\":2998:3077   */\n      tag_114\n      tag_42\n      jump\t// in\n    tag_114:\n        /* \"#utility.yul\":2957:3079   */\n    tag_113:\n        /* \"#utility.yul\":3115:3121   */\n      dup2\n        /* \"#utility.yul\":3102:3122   */\n      calldataload\n        /* \"#utility.yul\":3140:3234   */\n      tag_115\n        /* \"#utility.yul\":3230:3233   */\n      dup5\n        /* \"#utility.yul\":3222:3228   */\n      dup3\n        /* \"#utility.yul\":3215:3219   */\n      0x20\n        /* \"#utility.yul\":3207:3213   */\n      dup7\n        /* \"#utility.yul\":3203:3220   */\n      add\n        /* \"#utility.yul\":3140:3234   */\n      tag_52\n      jump\t// in\n    tag_115:\n        /* \"#utility.yul\":3131:3234   */\n      swap2\n      pop\n        /* \"#utility.yul\":2947:3240   */\n      pop\n        /* \"#utility.yul\":2870:3240   */\n      swap3\n      swap2\n      pop\n      pop\n      jump\t// out\n        /* \"#utility.yul\":3246:3363   */\n    tag_54:\n        /* \"#utility.yul\":3355:3356   */\n      0x00\n        /* \"#utility.yul\":3352:3353   */\n      dup1\n        /* \"#utility.yul\":3345:3357   */\n      revert\n        /* \"#utility.yul\":3384:3963   */\n    tag_55:\n        /* \"#utility.yul\":3468:3476   */\n      0x00\n        /* \"#utility.yul\":3478:3484   */\n      dup1\n        /* \"#utility.yul\":3528:3531   */\n      dup4\n        /* \"#utility.yul\":3521:3525   */\n      0x1f\n        /* \"#utility.yul\":3513:3519   */\n      dup5\n        /* \"#utility.yul\":3509:3526   */\n      add\n        /* \"#utility.yul\":3505:3532   */\n      slt\n        /* \"#utility.yul\":3495:3617   */\n      tag_118\n      jumpi\n        /* \"#utility.yul\":3536:3615   */\n      tag_119\n      tag_42\n      jump\t// in\n    tag_119:\n        /* \"#utility.yul\":3495:3617   */\n    tag_118:\n        /* \"#utility.yul\":3649:3655   */\n      dup3\n        /* \"#utility.yul\":3636:3656   */\n      calldataload\n        /* \"#utility.yul\":3626:3656   */\n      swap1\n      pop\n        /* \"#utility.yul\":3679:3697   */\n      0xffffffffffffffff\n        /* \"#utility.yul\":3671:3677   */\n      dup2\n        /* \"#utility.yul\":3668:3698   */\n      gt\n        /* \"#utility.yul\":3665:3782   */\n      iszero\n      tag_120\n      jumpi\n        /* \"#utility.yul\":3701:3780   */\n      tag_121\n      tag_54\n      jump\t// in\n    tag_121:\n        /* \"#utility.yul\":3665:3782   */\n    tag_120:\n        /* \"#utility.yul\":3815:3819   */\n      0x20\n        /* \"#utility.yul\":3807:3813   */\n      dup4\n        /* \"#utility.yul\":3803:3820   */\n      add\n        /* \"#utility.yul\":3791:3820   */\n      swap2\n      pop\n        /* \"#utility.yul\":3869:3872   */\n      dup4\n        /* \"#utility.yul\":3861:3865   */\n      0x20\n        /* \"#utility.yul\":3853:3859   */\n      dup3\n        /* \"#utility.yul\":3849:3866   */\n      mul\n        /* \"#utility.yul\":3839:3847   */\n      dup4\n        /* \"#utility.yul\":3835:3867   */\n      add\n        /* \"#utility.yul\":3832:3873   */\n      gt\n        /* \"#utility.yul\":3829:3957   */\n      iszero\n      tag_122\n      jumpi\n        /* \"#utility.yul\":3876:3955   */\n      tag_123\n      tag_47\n      jump\t// in\n    tag_123:\n        /* \"#utility.yul\":3829:3957   */\n    tag_122:\n        /* \"#utility.yul\":3384:3963   */\n      swap3\n      pop\n      swap3\n      swap1\n      pop\n      jump\t// out\n        /* \"#utility.yul\":3969:4905   */\n    tag_6:\n        /* \"#utility.yul\":4100:4106   */\n      0x00\n        /* \"#utility.yul\":4108:4114   */\n      dup1\n        /* \"#utility.yul\":4116:4122   */\n      0x00\n        /* \"#utility.yul\":4165:4167   */\n      0x40\n        /* \"#utility.yul\":4153:4162   */\n      dup5\n        /* \"#utility.yul\":4144:4151   */\n      dup7\n        /* \"#utility.yul\":4140:4163   */\n      sub\n        /* \"#utility.yul\":4136:4168   */\n      slt\n        /* \"#utility.yul\":4133:4252   */\n      iszero\n      tag_125\n      jumpi\n        /* \"#utility.yul\":4171:4250   */\n      tag_126\n      tag_40\n      jump\t// in\n    tag_126:\n        /* \"#utility.yul\":4133:4252   */\n    tag_125:\n        /* \"#utility.yul\":4319:4320   */\n      0x00\n        /* \"#utility.yul\":4308:4317   */\n      dup5\n        /* \"#utility.yul\":4304:4321   */\n      add\n        /* \"#utility.yul\":4291:4322   */\n      calldataload\n        /* \"#utility.yul\":4349:4367   */\n      0xffffffffffffffff\n        /* \"#utility.yul\":4341:4347   */\n      dup2\n        /* \"#utility.yul\":4338:4368   */\n      gt\n        /* \"#utility.yul\":4335:4452   */\n      iszero\n      tag_127\n      jumpi\n        /* \"#utility.yul\":4371:4450   */\n      tag_128\n      tag_41\n      jump\t// in\n    tag_128:\n        /* \"#utility.yul\":4335:4452   */\n    tag_127:\n        /* \"#utility.yul\":4476:4554   */\n      tag_129\n        /* \"#utility.yul\":4546:4553   */\n      dup7\n        /* \"#utility.yul\":4537:4543   */\n      dup3\n        /* \"#utility.yul\":4526:4535   */\n      dup8\n        /* \"#utility.yul\":4522:4544   */\n      add\n        /* \"#utility.yul\":4476:4554   */\n      tag_53\n      jump\t// in\n    tag_129:\n        /* \"#utility.yul\":4466:4554   */\n      swap4\n      pop\n        /* \"#utility.yul\":4262:4564   */\n      pop\n        /* \"#utility.yul\":4631:4633   */\n      0x20\n        /* \"#utility.yul\":4620:4629   */\n      dup5\n        /* \"#utility.yul\":4616:4634   */\n      add\n        /* \"#utility.yul\":4603:4635   */\n      calldataload\n        /* \"#utility.yul\":4662:4680   */\n      0xffffffffffffffff\n        /* \"#utility.yul\":4654:4660   */\n      dup2\n        /* \"#utility.yul\":4651:4681   */\n      gt\n        /* \"#utility.yul\":4648:4765   */\n      iszero\n      tag_130\n      jumpi\n        /* \"#utility.yul\":4684:4763   */\n      tag_131\n      tag_41\n      jump\t// in\n    tag_131:\n        /* \"#utility.yul\":4648:4765   */\n    tag_130:\n        /* \"#utility.yul\":4797:4888   */\n      tag_132\n        /* \"#utility.yul\":4880:4887   */\n      dup7\n        /* \"#utility.yul\":4871:4877   */\n      dup3\n        /* \"#utility.yul\":4860:4869   */\n      dup8\n        /* \"#utility.yul\":4856:4878   */\n      add\n        /* \"#utility.yul\":4797:4888   */\n      tag_55\n      jump\t// in\n    tag_132:\n        /* \"#utility.yul\":4779:4888   */\n      swap3\n      pop\n      swap3\n      pop\n        /* \"#utility.yul\":4574:4898   */\n      pop\n        /* \"#utility.yul\":3969:4905   */\n      swap3\n      pop\n      swap3\n      pop\n      swap3\n      jump\t// out\n        /* \"#utility.yul\":4911:5034   */\n    tag_56:\n        /* \"#utility.yul\":4987:4993   */\n      0x00\n        /* \"#utility.yul\":5021:5026   */\n      dup2\n        /* \"#utility.yul\":5015:5027   */\n      mload\n        /* \"#utility.yul\":5005:5027   */\n      swap1\n      pop\n        /* \"#utility.yul\":4911:5034   */\n      swap2\n      swap1\n      pop\n      jump\t// out\n        /* \"#utility.yul\":5040:5233   */\n    tag_57:\n        /* \"#utility.yul\":5148:5159   */\n      0x00\n        /* \"#utility.yul\":5182:5188   */\n      dup3\n        /* \"#utility.yul\":5177:5180   */\n      dup3\n        /* \"#utility.yul\":5170:5189   */\n      mstore\n        /* \"#utility.yul\":5222:5226   */\n      0x20\n        /* \"#utility.yul\":5217:5220   */\n      dup3\n        /* \"#utility.yul\":5213:5227   */\n      add\n        /* \"#utility.yul\":5198:5227   */\n      swap1\n      pop\n        /* \"#utility.yul\":5040:5233   */\n      swap3\n      swap2\n      pop\n      pop\n      jump\t// out\n        /* \"#utility.yul\":5239:5380   */\n    tag_58:\n        /* \"#utility.yul\":5315:5319   */\n      0x00\n        /* \"#utility.yul\":5338:5341   */\n      dup2\n        /* \"#utility.yul\":5330:5341   */\n      swap1\n      pop\n        /* \"#utility.yul\":5368:5372   */\n      0x20\n        /* \"#utility.yul\":5363:5366   */\n      dup3\n        /* \"#utility.yul\":5359:5373   */\n      add\n        /* \"#utility.yul\":5351:5373   */\n      swap1\n      pop\n        /* \"#utility.yul\":5239:5380   */\n      swap2\n      swap1\n      pop\n      jump\t// out\n        /* \"#utility.yul\":5386:5484   */\n    tag_59:\n        /* \"#utility.yul\":5437:5443   */\n      0x00\n        /* \"#utility.yul\":5471:5476   */\n      dup2\n        /* \"#utility.yul\":5465:5477   */\n      mload\n        /* \"#utility.yul\":5455:5477   */\n      swap1\n      pop\n        /* \"#utility.yul\":5386:5484   */\n      swap2\n      swap1\n      pop\n      jump\t// out\n        /* \"#utility.yul\":5490:5648   */\n    tag_60:\n        /* \"#utility.yul\":5563:5574   */\n      0x00\n        /* \"#utility.yul\":5597:5603   */\n      dup3\n        /* \"#utility.yul\":5592:5595   */\n      dup3\n        /* \"#utility.yul\":5585:5604   */\n      mstore\n        /* \"#utility.yul\":5637:5641   */\n      0x20\n        /* \"#utility.yul\":5632:5635   */\n      dup3\n        /* \"#utility.yul\":5628:5642   */\n      add\n        /* \"#utility.yul\":5613:5642   */\n      swap1\n      pop\n        /* \"#utility.yul\":5490:5648   */\n      swap3\n      swap2\n      pop\n      pop\n      jump\t// out\n        /* \"#utility.yul\":5654:5793   */\n    tag_61:\n        /* \"#utility.yul\":5743:5749   */\n      dup3\n        /* \"#utility.yul\":5738:5741   */\n      dup2\n        /* \"#utility.yul\":5733:5736   */\n      dup4\n        /* \"#utility.yul\":5727:5750   */\n      mcopy\n        /* \"#utility.yul\":5784:5785   */\n      0x00\n        /* \"#utility.yul\":5775:5781   */\n      dup4\n        /* \"#utility.yul\":5770:5773   */\n      dup4\n        /* \"#utility.yul\":5766:5782   */\n      add\n        /* \"#utility.yul\":5759:5786   */\n      mstore\n        /* \"#utility.yul\":5654:5793   */\n      pop\n      pop\n      pop\n      jump\t// out\n        /* \"#utility.yul\":5799:6152   */\n    tag_62:\n        /* \"#utility.yul\":5875:5878   */\n      0x00\n        /* \"#utility.yul\":5903:5941   */\n      tag_140\n        /* \"#utility.yul\":5935:5940   */\n      dup3\n        /* \"#utility.yul\":5903:5941   */\n      tag_59\n      jump\t// in\n    tag_140:\n        /* \"#utility.yul\":5957:6017   */\n      tag_141\n        /* \"#utility.yul\":6010:6016   */\n      dup2\n        /* \"#utility.yul\":6005:6008   */\n      dup6\n        /* \"#utility.yul\":5957:6017   */\n      tag_60\n      jump\t// in\n    tag_141:\n        /* \"#utility.yul\":5950:6017   */\n      swap4\n      pop\n        /* \"#utility.yul\":6026:6091   */\n      tag_142\n        /* \"#utility.yul\":6084:6090   */\n      dup2\n        /* \"#utility.yul\":6079:6082   */\n      dup6\n        /* \"#utility.yul\":6072:6076   */\n      0x20\n        /* \"#utility.yul\":6065:6070   */\n      dup7\n        /* \"#utility.yul\":6061:6077   */\n      add\n        /* \"#utility.yul\":6026:6091   */\n      tag_61\n      jump\t// in\n    tag_142:\n        /* \"#utility.yul\":6116:6145   */\n      tag_143\n        /* \"#utility.yul\":6138:6144   */\n      dup2\n        /* \"#utility.yul\":6116:6145   */\n      tag_43\n      jump\t// in\n    tag_143:\n        /* \"#utility.yul\":6111:6114   */\n      dup5\n        /* \"#utility.yul\":6107:6146   */\n      add\n        /* \"#utility.yul\":6100:6146   */\n      swap2\n      pop\n        /* \"#utility.yul\":5879:6152   */\n      pop\n        /* \"#utility.yul\":5799:6152   */\n      swap3\n      swap2\n      pop\n      pop\n      jump\t// out\n        /* \"#utility.yul\":6158:6350   */\n    tag_63:\n        /* \"#utility.yul\":6245:6255   */\n      0x00\n        /* \"#utility.yul\":6280:6344   */\n      tag_145\n        /* \"#utility.yul\":6340:6343   */\n      dup4\n        /* \"#utility.yul\":6332:6338   */\n      dup4\n        /* \"#utility.yul\":6280:6344   */\n      tag_62\n      jump\t// in\n    tag_145:\n        /* \"#utility.yul\":6266:6344   */\n      swap1\n      pop\n        /* \"#utility.yul\":6158:6350   */\n      swap3\n      swap2\n      pop\n      pop\n      jump\t// out\n        /* \"#utility.yul\":6356:6478   */\n    tag_64:\n        /* \"#utility.yul\":6435:6439   */\n      0x00\n        /* \"#utility.yul\":6467:6471   */\n      0x20\n        /* \"#utility.yul\":6462:6465   */\n      dup3\n        /* \"#utility.yul\":6458:6472   */\n      add\n        /* \"#utility.yul\":6450:6472   */\n      swap1\n      pop\n        /* \"#utility.yul\":6356:6478   */\n      swap2\n      swap1\n      pop\n      jump\t// out\n        /* \"#utility.yul\":6510:7493   */\n    tag_65:\n        /* \"#utility.yul\":6647:6650   */\n      0x00\n        /* \"#utility.yul\":6676:6739   */\n      tag_148\n        /* \"#utility.yul\":6733:6738   */\n      dup3\n        /* \"#utility.yul\":6676:6739   */\n      tag_56\n      jump\t// in\n    tag_148:\n        /* \"#utility.yul\":6755:6850   */\n      tag_149\n        /* \"#utility.yul\":6843:6849   */\n      dup2\n        /* \"#utility.yul\":6838:6841   */\n      dup6\n        /* \"#utility.yul\":6755:6850   */\n      tag_57\n      jump\t// in\n    tag_149:\n        /* \"#utility.yul\":6748:6850   */\n      swap4\n      pop\n        /* \"#utility.yul\":6876:6879   */\n      dup4\n        /* \"#utility.yul\":6921:6925   */\n      0x20\n        /* \"#utility.yul\":6913:6919   */\n      dup3\n        /* \"#utility.yul\":6909:6926   */\n      mul\n        /* \"#utility.yul\":6904:6907   */\n      dup6\n        /* \"#utility.yul\":6900:6927   */\n      add\n        /* \"#utility.yul\":6951:7016   */\n      tag_150\n        /* \"#utility.yul\":7010:7015   */\n      dup6\n        /* \"#utility.yul\":6951:7016   */\n      tag_58\n      jump\t// in\n    tag_150:\n        /* \"#utility.yul\":7039:7046   */\n      dup1\n        /* \"#utility.yul\":7070:7071   */\n      0x00\n        /* \"#utility.yul\":7055:7448   */\n    tag_151:\n        /* \"#utility.yul\":7080:7086   */\n      dup6\n        /* \"#utility.yul\":7077:7078   */\n      dup2\n        /* \"#utility.yul\":7074:7087   */\n      lt\n        /* \"#utility.yul\":7055:7448   */\n      iszero\n      tag_153\n      jumpi\n        /* \"#utility.yul\":7151:7160   */\n      dup5\n        /* \"#utility.yul\":7145:7149   */\n      dup5\n        /* \"#utility.yul\":7141:7161   */\n      sub\n        /* \"#utility.yul\":7136:7139   */\n      dup10\n        /* \"#utility.yul\":7129:7162   */\n      mstore\n        /* \"#utility.yul\":7202:7208   */\n      dup2\n        /* \"#utility.yul\":7196:7209   */\n      mload\n        /* \"#utility.yul\":7230:7312   */\n      tag_154\n        /* \"#utility.yul\":7307:7311   */\n      dup6\n        /* \"#utility.yul\":7292:7305   */\n      dup3\n        /* \"#utility.yul\":7230:7312   */\n      tag_63\n      jump\t// in\n    tag_154:\n        /* \"#utility.yul\":7222:7312   */\n      swap5\n      pop\n        /* \"#utility.yul\":7335:7404   */\n      tag_155\n        /* \"#utility.yul\":7397:7403   */\n      dup4\n        /* \"#utility.yul\":7335:7404   */\n      tag_64\n      jump\t// in\n    tag_155:\n        /* \"#utility.yul\":7325:7404   */\n      swap3\n      pop\n        /* \"#utility.yul\":7433:7437   */\n      0x20\n        /* \"#utility.yul\":7428:7431   */\n      dup11\n        /* \"#utility.yul\":7424:7438   */\n      add\n        /* \"#utility.yul\":7417:7438   */\n      swap10\n      pop\n        /* \"#utility.yul\":7115:7448   */\n      pop\n        /* \"#utility.yul\":7102:7103   */\n      0x01\n        /* \"#utility.yul\":7099:7100   */\n      dup2\n        /* \"#utility.yul\":7095:7104   */\n      add\n        /* \"#utility.yul\":7090:7104   */\n      swap1\n      pop\n        /* \"#utility.yul\":7055:7448   */\n      jump(tag_151)\n    tag_153:\n        /* \"#utility.yul\":7059:7073   */\n      pop\n        /* \"#utility.yul\":7464:7468   */\n      dup3\n        /* \"#utility.yul\":7457:7468   */\n      swap8\n      pop\n        /* \"#utility.yul\":7484:7487   */\n      dup8\n        /* \"#utility.yul\":7477:7487   */\n      swap6\n      pop\n        /* \"#utility.yul\":6652:7493   */\n      pop\n      pop\n      pop\n      pop\n      pop\n        /* \"#utility.yul\":6510:7493   */\n      swap3\n      swap2\n      pop\n      pop\n      jump\t// out\n        /* \"#utility.yul\":7499:7908   */\n    tag_9:\n        /* \"#utility.yul\":7660:7664   */\n      0x00\n        /* \"#utility.yul\":7698:7700   */\n      0x20\n        /* \"#utility.yul\":7687:7696   */\n      dup3\n        /* \"#utility.yul\":7683:7701   */\n      add\n        /* \"#utility.yul\":7675:7701   */\n      swap1\n      pop\n        /* \"#utility.yul\":7747:7756   */\n      dup2\n        /* \"#utility.yul\":7741:7745   */\n      dup2\n        /* \"#utility.yul\":7737:7757   */\n      sub\n        /* \"#utility.yul\":7733:7734   */\n      0x00\n        /* \"#utility.yul\":7722:7731   */\n      dup4\n        /* \"#utility.yul\":7718:7735   */\n      add\n        /* \"#utility.yul\":7711:7758   */\n      mstore\n        /* \"#utility.yul\":7775:7901   */\n      tag_157\n        /* \"#utility.yul\":7896:7900   */\n      dup2\n        /* \"#utility.yul\":7887:7893   */\n      dup5\n        /* \"#utility.yul\":7775:7901   */\n      tag_65\n      jump\t// in\n    tag_157:\n        /* \"#utility.yul\":7767:7901   */\n      swap1\n      pop\n        /* \"#utility.yul\":7499:7908   */\n      swap3\n      swap2\n      pop\n      pop\n      jump\t// out\n        /* \"#utility.yul\":7914:8083   */\n    tag_66:\n        /* \"#utility.yul\":7998:8009   */\n      0x00\n        /* \"#utility.yul\":8032:8038   */\n      dup3\n        /* \"#utility.yul\":8027:8030   */\n      dup3\n        /* \"#utility.yul\":8020:8039   */\n      mstore\n        /* \"#utility.yul\":8072:8076   */\n      0x20\n        /* \"#utility.yul\":8067:8070   */\n      dup3\n        /* \"#utility.yul\":8063:8077   */\n      add\n        /* \"#utility.yul\":8048:8077   */\n      swap1\n      pop\n        /* \"#utility.yul\":7914:8083   */\n      swap3\n      swap2\n      pop\n      pop\n      jump\t// out\n        /* \"#utility.yul\":8089:8269   */\n    tag_67:\n        /* \"#utility.yul\":8229:8261   */\n      0x746172676574732e6c656e67746820213d2064617461732e6c656e6774680000\n        /* \"#utility.yul\":8225:8226   */\n      0x00\n        /* \"#utility.yul\":8217:8223   */\n      dup3\n        /* \"#utility.yul\":8213:8227   */\n      add\n        /* \"#utility.yul\":8206:8262   */\n      mstore\n        /* \"#utility.yul\":8089:8269   */\n      pop\n      jump\t// out\n        /* \"#utility.yul\":8275:8641   */\n    tag_68:\n        /* \"#utility.yul\":8417:8420   */\n      0x00\n        /* \"#utility.yul\":8438:8505   */\n      tag_161\n        /* \"#utility.yul\":8502:8504   */\n      0x1e\n        /* \"#utility.yul\":8497:8500   */\n      dup4\n        /* \"#utility.yul\":8438:8505   */\n      tag_66\n      jump\t// in\n    tag_161:\n        /* \"#utility.yul\":8431:8505   */\n      swap2\n      pop\n        /* \"#utility.yul\":8514:8607   */\n      tag_162\n        /* \"#utility.yul\":8603:8606   */\n      dup3\n        /* \"#utility.yul\":8514:8607   */\n      tag_67\n      jump\t// in\n    tag_162:\n        /* \"#utility.yul\":8632:8634   */\n      0x20\n        /* \"#utility.yul\":8627:8630   */\n      dup3\n        /* \"#utility.yul\":8623:8635   */\n      add\n        /* \"#utility.yul\":8616:8635   */\n      swap1\n      pop\n        /* \"#utility.yul\":8275:8641   */\n      swap2\n      swap1\n      pop\n      jump\t// out\n        /* \"#utility.yul\":8647:9066   */\n    tag_13:\n        /* \"#utility.yul\":8813:8817   */\n      0x00\n        /* \"#utility.yul\":8851:8853   */\n      0x20\n        /* \"#utility.yul\":8840:8849   */\n      dup3\n        /* \"#utility.yul\":8836:8854   */\n      add\n        /* \"#utility.yul\":8828:8854   */\n      swap1\n      pop\n        /* \"#utility.yul\":8900:8909   */\n      dup2\n        /* \"#utility.yul\":8894:8898   */\n      dup2\n        /* \"#utility.yul\":8890:8910   */\n      sub\n        /* \"#utility.yul\":8886:8887   */\n      0x00\n        /* \"#utility.yul\":8875:8884   */\n      dup4\n        /* \"#utility.yul\":8871:8888   */\n      add\n        /* \"#utility.yul\":8864:8911   */\n      mstore\n        /* \"#utility.yul\":8928:9059   */\n      tag_164\n        /* \"#utility.yul\":9054:9058   */\n      dup2\n        /* \"#utility.yul\":8928:9059   */\n      tag_68\n      jump\t// in\n    tag_164:\n        /* \"#utility.yul\":8920:9059   */\n      swap1\n      pop\n        /* \"#utility.yul\":8647:9066   */\n      swap2\n      swap1\n      pop\n      jump\t// out\n        /* \"#utility.yul\":9072:9252   */\n    tag_24:\n        /* \"#utility.yul\":9120:9197   */\n      0x4e487b7100000000000000000000000000000000000000000000000000000000\n        /* \"#utility.yul\":9117:9118   */\n      0x00\n        /* \"#utility.yul\":9110:9198   */\n      mstore\n        /* \"#utility.yul\":9217:9221   */\n      0x32\n        /* \"#utility.yul\":9214:9215   */\n      0x04\n        /* \"#utility.yul\":9207:9222   */\n      mstore\n        /* \"#utility.yul\":9241:9245   */\n      0x24\n        /* \"#utility.yul\":9238:9239   */\n      0x00\n        /* \"#utility.yul\":9231:9246   */\n      revert\n        /* \"#utility.yul\":9258:9375   */\n    tag_69:\n        /* \"#utility.yul\":9367:9368   */\n      0x00\n        /* \"#utility.yul\":9364:9365   */\n      dup1\n        /* \"#utility.yul\":9357:9369   */\n      revert\n        /* \"#utility.yul\":9381:9498   */\n    tag_70:\n        /* \"#utility.yul\":9490:9491   */\n      0x00\n        /* \"#utility.yul\":9487:9488   */\n      dup1\n        /* \"#utility.yul\":9480:9492   */\n      revert\n        /* \"#utility.yul\":9504:9621   */\n    tag_71:\n        /* \"#utility.yul\":9613:9614   */\n      0x00\n        /* \"#utility.yul\":9610:9611   */\n      dup1\n        /* \"#utility.yul\":9603:9615   */\n      revert\n        /* \"#utility.yul\":9627:10351   */\n    tag_28:\n        /* \"#utility.yul\":9704:9708   */\n      0x00\n        /* \"#utility.yul\":9710:9716   */\n      dup1\n        /* \"#utility.yul\":9766:9777   */\n      dup4\n        /* \"#utility.yul\":9753:9778   */\n      calldataload\n        /* \"#utility.yul\":9866:9867   */\n      0x01\n        /* \"#utility.yul\":9860:9864   */\n      0x20\n        /* \"#utility.yul\":9856:9868   */\n      sub\n        /* \"#utility.yul\":9845:9853   */\n      dup5\n        /* \"#utility.yul\":9829:9843   */\n      calldatasize\n        /* \"#utility.yul\":9825:9854   */\n      sub\n        /* \"#utility.yul\":9821:9869   */\n      sub\n        /* \"#utility.yul\":9801:9819   */\n      dup2\n        /* \"#utility.yul\":9797:9870   */\n      slt\n        /* \"#utility.yul\":9787:9955   */\n      tag_170\n      jumpi\n        /* \"#utility.yul\":9874:9953   */\n      tag_171\n      tag_69\n      jump\t// in\n    tag_171:\n        /* \"#utility.yul\":9787:9955   */\n    tag_170:\n        /* \"#utility.yul\":9986:10004   */\n      dup1\n        /* \"#utility.yul\":9976:9984   */\n      dup5\n        /* \"#utility.yul\":9972:10005   */\n      add\n        /* \"#utility.yul\":9964:10005   */\n      swap3\n      pop\n        /* \"#utility.yul\":10038:10042   */\n      dup3\n        /* \"#utility.yul\":10025:10043   */\n      calldataload\n        /* \"#utility.yul\":10015:10043   */\n      swap2\n      pop\n        /* \"#utility.yul\":10066:10084   */\n      0xffffffffffffffff\n        /* \"#utility.yul\":10058:10064   */\n      dup3\n        /* \"#utility.yul\":10055:10085   */\n      gt\n        /* \"#utility.yul\":10052:10169   */\n      iszero\n      tag_172\n      jumpi\n        /* \"#utility.yul\":10088:10167   */\n      tag_173\n      tag_70\n      jump\t// in\n    tag_173:\n        /* \"#utility.yul\":10052:10169   */\n    tag_172:\n        /* \"#utility.yul\":10196:10198   */\n      0x20\n        /* \"#utility.yul\":10190:10194   */\n      dup4\n        /* \"#utility.yul\":10186:10199   */\n      add\n        /* \"#utility.yul\":10178:10199   */\n      swap3\n      pop\n        /* \"#utility.yul\":10253:10257   */\n      0x01\n        /* \"#utility.yul\":10245:10251   */\n      dup3\n        /* \"#utility.yul\":10241:10258   */\n      mul\n        /* \"#utility.yul\":10225:10239   */\n      calldatasize\n        /* \"#utility.yul\":10221:10259   */\n      sub\n        /* \"#utility.yul\":10215:10219   */\n      dup4\n        /* \"#utility.yul\":10211:10260   */\n      sgt\n        /* \"#utility.yul\":10208:10344   */\n      iszero\n      tag_174\n      jumpi\n        /* \"#utility.yul\":10263:10342   */\n      tag_175\n      tag_71\n      jump\t// in\n    tag_175:\n        /* \"#utility.yul\":10208:10344   */\n    tag_174:\n        /* \"#utility.yul\":9717:10351   */\n      pop\n        /* \"#utility.yul\":9627:10351   */\n      swap3\n      pop\n      swap3\n      swap1\n      pop\n      jump\t// out\n        /* \"#utility.yul\":10357:10504   */\n    tag_72:\n        /* \"#utility.yul\":10458:10469   */\n      0x00\n        /* \"#utility.yul\":10495:10498   */\n      dup2\n        /* \"#utility.yul\":10480:10498   */\n      swap1\n      pop\n        /* \"#utility.yul\":10357:10504   */\n      swap3\n      swap2\n      pop\n      pop\n      jump\t// out\n        /* \"#utility.yul\":10510:10658   */\n    tag_73:\n        /* \"#utility.yul\":10608:10614   */\n      dup3\n        /* \"#utility.yul\":10603:10606   */\n      dup2\n        /* \"#utility.yul\":10598:10601   */\n      dup4\n        /* \"#utility.yul\":10585:10615   */\n      calldatacopy\n        /* \"#utility.yul\":10649:10650   */\n      0x00\n        /* \"#utility.yul\":10640:10646   */\n      dup4\n        /* \"#utility.yul\":10635:10638   */\n      dup4\n        /* \"#utility.yul\":10631:10647   */\n      add\n        /* \"#utility.yul\":10624:10651   */\n      mstore\n        /* \"#utility.yul\":10510:10658   */\n      pop\n      pop\n      pop\n      jump\t// out\n        /* \"#utility.yul\":10686:11013   */\n    tag_74:\n        /* \"#utility.yul\":10800:10803   */\n      0x00\n        /* \"#utility.yul\":10821:10909   */\n      tag_179\n        /* \"#utility.yul\":10902:10908   */\n      dup4\n        /* \"#utility.yul\":10897:10900   */\n      dup6\n        /* \"#utility.yul\":10821:10909   */\n      tag_72\n      jump\t// in\n    tag_179:\n        /* \"#utility.yul\":10814:10909   */\n      swap4\n      pop\n        /* \"#utility.yul\":10919:10975   */\n      tag_180\n        /* \"#utility.yul\":10968:10974   */\n      dup4\n        /* \"#utility.yul\":10963:10966   */\n      dup6\n        /* \"#utility.yul\":10956:10961   */\n      dup5\n        /* \"#utility.yul\":10919:10975   */\n      tag_73\n      jump\t// in\n    tag_180:\n        /* \"#utility.yul\":11000:11006   */\n      dup3\n        /* \"#utility.yul\":10995:10998   */\n      dup5\n        /* \"#utility.yul\":10991:11007   */\n      add\n        /* \"#utility.yul\":10984:11007   */\n      swap1\n      pop\n        /* \"#utility.yul\":10686:11013   */\n      swap4\n      swap3\n      pop\n      pop\n      pop\n      jump\t// out\n        /* \"#utility.yul\":11019:11310   */\n    tag_30:\n        /* \"#utility.yul\":11159:11162   */\n      0x00\n        /* \"#utility.yul\":11181:11284   */\n      tag_182\n        /* \"#utility.yul\":11280:11283   */\n      dup3\n        /* \"#utility.yul\":11271:11277   */\n      dup5\n        /* \"#utility.yul\":11263:11269   */\n      dup7\n        /* \"#utility.yul\":11181:11284   */\n      tag_74\n      jump\t// in\n    tag_182:\n        /* \"#utility.yul\":11174:11284   */\n      swap2\n      pop\n        /* \"#utility.yul\":11301:11304   */\n      dup2\n        /* \"#utility.yul\":11294:11304   */\n      swap1\n      pop\n        /* \"#utility.yul\":11019:11310   */\n      swap4\n      swap3\n      pop\n      pop\n      pop\n      jump\t// out\n        /* \"#utility.yul\":11316:11482   */\n    tag_75:\n        /* \"#utility.yul\":11456:11474   */\n      0x7374617469632063616c6c206661696c00000000000000000000000000000000\n        /* \"#utility.yul\":11452:11453   */\n      0x00\n        /* \"#utility.yul\":11444:11450   */\n      dup3\n        /* \"#utility.yul\":11440:11454   */\n      add\n        /* \"#utility.yul\":11433:11475   */\n      mstore\n        /* \"#utility.yul\":11316:11482   */\n      pop\n      jump\t// out\n        /* \"#utility.yul\":11488:11854   */\n    tag_76:\n        /* \"#utility.yul\":11630:11633   */\n      0x00\n        /* \"#utility.yul\":11651:11718   */\n      tag_185\n        /* \"#utility.yul\":11715:11717   */\n      0x10\n        /* \"#utility.yul\":11710:11713   */\n      dup4\n        /* \"#utility.yul\":11651:11718   */\n      tag_66\n      jump\t// in\n    tag_185:\n        /* \"#utility.yul\":11644:11718   */\n      swap2\n      pop\n        /* \"#utility.yul\":11727:11820   */\n      tag_186\n        /* \"#utility.yul\":11816:11819   */\n      dup3\n        /* \"#utility.yul\":11727:11820   */\n      tag_75\n      jump\t// in\n    tag_186:\n        /* \"#utility.yul\":11845:11847   */\n      0x20\n        /* \"#utility.yul\":11840:11843   */\n      dup3\n        /* \"#utility.yul\":11836:11848   */\n      add\n        /* \"#utility.yul\":11829:11848   */\n      swap1\n      pop\n        /* \"#utility.yul\":11488:11854   */\n      swap2\n      swap1\n      pop\n      jump\t// out\n        /* \"#utility.yul\":11860:12279   */\n    tag_36:\n        /* \"#utility.yul\":12026:12030   */\n      0x00\n        /* \"#utility.yul\":12064:12066   */\n      0x20\n        /* \"#utility.yul\":12053:12062   */\n      dup3\n        /* \"#utility.yul\":12049:12067   */\n      add\n        /* \"#utility.yul\":12041:12067   */\n      swap1\n      pop\n        /* \"#utility.yul\":12113:12122   */\n      dup2\n        /* \"#utility.yul\":12107:12111   */\n      dup2\n        /* \"#utility.yul\":12103:12123   */\n      sub\n        /* \"#utility.yul\":12099:12100   */\n      0x00\n        /* \"#utility.yul\":12088:12097   */\n      dup4\n        /* \"#utility.yul\":12084:12101   */\n      add\n        /* \"#utility.yul\":12077:12124   */\n      mstore\n        /* \"#utility.yul\":12141:12272   */\n      tag_188\n        /* \"#utility.yul\":12267:12271   */\n      dup2\n        /* \"#utility.yul\":12141:12272   */\n      tag_76\n      jump\t// in\n    tag_188:\n        /* \"#utility.yul\":12133:12272   */\n      swap1\n      pop\n        /* \"#utility.yul\":11860:12279   */\n      swap2\n      swap1\n      pop\n      jump\t// out\n\n    auxdata: 0xa264697066735822122090dac11466f201efdcf4b68023ca8934f2ed7d424b3ce2d555bf88b7c929e7ea64736f6c634300081a0033\n}\n",
				"bytecode": {
					"linkReferences": {},
					"object": "6080604052348015600e575f80fd5b506107f18061001c5f395ff3fe608060405234801561000f575f80fd5b5060043610610029575f3560e01c8063da5b4ffd1461002d575b5f80fd5b61004760048036038101906100429190610438565b61005d565b60405161005491906105cc565b60405180910390f35b6060828290508451146100a5576040517f08c379a000000000000000000000000000000000000000000000000000000000815260040161009c90610646565b60405180910390fd5b5f845167ffffffffffffffff8111156100c1576100c0610249565b5b6040519080825280602002602001820160405280156100f457816020015b60608152602001906001900390816100df5790505b5090505f5b8551811015610218575f8087838151811061011757610116610664565b5b602002602001015173ffffffffffffffffffffffffffffffffffffffff1687878581811061014857610147610664565b5b905060200281019061015a919061069d565b60405161016892919061073b565b5f60405180830381855afa9150503d805f81146101a0576040519150601f19603f3d011682016040523d82523d5f602084013e6101a5565b606091505b5091509150816101ea576040517f08c379a00000000000000000000000000000000000000000000000000000000081526004016101e19061079d565b60405180910390fd5b808484815181106101fe576101fd610664565b5b6020026020010181905250505080806001019150506100f9565b50809150509392505050565b5f604051905090565b5f80fd5b5f80fd5b5f80fd5b5f601f19601f8301169050919050565b7f4e487b71000000000000000000000000000000000000000000000000000000005f52604160045260245ffd5b61027f82610239565b810181811067ffffffffffffffff8211171561029e5761029d610249565b5b80604052505050565b5f6102b0610224565b90506102bc8282610276565b919050565b5f67ffffffffffffffff8211156102db576102da610249565b5b602082029050602081019050919050565b5f80fd5b5f73ffffffffffffffffffffffffffffffffffffffff82169050919050565b5f610319826102f0565b9050919050565b6103298161030f565b8114610333575f80fd5b50565b5f8135905061034481610320565b92915050565b5f61035c610357846102c1565b6102a7565b9050808382526020820190506020840283018581111561037f5761037e6102ec565b5b835b818110156103a857806103948882610336565b845260208401935050602081019050610381565b5050509392505050565b5f82601f8301126103c6576103c5610235565b5b81356103d684826020860161034a565b91505092915050565b5f80fd5b5f8083601f8401126103f8576103f7610235565b5b8235905067ffffffffffffffff811115610415576104146103df565b5b602083019150836020820283011115610431576104306102ec565b5b9250929050565b5f805f6040848603121561044f5761044e61022d565b5b5f84013567ffffffffffffffff81111561046c5761046b610231565b5b610478868287016103b2565b935050602084013567ffffffffffffffff81111561049957610498610231565b5b6104a5868287016103e3565b92509250509250925092565b5f81519050919050565b5f82825260208201905092915050565b5f819050602082019050919050565b5f81519050919050565b5f82825260208201905092915050565b8281835e5f83830152505050565b5f61050c826104da565b61051681856104e4565b93506105268185602086016104f4565b61052f81610239565b840191505092915050565b5f6105458383610502565b905092915050565b5f602082019050919050565b5f610563826104b1565b61056d81856104bb565b93508360208202850161057f856104cb565b805f5b858110156105ba578484038952815161059b858261053a565b94506105a68361054d565b925060208a01995050600181019050610582565b50829750879550505050505092915050565b5f6020820190508181035f8301526105e48184610559565b905092915050565b5f82825260208201905092915050565b7f746172676574732e6c656e67746820213d2064617461732e6c656e67746800005f82015250565b5f610630601e836105ec565b915061063b826105fc565b602082019050919050565b5f6020820190508181035f83015261065d81610624565b9050919050565b7f4e487b71000000000000000000000000000000000000000000000000000000005f52603260045260245ffd5b5f80fd5b5f80fd5b5f80fd5b5f80833560016020038436030381126106b9576106b8610691565b5b80840192508235915067ffffffffffffffff8211156106db576106da610695565b5b6020830192506001820236038313156106f7576106f6610699565b5b509250929050565b5f81905092915050565b828183375f83830152505050565b5f61072283856106ff565b935061072f838584610709565b82840190509392505050565b5f610747828486610717565b91508190509392505050565b7f7374617469632063616c6c206661696c000000000000000000000000000000005f82015250565b5f6107876010836105ec565b915061079282610753565b602082019050919050565b5f6020820190508181035f8301526107b48161077b565b905091905056fea264697066735822122090dac11466f201efdcf4b68023ca8934f2ed7d424b3ce2d555bf88b7c929e7ea64736f6c634300081a0033",
					"opcodes": "PUSH1 0x80 PUSH1 0x40 MSTORE CALLVALUE DUP1 ISZERO PUSH1 0xE JUMPI PUSH0 DUP1 REVERT JUMPDEST POP PUSH2 0x7F1 DUP1 PUSH2 0x1C PUSH0 CODECOPY PUSH0 RETURN INVALID PUSH1 0x80 PUSH1 0x40 MSTORE CALLVALUE DUP1 ISZERO PUSH2 0xF JUMPI PUSH0 DUP1 REVERT JUMPDEST POP PUSH1 0x4 CALLDATASIZE LT PUSH2 0x29 JUMPI PUSH0 CALLDATALOAD PUSH1 0xE0 SHR DUP1 PUSH4 0xDA5B4FFD EQ PUSH2 0x2D JUMPI JUMPDEST PUSH0 DUP1 REVERT JUMPDEST PUSH2 0x47 PUSH1 0x4 DUP1 CALLDATASIZE SUB DUP2 ADD SWAP1 PUSH2 0x42 SWAP2 SWAP1 PUSH2 0x438 JUMP JUMPDEST PUSH2 0x5D JUMP JUMPDEST PUSH1 0x40 MLOAD PUSH2 0x54 SWAP2 SWAP1 PUSH2 0x5CC JUMP JUMPDEST PUSH1 0x40 MLOAD DUP1 SWAP2 SUB SWAP1 RETURN JUMPDEST PUSH1 0x60 DUP3 DUP3 SWAP1 POP DUP5 MLOAD EQ PUSH2 0xA5 JUMPI PUSH1 0x40 MLOAD PUSH32 0x8C379A000000000000000000000000000000000000000000000000000000000 DUP2 MSTORE PUSH1 0x4 ADD PUSH2 0x9C SWAP1 PUSH2 0x646 JUMP JUMPDEST PUSH1 0x40 MLOAD DUP1 SWAP2 SUB SWAP1 REVERT JUMPDEST PUSH0 DUP5 MLOAD PUSH8 0xFFFFFFFFFFFFFFFF DUP2 GT ISZERO PUSH2 0xC1 JUMPI PUSH2 0xC0 PUSH2 0x249 JUMP JUMPDEST JUMPDEST PUSH1 0x40 MLOAD SWAP1 DUP1 DUP3 MSTORE DUP1 PUSH1 0x20 MUL PUSH1 0x20 ADD DUP3 ADD PUSH1 0x40 MSTORE DUP1 ISZERO PUSH2 0xF4 JUMPI DUP2 PUSH1 0x20 ADD JUMPDEST PUSH1 0x60 DUP2 MSTORE PUSH1 0x20 ADD SWAP1 PUSH1 0x1 SWAP1 SUB SWAP1 DUP2 PUSH2 0xDF JUMPI SWAP1 POP JUMPDEST POP SWAP1 POP PUSH0 JUMPDEST DUP6 MLOAD DUP2 LT ISZERO PUSH2 0x218 JUMPI PUSH0 DUP1 DUP8 DUP4 DUP2 MLOAD DUP2 LT PUSH2 0x117 JUMPI PUSH2 0x116 PUSH2 0x664 JUMP JUMPDEST JUMPDEST PUSH1 0x20 MUL PUSH1 0x20 ADD ADD MLOAD PUSH20 0xFFFFFFFFFFFFFFFFFFFFFFFFFFFFFFFFFFFFFFFF AND DUP8 DUP8 DUP6 DUP2 DUP2 LT PUSH2 0x148 JUMPI PUSH2 0x147 PUSH2 0x664 JUMP JUMPDEST JUMPDEST SWAP1 POP PUSH1 0x20 MUL DUP2 ADD SWAP1 PUSH2 0x15A SWAP2 SWAP1 PUSH2 0x69D JUMP JUMPDEST PUSH1 0x40 MLOAD PUSH2 0x168 SWAP3 SWAP2 SWAP1 PUSH2 0x73B JUMP JUMPDEST PUSH0 PUSH1 0x40 MLOAD DUP1 DUP4 SUB DUP2 DUP6 GAS STATICCALL SWAP2 POP POP RETURNDATASIZE DUP1 PUSH0 DUP2 EQ PUSH2 0x1A0 JUMPI PUSH1 0x40 MLOAD SWAP2 POP PUSH1 0x1F NOT PUSH1 0x3F RETURNDATASIZE ADD AND DUP3 ADD PUSH1 0x40 MSTORE RETURNDATASIZE DUP3 MSTORE RETURNDATASIZE PUSH0 PUSH1 0x20 DUP5 ADD RETURNDATACOPY PUSH2 0x1A5 JUMP JUMPDEST PUSH1 0x60 SWAP2 POP JUMPDEST POP SWAP2 POP SWAP2 POP DUP2 PUSH2 0x1EA JUMPI PUSH1 0x40 MLOAD PUSH32 0x8C379A000000000000000000000000000000000000000000000000000000000 DUP2 MSTORE PUSH1 0x4 ADD PUSH2 0x1E1 SWAP1 PUSH2 0x79D JUMP JUMPDEST PUSH1 0x40 MLOAD DUP1 SWAP2 SUB SWAP1 REVERT JUMPDEST DUP1 DUP5 DUP5 DUP2 MLOAD DUP2 LT PUSH2 0x1FE JUMPI PUSH2 0x1FD PUSH2 0x664 JUMP JUMPDEST JUMPDEST PUSH1 0x20 MUL PUSH1 0x20 ADD ADD DUP2 SWAP1 MSTORE POP POP POP DUP1 DUP1 PUSH1 0x1 ADD SWAP2 POP POP PUSH2 0xF9 JUMP JUMPDEST POP DUP1 SWAP2 POP POP SWAP4 SWAP3 POP POP POP JUMP JUMPDEST PUSH0 PUSH1 0x40 MLOAD SWAP1 POP SWAP1 JUMP JUMPDEST PUSH0 DUP1 REVERT JUMPDEST PUSH0 DUP1 REVERT JUMPDEST PUSH0 DUP1 REVERT JUMPDEST PUSH0 PUSH1 0x1F NOT PUSH1 0x1F DUP4 ADD AND SWAP1 POP SWAP2 SWAP1 POP JUMP JUMPDEST PUSH32 0x4E487B7100000000000000000000000000000000000000000000000000000000 PUSH0 MSTORE PUSH1 0x41 PUSH1 0x4 MSTORE PUSH1 0x24 PUSH0 REVERT JUMPDEST PUSH2 0x27F DUP3 PUSH2 0x239 JUMP JUMPDEST DUP2 ADD DUP2 DUP2 LT PUSH8 0xFFFFFFFFFFFFFFFF DUP3 GT OR ISZERO PUSH2 0x29E JUMPI PUSH2 0x29D PUSH2 0x249 JUMP JUMPDEST JUMPDEST DUP1 PUSH1 0x40 MSTORE POP POP POP JUMP JUMPDEST PUSH0 PUSH2 0x2B0 PUSH2 0x224 JUMP JUMPDEST SWAP1 POP PUSH2 0x2BC DUP3 DUP3 PUSH2 0x276 JUMP JUMPDEST SWAP2 SWAP1 POP JUMP JUMPDEST PUSH0 PUSH8 0xFFFFFFFFFFFFFFFF DUP3 GT ISZERO PUSH2 0x2DB JUMPI PUSH2 0x2DA PUSH2 0x249 JUMP JUMPDEST JUMPDEST PUSH1 0x20 DUP3 MUL SWAP1 POP PUSH1 0x20 DUP2 ADD SWAP1 POP SWAP2 SWAP1 POP JUMP JUMPDEST PUSH0 DUP1 REVERT JUMPDEST PUSH0 PUSH20 0xFFFFFFFFFFFFFFFFFFFFFFFFFFFFFFFFFFFFFFFF DUP3 AND SWAP1 POP SWAP2 SWAP1 POP JUMP JUMPDEST PUSH0 PUSH2 0x319 DUP3 PUSH2 0x2F0 JUMP JUMPDEST SWAP1 POP SWAP2 SWAP1 POP JUMP JUMPDEST PUSH2 0x329 DUP2 PUSH2 0x30F JUMP JUMPDEST DUP2 EQ PUSH2 0x333 JUMPI PUSH0 DUP1 REVERT JUMPDEST POP JUMP JUMPDEST PUSH0 DUP2 CALLDATALOAD SWAP1 POP PUSH2 0x344 DUP2 PUSH2 0x320 JUMP JUMPDEST SWAP3 SWAP2 POP POP JUMP JUMPDEST PUSH0 PUSH2 0x35C PUSH2 0x357 DUP5 PUSH2 0x2C1 JUMP JUMPDEST PUSH2 0x2A7 JUMP JUMPDEST SWAP1 POP DUP1 DUP4 DUP3 MSTORE PUSH1 0x20 DUP3 ADD SWAP1 POP PUSH1 0x20 DUP5 MUL DUP4 ADD DUP6 DUP2 GT ISZERO PUSH2 0x37F JUMPI PUSH2 0x37E PUSH2 0x2EC JUMP JUMPDEST JUMPDEST DUP4 JUMPDEST DUP2 DUP2 LT ISZERO PUSH2 0x3A8 JUMPI DUP1 PUSH2 0x394 DUP9 DUP3 PUSH2 0x336 JUMP JUMPDEST DUP5 MSTORE PUSH1 0x20 DUP5 ADD SWAP4 POP POP PUSH1 0x20 DUP2 ADD SWAP1 POP PUSH2 0x381 JUMP JUMPDEST POP POP POP SWAP4 SWAP3 POP POP POP JUMP JUMPDEST PUSH0 DUP3 PUSH1 0x1F DUP4 ADD SLT PUSH2 0x3C6 JUMPI PUSH2 0x3C5 PUSH2 0x235 JUMP JUMPDEST JUMPDEST DUP2 CALLDATALOAD PUSH2 0x3D6 DUP5 DUP3 PUSH1 0x20 DUP7 ADD PUSH2 0x34A JUMP JUMPDEST SWAP2 POP POP SWAP3 SWAP2 POP POP JUMP JUMPDEST PUSH0 DUP1 REVERT JUMPDEST PUSH0 DUP1 DUP4 PUSH1 0x1F DUP5 ADD SLT PUSH2 0x3F8 JUMPI PUSH2 0x3F7 PUSH2 0x235 JUMP JUMPDEST JUMPDEST DUP3 CALLDATALOAD SWAP1 POP PUSH8 0xFFFFFFFFFFFFFFFF DUP2 GT ISZERO PUSH2 0x415 JUMPI PUSH2 0x414 PUSH2 0x3DF JUMP JUMPDEST JUMPDEST PUSH1 0x20 DUP4 ADD SWAP2 POP DUP4 PUSH1 0x20 DUP3 MUL DUP4 ADD GT ISZERO PUSH2 0x431 JUMPI PUSH2 0x430 PUSH2 0x2EC JUMP JUMPDEST JUMPDEST SWAP3 POP SWAP3 SWAP1 POP JUMP JUMPDEST PUSH0 DUP1 PUSH0 PUSH1 0x40 DUP5 DUP7 SUB SLT ISZERO PUSH2 0x44F JUMPI PUSH2 0x44E PUSH2 0x22D JUMP JUMPDEST JUMPDEST PUSH0 DUP5 ADD CALLDATALOAD PUSH8 0xFFFFFFFFFFFFFFFF DUP2 GT ISZERO PUSH2 0x46C JUMPI PUSH2 0x46B PUSH2 0x231 JUMP JUMPDEST JUMPDEST PUSH2 0x478 DUP7 DUP3 DUP8 ADD PUSH2 0x3B2 JUMP JUMPDEST SWAP4 POP POP PUSH1 0x20 DUP5 ADD CALLDATALOAD PUSH8 0xFFFFFFFFFFFFFFFF DUP2 GT ISZERO PUSH2 0x499 JUMPI PUSH2 0x498 PUSH2 0x231 JUMP JUMPDEST JUMPDEST PUSH2 0x4A5 DUP7 DUP3 DUP8 ADD PUSH2 0x3E3 JUMP JUMPDEST SWAP3 POP SWAP3 POP POP SWAP3 POP SWAP3 POP SWAP3 JUMP JUMPDEST PUSH0 DUP2 MLOAD SWAP1 POP SWAP2 SWAP1 POP JUMP JUMPDEST PUSH0 DUP3 DUP3 MSTORE PUSH1 0x20 DUP3 ADD SWAP1 POP SWAP3 SWAP2 POP POP JUMP JUMPDEST PUSH0 DUP2 SWAP1 POP PUSH1 0x20 DUP3 ADD SWAP1 POP SWAP2 SWAP1 POP JUMP JUMPDEST PUSH0 DUP2 MLOAD SWAP1 POP SWAP2 SWAP1 POP JUMP JUMPDEST PUSH0 DUP3 DUP3 MSTORE PUSH1 0x20 DUP3 ADD SWAP1 POP SWAP3 SWAP2 POP POP JUMP JUMPDEST DUP3 DUP2 DUP4 MCOPY PUSH0 DUP4 DUP4 ADD MSTORE POP POP POP JUMP JUMPDEST PUSH0 PUSH2 0x50C DUP3 PUSH2 0x4DA JUMP JUMPDEST PUSH2 0x516 DUP2 DUP6 PUSH2 0x4E4 JUMP JUMPDEST SWAP4 POP PUSH2 0x526 DUP2 DUP6 PUSH1 0x20 DUP7 ADD PUSH2 0x4F4 JUMP JUMPDEST PUSH2 0x52F DUP2 PUSH2 0x239 JUMP JUMPDEST DUP5 ADD SWAP2 POP POP SWAP3 SWAP2 POP POP JUMP JUMPDEST PUSH0 PUSH2 0x545 DUP4 DUP4 PUSH2 0x502 JUMP JUMPDEST SWAP1 POP SWAP3 SWAP2 POP POP JUMP JUMPDEST PUSH0 PUSH1 0x20 DUP3 ADD SWAP1 POP SWAP2 SWAP1 POP JUMP JUMPDEST PUSH0 PUSH2 0x563 DUP3 PUSH2 0x4B1 JUMP JUMPDEST PUSH2 0x56D DUP2 DUP6 PUSH2 0x4BB JUMP JUMPDEST SWAP4 POP DUP4 PUSH1 0x20 DUP3 MUL DUP6 ADD PUSH2 0x57F DUP6 PUSH2 0x4CB JUMP JUMPDEST DUP1 PUSH0 JUMPDEST DUP6 DUP2 LT ISZERO PUSH2 0x5BA JUMPI DUP5 DUP5 SUB DUP10 MSTORE DUP2 MLOAD PUSH2 0x59B DUP6 DUP3 PUSH2 0x53A JUMP JUMPDEST SWAP5 POP PUSH2 0x5A6 DUP4 PUSH2 0x54D JUMP JUMPDEST SWAP3 POP PUSH1 0x20 DUP11 ADD SWAP10 POP POP PUSH1 0x1 DUP2 ADD SWAP1 POP PUSH2 0x582 JUMP JUMPDEST POP DUP3 SWAP8 POP DUP8 SWAP6 POP POP POP POP POP POP SWAP3 SWAP2 POP POP JUMP JUMPDEST PUSH0 PUSH1 0x20 DUP3 ADD SWAP1 POP DUP2 DUP2 SUB PUSH0 DUP4 ADD MSTORE PUSH2 0x5E4 DUP2 DUP5 PUSH2 0x559 JUMP JUMPDEST SWAP1 POP SWAP3 SWAP2 POP POP JUMP JUMPDEST PUSH0 DUP3 DUP3 MSTORE PUSH1 0x20 DUP3 ADD SWAP1 POP SWAP3 SWAP2 POP POP JUMP JUMPDEST PUSH32 0x746172676574732E6C656E67746820213D2064617461732E6C656E6774680000 PUSH0 DUP3 ADD MSTORE POP JUMP JUMPDEST PUSH0 PUSH2 0x630 PUSH1 0x1E DUP4 PUSH2 0x5EC JUMP JUMPDEST SWAP2 POP PUSH2 0x63B DUP3 PUSH2 0x5FC JUMP JUMPDEST PUSH1 0x20 DUP3 ADD SWAP1 POP SWAP2 SWAP1 POP JUMP JUMPDEST PUSH0 PUSH1 0x20 DUP3 ADD SWAP1 POP DUP2 DUP2 SUB PUSH0 DUP4 ADD MSTORE PUSH2 0x65D DUP2 PUSH2 0x624 JUMP JUMPDEST SWAP1 POP SWAP2 SWAP1 POP JUMP JUMPDEST PUSH32 0x4E487B7100000000000000000000000000000000000000000000000000000000 PUSH0 MSTORE PUSH1 0x32 PUSH1 0x4 MSTORE PUSH1 0x24 PUSH0 REVERT JUMPDEST PUSH0 DUP1 REVERT JUMPDEST PUSH0 DUP1 REVERT JUMPDEST PUSH0 DUP1 REVERT JUMPDEST PUSH0 DUP1 DUP4 CALLDATALOAD PUSH1 0x1 PUSH1 0x20 SUB DUP5 CALLDATASIZE SUB SUB DUP2 SLT PUSH2 0x6B9 JUMPI PUSH2 0x6B8 PUSH2 0x691 JUMP JUMPDEST JUMPDEST DUP1 DUP5 ADD SWAP3 POP DUP3 CALLDATALOAD SWAP2 POP PUSH8 0xFFFFFFFFFFFFFFFF DUP3 GT ISZERO PUSH2 0x6DB JUMPI PUSH2 0x6DA PUSH2 0x695 JUMP JUMPDEST JUMPDEST PUSH1 0x20 DUP4 ADD SWAP3 POP PUSH1 0x1 DUP3 MUL CALLDATASIZE SUB DUP4 SGT ISZERO PUSH2 0x6F7 JUMPI PUSH2 0x6F6 PUSH2 0x699 JUMP JUMPDEST JUMPDEST POP SWAP3 POP SWAP3 SWAP1 POP JUMP JUMPDEST PUSH0 DUP2 SWAP1 POP SWAP3 SWAP2 POP POP JUMP JUMPDEST DUP3 DUP2 DUP4 CALLDATACOPY PUSH0 DUP4 DUP4 ADD MSTORE POP POP POP JUMP JUMPDEST PUSH0 PUSH2 0x722 DUP4 DUP6 PUSH2 0x6FF JUMP JUMPDEST SWAP4 POP PUSH2 0x72F DUP4 DUP6 DUP5 PUSH2 0x709 JUMP JUMPDEST DUP3 DUP5 ADD SWAP1 POP SWAP4 SWAP3 POP POP POP JUMP JUMPDEST PUSH0 PUSH2 0x747 DUP3 DUP5 DUP7 PUSH2 0x717 JUMP JUMPDEST SWAP2 POP DUP2 SWAP1 POP SWAP4 SWAP3 POP POP POP JUMP JUMPDEST PUSH32 0x7374617469632063616C6C206661696C00000000000000000000000000000000 PUSH0 DUP3 ADD MSTORE POP JUMP JUMPDEST PUSH0 PUSH2 0x787 PUSH1 0x10 DUP4 PUSH2 0x5EC JUMP JUMPDEST SWAP2 POP PUSH2 0x792 DUP3 PUSH2 0x753 JUMP JUMPDEST PUSH1 0x20 DUP3 ADD SWAP1 POP SWAP2 SWAP1 POP JUMP JUMPDEST PUSH0 PUSH1 0x20 DUP3 ADD SWAP1 POP DUP2 DUP2 SUB PUSH0 DUP4 ADD MSTORE PUSH2 0x7B4 DUP2 PUSH2 0x77B JUMP JUMPDEST SWAP1 POP SWAP2 SWAP1 POP JUMP INVALID LOG2 PUSH5 0x6970667358 0x22 SLT KECCAK256 SWAP1 0xDA 0xC1 EQ PUSH7 0xF201EFDCF4B680 0x23 0xCA DUP10 CALLVALUE CALLCODE 0xED PUSH30 0x424B3CE2D555BF88B7C929E7EA64736F6C634300081A0033000000000000 "
				},
				"gasEstimates": {
					"creation": {
						"codeDepositCost": "406600",
						"executionCost": "441",
						"totalCost": "407041"
					},
					"external": {
						"multiCall(address[],bytes[])": "infinite"
					}
				},
				"methodIdentifiers": {
					"multiCall(address[],bytes[])": "da5b4ffd"
				}
			},
			"storageLayout": {
				"storage": [],
				"types": null
			},
			"userdoc": {
				"kind": "user",
				"methods": {},
				"version": 1
			}
		}
	}
}