{
	"contracts/Airdrop.sol": {
		"Airdrop": {
			"abi": [
				{
					"inputs": [
						{
							"internalType": "address",
							"name": "_tokenAddr",
							"type": "address"
						}
					],
					"stateMutability": "nonpayable",
					"type": "constructor"
				},
				{
					"inputs": [
						{
							"internalType": "address",
							"name": "",
							"type": "address"
						}
					],
					"name": "failTransferList",
					"outputs": [
						{
							"internalType": "uint256",
							"name": "",
							"type": "uint256"
						}
					],
					"stateMutability": "view",
					"type": "function"
				},
				{
					"inputs": [
						{
							"internalType": "uint256[]",
							"name": "arr",
							"type": "uint256[]"
						}
					],
					"name": "getSum",
					"outputs": [
						{
							"internalType": "uint256",
							"name": "sum",
							"type": "uint256"
						}
					],
					"stateMutability": "pure",
					"type": "function"
				},
				{
					"inputs": [
						{
							"internalType": "address[]",
							"name": "_addrs",
							"type": "address[]"
						},
						{
							"internalType": "uint256[]",
							"name": "_amounts",
							"type": "uint256[]"
						}
					],
					"name": "multiTransferEth",
					"outputs": [],
					"stateMutability": "payable",
					"type": "function"
				},
				{
					"inputs": [
						{
							"internalType": "address[]",
							"name": "_addrs",
							"type": "address[]"
						},
						{
							"internalType": "uint256[]",
							"name": "_amounts",
							"type": "uint256[]"
						}
					],
					"name": "multiTransferToken",
					"outputs": [],
					"stateMutability": "nonpayable",
					"type": "function"
				},
				{
					"inputs": [],
					"name": "tokenAddr",
					"outputs": [
						{
							"internalType": "address",
							"name": "",
							"type": "address"
						}
					],
					"stateMutability": "view",
					"type": "function"
				}
			],
			"devdoc": {
				"kind": "dev",
				"methods": {},
				"version": 1
			},
			"evm": {
				"assembly": "    /* \"contracts/Airdrop.sol\":182:1526  contract Airdrop {... */\n  mstore(0x40, 0x80)\n    /* \"contracts/Airdrop.sol\":239:310  constructor(address _tokenAddr) {... */\n  callvalue\n  dup1\n  iszero\n  tag_1\n  jumpi\n  0x00\n  dup1\n  revert\ntag_1:\n  pop\n  mload(0x40)\n  sub(codesize, bytecodeSize)\n  dup1\n  bytecodeSize\n  dup4\n  codecopy\n  dup2\n  dup2\n  add\n  0x40\n  mstore\n  dup2\n  add\n  swap1\n  tag_2\n  swap2\n  swap1\n  tag_3\n  jump\t// in\ntag_2:\n    /* \"contracts/Airdrop.sol\":292:302  _tokenAddr */\n  dup1\n    /* \"contracts/Airdrop.sol\":282:291  tokenAddr */\n  0x00\n  dup1\n    /* \"contracts/Airdrop.sol\":282:302  tokenAddr=_tokenAddr */\n  0x0100\n  exp\n  dup2\n  sload\n  dup2\n  0xffffffffffffffffffffffffffffffffffffffff\n  mul\n  not\n  and\n  swap1\n  dup4\n  0xffffffffffffffffffffffffffffffffffffffff\n  and\n  mul\n  or\n  swap1\n  sstore\n  pop\n    /* \"contracts/Airdrop.sol\":239:310  constructor(address _tokenAddr) {... */\n  pop\n    /* \"contracts/Airdrop.sol\":182:1526  contract Airdrop {... */\n  jump(tag_6)\n    /* \"#utility.yul\":88:205   */\ntag_8:\n    /* \"#utility.yul\":197:198   */\n  0x00\n    /* \"#utility.yul\":194:195   */\n  dup1\n    /* \"#utility.yul\":187:199   */\n  revert\n    /* \"#utility.yul\":334:460   */\ntag_10:\n    /* \"#utility.yul\":371:378   */\n  0x00\n    /* \"#utility.yul\":411:453   */\n  0xffffffffffffffffffffffffffffffffffffffff\n    /* \"#utility.yul\":404:409   */\n  dup3\n    /* \"#utility.yul\":400:454   */\n  and\n    /* \"#utility.yul\":389:454   */\n  swap1\n  pop\n    /* \"#utility.yul\":334:460   */\n  swap2\n  swap1\n  pop\n  jump\t// out\n    /* \"#utility.yul\":466:562   */\ntag_11:\n    /* \"#utility.yul\":503:510   */\n  0x00\n    /* \"#utility.yul\":532:556   */\n  tag_20\n    /* \"#utility.yul\":550:555   */\n  dup3\n    /* \"#utility.yul\":532:556   */\n  tag_10\n  jump\t// in\ntag_20:\n    /* \"#utility.yul\":521:556   */\n  swap1\n  pop\n    /* \"#utility.yul\":466:562   */\n  swap2\n  swap1\n  pop\n  jump\t// out\n    /* \"#utility.yul\":568:690   */\ntag_12:\n    /* \"#utility.yul\":641:665   */\n  tag_22\n    /* \"#utility.yul\":659:664   */\n  dup2\n    /* \"#utility.yul\":641:665   */\n  tag_11\n  jump\t// in\ntag_22:\n    /* \"#utility.yul\":634:639   */\n  dup2\n    /* \"#utility.yul\":631:666   */\n  eq\n    /* \"#utility.yul\":621:684   */\n  tag_23\n  jumpi\n    /* \"#utility.yul\":680:681   */\n  0x00\n    /* \"#utility.yul\":677:678   */\n  dup1\n    /* \"#utility.yul\":670:682   */\n  revert\n    /* \"#utility.yul\":621:684   */\ntag_23:\n    /* \"#utility.yul\":568:690   */\n  pop\n  jump\t// out\n    /* \"#utility.yul\":696:839   */\ntag_13:\n    /* \"#utility.yul\":753:758   */\n  0x00\n    /* \"#utility.yul\":784:790   */\n  dup2\n    /* \"#utility.yul\":778:791   */\n  mload\n    /* \"#utility.yul\":769:791   */\n  swap1\n  pop\n    /* \"#utility.yul\":800:833   */\n  tag_25\n    /* \"#utility.yul\":827:832   */\n  dup2\n    /* \"#utility.yul\":800:833   */\n  tag_12\n  jump\t// in\ntag_25:\n    /* \"#utility.yul\":696:839   */\n  swap3\n  swap2\n  pop\n  pop\n  jump\t// out\n    /* \"#utility.yul\":845:1196   */\ntag_3:\n    /* \"#utility.yul\":915:921   */\n  0x00\n    /* \"#utility.yul\":964:966   */\n  0x20\n    /* \"#utility.yul\":952:961   */\n  dup3\n    /* \"#utility.yul\":943:950   */\n  dup5\n    /* \"#utility.yul\":939:962   */\n  sub\n    /* \"#utility.yul\":935:967   */\n  slt\n    /* \"#utility.yul\":932:1051   */\n  iszero\n  tag_27\n  jumpi\n    /* \"#utility.yul\":970:1049   */\n  tag_28\n  tag_8\n  jump\t// in\ntag_28:\n    /* \"#utility.yul\":932:1051   */\ntag_27:\n    /* \"#utility.yul\":1090:1091   */\n  0x00\n    /* \"#utility.yul\":1115:1179   */\n  tag_29\n    /* \"#utility.yul\":1171:1178   */\n  dup5\n    /* \"#utility.yul\":1162:1168   */\n  dup3\n    /* \"#utility.yul\":1151:1160   */\n  dup6\n    /* \"#utility.yul\":1147:1169   */\n  add\n    /* \"#utility.yul\":1115:1179   */\n  tag_13\n  jump\t// in\ntag_29:\n    /* \"#utility.yul\":1105:1179   */\n  swap2\n  pop\n    /* \"#utility.yul\":1061:1189   */\n  pop\n    /* \"#utility.yul\":845:1196   */\n  swap3\n  swap2\n  pop\n  pop\n  jump\t// out\n    /* \"contracts/Airdrop.sol\":182:1526  contract Airdrop {... */\ntag_6:\n  dataSize(sub_0)\n  dup1\n  dataOffset(sub_0)\n  0x00\n  codecopy\n  0x00\n  return\nstop\n\nsub_0: assembly {\n        /* \"contracts/Airdrop.sol\":182:1526  contract Airdrop {... */\n      mstore(0x40, 0x80)\n      jumpi(tag_1, lt(calldatasize, 0x04))\n      shr(0xe0, calldataload(0x00))\n      dup1\n      0x5fbe4d1d\n      eq\n      tag_2\n      jumpi\n      dup1\n      0x73918980\n      eq\n      tag_3\n      jumpi\n      dup1\n      0xccb8c1e0\n      eq\n      tag_4\n      jumpi\n      dup1\n      0xf3ad0dd8\n      eq\n      tag_5\n      jumpi\n      dup1\n      0xfe53c53c\n      eq\n      tag_6\n      jumpi\n    tag_1:\n      0x00\n      dup1\n      revert\n        /* \"contracts/Airdrop.sol\":206:230  address public tokenAddr */\n    tag_2:\n      callvalue\n      dup1\n      iszero\n      tag_7\n      jumpi\n      0x00\n      dup1\n      revert\n    tag_7:\n      pop\n      tag_8\n      tag_9\n      jump\t// in\n    tag_8:\n      mload(0x40)\n      tag_10\n      swap2\n      swap1\n      tag_11\n      jump\t// in\n    tag_10:\n      mload(0x40)\n      dup1\n      swap2\n      sub\n      swap1\n      return\n        /* \"contracts/Airdrop.sol\":1011:1523  function multiTransferEth(address[] calldata _addrs,uint256[] calldata _amounts) external payable {... */\n    tag_3:\n      tag_12\n      0x04\n      dup1\n      calldatasize\n      sub\n      dup2\n      add\n      swap1\n      tag_13\n      swap2\n      swap1\n      tag_14\n      jump\t// in\n    tag_13:\n      tag_15\n      jump\t// in\n    tag_12:\n      stop\n        /* \"contracts/Airdrop.sol\":318:481  function getSum(uint256[] calldata arr) public pure returns(uint sum) {... */\n    tag_4:\n      callvalue\n      dup1\n      iszero\n      tag_16\n      jumpi\n      0x00\n      dup1\n      revert\n    tag_16:\n      pop\n      tag_17\n      0x04\n      dup1\n      calldatasize\n      sub\n      dup2\n      add\n      swap1\n      tag_18\n      swap2\n      swap1\n      tag_19\n      jump\t// in\n    tag_18:\n      tag_20\n      jump\t// in\n    tag_17:\n      mload(0x40)\n      tag_21\n      swap2\n      swap1\n      tag_22\n      jump\t// in\n    tag_21:\n      mload(0x40)\n      dup1\n      swap2\n      sub\n      swap1\n      return\n        /* \"contracts/Airdrop.sol\":489:945  function multiTransferToken(address[] calldata _addrs,uint256[] calldata _amounts) external {... */\n    tag_5:\n      callvalue\n      dup1\n      iszero\n      tag_23\n      jumpi\n      0x00\n      dup1\n      revert\n    tag_23:\n      pop\n      tag_24\n      0x04\n      dup1\n      calldatasize\n      sub\n      dup2\n      add\n      swap1\n      tag_25\n      swap2\n      swap1\n      tag_14\n      jump\t// in\n    tag_25:\n      tag_26\n      jump\t// in\n    tag_24:\n      stop\n        /* \"contracts/Airdrop.sol\":953:1002  mapping(address=>uint256) public failTransferList */\n    tag_6:\n      callvalue\n      dup1\n      iszero\n      tag_27\n      jumpi\n      0x00\n      dup1\n      revert\n    tag_27:\n      pop\n      tag_28\n      0x04\n      dup1\n      calldatasize\n      sub\n      dup2\n      add\n      swap1\n      tag_29\n      swap2\n      swap1\n      tag_30\n      jump\t// in\n    tag_29:\n      tag_31\n      jump\t// in\n    tag_28:\n      mload(0x40)\n      tag_32\n      swap2\n      swap1\n      tag_22\n      jump\t// in\n    tag_32:\n      mload(0x40)\n      dup1\n      swap2\n      sub\n      swap1\n      return\n        /* \"contracts/Airdrop.sol\":206:230  address public tokenAddr */\n    tag_9:\n      0x00\n      dup1\n      sload\n      swap1\n      0x0100\n      exp\n      swap1\n      div\n      0xffffffffffffffffffffffffffffffffffffffff\n      and\n      dup2\n      jump\t// out\n        /* \"contracts/Airdrop.sol\":1011:1523  function multiTransferEth(address[] calldata _addrs,uint256[] calldata _amounts) external payable {... */\n    tag_15:\n        /* \"contracts/Airdrop.sol\":1145:1153  _amounts */\n      dup2\n      dup2\n        /* \"contracts/Airdrop.sol\":1145:1160  _amounts.length */\n      swap1\n      pop\n        /* \"contracts/Airdrop.sol\":1128:1134  _addrs */\n      dup5\n      dup5\n        /* \"contracts/Airdrop.sol\":1128:1141  _addrs.length */\n      swap1\n      pop\n        /* \"contracts/Airdrop.sol\":1128:1160  _addrs.length == _amounts.length */\n      eq\n        /* \"contracts/Airdrop.sol\":1120:1180  require(_addrs.length == _amounts.length,\"length not equal\") */\n      tag_34\n      jumpi\n      mload(0x40)\n      0x08c379a000000000000000000000000000000000000000000000000000000000\n      dup2\n      mstore\n      0x04\n      add\n      tag_35\n      swap1\n      tag_36\n      jump\t// in\n    tag_35:\n      mload(0x40)\n      dup1\n      swap2\n      sub\n      swap1\n      revert\n    tag_34:\n        /* \"contracts/Airdrop.sol\":1191:1202  uint amount */\n      0x00\n        /* \"contracts/Airdrop.sol\":1205:1221  getSum(_amounts) */\n      tag_37\n        /* \"contracts/Airdrop.sol\":1212:1220  _amounts */\n      dup4\n      dup4\n        /* \"contracts/Airdrop.sol\":1205:1211  getSum */\n      tag_20\n        /* \"contracts/Airdrop.sol\":1205:1221  getSum(_amounts) */\n      jump\t// in\n    tag_37:\n        /* \"contracts/Airdrop.sol\":1191:1221  uint amount = getSum(_amounts) */\n      swap1\n      pop\n        /* \"contracts/Airdrop.sol\":1253:1259  amount */\n      dup1\n        /* \"contracts/Airdrop.sol\":1240:1249  msg.value */\n      callvalue\n        /* \"contracts/Airdrop.sol\":1240:1259  msg.value == amount */\n      eq\n        /* \"contracts/Airdrop.sol\":1232:1278  require(msg.value == amount,\"msg.value error\") */\n      tag_38\n      jumpi\n      mload(0x40)\n      0x08c379a000000000000000000000000000000000000000000000000000000000\n      dup2\n      mstore\n      0x04\n      add\n      tag_39\n      swap1\n      tag_40\n      jump\t// in\n    tag_39:\n      mload(0x40)\n      dup1\n      swap2\n      sub\n      swap1\n      revert\n    tag_38:\n        /* \"contracts/Airdrop.sol\":1296:1303  uint8 i */\n      0x00\n        /* \"contracts/Airdrop.sol\":1291:1516  for (uint8 i; i < _addrs.length; i++) {... */\n    tag_41:\n        /* \"contracts/Airdrop.sol\":1309:1315  _addrs */\n      dup6\n      dup6\n        /* \"contracts/Airdrop.sol\":1309:1322  _addrs.length */\n      swap1\n      pop\n        /* \"contracts/Airdrop.sol\":1305:1306  i */\n      dup2\n        /* \"contracts/Airdrop.sol\":1305:1322  i < _addrs.length */\n      0xff\n      and\n      lt\n        /* \"contracts/Airdrop.sol\":1291:1516  for (uint8 i; i < _addrs.length; i++) {... */\n      iszero\n      tag_42\n      jumpi\n        /* \"contracts/Airdrop.sol\":1345:1357  bool success */\n      0x00\n        /* \"contracts/Airdrop.sol\":1363:1369  _addrs */\n      dup7\n      dup7\n        /* \"contracts/Airdrop.sol\":1370:1371  i */\n      dup4\n        /* \"contracts/Airdrop.sol\":1363:1372  _addrs[i] */\n      0xff\n      and\n      dup2\n      dup2\n      lt\n      tag_44\n      jumpi\n      tag_45\n      tag_46\n      jump\t// in\n    tag_45:\n    tag_44:\n      swap1\n      pop\n      0x20\n      mul\n      add\n      0x20\n      dup2\n      add\n      swap1\n      tag_47\n      swap2\n      swap1\n      tag_30\n      jump\t// in\n    tag_47:\n        /* \"contracts/Airdrop.sol\":1363:1377  _addrs[i].call */\n      0xffffffffffffffffffffffffffffffffffffffff\n      and\n        /* \"contracts/Airdrop.sol\":1384:1392  _amounts */\n      dup6\n      dup6\n        /* \"contracts/Airdrop.sol\":1393:1394  i */\n      dup5\n        /* \"contracts/Airdrop.sol\":1384:1395  _amounts[i] */\n      0xff\n      and\n      dup2\n      dup2\n      lt\n      tag_48\n      jumpi\n      tag_49\n      tag_46\n      jump\t// in\n    tag_49:\n    tag_48:\n      swap1\n      pop\n      0x20\n      mul\n      add\n      calldataload\n        /* \"contracts/Airdrop.sol\":1363:1400  _addrs[i].call{value:_amounts[i]}(\"\") */\n      mload(0x40)\n      tag_50\n      swap1\n      tag_51\n      jump\t// in\n    tag_50:\n      0x00\n      mload(0x40)\n      dup1\n      dup4\n      sub\n      dup2\n      dup6\n      dup8\n      gas\n      call\n      swap3\n      pop\n      pop\n      pop\n      returndatasize\n      dup1\n      0x00\n      dup2\n      eq\n      tag_54\n      jumpi\n      mload(0x40)\n      swap2\n      pop\n      and(add(returndatasize, 0x3f), not(0x1f))\n      dup3\n      add\n      0x40\n      mstore\n      returndatasize\n      dup3\n      mstore\n      returndatasize\n      0x00\n      0x20\n      dup5\n      add\n      returndatacopy\n      jump(tag_53)\n    tag_54:\n      0x60\n      swap2\n      pop\n    tag_53:\n      pop\n        /* \"contracts/Airdrop.sol\":1344:1400  (bool success, ) = _addrs[i].call{value:_amounts[i]}(\"\") */\n      pop\n      swap1\n      pop\n        /* \"contracts/Airdrop.sol\":1420:1427  success */\n      dup1\n        /* \"contracts/Airdrop.sol\":1415:1505  if (!success) {... */\n      tag_55\n      jumpi\n        /* \"contracts/Airdrop.sol\":1478:1486  _amounts */\n      dup5\n      dup5\n        /* \"contracts/Airdrop.sol\":1487:1488  i */\n      dup4\n        /* \"contracts/Airdrop.sol\":1478:1489  _amounts[i] */\n      0xff\n      and\n      dup2\n      dup2\n      lt\n      tag_56\n      jumpi\n      tag_57\n      tag_46\n      jump\t// in\n    tag_57:\n    tag_56:\n      swap1\n      pop\n      0x20\n      mul\n      add\n      calldataload\n        /* \"contracts/Airdrop.sol\":1448:1464  failTransferList */\n      0x01\n        /* \"contracts/Airdrop.sol\":1448:1475  failTransferList[_addrs[i]] */\n      0x00\n        /* \"contracts/Airdrop.sol\":1465:1471  _addrs */\n      dup10\n      dup10\n        /* \"contracts/Airdrop.sol\":1472:1473  i */\n      dup7\n        /* \"contracts/Airdrop.sol\":1465:1474  _addrs[i] */\n      0xff\n      and\n      dup2\n      dup2\n      lt\n      tag_58\n      jumpi\n      tag_59\n      tag_46\n      jump\t// in\n    tag_59:\n    tag_58:\n      swap1\n      pop\n      0x20\n      mul\n      add\n      0x20\n      dup2\n      add\n      swap1\n      tag_60\n      swap2\n      swap1\n      tag_30\n      jump\t// in\n    tag_60:\n        /* \"contracts/Airdrop.sol\":1448:1475  failTransferList[_addrs[i]] */\n      0xffffffffffffffffffffffffffffffffffffffff\n      and\n      0xffffffffffffffffffffffffffffffffffffffff\n      and\n      dup2\n      mstore\n      0x20\n      add\n      swap1\n      dup2\n      mstore\n      0x20\n      add\n      0x00\n      keccak256\n        /* \"contracts/Airdrop.sol\":1448:1489  failTransferList[_addrs[i]] = _amounts[i] */\n      dup2\n      swap1\n      sstore\n      pop\n        /* \"contracts/Airdrop.sol\":1415:1505  if (!success) {... */\n    tag_55:\n        /* \"contracts/Airdrop.sol\":1329:1516  {... */\n      pop\n        /* \"contracts/Airdrop.sol\":1324:1327  i++ */\n      dup1\n      dup1\n      tag_61\n      swap1\n      tag_62\n      jump\t// in\n    tag_61:\n      swap2\n      pop\n      pop\n        /* \"contracts/Airdrop.sol\":1291:1516  for (uint8 i; i < _addrs.length; i++) {... */\n      jump(tag_41)\n    tag_42:\n      pop\n        /* \"contracts/Airdrop.sol\":1109:1523  {... */\n      pop\n        /* \"contracts/Airdrop.sol\":1011:1523  function multiTransferEth(address[] calldata _addrs,uint256[] calldata _amounts) external payable {... */\n      pop\n      pop\n      pop\n      pop\n      jump\t// out\n        /* \"contracts/Airdrop.sol\":318:481  function getSum(uint256[] calldata arr) public pure returns(uint sum) {... */\n    tag_20:\n        /* \"contracts/Airdrop.sol\":378:386  uint sum */\n      0x00\n        /* \"contracts/Airdrop.sol\":404:411  uint8 i */\n      dup1\n        /* \"contracts/Airdrop.sol\":399:474  for (uint8 i; i < arr.length; i++) {... */\n    tag_64:\n        /* \"contracts/Airdrop.sol\":417:420  arr */\n      dup4\n      dup4\n        /* \"contracts/Airdrop.sol\":417:427  arr.length */\n      swap1\n      pop\n        /* \"contracts/Airdrop.sol\":413:414  i */\n      dup2\n        /* \"contracts/Airdrop.sol\":413:427  i < arr.length */\n      0xff\n      and\n      lt\n        /* \"contracts/Airdrop.sol\":399:474  for (uint8 i; i < arr.length; i++) {... */\n      iszero\n      tag_65\n      jumpi\n        /* \"contracts/Airdrop.sol\":456:459  arr */\n      dup4\n      dup4\n        /* \"contracts/Airdrop.sol\":460:461  i */\n      dup3\n        /* \"contracts/Airdrop.sol\":456:462  arr[i] */\n      0xff\n      and\n      dup2\n      dup2\n      lt\n      tag_67\n      jumpi\n      tag_68\n      tag_46\n      jump\t// in\n    tag_68:\n    tag_67:\n      swap1\n      pop\n      0x20\n      mul\n      add\n      calldataload\n        /* \"contracts/Airdrop.sol\":449:462  sum += arr[i] */\n      dup3\n      tag_69\n      swap2\n      swap1\n      tag_70\n      jump\t// in\n    tag_69:\n      swap2\n      pop\n        /* \"contracts/Airdrop.sol\":429:432  i++ */\n      dup1\n      dup1\n      tag_71\n      swap1\n      tag_62\n      jump\t// in\n    tag_71:\n      swap2\n      pop\n      pop\n        /* \"contracts/Airdrop.sol\":399:474  for (uint8 i; i < arr.length; i++) {... */\n      jump(tag_64)\n    tag_65:\n      pop\n        /* \"contracts/Airdrop.sol\":318:481  function getSum(uint256[] calldata arr) public pure returns(uint sum) {... */\n      swap3\n      swap2\n      pop\n      pop\n      jump\t// out\n        /* \"contracts/Airdrop.sol\":489:945  function multiTransferToken(address[] calldata _addrs,uint256[] calldata _amounts) external {... */\n    tag_26:\n        /* \"contracts/Airdrop.sol\":617:625  _amounts */\n      dup2\n      dup2\n        /* \"contracts/Airdrop.sol\":617:632  _amounts.length */\n      swap1\n      pop\n        /* \"contracts/Airdrop.sol\":600:606  _addrs */\n      dup5\n      dup5\n        /* \"contracts/Airdrop.sol\":600:613  _addrs.length */\n      swap1\n      pop\n        /* \"contracts/Airdrop.sol\":600:632  _addrs.length == _amounts.length */\n      eq\n        /* \"contracts/Airdrop.sol\":592:652  require(_addrs.length == _amounts.length,\"length not equal\") */\n      tag_73\n      jumpi\n      mload(0x40)\n      0x08c379a000000000000000000000000000000000000000000000000000000000\n      dup2\n      mstore\n      0x04\n      add\n      tag_74\n      swap1\n      tag_36\n      jump\t// in\n    tag_74:\n      mload(0x40)\n      dup1\n      swap2\n      sub\n      swap1\n      revert\n    tag_73:\n        /* \"contracts/Airdrop.sol\":663:675  IERC20 token */\n      0x00\n        /* \"contracts/Airdrop.sol\":685:694  tokenAddr */\n      dup1\n      0x00\n      swap1\n      sload\n      swap1\n      0x0100\n      exp\n      swap1\n      div\n      0xffffffffffffffffffffffffffffffffffffffff\n      and\n        /* \"contracts/Airdrop.sol\":663:695  IERC20 token = IERC20(tokenAddr) */\n      swap1\n      pop\n        /* \"contracts/Airdrop.sol\":760:776  getSum(_amounts) */\n      tag_75\n        /* \"contracts/Airdrop.sol\":767:775  _amounts */\n      dup4\n      dup4\n        /* \"contracts/Airdrop.sol\":760:766  getSum */\n      tag_20\n        /* \"contracts/Airdrop.sol\":760:776  getSum(_amounts) */\n      jump\t// in\n    tag_75:\n        /* \"contracts/Airdrop.sol\":714:719  token */\n      dup2\n        /* \"contracts/Airdrop.sol\":714:729  token.allowance */\n      0xffffffffffffffffffffffffffffffffffffffff\n      and\n      0xdd62ed3e\n        /* \"contracts/Airdrop.sol\":730:740  msg.sender */\n      caller\n        /* \"contracts/Airdrop.sol\":750:754  this */\n      address\n        /* \"contracts/Airdrop.sol\":714:756  token.allowance(msg.sender, address(this)) */\n      mload(0x40)\n      dup4\n      0xffffffff\n      and\n      0xe0\n      shl\n      dup2\n      mstore\n      0x04\n      add\n      tag_76\n      swap3\n      swap2\n      swap1\n      tag_77\n      jump\t// in\n    tag_76:\n      0x20\n      mload(0x40)\n      dup1\n      dup4\n      sub\n      dup2\n      0x00\n      dup8\n      gas\n      call\n      iszero\n      dup1\n      iszero\n      tag_79\n      jumpi\n      returndatasize\n      0x00\n      dup1\n      returndatacopy\n      revert(0x00, returndatasize)\n    tag_79:\n      pop\n      pop\n      pop\n      pop\n      mload(0x40)\n      returndatasize\n      not(0x1f)\n      0x1f\n      dup3\n      add\n      and\n      dup3\n      add\n      dup1\n      0x40\n      mstore\n      pop\n      dup2\n      add\n      swap1\n      tag_80\n      swap2\n      swap1\n      tag_81\n      jump\t// in\n    tag_80:\n        /* \"contracts/Airdrop.sol\":714:776  token.allowance(msg.sender, address(this)) >= getSum(_amounts) */\n      lt\n      iszero\n        /* \"contracts/Airdrop.sol\":706:806  require(token.allowance(msg.sender, address(this)) >= getSum(_amounts),\"Need enough approve amount\") */\n      tag_82\n      jumpi\n      mload(0x40)\n      0x08c379a000000000000000000000000000000000000000000000000000000000\n      dup2\n      mstore\n      0x04\n      add\n      tag_83\n      swap1\n      tag_84\n      jump\t// in\n    tag_83:\n      mload(0x40)\n      dup1\n      swap2\n      sub\n      swap1\n      revert\n    tag_82:\n        /* \"contracts/Airdrop.sol\":824:831  uint8 i */\n      0x00\n        /* \"contracts/Airdrop.sol\":819:938  for (uint8 i; i < _addrs.length; i++) {... */\n    tag_85:\n        /* \"contracts/Airdrop.sol\":837:843  _addrs */\n      dup6\n      dup6\n        /* \"contracts/Airdrop.sol\":837:850  _addrs.length */\n      swap1\n      pop\n        /* \"contracts/Airdrop.sol\":833:834  i */\n      dup2\n        /* \"contracts/Airdrop.sol\":833:850  i < _addrs.length */\n      0xff\n      and\n      lt\n        /* \"contracts/Airdrop.sol\":819:938  for (uint8 i; i < _addrs.length; i++) {... */\n      iszero\n      tag_86\n      jumpi\n        /* \"contracts/Airdrop.sol\":872:877  token */\n      dup2\n        /* \"contracts/Airdrop.sol\":872:890  token.transferFrom */\n      0xffffffffffffffffffffffffffffffffffffffff\n      and\n      0x23b872dd\n        /* \"contracts/Airdrop.sol\":891:901  msg.sender */\n      caller\n        /* \"contracts/Airdrop.sol\":903:909  _addrs */\n      dup9\n      dup9\n        /* \"contracts/Airdrop.sol\":910:911  i */\n      dup6\n        /* \"contracts/Airdrop.sol\":903:912  _addrs[i] */\n      0xff\n      and\n      dup2\n      dup2\n      lt\n      tag_88\n      jumpi\n      tag_89\n      tag_46\n      jump\t// in\n    tag_89:\n    tag_88:\n      swap1\n      pop\n      0x20\n      mul\n      add\n      0x20\n      dup2\n      add\n      swap1\n      tag_90\n      swap2\n      swap1\n      tag_30\n      jump\t// in\n    tag_90:\n        /* \"contracts/Airdrop.sol\":914:922  _amounts */\n      dup8\n      dup8\n        /* \"contracts/Airdrop.sol\":923:924  i */\n      dup7\n        /* \"contracts/Airdrop.sol\":914:925  _amounts[i] */\n      0xff\n      and\n      dup2\n      dup2\n      lt\n      tag_91\n      jumpi\n      tag_92\n      tag_46\n      jump\t// in\n    tag_92:\n    tag_91:\n      swap1\n      pop\n      0x20\n      mul\n      add\n      calldataload\n        /* \"contracts/Airdrop.sol\":872:926  token.transferFrom(msg.sender, _addrs[i], _amounts[i]) */\n      mload(0x40)\n      dup5\n      0xffffffff\n      and\n      0xe0\n      shl\n      dup2\n      mstore\n      0x04\n      add\n      tag_93\n      swap4\n      swap3\n      swap2\n      swap1\n      tag_94\n      jump\t// in\n    tag_93:\n      0x20\n      mload(0x40)\n      dup1\n      dup4\n      sub\n      dup2\n      0x00\n      dup8\n      gas\n      call\n      iszero\n      dup1\n      iszero\n      tag_96\n      jumpi\n      returndatasize\n      0x00\n      dup1\n      returndatacopy\n      revert(0x00, returndatasize)\n    tag_96:\n      pop\n      pop\n      pop\n      pop\n      mload(0x40)\n      returndatasize\n      not(0x1f)\n      0x1f\n      dup3\n      add\n      and\n      dup3\n      add\n      dup1\n      0x40\n      mstore\n      pop\n      dup2\n      add\n      swap1\n      tag_97\n      swap2\n      swap1\n      tag_98\n      jump\t// in\n    tag_97:\n      pop\n        /* \"contracts/Airdrop.sol\":852:855  i++ */\n      dup1\n      dup1\n      tag_99\n      swap1\n      tag_62\n      jump\t// in\n    tag_99:\n      swap2\n      pop\n      pop\n        /* \"contracts/Airdrop.sol\":819:938  for (uint8 i; i < _addrs.length; i++) {... */\n      jump(tag_85)\n    tag_86:\n      pop\n        /* \"contracts/Airdrop.sol\":581:945  {... */\n      pop\n        /* \"contracts/Airdrop.sol\":489:945  function multiTransferToken(address[] calldata _addrs,uint256[] calldata _amounts) external {... */\n      pop\n      pop\n      pop\n      pop\n      jump\t// out\n        /* \"contracts/Airdrop.sol\":953:1002  mapping(address=>uint256) public failTransferList */\n    tag_31:\n      mstore(0x20, 0x01)\n      dup1\n      0x00\n      mstore\n      keccak256(0x00, 0x40)\n      0x00\n      swap2\n      pop\n      swap1\n      pop\n      sload\n      dup2\n      jump\t// out\n        /* \"#utility.yul\":7:133   */\n    tag_100:\n        /* \"#utility.yul\":44:51   */\n      0x00\n        /* \"#utility.yul\":84:126   */\n      0xffffffffffffffffffffffffffffffffffffffff\n        /* \"#utility.yul\":77:82   */\n      dup3\n        /* \"#utility.yul\":73:127   */\n      and\n        /* \"#utility.yul\":62:127   */\n      swap1\n      pop\n        /* \"#utility.yul\":7:133   */\n      swap2\n      swap1\n      pop\n      jump\t// out\n        /* \"#utility.yul\":139:235   */\n    tag_101:\n        /* \"#utility.yul\":176:183   */\n      0x00\n        /* \"#utility.yul\":205:229   */\n      tag_135\n        /* \"#utility.yul\":223:228   */\n      dup3\n        /* \"#utility.yul\":205:229   */\n      tag_100\n      jump\t// in\n    tag_135:\n        /* \"#utility.yul\":194:229   */\n      swap1\n      pop\n        /* \"#utility.yul\":139:235   */\n      swap2\n      swap1\n      pop\n      jump\t// out\n        /* \"#utility.yul\":241:359   */\n    tag_102:\n        /* \"#utility.yul\":328:352   */\n      tag_137\n        /* \"#utility.yul\":346:351   */\n      dup2\n        /* \"#utility.yul\":328:352   */\n      tag_101\n      jump\t// in\n    tag_137:\n        /* \"#utility.yul\":323:326   */\n      dup3\n        /* \"#utility.yul\":316:353   */\n      mstore\n        /* \"#utility.yul\":241:359   */\n      pop\n      pop\n      jump\t// out\n        /* \"#utility.yul\":365:587   */\n    tag_11:\n        /* \"#utility.yul\":458:462   */\n      0x00\n        /* \"#utility.yul\":496:498   */\n      0x20\n        /* \"#utility.yul\":485:494   */\n      dup3\n        /* \"#utility.yul\":481:499   */\n      add\n        /* \"#utility.yul\":473:499   */\n      swap1\n      pop\n        /* \"#utility.yul\":509:580   */\n      tag_139\n        /* \"#utility.yul\":577:578   */\n      0x00\n        /* \"#utility.yul\":566:575   */\n      dup4\n        /* \"#utility.yul\":562:579   */\n      add\n        /* \"#utility.yul\":553:559   */\n      dup5\n        /* \"#utility.yul\":509:580   */\n      tag_102\n      jump\t// in\n    tag_139:\n        /* \"#utility.yul\":365:587   */\n      swap3\n      swap2\n      pop\n      pop\n      jump\t// out\n        /* \"#utility.yul\":674:791   */\n    tag_104:\n        /* \"#utility.yul\":783:784   */\n      0x00\n        /* \"#utility.yul\":780:781   */\n      dup1\n        /* \"#utility.yul\":773:785   */\n      revert\n        /* \"#utility.yul\":797:914   */\n    tag_105:\n        /* \"#utility.yul\":906:907   */\n      0x00\n        /* \"#utility.yul\":903:904   */\n      dup1\n        /* \"#utility.yul\":896:908   */\n      revert\n        /* \"#utility.yul\":920:1037   */\n    tag_106:\n        /* \"#utility.yul\":1029:1030   */\n      0x00\n        /* \"#utility.yul\":1026:1027   */\n      dup1\n        /* \"#utility.yul\":1019:1031   */\n      revert\n        /* \"#utility.yul\":1043:1160   */\n    tag_107:\n        /* \"#utility.yul\":1152:1153   */\n      0x00\n        /* \"#utility.yul\":1149:1150   */\n      dup1\n        /* \"#utility.yul\":1142:1154   */\n      revert\n        /* \"#utility.yul\":1166:1283   */\n    tag_108:\n        /* \"#utility.yul\":1275:1276   */\n      0x00\n        /* \"#utility.yul\":1272:1273   */\n      dup1\n        /* \"#utility.yul\":1265:1277   */\n      revert\n        /* \"#utility.yul\":1306:1874   */\n    tag_109:\n        /* \"#utility.yul\":1379:1387   */\n      0x00\n        /* \"#utility.yul\":1389:1395   */\n      dup1\n        /* \"#utility.yul\":1439:1442   */\n      dup4\n        /* \"#utility.yul\":1432:1436   */\n      0x1f\n        /* \"#utility.yul\":1424:1430   */\n      dup5\n        /* \"#utility.yul\":1420:1437   */\n      add\n        /* \"#utility.yul\":1416:1443   */\n      slt\n        /* \"#utility.yul\":1406:1528   */\n      tag_147\n      jumpi\n        /* \"#utility.yul\":1447:1526   */\n      tag_148\n      tag_106\n      jump\t// in\n    tag_148:\n        /* \"#utility.yul\":1406:1528   */\n    tag_147:\n        /* \"#utility.yul\":1560:1566   */\n      dup3\n        /* \"#utility.yul\":1547:1567   */\n      calldataload\n        /* \"#utility.yul\":1537:1567   */\n      swap1\n      pop\n        /* \"#utility.yul\":1590:1608   */\n      0xffffffffffffffff\n        /* \"#utility.yul\":1582:1588   */\n      dup2\n        /* \"#utility.yul\":1579:1609   */\n      gt\n        /* \"#utility.yul\":1576:1693   */\n      iszero\n      tag_149\n      jumpi\n        /* \"#utility.yul\":1612:1691   */\n      tag_150\n      tag_107\n      jump\t// in\n    tag_150:\n        /* \"#utility.yul\":1576:1693   */\n    tag_149:\n        /* \"#utility.yul\":1726:1730   */\n      0x20\n        /* \"#utility.yul\":1718:1724   */\n      dup4\n        /* \"#utility.yul\":1714:1731   */\n      add\n        /* \"#utility.yul\":1702:1731   */\n      swap2\n      pop\n        /* \"#utility.yul\":1780:1783   */\n      dup4\n        /* \"#utility.yul\":1772:1776   */\n      0x20\n        /* \"#utility.yul\":1764:1770   */\n      dup3\n        /* \"#utility.yul\":1760:1777   */\n      mul\n        /* \"#utility.yul\":1750:1758   */\n      dup4\n        /* \"#utility.yul\":1746:1778   */\n      add\n        /* \"#utility.yul\":1743:1784   */\n      gt\n        /* \"#utility.yul\":1740:1868   */\n      iszero\n      tag_151\n      jumpi\n        /* \"#utility.yul\":1787:1866   */\n      tag_152\n      tag_108\n      jump\t// in\n    tag_152:\n        /* \"#utility.yul\":1740:1868   */\n    tag_151:\n        /* \"#utility.yul\":1306:1874   */\n      swap3\n      pop\n      swap3\n      swap1\n      pop\n      jump\t// out\n        /* \"#utility.yul\":1897:2465   */\n    tag_110:\n        /* \"#utility.yul\":1970:1978   */\n      0x00\n        /* \"#utility.yul\":1980:1986   */\n      dup1\n        /* \"#utility.yul\":2030:2033   */\n      dup4\n        /* \"#utility.yul\":2023:2027   */\n      0x1f\n        /* \"#utility.yul\":2015:2021   */\n      dup5\n        /* \"#utility.yul\":2011:2028   */\n      add\n        /* \"#utility.yul\":2007:2034   */\n      slt\n        /* \"#utility.yul\":1997:2119   */\n      tag_154\n      jumpi\n        /* \"#utility.yul\":2038:2117   */\n      tag_155\n      tag_106\n      jump\t// in\n    tag_155:\n        /* \"#utility.yul\":1997:2119   */\n    tag_154:\n        /* \"#utility.yul\":2151:2157   */\n      dup3\n        /* \"#utility.yul\":2138:2158   */\n      calldataload\n        /* \"#utility.yul\":2128:2158   */\n      swap1\n      pop\n        /* \"#utility.yul\":2181:2199   */\n      0xffffffffffffffff\n        /* \"#utility.yul\":2173:2179   */\n      dup2\n        /* \"#utility.yul\":2170:2200   */\n      gt\n        /* \"#utility.yul\":2167:2284   */\n      iszero\n      tag_156\n      jumpi\n        /* \"#utility.yul\":2203:2282   */\n      tag_157\n      tag_107\n      jump\t// in\n    tag_157:\n        /* \"#utility.yul\":2167:2284   */\n    tag_156:\n        /* \"#utility.yul\":2317:2321   */\n      0x20\n        /* \"#utility.yul\":2309:2315   */\n      dup4\n        /* \"#utility.yul\":2305:2322   */\n      add\n        /* \"#utility.yul\":2293:2322   */\n      swap2\n      pop\n        /* \"#utility.yul\":2371:2374   */\n      dup4\n        /* \"#utility.yul\":2363:2367   */\n      0x20\n        /* \"#utility.yul\":2355:2361   */\n      dup3\n        /* \"#utility.yul\":2351:2368   */\n      mul\n        /* \"#utility.yul\":2341:2349   */\n      dup4\n        /* \"#utility.yul\":2337:2369   */\n      add\n        /* \"#utility.yul\":2334:2375   */\n      gt\n        /* \"#utility.yul\":2331:2459   */\n      iszero\n      tag_158\n      jumpi\n        /* \"#utility.yul\":2378:2457   */\n      tag_159\n      tag_108\n      jump\t// in\n    tag_159:\n        /* \"#utility.yul\":2331:2459   */\n    tag_158:\n        /* \"#utility.yul\":1897:2465   */\n      swap3\n      pop\n      swap3\n      swap1\n      pop\n      jump\t// out\n        /* \"#utility.yul\":2471:3405   */\n    tag_14:\n        /* \"#utility.yul\":2593:2599   */\n      0x00\n        /* \"#utility.yul\":2601:2607   */\n      dup1\n        /* \"#utility.yul\":2609:2615   */\n      0x00\n        /* \"#utility.yul\":2617:2623   */\n      dup1\n        /* \"#utility.yul\":2666:2668   */\n      0x40\n        /* \"#utility.yul\":2654:2663   */\n      dup6\n        /* \"#utility.yul\":2645:2652   */\n      dup8\n        /* \"#utility.yul\":2641:2664   */\n      sub\n        /* \"#utility.yul\":2637:2669   */\n      slt\n        /* \"#utility.yul\":2634:2753   */\n      iszero\n      tag_161\n      jumpi\n        /* \"#utility.yul\":2672:2751   */\n      tag_162\n      tag_104\n      jump\t// in\n    tag_162:\n        /* \"#utility.yul\":2634:2753   */\n    tag_161:\n        /* \"#utility.yul\":2820:2821   */\n      0x00\n        /* \"#utility.yul\":2809:2818   */\n      dup6\n        /* \"#utility.yul\":2805:2822   */\n      add\n        /* \"#utility.yul\":2792:2823   */\n      calldataload\n        /* \"#utility.yul\":2850:2868   */\n      0xffffffffffffffff\n        /* \"#utility.yul\":2842:2848   */\n      dup2\n        /* \"#utility.yul\":2839:2869   */\n      gt\n        /* \"#utility.yul\":2836:2953   */\n      iszero\n      tag_163\n      jumpi\n        /* \"#utility.yul\":2872:2951   */\n      tag_164\n      tag_105\n      jump\t// in\n    tag_164:\n        /* \"#utility.yul\":2836:2953   */\n    tag_163:\n        /* \"#utility.yul\":2985:3065   */\n      tag_165\n        /* \"#utility.yul\":3057:3064   */\n      dup8\n        /* \"#utility.yul\":3048:3054   */\n      dup3\n        /* \"#utility.yul\":3037:3046   */\n      dup9\n        /* \"#utility.yul\":3033:3055   */\n      add\n        /* \"#utility.yul\":2985:3065   */\n      tag_109\n      jump\t// in\n    tag_165:\n        /* \"#utility.yul\":2967:3065   */\n      swap5\n      pop\n      swap5\n      pop\n        /* \"#utility.yul\":2763:3075   */\n      pop\n        /* \"#utility.yul\":3142:3144   */\n      0x20\n        /* \"#utility.yul\":3131:3140   */\n      dup6\n        /* \"#utility.yul\":3127:3145   */\n      add\n        /* \"#utility.yul\":3114:3146   */\n      calldataload\n        /* \"#utility.yul\":3173:3191   */\n      0xffffffffffffffff\n        /* \"#utility.yul\":3165:3171   */\n      dup2\n        /* \"#utility.yul\":3162:3192   */\n      gt\n        /* \"#utility.yul\":3159:3276   */\n      iszero\n      tag_166\n      jumpi\n        /* \"#utility.yul\":3195:3274   */\n      tag_167\n      tag_105\n      jump\t// in\n    tag_167:\n        /* \"#utility.yul\":3159:3276   */\n    tag_166:\n        /* \"#utility.yul\":3308:3388   */\n      tag_168\n        /* \"#utility.yul\":3380:3387   */\n      dup8\n        /* \"#utility.yul\":3371:3377   */\n      dup3\n        /* \"#utility.yul\":3360:3369   */\n      dup9\n        /* \"#utility.yul\":3356:3378   */\n      add\n        /* \"#utility.yul\":3308:3388   */\n      tag_110\n      jump\t// in\n    tag_168:\n        /* \"#utility.yul\":3290:3388   */\n      swap3\n      pop\n      swap3\n      pop\n        /* \"#utility.yul\":3085:3398   */\n      pop\n        /* \"#utility.yul\":2471:3405   */\n      swap3\n      swap6\n      swap2\n      swap5\n      pop\n      swap3\n      pop\n      jump\t// out\n        /* \"#utility.yul\":3411:3970   */\n    tag_19:\n        /* \"#utility.yul\":3497:3503   */\n      0x00\n        /* \"#utility.yul\":3505:3511   */\n      dup1\n        /* \"#utility.yul\":3554:3556   */\n      0x20\n        /* \"#utility.yul\":3542:3551   */\n      dup4\n        /* \"#utility.yul\":3533:3540   */\n      dup6\n        /* \"#utility.yul\":3529:3552   */\n      sub\n        /* \"#utility.yul\":3525:3557   */\n      slt\n        /* \"#utility.yul\":3522:3641   */\n      iszero\n      tag_170\n      jumpi\n        /* \"#utility.yul\":3560:3639   */\n      tag_171\n      tag_104\n      jump\t// in\n    tag_171:\n        /* \"#utility.yul\":3522:3641   */\n    tag_170:\n        /* \"#utility.yul\":3708:3709   */\n      0x00\n        /* \"#utility.yul\":3697:3706   */\n      dup4\n        /* \"#utility.yul\":3693:3710   */\n      add\n        /* \"#utility.yul\":3680:3711   */\n      calldataload\n        /* \"#utility.yul\":3738:3756   */\n      0xffffffffffffffff\n        /* \"#utility.yul\":3730:3736   */\n      dup2\n        /* \"#utility.yul\":3727:3757   */\n      gt\n        /* \"#utility.yul\":3724:3841   */\n      iszero\n      tag_172\n      jumpi\n        /* \"#utility.yul\":3760:3839   */\n      tag_173\n      tag_105\n      jump\t// in\n    tag_173:\n        /* \"#utility.yul\":3724:3841   */\n    tag_172:\n        /* \"#utility.yul\":3873:3953   */\n      tag_174\n        /* \"#utility.yul\":3945:3952   */\n      dup6\n        /* \"#utility.yul\":3936:3942   */\n      dup3\n        /* \"#utility.yul\":3925:3934   */\n      dup7\n        /* \"#utility.yul\":3921:3943   */\n      add\n        /* \"#utility.yul\":3873:3953   */\n      tag_110\n      jump\t// in\n    tag_174:\n        /* \"#utility.yul\":3855:3953   */\n      swap3\n      pop\n      swap3\n      pop\n        /* \"#utility.yul\":3651:3963   */\n      pop\n        /* \"#utility.yul\":3411:3970   */\n      swap3\n      pop\n      swap3\n      swap1\n      pop\n      jump\t// out\n        /* \"#utility.yul\":3976:4053   */\n    tag_111:\n        /* \"#utility.yul\":4013:4020   */\n      0x00\n        /* \"#utility.yul\":4042:4047   */\n      dup2\n        /* \"#utility.yul\":4031:4047   */\n      swap1\n      pop\n        /* \"#utility.yul\":3976:4053   */\n      swap2\n      swap1\n      pop\n      jump\t// out\n        /* \"#utility.yul\":4059:4177   */\n    tag_112:\n        /* \"#utility.yul\":4146:4170   */\n      tag_177\n        /* \"#utility.yul\":4164:4169   */\n      dup2\n        /* \"#utility.yul\":4146:4170   */\n      tag_111\n      jump\t// in\n    tag_177:\n        /* \"#utility.yul\":4141:4144   */\n      dup3\n        /* \"#utility.yul\":4134:4171   */\n      mstore\n        /* \"#utility.yul\":4059:4177   */\n      pop\n      pop\n      jump\t// out\n        /* \"#utility.yul\":4183:4405   */\n    tag_22:\n        /* \"#utility.yul\":4276:4280   */\n      0x00\n        /* \"#utility.yul\":4314:4316   */\n      0x20\n        /* \"#utility.yul\":4303:4312   */\n      dup3\n        /* \"#utility.yul\":4299:4317   */\n      add\n        /* \"#utility.yul\":4291:4317   */\n      swap1\n      pop\n        /* \"#utility.yul\":4327:4398   */\n      tag_179\n        /* \"#utility.yul\":4395:4396   */\n      0x00\n        /* \"#utility.yul\":4384:4393   */\n      dup4\n        /* \"#utility.yul\":4380:4397   */\n      add\n        /* \"#utility.yul\":4371:4377   */\n      dup5\n        /* \"#utility.yul\":4327:4398   */\n      tag_112\n      jump\t// in\n    tag_179:\n        /* \"#utility.yul\":4183:4405   */\n      swap3\n      swap2\n      pop\n      pop\n      jump\t// out\n        /* \"#utility.yul\":4411:4533   */\n    tag_113:\n        /* \"#utility.yul\":4484:4508   */\n      tag_181\n        /* \"#utility.yul\":4502:4507   */\n      dup2\n        /* \"#utility.yul\":4484:4508   */\n      tag_101\n      jump\t// in\n    tag_181:\n        /* \"#utility.yul\":4477:4482   */\n      dup2\n        /* \"#utility.yul\":4474:4509   */\n      eq\n        /* \"#utility.yul\":4464:4527   */\n      tag_182\n      jumpi\n        /* \"#utility.yul\":4523:4524   */\n      0x00\n        /* \"#utility.yul\":4520:4521   */\n      dup1\n        /* \"#utility.yul\":4513:4525   */\n      revert\n        /* \"#utility.yul\":4464:4527   */\n    tag_182:\n        /* \"#utility.yul\":4411:4533   */\n      pop\n      jump\t// out\n        /* \"#utility.yul\":4539:4678   */\n    tag_114:\n        /* \"#utility.yul\":4585:4590   */\n      0x00\n        /* \"#utility.yul\":4623:4629   */\n      dup2\n        /* \"#utility.yul\":4610:4630   */\n      calldataload\n        /* \"#utility.yul\":4601:4630   */\n      swap1\n      pop\n        /* \"#utility.yul\":4639:4672   */\n      tag_184\n        /* \"#utility.yul\":4666:4671   */\n      dup2\n        /* \"#utility.yul\":4639:4672   */\n      tag_113\n      jump\t// in\n    tag_184:\n        /* \"#utility.yul\":4539:4678   */\n      swap3\n      swap2\n      pop\n      pop\n      jump\t// out\n        /* \"#utility.yul\":4684:5013   */\n    tag_30:\n        /* \"#utility.yul\":4743:4749   */\n      0x00\n        /* \"#utility.yul\":4792:4794   */\n      0x20\n        /* \"#utility.yul\":4780:4789   */\n      dup3\n        /* \"#utility.yul\":4771:4778   */\n      dup5\n        /* \"#utility.yul\":4767:4790   */\n      sub\n        /* \"#utility.yul\":4763:4795   */\n      slt\n        /* \"#utility.yul\":4760:4879   */\n      iszero\n      tag_186\n      jumpi\n        /* \"#utility.yul\":4798:4877   */\n      tag_187\n      tag_104\n      jump\t// in\n    tag_187:\n        /* \"#utility.yul\":4760:4879   */\n    tag_186:\n        /* \"#utility.yul\":4918:4919   */\n      0x00\n        /* \"#utility.yul\":4943:4996   */\n      tag_188\n        /* \"#utility.yul\":4988:4995   */\n      dup5\n        /* \"#utility.yul\":4979:4985   */\n      dup3\n        /* \"#utility.yul\":4968:4977   */\n      dup6\n        /* \"#utility.yul\":4964:4986   */\n      add\n        /* \"#utility.yul\":4943:4996   */\n      tag_114\n      jump\t// in\n    tag_188:\n        /* \"#utility.yul\":4933:4996   */\n      swap2\n      pop\n        /* \"#utility.yul\":4889:5006   */\n      pop\n        /* \"#utility.yul\":4684:5013   */\n      swap3\n      swap2\n      pop\n      pop\n      jump\t// out\n        /* \"#utility.yul\":5019:5188   */\n    tag_115:\n        /* \"#utility.yul\":5103:5114   */\n      0x00\n        /* \"#utility.yul\":5137:5143   */\n      dup3\n        /* \"#utility.yul\":5132:5135   */\n      dup3\n        /* \"#utility.yul\":5125:5144   */\n      mstore\n        /* \"#utility.yul\":5177:5181   */\n      0x20\n        /* \"#utility.yul\":5172:5175   */\n      dup3\n        /* \"#utility.yul\":5168:5182   */\n      add\n        /* \"#utility.yul\":5153:5182   */\n      swap1\n      pop\n        /* \"#utility.yul\":5019:5188   */\n      swap3\n      swap2\n      pop\n      pop\n      jump\t// out\n        /* \"#utility.yul\":5194:5360   */\n    tag_116:\n        /* \"#utility.yul\":5334:5352   */\n      0x6c656e677468206e6f7420657175616c00000000000000000000000000000000\n        /* \"#utility.yul\":5330:5331   */\n      0x00\n        /* \"#utility.yul\":5322:5328   */\n      dup3\n        /* \"#utility.yul\":5318:5332   */\n      add\n        /* \"#utility.yul\":5311:5353   */\n      mstore\n        /* \"#utility.yul\":5194:5360   */\n      pop\n      jump\t// out\n        /* \"#utility.yul\":5366:5732   */\n    tag_117:\n        /* \"#utility.yul\":5508:5511   */\n      0x00\n        /* \"#utility.yul\":5529:5596   */\n      tag_192\n        /* \"#utility.yul\":5593:5595   */\n      0x10\n        /* \"#utility.yul\":5588:5591   */\n      dup4\n        /* \"#utility.yul\":5529:5596   */\n      tag_115\n      jump\t// in\n    tag_192:\n        /* \"#utility.yul\":5522:5596   */\n      swap2\n      pop\n        /* \"#utility.yul\":5605:5698   */\n      tag_193\n        /* \"#utility.yul\":5694:5697   */\n      dup3\n        /* \"#utility.yul\":5605:5698   */\n      tag_116\n      jump\t// in\n    tag_193:\n        /* \"#utility.yul\":5723:5725   */\n      0x20\n        /* \"#utility.yul\":5718:5721   */\n      dup3\n        /* \"#utility.yul\":5714:5726   */\n      add\n        /* \"#utility.yul\":5707:5726   */\n      swap1\n      pop\n        /* \"#utility.yul\":5366:5732   */\n      swap2\n      swap1\n      pop\n      jump\t// out\n        /* \"#utility.yul\":5738:6157   */\n    tag_36:\n        /* \"#utility.yul\":5904:5908   */\n      0x00\n        /* \"#utility.yul\":5942:5944   */\n      0x20\n        /* \"#utility.yul\":5931:5940   */\n      dup3\n        /* \"#utility.yul\":5927:5945   */\n      add\n        /* \"#utility.yul\":5919:5945   */\n      swap1\n      pop\n        /* \"#utility.yul\":5991:6000   */\n      dup2\n        /* \"#utility.yul\":5985:5989   */\n      dup2\n        /* \"#utility.yul\":5981:6001   */\n      sub\n        /* \"#utility.yul\":5977:5978   */\n      0x00\n        /* \"#utility.yul\":5966:5975   */\n      dup4\n        /* \"#utility.yul\":5962:5979   */\n      add\n        /* \"#utility.yul\":5955:6002   */\n      mstore\n        /* \"#utility.yul\":6019:6150   */\n      tag_195\n        /* \"#utility.yul\":6145:6149   */\n      dup2\n        /* \"#utility.yul\":6019:6150   */\n      tag_117\n      jump\t// in\n    tag_195:\n        /* \"#utility.yul\":6011:6150   */\n      swap1\n      pop\n        /* \"#utility.yul\":5738:6157   */\n      swap2\n      swap1\n      pop\n      jump\t// out\n        /* \"#utility.yul\":6163:6328   */\n    tag_118:\n        /* \"#utility.yul\":6303:6320   */\n      0x6d73672e76616c7565206572726f720000000000000000000000000000000000\n        /* \"#utility.yul\":6299:6300   */\n      0x00\n        /* \"#utility.yul\":6291:6297   */\n      dup3\n        /* \"#utility.yul\":6287:6301   */\n      add\n        /* \"#utility.yul\":6280:6321   */\n      mstore\n        /* \"#utility.yul\":6163:6328   */\n      pop\n      jump\t// out\n        /* \"#utility.yul\":6334:6700   */\n    tag_119:\n        /* \"#utility.yul\":6476:6479   */\n      0x00\n        /* \"#utility.yul\":6497:6564   */\n      tag_198\n        /* \"#utility.yul\":6561:6563   */\n      0x0f\n        /* \"#utility.yul\":6556:6559   */\n      dup4\n        /* \"#utility.yul\":6497:6564   */\n      tag_115\n      jump\t// in\n    tag_198:\n        /* \"#utility.yul\":6490:6564   */\n      swap2\n      pop\n        /* \"#utility.yul\":6573:6666   */\n      tag_199\n        /* \"#utility.yul\":6662:6665   */\n      dup3\n        /* \"#utility.yul\":6573:6666   */\n      tag_118\n      jump\t// in\n    tag_199:\n        /* \"#utility.yul\":6691:6693   */\n      0x20\n        /* \"#utility.yul\":6686:6689   */\n      dup3\n        /* \"#utility.yul\":6682:6694   */\n      add\n        /* \"#utility.yul\":6675:6694   */\n      swap1\n      pop\n        /* \"#utility.yul\":6334:6700   */\n      swap2\n      swap1\n      pop\n      jump\t// out\n        /* \"#utility.yul\":6706:7125   */\n    tag_40:\n        /* \"#utility.yul\":6872:6876   */\n      0x00\n        /* \"#utility.yul\":6910:6912   */\n      0x20\n        /* \"#utility.yul\":6899:6908   */\n      dup3\n        /* \"#utility.yul\":6895:6913   */\n      add\n        /* \"#utility.yul\":6887:6913   */\n      swap1\n      pop\n        /* \"#utility.yul\":6959:6968   */\n      dup2\n        /* \"#utility.yul\":6953:6957   */\n      dup2\n        /* \"#utility.yul\":6949:6969   */\n      sub\n        /* \"#utility.yul\":6945:6946   */\n      0x00\n        /* \"#utility.yul\":6934:6943   */\n      dup4\n        /* \"#utility.yul\":6930:6947   */\n      add\n        /* \"#utility.yul\":6923:6970   */\n      mstore\n        /* \"#utility.yul\":6987:7118   */\n      tag_201\n        /* \"#utility.yul\":7113:7117   */\n      dup2\n        /* \"#utility.yul\":6987:7118   */\n      tag_119\n      jump\t// in\n    tag_201:\n        /* \"#utility.yul\":6979:7118   */\n      swap1\n      pop\n        /* \"#utility.yul\":6706:7125   */\n      swap2\n      swap1\n      pop\n      jump\t// out\n        /* \"#utility.yul\":7131:7311   */\n    tag_46:\n        /* \"#utility.yul\":7179:7256   */\n      0x4e487b7100000000000000000000000000000000000000000000000000000000\n        /* \"#utility.yul\":7176:7177   */\n      0x00\n        /* \"#utility.yul\":7169:7257   */\n      mstore\n        /* \"#utility.yul\":7276:7280   */\n      0x32\n        /* \"#utility.yul\":7273:7274   */\n      0x04\n        /* \"#utility.yul\":7266:7281   */\n      mstore\n        /* \"#utility.yul\":7300:7304   */\n      0x24\n        /* \"#utility.yul\":7297:7298   */\n      0x00\n        /* \"#utility.yul\":7290:7305   */\n      revert\n        /* \"#utility.yul\":7317:7464   */\n    tag_120:\n        /* \"#utility.yul\":7418:7429   */\n      0x00\n        /* \"#utility.yul\":7455:7458   */\n      dup2\n        /* \"#utility.yul\":7440:7458   */\n      swap1\n      pop\n        /* \"#utility.yul\":7317:7464   */\n      swap3\n      swap2\n      pop\n      pop\n      jump\t// out\n        /* \"#utility.yul\":7470:7584   */\n    tag_121:\n      pop\n      jump\t// out\n        /* \"#utility.yul\":7590:7988   */\n    tag_122:\n        /* \"#utility.yul\":7749:7752   */\n      0x00\n        /* \"#utility.yul\":7770:7853   */\n      tag_206\n        /* \"#utility.yul\":7851:7852   */\n      0x00\n        /* \"#utility.yul\":7846:7849   */\n      dup4\n        /* \"#utility.yul\":7770:7853   */\n      tag_120\n      jump\t// in\n    tag_206:\n        /* \"#utility.yul\":7763:7853   */\n      swap2\n      pop\n        /* \"#utility.yul\":7862:7955   */\n      tag_207\n        /* \"#utility.yul\":7951:7954   */\n      dup3\n        /* \"#utility.yul\":7862:7955   */\n      tag_121\n      jump\t// in\n    tag_207:\n        /* \"#utility.yul\":7980:7981   */\n      0x00\n        /* \"#utility.yul\":7975:7978   */\n      dup3\n        /* \"#utility.yul\":7971:7982   */\n      add\n        /* \"#utility.yul\":7964:7982   */\n      swap1\n      pop\n        /* \"#utility.yul\":7590:7988   */\n      swap2\n      swap1\n      pop\n      jump\t// out\n        /* \"#utility.yul\":7994:8373   */\n    tag_51:\n        /* \"#utility.yul\":8178:8181   */\n      0x00\n        /* \"#utility.yul\":8200:8347   */\n      tag_209\n        /* \"#utility.yul\":8343:8346   */\n      dup3\n        /* \"#utility.yul\":8200:8347   */\n      tag_122\n      jump\t// in\n    tag_209:\n        /* \"#utility.yul\":8193:8347   */\n      swap2\n      pop\n        /* \"#utility.yul\":8364:8367   */\n      dup2\n        /* \"#utility.yul\":8357:8367   */\n      swap1\n      pop\n        /* \"#utility.yul\":7994:8373   */\n      swap2\n      swap1\n      pop\n      jump\t// out\n        /* \"#utility.yul\":8379:8559   */\n    tag_123:\n        /* \"#utility.yul\":8427:8504   */\n      0x4e487b7100000000000000000000000000000000000000000000000000000000\n        /* \"#utility.yul\":8424:8425   */\n      0x00\n        /* \"#utility.yul\":8417:8505   */\n      mstore\n        /* \"#utility.yul\":8524:8528   */\n      0x11\n        /* \"#utility.yul\":8521:8522   */\n      0x04\n        /* \"#utility.yul\":8514:8529   */\n      mstore\n        /* \"#utility.yul\":8548:8552   */\n      0x24\n        /* \"#utility.yul\":8545:8546   */\n      0x00\n        /* \"#utility.yul\":8538:8553   */\n      revert\n        /* \"#utility.yul\":8565:8651   */\n    tag_124:\n        /* \"#utility.yul\":8600:8607   */\n      0x00\n        /* \"#utility.yul\":8640:8644   */\n      0xff\n        /* \"#utility.yul\":8633:8638   */\n      dup3\n        /* \"#utility.yul\":8629:8645   */\n      and\n        /* \"#utility.yul\":8618:8645   */\n      swap1\n      pop\n        /* \"#utility.yul\":8565:8651   */\n      swap2\n      swap1\n      pop\n      jump\t// out\n        /* \"#utility.yul\":8657:8824   */\n    tag_62:\n        /* \"#utility.yul\":8694:8697   */\n      0x00\n        /* \"#utility.yul\":8717:8739   */\n      tag_213\n        /* \"#utility.yul\":8733:8738   */\n      dup3\n        /* \"#utility.yul\":8717:8739   */\n      tag_124\n      jump\t// in\n    tag_213:\n        /* \"#utility.yul\":8708:8739   */\n      swap2\n      pop\n        /* \"#utility.yul\":8761:8765   */\n      0xff\n        /* \"#utility.yul\":8754:8759   */\n      dup3\n        /* \"#utility.yul\":8751:8766   */\n      sub\n        /* \"#utility.yul\":8748:8789   */\n      tag_214\n      jumpi\n        /* \"#utility.yul\":8769:8787   */\n      tag_215\n      tag_123\n      jump\t// in\n    tag_215:\n        /* \"#utility.yul\":8748:8789   */\n    tag_214:\n        /* \"#utility.yul\":8816:8817   */\n      0x01\n        /* \"#utility.yul\":8809:8814   */\n      dup3\n        /* \"#utility.yul\":8805:8818   */\n      add\n        /* \"#utility.yul\":8798:8818   */\n      swap1\n      pop\n        /* \"#utility.yul\":8657:8824   */\n      swap2\n      swap1\n      pop\n      jump\t// out\n        /* \"#utility.yul\":8830:9021   */\n    tag_70:\n        /* \"#utility.yul\":8870:8873   */\n      0x00\n        /* \"#utility.yul\":8889:8909   */\n      tag_217\n        /* \"#utility.yul\":8907:8908   */\n      dup3\n        /* \"#utility.yul\":8889:8909   */\n      tag_111\n      jump\t// in\n    tag_217:\n        /* \"#utility.yul\":8884:8909   */\n      swap2\n      pop\n        /* \"#utility.yul\":8923:8943   */\n      tag_218\n        /* \"#utility.yul\":8941:8942   */\n      dup4\n        /* \"#utility.yul\":8923:8943   */\n      tag_111\n      jump\t// in\n    tag_218:\n        /* \"#utility.yul\":8918:8943   */\n      swap3\n      pop\n        /* \"#utility.yul\":8966:8967   */\n      dup3\n        /* \"#utility.yul\":8963:8964   */\n      dup3\n        /* \"#utility.yul\":8959:8968   */\n      add\n        /* \"#utility.yul\":8952:8968   */\n      swap1\n      pop\n        /* \"#utility.yul\":8987:8990   */\n      dup1\n        /* \"#utility.yul\":8984:8985   */\n      dup3\n        /* \"#utility.yul\":8981:8991   */\n      gt\n        /* \"#utility.yul\":8978:9014   */\n      iszero\n      tag_219\n      jumpi\n        /* \"#utility.yul\":8994:9012   */\n      tag_220\n      tag_123\n      jump\t// in\n    tag_220:\n        /* \"#utility.yul\":8978:9014   */\n    tag_219:\n        /* \"#utility.yul\":8830:9021   */\n      swap3\n      swap2\n      pop\n      pop\n      jump\t// out\n        /* \"#utility.yul\":9027:9359   */\n    tag_77:\n        /* \"#utility.yul\":9148:9152   */\n      0x00\n        /* \"#utility.yul\":9186:9188   */\n      0x40\n        /* \"#utility.yul\":9175:9184   */\n      dup3\n        /* \"#utility.yul\":9171:9189   */\n      add\n        /* \"#utility.yul\":9163:9189   */\n      swap1\n      pop\n        /* \"#utility.yul\":9199:9270   */\n      tag_222\n        /* \"#utility.yul\":9267:9268   */\n      0x00\n        /* \"#utility.yul\":9256:9265   */\n      dup4\n        /* \"#utility.yul\":9252:9269   */\n      add\n        /* \"#utility.yul\":9243:9249   */\n      dup6\n        /* \"#utility.yul\":9199:9270   */\n      tag_102\n      jump\t// in\n    tag_222:\n        /* \"#utility.yul\":9280:9352   */\n      tag_223\n        /* \"#utility.yul\":9348:9350   */\n      0x20\n        /* \"#utility.yul\":9337:9346   */\n      dup4\n        /* \"#utility.yul\":9333:9351   */\n      add\n        /* \"#utility.yul\":9324:9330   */\n      dup5\n        /* \"#utility.yul\":9280:9352   */\n      tag_102\n      jump\t// in\n    tag_223:\n        /* \"#utility.yul\":9027:9359   */\n      swap4\n      swap3\n      pop\n      pop\n      pop\n      jump\t// out\n        /* \"#utility.yul\":9365:9487   */\n    tag_125:\n        /* \"#utility.yul\":9438:9462   */\n      tag_225\n        /* \"#utility.yul\":9456:9461   */\n      dup2\n        /* \"#utility.yul\":9438:9462   */\n      tag_111\n      jump\t// in\n    tag_225:\n        /* \"#utility.yul\":9431:9436   */\n      dup2\n        /* \"#utility.yul\":9428:9463   */\n      eq\n        /* \"#utility.yul\":9418:9481   */\n      tag_226\n      jumpi\n        /* \"#utility.yul\":9477:9478   */\n      0x00\n        /* \"#utility.yul\":9474:9475   */\n      dup1\n        /* \"#utility.yul\":9467:9479   */\n      revert\n        /* \"#utility.yul\":9418:9481   */\n    tag_226:\n        /* \"#utility.yul\":9365:9487   */\n      pop\n      jump\t// out\n        /* \"#utility.yul\":9493:9636   */\n    tag_126:\n        /* \"#utility.yul\":9550:9555   */\n      0x00\n        /* \"#utility.yul\":9581:9587   */\n      dup2\n        /* \"#utility.yul\":9575:9588   */\n      mload\n        /* \"#utility.yul\":9566:9588   */\n      swap1\n      pop\n        /* \"#utility.yul\":9597:9630   */\n      tag_228\n        /* \"#utility.yul\":9624:9629   */\n      dup2\n        /* \"#utility.yul\":9597:9630   */\n      tag_125\n      jump\t// in\n    tag_228:\n        /* \"#utility.yul\":9493:9636   */\n      swap3\n      swap2\n      pop\n      pop\n      jump\t// out\n        /* \"#utility.yul\":9642:9993   */\n    tag_81:\n        /* \"#utility.yul\":9712:9718   */\n      0x00\n        /* \"#utility.yul\":9761:9763   */\n      0x20\n        /* \"#utility.yul\":9749:9758   */\n      dup3\n        /* \"#utility.yul\":9740:9747   */\n      dup5\n        /* \"#utility.yul\":9736:9759   */\n      sub\n        /* \"#utility.yul\":9732:9764   */\n      slt\n        /* \"#utility.yul\":9729:9848   */\n      iszero\n      tag_230\n      jumpi\n        /* \"#utility.yul\":9767:9846   */\n      tag_231\n      tag_104\n      jump\t// in\n    tag_231:\n        /* \"#utility.yul\":9729:9848   */\n    tag_230:\n        /* \"#utility.yul\":9887:9888   */\n      0x00\n        /* \"#utility.yul\":9912:9976   */\n      tag_232\n        /* \"#utility.yul\":9968:9975   */\n      dup5\n        /* \"#utility.yul\":9959:9965   */\n      dup3\n        /* \"#utility.yul\":9948:9957   */\n      dup6\n        /* \"#utility.yul\":9944:9966   */\n      add\n        /* \"#utility.yul\":9912:9976   */\n      tag_126\n      jump\t// in\n    tag_232:\n        /* \"#utility.yul\":9902:9976   */\n      swap2\n      pop\n        /* \"#utility.yul\":9858:9986   */\n      pop\n        /* \"#utility.yul\":9642:9993   */\n      swap3\n      swap2\n      pop\n      pop\n      jump\t// out\n        /* \"#utility.yul\":9999:10175   */\n    tag_127:\n        /* \"#utility.yul\":10139:10167   */\n      0x4e65656420656e6f75676820617070726f766520616d6f756e74000000000000\n        /* \"#utility.yul\":10135:10136   */\n      0x00\n        /* \"#utility.yul\":10127:10133   */\n      dup3\n        /* \"#utility.yul\":10123:10137   */\n      add\n        /* \"#utility.yul\":10116:10168   */\n      mstore\n        /* \"#utility.yul\":9999:10175   */\n      pop\n      jump\t// out\n        /* \"#utility.yul\":10181:10547   */\n    tag_128:\n        /* \"#utility.yul\":10323:10326   */\n      0x00\n        /* \"#utility.yul\":10344:10411   */\n      tag_235\n        /* \"#utility.yul\":10408:10410   */\n      0x1a\n        /* \"#utility.yul\":10403:10406   */\n      dup4\n        /* \"#utility.yul\":10344:10411   */\n      tag_115\n      jump\t// in\n    tag_235:\n        /* \"#utility.yul\":10337:10411   */\n      swap2\n      pop\n        /* \"#utility.yul\":10420:10513   */\n      tag_236\n        /* \"#utility.yul\":10509:10512   */\n      dup3\n        /* \"#utility.yul\":10420:10513   */\n      tag_127\n      jump\t// in\n    tag_236:\n        /* \"#utility.yul\":10538:10540   */\n      0x20\n        /* \"#utility.yul\":10533:10536   */\n      dup3\n        /* \"#utility.yul\":10529:10541   */\n      add\n        /* \"#utility.yul\":10522:10541   */\n      swap1\n      pop\n        /* \"#utility.yul\":10181:10547   */\n      swap2\n      swap1\n      pop\n      jump\t// out\n        /* \"#utility.yul\":10553:10972   */\n    tag_84:\n        /* \"#utility.yul\":10719:10723   */\n      0x00\n        /* \"#utility.yul\":10757:10759   */\n      0x20\n        /* \"#utility.yul\":10746:10755   */\n      dup3\n        /* \"#utility.yul\":10742:10760   */\n      add\n        /* \"#utility.yul\":10734:10760   */\n      swap1\n      pop\n        /* \"#utility.yul\":10806:10815   */\n      dup2\n        /* \"#utility.yul\":10800:10804   */\n      dup2\n        /* \"#utility.yul\":10796:10816   */\n      sub\n        /* \"#utility.yul\":10792:10793   */\n      0x00\n        /* \"#utility.yul\":10781:10790   */\n      dup4\n        /* \"#utility.yul\":10777:10794   */\n      add\n        /* \"#utility.yul\":10770:10817   */\n      mstore\n        /* \"#utility.yul\":10834:10965   */\n      tag_238\n        /* \"#utility.yul\":10960:10964   */\n      dup2\n        /* \"#utility.yul\":10834:10965   */\n      tag_128\n      jump\t// in\n    tag_238:\n        /* \"#utility.yul\":10826:10965   */\n      swap1\n      pop\n        /* \"#utility.yul\":10553:10972   */\n      swap2\n      swap1\n      pop\n      jump\t// out\n        /* \"#utility.yul\":10978:11420   */\n    tag_94:\n        /* \"#utility.yul\":11127:11131   */\n      0x00\n        /* \"#utility.yul\":11165:11167   */\n      0x60\n        /* \"#utility.yul\":11154:11163   */\n      dup3\n        /* \"#utility.yul\":11150:11168   */\n      add\n        /* \"#utility.yul\":11142:11168   */\n      swap1\n      pop\n        /* \"#utility.yul\":11178:11249   */\n      tag_240\n        /* \"#utility.yul\":11246:11247   */\n      0x00\n        /* \"#utility.yul\":11235:11244   */\n      dup4\n        /* \"#utility.yul\":11231:11248   */\n      add\n        /* \"#utility.yul\":11222:11228   */\n      dup7\n        /* \"#utility.yul\":11178:11249   */\n      tag_102\n      jump\t// in\n    tag_240:\n        /* \"#utility.yul\":11259:11331   */\n      tag_241\n        /* \"#utility.yul\":11327:11329   */\n      0x20\n        /* \"#utility.yul\":11316:11325   */\n      dup4\n        /* \"#utility.yul\":11312:11330   */\n      add\n        /* \"#utility.yul\":11303:11309   */\n      dup6\n        /* \"#utility.yul\":11259:11331   */\n      tag_102\n      jump\t// in\n    tag_241:\n        /* \"#utility.yul\":11341:11413   */\n      tag_242\n        /* \"#utility.yul\":11409:11411   */\n      0x40\n        /* \"#utility.yul\":11398:11407   */\n      dup4\n        /* \"#utility.yul\":11394:11412   */\n      add\n        /* \"#utility.yul\":11385:11391   */\n      dup5\n        /* \"#utility.yul\":11341:11413   */\n      tag_112\n      jump\t// in\n    tag_242:\n        /* \"#utility.yul\":10978:11420   */\n      swap5\n      swap4\n      pop\n      pop\n      pop\n      pop\n      jump\t// out\n        /* \"#utility.yul\":11426:11516   */\n    tag_129:\n        /* \"#utility.yul\":11460:11467   */\n      0x00\n        /* \"#utility.yul\":11503:11508   */\n      dup2\n        /* \"#utility.yul\":11496:11509   */\n      iszero\n        /* \"#utility.yul\":11489:11510   */\n      iszero\n        /* \"#utility.yul\":11478:11510   */\n      swap1\n      pop\n        /* \"#utility.yul\":11426:11516   */\n      swap2\n      swap1\n      pop\n      jump\t// out\n        /* \"#utility.yul\":11522:11638   */\n    tag_130:\n        /* \"#utility.yul\":11592:11613   */\n      tag_245\n        /* \"#utility.yul\":11607:11612   */\n      dup2\n        /* \"#utility.yul\":11592:11613   */\n      tag_129\n      jump\t// in\n    tag_245:\n        /* \"#utility.yul\":11585:11590   */\n      dup2\n        /* \"#utility.yul\":11582:11614   */\n      eq\n        /* \"#utility.yul\":11572:11632   */\n      tag_246\n      jumpi\n        /* \"#utility.yul\":11628:11629   */\n      0x00\n        /* \"#utility.yul\":11625:11626   */\n      dup1\n        /* \"#utility.yul\":11618:11630   */\n      revert\n        /* \"#utility.yul\":11572:11632   */\n    tag_246:\n        /* \"#utility.yul\":11522:11638   */\n      pop\n      jump\t// out\n        /* \"#utility.yul\":11644:11781   */\n    tag_131:\n        /* \"#utility.yul\":11698:11703   */\n      0x00\n        /* \"#utility.yul\":11729:11735   */\n      dup2\n        /* \"#utility.yul\":11723:11736   */\n      mload\n        /* \"#utility.yul\":11714:11736   */\n      swap1\n      pop\n        /* \"#utility.yul\":11745:11775   */\n      tag_248\n        /* \"#utility.yul\":11769:11774   */\n      dup2\n        /* \"#utility.yul\":11745:11775   */\n      tag_130\n      jump\t// in\n    tag_248:\n        /* \"#utility.yul\":11644:11781   */\n      swap3\n      swap2\n      pop\n      pop\n      jump\t// out\n        /* \"#utility.yul\":11787:12132   */\n    tag_98:\n        /* \"#utility.yul\":11854:11860   */\n      0x00\n        /* \"#utility.yul\":11903:11905   */\n      0x20\n        /* \"#utility.yul\":11891:11900   */\n      dup3\n        /* \"#utility.yul\":11882:11889   */\n      dup5\n        /* \"#utility.yul\":11878:11901   */\n      sub\n        /* \"#utility.yul\":11874:11906   */\n      slt\n        /* \"#utility.yul\":11871:11990   */\n      iszero\n      tag_250\n      jumpi\n        /* \"#utility.yul\":11909:11988   */\n      tag_251\n      tag_104\n      jump\t// in\n    tag_251:\n        /* \"#utility.yul\":11871:11990   */\n    tag_250:\n        /* \"#utility.yul\":12029:12030   */\n      0x00\n        /* \"#utility.yul\":12054:12115   */\n      tag_252\n        /* \"#utility.yul\":12107:12114   */\n      dup5\n        /* \"#utility.yul\":12098:12104   */\n      dup3\n        /* \"#utility.yul\":12087:12096   */\n      dup6\n        /* \"#utility.yul\":12083:12105   */\n      add\n        /* \"#utility.yul\":12054:12115   */\n      tag_131\n      jump\t// in\n    tag_252:\n        /* \"#utility.yul\":12044:12115   */\n      swap2\n      pop\n        /* \"#utility.yul\":12000:12125   */\n      pop\n        /* \"#utility.yul\":11787:12132   */\n      swap3\n      swap2\n      pop\n      pop\n      jump\t// out\n\n    auxdata: 0xa264697066735822122079e79f2c55a6fe69baec71c651726c0fd777e58871c02a2672c16f6c60856a5464736f6c634300081a0033\n}\n",
				"bytecode": {
					"linkReferences": {},
					"object": "608060405234801561000f575f80fd5b50604051610ce2380380610ce2833981810160405281019061003191906100d4565b805f806101000a81548173ffffffffffffffffffffffffffffffffffffffff021916908373ffffffffffffffffffffffffffffffffffffffff160217905550506100ff565b5f80fd5b5f73ffffffffffffffffffffffffffffffffffffffff82169050919050565b5f6100a38261007a565b9050919050565b6100b381610099565b81146100bd575f80fd5b50565b5f815190506100ce816100aa565b92915050565b5f602082840312156100e9576100e8610076565b5b5f6100f6848285016100c0565b91505092915050565b610bd68061010c5f395ff3fe608060405260043610610049575f3560e01c80635fbe4d1d1461004d5780637391898014610077578063ccb8c1e014610093578063f3ad0dd8146100cf578063fe53c53c146100f7575b5f80fd5b348015610058575f80fd5b50610061610133565b60405161006e919061061f565b60405180910390f35b610091600480360381019061008c91906106f6565b610156565b005b34801561009e575f80fd5b506100b960048036038101906100b49190610774565b610355565b6040516100c691906107d7565b60405180910390f35b3480156100da575f80fd5b506100f560048036038101906100f091906106f6565b6103aa565b005b348015610102575f80fd5b5061011d6004803603810190610118919061081a565b6105cb565b60405161012a91906107d7565b60405180910390f35b5f8054906101000a900473ffffffffffffffffffffffffffffffffffffffff1681565b81819050848490501461019e576040517f08c379a00000000000000000000000000000000000000000000000000000000081526004016101959061089f565b60405180910390fd5b5f6101a98383610355565b90508034146101ed576040517f08c379a00000000000000000000000000000000000000000000000000000000081526004016101e490610907565b60405180910390fd5b5f5b858590508160ff16101561034d575f86868360ff1681811061021457610213610925565b5b9050602002016020810190610229919061081a565b73ffffffffffffffffffffffffffffffffffffffff1685858460ff1681811061025557610254610925565b5b905060200201356040516102689061097f565b5f6040518083038185875af1925050503d805f81146102a2576040519150601f19603f3d011682016040523d82523d5f602084013e6102a7565b606091505b50509050806103395784848360ff168181106102c6576102c5610925565b5b9050602002013560015f89898660ff168181106102e6576102e5610925565b5b90506020020160208101906102fb919061081a565b73ffffffffffffffffffffffffffffffffffffffff1673ffffffffffffffffffffffffffffffffffffffff1681526020019081526020015f20819055505b508080610345906109cc565b9150506101ef565b505050505050565b5f805b838390508160ff1610156103a35783838260ff1681811061037c5761037b610925565b5b905060200201358261038e91906109f4565b9150808061039b906109cc565b915050610358565b5092915050565b8181905084849050146103f2576040517f08c379a00000000000000000000000000000000000000000000000000000000081526004016103e99061089f565b60405180910390fd5b5f805f9054906101000a900473ffffffffffffffffffffffffffffffffffffffff1690506104208383610355565b8173ffffffffffffffffffffffffffffffffffffffff1663dd62ed3e33306040518363ffffffff1660e01b815260040161045b929190610a27565b6020604051808303815f875af1158015610477573d5f803e3d5ffd5b505050506040513d601f19601f8201168201806040525081019061049b9190610a78565b10156104dc576040517f08c379a00000000000000000000000000000000000000000000000000000000081526004016104d390610aed565b60405180910390fd5b5f5b858590508160ff1610156105c3578173ffffffffffffffffffffffffffffffffffffffff166323b872dd3388888560ff1681811061051f5761051e610925565b5b9050602002016020810190610534919061081a565b87878660ff1681811061054a57610549610925565b5b905060200201356040518463ffffffff1660e01b815260040161056f93929190610b0b565b6020604051808303815f875af115801561058b573d5f803e3d5ffd5b505050506040513d601f19601f820116820180604052508101906105af9190610b75565b5080806105bb906109cc565b9150506104de565b505050505050565b6001602052805f5260405f205f915090505481565b5f73ffffffffffffffffffffffffffffffffffffffff82169050919050565b5f610609826105e0565b9050919050565b610619816105ff565b82525050565b5f6020820190506106325f830184610610565b92915050565b5f80fd5b5f80fd5b5f80fd5b5f80fd5b5f80fd5b5f8083601f84011261066157610660610640565b5b8235905067ffffffffffffffff81111561067e5761067d610644565b5b60208301915083602082028301111561069a57610699610648565b5b9250929050565b5f8083601f8401126106b6576106b5610640565b5b8235905067ffffffffffffffff8111156106d3576106d2610644565b5b6020830191508360208202830111156106ef576106ee610648565b5b9250929050565b5f805f806040858703121561070e5761070d610638565b5b5f85013567ffffffffffffffff81111561072b5761072a61063c565b5b6107378782880161064c565b9450945050602085013567ffffffffffffffff81111561075a5761075961063c565b5b610766878288016106a1565b925092505092959194509250565b5f806020838503121561078a57610789610638565b5b5f83013567ffffffffffffffff8111156107a7576107a661063c565b5b6107b3858286016106a1565b92509250509250929050565b5f819050919050565b6107d1816107bf565b82525050565b5f6020820190506107ea5f8301846107c8565b92915050565b6107f9816105ff565b8114610803575f80fd5b50565b5f81359050610814816107f0565b92915050565b5f6020828403121561082f5761082e610638565b5b5f61083c84828501610806565b91505092915050565b5f82825260208201905092915050565b7f6c656e677468206e6f7420657175616c000000000000000000000000000000005f82015250565b5f610889601083610845565b915061089482610855565b602082019050919050565b5f6020820190508181035f8301526108b68161087d565b9050919050565b7f6d73672e76616c7565206572726f7200000000000000000000000000000000005f82015250565b5f6108f1600f83610845565b91506108fc826108bd565b602082019050919050565b5f6020820190508181035f83015261091e816108e5565b9050919050565b7f4e487b71000000000000000000000000000000000000000000000000000000005f52603260045260245ffd5b5f81905092915050565b50565b5f61096a5f83610952565b91506109758261095c565b5f82019050919050565b5f6109898261095f565b9150819050919050565b7f4e487b71000000000000000000000000000000000000000000000000000000005f52601160045260245ffd5b5f60ff82169050919050565b5f6109d6826109c0565b915060ff82036109e9576109e8610993565b5b600182019050919050565b5f6109fe826107bf565b9150610a09836107bf565b9250828201905080821115610a2157610a20610993565b5b92915050565b5f604082019050610a3a5f830185610610565b610a476020830184610610565b9392505050565b610a57816107bf565b8114610a61575f80fd5b50565b5f81519050610a7281610a4e565b92915050565b5f60208284031215610a8d57610a8c610638565b5b5f610a9a84828501610a64565b91505092915050565b7f4e65656420656e6f75676820617070726f766520616d6f756e740000000000005f82015250565b5f610ad7601a83610845565b9150610ae282610aa3565b602082019050919050565b5f6020820190508181035f830152610b0481610acb565b9050919050565b5f606082019050610b1e5f830186610610565b610b2b6020830185610610565b610b3860408301846107c8565b949350505050565b5f8115159050919050565b610b5481610b40565b8114610b5e575f80fd5b50565b5f81519050610b6f81610b4b565b92915050565b5f60208284031215610b8a57610b89610638565b5b5f610b9784828501610b61565b9150509291505056fea264697066735822122079e79f2c55a6fe69baec71c651726c0fd777e58871c02a2672c16f6c60856a5464736f6c634300081a0033",
					"opcodes": "PUSH1 0x80 PUSH1 0x40 MSTORE CALLVALUE DUP1 ISZERO PUSH2 0xF JUMPI PUSH0 DUP1 REVERT JUMPDEST POP PUSH1 0x40 MLOAD PUSH2 0xCE2 CODESIZE SUB DUP1 PUSH2 0xCE2 DUP4 CODECOPY DUP2 DUP2 ADD PUSH1 0x40 MSTORE DUP2 ADD SWAP1 PUSH2 0x31 SWAP2 SWAP1 PUSH2 0xD4 JUMP JUMPDEST DUP1 PUSH0 DUP1 PUSH2 0x100 EXP DUP2 SLOAD DUP2 PUSH20 0xFFFFFFFFFFFFFFFFFFFFFFFFFFFFFFFFFFFFFFFF MUL NOT AND SWAP1 DUP4 PUSH20 0xFFFFFFFFFFFFFFFFFFFFFFFFFFFFFFFFFFFFFFFF AND MUL OR SWAP1 SSTORE POP POP PUSH2 0xFF JUMP JUMPDEST PUSH0 DUP1 REVERT JUMPDEST PUSH0 PUSH20 0xFFFFFFFFFFFFFFFFFFFFFFFFFFFFFFFFFFFFFFFF DUP3 AND SWAP1 POP SWAP2 SWAP1 POP JUMP JUMPDEST PUSH0 PUSH2 0xA3 DUP3 PUSH2 0x7A JUMP JUMPDEST SWAP1 POP SWAP2 SWAP1 POP JUMP JUMPDEST PUSH2 0xB3 DUP2 PUSH2 0x99 JUMP JUMPDEST DUP2 EQ PUSH2 0xBD JUMPI PUSH0 DUP1 REVERT JUMPDEST POP JUMP JUMPDEST PUSH0 DUP2 MLOAD SWAP1 POP PUSH2 0xCE DUP2 PUSH2 0xAA JUMP JUMPDEST SWAP3 SWAP2 POP POP JUMP JUMPDEST PUSH0 PUSH1 0x20 DUP3 DUP5 SUB SLT ISZERO PUSH2 0xE9 JUMPI PUSH2 0xE8 PUSH2 0x76 JUMP JUMPDEST JUMPDEST PUSH0 PUSH2 0xF6 DUP5 DUP3 DUP6 ADD PUSH2 0xC0 JUMP JUMPDEST SWAP2 POP POP SWAP3 SWAP2 POP POP JUMP JUMPDEST PUSH2 0xBD6 DUP1 PUSH2 0x10C PUSH0 CODECOPY PUSH0 RETURN INVALID PUSH1 0x80 PUSH1 0x40 MSTORE PUSH1 0x4 CALLDATASIZE LT PUSH2 0x49 JUMPI PUSH0 CALLDATALOAD PUSH1 0xE0 SHR DUP1 PUSH4 0x5FBE4D1D EQ PUSH2 0x4D JUMPI DUP1 PUSH4 0x73918980 EQ PUSH2 0x77 JUMPI DUP1 PUSH4 0xCCB8C1E0 EQ PUSH2 0x93 JUMPI DUP1 PUSH4 0xF3AD0DD8 EQ PUSH2 0xCF JUMPI DUP1 PUSH4 0xFE53C53C EQ PUSH2 0xF7 JUMPI JUMPDEST PUSH0 DUP1 REVERT JUMPDEST CALLVALUE DUP1 ISZERO PUSH2 0x58 JUMPI PUSH0 DUP1 REVERT JUMPDEST POP PUSH2 0x61 PUSH2 0x133 JUMP JUMPDEST PUSH1 0x40 MLOAD PUSH2 0x6E SWAP2 SWAP1 PUSH2 0x61F JUMP JUMPDEST PUSH1 0x40 MLOAD DUP1 SWAP2 SUB SWAP1 RETURN JUMPDEST PUSH2 0x91 PUSH1 0x4 DUP1 CALLDATASIZE SUB DUP2 ADD SWAP1 PUSH2 0x8C SWAP2 SWAP1 PUSH2 0x6F6 JUMP JUMPDEST PUSH2 0x156 JUMP JUMPDEST STOP JUMPDEST CALLVALUE DUP1 ISZERO PUSH2 0x9E JUMPI PUSH0 DUP1 REVERT JUMPDEST POP PUSH2 0xB9 PUSH1 0x4 DUP1 CALLDATASIZE SUB DUP2 ADD SWAP1 PUSH2 0xB4 SWAP2 SWAP1 PUSH2 0x774 JUMP JUMPDEST PUSH2 0x355 JUMP JUMPDEST PUSH1 0x40 MLOAD PUSH2 0xC6 SWAP2 SWAP1 PUSH2 0x7D7 JUMP JUMPDEST PUSH1 0x40 MLOAD DUP1 SWAP2 SUB SWAP1 RETURN JUMPDEST CALLVALUE DUP1 ISZERO PUSH2 0xDA JUMPI PUSH0 DUP1 REVERT JUMPDEST POP PUSH2 0xF5 PUSH1 0x4 DUP1 CALLDATASIZE SUB DUP2 ADD SWAP1 PUSH2 0xF0 SWAP2 SWAP1 PUSH2 0x6F6 JUMP JUMPDEST PUSH2 0x3AA JUMP JUMPDEST STOP JUMPDEST CALLVALUE DUP1 ISZERO PUSH2 0x102 JUMPI PUSH0 DUP1 REVERT JUMPDEST POP PUSH2 0x11D PUSH1 0x4 DUP1 CALLDATASIZE SUB DUP2 ADD SWAP1 PUSH2 0x118 SWAP2 SWAP1 PUSH2 0x81A JUMP JUMPDEST PUSH2 0x5CB JUMP JUMPDEST PUSH1 0x40 MLOAD PUSH2 0x12A SWAP2 SWAP1 PUSH2 0x7D7 JUMP JUMPDEST PUSH1 0x40 MLOAD DUP1 SWAP2 SUB SWAP1 RETURN JUMPDEST PUSH0 DUP1 SLOAD SWAP1 PUSH2 0x100 EXP SWAP1 DIV PUSH20 0xFFFFFFFFFFFFFFFFFFFFFFFFFFFFFFFFFFFFFFFF AND DUP2 JUMP JUMPDEST DUP2 DUP2 SWAP1 POP DUP5 DUP5 SWAP1 POP EQ PUSH2 0x19E JUMPI PUSH1 0x40 MLOAD PUSH32 0x8C379A000000000000000000000000000000000000000000000000000000000 DUP2 MSTORE PUSH1 0x4 ADD PUSH2 0x195 SWAP1 PUSH2 0x89F JUMP JUMPDEST PUSH1 0x40 MLOAD DUP1 SWAP2 SUB SWAP1 REVERT JUMPDEST PUSH0 PUSH2 0x1A9 DUP4 DUP4 PUSH2 0x355 JUMP JUMPDEST SWAP1 POP DUP1 CALLVALUE EQ PUSH2 0x1ED JUMPI PUSH1 0x40 MLOAD PUSH32 0x8C379A000000000000000000000000000000000000000000000000000000000 DUP2 MSTORE PUSH1 0x4 ADD PUSH2 0x1E4 SWAP1 PUSH2 0x907 JUMP JUMPDEST PUSH1 0x40 MLOAD DUP1 SWAP2 SUB SWAP1 REVERT JUMPDEST PUSH0 JUMPDEST DUP6 DUP6 SWAP1 POP DUP2 PUSH1 0xFF AND LT ISZERO PUSH2 0x34D JUMPI PUSH0 DUP7 DUP7 DUP4 PUSH1 0xFF AND DUP2 DUP2 LT PUSH2 0x214 JUMPI PUSH2 0x213 PUSH2 0x925 JUMP JUMPDEST JUMPDEST SWAP1 POP PUSH1 0x20 MUL ADD PUSH1 0x20 DUP2 ADD SWAP1 PUSH2 0x229 SWAP2 SWAP1 PUSH2 0x81A JUMP JUMPDEST PUSH20 0xFFFFFFFFFFFFFFFFFFFFFFFFFFFFFFFFFFFFFFFF AND DUP6 DUP6 DUP5 PUSH1 0xFF AND DUP2 DUP2 LT PUSH2 0x255 JUMPI PUSH2 0x254 PUSH2 0x925 JUMP JUMPDEST JUMPDEST SWAP1 POP PUSH1 0x20 MUL ADD CALLDATALOAD PUSH1 0x40 MLOAD PUSH2 0x268 SWAP1 PUSH2 0x97F JUMP JUMPDEST PUSH0 PUSH1 0x40 MLOAD DUP1 DUP4 SUB DUP2 DUP6 DUP8 GAS CALL SWAP3 POP POP POP RETURNDATASIZE DUP1 PUSH0 DUP2 EQ PUSH2 0x2A2 JUMPI PUSH1 0x40 MLOAD SWAP2 POP PUSH1 0x1F NOT PUSH1 0x3F RETURNDATASIZE ADD AND DUP3 ADD PUSH1 0x40 MSTORE RETURNDATASIZE DUP3 MSTORE RETURNDATASIZE PUSH0 PUSH1 0x20 DUP5 ADD RETURNDATACOPY PUSH2 0x2A7 JUMP JUMPDEST PUSH1 0x60 SWAP2 POP JUMPDEST POP POP SWAP1 POP DUP1 PUSH2 0x339 JUMPI DUP5 DUP5 DUP4 PUSH1 0xFF AND DUP2 DUP2 LT PUSH2 0x2C6 JUMPI PUSH2 0x2C5 PUSH2 0x925 JUMP JUMPDEST JUMPDEST SWAP1 POP PUSH1 0x20 MUL ADD CALLDATALOAD PUSH1 0x1 PUSH0 DUP10 DUP10 DUP7 PUSH1 0xFF AND DUP2 DUP2 LT PUSH2 0x2E6 JUMPI PUSH2 0x2E5 PUSH2 0x925 JUMP JUMPDEST JUMPDEST SWAP1 POP PUSH1 0x20 MUL ADD PUSH1 0x20 DUP2 ADD SWAP1 PUSH2 0x2FB SWAP2 SWAP1 PUSH2 0x81A JUMP JUMPDEST PUSH20 0xFFFFFFFFFFFFFFFFFFFFFFFFFFFFFFFFFFFFFFFF AND PUSH20 0xFFFFFFFFFFFFFFFFFFFFFFFFFFFFFFFFFFFFFFFF AND DUP2 MSTORE PUSH1 0x20 ADD SWAP1 DUP2 MSTORE PUSH1 0x20 ADD PUSH0 KECCAK256 DUP2 SWAP1 SSTORE POP JUMPDEST POP DUP1 DUP1 PUSH2 0x345 SWAP1 PUSH2 0x9CC JUMP JUMPDEST SWAP2 POP POP PUSH2 0x1EF JUMP JUMPDEST POP POP POP POP POP POP JUMP JUMPDEST PUSH0 DUP1 JUMPDEST DUP4 DUP4 SWAP1 POP DUP2 PUSH1 0xFF AND LT ISZERO PUSH2 0x3A3 JUMPI DUP4 DUP4 DUP3 PUSH1 0xFF AND DUP2 DUP2 LT PUSH2 0x37C JUMPI PUSH2 0x37B PUSH2 0x925 JUMP JUMPDEST JUMPDEST SWAP1 POP PUSH1 0x20 MUL ADD CALLDATALOAD DUP3 PUSH2 0x38E SWAP2 SWAP1 PUSH2 0x9F4 JUMP JUMPDEST SWAP2 POP DUP1 DUP1 PUSH2 0x39B SWAP1 PUSH2 0x9CC JUMP JUMPDEST SWAP2 POP POP PUSH2 0x358 JUMP JUMPDEST POP SWAP3 SWAP2 POP POP JUMP JUMPDEST DUP2 DUP2 SWAP1 POP DUP5 DUP5 SWAP1 POP EQ PUSH2 0x3F2 JUMPI PUSH1 0x40 MLOAD PUSH32 0x8C379A000000000000000000000000000000000000000000000000000000000 DUP2 MSTORE PUSH1 0x4 ADD PUSH2 0x3E9 SWAP1 PUSH2 0x89F JUMP JUMPDEST PUSH1 0x40 MLOAD DUP1 SWAP2 SUB SWAP1 REVERT JUMPDEST PUSH0 DUP1 PUSH0 SWAP1 SLOAD SWAP1 PUSH2 0x100 EXP SWAP1 DIV PUSH20 0xFFFFFFFFFFFFFFFFFFFFFFFFFFFFFFFFFFFFFFFF AND SWAP1 POP PUSH2 0x420 DUP4 DUP4 PUSH2 0x355 JUMP JUMPDEST DUP2 PUSH20 0xFFFFFFFFFFFFFFFFFFFFFFFFFFFFFFFFFFFFFFFF AND PUSH4 0xDD62ED3E CALLER ADDRESS PUSH1 0x40 MLOAD DUP4 PUSH4 0xFFFFFFFF AND PUSH1 0xE0 SHL DUP2 MSTORE PUSH1 0x4 ADD PUSH2 0x45B SWAP3 SWAP2 SWAP1 PUSH2 0xA27 JUMP JUMPDEST PUSH1 0x20 PUSH1 0x40 MLOAD DUP1 DUP4 SUB DUP2 PUSH0 DUP8 GAS CALL ISZERO DUP1 ISZERO PUSH2 0x477 JUMPI RETURNDATASIZE PUSH0 DUP1 RETURNDATACOPY RETURNDATASIZE PUSH0 REVERT JUMPDEST POP POP POP POP PUSH1 0x40 MLOAD RETURNDATASIZE PUSH1 0x1F NOT PUSH1 0x1F DUP3 ADD AND DUP3 ADD DUP1 PUSH1 0x40 MSTORE POP DUP2 ADD SWAP1 PUSH2 0x49B SWAP2 SWAP1 PUSH2 0xA78 JUMP JUMPDEST LT ISZERO PUSH2 0x4DC JUMPI PUSH1 0x40 MLOAD PUSH32 0x8C379A000000000000000000000000000000000000000000000000000000000 DUP2 MSTORE PUSH1 0x4 ADD PUSH2 0x4D3 SWAP1 PUSH2 0xAED JUMP JUMPDEST PUSH1 0x40 MLOAD DUP1 SWAP2 SUB SWAP1 REVERT JUMPDEST PUSH0 JUMPDEST DUP6 DUP6 SWAP1 POP DUP2 PUSH1 0xFF AND LT ISZERO PUSH2 0x5C3 JUMPI DUP2 PUSH20 0xFFFFFFFFFFFFFFFFFFFFFFFFFFFFFFFFFFFFFFFF AND PUSH4 0x23B872DD CALLER DUP9 DUP9 DUP6 PUSH1 0xFF AND DUP2 DUP2 LT PUSH2 0x51F JUMPI PUSH2 0x51E PUSH2 0x925 JUMP JUMPDEST JUMPDEST SWAP1 POP PUSH1 0x20 MUL ADD PUSH1 0x20 DUP2 ADD SWAP1 PUSH2 0x534 SWAP2 SWAP1 PUSH2 0x81A JUMP JUMPDEST DUP8 DUP8 DUP7 PUSH1 0xFF AND DUP2 DUP2 LT PUSH2 0x54A JUMPI PUSH2 0x549 PUSH2 0x925 JUMP JUMPDEST JUMPDEST SWAP1 POP PUSH1 0x20 MUL ADD CALLDATALOAD PUSH1 0x40 MLOAD DUP5 PUSH4 0xFFFFFFFF AND PUSH1 0xE0 SHL DUP2 MSTORE PUSH1 0x4 ADD PUSH2 0x56F SWAP4 SWAP3 SWAP2 SWAP1 PUSH2 0xB0B JUMP JUMPDEST PUSH1 0x20 PUSH1 0x40 MLOAD DUP1 DUP4 SUB DUP2 PUSH0 DUP8 GAS CALL ISZERO DUP1 ISZERO PUSH2 0x58B JUMPI RETURNDATASIZE PUSH0 DUP1 RETURNDATACOPY RETURNDATASIZE PUSH0 REVERT JUMPDEST POP POP POP POP PUSH1 0x40 MLOAD RETURNDATASIZE PUSH1 0x1F NOT PUSH1 0x1F DUP3 ADD AND DUP3 ADD DUP1 PUSH1 0x40 MSTORE POP DUP2 ADD SWAP1 PUSH2 0x5AF SWAP2 SWAP1 PUSH2 0xB75 JUMP JUMPDEST POP DUP1 DUP1 PUSH2 0x5BB SWAP1 PUSH2 0x9CC JUMP JUMPDEST SWAP2 POP POP PUSH2 0x4DE JUMP JUMPDEST POP POP POP POP POP POP JUMP JUMPDEST PUSH1 0x1 PUSH1 0x20 MSTORE DUP1 PUSH0 MSTORE PUSH1 0x40 PUSH0 KECCAK256 PUSH0 SWAP2 POP SWAP1 POP SLOAD DUP2 JUMP JUMPDEST PUSH0 PUSH20 0xFFFFFFFFFFFFFFFFFFFFFFFFFFFFFFFFFFFFFFFF DUP3 AND SWAP1 POP SWAP2 SWAP1 POP JUMP JUMPDEST PUSH0 PUSH2 0x609 DUP3 PUSH2 0x5E0 JUMP JUMPDEST SWAP1 POP SWAP2 SWAP1 POP JUMP JUMPDEST PUSH2 0x619 DUP2 PUSH2 0x5FF JUMP JUMPDEST DUP3 MSTORE POP POP JUMP JUMPDEST PUSH0 PUSH1 0x20 DUP3 ADD SWAP1 POP PUSH2 0x632 PUSH0 DUP4 ADD DUP5 PUSH2 0x610 JUMP JUMPDEST SWAP3 SWAP2 POP POP JUMP JUMPDEST PUSH0 DUP1 REVERT JUMPDEST PUSH0 DUP1 REVERT JUMPDEST PUSH0 DUP1 REVERT JUMPDEST PUSH0 DUP1 REVERT JUMPDEST PUSH0 DUP1 REVERT JUMPDEST PUSH0 DUP1 DUP4 PUSH1 0x1F DUP5 ADD SLT PUSH2 0x661 JUMPI PUSH2 0x660 PUSH2 0x640 JUMP JUMPDEST JUMPDEST DUP3 CALLDATALOAD SWAP1 POP PUSH8 0xFFFFFFFFFFFFFFFF DUP2 GT ISZERO PUSH2 0x67E JUMPI PUSH2 0x67D PUSH2 0x644 JUMP JUMPDEST JUMPDEST PUSH1 0x20 DUP4 ADD SWAP2 POP DUP4 PUSH1 0x20 DUP3 MUL DUP4 ADD GT ISZERO PUSH2 0x69A JUMPI PUSH2 0x699 PUSH2 0x648 JUMP JUMPDEST JUMPDEST SWAP3 POP SWAP3 SWAP1 POP JUMP JUMPDEST PUSH0 DUP1 DUP4 PUSH1 0x1F DUP5 ADD SLT PUSH2 0x6B6 JUMPI PUSH2 0x6B5 PUSH2 0x640 JUMP JUMPDEST JUMPDEST DUP3 CALLDATALOAD SWAP1 POP PUSH8 0xFFFFFFFFFFFFFFFF DUP2 GT ISZERO PUSH2 0x6D3 JUMPI PUSH2 0x6D2 PUSH2 0x644 JUMP JUMPDEST JUMPDEST PUSH1 0x20 DUP4 ADD SWAP2 POP DUP4 PUSH1 0x20 DUP3 MUL DUP4 ADD GT ISZERO PUSH2 0x6EF JUMPI PUSH2 0x6EE PUSH2 0x648 JUMP JUMPDEST JUMPDEST SWAP3 POP SWAP3 SWAP1 POP JUMP JUMPDEST PUSH0 DUP1 PUSH0 DUP1 PUSH1 0x40 DUP6 DUP8 SUB SLT ISZERO PUSH2 0x70E JUMPI PUSH2 0x70D PUSH2 0x638 JUMP JUMPDEST JUMPDEST PUSH0 DUP6 ADD CALLDATALOAD PUSH8 0xFFFFFFFFFFFFFFFF DUP2 GT ISZERO PUSH2 0x72B JUMPI PUSH2 0x72A PUSH2 0x63C JUMP JUMPDEST JUMPDEST PUSH2 0x737 DUP8 DUP3 DUP9 ADD PUSH2 0x64C JUMP JUMPDEST SWAP5 POP SWAP5 POP POP PUSH1 0x20 DUP6 ADD CALLDATALOAD PUSH8 0xFFFFFFFFFFFFFFFF DUP2 GT ISZERO PUSH2 0x75A JUMPI PUSH2 0x759 PUSH2 0x63C JUMP JUMPDEST JUMPDEST PUSH2 0x766 DUP8 DUP3 DUP9 ADD PUSH2 0x6A1 JUMP JUMPDEST SWAP3 POP SWAP3 POP POP SWAP3 SWAP6 SWAP2 SWAP5 POP SWAP3 POP JUMP JUMPDEST PUSH0 DUP1 PUSH1 0x20 DUP4 DUP6 SUB SLT ISZERO PUSH2 0x78A JUMPI PUSH2 0x789 PUSH2 0x638 JUMP JUMPDEST JUMPDEST PUSH0 DUP4 ADD CALLDATALOAD PUSH8 0xFFFFFFFFFFFFFFFF DUP2 GT ISZERO PUSH2 0x7A7 JUMPI PUSH2 0x7A6 PUSH2 0x63C JUMP JUMPDEST JUMPDEST PUSH2 0x7B3 DUP6 DUP3 DUP7 ADD PUSH2 0x6A1 JUMP JUMPDEST SWAP3 POP SWAP3 POP POP SWAP3 POP SWAP3 SWAP1 POP JUMP JUMPDEST PUSH0 DUP2 SWAP1 POP SWAP2 SWAP1 POP JUMP JUMPDEST PUSH2 0x7D1 DUP2 PUSH2 0x7BF JUMP JUMPDEST DUP3 MSTORE POP POP JUMP JUMPDEST PUSH0 PUSH1 0x20 DUP3 ADD SWAP1 POP PUSH2 0x7EA PUSH0 DUP4 ADD DUP5 PUSH2 0x7C8 JUMP JUMPDEST SWAP3 SWAP2 POP POP JUMP JUMPDEST PUSH2 0x7F9 DUP2 PUSH2 0x5FF JUMP JUMPDEST DUP2 EQ PUSH2 0x803 JUMPI PUSH0 DUP1 REVERT JUMPDEST POP JUMP JUMPDEST PUSH0 DUP2 CALLDATALOAD SWAP1 POP PUSH2 0x814 DUP2 PUSH2 0x7F0 JUMP JUMPDEST SWAP3 SWAP2 POP POP JUMP JUMPDEST PUSH0 PUSH1 0x20 DUP3 DUP5 SUB SLT ISZERO PUSH2 0x82F JUMPI PUSH2 0x82E PUSH2 0x638 JUMP JUMPDEST JUMPDEST PUSH0 PUSH2 0x83C DUP5 DUP3 DUP6 ADD PUSH2 0x806 JUMP JUMPDEST SWAP2 POP POP SWAP3 SWAP2 POP POP JUMP JUMPDEST PUSH0 DUP3 DUP3 MSTORE PUSH1 0x20 DUP3 ADD SWAP1 POP SWAP3 SWAP2 POP POP JUMP JUMPDEST PUSH32 0x6C656E677468206E6F7420657175616C00000000000000000000000000000000 PUSH0 DUP3 ADD MSTORE POP JUMP JUMPDEST PUSH0 PUSH2 0x889 PUSH1 0x10 DUP4 PUSH2 0x845 JUMP JUMPDEST SWAP2 POP PUSH2 0x894 DUP3 PUSH2 0x855 JUMP JUMPDEST PUSH1 0x20 DUP3 ADD SWAP1 POP SWAP2 SWAP1 POP JUMP JUMPDEST PUSH0 PUSH1 0x20 DUP3 ADD SWAP1 POP DUP2 DUP2 SUB PUSH0 DUP4 ADD MSTORE PUSH2 0x8B6 DUP2 PUSH2 0x87D JUMP JUMPDEST SWAP1 POP SWAP2 SWAP1 POP JUMP JUMPDEST PUSH32 0x6D73672E76616C7565206572726F720000000000000000000000000000000000 PUSH0 DUP3 ADD MSTORE POP JUMP JUMPDEST PUSH0 PUSH2 0x8F1 PUSH1 0xF DUP4 PUSH2 0x845 JUMP JUMPDEST SWAP2 POP PUSH2 0x8FC DUP3 PUSH2 0x8BD JUMP JUMPDEST PUSH1 0x20 DUP3 ADD SWAP1 POP SWAP2 SWAP1 POP JUMP JUMPDEST PUSH0 PUSH1 0x20 DUP3 ADD SWAP1 POP DUP2 DUP2 SUB PUSH0 DUP4 ADD MSTORE PUSH2 0x91E DUP2 PUSH2 0x8E5 JUMP JUMPDEST SWAP1 POP SWAP2 SWAP1 POP JUMP JUMPDEST PUSH32 0x4E487B7100000000000000000000000000000000000000000000000000000000 PUSH0 MSTORE PUSH1 0x32 PUSH1 0x4 MSTORE PUSH1 0x24 PUSH0 REVERT JUMPDEST PUSH0 DUP2 SWAP1 POP SWAP3 SWAP2 POP POP JUMP JUMPDEST POP JUMP JUMPDEST PUSH0 PUSH2 0x96A PUSH0 DUP4 PUSH2 0x952 JUMP JUMPDEST SWAP2 POP PUSH2 0x975 DUP3 PUSH2 0x95C JUMP JUMPDEST PUSH0 DUP3 ADD SWAP1 POP SWAP2 SWAP1 POP JUMP JUMPDEST PUSH0 PUSH2 0x989 DUP3 PUSH2 0x95F JUMP JUMPDEST SWAP2 POP DUP2 SWAP1 POP SWAP2 SWAP1 POP JUMP JUMPDEST PUSH32 0x4E487B7100000000000000000000000000000000000000000000000000000000 PUSH0 MSTORE PUSH1 0x11 PUSH1 0x4 MSTORE PUSH1 0x24 PUSH0 REVERT JUMPDEST PUSH0 PUSH1 0xFF DUP3 AND SWAP1 POP SWAP2 SWAP1 POP JUMP JUMPDEST PUSH0 PUSH2 0x9D6 DUP3 PUSH2 0x9C0 JUMP JUMPDEST SWAP2 POP PUSH1 0xFF DUP3 SUB PUSH2 0x9E9 JUMPI PUSH2 0x9E8 PUSH2 0x993 JUMP JUMPDEST JUMPDEST PUSH1 0x1 DUP3 ADD SWAP1 POP SWAP2 SWAP1 POP JUMP JUMPDEST PUSH0 PUSH2 0x9FE DUP3 PUSH2 0x7BF JUMP JUMPDEST SWAP2 POP PUSH2 0xA09 DUP4 PUSH2 0x7BF JUMP JUMPDEST SWAP3 POP DUP3 DUP3 ADD SWAP1 POP DUP1 DUP3 GT ISZERO PUSH2 0xA21 JUMPI PUSH2 0xA20 PUSH2 0x993 JUMP JUMPDEST JUMPDEST SWAP3 SWAP2 POP POP JUMP JUMPDEST PUSH0 PUSH1 0x40 DUP3 ADD SWAP1 POP PUSH2 0xA3A PUSH0 DUP4 ADD DUP6 PUSH2 0x610 JUMP JUMPDEST PUSH2 0xA47 PUSH1 0x20 DUP4 ADD DUP5 PUSH2 0x610 JUMP JUMPDEST SWAP4 SWAP3 POP POP POP JUMP JUMPDEST PUSH2 0xA57 DUP2 PUSH2 0x7BF JUMP JUMPDEST DUP2 EQ PUSH2 0xA61 JUMPI PUSH0 DUP1 REVERT JUMPDEST POP JUMP JUMPDEST PUSH0 DUP2 MLOAD SWAP1 POP PUSH2 0xA72 DUP2 PUSH2 0xA4E JUMP JUMPDEST SWAP3 SWAP2 POP POP JUMP JUMPDEST PUSH0 PUSH1 0x20 DUP3 DUP5 SUB SLT ISZERO PUSH2 0xA8D JUMPI PUSH2 0xA8C PUSH2 0x638 JUMP JUMPDEST JUMPDEST PUSH0 PUSH2 0xA9A DUP5 DUP3 DUP6 ADD PUSH2 0xA64 JUMP JUMPDEST SWAP2 POP POP SWAP3 SWAP2 POP POP JUMP JUMPDEST PUSH32 0x4E65656420656E6F75676820617070726F766520616D6F756E74000000000000 PUSH0 DUP3 ADD MSTORE POP JUMP JUMPDEST PUSH0 PUSH2 0xAD7 PUSH1 0x1A DUP4 PUSH2 0x845 JUMP JUMPDEST SWAP2 POP PUSH2 0xAE2 DUP3 PUSH2 0xAA3 JUMP JUMPDEST PUSH1 0x20 DUP3 ADD SWAP1 POP SWAP2 SWAP1 POP JUMP JUMPDEST PUSH0 PUSH1 0x20 DUP3 ADD SWAP1 POP DUP2 DUP2 SUB PUSH0 DUP4 ADD MSTORE PUSH2 0xB04 DUP2 PUSH2 0xACB JUMP JUMPDEST SWAP1 POP SWAP2 SWAP1 POP JUMP JUMPDEST PUSH0 PUSH1 0x60 DUP3 ADD SWAP1 POP PUSH2 0xB1E PUSH0 DUP4 ADD DUP7 PUSH2 0x610 JUMP JUMPDEST PUSH2 0xB2B PUSH1 0x20 DUP4 ADD DUP6 PUSH2 0x610 JUMP JUMPDEST PUSH2 0xB38 PUSH1 0x40 DUP4 ADD DUP5 PUSH2 0x7C8 JUMP JUMPDEST SWAP5 SWAP4 POP POP POP POP JUMP JUMPDEST PUSH0 DUP2 ISZERO ISZERO SWAP1 POP SWAP2 SWAP1 POP JUMP JUMPDEST PUSH2 0xB54 DUP2 PUSH2 0xB40 JUMP JUMPDEST DUP2 EQ PUSH2 0xB5E JUMPI PUSH0 DUP1 REVERT JUMPDEST POP JUMP JUMPDEST PUSH0 DUP2 MLOAD SWAP1 POP PUSH2 0xB6F DUP2 PUSH2 0xB4B JUMP JUMPDEST SWAP3 SWAP2 POP POP JUMP JUMPDEST PUSH0 PUSH1 0x20 DUP3 DUP5 SUB SLT ISZERO PUSH2 0xB8A JUMPI PUSH2 0xB89 PUSH2 0x638 JUMP JUMPDEST JUMPDEST PUSH0 PUSH2 0xB97 DUP5 DUP3 DUP6 ADD PUSH2 0xB61 JUMP JUMPDEST SWAP2 POP POP SWAP3 SWAP2 POP POP JUMP INVALID LOG2 PUSH5 0x6970667358 0x22 SLT KECCAK256 PUSH26 0xE79F2C55A6FE69BAEC71C651726C0FD777E58871C02A2672C16F PUSH13 0x60856A5464736F6C634300081A STOP CALLER "
				},
				"gasEstimates": {
					"creation": {
						"codeDepositCost": "606000",
						"executionCost": "infinite",
						"totalCost": "infinite"
					},
					"external": {
						"failTransferList(address)": "2868",
						"getSum(uint256[])": "infinite",
						"multiTransferEth(address[],uint256[])": "infinite",
						"multiTransferToken(address[],uint256[])": "infinite",
						"tokenAddr()": "2483"
					}
				},
				"methodIdentifiers": {
					"failTransferList(address)": "fe53c53c",
					"getSum(uint256[])": "ccb8c1e0",
					"multiTransferEth(address[],uint256[])": "73918980",
					"multiTransferToken(address[],uint256[])": "f3ad0dd8",
					"tokenAddr()": "5fbe4d1d"
				}
			},
			"storageLayout": {
				"storage": [
					{
						"astId": 6,
						"contract": "contracts/Airdrop.sol:Airdrop",
						"label": "tokenAddr",
						"offset": 0,
						"slot": "0",
						"type": "t_address"
					},
					{
						"astId": 115,
						"contract": "contracts/Airdrop.sol:Airdrop",
						"label": "failTransferList",
						"offset": 0,
						"slot": "1",
						"type": "t_mapping(t_address,t_uint256)"
					}
				],
				"types": {
					"t_address": {
						"encoding": "inplace",
						"label": "address",
						"numberOfBytes": "20"
					},
					"t_mapping(t_address,t_uint256)": {
						"encoding": "mapping",
						"key": "t_address",
						"label": "mapping(address => uint256)",
						"numberOfBytes": "32",
						"value": "t_uint256"
					},
					"t_uint256": {
						"encoding": "inplace",
						"label": "uint256",
						"numberOfBytes": "32"
					}
				}
			},
			"userdoc": {
				"kind": "user",
				"methods": {},
				"notice": "通过该合约可将某账户下的token与eth转移至指定账户中",
				"version": 1
			}
		}
	}
}