{
	"contracts/Call.sol": {
		"Caller": {
			"abi": [
				{
					"anonymous": false,
					"inputs": [
						{
							"indexed": false,
							"internalType": "bool",
							"name": "success",
							"type": "bool"
						},
						{
							"indexed": false,
							"internalType": "bytes",
							"name": "data",
							"type": "bytes"
						}
					],
					"name": "Response",
					"type": "event"
				},
				{
					"inputs": [
						{
							"internalType": "address",
							"name": "_addr",
							"type": "address"
						}
					],
					"name": "testCallDoesNotExist",
					"outputs": [],
					"stateMutability": "nonpayable",
					"type": "function"
				},
				{
					"inputs": [
						{
							"internalType": "address payable",
							"name": "_addr",
							"type": "address"
						}
					],
					"name": "testCallFoo",
					"outputs": [],
					"stateMutability": "payable",
					"type": "function"
				}
			],
			"devdoc": {
				"kind": "dev",
				"methods": {},
				"version": 1
			},
			"evm": {
				"assembly": "    /* \"contracts/Call.sol\":526:1566  contract Caller {... */\n  mstore(0x40, 0x80)\n  callvalue\n  dup1\n  iszero\n  tag_1\n  jumpi\n  0x00\n  dup1\n  revert\ntag_1:\n  pop\n  dataSize(sub_0)\n  dup1\n  dataOffset(sub_0)\n  0x00\n  codecopy\n  0x00\n  return\nstop\n\nsub_0: assembly {\n        /* \"contracts/Call.sol\":526:1566  contract Caller {... */\n      mstore(0x40, 0x80)\n      jumpi(tag_1, lt(calldatasize, 0x04))\n      shr(0xe0, calldataload(0x00))\n      dup1\n      0x87ba6179\n      eq\n      tag_2\n      jumpi\n      dup1\n      0xff00726c\n      eq\n      tag_3\n      jumpi\n    tag_1:\n      0x00\n      dup1\n      revert\n        /* \"contracts/Call.sol\":748:1265  function testCallFoo(address payable _addr) public payable {... */\n    tag_2:\n      tag_4\n      0x04\n      dup1\n      calldatasize\n      sub\n      dup2\n      add\n      swap1\n      tag_5\n      swap2\n      swap1\n      tag_6\n      jump\t// in\n    tag_5:\n      tag_7\n      jump\t// in\n    tag_4:\n      stop\n        /* \"contracts/Call.sol\":1352:1563  function testCallDoesNotExist(address _addr) public {... */\n    tag_3:\n      callvalue\n      dup1\n      iszero\n      tag_8\n      jumpi\n      0x00\n      dup1\n      revert\n    tag_8:\n      pop\n      tag_9\n      0x04\n      dup1\n      calldatasize\n      sub\n      dup2\n      add\n      swap1\n      tag_10\n      swap2\n      swap1\n      tag_11\n      jump\t// in\n    tag_10:\n      tag_12\n      jump\t// in\n    tag_9:\n      stop\n        /* \"contracts/Call.sol\":748:1265  function testCallFoo(address payable _addr) public payable {... */\n    tag_7:\n        /* \"contracts/Call.sol\":882:894  bool success */\n      0x00\n        /* \"contracts/Call.sol\":896:913  bytes memory data */\n      dup1\n        /* \"contracts/Call.sol\":917:922  _addr */\n      dup3\n        /* \"contracts/Call.sol\":917:927  _addr.call */\n      0xffffffffffffffffffffffffffffffffffffffff\n      and\n        /* \"contracts/Call.sol\":935:944  msg.value */\n      callvalue\n        /* \"contracts/Call.sol\":1021:1022  1 */\n      0x01\n        /* \"contracts/Call.sol\":960:1023  abi.encodeWithSignature(\"foo(string,uint256)\", \"call param\", 1) */\n      add(0x24, mload(0x40))\n      tag_14\n      swap2\n      swap1\n      tag_15\n      jump\t// in\n    tag_14:\n      mload(0x40)\n      0x20\n      dup2\n      dup4\n      sub\n      sub\n      dup2\n      mstore\n      swap1\n      0x40\n      mstore\n      and(not(0xffffffffffffffffffffffffffffffffffffffffffffffffffffffff), 0x24ccab8f00000000000000000000000000000000000000000000000000000000)\n      0x20\n      dup3\n      add\n      dup1\n      mload\n      0xffffffffffffffffffffffffffffffffffffffffffffffffffffffff\n      dup4\n      dup2\n      dup4\n      and\n      or\n      dup4\n      mstore\n      pop\n      pop\n      pop\n      pop\n        /* \"contracts/Call.sol\":917:1034  _addr.call{value: msg.value}(... */\n      mload(0x40)\n      tag_16\n      swap2\n      swap1\n      tag_17\n      jump\t// in\n    tag_16:\n      0x00\n      mload(0x40)\n      dup1\n      dup4\n      sub\n      dup2\n      dup6\n      dup8\n      gas\n      call\n      swap3\n      pop\n      pop\n      pop\n      returndatasize\n      dup1\n      0x00\n      dup2\n      eq\n      tag_20\n      jumpi\n      mload(0x40)\n      swap2\n      pop\n      and(add(returndatasize, 0x3f), not(0x1f))\n      dup3\n      add\n      0x40\n      mstore\n      returndatasize\n      dup3\n      mstore\n      returndatasize\n      0x00\n      0x20\n      dup5\n      add\n      returndatacopy\n      jump(tag_19)\n    tag_20:\n      0x60\n      swap2\n      pop\n    tag_19:\n      pop\n        /* \"contracts/Call.sol\":881:1034  (bool success, bytes memory data) = _addr.call{value: msg.value}(... */\n      swap2\n      pop\n      swap2\n      pop\n        /* \"contracts/Call.sol\":1234:1257  Response(success, data) */\n      0x13848c3e38f8886f3f5d2ad9dff80d8092c2bbb8efd5b887a99c2c6cfc09ac2a\n        /* \"contracts/Call.sol\":1243:1250  success */\n      dup3\n        /* \"contracts/Call.sol\":1252:1256  data */\n      dup3\n        /* \"contracts/Call.sol\":1234:1257  Response(success, data) */\n      mload(0x40)\n      tag_21\n      swap3\n      swap2\n      swap1\n      tag_22\n      jump\t// in\n    tag_21:\n      mload(0x40)\n      dup1\n      swap2\n      sub\n      swap1\n      log1\n        /* \"contracts/Call.sol\":807:1265  {... */\n      pop\n      pop\n        /* \"contracts/Call.sol\":748:1265  function testCallFoo(address payable _addr) public payable {... */\n      pop\n      jump\t// out\n        /* \"contracts/Call.sol\":1352:1563  function testCallDoesNotExist(address _addr) public {... */\n    tag_12:\n        /* \"contracts/Call.sol\":1416:1428  bool success */\n      0x00\n        /* \"contracts/Call.sol\":1430:1447  bytes memory data */\n      dup1\n        /* \"contracts/Call.sol\":1451:1456  _addr */\n      dup3\n        /* \"contracts/Call.sol\":1451:1461  _addr.call */\n      0xffffffffffffffffffffffffffffffffffffffff\n      and\n        /* \"contracts/Call.sol\":1476:1503  abi.encodeWithSignature(\"\") */\n      add(0x24, mload(0x40))\n      mload(0x40)\n      0x20\n      dup2\n      dup4\n      sub\n      sub\n      dup2\n      mstore\n      swap1\n      0x40\n      mstore\n      and(not(0xffffffffffffffffffffffffffffffffffffffffffffffffffffffff), 0xc5d2460100000000000000000000000000000000000000000000000000000000)\n      0x20\n      dup3\n      add\n      dup1\n      mload\n      0xffffffffffffffffffffffffffffffffffffffffffffffffffffffff\n      dup4\n      dup2\n      dup4\n      and\n      or\n      dup4\n      mstore\n      pop\n      pop\n      pop\n      pop\n        /* \"contracts/Call.sol\":1451:1514  _addr.call(... */\n      mload(0x40)\n      tag_24\n      swap2\n      swap1\n      tag_17\n      jump\t// in\n    tag_24:\n      0x00\n      mload(0x40)\n      dup1\n      dup4\n      sub\n      dup2\n      0x00\n      dup7\n      gas\n      call\n      swap2\n      pop\n      pop\n      returndatasize\n      dup1\n      0x00\n      dup2\n      eq\n      tag_27\n      jumpi\n      mload(0x40)\n      swap2\n      pop\n      and(add(returndatasize, 0x3f), not(0x1f))\n      dup3\n      add\n      0x40\n      mstore\n      returndatasize\n      dup3\n      mstore\n      returndatasize\n      0x00\n      0x20\n      dup5\n      add\n      returndatacopy\n      jump(tag_26)\n    tag_27:\n      0x60\n      swap2\n      pop\n    tag_26:\n      pop\n        /* \"contracts/Call.sol\":1415:1514  (bool success, bytes memory data) = _addr.call(... */\n      swap2\n      pop\n      swap2\n      pop\n        /* \"contracts/Call.sol\":1532:1555  Response(success, data) */\n      0x13848c3e38f8886f3f5d2ad9dff80d8092c2bbb8efd5b887a99c2c6cfc09ac2a\n        /* \"contracts/Call.sol\":1541:1548  success */\n      dup3\n        /* \"contracts/Call.sol\":1550:1554  data */\n      dup3\n        /* \"contracts/Call.sol\":1532:1555  Response(success, data) */\n      mload(0x40)\n      tag_28\n      swap3\n      swap2\n      swap1\n      tag_22\n      jump\t// in\n    tag_28:\n      mload(0x40)\n      dup1\n      swap2\n      sub\n      swap1\n      log1\n        /* \"contracts/Call.sol\":1404:1563  {... */\n      pop\n      pop\n        /* \"contracts/Call.sol\":1352:1563  function testCallDoesNotExist(address _addr) public {... */\n      pop\n      jump\t// out\n        /* \"#utility.yul\":88:205   */\n    tag_30:\n        /* \"#utility.yul\":197:198   */\n      0x00\n        /* \"#utility.yul\":194:195   */\n      dup1\n        /* \"#utility.yul\":187:199   */\n      revert\n        /* \"#utility.yul\":334:460   */\n    tag_32:\n        /* \"#utility.yul\":371:378   */\n      0x00\n        /* \"#utility.yul\":411:453   */\n      0xffffffffffffffffffffffffffffffffffffffff\n        /* \"#utility.yul\":404:409   */\n      dup3\n        /* \"#utility.yul\":400:454   */\n      and\n        /* \"#utility.yul\":389:454   */\n      swap1\n      pop\n        /* \"#utility.yul\":334:460   */\n      swap2\n      swap1\n      pop\n      jump\t// out\n        /* \"#utility.yul\":466:570   */\n    tag_33:\n        /* \"#utility.yul\":511:518   */\n      0x00\n        /* \"#utility.yul\":540:564   */\n      tag_62\n        /* \"#utility.yul\":558:563   */\n      dup3\n        /* \"#utility.yul\":540:564   */\n      tag_32\n      jump\t// in\n    tag_62:\n        /* \"#utility.yul\":529:564   */\n      swap1\n      pop\n        /* \"#utility.yul\":466:570   */\n      swap2\n      swap1\n      pop\n      jump\t// out\n        /* \"#utility.yul\":576:714   */\n    tag_34:\n        /* \"#utility.yul\":657:689   */\n      tag_64\n        /* \"#utility.yul\":683:688   */\n      dup2\n        /* \"#utility.yul\":657:689   */\n      tag_33\n      jump\t// in\n    tag_64:\n        /* \"#utility.yul\":650:655   */\n      dup2\n        /* \"#utility.yul\":647:690   */\n      eq\n        /* \"#utility.yul\":637:708   */\n      tag_65\n      jumpi\n        /* \"#utility.yul\":704:705   */\n      0x00\n        /* \"#utility.yul\":701:702   */\n      dup1\n        /* \"#utility.yul\":694:706   */\n      revert\n        /* \"#utility.yul\":637:708   */\n    tag_65:\n        /* \"#utility.yul\":576:714   */\n      pop\n      jump\t// out\n        /* \"#utility.yul\":720:875   */\n    tag_35:\n        /* \"#utility.yul\":774:779   */\n      0x00\n        /* \"#utility.yul\":812:818   */\n      dup2\n        /* \"#utility.yul\":799:819   */\n      calldataload\n        /* \"#utility.yul\":790:819   */\n      swap1\n      pop\n        /* \"#utility.yul\":828:869   */\n      tag_67\n        /* \"#utility.yul\":863:868   */\n      dup2\n        /* \"#utility.yul\":828:869   */\n      tag_34\n      jump\t// in\n    tag_67:\n        /* \"#utility.yul\":720:875   */\n      swap3\n      swap2\n      pop\n      pop\n      jump\t// out\n        /* \"#utility.yul\":881:1226   */\n    tag_6:\n        /* \"#utility.yul\":948:954   */\n      0x00\n        /* \"#utility.yul\":997:999   */\n      0x20\n        /* \"#utility.yul\":985:994   */\n      dup3\n        /* \"#utility.yul\":976:983   */\n      dup5\n        /* \"#utility.yul\":972:995   */\n      sub\n        /* \"#utility.yul\":968:1000   */\n      slt\n        /* \"#utility.yul\":965:1084   */\n      iszero\n      tag_69\n      jumpi\n        /* \"#utility.yul\":1003:1082   */\n      tag_70\n      tag_30\n      jump\t// in\n    tag_70:\n        /* \"#utility.yul\":965:1084   */\n    tag_69:\n        /* \"#utility.yul\":1123:1124   */\n      0x00\n        /* \"#utility.yul\":1148:1209   */\n      tag_71\n        /* \"#utility.yul\":1201:1208   */\n      dup5\n        /* \"#utility.yul\":1192:1198   */\n      dup3\n        /* \"#utility.yul\":1181:1190   */\n      dup6\n        /* \"#utility.yul\":1177:1199   */\n      add\n        /* \"#utility.yul\":1148:1209   */\n      tag_35\n      jump\t// in\n    tag_71:\n        /* \"#utility.yul\":1138:1209   */\n      swap2\n      pop\n        /* \"#utility.yul\":1094:1219   */\n      pop\n        /* \"#utility.yul\":881:1226   */\n      swap3\n      swap2\n      pop\n      pop\n      jump\t// out\n        /* \"#utility.yul\":1232:1328   */\n    tag_36:\n        /* \"#utility.yul\":1269:1276   */\n      0x00\n        /* \"#utility.yul\":1298:1322   */\n      tag_73\n        /* \"#utility.yul\":1316:1321   */\n      dup3\n        /* \"#utility.yul\":1298:1322   */\n      tag_32\n      jump\t// in\n    tag_73:\n        /* \"#utility.yul\":1287:1322   */\n      swap1\n      pop\n        /* \"#utility.yul\":1232:1328   */\n      swap2\n      swap1\n      pop\n      jump\t// out\n        /* \"#utility.yul\":1334:1456   */\n    tag_37:\n        /* \"#utility.yul\":1407:1431   */\n      tag_75\n        /* \"#utility.yul\":1425:1430   */\n      dup2\n        /* \"#utility.yul\":1407:1431   */\n      tag_36\n      jump\t// in\n    tag_75:\n        /* \"#utility.yul\":1400:1405   */\n      dup2\n        /* \"#utility.yul\":1397:1432   */\n      eq\n        /* \"#utility.yul\":1387:1450   */\n      tag_76\n      jumpi\n        /* \"#utility.yul\":1446:1447   */\n      0x00\n        /* \"#utility.yul\":1443:1444   */\n      dup1\n        /* \"#utility.yul\":1436:1448   */\n      revert\n        /* \"#utility.yul\":1387:1450   */\n    tag_76:\n        /* \"#utility.yul\":1334:1456   */\n      pop\n      jump\t// out\n        /* \"#utility.yul\":1462:1601   */\n    tag_38:\n        /* \"#utility.yul\":1508:1513   */\n      0x00\n        /* \"#utility.yul\":1546:1552   */\n      dup2\n        /* \"#utility.yul\":1533:1553   */\n      calldataload\n        /* \"#utility.yul\":1524:1553   */\n      swap1\n      pop\n        /* \"#utility.yul\":1562:1595   */\n      tag_78\n        /* \"#utility.yul\":1589:1594   */\n      dup2\n        /* \"#utility.yul\":1562:1595   */\n      tag_37\n      jump\t// in\n    tag_78:\n        /* \"#utility.yul\":1462:1601   */\n      swap3\n      swap2\n      pop\n      pop\n      jump\t// out\n        /* \"#utility.yul\":1607:1936   */\n    tag_11:\n        /* \"#utility.yul\":1666:1672   */\n      0x00\n        /* \"#utility.yul\":1715:1717   */\n      0x20\n        /* \"#utility.yul\":1703:1712   */\n      dup3\n        /* \"#utility.yul\":1694:1701   */\n      dup5\n        /* \"#utility.yul\":1690:1713   */\n      sub\n        /* \"#utility.yul\":1686:1718   */\n      slt\n        /* \"#utility.yul\":1683:1802   */\n      iszero\n      tag_80\n      jumpi\n        /* \"#utility.yul\":1721:1800   */\n      tag_81\n      tag_30\n      jump\t// in\n    tag_81:\n        /* \"#utility.yul\":1683:1802   */\n    tag_80:\n        /* \"#utility.yul\":1841:1842   */\n      0x00\n        /* \"#utility.yul\":1866:1919   */\n      tag_82\n        /* \"#utility.yul\":1911:1918   */\n      dup5\n        /* \"#utility.yul\":1902:1908   */\n      dup3\n        /* \"#utility.yul\":1891:1900   */\n      dup6\n        /* \"#utility.yul\":1887:1909   */\n      add\n        /* \"#utility.yul\":1866:1919   */\n      tag_38\n      jump\t// in\n    tag_82:\n        /* \"#utility.yul\":1856:1919   */\n      swap2\n      pop\n        /* \"#utility.yul\":1812:1929   */\n      pop\n        /* \"#utility.yul\":1607:1936   */\n      swap3\n      swap2\n      pop\n      pop\n      jump\t// out\n        /* \"#utility.yul\":1942:2111   */\n    tag_39:\n        /* \"#utility.yul\":2026:2037   */\n      0x00\n        /* \"#utility.yul\":2060:2066   */\n      dup3\n        /* \"#utility.yul\":2055:2058   */\n      dup3\n        /* \"#utility.yul\":2048:2067   */\n      mstore\n        /* \"#utility.yul\":2100:2104   */\n      0x20\n        /* \"#utility.yul\":2095:2098   */\n      dup3\n        /* \"#utility.yul\":2091:2105   */\n      add\n        /* \"#utility.yul\":2076:2105   */\n      swap1\n      pop\n        /* \"#utility.yul\":1942:2111   */\n      swap3\n      swap2\n      pop\n      pop\n      jump\t// out\n        /* \"#utility.yul\":2117:2277   */\n    tag_40:\n        /* \"#utility.yul\":2257:2269   */\n      0x63616c6c20706172616d00000000000000000000000000000000000000000000\n        /* \"#utility.yul\":2253:2254   */\n      0x00\n        /* \"#utility.yul\":2245:2251   */\n      dup3\n        /* \"#utility.yul\":2241:2255   */\n      add\n        /* \"#utility.yul\":2234:2270   */\n      mstore\n        /* \"#utility.yul\":2117:2277   */\n      pop\n      jump\t// out\n        /* \"#utility.yul\":2283:2649   */\n    tag_41:\n        /* \"#utility.yul\":2425:2428   */\n      0x00\n        /* \"#utility.yul\":2446:2513   */\n      tag_86\n        /* \"#utility.yul\":2510:2512   */\n      0x0a\n        /* \"#utility.yul\":2505:2508   */\n      dup4\n        /* \"#utility.yul\":2446:2513   */\n      tag_39\n      jump\t// in\n    tag_86:\n        /* \"#utility.yul\":2439:2513   */\n      swap2\n      pop\n        /* \"#utility.yul\":2522:2615   */\n      tag_87\n        /* \"#utility.yul\":2611:2614   */\n      dup3\n        /* \"#utility.yul\":2522:2615   */\n      tag_40\n      jump\t// in\n    tag_87:\n        /* \"#utility.yul\":2640:2642   */\n      0x20\n        /* \"#utility.yul\":2635:2638   */\n      dup3\n        /* \"#utility.yul\":2631:2643   */\n      add\n        /* \"#utility.yul\":2624:2643   */\n      swap1\n      pop\n        /* \"#utility.yul\":2283:2649   */\n      swap2\n      swap1\n      pop\n      jump\t// out\n        /* \"#utility.yul\":2655:2740   */\n    tag_42:\n        /* \"#utility.yul\":2700:2707   */\n      0x00\n        /* \"#utility.yul\":2729:2734   */\n      dup2\n        /* \"#utility.yul\":2718:2734   */\n      swap1\n      pop\n        /* \"#utility.yul\":2655:2740   */\n      swap2\n      swap1\n      pop\n      jump\t// out\n        /* \"#utility.yul\":2746:2832   */\n    tag_43:\n        /* \"#utility.yul\":2781:2788   */\n      0x00\n        /* \"#utility.yul\":2821:2825   */\n      0xff\n        /* \"#utility.yul\":2814:2819   */\n      dup3\n        /* \"#utility.yul\":2810:2826   */\n      and\n        /* \"#utility.yul\":2799:2826   */\n      swap1\n      pop\n        /* \"#utility.yul\":2746:2832   */\n      swap2\n      swap1\n      pop\n      jump\t// out\n        /* \"#utility.yul\":2838:2898   */\n    tag_44:\n        /* \"#utility.yul\":2866:2869   */\n      0x00\n        /* \"#utility.yul\":2887:2892   */\n      dup2\n        /* \"#utility.yul\":2880:2892   */\n      swap1\n      pop\n        /* \"#utility.yul\":2838:2898   */\n      swap2\n      swap1\n      pop\n      jump\t// out\n        /* \"#utility.yul\":2904:3058   */\n    tag_45:\n        /* \"#utility.yul\":2960:2969   */\n      0x00\n        /* \"#utility.yul\":2993:3052   */\n      tag_92\n        /* \"#utility.yul\":3009:3051   */\n      tag_93\n        /* \"#utility.yul\":3018:3050   */\n      tag_94\n        /* \"#utility.yul\":3044:3049   */\n      dup5\n        /* \"#utility.yul\":3018:3050   */\n      tag_42\n      jump\t// in\n    tag_94:\n        /* \"#utility.yul\":3009:3051   */\n      tag_44\n      jump\t// in\n    tag_93:\n        /* \"#utility.yul\":2993:3052   */\n      tag_43\n      jump\t// in\n    tag_92:\n        /* \"#utility.yul\":2980:3052   */\n      swap1\n      pop\n        /* \"#utility.yul\":2904:3058   */\n      swap2\n      swap1\n      pop\n      jump\t// out\n        /* \"#utility.yul\":3064:3207   */\n    tag_46:\n        /* \"#utility.yul\":3157:3200   */\n      tag_96\n        /* \"#utility.yul\":3194:3199   */\n      dup2\n        /* \"#utility.yul\":3157:3200   */\n      tag_45\n      jump\t// in\n    tag_96:\n        /* \"#utility.yul\":3152:3155   */\n      dup3\n        /* \"#utility.yul\":3145:3201   */\n      mstore\n        /* \"#utility.yul\":3064:3207   */\n      pop\n      pop\n      jump\t// out\n        /* \"#utility.yul\":3213:3754   */\n    tag_15:\n        /* \"#utility.yul\":3413:3417   */\n      0x00\n        /* \"#utility.yul\":3451:3453   */\n      0x40\n        /* \"#utility.yul\":3440:3449   */\n      dup3\n        /* \"#utility.yul\":3436:3454   */\n      add\n        /* \"#utility.yul\":3428:3454   */\n      swap1\n      pop\n        /* \"#utility.yul\":3500:3509   */\n      dup2\n        /* \"#utility.yul\":3494:3498   */\n      dup2\n        /* \"#utility.yul\":3490:3510   */\n      sub\n        /* \"#utility.yul\":3486:3487   */\n      0x00\n        /* \"#utility.yul\":3475:3484   */\n      dup4\n        /* \"#utility.yul\":3471:3488   */\n      add\n        /* \"#utility.yul\":3464:3511   */\n      mstore\n        /* \"#utility.yul\":3528:3659   */\n      tag_98\n        /* \"#utility.yul\":3654:3658   */\n      dup2\n        /* \"#utility.yul\":3528:3659   */\n      tag_41\n      jump\t// in\n    tag_98:\n        /* \"#utility.yul\":3520:3659   */\n      swap1\n      pop\n        /* \"#utility.yul\":3669:3747   */\n      tag_99\n        /* \"#utility.yul\":3743:3745   */\n      0x20\n        /* \"#utility.yul\":3732:3741   */\n      dup4\n        /* \"#utility.yul\":3728:3746   */\n      add\n        /* \"#utility.yul\":3719:3725   */\n      dup5\n        /* \"#utility.yul\":3669:3747   */\n      tag_46\n      jump\t// in\n    tag_99:\n        /* \"#utility.yul\":3213:3754   */\n      swap3\n      swap2\n      pop\n      pop\n      jump\t// out\n        /* \"#utility.yul\":3760:3858   */\n    tag_47:\n        /* \"#utility.yul\":3811:3817   */\n      0x00\n        /* \"#utility.yul\":3845:3850   */\n      dup2\n        /* \"#utility.yul\":3839:3851   */\n      mload\n        /* \"#utility.yul\":3829:3851   */\n      swap1\n      pop\n        /* \"#utility.yul\":3760:3858   */\n      swap2\n      swap1\n      pop\n      jump\t// out\n        /* \"#utility.yul\":3864:4011   */\n    tag_48:\n        /* \"#utility.yul\":3965:3976   */\n      0x00\n        /* \"#utility.yul\":4002:4005   */\n      dup2\n        /* \"#utility.yul\":3987:4005   */\n      swap1\n      pop\n        /* \"#utility.yul\":3864:4011   */\n      swap3\n      swap2\n      pop\n      pop\n      jump\t// out\n        /* \"#utility.yul\":4017:4156   */\n    tag_49:\n        /* \"#utility.yul\":4106:4112   */\n      dup3\n        /* \"#utility.yul\":4101:4104   */\n      dup2\n        /* \"#utility.yul\":4096:4099   */\n      dup4\n        /* \"#utility.yul\":4090:4113   */\n      mcopy\n        /* \"#utility.yul\":4147:4148   */\n      0x00\n        /* \"#utility.yul\":4138:4144   */\n      dup4\n        /* \"#utility.yul\":4133:4136   */\n      dup4\n        /* \"#utility.yul\":4129:4145   */\n      add\n        /* \"#utility.yul\":4122:4149   */\n      mstore\n        /* \"#utility.yul\":4017:4156   */\n      pop\n      pop\n      pop\n      jump\t// out\n        /* \"#utility.yul\":4162:4548   */\n    tag_50:\n        /* \"#utility.yul\":4266:4269   */\n      0x00\n        /* \"#utility.yul\":4294:4332   */\n      tag_104\n        /* \"#utility.yul\":4326:4331   */\n      dup3\n        /* \"#utility.yul\":4294:4332   */\n      tag_47\n      jump\t// in\n    tag_104:\n        /* \"#utility.yul\":4348:4436   */\n      tag_105\n        /* \"#utility.yul\":4429:4435   */\n      dup2\n        /* \"#utility.yul\":4424:4427   */\n      dup6\n        /* \"#utility.yul\":4348:4436   */\n      tag_48\n      jump\t// in\n    tag_105:\n        /* \"#utility.yul\":4341:4436   */\n      swap4\n      pop\n        /* \"#utility.yul\":4445:4510   */\n      tag_106\n        /* \"#utility.yul\":4503:4509   */\n      dup2\n        /* \"#utility.yul\":4498:4501   */\n      dup6\n        /* \"#utility.yul\":4491:4495   */\n      0x20\n        /* \"#utility.yul\":4484:4489   */\n      dup7\n        /* \"#utility.yul\":4480:4496   */\n      add\n        /* \"#utility.yul\":4445:4510   */\n      tag_49\n      jump\t// in\n    tag_106:\n        /* \"#utility.yul\":4535:4541   */\n      dup1\n        /* \"#utility.yul\":4530:4533   */\n      dup5\n        /* \"#utility.yul\":4526:4542   */\n      add\n        /* \"#utility.yul\":4519:4542   */\n      swap2\n      pop\n        /* \"#utility.yul\":4270:4548   */\n      pop\n        /* \"#utility.yul\":4162:4548   */\n      swap3\n      swap2\n      pop\n      pop\n      jump\t// out\n        /* \"#utility.yul\":4554:4825   */\n    tag_17:\n        /* \"#utility.yul\":4684:4687   */\n      0x00\n        /* \"#utility.yul\":4706:4799   */\n      tag_108\n        /* \"#utility.yul\":4795:4798   */\n      dup3\n        /* \"#utility.yul\":4786:4792   */\n      dup5\n        /* \"#utility.yul\":4706:4799   */\n      tag_50\n      jump\t// in\n    tag_108:\n        /* \"#utility.yul\":4699:4799   */\n      swap2\n      pop\n        /* \"#utility.yul\":4816:4819   */\n      dup2\n        /* \"#utility.yul\":4809:4819   */\n      swap1\n      pop\n        /* \"#utility.yul\":4554:4825   */\n      swap3\n      swap2\n      pop\n      pop\n      jump\t// out\n        /* \"#utility.yul\":4831:4921   */\n    tag_51:\n        /* \"#utility.yul\":4865:4872   */\n      0x00\n        /* \"#utility.yul\":4908:4913   */\n      dup2\n        /* \"#utility.yul\":4901:4914   */\n      iszero\n        /* \"#utility.yul\":4894:4915   */\n      iszero\n        /* \"#utility.yul\":4883:4915   */\n      swap1\n      pop\n        /* \"#utility.yul\":4831:4921   */\n      swap2\n      swap1\n      pop\n      jump\t// out\n        /* \"#utility.yul\":4927:5036   */\n    tag_52:\n        /* \"#utility.yul\":5008:5029   */\n      tag_111\n        /* \"#utility.yul\":5023:5028   */\n      dup2\n        /* \"#utility.yul\":5008:5029   */\n      tag_51\n      jump\t// in\n    tag_111:\n        /* \"#utility.yul\":5003:5006   */\n      dup3\n        /* \"#utility.yul\":4996:5030   */\n      mstore\n        /* \"#utility.yul\":4927:5036   */\n      pop\n      pop\n      jump\t// out\n        /* \"#utility.yul\":5042:5210   */\n    tag_53:\n        /* \"#utility.yul\":5125:5136   */\n      0x00\n        /* \"#utility.yul\":5159:5165   */\n      dup3\n        /* \"#utility.yul\":5154:5157   */\n      dup3\n        /* \"#utility.yul\":5147:5166   */\n      mstore\n        /* \"#utility.yul\":5199:5203   */\n      0x20\n        /* \"#utility.yul\":5194:5197   */\n      dup3\n        /* \"#utility.yul\":5190:5204   */\n      add\n        /* \"#utility.yul\":5175:5204   */\n      swap1\n      pop\n        /* \"#utility.yul\":5042:5210   */\n      swap3\n      swap2\n      pop\n      pop\n      jump\t// out\n        /* \"#utility.yul\":5216:5318   */\n    tag_54:\n        /* \"#utility.yul\":5257:5263   */\n      0x00\n        /* \"#utility.yul\":5308:5310   */\n      0x1f\n        /* \"#utility.yul\":5304:5311   */\n      not\n        /* \"#utility.yul\":5299:5301   */\n      0x1f\n        /* \"#utility.yul\":5292:5297   */\n      dup4\n        /* \"#utility.yul\":5288:5302   */\n      add\n        /* \"#utility.yul\":5284:5312   */\n      and\n        /* \"#utility.yul\":5274:5312   */\n      swap1\n      pop\n        /* \"#utility.yul\":5216:5318   */\n      swap2\n      swap1\n      pop\n      jump\t// out\n        /* \"#utility.yul\":5324:5697   */\n    tag_55:\n        /* \"#utility.yul\":5410:5413   */\n      0x00\n        /* \"#utility.yul\":5438:5476   */\n      tag_115\n        /* \"#utility.yul\":5470:5475   */\n      dup3\n        /* \"#utility.yul\":5438:5476   */\n      tag_47\n      jump\t// in\n    tag_115:\n        /* \"#utility.yul\":5492:5562   */\n      tag_116\n        /* \"#utility.yul\":5555:5561   */\n      dup2\n        /* \"#utility.yul\":5550:5553   */\n      dup6\n        /* \"#utility.yul\":5492:5562   */\n      tag_53\n      jump\t// in\n    tag_116:\n        /* \"#utility.yul\":5485:5562   */\n      swap4\n      pop\n        /* \"#utility.yul\":5571:5636   */\n      tag_117\n        /* \"#utility.yul\":5629:5635   */\n      dup2\n        /* \"#utility.yul\":5624:5627   */\n      dup6\n        /* \"#utility.yul\":5617:5621   */\n      0x20\n        /* \"#utility.yul\":5610:5615   */\n      dup7\n        /* \"#utility.yul\":5606:5622   */\n      add\n        /* \"#utility.yul\":5571:5636   */\n      tag_49\n      jump\t// in\n    tag_117:\n        /* \"#utility.yul\":5661:5690   */\n      tag_118\n        /* \"#utility.yul\":5683:5689   */\n      dup2\n        /* \"#utility.yul\":5661:5690   */\n      tag_54\n      jump\t// in\n    tag_118:\n        /* \"#utility.yul\":5656:5659   */\n      dup5\n        /* \"#utility.yul\":5652:5691   */\n      add\n        /* \"#utility.yul\":5645:5691   */\n      swap2\n      pop\n        /* \"#utility.yul\":5414:5697   */\n      pop\n        /* \"#utility.yul\":5324:5697   */\n      swap3\n      swap2\n      pop\n      pop\n      jump\t// out\n        /* \"#utility.yul\":5703:6110   */\n    tag_22:\n        /* \"#utility.yul\":5836:5840   */\n      0x00\n        /* \"#utility.yul\":5874:5876   */\n      0x40\n        /* \"#utility.yul\":5863:5872   */\n      dup3\n        /* \"#utility.yul\":5859:5877   */\n      add\n        /* \"#utility.yul\":5851:5877   */\n      swap1\n      pop\n        /* \"#utility.yul\":5887:5952   */\n      tag_120\n        /* \"#utility.yul\":5949:5950   */\n      0x00\n        /* \"#utility.yul\":5938:5947   */\n      dup4\n        /* \"#utility.yul\":5934:5951   */\n      add\n        /* \"#utility.yul\":5925:5931   */\n      dup6\n        /* \"#utility.yul\":5887:5952   */\n      tag_52\n      jump\t// in\n    tag_120:\n        /* \"#utility.yul\":5999:6008   */\n      dup2\n        /* \"#utility.yul\":5993:5997   */\n      dup2\n        /* \"#utility.yul\":5989:6009   */\n      sub\n        /* \"#utility.yul\":5984:5986   */\n      0x20\n        /* \"#utility.yul\":5973:5982   */\n      dup4\n        /* \"#utility.yul\":5969:5987   */\n      add\n        /* \"#utility.yul\":5962:6010   */\n      mstore\n        /* \"#utility.yul\":6027:6103   */\n      tag_121\n        /* \"#utility.yul\":6098:6102   */\n      dup2\n        /* \"#utility.yul\":6089:6095   */\n      dup5\n        /* \"#utility.yul\":6027:6103   */\n      tag_55\n      jump\t// in\n    tag_121:\n        /* \"#utility.yul\":6019:6103   */\n      swap1\n      pop\n        /* \"#utility.yul\":5703:6110   */\n      swap4\n      swap3\n      pop\n      pop\n      pop\n      jump\t// out\n\n    auxdata: 0xa2646970667358221220a688377bec663d42d791e3ab029eab131fd8a942966fff23adee2d8fde6eb73e64736f6c634300081a0033\n}\n",
				"bytecode": {
					"linkReferences": {},
					"object": "6080604052348015600e575f80fd5b506105d38061001c5f395ff3fe608060405260043610610028575f3560e01c806387ba61791461002c578063ff00726c14610048575b5f80fd5b61004660048036038101906100419190610330565b610070565b005b348015610053575f80fd5b5061006e60048036038101906100699190610396565b6101a8565b005b5f808273ffffffffffffffffffffffffffffffffffffffff1634600160405160240161009c9190610469565b6040516020818303038152906040527f24ccab8f000000000000000000000000000000000000000000000000000000007bffffffffffffffffffffffffffffffffffffffffffffffffffffffff19166020820180517bffffffffffffffffffffffffffffffffffffffffffffffffffffffff838183161783525050505060405161012691906104e7565b5f6040518083038185875af1925050503d805f8114610160576040519150601f19603f3d011682016040523d82523d5f602084013e610165565b606091505b50915091507f13848c3e38f8886f3f5d2ad9dff80d8092c2bbb8efd5b887a99c2c6cfc09ac2a828260405161019b92919061056f565b60405180910390a1505050565b5f808273ffffffffffffffffffffffffffffffffffffffff166040516024016040516020818303038152906040527fc5d24601000000000000000000000000000000000000000000000000000000007bffffffffffffffffffffffffffffffffffffffffffffffffffffffff19166020820180517bffffffffffffffffffffffffffffffffffffffffffffffffffffffff838183161783525050505060405161025191906104e7565b5f604051808303815f865af19150503d805f811461028a576040519150601f19603f3d011682016040523d82523d5f602084013e61028f565b606091505b50915091507f13848c3e38f8886f3f5d2ad9dff80d8092c2bbb8efd5b887a99c2c6cfc09ac2a82826040516102c592919061056f565b60405180910390a1505050565b5f80fd5b5f73ffffffffffffffffffffffffffffffffffffffff82169050919050565b5f6102ff826102d6565b9050919050565b61030f816102f5565b8114610319575f80fd5b50565b5f8135905061032a81610306565b92915050565b5f60208284031215610345576103446102d2565b5b5f6103528482850161031c565b91505092915050565b5f610365826102d6565b9050919050565b6103758161035b565b811461037f575f80fd5b50565b5f813590506103908161036c565b92915050565b5f602082840312156103ab576103aa6102d2565b5b5f6103b884828501610382565b91505092915050565b5f82825260208201905092915050565b7f63616c6c20706172616d000000000000000000000000000000000000000000005f82015250565b5f610405600a836103c1565b9150610410826103d1565b602082019050919050565b5f819050919050565b5f60ff82169050919050565b5f819050919050565b5f61045361044e6104498461041b565b610430565b610424565b9050919050565b61046381610439565b82525050565b5f6040820190508181035f830152610480816103f9565b905061048f602083018461045a565b92915050565b5f81519050919050565b5f81905092915050565b8281835e5f83830152505050565b5f6104c182610495565b6104cb818561049f565b93506104db8185602086016104a9565b80840191505092915050565b5f6104f282846104b7565b915081905092915050565b5f8115159050919050565b610511816104fd565b82525050565b5f82825260208201905092915050565b5f601f19601f8301169050919050565b5f61054182610495565b61054b8185610517565b935061055b8185602086016104a9565b61056481610527565b840191505092915050565b5f6040820190506105825f830185610508565b81810360208301526105948184610537565b9050939250505056fea2646970667358221220a688377bec663d42d791e3ab029eab131fd8a942966fff23adee2d8fde6eb73e64736f6c634300081a0033",
					"opcodes": "PUSH1 0x80 PUSH1 0x40 MSTORE CALLVALUE DUP1 ISZERO PUSH1 0xE JUMPI PUSH0 DUP1 REVERT JUMPDEST POP PUSH2 0x5D3 DUP1 PUSH2 0x1C PUSH0 CODECOPY PUSH0 RETURN INVALID PUSH1 0x80 PUSH1 0x40 MSTORE PUSH1 0x4 CALLDATASIZE LT PUSH2 0x28 JUMPI PUSH0 CALLDATALOAD PUSH1 0xE0 SHR DUP1 PUSH4 0x87BA6179 EQ PUSH2 0x2C JUMPI DUP1 PUSH4 0xFF00726C EQ PUSH2 0x48 JUMPI JUMPDEST PUSH0 DUP1 REVERT JUMPDEST PUSH2 0x46 PUSH1 0x4 DUP1 CALLDATASIZE SUB DUP2 ADD SWAP1 PUSH2 0x41 SWAP2 SWAP1 PUSH2 0x330 JUMP JUMPDEST PUSH2 0x70 JUMP JUMPDEST STOP JUMPDEST CALLVALUE DUP1 ISZERO PUSH2 0x53 JUMPI PUSH0 DUP1 REVERT JUMPDEST POP PUSH2 0x6E PUSH1 0x4 DUP1 CALLDATASIZE SUB DUP2 ADD SWAP1 PUSH2 0x69 SWAP2 SWAP1 PUSH2 0x396 JUMP JUMPDEST PUSH2 0x1A8 JUMP JUMPDEST STOP JUMPDEST PUSH0 DUP1 DUP3 PUSH20 0xFFFFFFFFFFFFFFFFFFFFFFFFFFFFFFFFFFFFFFFF AND CALLVALUE PUSH1 0x1 PUSH1 0x40 MLOAD PUSH1 0x24 ADD PUSH2 0x9C SWAP2 SWAP1 PUSH2 0x469 JUMP JUMPDEST PUSH1 0x40 MLOAD PUSH1 0x20 DUP2 DUP4 SUB SUB DUP2 MSTORE SWAP1 PUSH1 0x40 MSTORE PUSH32 0x24CCAB8F00000000000000000000000000000000000000000000000000000000 PUSH28 0xFFFFFFFFFFFFFFFFFFFFFFFFFFFFFFFFFFFFFFFFFFFFFFFFFFFFFFFF NOT AND PUSH1 0x20 DUP3 ADD DUP1 MLOAD PUSH28 0xFFFFFFFFFFFFFFFFFFFFFFFFFFFFFFFFFFFFFFFFFFFFFFFFFFFFFFFF DUP4 DUP2 DUP4 AND OR DUP4 MSTORE POP POP POP POP PUSH1 0x40 MLOAD PUSH2 0x126 SWAP2 SWAP1 PUSH2 0x4E7 JUMP JUMPDEST PUSH0 PUSH1 0x40 MLOAD DUP1 DUP4 SUB DUP2 DUP6 DUP8 GAS CALL SWAP3 POP POP POP RETURNDATASIZE DUP1 PUSH0 DUP2 EQ PUSH2 0x160 JUMPI PUSH1 0x40 MLOAD SWAP2 POP PUSH1 0x1F NOT PUSH1 0x3F RETURNDATASIZE ADD AND DUP3 ADD PUSH1 0x40 MSTORE RETURNDATASIZE DUP3 MSTORE RETURNDATASIZE PUSH0 PUSH1 0x20 DUP5 ADD RETURNDATACOPY PUSH2 0x165 JUMP JUMPDEST PUSH1 0x60 SWAP2 POP JUMPDEST POP SWAP2 POP SWAP2 POP PUSH32 0x13848C3E38F8886F3F5D2AD9DFF80D8092C2BBB8EFD5B887A99C2C6CFC09AC2A DUP3 DUP3 PUSH1 0x40 MLOAD PUSH2 0x19B SWAP3 SWAP2 SWAP1 PUSH2 0x56F JUMP JUMPDEST PUSH1 0x40 MLOAD DUP1 SWAP2 SUB SWAP1 LOG1 POP POP POP JUMP JUMPDEST PUSH0 DUP1 DUP3 PUSH20 0xFFFFFFFFFFFFFFFFFFFFFFFFFFFFFFFFFFFFFFFF AND PUSH1 0x40 MLOAD PUSH1 0x24 ADD PUSH1 0x40 MLOAD PUSH1 0x20 DUP2 DUP4 SUB SUB DUP2 MSTORE SWAP1 PUSH1 0x40 MSTORE PUSH32 0xC5D2460100000000000000000000000000000000000000000000000000000000 PUSH28 0xFFFFFFFFFFFFFFFFFFFFFFFFFFFFFFFFFFFFFFFFFFFFFFFFFFFFFFFF NOT AND PUSH1 0x20 DUP3 ADD DUP1 MLOAD PUSH28 0xFFFFFFFFFFFFFFFFFFFFFFFFFFFFFFFFFFFFFFFFFFFFFFFFFFFFFFFF DUP4 DUP2 DUP4 AND OR DUP4 MSTORE POP POP POP POP PUSH1 0x40 MLOAD PUSH2 0x251 SWAP2 SWAP1 PUSH2 0x4E7 JUMP JUMPDEST PUSH0 PUSH1 0x40 MLOAD DUP1 DUP4 SUB DUP2 PUSH0 DUP7 GAS CALL SWAP2 POP POP RETURNDATASIZE DUP1 PUSH0 DUP2 EQ PUSH2 0x28A JUMPI PUSH1 0x40 MLOAD SWAP2 POP PUSH1 0x1F NOT PUSH1 0x3F RETURNDATASIZE ADD AND DUP3 ADD PUSH1 0x40 MSTORE RETURNDATASIZE DUP3 MSTORE RETURNDATASIZE PUSH0 PUSH1 0x20 DUP5 ADD RETURNDATACOPY PUSH2 0x28F JUMP JUMPDEST PUSH1 0x60 SWAP2 POP JUMPDEST POP SWAP2 POP SWAP2 POP PUSH32 0x13848C3E38F8886F3F5D2AD9DFF80D8092C2BBB8EFD5B887A99C2C6CFC09AC2A DUP3 DUP3 PUSH1 0x40 MLOAD PUSH2 0x2C5 SWAP3 SWAP2 SWAP1 PUSH2 0x56F JUMP JUMPDEST PUSH1 0x40 MLOAD DUP1 SWAP2 SUB SWAP1 LOG1 POP POP POP JUMP JUMPDEST PUSH0 DUP1 REVERT JUMPDEST PUSH0 PUSH20 0xFFFFFFFFFFFFFFFFFFFFFFFFFFFFFFFFFFFFFFFF DUP3 AND SWAP1 POP SWAP2 SWAP1 POP JUMP JUMPDEST PUSH0 PUSH2 0x2FF DUP3 PUSH2 0x2D6 JUMP JUMPDEST SWAP1 POP SWAP2 SWAP1 POP JUMP JUMPDEST PUSH2 0x30F DUP2 PUSH2 0x2F5 JUMP JUMPDEST DUP2 EQ PUSH2 0x319 JUMPI PUSH0 DUP1 REVERT JUMPDEST POP JUMP JUMPDEST PUSH0 DUP2 CALLDATALOAD SWAP1 POP PUSH2 0x32A DUP2 PUSH2 0x306 JUMP JUMPDEST SWAP3 SWAP2 POP POP JUMP JUMPDEST PUSH0 PUSH1 0x20 DUP3 DUP5 SUB SLT ISZERO PUSH2 0x345 JUMPI PUSH2 0x344 PUSH2 0x2D2 JUMP JUMPDEST JUMPDEST PUSH0 PUSH2 0x352 DUP5 DUP3 DUP6 ADD PUSH2 0x31C JUMP JUMPDEST SWAP2 POP POP SWAP3 SWAP2 POP POP JUMP JUMPDEST PUSH0 PUSH2 0x365 DUP3 PUSH2 0x2D6 JUMP JUMPDEST SWAP1 POP SWAP2 SWAP1 POP JUMP JUMPDEST PUSH2 0x375 DUP2 PUSH2 0x35B JUMP JUMPDEST DUP2 EQ PUSH2 0x37F JUMPI PUSH0 DUP1 REVERT JUMPDEST POP JUMP JUMPDEST PUSH0 DUP2 CALLDATALOAD SWAP1 POP PUSH2 0x390 DUP2 PUSH2 0x36C JUMP JUMPDEST SWAP3 SWAP2 POP POP JUMP JUMPDEST PUSH0 PUSH1 0x20 DUP3 DUP5 SUB SLT ISZERO PUSH2 0x3AB JUMPI PUSH2 0x3AA PUSH2 0x2D2 JUMP JUMPDEST JUMPDEST PUSH0 PUSH2 0x3B8 DUP5 DUP3 DUP6 ADD PUSH2 0x382 JUMP JUMPDEST SWAP2 POP POP SWAP3 SWAP2 POP POP JUMP JUMPDEST PUSH0 DUP3 DUP3 MSTORE PUSH1 0x20 DUP3 ADD SWAP1 POP SWAP3 SWAP2 POP POP JUMP JUMPDEST PUSH32 0x63616C6C20706172616D00000000000000000000000000000000000000000000 PUSH0 DUP3 ADD MSTORE POP JUMP JUMPDEST PUSH0 PUSH2 0x405 PUSH1 0xA DUP4 PUSH2 0x3C1 JUMP JUMPDEST SWAP2 POP PUSH2 0x410 DUP3 PUSH2 0x3D1 JUMP JUMPDEST PUSH1 0x20 DUP3 ADD SWAP1 POP SWAP2 SWAP1 POP JUMP JUMPDEST PUSH0 DUP2 SWAP1 POP SWAP2 SWAP1 POP JUMP JUMPDEST PUSH0 PUSH1 0xFF DUP3 AND SWAP1 POP SWAP2 SWAP1 POP JUMP JUMPDEST PUSH0 DUP2 SWAP1 POP SWAP2 SWAP1 POP JUMP JUMPDEST PUSH0 PUSH2 0x453 PUSH2 0x44E PUSH2 0x449 DUP5 PUSH2 0x41B JUMP JUMPDEST PUSH2 0x430 JUMP JUMPDEST PUSH2 0x424 JUMP JUMPDEST SWAP1 POP SWAP2 SWAP1 POP JUMP JUMPDEST PUSH2 0x463 DUP2 PUSH2 0x439 JUMP JUMPDEST DUP3 MSTORE POP POP JUMP JUMPDEST PUSH0 PUSH1 0x40 DUP3 ADD SWAP1 POP DUP2 DUP2 SUB PUSH0 DUP4 ADD MSTORE PUSH2 0x480 DUP2 PUSH2 0x3F9 JUMP JUMPDEST SWAP1 POP PUSH2 0x48F PUSH1 0x20 DUP4 ADD DUP5 PUSH2 0x45A JUMP JUMPDEST SWAP3 SWAP2 POP POP JUMP JUMPDEST PUSH0 DUP2 MLOAD SWAP1 POP SWAP2 SWAP1 POP JUMP JUMPDEST PUSH0 DUP2 SWAP1 POP SWAP3 SWAP2 POP POP JUMP JUMPDEST DUP3 DUP2 DUP4 MCOPY PUSH0 DUP4 DUP4 ADD MSTORE POP POP POP JUMP JUMPDEST PUSH0 PUSH2 0x4C1 DUP3 PUSH2 0x495 JUMP JUMPDEST PUSH2 0x4CB DUP2 DUP6 PUSH2 0x49F JUMP JUMPDEST SWAP4 POP PUSH2 0x4DB DUP2 DUP6 PUSH1 0x20 DUP7 ADD PUSH2 0x4A9 JUMP JUMPDEST DUP1 DUP5 ADD SWAP2 POP POP SWAP3 SWAP2 POP POP JUMP JUMPDEST PUSH0 PUSH2 0x4F2 DUP3 DUP5 PUSH2 0x4B7 JUMP JUMPDEST SWAP2 POP DUP2 SWAP1 POP SWAP3 SWAP2 POP POP JUMP JUMPDEST PUSH0 DUP2 ISZERO ISZERO SWAP1 POP SWAP2 SWAP1 POP JUMP JUMPDEST PUSH2 0x511 DUP2 PUSH2 0x4FD JUMP JUMPDEST DUP3 MSTORE POP POP JUMP JUMPDEST PUSH0 DUP3 DUP3 MSTORE PUSH1 0x20 DUP3 ADD SWAP1 POP SWAP3 SWAP2 POP POP JUMP JUMPDEST PUSH0 PUSH1 0x1F NOT PUSH1 0x1F DUP4 ADD AND SWAP1 POP SWAP2 SWAP1 POP JUMP JUMPDEST PUSH0 PUSH2 0x541 DUP3 PUSH2 0x495 JUMP JUMPDEST PUSH2 0x54B DUP2 DUP6 PUSH2 0x517 JUMP JUMPDEST SWAP4 POP PUSH2 0x55B DUP2 DUP6 PUSH1 0x20 DUP7 ADD PUSH2 0x4A9 JUMP JUMPDEST PUSH2 0x564 DUP2 PUSH2 0x527 JUMP JUMPDEST DUP5 ADD SWAP2 POP POP SWAP3 SWAP2 POP POP JUMP JUMPDEST PUSH0 PUSH1 0x40 DUP3 ADD SWAP1 POP PUSH2 0x582 PUSH0 DUP4 ADD DUP6 PUSH2 0x508 JUMP JUMPDEST DUP2 DUP2 SUB PUSH1 0x20 DUP4 ADD MSTORE PUSH2 0x594 DUP2 DUP5 PUSH2 0x537 JUMP JUMPDEST SWAP1 POP SWAP4 SWAP3 POP POP POP JUMP INVALID LOG2 PUSH5 0x6970667358 0x22 SLT KECCAK256 0xA6 DUP9 CALLDATACOPY PUSH28 0xEC663D42D791E3AB029EAB131FD8A942966FFF23ADEE2D8FDE6EB73E PUSH5 0x736F6C6343 STOP ADDMOD BYTE STOP CALLER "
				},
				"gasEstimates": {
					"creation": {
						"codeDepositCost": "298200",
						"executionCost": "335",
						"totalCost": "298535"
					},
					"external": {
						"testCallDoesNotExist(address)": "infinite",
						"testCallFoo(address)": "infinite"
					}
				},
				"methodIdentifiers": {
					"testCallDoesNotExist(address)": "ff00726c",
					"testCallFoo(address)": "87ba6179"
				}
			},
			"storageLayout": {
				"storage": [],
				"types": null
			},
			"userdoc": {
				"kind": "user",
				"methods": {},
				"version": 1
			}
		}
	}
}