{
	"contracts/WETH.sol": {
		"WETH": {
			"abi": [
				{
					"inputs": [
						{
							"internalType": "uint256",
							"name": "_totalSupply",
							"type": "uint256"
						},
						{
							"internalType": "string",
							"name": "_symbol",
							"type": "string"
						},
						{
							"internalType": "uint8",
							"name": "_decimals",
							"type": "uint8"
						}
					],
					"stateMutability": "nonpayable",
					"type": "constructor"
				},
				{
					"anonymous": false,
					"inputs": [
						{
							"indexed": true,
							"internalType": "address",
							"name": "owner",
							"type": "address"
						},
						{
							"indexed": true,
							"internalType": "address",
							"name": "spender",
							"type": "address"
						},
						{
							"indexed": false,
							"internalType": "uint256",
							"name": "amount",
							"type": "uint256"
						}
					],
					"name": "Approve",
					"type": "event"
				},
				{
					"anonymous": false,
					"inputs": [
						{
							"indexed": false,
							"internalType": "address",
							"name": "sender",
							"type": "address"
						},
						{
							"indexed": false,
							"internalType": "uint256",
							"name": "amount",
							"type": "uint256"
						}
					],
					"name": "Deposite",
					"type": "event"
				},
				{
					"anonymous": false,
					"inputs": [
						{
							"indexed": true,
							"internalType": "address",
							"name": "sender",
							"type": "address"
						},
						{
							"indexed": true,
							"internalType": "address",
							"name": "receiver",
							"type": "address"
						},
						{
							"indexed": false,
							"internalType": "uint256",
							"name": "amount",
							"type": "uint256"
						}
					],
					"name": "Transfer",
					"type": "event"
				},
				{
					"anonymous": false,
					"inputs": [
						{
							"indexed": false,
							"internalType": "address",
							"name": "withdrawer",
							"type": "address"
						},
						{
							"indexed": false,
							"internalType": "uint256",
							"name": "amount",
							"type": "uint256"
						}
					],
					"name": "Withdrawal",
					"type": "event"
				},
				{
					"stateMutability": "payable",
					"type": "fallback"
				},
				{
					"inputs": [
						{
							"internalType": "address",
							"name": "from",
							"type": "address"
						},
						{
							"internalType": "uint256",
							"name": "amount",
							"type": "uint256"
						}
					],
					"name": "_burn",
					"outputs": [],
					"stateMutability": "nonpayable",
					"type": "function"
				},
				{
					"inputs": [
						{
							"internalType": "address",
							"name": "to",
							"type": "address"
						},
						{
							"internalType": "uint256",
							"name": "amount",
							"type": "uint256"
						}
					],
					"name": "_mint",
					"outputs": [],
					"stateMutability": "nonpayable",
					"type": "function"
				},
				{
					"inputs": [
						{
							"internalType": "address",
							"name": "",
							"type": "address"
						},
						{
							"internalType": "address",
							"name": "",
							"type": "address"
						}
					],
					"name": "allowance",
					"outputs": [
						{
							"internalType": "uint256",
							"name": "",
							"type": "uint256"
						}
					],
					"stateMutability": "view",
					"type": "function"
				},
				{
					"inputs": [
						{
							"internalType": "address",
							"name": "recipient",
							"type": "address"
						},
						{
							"internalType": "uint256",
							"name": "amount",
							"type": "uint256"
						}
					],
					"name": "approve",
					"outputs": [
						{
							"internalType": "bool",
							"name": "",
							"type": "bool"
						}
					],
					"stateMutability": "nonpayable",
					"type": "function"
				},
				{
					"inputs": [
						{
							"internalType": "address",
							"name": "",
							"type": "address"
						}
					],
					"name": "balanceOf",
					"outputs": [
						{
							"internalType": "uint256",
							"name": "",
							"type": "uint256"
						}
					],
					"stateMutability": "view",
					"type": "function"
				},
				{
					"inputs": [
						{
							"internalType": "uint256",
							"name": "amount",
							"type": "uint256"
						}
					],
					"name": "burn",
					"outputs": [],
					"stateMutability": "nonpayable",
					"type": "function"
				},
				{
					"inputs": [],
					"name": "decimals",
					"outputs": [
						{
							"internalType": "uint8",
							"name": "",
							"type": "uint8"
						}
					],
					"stateMutability": "view",
					"type": "function"
				},
				{
					"inputs": [],
					"name": "deposite",
					"outputs": [],
					"stateMutability": "payable",
					"type": "function"
				},
				{
					"inputs": [
						{
							"internalType": "uint256",
							"name": "amount",
							"type": "uint256"
						}
					],
					"name": "mint",
					"outputs": [],
					"stateMutability": "nonpayable",
					"type": "function"
				},
				{
					"inputs": [],
					"name": "symbol",
					"outputs": [
						{
							"internalType": "string",
							"name": "",
							"type": "string"
						}
					],
					"stateMutability": "view",
					"type": "function"
				},
				{
					"inputs": [],
					"name": "totalSupply",
					"outputs": [
						{
							"internalType": "uint256",
							"name": "",
							"type": "uint256"
						}
					],
					"stateMutability": "view",
					"type": "function"
				},
				{
					"inputs": [
						{
							"internalType": "address",
							"name": "receiver",
							"type": "address"
						},
						{
							"internalType": "uint256",
							"name": "amount",
							"type": "uint256"
						}
					],
					"name": "transfer",
					"outputs": [
						{
							"internalType": "bool",
							"name": "",
							"type": "bool"
						}
					],
					"stateMutability": "nonpayable",
					"type": "function"
				},
				{
					"inputs": [
						{
							"internalType": "address",
							"name": "sender",
							"type": "address"
						},
						{
							"internalType": "address",
							"name": "recipient",
							"type": "address"
						},
						{
							"internalType": "uint256",
							"name": "amount",
							"type": "uint256"
						}
					],
					"name": "transferFrom",
					"outputs": [
						{
							"internalType": "bool",
							"name": "",
							"type": "bool"
						}
					],
					"stateMutability": "nonpayable",
					"type": "function"
				},
				{
					"inputs": [
						{
							"internalType": "uint256",
							"name": "amount",
							"type": "uint256"
						}
					],
					"name": "withdrawal",
					"outputs": [],
					"stateMutability": "nonpayable",
					"type": "function"
				},
				{
					"stateMutability": "payable",
					"type": "receive"
				}
			],
			"devdoc": {
				"kind": "dev",
				"methods": {},
				"version": 1
			},
			"evm": {
				"assembly": "    /* \"contracts/WETH.sol\":179:1108  contract WETH is ERC20 {... */\n  mstore(0x40, 0x80)\n    /* \"contracts/WETH.sol\":215:335  constructor(uint256 _totalSupply,string memory _symbol,uint8 _decimals) ERC20(_totalSupply,_symbol,_decimals) {... */\n  callvalue\n  dup1\n  iszero\n  tag_1\n  jumpi\n  0x00\n  dup1\n  revert\ntag_1:\n  pop\n  mload(0x40)\n  sub(codesize, bytecodeSize)\n  dup1\n  bytecodeSize\n  dup4\n  codecopy\n  dup2\n  dup2\n  add\n  0x40\n  mstore\n  dup2\n  add\n  swap1\n  tag_2\n  swap2\n  swap1\n  tag_3\n  jump\t// in\ntag_2:\n    /* \"contracts/WETH.sol\":293:305  _totalSupply */\n  dup3\n    /* \"contracts/WETH.sol\":306:313  _symbol */\n  dup3\n    /* \"contracts/WETH.sol\":314:323  _decimals */\n  dup3\n    /* \"contracts/ERC20.sol\":1040:1052  _totalSupply */\n  dup3\n    /* \"contracts/ERC20.sol\":1026:1037  totalSupply */\n  0x02\n    /* \"contracts/ERC20.sol\":1026:1052  totalSupply = _totalSupply */\n  dup2\n  swap1\n  sstore\n  pop\n    /* \"contracts/ERC20.sol\":1072:1079  _symbol */\n  dup2\n    /* \"contracts/ERC20.sol\":1063:1069  symbol */\n  0x03\n    /* \"contracts/ERC20.sol\":1063:1079  symbol = _symbol */\n  swap1\n  dup2\n  tag_7\n  swap2\n  swap1\n  tag_8\n  jump\t// in\ntag_7:\n  pop\n    /* \"contracts/ERC20.sol\":1101:1110  _decimals */\n  dup1\n    /* \"contracts/ERC20.sol\":1090:1098  decimals */\n  0x04\n  0x00\n    /* \"contracts/ERC20.sol\":1090:1110  decimals = _decimals */\n  0x0100\n  exp\n  dup2\n  sload\n  dup2\n  0xff\n  mul\n  not\n  and\n  swap1\n  dup4\n  0xff\n  and\n  mul\n  or\n  swap1\n  sstore\n  pop\n    /* \"contracts/ERC20.sol\":943:1118  constructor(uint256 _totalSupply,string memory _symbol,uint8 _decimals) {... */\n  pop\n  pop\n  pop\n    /* \"contracts/WETH.sol\":215:335  constructor(uint256 _totalSupply,string memory _symbol,uint8 _decimals) ERC20(_totalSupply,_symbol,_decimals) {... */\n  pop\n  pop\n  pop\n    /* \"contracts/WETH.sol\":179:1108  contract WETH is ERC20 {... */\n  jump(tag_10)\n    /* \"#utility.yul\":7:82   */\ntag_11:\n    /* \"#utility.yul\":40:46   */\n  0x00\n    /* \"#utility.yul\":73:75   */\n  0x40\n    /* \"#utility.yul\":67:76   */\n  mload\n    /* \"#utility.yul\":57:76   */\n  swap1\n  pop\n    /* \"#utility.yul\":7:82   */\n  swap1\n  jump\t// out\n    /* \"#utility.yul\":88:205   */\ntag_12:\n    /* \"#utility.yul\":197:198   */\n  0x00\n    /* \"#utility.yul\":194:195   */\n  dup1\n    /* \"#utility.yul\":187:199   */\n  revert\n    /* \"#utility.yul\":211:328   */\ntag_13:\n    /* \"#utility.yul\":320:321   */\n  0x00\n    /* \"#utility.yul\":317:318   */\n  dup1\n    /* \"#utility.yul\":310:322   */\n  revert\n    /* \"#utility.yul\":334:411   */\ntag_14:\n    /* \"#utility.yul\":371:378   */\n  0x00\n    /* \"#utility.yul\":400:405   */\n  dup2\n    /* \"#utility.yul\":389:405   */\n  swap1\n  pop\n    /* \"#utility.yul\":334:411   */\n  swap2\n  swap1\n  pop\n  jump\t// out\n    /* \"#utility.yul\":417:539   */\ntag_15:\n    /* \"#utility.yul\":490:514   */\n  tag_54\n    /* \"#utility.yul\":508:513   */\n  dup2\n    /* \"#utility.yul\":490:514   */\n  tag_14\n  jump\t// in\ntag_54:\n    /* \"#utility.yul\":483:488   */\n  dup2\n    /* \"#utility.yul\":480:515   */\n  eq\n    /* \"#utility.yul\":470:533   */\n  tag_55\n  jumpi\n    /* \"#utility.yul\":529:530   */\n  0x00\n    /* \"#utility.yul\":526:527   */\n  dup1\n    /* \"#utility.yul\":519:531   */\n  revert\n    /* \"#utility.yul\":470:533   */\ntag_55:\n    /* \"#utility.yul\":417:539   */\n  pop\n  jump\t// out\n    /* \"#utility.yul\":545:688   */\ntag_16:\n    /* \"#utility.yul\":602:607   */\n  0x00\n    /* \"#utility.yul\":633:639   */\n  dup2\n    /* \"#utility.yul\":627:640   */\n  mload\n    /* \"#utility.yul\":618:640   */\n  swap1\n  pop\n    /* \"#utility.yul\":649:682   */\n  tag_57\n    /* \"#utility.yul\":676:681   */\n  dup2\n    /* \"#utility.yul\":649:682   */\n  tag_15\n  jump\t// in\ntag_57:\n    /* \"#utility.yul\":545:688   */\n  swap3\n  swap2\n  pop\n  pop\n  jump\t// out\n    /* \"#utility.yul\":694:811   */\ntag_17:\n    /* \"#utility.yul\":803:804   */\n  0x00\n    /* \"#utility.yul\":800:801   */\n  dup1\n    /* \"#utility.yul\":793:805   */\n  revert\n    /* \"#utility.yul\":817:934   */\ntag_18:\n    /* \"#utility.yul\":926:927   */\n  0x00\n    /* \"#utility.yul\":923:924   */\n  dup1\n    /* \"#utility.yul\":916:928   */\n  revert\n    /* \"#utility.yul\":940:1042   */\ntag_19:\n    /* \"#utility.yul\":981:987   */\n  0x00\n    /* \"#utility.yul\":1032:1034   */\n  0x1f\n    /* \"#utility.yul\":1028:1035   */\n  not\n    /* \"#utility.yul\":1023:1025   */\n  0x1f\n    /* \"#utility.yul\":1016:1021   */\n  dup4\n    /* \"#utility.yul\":1012:1026   */\n  add\n    /* \"#utility.yul\":1008:1036   */\n  and\n    /* \"#utility.yul\":998:1036   */\n  swap1\n  pop\n    /* \"#utility.yul\":940:1042   */\n  swap2\n  swap1\n  pop\n  jump\t// out\n    /* \"#utility.yul\":1048:1228   */\ntag_20:\n    /* \"#utility.yul\":1096:1173   */\n  0x4e487b7100000000000000000000000000000000000000000000000000000000\n    /* \"#utility.yul\":1093:1094   */\n  0x00\n    /* \"#utility.yul\":1086:1174   */\n  mstore\n    /* \"#utility.yul\":1193:1197   */\n  0x41\n    /* \"#utility.yul\":1190:1191   */\n  0x04\n    /* \"#utility.yul\":1183:1198   */\n  mstore\n    /* \"#utility.yul\":1217:1221   */\n  0x24\n    /* \"#utility.yul\":1214:1215   */\n  0x00\n    /* \"#utility.yul\":1207:1222   */\n  revert\n    /* \"#utility.yul\":1234:1515   */\ntag_21:\n    /* \"#utility.yul\":1317:1344   */\n  tag_63\n    /* \"#utility.yul\":1339:1343   */\n  dup3\n    /* \"#utility.yul\":1317:1344   */\n  tag_19\n  jump\t// in\ntag_63:\n    /* \"#utility.yul\":1309:1315   */\n  dup2\n    /* \"#utility.yul\":1305:1345   */\n  add\n    /* \"#utility.yul\":1447:1453   */\n  dup2\n    /* \"#utility.yul\":1435:1445   */\n  dup2\n    /* \"#utility.yul\":1432:1454   */\n  lt\n    /* \"#utility.yul\":1411:1429   */\n  0xffffffffffffffff\n    /* \"#utility.yul\":1399:1409   */\n  dup3\n    /* \"#utility.yul\":1396:1430   */\n  gt\n    /* \"#utility.yul\":1393:1455   */\n  or\n    /* \"#utility.yul\":1390:1478   */\n  iszero\n  tag_64\n  jumpi\n    /* \"#utility.yul\":1458:1476   */\n  tag_65\n  tag_20\n  jump\t// in\ntag_65:\n    /* \"#utility.yul\":1390:1478   */\ntag_64:\n    /* \"#utility.yul\":1498:1508   */\n  dup1\n    /* \"#utility.yul\":1494:1496   */\n  0x40\n    /* \"#utility.yul\":1487:1509   */\n  mstore\n    /* \"#utility.yul\":1277:1515   */\n  pop\n    /* \"#utility.yul\":1234:1515   */\n  pop\n  pop\n  jump\t// out\n    /* \"#utility.yul\":1521:1650   */\ntag_22:\n    /* \"#utility.yul\":1555:1561   */\n  0x00\n    /* \"#utility.yul\":1582:1602   */\n  tag_67\n  tag_11\n  jump\t// in\ntag_67:\n    /* \"#utility.yul\":1572:1602   */\n  swap1\n  pop\n    /* \"#utility.yul\":1611:1644   */\n  tag_68\n    /* \"#utility.yul\":1639:1643   */\n  dup3\n    /* \"#utility.yul\":1631:1637   */\n  dup3\n    /* \"#utility.yul\":1611:1644   */\n  tag_21\n  jump\t// in\ntag_68:\n    /* \"#utility.yul\":1521:1650   */\n  swap2\n  swap1\n  pop\n  jump\t// out\n    /* \"#utility.yul\":1656:1964   */\ntag_23:\n    /* \"#utility.yul\":1718:1722   */\n  0x00\n    /* \"#utility.yul\":1808:1826   */\n  0xffffffffffffffff\n    /* \"#utility.yul\":1800:1806   */\n  dup3\n    /* \"#utility.yul\":1797:1827   */\n  gt\n    /* \"#utility.yul\":1794:1850   */\n  iszero\n  tag_70\n  jumpi\n    /* \"#utility.yul\":1830:1848   */\n  tag_71\n  tag_20\n  jump\t// in\ntag_71:\n    /* \"#utility.yul\":1794:1850   */\ntag_70:\n    /* \"#utility.yul\":1868:1897   */\n  tag_72\n    /* \"#utility.yul\":1890:1896   */\n  dup3\n    /* \"#utility.yul\":1868:1897   */\n  tag_19\n  jump\t// in\ntag_72:\n    /* \"#utility.yul\":1860:1897   */\n  swap1\n  pop\n    /* \"#utility.yul\":1952:1956   */\n  0x20\n    /* \"#utility.yul\":1946:1950   */\n  dup2\n    /* \"#utility.yul\":1942:1957   */\n  add\n    /* \"#utility.yul\":1934:1957   */\n  swap1\n  pop\n    /* \"#utility.yul\":1656:1964   */\n  swap2\n  swap1\n  pop\n  jump\t// out\n    /* \"#utility.yul\":1970:2109   */\ntag_24:\n    /* \"#utility.yul\":2059:2065   */\n  dup3\n    /* \"#utility.yul\":2054:2057   */\n  dup2\n    /* \"#utility.yul\":2049:2052   */\n  dup4\n    /* \"#utility.yul\":2043:2066   */\n  mcopy\n    /* \"#utility.yul\":2100:2101   */\n  0x00\n    /* \"#utility.yul\":2091:2097   */\n  dup4\n    /* \"#utility.yul\":2086:2089   */\n  dup4\n    /* \"#utility.yul\":2082:2098   */\n  add\n    /* \"#utility.yul\":2075:2102   */\n  mstore\n    /* \"#utility.yul\":1970:2109   */\n  pop\n  pop\n  pop\n  jump\t// out\n    /* \"#utility.yul\":2115:2549   */\ntag_25:\n    /* \"#utility.yul\":2204:2209   */\n  0x00\n    /* \"#utility.yul\":2229:2295   */\n  tag_75\n    /* \"#utility.yul\":2245:2294   */\n  tag_76\n    /* \"#utility.yul\":2287:2293   */\n  dup5\n    /* \"#utility.yul\":2245:2294   */\n  tag_23\n  jump\t// in\ntag_76:\n    /* \"#utility.yul\":2229:2295   */\n  tag_22\n  jump\t// in\ntag_75:\n    /* \"#utility.yul\":2220:2295   */\n  swap1\n  pop\n    /* \"#utility.yul\":2318:2324   */\n  dup3\n    /* \"#utility.yul\":2311:2316   */\n  dup2\n    /* \"#utility.yul\":2304:2325   */\n  mstore\n    /* \"#utility.yul\":2356:2360   */\n  0x20\n    /* \"#utility.yul\":2349:2354   */\n  dup2\n    /* \"#utility.yul\":2345:2361   */\n  add\n    /* \"#utility.yul\":2394:2397   */\n  dup5\n    /* \"#utility.yul\":2385:2391   */\n  dup5\n    /* \"#utility.yul\":2380:2383   */\n  dup5\n    /* \"#utility.yul\":2376:2392   */\n  add\n    /* \"#utility.yul\":2373:2398   */\n  gt\n    /* \"#utility.yul\":2370:2482   */\n  iszero\n  tag_77\n  jumpi\n    /* \"#utility.yul\":2401:2480   */\n  tag_78\n  tag_18\n  jump\t// in\ntag_78:\n    /* \"#utility.yul\":2370:2482   */\ntag_77:\n    /* \"#utility.yul\":2491:2543   */\n  tag_79\n    /* \"#utility.yul\":2536:2542   */\n  dup5\n    /* \"#utility.yul\":2531:2534   */\n  dup3\n    /* \"#utility.yul\":2526:2529   */\n  dup6\n    /* \"#utility.yul\":2491:2543   */\n  tag_24\n  jump\t// in\ntag_79:\n    /* \"#utility.yul\":2210:2549   */\n  pop\n    /* \"#utility.yul\":2115:2549   */\n  swap4\n  swap3\n  pop\n  pop\n  pop\n  jump\t// out\n    /* \"#utility.yul\":2569:2924   */\ntag_26:\n    /* \"#utility.yul\":2636:2641   */\n  0x00\n    /* \"#utility.yul\":2685:2688   */\n  dup3\n    /* \"#utility.yul\":2678:2682   */\n  0x1f\n    /* \"#utility.yul\":2670:2676   */\n  dup4\n    /* \"#utility.yul\":2666:2683   */\n  add\n    /* \"#utility.yul\":2662:2689   */\n  slt\n    /* \"#utility.yul\":2652:2774   */\n  tag_81\n  jumpi\n    /* \"#utility.yul\":2693:2772   */\n  tag_82\n  tag_17\n  jump\t// in\ntag_82:\n    /* \"#utility.yul\":2652:2774   */\ntag_81:\n    /* \"#utility.yul\":2803:2809   */\n  dup2\n    /* \"#utility.yul\":2797:2810   */\n  mload\n    /* \"#utility.yul\":2828:2918   */\n  tag_83\n    /* \"#utility.yul\":2914:2917   */\n  dup5\n    /* \"#utility.yul\":2906:2912   */\n  dup3\n    /* \"#utility.yul\":2899:2903   */\n  0x20\n    /* \"#utility.yul\":2891:2897   */\n  dup7\n    /* \"#utility.yul\":2887:2904   */\n  add\n    /* \"#utility.yul\":2828:2918   */\n  tag_25\n  jump\t// in\ntag_83:\n    /* \"#utility.yul\":2819:2918   */\n  swap2\n  pop\n    /* \"#utility.yul\":2642:2924   */\n  pop\n    /* \"#utility.yul\":2569:2924   */\n  swap3\n  swap2\n  pop\n  pop\n  jump\t// out\n    /* \"#utility.yul\":2930:3016   */\ntag_27:\n    /* \"#utility.yul\":2965:2972   */\n  0x00\n    /* \"#utility.yul\":3005:3009   */\n  0xff\n    /* \"#utility.yul\":2998:3003   */\n  dup3\n    /* \"#utility.yul\":2994:3010   */\n  and\n    /* \"#utility.yul\":2983:3010   */\n  swap1\n  pop\n    /* \"#utility.yul\":2930:3016   */\n  swap2\n  swap1\n  pop\n  jump\t// out\n    /* \"#utility.yul\":3022:3140   */\ntag_28:\n    /* \"#utility.yul\":3093:3115   */\n  tag_86\n    /* \"#utility.yul\":3109:3114   */\n  dup2\n    /* \"#utility.yul\":3093:3115   */\n  tag_27\n  jump\t// in\ntag_86:\n    /* \"#utility.yul\":3086:3091   */\n  dup2\n    /* \"#utility.yul\":3083:3116   */\n  eq\n    /* \"#utility.yul\":3073:3134   */\n  tag_87\n  jumpi\n    /* \"#utility.yul\":3130:3131   */\n  0x00\n    /* \"#utility.yul\":3127:3128   */\n  dup1\n    /* \"#utility.yul\":3120:3132   */\n  revert\n    /* \"#utility.yul\":3073:3134   */\ntag_87:\n    /* \"#utility.yul\":3022:3140   */\n  pop\n  jump\t// out\n    /* \"#utility.yul\":3146:3285   */\ntag_29:\n    /* \"#utility.yul\":3201:3206   */\n  0x00\n    /* \"#utility.yul\":3232:3238   */\n  dup2\n    /* \"#utility.yul\":3226:3239   */\n  mload\n    /* \"#utility.yul\":3217:3239   */\n  swap1\n  pop\n    /* \"#utility.yul\":3248:3279   */\n  tag_89\n    /* \"#utility.yul\":3273:3278   */\n  dup2\n    /* \"#utility.yul\":3248:3279   */\n  tag_28\n  jump\t// in\ntag_89:\n    /* \"#utility.yul\":3146:3285   */\n  swap3\n  swap2\n  pop\n  pop\n  jump\t// out\n    /* \"#utility.yul\":3291:4123   */\ntag_3:\n    /* \"#utility.yul\":3387:3393   */\n  0x00\n    /* \"#utility.yul\":3395:3401   */\n  dup1\n    /* \"#utility.yul\":3403:3409   */\n  0x00\n    /* \"#utility.yul\":3452:3454   */\n  0x60\n    /* \"#utility.yul\":3440:3449   */\n  dup5\n    /* \"#utility.yul\":3431:3438   */\n  dup7\n    /* \"#utility.yul\":3427:3450   */\n  sub\n    /* \"#utility.yul\":3423:3455   */\n  slt\n    /* \"#utility.yul\":3420:3539   */\n  iszero\n  tag_91\n  jumpi\n    /* \"#utility.yul\":3458:3537   */\n  tag_92\n  tag_12\n  jump\t// in\ntag_92:\n    /* \"#utility.yul\":3420:3539   */\ntag_91:\n    /* \"#utility.yul\":3578:3579   */\n  0x00\n    /* \"#utility.yul\":3603:3667   */\n  tag_93\n    /* \"#utility.yul\":3659:3666   */\n  dup7\n    /* \"#utility.yul\":3650:3656   */\n  dup3\n    /* \"#utility.yul\":3639:3648   */\n  dup8\n    /* \"#utility.yul\":3635:3657   */\n  add\n    /* \"#utility.yul\":3603:3667   */\n  tag_16\n  jump\t// in\ntag_93:\n    /* \"#utility.yul\":3593:3667   */\n  swap4\n  pop\n    /* \"#utility.yul\":3549:3677   */\n  pop\n    /* \"#utility.yul\":3737:3739   */\n  0x20\n    /* \"#utility.yul\":3726:3735   */\n  dup5\n    /* \"#utility.yul\":3722:3740   */\n  add\n    /* \"#utility.yul\":3716:3741   */\n  mload\n    /* \"#utility.yul\":3768:3786   */\n  0xffffffffffffffff\n    /* \"#utility.yul\":3760:3766   */\n  dup2\n    /* \"#utility.yul\":3757:3787   */\n  gt\n    /* \"#utility.yul\":3754:3871   */\n  iszero\n  tag_94\n  jumpi\n    /* \"#utility.yul\":3790:3869   */\n  tag_95\n  tag_13\n  jump\t// in\ntag_95:\n    /* \"#utility.yul\":3754:3871   */\ntag_94:\n    /* \"#utility.yul\":3895:3969   */\n  tag_96\n    /* \"#utility.yul\":3961:3968   */\n  dup7\n    /* \"#utility.yul\":3952:3958   */\n  dup3\n    /* \"#utility.yul\":3941:3950   */\n  dup8\n    /* \"#utility.yul\":3937:3959   */\n  add\n    /* \"#utility.yul\":3895:3969   */\n  tag_26\n  jump\t// in\ntag_96:\n    /* \"#utility.yul\":3885:3969   */\n  swap3\n  pop\n    /* \"#utility.yul\":3687:3979   */\n  pop\n    /* \"#utility.yul\":4018:4020   */\n  0x40\n    /* \"#utility.yul\":4044:4106   */\n  tag_97\n    /* \"#utility.yul\":4098:4105   */\n  dup7\n    /* \"#utility.yul\":4089:4095   */\n  dup3\n    /* \"#utility.yul\":4078:4087   */\n  dup8\n    /* \"#utility.yul\":4074:4096   */\n  add\n    /* \"#utility.yul\":4044:4106   */\n  tag_29\n  jump\t// in\ntag_97:\n    /* \"#utility.yul\":4034:4106   */\n  swap2\n  pop\n    /* \"#utility.yul\":3989:4116   */\n  pop\n    /* \"#utility.yul\":3291:4123   */\n  swap3\n  pop\n  swap3\n  pop\n  swap3\n  jump\t// out\n    /* \"#utility.yul\":4129:4228   */\ntag_30:\n    /* \"#utility.yul\":4181:4187   */\n  0x00\n    /* \"#utility.yul\":4215:4220   */\n  dup2\n    /* \"#utility.yul\":4209:4221   */\n  mload\n    /* \"#utility.yul\":4199:4221   */\n  swap1\n  pop\n    /* \"#utility.yul\":4129:4228   */\n  swap2\n  swap1\n  pop\n  jump\t// out\n    /* \"#utility.yul\":4234:4414   */\ntag_31:\n    /* \"#utility.yul\":4282:4359   */\n  0x4e487b7100000000000000000000000000000000000000000000000000000000\n    /* \"#utility.yul\":4279:4280   */\n  0x00\n    /* \"#utility.yul\":4272:4360   */\n  mstore\n    /* \"#utility.yul\":4379:4383   */\n  0x22\n    /* \"#utility.yul\":4376:4377   */\n  0x04\n    /* \"#utility.yul\":4369:4384   */\n  mstore\n    /* \"#utility.yul\":4403:4407   */\n  0x24\n    /* \"#utility.yul\":4400:4401   */\n  0x00\n    /* \"#utility.yul\":4393:4408   */\n  revert\n    /* \"#utility.yul\":4420:4740   */\ntag_32:\n    /* \"#utility.yul\":4464:4470   */\n  0x00\n    /* \"#utility.yul\":4501:4502   */\n  0x02\n    /* \"#utility.yul\":4495:4499   */\n  dup3\n    /* \"#utility.yul\":4491:4503   */\n  div\n    /* \"#utility.yul\":4481:4503   */\n  swap1\n  pop\n    /* \"#utility.yul\":4548:4549   */\n  0x01\n    /* \"#utility.yul\":4542:4546   */\n  dup3\n    /* \"#utility.yul\":4538:4550   */\n  and\n    /* \"#utility.yul\":4569:4587   */\n  dup1\n    /* \"#utility.yul\":4559:4640   */\n  tag_101\n  jumpi\n    /* \"#utility.yul\":4625:4629   */\n  0x7f\n    /* \"#utility.yul\":4617:4623   */\n  dup3\n    /* \"#utility.yul\":4613:4630   */\n  and\n    /* \"#utility.yul\":4603:4630   */\n  swap2\n  pop\n    /* \"#utility.yul\":4559:4640   */\ntag_101:\n    /* \"#utility.yul\":4687:4689   */\n  0x20\n    /* \"#utility.yul\":4679:4685   */\n  dup3\n    /* \"#utility.yul\":4676:4690   */\n  lt\n    /* \"#utility.yul\":4656:4674   */\n  dup2\n    /* \"#utility.yul\":4653:4691   */\n  sub\n    /* \"#utility.yul\":4650:4734   */\n  tag_102\n  jumpi\n    /* \"#utility.yul\":4706:4724   */\n  tag_103\n  tag_31\n  jump\t// in\ntag_103:\n    /* \"#utility.yul\":4650:4734   */\ntag_102:\n    /* \"#utility.yul\":4471:4740   */\n  pop\n    /* \"#utility.yul\":4420:4740   */\n  swap2\n  swap1\n  pop\n  jump\t// out\n    /* \"#utility.yul\":4746:4887   */\ntag_33:\n    /* \"#utility.yul\":4795:4799   */\n  0x00\n    /* \"#utility.yul\":4818:4821   */\n  dup2\n    /* \"#utility.yul\":4810:4821   */\n  swap1\n  pop\n    /* \"#utility.yul\":4841:4844   */\n  dup2\n    /* \"#utility.yul\":4838:4839   */\n  0x00\n    /* \"#utility.yul\":4831:4845   */\n  mstore\n    /* \"#utility.yul\":4875:4879   */\n  0x20\n    /* \"#utility.yul\":4872:4873   */\n  0x00\n    /* \"#utility.yul\":4862:4880   */\n  keccak256\n    /* \"#utility.yul\":4854:4880   */\n  swap1\n  pop\n    /* \"#utility.yul\":4746:4887   */\n  swap2\n  swap1\n  pop\n  jump\t// out\n    /* \"#utility.yul\":4893:4986   */\ntag_34:\n    /* \"#utility.yul\":4930:4936   */\n  0x00\n    /* \"#utility.yul\":4977:4979   */\n  0x20\n    /* \"#utility.yul\":4972:4974   */\n  0x1f\n    /* \"#utility.yul\":4965:4970   */\n  dup4\n    /* \"#utility.yul\":4961:4975   */\n  add\n    /* \"#utility.yul\":4957:4980   */\n  div\n    /* \"#utility.yul\":4947:4980   */\n  swap1\n  pop\n    /* \"#utility.yul\":4893:4986   */\n  swap2\n  swap1\n  pop\n  jump\t// out\n    /* \"#utility.yul\":4992:5099   */\ntag_35:\n    /* \"#utility.yul\":5036:5044   */\n  0x00\n    /* \"#utility.yul\":5086:5091   */\n  dup3\n    /* \"#utility.yul\":5080:5084   */\n  dup3\n    /* \"#utility.yul\":5076:5092   */\n  shl\n    /* \"#utility.yul\":5055:5092   */\n  swap1\n  pop\n    /* \"#utility.yul\":4992:5099   */\n  swap3\n  swap2\n  pop\n  pop\n  jump\t// out\n    /* \"#utility.yul\":5105:5498   */\ntag_36:\n    /* \"#utility.yul\":5174:5180   */\n  0x00\n    /* \"#utility.yul\":5224:5225   */\n  0x08\n    /* \"#utility.yul\":5212:5222   */\n  dup4\n    /* \"#utility.yul\":5208:5226   */\n  mul\n    /* \"#utility.yul\":5247:5344   */\n  tag_108\n    /* \"#utility.yul\":5277:5343   */\n  0xffffffffffffffffffffffffffffffffffffffffffffffffffffffffffffffff\n    /* \"#utility.yul\":5266:5275   */\n  dup3\n    /* \"#utility.yul\":5247:5344   */\n  tag_35\n  jump\t// in\ntag_108:\n    /* \"#utility.yul\":5365:5404   */\n  tag_109\n    /* \"#utility.yul\":5395:5403   */\n  dup7\n    /* \"#utility.yul\":5384:5393   */\n  dup4\n    /* \"#utility.yul\":5365:5404   */\n  tag_35\n  jump\t// in\ntag_109:\n    /* \"#utility.yul\":5353:5404   */\n  swap6\n  pop\n    /* \"#utility.yul\":5437:5441   */\n  dup1\n    /* \"#utility.yul\":5433:5442   */\n  not\n    /* \"#utility.yul\":5426:5431   */\n  dup5\n    /* \"#utility.yul\":5422:5443   */\n  and\n    /* \"#utility.yul\":5413:5443   */\n  swap4\n  pop\n    /* \"#utility.yul\":5486:5490   */\n  dup1\n    /* \"#utility.yul\":5476:5484   */\n  dup7\n    /* \"#utility.yul\":5472:5491   */\n  and\n    /* \"#utility.yul\":5465:5470   */\n  dup5\n    /* \"#utility.yul\":5462:5492   */\n  or\n    /* \"#utility.yul\":5452:5492   */\n  swap3\n  pop\n    /* \"#utility.yul\":5181:5498   */\n  pop\n  pop\n    /* \"#utility.yul\":5105:5498   */\n  swap4\n  swap3\n  pop\n  pop\n  pop\n  jump\t// out\n    /* \"#utility.yul\":5504:5564   */\ntag_37:\n    /* \"#utility.yul\":5532:5535   */\n  0x00\n    /* \"#utility.yul\":5553:5558   */\n  dup2\n    /* \"#utility.yul\":5546:5558   */\n  swap1\n  pop\n    /* \"#utility.yul\":5504:5564   */\n  swap2\n  swap1\n  pop\n  jump\t// out\n    /* \"#utility.yul\":5570:5712   */\ntag_38:\n    /* \"#utility.yul\":5620:5629   */\n  0x00\n    /* \"#utility.yul\":5653:5706   */\n  tag_112\n    /* \"#utility.yul\":5671:5705   */\n  tag_113\n    /* \"#utility.yul\":5680:5704   */\n  tag_114\n    /* \"#utility.yul\":5698:5703   */\n  dup5\n    /* \"#utility.yul\":5680:5704   */\n  tag_14\n  jump\t// in\ntag_114:\n    /* \"#utility.yul\":5671:5705   */\n  tag_37\n  jump\t// in\ntag_113:\n    /* \"#utility.yul\":5653:5706   */\n  tag_14\n  jump\t// in\ntag_112:\n    /* \"#utility.yul\":5640:5706   */\n  swap1\n  pop\n    /* \"#utility.yul\":5570:5712   */\n  swap2\n  swap1\n  pop\n  jump\t// out\n    /* \"#utility.yul\":5718:5793   */\ntag_39:\n    /* \"#utility.yul\":5761:5764   */\n  0x00\n    /* \"#utility.yul\":5782:5787   */\n  dup2\n    /* \"#utility.yul\":5775:5787   */\n  swap1\n  pop\n    /* \"#utility.yul\":5718:5793   */\n  swap2\n  swap1\n  pop\n  jump\t// out\n    /* \"#utility.yul\":5799:6068   */\ntag_40:\n    /* \"#utility.yul\":5909:5948   */\n  tag_117\n    /* \"#utility.yul\":5940:5947   */\n  dup4\n    /* \"#utility.yul\":5909:5948   */\n  tag_38\n  jump\t// in\ntag_117:\n    /* \"#utility.yul\":5970:6061   */\n  tag_118\n    /* \"#utility.yul\":6019:6060   */\n  tag_119\n    /* \"#utility.yul\":6043:6059   */\n  dup3\n    /* \"#utility.yul\":6019:6060   */\n  tag_39\n  jump\t// in\ntag_119:\n    /* \"#utility.yul\":6011:6017   */\n  dup5\n    /* \"#utility.yul\":6004:6008   */\n  dup5\n    /* \"#utility.yul\":5998:6009   */\n  sload\n    /* \"#utility.yul\":5970:6061   */\n  tag_36\n  jump\t// in\ntag_118:\n    /* \"#utility.yul\":5964:5968   */\n  dup3\n    /* \"#utility.yul\":5957:6062   */\n  sstore\n    /* \"#utility.yul\":5875:6068   */\n  pop\n    /* \"#utility.yul\":5799:6068   */\n  pop\n  pop\n  pop\n  jump\t// out\n    /* \"#utility.yul\":6074:6147   */\ntag_41:\n    /* \"#utility.yul\":6119:6122   */\n  0x00\n    /* \"#utility.yul\":6074:6147   */\n  swap1\n  jump\t// out\n    /* \"#utility.yul\":6153:6342   */\ntag_42:\n    /* \"#utility.yul\":6230:6262   */\n  tag_122\n  tag_41\n  jump\t// in\ntag_122:\n    /* \"#utility.yul\":6271:6336   */\n  tag_123\n    /* \"#utility.yul\":6329:6335   */\n  dup2\n    /* \"#utility.yul\":6321:6327   */\n  dup5\n    /* \"#utility.yul\":6315:6319   */\n  dup5\n    /* \"#utility.yul\":6271:6336   */\n  tag_40\n  jump\t// in\ntag_123:\n    /* \"#utility.yul\":6206:6342   */\n  pop\n    /* \"#utility.yul\":6153:6342   */\n  pop\n  pop\n  jump\t// out\n    /* \"#utility.yul\":6348:6534   */\ntag_43:\n    /* \"#utility.yul\":6408:6528   */\ntag_125:\n    /* \"#utility.yul\":6425:6428   */\n  dup2\n    /* \"#utility.yul\":6418:6423   */\n  dup2\n    /* \"#utility.yul\":6415:6429   */\n  lt\n    /* \"#utility.yul\":6408:6528   */\n  iszero\n  tag_127\n  jumpi\n    /* \"#utility.yul\":6479:6518   */\n  tag_128\n    /* \"#utility.yul\":6516:6517   */\n  0x00\n    /* \"#utility.yul\":6509:6514   */\n  dup3\n    /* \"#utility.yul\":6479:6518   */\n  tag_42\n  jump\t// in\ntag_128:\n    /* \"#utility.yul\":6452:6453   */\n  0x01\n    /* \"#utility.yul\":6445:6450   */\n  dup2\n    /* \"#utility.yul\":6441:6454   */\n  add\n    /* \"#utility.yul\":6432:6454   */\n  swap1\n  pop\n    /* \"#utility.yul\":6408:6528   */\n  jump(tag_125)\ntag_127:\n    /* \"#utility.yul\":6348:6534   */\n  pop\n  pop\n  jump\t// out\n    /* \"#utility.yul\":6540:7083   */\ntag_44:\n    /* \"#utility.yul\":6641:6643   */\n  0x1f\n    /* \"#utility.yul\":6636:6639   */\n  dup3\n    /* \"#utility.yul\":6633:6644   */\n  gt\n    /* \"#utility.yul\":6630:7076   */\n  iszero\n  tag_130\n  jumpi\n    /* \"#utility.yul\":6675:6713   */\n  tag_131\n    /* \"#utility.yul\":6707:6712   */\n  dup2\n    /* \"#utility.yul\":6675:6713   */\n  tag_33\n  jump\t// in\ntag_131:\n    /* \"#utility.yul\":6759:6788   */\n  tag_132\n    /* \"#utility.yul\":6777:6787   */\n  dup5\n    /* \"#utility.yul\":6759:6788   */\n  tag_34\n  jump\t// in\ntag_132:\n    /* \"#utility.yul\":6749:6757   */\n  dup2\n    /* \"#utility.yul\":6745:6789   */\n  add\n    /* \"#utility.yul\":6942:6944   */\n  0x20\n    /* \"#utility.yul\":6930:6940   */\n  dup6\n    /* \"#utility.yul\":6927:6945   */\n  lt\n    /* \"#utility.yul\":6924:6973   */\n  iszero\n  tag_133\n  jumpi\n    /* \"#utility.yul\":6963:6971   */\n  dup2\n    /* \"#utility.yul\":6948:6971   */\n  swap1\n  pop\n    /* \"#utility.yul\":6924:6973   */\ntag_133:\n    /* \"#utility.yul\":6986:7066   */\n  tag_134\n    /* \"#utility.yul\":7042:7064   */\n  tag_135\n    /* \"#utility.yul\":7060:7063   */\n  dup6\n    /* \"#utility.yul\":7042:7064   */\n  tag_34\n  jump\t// in\ntag_135:\n    /* \"#utility.yul\":7032:7040   */\n  dup4\n    /* \"#utility.yul\":7028:7065   */\n  add\n    /* \"#utility.yul\":7015:7026   */\n  dup3\n    /* \"#utility.yul\":6986:7066   */\n  tag_43\n  jump\t// in\ntag_134:\n    /* \"#utility.yul\":6645:7076   */\n  pop\n  pop\n    /* \"#utility.yul\":6630:7076   */\ntag_130:\n    /* \"#utility.yul\":6540:7083   */\n  pop\n  pop\n  pop\n  jump\t// out\n    /* \"#utility.yul\":7089:7206   */\ntag_45:\n    /* \"#utility.yul\":7143:7151   */\n  0x00\n    /* \"#utility.yul\":7193:7198   */\n  dup3\n    /* \"#utility.yul\":7187:7191   */\n  dup3\n    /* \"#utility.yul\":7183:7199   */\n  shr\n    /* \"#utility.yul\":7162:7199   */\n  swap1\n  pop\n    /* \"#utility.yul\":7089:7206   */\n  swap3\n  swap2\n  pop\n  pop\n  jump\t// out\n    /* \"#utility.yul\":7212:7381   */\ntag_46:\n    /* \"#utility.yul\":7256:7262   */\n  0x00\n    /* \"#utility.yul\":7289:7340   */\n  tag_138\n    /* \"#utility.yul\":7337:7338   */\n  0x00\n    /* \"#utility.yul\":7333:7339   */\n  not\n    /* \"#utility.yul\":7325:7330   */\n  dup5\n    /* \"#utility.yul\":7322:7323   */\n  0x08\n    /* \"#utility.yul\":7318:7331   */\n  mul\n    /* \"#utility.yul\":7289:7340   */\n  tag_45\n  jump\t// in\ntag_138:\n    /* \"#utility.yul\":7285:7341   */\n  not\n    /* \"#utility.yul\":7370:7374   */\n  dup1\n    /* \"#utility.yul\":7364:7368   */\n  dup4\n    /* \"#utility.yul\":7360:7375   */\n  and\n    /* \"#utility.yul\":7350:7375   */\n  swap2\n  pop\n    /* \"#utility.yul\":7263:7381   */\n  pop\n    /* \"#utility.yul\":7212:7381   */\n  swap3\n  swap2\n  pop\n  pop\n  jump\t// out\n    /* \"#utility.yul\":7386:7681   */\ntag_47:\n    /* \"#utility.yul\":7462:7466   */\n  0x00\n    /* \"#utility.yul\":7608:7637   */\n  tag_140\n    /* \"#utility.yul\":7633:7636   */\n  dup4\n    /* \"#utility.yul\":7627:7631   */\n  dup4\n    /* \"#utility.yul\":7608:7637   */\n  tag_46\n  jump\t// in\ntag_140:\n    /* \"#utility.yul\":7600:7637   */\n  swap2\n  pop\n    /* \"#utility.yul\":7670:7673   */\n  dup3\n    /* \"#utility.yul\":7667:7668   */\n  0x02\n    /* \"#utility.yul\":7663:7674   */\n  mul\n    /* \"#utility.yul\":7657:7661   */\n  dup3\n    /* \"#utility.yul\":7654:7675   */\n  or\n    /* \"#utility.yul\":7646:7675   */\n  swap1\n  pop\n    /* \"#utility.yul\":7386:7681   */\n  swap3\n  swap2\n  pop\n  pop\n  jump\t// out\n    /* \"#utility.yul\":7686:9081   */\ntag_8:\n    /* \"#utility.yul\":7803:7840   */\n  tag_142\n    /* \"#utility.yul\":7836:7839   */\n  dup3\n    /* \"#utility.yul\":7803:7840   */\n  tag_30\n  jump\t// in\ntag_142:\n    /* \"#utility.yul\":7905:7923   */\n  0xffffffffffffffff\n    /* \"#utility.yul\":7897:7903   */\n  dup2\n    /* \"#utility.yul\":7894:7924   */\n  gt\n    /* \"#utility.yul\":7891:7947   */\n  iszero\n  tag_143\n  jumpi\n    /* \"#utility.yul\":7927:7945   */\n  tag_144\n  tag_20\n  jump\t// in\ntag_144:\n    /* \"#utility.yul\":7891:7947   */\ntag_143:\n    /* \"#utility.yul\":7971:8009   */\n  tag_145\n    /* \"#utility.yul\":8003:8007   */\n  dup3\n    /* \"#utility.yul\":7997:8008   */\n  sload\n    /* \"#utility.yul\":7971:8009   */\n  tag_32\n  jump\t// in\ntag_145:\n    /* \"#utility.yul\":8056:8123   */\n  tag_146\n    /* \"#utility.yul\":8116:8122   */\n  dup3\n    /* \"#utility.yul\":8108:8114   */\n  dup3\n    /* \"#utility.yul\":8102:8106   */\n  dup6\n    /* \"#utility.yul\":8056:8123   */\n  tag_44\n  jump\t// in\ntag_146:\n    /* \"#utility.yul\":8150:8151   */\n  0x00\n    /* \"#utility.yul\":8174:8178   */\n  0x20\n    /* \"#utility.yul\":8161:8178   */\n  swap1\n  pop\n    /* \"#utility.yul\":8206:8208   */\n  0x1f\n    /* \"#utility.yul\":8198:8204   */\n  dup4\n    /* \"#utility.yul\":8195:8209   */\n  gt\n    /* \"#utility.yul\":8223:8224   */\n  0x01\n    /* \"#utility.yul\":8218:8836   */\n  dup2\n  eq\n  tag_148\n  jumpi\n    /* \"#utility.yul\":8880:8881   */\n  0x00\n    /* \"#utility.yul\":8897:8903   */\n  dup5\n    /* \"#utility.yul\":8894:8971   */\n  iszero\n  tag_149\n  jumpi\n    /* \"#utility.yul\":8946:8955   */\n  dup3\n    /* \"#utility.yul\":8941:8944   */\n  dup8\n    /* \"#utility.yul\":8937:8956   */\n  add\n    /* \"#utility.yul\":8931:8957   */\n  mload\n    /* \"#utility.yul\":8922:8957   */\n  swap1\n  pop\n    /* \"#utility.yul\":8894:8971   */\ntag_149:\n    /* \"#utility.yul\":8997:9064   */\n  tag_150\n    /* \"#utility.yul\":9057:9063   */\n  dup6\n    /* \"#utility.yul\":9050:9055   */\n  dup3\n    /* \"#utility.yul\":8997:9064   */\n  tag_47\n  jump\t// in\ntag_150:\n    /* \"#utility.yul\":8991:8995   */\n  dup7\n    /* \"#utility.yul\":8984:9065   */\n  sstore\n    /* \"#utility.yul\":8853:9075   */\n  pop\n    /* \"#utility.yul\":8188:9075   */\n  jump(tag_147)\n    /* \"#utility.yul\":8218:8836   */\ntag_148:\n    /* \"#utility.yul\":8270:8274   */\n  0x1f\n    /* \"#utility.yul\":8266:8275   */\n  not\n    /* \"#utility.yul\":8258:8264   */\n  dup5\n    /* \"#utility.yul\":8254:8276   */\n  and\n    /* \"#utility.yul\":8304:8341   */\n  tag_151\n    /* \"#utility.yul\":8336:8340   */\n  dup7\n    /* \"#utility.yul\":8304:8341   */\n  tag_33\n  jump\t// in\ntag_151:\n    /* \"#utility.yul\":8363:8364   */\n  0x00\n    /* \"#utility.yul\":8377:8585   */\ntag_152:\n    /* \"#utility.yul\":8391:8398   */\n  dup3\n    /* \"#utility.yul\":8388:8389   */\n  dup2\n    /* \"#utility.yul\":8385:8399   */\n  lt\n    /* \"#utility.yul\":8377:8585   */\n  iszero\n  tag_154\n  jumpi\n    /* \"#utility.yul\":8470:8479   */\n  dup5\n    /* \"#utility.yul\":8465:8468   */\n  dup10\n    /* \"#utility.yul\":8461:8480   */\n  add\n    /* \"#utility.yul\":8455:8481   */\n  mload\n    /* \"#utility.yul\":8447:8453   */\n  dup3\n    /* \"#utility.yul\":8440:8482   */\n  sstore\n    /* \"#utility.yul\":8521:8522   */\n  0x01\n    /* \"#utility.yul\":8513:8519   */\n  dup3\n    /* \"#utility.yul\":8509:8523   */\n  add\n    /* \"#utility.yul\":8499:8523   */\n  swap2\n  pop\n    /* \"#utility.yul\":8568:8570   */\n  0x20\n    /* \"#utility.yul\":8557:8566   */\n  dup6\n    /* \"#utility.yul\":8553:8571   */\n  add\n    /* \"#utility.yul\":8540:8571   */\n  swap5\n  pop\n    /* \"#utility.yul\":8414:8418   */\n  0x20\n    /* \"#utility.yul\":8411:8412   */\n  dup2\n    /* \"#utility.yul\":8407:8419   */\n  add\n    /* \"#utility.yul\":8402:8419   */\n  swap1\n  pop\n    /* \"#utility.yul\":8377:8585   */\n  jump(tag_152)\ntag_154:\n    /* \"#utility.yul\":8613:8619   */\n  dup7\n    /* \"#utility.yul\":8604:8611   */\n  dup4\n    /* \"#utility.yul\":8601:8620   */\n  lt\n    /* \"#utility.yul\":8598:8777   */\n  iszero\n  tag_155\n  jumpi\n    /* \"#utility.yul\":8671:8680   */\n  dup5\n    /* \"#utility.yul\":8666:8669   */\n  dup10\n    /* \"#utility.yul\":8662:8681   */\n  add\n    /* \"#utility.yul\":8656:8682   */\n  mload\n    /* \"#utility.yul\":8714:8762   */\n  tag_156\n    /* \"#utility.yul\":8756:8760   */\n  0x1f\n    /* \"#utility.yul\":8748:8754   */\n  dup10\n    /* \"#utility.yul\":8744:8761   */\n  and\n    /* \"#utility.yul\":8733:8742   */\n  dup3\n    /* \"#utility.yul\":8714:8762   */\n  tag_46\n  jump\t// in\ntag_156:\n    /* \"#utility.yul\":8706:8712   */\n  dup4\n    /* \"#utility.yul\":8699:8763   */\n  sstore\n    /* \"#utility.yul\":8621:8777   */\n  pop\n    /* \"#utility.yul\":8598:8777   */\ntag_155:\n    /* \"#utility.yul\":8823:8824   */\n  0x01\n    /* \"#utility.yul\":8819:8820   */\n  0x02\n    /* \"#utility.yul\":8811:8817   */\n  dup9\n    /* \"#utility.yul\":8807:8821   */\n  mul\n    /* \"#utility.yul\":8803:8825   */\n  add\n    /* \"#utility.yul\":8797:8801   */\n  dup9\n    /* \"#utility.yul\":8790:8826   */\n  sstore\n    /* \"#utility.yul\":8225:8836   */\n  pop\n  pop\n  pop\n    /* \"#utility.yul\":8188:9075   */\ntag_147:\n  pop\n    /* \"#utility.yul\":7778:9081   */\n  pop\n  pop\n  pop\n    /* \"#utility.yul\":7686:9081   */\n  pop\n  pop\n  jump\t// out\n    /* \"contracts/WETH.sol\":179:1108  contract WETH is ERC20 {... */\ntag_10:\n  dataSize(sub_0)\n  dup1\n  dataOffset(sub_0)\n  0x00\n  codecopy\n  0x00\n  return\nstop\n\nsub_0: assembly {\n        /* \"contracts/WETH.sol\":179:1108  contract WETH is ERC20 {... */\n      mstore(0x40, 0x80)\n      jumpi(tag_1, lt(calldatasize, 0x04))\n      shr(0xe0, calldataload(0x00))\n      dup1\n      0x70a08231\n      gt\n      tag_17\n      jumpi\n      dup1\n      0xa0712d68\n      gt\n      tag_18\n      jumpi\n      dup1\n      0xa0712d68\n      eq\n      tag_13\n      jumpi\n      dup1\n      0xa50ec326\n      eq\n      tag_14\n      jumpi\n      dup1\n      0xa9059cbb\n      eq\n      tag_15\n      jumpi\n      dup1\n      0xdd62ed3e\n      eq\n      tag_16\n      jumpi\n      jump(tag_2)\n    tag_18:\n      dup1\n      0x70a08231\n      eq\n      tag_10\n      jumpi\n      dup1\n      0x835fc6ca\n      eq\n      tag_11\n      jumpi\n      dup1\n      0x95d89b41\n      eq\n      tag_12\n      jumpi\n      jump(tag_2)\n    tag_17:\n      dup1\n      0x313ce567\n      gt\n      tag_19\n      jumpi\n      dup1\n      0x313ce567\n      eq\n      tag_6\n      jumpi\n      dup1\n      0x42966c68\n      eq\n      tag_7\n      jumpi\n      dup1\n      0x4e6ec247\n      eq\n      tag_8\n      jumpi\n      dup1\n      0x6161eb18\n      eq\n      tag_9\n      jumpi\n      jump(tag_2)\n    tag_19:\n      dup1\n      0x095ea7b3\n      eq\n      tag_3\n      jumpi\n      dup1\n      0x18160ddd\n      eq\n      tag_4\n      jumpi\n      dup1\n      0x23b872dd\n      eq\n      tag_5\n      jumpi\n      jump(tag_2)\n    tag_1:\n      jumpi(tag_2, calldatasize)\n        /* \"contracts/WETH.sol\":559:569  deposite() */\n      tag_22\n        /* \"contracts/WETH.sol\":559:567  deposite */\n      tag_23\n        /* \"contracts/WETH.sol\":559:569  deposite() */\n      jump\t// in\n    tag_22:\n        /* \"contracts/WETH.sol\":179:1108  contract WETH is ERC20 {... */\n      stop\n    tag_2:\n        /* \"contracts/WETH.sol\":495:505  deposite() */\n      tag_26\n        /* \"contracts/WETH.sol\":495:503  deposite */\n      tag_23\n        /* \"contracts/WETH.sol\":495:505  deposite() */\n      jump\t// in\n    tag_26:\n        /* \"contracts/WETH.sol\":179:1108  contract WETH is ERC20 {... */\n      stop\n        /* \"contracts/ERC20.sol\":1545:1752  function approve(address recipient,uint amount) external returns(bool) {... */\n    tag_3:\n      callvalue\n      dup1\n      iszero\n      tag_27\n      jumpi\n      0x00\n      dup1\n      revert\n    tag_27:\n      pop\n      tag_28\n      0x04\n      dup1\n      calldatasize\n      sub\n      dup2\n      add\n      swap1\n      tag_29\n      swap2\n      swap1\n      tag_30\n      jump\t// in\n    tag_29:\n      tag_31\n      jump\t// in\n    tag_28:\n      mload(0x40)\n      tag_32\n      swap2\n      swap1\n      tag_33\n      jump\t// in\n    tag_32:\n      mload(0x40)\n      dup1\n      swap2\n      sub\n      swap1\n      return\n        /* \"contracts/ERC20.sol\":856:879  uint public totalSupply */\n    tag_4:\n      callvalue\n      dup1\n      iszero\n      tag_34\n      jumpi\n      0x00\n      dup1\n      revert\n    tag_34:\n      pop\n      tag_35\n      tag_36\n      jump\t// in\n    tag_35:\n      mload(0x40)\n      tag_37\n      swap2\n      swap1\n      tag_38\n      jump\t// in\n    tag_37:\n      mload(0x40)\n      dup1\n      swap2\n      sub\n      swap1\n      return\n        /* \"contracts/ERC20.sol\":2118:2527  function transferFrom(address sender,address recipient,uint amount) external returns (bool) {... */\n    tag_5:\n      callvalue\n      dup1\n      iszero\n      tag_39\n      jumpi\n      0x00\n      dup1\n      revert\n    tag_39:\n      pop\n      tag_40\n      0x04\n      dup1\n      calldatasize\n      sub\n      dup2\n      add\n      swap1\n      tag_41\n      swap2\n      swap1\n      tag_42\n      jump\t// in\n    tag_41:\n      tag_43\n      jump\t// in\n    tag_40:\n      mload(0x40)\n      tag_44\n      swap2\n      swap1\n      tag_33\n      jump\t// in\n    tag_44:\n      mload(0x40)\n      dup1\n      swap2\n      sub\n      swap1\n      return\n        /* \"contracts/ERC20.sol\":913:934  uint8 public decimals */\n    tag_6:\n      callvalue\n      dup1\n      iszero\n      tag_45\n      jumpi\n      0x00\n      dup1\n      revert\n    tag_45:\n      pop\n      tag_46\n      tag_47\n      jump\t// in\n    tag_46:\n      mload(0x40)\n      tag_48\n      swap2\n      swap1\n      tag_49\n      jump\t// in\n    tag_48:\n      mload(0x40)\n      dup1\n      swap2\n      sub\n      swap1\n      return\n        /* \"contracts/ERC20.sol\":3081:3253  function burn(uint amount) public {... */\n    tag_7:\n      callvalue\n      dup1\n      iszero\n      tag_50\n      jumpi\n      0x00\n      dup1\n      revert\n    tag_50:\n      pop\n      tag_51\n      0x04\n      dup1\n      calldatasize\n      sub\n      dup2\n      add\n      swap1\n      tag_52\n      swap2\n      swap1\n      tag_53\n      jump\t// in\n    tag_52:\n      tag_54\n      jump\t// in\n    tag_51:\n      stop\n        /* \"contracts/ERC20.sol\":2535:2706  function _mint(address to,uint256 amount) public {... */\n    tag_8:\n      callvalue\n      dup1\n      iszero\n      tag_55\n      jumpi\n      0x00\n      dup1\n      revert\n    tag_55:\n      pop\n      tag_56\n      0x04\n      dup1\n      calldatasize\n      sub\n      dup2\n      add\n      swap1\n      tag_57\n      swap2\n      swap1\n      tag_30\n      jump\t// in\n    tag_57:\n      tag_58\n      jump\t// in\n    tag_56:\n      stop\n        /* \"contracts/ERC20.sol\":2894:3073  function _burn(address from,uint256 amount) public {... */\n    tag_9:\n      callvalue\n      dup1\n      iszero\n      tag_59\n      jumpi\n      0x00\n      dup1\n      revert\n    tag_59:\n      pop\n      tag_60\n      0x04\n      dup1\n      calldatasize\n      sub\n      dup2\n      add\n      swap1\n      tag_61\n      swap2\n      swap1\n      tag_30\n      jump\t// in\n    tag_61:\n      tag_62\n      jump\t// in\n    tag_60:\n      stop\n        /* \"contracts/ERC20.sol\":744:783  mapping(address=>uint) public balanceOf */\n    tag_10:\n      callvalue\n      dup1\n      iszero\n      tag_63\n      jumpi\n      0x00\n      dup1\n      revert\n    tag_63:\n      pop\n      tag_64\n      0x04\n      dup1\n      calldatasize\n      sub\n      dup2\n      add\n      swap1\n      tag_65\n      swap2\n      swap1\n      tag_66\n      jump\t// in\n    tag_65:\n      tag_67\n      jump\t// in\n    tag_64:\n      mload(0x40)\n      tag_68\n      swap2\n      swap1\n      tag_38\n      jump\t// in\n    tag_68:\n      mload(0x40)\n      dup1\n      swap2\n      sub\n      swap1\n      return\n        /* \"contracts/WETH.sol\":791:1105  function withdrawal(uint amount) public {... */\n    tag_11:\n      callvalue\n      dup1\n      iszero\n      tag_69\n      jumpi\n      0x00\n      dup1\n      revert\n    tag_69:\n      pop\n      tag_70\n      0x04\n      dup1\n      calldatasize\n      sub\n      dup2\n      add\n      swap1\n      tag_71\n      swap2\n      swap1\n      tag_53\n      jump\t// in\n    tag_71:\n      tag_72\n      jump\t// in\n    tag_70:\n      stop\n        /* \"contracts/ERC20.sol\":886:906  string public symbol */\n    tag_12:\n      callvalue\n      dup1\n      iszero\n      tag_73\n      jumpi\n      0x00\n      dup1\n      revert\n    tag_73:\n      pop\n      tag_74\n      tag_75\n      jump\t// in\n    tag_74:\n      mload(0x40)\n      tag_76\n      swap2\n      swap1\n      tag_77\n      jump\t// in\n    tag_76:\n      mload(0x40)\n      dup1\n      swap2\n      sub\n      swap1\n      return\n        /* \"contracts/ERC20.sol\":2714:2886  function mint(uint amount) public {... */\n    tag_13:\n      callvalue\n      dup1\n      iszero\n      tag_78\n      jumpi\n      0x00\n      dup1\n      revert\n    tag_78:\n      pop\n      tag_79\n      0x04\n      dup1\n      calldatasize\n      sub\n      dup2\n      add\n      swap1\n      tag_80\n      swap2\n      swap1\n      tag_53\n      jump\t// in\n    tag_80:\n      tag_81\n      jump\t// in\n    tag_79:\n      stop\n        /* \"contracts/WETH.sol\":625:752  function deposite() public payable {... */\n    tag_14:\n      tag_82\n      tag_23\n      jump\t// in\n    tag_82:\n      stop\n        /* \"contracts/ERC20.sol\":1130:1367  function transfer(address receiver,uint amount) external returns(bool) {... */\n    tag_15:\n      callvalue\n      dup1\n      iszero\n      tag_83\n      jumpi\n      0x00\n      dup1\n      revert\n    tag_83:\n      pop\n      tag_84\n      0x04\n      dup1\n      calldatasize\n      sub\n      dup2\n      add\n      swap1\n      tag_85\n      swap2\n      swap1\n      tag_30\n      jump\t// in\n    tag_85:\n      tag_86\n      jump\t// in\n    tag_84:\n      mload(0x40)\n      tag_87\n      swap2\n      swap1\n      tag_33\n      jump\t// in\n    tag_87:\n      mload(0x40)\n      dup1\n      swap2\n      sub\n      swap1\n      return\n        /* \"contracts/ERC20.sol\":790:847  mapping(address=>mapping(address=>uint)) public allowance */\n    tag_16:\n      callvalue\n      dup1\n      iszero\n      tag_88\n      jumpi\n      0x00\n      dup1\n      revert\n    tag_88:\n      pop\n      tag_89\n      0x04\n      dup1\n      calldatasize\n      sub\n      dup2\n      add\n      swap1\n      tag_90\n      swap2\n      swap1\n      tag_91\n      jump\t// in\n    tag_90:\n      tag_92\n      jump\t// in\n    tag_89:\n      mload(0x40)\n      tag_93\n      swap2\n      swap1\n      tag_38\n      jump\t// in\n    tag_93:\n      mload(0x40)\n      dup1\n      swap2\n      sub\n      swap1\n      return\n        /* \"contracts/WETH.sol\":625:752  function deposite() public payable {... */\n    tag_23:\n        /* \"contracts/WETH.sol\":671:698  _mint(msg.sender,msg.value) */\n      tag_95\n        /* \"contracts/WETH.sol\":677:687  msg.sender */\n      caller\n        /* \"contracts/WETH.sol\":688:697  msg.value */\n      callvalue\n        /* \"contracts/WETH.sol\":671:676  _mint */\n      tag_58\n        /* \"contracts/WETH.sol\":671:698  _mint(msg.sender,msg.value) */\n      jump\t// in\n    tag_95:\n        /* \"contracts/WETH.sol\":714:744  Deposite(msg.sender,msg.value) */\n      0x67d0e209d76ed24370106b1fd0fc1c82de411f7b72ba3d92736b75fe4add443a\n        /* \"contracts/WETH.sol\":723:733  msg.sender */\n      caller\n        /* \"contracts/WETH.sol\":734:743  msg.value */\n      callvalue\n        /* \"contracts/WETH.sol\":714:744  Deposite(msg.sender,msg.value) */\n      mload(0x40)\n      tag_96\n      swap3\n      swap2\n      swap1\n      tag_97\n      jump\t// in\n    tag_96:\n      mload(0x40)\n      dup1\n      swap2\n      sub\n      swap1\n      log1\n        /* \"contracts/WETH.sol\":625:752  function deposite() public payable {... */\n      jump\t// out\n        /* \"contracts/ERC20.sol\":1545:1752  function approve(address recipient,uint amount) external returns(bool) {... */\n    tag_31:\n        /* \"contracts/ERC20.sol\":1610:1614  bool */\n      0x00\n        /* \"contracts/ERC20.sol\":1662:1668  amount */\n      dup2\n        /* \"contracts/ERC20.sol\":1627:1636  allowance */\n      0x01\n        /* \"contracts/ERC20.sol\":1627:1648  allowance[msg.sender] */\n      0x00\n        /* \"contracts/ERC20.sol\":1637:1647  msg.sender */\n      caller\n        /* \"contracts/ERC20.sol\":1627:1648  allowance[msg.sender] */\n      0xffffffffffffffffffffffffffffffffffffffff\n      and\n      0xffffffffffffffffffffffffffffffffffffffff\n      and\n      dup2\n      mstore\n      0x20\n      add\n      swap1\n      dup2\n      mstore\n      0x20\n      add\n      0x00\n      keccak256\n        /* \"contracts/ERC20.sol\":1627:1659  allowance[msg.sender][recipient] */\n      0x00\n        /* \"contracts/ERC20.sol\":1649:1658  recipient */\n      dup6\n        /* \"contracts/ERC20.sol\":1627:1659  allowance[msg.sender][recipient] */\n      0xffffffffffffffffffffffffffffffffffffffff\n      and\n      0xffffffffffffffffffffffffffffffffffffffff\n      and\n      dup2\n      mstore\n      0x20\n      add\n      swap1\n      dup2\n      mstore\n      0x20\n      add\n      0x00\n      keccak256\n        /* \"contracts/ERC20.sol\":1627:1668  allowance[msg.sender][recipient] = amount */\n      dup2\n      swap1\n      sstore\n      pop\n        /* \"contracts/ERC20.sol\":1704:1713  recipient */\n      dup3\n        /* \"contracts/ERC20.sol\":1684:1722  Approve(msg.sender, recipient, amount) */\n      0xffffffffffffffffffffffffffffffffffffffff\n      and\n        /* \"contracts/ERC20.sol\":1692:1702  msg.sender */\n      caller\n        /* \"contracts/ERC20.sol\":1684:1722  Approve(msg.sender, recipient, amount) */\n      0xffffffffffffffffffffffffffffffffffffffff\n      and\n      0x6e11fb1b7f119e3f2fa29896ef5fdf8b8a2d0d4df6fe90ba8668e7d8b2ffa25e\n        /* \"contracts/ERC20.sol\":1715:1721  amount */\n      dup5\n        /* \"contracts/ERC20.sol\":1684:1722  Approve(msg.sender, recipient, amount) */\n      mload(0x40)\n      tag_99\n      swap2\n      swap1\n      tag_38\n      jump\t// in\n    tag_99:\n      mload(0x40)\n      dup1\n      swap2\n      sub\n      swap1\n      log3\n        /* \"contracts/ERC20.sol\":1740:1744  true */\n      0x01\n        /* \"contracts/ERC20.sol\":1733:1744  return true */\n      swap1\n      pop\n        /* \"contracts/ERC20.sol\":1545:1752  function approve(address recipient,uint amount) external returns(bool) {... */\n      swap3\n      swap2\n      pop\n      pop\n      jump\t// out\n        /* \"contracts/ERC20.sol\":856:879  uint public totalSupply */\n    tag_36:\n      sload(0x02)\n      dup2\n      jump\t// out\n        /* \"contracts/ERC20.sol\":2118:2527  function transferFrom(address sender,address recipient,uint amount) external returns (bool) {... */\n    tag_43:\n        /* \"contracts/ERC20.sol\":2204:2208  bool */\n      0x00\n        /* \"contracts/ERC20.sol\":2410:2416  amount */\n      dup2\n        /* \"contracts/ERC20.sol\":2377:2386  allowance */\n      0x01\n        /* \"contracts/ERC20.sol\":2377:2394  allowance[sender] */\n      0x00\n        /* \"contracts/ERC20.sol\":2387:2393  sender */\n      dup7\n        /* \"contracts/ERC20.sol\":2377:2394  allowance[sender] */\n      0xffffffffffffffffffffffffffffffffffffffff\n      and\n      0xffffffffffffffffffffffffffffffffffffffff\n      and\n      dup2\n      mstore\n      0x20\n      add\n      swap1\n      dup2\n      mstore\n      0x20\n      add\n      0x00\n      keccak256\n        /* \"contracts/ERC20.sol\":2377:2406  allowance[sender][msg.sender] */\n      0x00\n        /* \"contracts/ERC20.sol\":2395:2405  msg.sender */\n      caller\n        /* \"contracts/ERC20.sol\":2377:2406  allowance[sender][msg.sender] */\n      0xffffffffffffffffffffffffffffffffffffffff\n      and\n      0xffffffffffffffffffffffffffffffffffffffff\n      and\n      dup2\n      mstore\n      0x20\n      add\n      swap1\n      dup2\n      mstore\n      0x20\n      add\n      0x00\n      keccak256\n      0x00\n        /* \"contracts/ERC20.sol\":2377:2416  allowance[sender][msg.sender] -= amount */\n      dup3\n      dup3\n      sload\n      tag_101\n      swap2\n      swap1\n      tag_102\n      jump\t// in\n    tag_101:\n      swap3\n      pop\n      pop\n      dup2\n      swap1\n      sstore\n      pop\n        /* \"contracts/ERC20.sol\":2448:2454  amount */\n      dup2\n        /* \"contracts/ERC20.sol\":2427:2436  balanceOf */\n      0x00\n        /* \"contracts/ERC20.sol\":2427:2444  balanceOf[sender] */\n      dup1\n        /* \"contracts/ERC20.sol\":2437:2443  sender */\n      dup7\n        /* \"contracts/ERC20.sol\":2427:2444  balanceOf[sender] */\n      0xffffffffffffffffffffffffffffffffffffffff\n      and\n      0xffffffffffffffffffffffffffffffffffffffff\n      and\n      dup2\n      mstore\n      0x20\n      add\n      swap1\n      dup2\n      mstore\n      0x20\n      add\n      0x00\n      keccak256\n      0x00\n        /* \"contracts/ERC20.sol\":2427:2454  balanceOf[sender] -= amount */\n      dup3\n      dup3\n      sload\n      tag_103\n      swap2\n      swap1\n      tag_102\n      jump\t// in\n    tag_103:\n      swap3\n      pop\n      pop\n      dup2\n      swap1\n      sstore\n      pop\n        /* \"contracts/ERC20.sol\":2489:2495  amount */\n      dup2\n        /* \"contracts/ERC20.sol\":2465:2474  balanceOf */\n      0x00\n        /* \"contracts/ERC20.sol\":2465:2485  balanceOf[recipient] */\n      dup1\n        /* \"contracts/ERC20.sol\":2475:2484  recipient */\n      dup6\n        /* \"contracts/ERC20.sol\":2465:2485  balanceOf[recipient] */\n      0xffffffffffffffffffffffffffffffffffffffff\n      and\n      0xffffffffffffffffffffffffffffffffffffffff\n      and\n      dup2\n      mstore\n      0x20\n      add\n      swap1\n      dup2\n      mstore\n      0x20\n      add\n      0x00\n      keccak256\n      0x00\n        /* \"contracts/ERC20.sol\":2465:2495  balanceOf[recipient] += amount */\n      dup3\n      dup3\n      sload\n      tag_104\n      swap2\n      swap1\n      tag_105\n      jump\t// in\n    tag_104:\n      swap3\n      pop\n      pop\n      dup2\n      swap1\n      sstore\n      pop\n        /* \"contracts/ERC20.sol\":2515:2519  true */\n      0x01\n        /* \"contracts/ERC20.sol\":2508:2519  return true */\n      swap1\n      pop\n        /* \"contracts/ERC20.sol\":2118:2527  function transferFrom(address sender,address recipient,uint amount) external returns (bool) {... */\n      swap4\n      swap3\n      pop\n      pop\n      pop\n      jump\t// out\n        /* \"contracts/ERC20.sol\":913:934  uint8 public decimals */\n    tag_47:\n      0x04\n      0x00\n      swap1\n      sload\n      swap1\n      0x0100\n      exp\n      swap1\n      div\n      0xff\n      and\n      dup2\n      jump\t// out\n        /* \"contracts/ERC20.sol\":3081:3253  function burn(uint amount) public {... */\n    tag_54:\n        /* \"contracts/ERC20.sol\":3151:3157  amount */\n      dup1\n        /* \"contracts/ERC20.sol\":3126:3135  balanceOf */\n      0x00\n        /* \"contracts/ERC20.sol\":3126:3147  balanceOf[msg.sender] */\n      dup1\n        /* \"contracts/ERC20.sol\":3136:3146  msg.sender */\n      caller\n        /* \"contracts/ERC20.sol\":3126:3147  balanceOf[msg.sender] */\n      0xffffffffffffffffffffffffffffffffffffffff\n      and\n      0xffffffffffffffffffffffffffffffffffffffff\n      and\n      dup2\n      mstore\n      0x20\n      add\n      swap1\n      dup2\n      mstore\n      0x20\n      add\n      0x00\n      keccak256\n      0x00\n        /* \"contracts/ERC20.sol\":3126:3157  balanceOf[msg.sender] -= amount */\n      dup3\n      dup3\n      sload\n      tag_107\n      swap2\n      swap1\n      tag_102\n      jump\t// in\n    tag_107:\n      swap3\n      pop\n      pop\n      dup2\n      swap1\n      sstore\n      pop\n        /* \"contracts/ERC20.sol\":3183:3189  amount */\n      dup1\n        /* \"contracts/ERC20.sol\":3168:3179  totalSupply */\n      0x02\n      0x00\n        /* \"contracts/ERC20.sol\":3168:3189  totalSupply -= amount */\n      dup3\n      dup3\n      sload\n      tag_108\n      swap2\n      swap1\n      tag_102\n      jump\t// in\n    tag_108:\n      swap3\n      pop\n      pop\n      dup2\n      swap1\n      sstore\n      pop\n        /* \"contracts/ERC20.sol\":3233:3234  0 */\n      0x00\n        /* \"contracts/ERC20.sol\":3205:3245  Transfer(msg.sender,address(0) , amount) */\n      0xffffffffffffffffffffffffffffffffffffffff\n      and\n        /* \"contracts/ERC20.sol\":3214:3224  msg.sender */\n      caller\n        /* \"contracts/ERC20.sol\":3205:3245  Transfer(msg.sender,address(0) , amount) */\n      0xffffffffffffffffffffffffffffffffffffffff\n      and\n      0xddf252ad1be2c89b69c2b068fc378daa952ba7f163c4a11628f55a4df523b3ef\n        /* \"contracts/ERC20.sol\":3238:3244  amount */\n      dup4\n        /* \"contracts/ERC20.sol\":3205:3245  Transfer(msg.sender,address(0) , amount) */\n      mload(0x40)\n      tag_109\n      swap2\n      swap1\n      tag_38\n      jump\t// in\n    tag_109:\n      mload(0x40)\n      dup1\n      swap2\n      sub\n      swap1\n      log3\n        /* \"contracts/ERC20.sol\":3081:3253  function burn(uint amount) public {... */\n      pop\n      jump\t// out\n        /* \"contracts/ERC20.sol\":2535:2706  function _mint(address to,uint256 amount) public {... */\n    tag_58:\n        /* \"contracts/ERC20.sol\":2612:2618  amount */\n      dup1\n        /* \"contracts/ERC20.sol\":2595:2604  balanceOf */\n      0x00\n        /* \"contracts/ERC20.sol\":2595:2608  balanceOf[to] */\n      dup1\n        /* \"contracts/ERC20.sol\":2605:2607  to */\n      dup5\n        /* \"contracts/ERC20.sol\":2595:2608  balanceOf[to] */\n      0xffffffffffffffffffffffffffffffffffffffff\n      and\n      0xffffffffffffffffffffffffffffffffffffffff\n      and\n      dup2\n      mstore\n      0x20\n      add\n      swap1\n      dup2\n      mstore\n      0x20\n      add\n      0x00\n      keccak256\n      0x00\n        /* \"contracts/ERC20.sol\":2595:2618  balanceOf[to] += amount */\n      dup3\n      dup3\n      sload\n      tag_111\n      swap2\n      swap1\n      tag_105\n      jump\t// in\n    tag_111:\n      swap3\n      pop\n      pop\n      dup2\n      swap1\n      sstore\n      pop\n        /* \"contracts/ERC20.sol\":2644:2650  amount */\n      dup1\n        /* \"contracts/ERC20.sol\":2629:2640  totalSupply */\n      0x02\n      0x00\n        /* \"contracts/ERC20.sol\":2629:2650  totalSupply += amount */\n      dup3\n      dup3\n      sload\n      tag_112\n      swap2\n      swap1\n      tag_105\n      jump\t// in\n    tag_112:\n      swap3\n      pop\n      pop\n      dup2\n      swap1\n      sstore\n      pop\n        /* \"contracts/ERC20.sol\":2687:2689  to */\n      dup2\n        /* \"contracts/ERC20.sol\":2666:2698  Transfer(address(0), to, amount) */\n      0xffffffffffffffffffffffffffffffffffffffff\n      and\n        /* \"contracts/ERC20.sol\":2683:2684  0 */\n      0x00\n        /* \"contracts/ERC20.sol\":2666:2698  Transfer(address(0), to, amount) */\n      0xffffffffffffffffffffffffffffffffffffffff\n      and\n      0xddf252ad1be2c89b69c2b068fc378daa952ba7f163c4a11628f55a4df523b3ef\n        /* \"contracts/ERC20.sol\":2691:2697  amount */\n      dup4\n        /* \"contracts/ERC20.sol\":2666:2698  Transfer(address(0), to, amount) */\n      mload(0x40)\n      tag_113\n      swap2\n      swap1\n      tag_38\n      jump\t// in\n    tag_113:\n      mload(0x40)\n      dup1\n      swap2\n      sub\n      swap1\n      log3\n        /* \"contracts/ERC20.sol\":2535:2706  function _mint(address to,uint256 amount) public {... */\n      pop\n      pop\n      jump\t// out\n        /* \"contracts/ERC20.sol\":2894:3073  function _burn(address from,uint256 amount) public {... */\n    tag_62:\n        /* \"contracts/ERC20.sol\":2975:2981  amount */\n      dup1\n        /* \"contracts/ERC20.sol\":2956:2965  balanceOf */\n      0x00\n        /* \"contracts/ERC20.sol\":2956:2971  balanceOf[from] */\n      dup1\n        /* \"contracts/ERC20.sol\":2966:2970  from */\n      dup5\n        /* \"contracts/ERC20.sol\":2956:2971  balanceOf[from] */\n      0xffffffffffffffffffffffffffffffffffffffff\n      and\n      0xffffffffffffffffffffffffffffffffffffffff\n      and\n      dup2\n      mstore\n      0x20\n      add\n      swap1\n      dup2\n      mstore\n      0x20\n      add\n      0x00\n      keccak256\n      0x00\n        /* \"contracts/ERC20.sol\":2956:2981  balanceOf[from] -= amount */\n      dup3\n      dup3\n      sload\n      tag_115\n      swap2\n      swap1\n      tag_102\n      jump\t// in\n    tag_115:\n      swap3\n      pop\n      pop\n      dup2\n      swap1\n      sstore\n      pop\n        /* \"contracts/ERC20.sol\":3007:3013  amount */\n      dup1\n        /* \"contracts/ERC20.sol\":2992:3003  totalSupply */\n      0x02\n      0x00\n        /* \"contracts/ERC20.sol\":2992:3013  totalSupply -= amount */\n      dup3\n      dup3\n      sload\n      tag_116\n      swap2\n      swap1\n      tag_102\n      jump\t// in\n    tag_116:\n      swap3\n      pop\n      pop\n      dup2\n      swap1\n      sstore\n      pop\n        /* \"contracts/ERC20.sol\":3053:3054  0 */\n      0x00\n        /* \"contracts/ERC20.sol\":3030:3065  Transfer(from ,address(0) , amount) */\n      0xffffffffffffffffffffffffffffffffffffffff\n      and\n        /* \"contracts/ERC20.sol\":3039:3043  from */\n      dup3\n        /* \"contracts/ERC20.sol\":3030:3065  Transfer(from ,address(0) , amount) */\n      0xffffffffffffffffffffffffffffffffffffffff\n      and\n      0xddf252ad1be2c89b69c2b068fc378daa952ba7f163c4a11628f55a4df523b3ef\n        /* \"contracts/ERC20.sol\":3058:3064  amount */\n      dup4\n        /* \"contracts/ERC20.sol\":3030:3065  Transfer(from ,address(0) , amount) */\n      mload(0x40)\n      tag_117\n      swap2\n      swap1\n      tag_38\n      jump\t// in\n    tag_117:\n      mload(0x40)\n      dup1\n      swap2\n      sub\n      swap1\n      log3\n        /* \"contracts/ERC20.sol\":2894:3073  function _burn(address from,uint256 amount) public {... */\n      pop\n      pop\n      jump\t// out\n        /* \"contracts/ERC20.sol\":744:783  mapping(address=>uint) public balanceOf */\n    tag_67:\n      mstore(0x20, 0x00)\n      dup1\n      0x00\n      mstore\n      keccak256(0x00, 0x40)\n      0x00\n      swap2\n      pop\n      swap1\n      pop\n      sload\n      dup2\n      jump\t// out\n        /* \"contracts/WETH.sol\":791:1105  function withdrawal(uint amount) public {... */\n    tag_72:\n        /* \"contracts/WETH.sol\":875:881  amount */\n      dup1\n        /* \"contracts/WETH.sol\":850:859  balanceOf */\n      0x00\n        /* \"contracts/WETH.sol\":850:871  balanceOf[msg.sender] */\n      dup1\n        /* \"contracts/WETH.sol\":860:870  msg.sender */\n      caller\n        /* \"contracts/WETH.sol\":850:871  balanceOf[msg.sender] */\n      0xffffffffffffffffffffffffffffffffffffffff\n      and\n      0xffffffffffffffffffffffffffffffffffffffff\n      and\n      dup2\n      mstore\n      0x20\n      add\n      swap1\n      dup2\n      mstore\n      0x20\n      add\n      0x00\n      keccak256\n      sload\n        /* \"contracts/WETH.sol\":850:881  balanceOf[msg.sender] >= amount */\n      lt\n      iszero\n        /* \"contracts/WETH.sol\":842:903  require(balanceOf[msg.sender] >= amount,\"Insufficient token\") */\n      tag_119\n      jumpi\n      mload(0x40)\n      0x08c379a000000000000000000000000000000000000000000000000000000000\n      dup2\n      mstore\n      0x04\n      add\n      tag_120\n      swap1\n      tag_121\n      jump\t// in\n    tag_120:\n      mload(0x40)\n      dup1\n      swap2\n      sub\n      swap1\n      revert\n    tag_119:\n        /* \"contracts/WETH.sol\":914:938  _burn(msg.sender,amount) */\n      tag_122\n        /* \"contracts/WETH.sol\":920:930  msg.sender */\n      caller\n        /* \"contracts/WETH.sol\":931:937  amount */\n      dup3\n        /* \"contracts/WETH.sol\":914:919  _burn */\n      tag_62\n        /* \"contracts/WETH.sol\":914:938  _burn(msg.sender,amount) */\n      jump\t// in\n    tag_122:\n        /* \"contracts/WETH.sol\":950:962  bool success */\n      0x00\n        /* \"contracts/WETH.sol\":975:985  msg.sender */\n      caller\n        /* \"contracts/WETH.sol\":967:991  payable(msg.sender).call */\n      0xffffffffffffffffffffffffffffffffffffffff\n      and\n        /* \"contracts/WETH.sol\":998:1004  amount */\n      dup3\n        /* \"contracts/WETH.sol\":967:1009  payable(msg.sender).call{value:amount}(\"\") */\n      mload(0x40)\n      tag_123\n      swap1\n      tag_124\n      jump\t// in\n    tag_123:\n      0x00\n      mload(0x40)\n      dup1\n      dup4\n      sub\n      dup2\n      dup6\n      dup8\n      gas\n      call\n      swap3\n      pop\n      pop\n      pop\n      returndatasize\n      dup1\n      0x00\n      dup2\n      eq\n      tag_127\n      jumpi\n      mload(0x40)\n      swap2\n      pop\n      and(add(returndatasize, 0x3f), not(0x1f))\n      dup3\n      add\n      0x40\n      mstore\n      returndatasize\n      dup3\n      mstore\n      returndatasize\n      0x00\n      0x20\n      dup5\n      add\n      returndatacopy\n      jump(tag_126)\n    tag_127:\n      0x60\n      swap2\n      pop\n    tag_126:\n      pop\n        /* \"contracts/WETH.sol\":949:1009  (bool success,) = payable(msg.sender).call{value:amount}(\"\") */\n      pop\n      swap1\n      pop\n        /* \"contracts/WETH.sol\":1028:1035  success */\n      dup1\n        /* \"contracts/WETH.sol\":1020:1052  require(success,\"transfer fail\") */\n      tag_128\n      jumpi\n      mload(0x40)\n      0x08c379a000000000000000000000000000000000000000000000000000000000\n      dup2\n      mstore\n      0x04\n      add\n      tag_129\n      swap1\n      tag_130\n      jump\t// in\n    tag_129:\n      mload(0x40)\n      dup1\n      swap2\n      sub\n      swap1\n      revert\n    tag_128:\n        /* \"contracts/WETH.sol\":1068:1097  Withdrawal(msg.sender,amount) */\n      0x7fcf532c15f0a6db0bd6d0e038bea71d30d808c7d98cb3bf7268a95bf5081b65\n        /* \"contracts/WETH.sol\":1079:1089  msg.sender */\n      caller\n        /* \"contracts/WETH.sol\":1090:1096  amount */\n      dup4\n        /* \"contracts/WETH.sol\":1068:1097  Withdrawal(msg.sender,amount) */\n      mload(0x40)\n      tag_131\n      swap3\n      swap2\n      swap1\n      tag_97\n      jump\t// in\n    tag_131:\n      mload(0x40)\n      dup1\n      swap2\n      sub\n      swap1\n      log1\n        /* \"contracts/WETH.sol\":831:1105  {... */\n      pop\n        /* \"contracts/WETH.sol\":791:1105  function withdrawal(uint amount) public {... */\n      pop\n      jump\t// out\n        /* \"contracts/ERC20.sol\":886:906  string public symbol */\n    tag_75:\n      0x03\n      dup1\n      sload\n      tag_132\n      swap1\n      tag_133\n      jump\t// in\n    tag_132:\n      dup1\n      0x1f\n      add\n      0x20\n      dup1\n      swap2\n      div\n      mul\n      0x20\n      add\n      mload(0x40)\n      swap1\n      dup2\n      add\n      0x40\n      mstore\n      dup1\n      swap3\n      swap2\n      swap1\n      dup2\n      dup2\n      mstore\n      0x20\n      add\n      dup3\n      dup1\n      sload\n      tag_134\n      swap1\n      tag_133\n      jump\t// in\n    tag_134:\n      dup1\n      iszero\n      tag_135\n      jumpi\n      dup1\n      0x1f\n      lt\n      tag_136\n      jumpi\n      0x0100\n      dup1\n      dup4\n      sload\n      div\n      mul\n      dup4\n      mstore\n      swap2\n      0x20\n      add\n      swap2\n      jump(tag_135)\n    tag_136:\n      dup3\n      add\n      swap2\n      swap1\n      0x00\n      mstore\n      keccak256(0x00, 0x20)\n      swap1\n    tag_137:\n      dup2\n      sload\n      dup2\n      mstore\n      swap1\n      0x01\n      add\n      swap1\n      0x20\n      add\n      dup1\n      dup4\n      gt\n      tag_137\n      jumpi\n      dup3\n      swap1\n      sub\n      0x1f\n      and\n      dup3\n      add\n      swap2\n    tag_135:\n      pop\n      pop\n      pop\n      pop\n      pop\n      dup2\n      jump\t// out\n        /* \"contracts/ERC20.sol\":2714:2886  function mint(uint amount) public {... */\n    tag_81:\n        /* \"contracts/ERC20.sol\":2784:2790  amount */\n      dup1\n        /* \"contracts/ERC20.sol\":2759:2768  balanceOf */\n      0x00\n        /* \"contracts/ERC20.sol\":2759:2780  balanceOf[msg.sender] */\n      dup1\n        /* \"contracts/ERC20.sol\":2769:2779  msg.sender */\n      caller\n        /* \"contracts/ERC20.sol\":2759:2780  balanceOf[msg.sender] */\n      0xffffffffffffffffffffffffffffffffffffffff\n      and\n      0xffffffffffffffffffffffffffffffffffffffff\n      and\n      dup2\n      mstore\n      0x20\n      add\n      swap1\n      dup2\n      mstore\n      0x20\n      add\n      0x00\n      keccak256\n      0x00\n        /* \"contracts/ERC20.sol\":2759:2790  balanceOf[msg.sender] += amount */\n      dup3\n      dup3\n      sload\n      tag_139\n      swap2\n      swap1\n      tag_105\n      jump\t// in\n    tag_139:\n      swap3\n      pop\n      pop\n      dup2\n      swap1\n      sstore\n      pop\n        /* \"contracts/ERC20.sol\":2816:2822  amount */\n      dup1\n        /* \"contracts/ERC20.sol\":2801:2812  totalSupply */\n      0x02\n      0x00\n        /* \"contracts/ERC20.sol\":2801:2822  totalSupply += amount */\n      dup3\n      dup3\n      sload\n      tag_140\n      swap2\n      swap1\n      tag_105\n      jump\t// in\n    tag_140:\n      swap3\n      pop\n      pop\n      dup2\n      swap1\n      sstore\n      pop\n        /* \"contracts/ERC20.sol\":2859:2869  msg.sender */\n      caller\n        /* \"contracts/ERC20.sol\":2838:2878  Transfer(address(0), msg.sender, amount) */\n      0xffffffffffffffffffffffffffffffffffffffff\n      and\n        /* \"contracts/ERC20.sol\":2855:2856  0 */\n      0x00\n        /* \"contracts/ERC20.sol\":2838:2878  Transfer(address(0), msg.sender, amount) */\n      0xffffffffffffffffffffffffffffffffffffffff\n      and\n      0xddf252ad1be2c89b69c2b068fc378daa952ba7f163c4a11628f55a4df523b3ef\n        /* \"contracts/ERC20.sol\":2871:2877  amount */\n      dup4\n        /* \"contracts/ERC20.sol\":2838:2878  Transfer(address(0), msg.sender, amount) */\n      mload(0x40)\n      tag_141\n      swap2\n      swap1\n      tag_38\n      jump\t// in\n    tag_141:\n      mload(0x40)\n      dup1\n      swap2\n      sub\n      swap1\n      log3\n        /* \"contracts/ERC20.sol\":2714:2886  function mint(uint amount) public {... */\n      pop\n      jump\t// out\n        /* \"contracts/ERC20.sol\":1130:1367  function transfer(address receiver,uint amount) external returns(bool) {... */\n    tag_86:\n        /* \"contracts/ERC20.sol\":1195:1199  bool */\n      0x00\n        /* \"contracts/ERC20.sol\":1237:1243  amount */\n      dup2\n        /* \"contracts/ERC20.sol\":1212:1221  balanceOf */\n      0x00\n        /* \"contracts/ERC20.sol\":1212:1233  balanceOf[msg.sender] */\n      dup1\n        /* \"contracts/ERC20.sol\":1222:1232  msg.sender */\n      caller\n        /* \"contracts/ERC20.sol\":1212:1233  balanceOf[msg.sender] */\n      0xffffffffffffffffffffffffffffffffffffffff\n      and\n      0xffffffffffffffffffffffffffffffffffffffff\n      and\n      dup2\n      mstore\n      0x20\n      add\n      swap1\n      dup2\n      mstore\n      0x20\n      add\n      0x00\n      keccak256\n      0x00\n        /* \"contracts/ERC20.sol\":1212:1243  balanceOf[msg.sender] -= amount */\n      dup3\n      dup3\n      sload\n      tag_143\n      swap2\n      swap1\n      tag_102\n      jump\t// in\n    tag_143:\n      swap3\n      pop\n      pop\n      dup2\n      swap1\n      sstore\n      pop\n        /* \"contracts/ERC20.sol\":1277:1283  amount */\n      dup2\n        /* \"contracts/ERC20.sol\":1254:1263  balanceOf */\n      0x00\n        /* \"contracts/ERC20.sol\":1254:1273  balanceOf[receiver] */\n      dup1\n        /* \"contracts/ERC20.sol\":1264:1272  receiver */\n      dup6\n        /* \"contracts/ERC20.sol\":1254:1273  balanceOf[receiver] */\n      0xffffffffffffffffffffffffffffffffffffffff\n      and\n      0xffffffffffffffffffffffffffffffffffffffff\n      and\n      dup2\n      mstore\n      0x20\n      add\n      swap1\n      dup2\n      mstore\n      0x20\n      add\n      0x00\n      keccak256\n      0x00\n        /* \"contracts/ERC20.sol\":1254:1283  balanceOf[receiver] += amount */\n      dup3\n      dup3\n      sload\n      tag_144\n      swap2\n      swap1\n      tag_105\n      jump\t// in\n    tag_144:\n      swap3\n      pop\n      pop\n      dup2\n      swap1\n      sstore\n      pop\n        /* \"contracts/ERC20.sol\":1320:1328  receiver */\n      dup3\n        /* \"contracts/ERC20.sol\":1299:1337  Transfer(msg.sender, receiver, amount) */\n      0xffffffffffffffffffffffffffffffffffffffff\n      and\n        /* \"contracts/ERC20.sol\":1308:1318  msg.sender */\n      caller\n        /* \"contracts/ERC20.sol\":1299:1337  Transfer(msg.sender, receiver, amount) */\n      0xffffffffffffffffffffffffffffffffffffffff\n      and\n      0xddf252ad1be2c89b69c2b068fc378daa952ba7f163c4a11628f55a4df523b3ef\n        /* \"contracts/ERC20.sol\":1330:1336  amount */\n      dup5\n        /* \"contracts/ERC20.sol\":1299:1337  Transfer(msg.sender, receiver, amount) */\n      mload(0x40)\n      tag_145\n      swap2\n      swap1\n      tag_38\n      jump\t// in\n    tag_145:\n      mload(0x40)\n      dup1\n      swap2\n      sub\n      swap1\n      log3\n        /* \"contracts/ERC20.sol\":1355:1359  true */\n      0x01\n        /* \"contracts/ERC20.sol\":1348:1359  return true */\n      swap1\n      pop\n        /* \"contracts/ERC20.sol\":1130:1367  function transfer(address receiver,uint amount) external returns(bool) {... */\n      swap3\n      swap2\n      pop\n      pop\n      jump\t// out\n        /* \"contracts/ERC20.sol\":790:847  mapping(address=>mapping(address=>uint)) public allowance */\n    tag_92:\n      mstore(0x20, 0x01)\n      dup2\n      0x00\n      mstore\n      mstore(0x20, keccak256(0x00, 0x40))\n      dup1\n      0x00\n      mstore\n      keccak256(0x00, 0x40)\n      0x00\n      swap2\n      pop\n      swap2\n      pop\n      pop\n      sload\n      dup2\n      jump\t// out\n        /* \"#utility.yul\":88:205   */\n    tag_147:\n        /* \"#utility.yul\":197:198   */\n      0x00\n        /* \"#utility.yul\":194:195   */\n      dup1\n        /* \"#utility.yul\":187:199   */\n      revert\n        /* \"#utility.yul\":334:460   */\n    tag_149:\n        /* \"#utility.yul\":371:378   */\n      0x00\n        /* \"#utility.yul\":411:453   */\n      0xffffffffffffffffffffffffffffffffffffffff\n        /* \"#utility.yul\":404:409   */\n      dup3\n        /* \"#utility.yul\":400:454   */\n      and\n        /* \"#utility.yul\":389:454   */\n      swap1\n      pop\n        /* \"#utility.yul\":334:460   */\n      swap2\n      swap1\n      pop\n      jump\t// out\n        /* \"#utility.yul\":466:562   */\n    tag_150:\n        /* \"#utility.yul\":503:510   */\n      0x00\n        /* \"#utility.yul\":532:556   */\n      tag_182\n        /* \"#utility.yul\":550:555   */\n      dup3\n        /* \"#utility.yul\":532:556   */\n      tag_149\n      jump\t// in\n    tag_182:\n        /* \"#utility.yul\":521:556   */\n      swap1\n      pop\n        /* \"#utility.yul\":466:562   */\n      swap2\n      swap1\n      pop\n      jump\t// out\n        /* \"#utility.yul\":568:690   */\n    tag_151:\n        /* \"#utility.yul\":641:665   */\n      tag_184\n        /* \"#utility.yul\":659:664   */\n      dup2\n        /* \"#utility.yul\":641:665   */\n      tag_150\n      jump\t// in\n    tag_184:\n        /* \"#utility.yul\":634:639   */\n      dup2\n        /* \"#utility.yul\":631:666   */\n      eq\n        /* \"#utility.yul\":621:684   */\n      tag_185\n      jumpi\n        /* \"#utility.yul\":680:681   */\n      0x00\n        /* \"#utility.yul\":677:678   */\n      dup1\n        /* \"#utility.yul\":670:682   */\n      revert\n        /* \"#utility.yul\":621:684   */\n    tag_185:\n        /* \"#utility.yul\":568:690   */\n      pop\n      jump\t// out\n        /* \"#utility.yul\":696:835   */\n    tag_152:\n        /* \"#utility.yul\":742:747   */\n      0x00\n        /* \"#utility.yul\":780:786   */\n      dup2\n        /* \"#utility.yul\":767:787   */\n      calldataload\n        /* \"#utility.yul\":758:787   */\n      swap1\n      pop\n        /* \"#utility.yul\":796:829   */\n      tag_187\n        /* \"#utility.yul\":823:828   */\n      dup2\n        /* \"#utility.yul\":796:829   */\n      tag_151\n      jump\t// in\n    tag_187:\n        /* \"#utility.yul\":696:835   */\n      swap3\n      swap2\n      pop\n      pop\n      jump\t// out\n        /* \"#utility.yul\":841:918   */\n    tag_153:\n        /* \"#utility.yul\":878:885   */\n      0x00\n        /* \"#utility.yul\":907:912   */\n      dup2\n        /* \"#utility.yul\":896:912   */\n      swap1\n      pop\n        /* \"#utility.yul\":841:918   */\n      swap2\n      swap1\n      pop\n      jump\t// out\n        /* \"#utility.yul\":924:1046   */\n    tag_154:\n        /* \"#utility.yul\":997:1021   */\n      tag_190\n        /* \"#utility.yul\":1015:1020   */\n      dup2\n        /* \"#utility.yul\":997:1021   */\n      tag_153\n      jump\t// in\n    tag_190:\n        /* \"#utility.yul\":990:995   */\n      dup2\n        /* \"#utility.yul\":987:1022   */\n      eq\n        /* \"#utility.yul\":977:1040   */\n      tag_191\n      jumpi\n        /* \"#utility.yul\":1036:1037   */\n      0x00\n        /* \"#utility.yul\":1033:1034   */\n      dup1\n        /* \"#utility.yul\":1026:1038   */\n      revert\n        /* \"#utility.yul\":977:1040   */\n    tag_191:\n        /* \"#utility.yul\":924:1046   */\n      pop\n      jump\t// out\n        /* \"#utility.yul\":1052:1191   */\n    tag_155:\n        /* \"#utility.yul\":1098:1103   */\n      0x00\n        /* \"#utility.yul\":1136:1142   */\n      dup2\n        /* \"#utility.yul\":1123:1143   */\n      calldataload\n        /* \"#utility.yul\":1114:1143   */\n      swap1\n      pop\n        /* \"#utility.yul\":1152:1185   */\n      tag_193\n        /* \"#utility.yul\":1179:1184   */\n      dup2\n        /* \"#utility.yul\":1152:1185   */\n      tag_154\n      jump\t// in\n    tag_193:\n        /* \"#utility.yul\":1052:1191   */\n      swap3\n      swap2\n      pop\n      pop\n      jump\t// out\n        /* \"#utility.yul\":1197:1671   */\n    tag_30:\n        /* \"#utility.yul\":1265:1271   */\n      0x00\n        /* \"#utility.yul\":1273:1279   */\n      dup1\n        /* \"#utility.yul\":1322:1324   */\n      0x40\n        /* \"#utility.yul\":1310:1319   */\n      dup4\n        /* \"#utility.yul\":1301:1308   */\n      dup6\n        /* \"#utility.yul\":1297:1320   */\n      sub\n        /* \"#utility.yul\":1293:1325   */\n      slt\n        /* \"#utility.yul\":1290:1409   */\n      iszero\n      tag_195\n      jumpi\n        /* \"#utility.yul\":1328:1407   */\n      tag_196\n      tag_147\n      jump\t// in\n    tag_196:\n        /* \"#utility.yul\":1290:1409   */\n    tag_195:\n        /* \"#utility.yul\":1448:1449   */\n      0x00\n        /* \"#utility.yul\":1473:1526   */\n      tag_197\n        /* \"#utility.yul\":1518:1525   */\n      dup6\n        /* \"#utility.yul\":1509:1515   */\n      dup3\n        /* \"#utility.yul\":1498:1507   */\n      dup7\n        /* \"#utility.yul\":1494:1516   */\n      add\n        /* \"#utility.yul\":1473:1526   */\n      tag_152\n      jump\t// in\n    tag_197:\n        /* \"#utility.yul\":1463:1526   */\n      swap3\n      pop\n        /* \"#utility.yul\":1419:1536   */\n      pop\n        /* \"#utility.yul\":1575:1577   */\n      0x20\n        /* \"#utility.yul\":1601:1654   */\n      tag_198\n        /* \"#utility.yul\":1646:1653   */\n      dup6\n        /* \"#utility.yul\":1637:1643   */\n      dup3\n        /* \"#utility.yul\":1626:1635   */\n      dup7\n        /* \"#utility.yul\":1622:1644   */\n      add\n        /* \"#utility.yul\":1601:1654   */\n      tag_155\n      jump\t// in\n    tag_198:\n        /* \"#utility.yul\":1591:1654   */\n      swap2\n      pop\n        /* \"#utility.yul\":1546:1664   */\n      pop\n        /* \"#utility.yul\":1197:1671   */\n      swap3\n      pop\n      swap3\n      swap1\n      pop\n      jump\t// out\n        /* \"#utility.yul\":1677:1767   */\n    tag_156:\n        /* \"#utility.yul\":1711:1718   */\n      0x00\n        /* \"#utility.yul\":1754:1759   */\n      dup2\n        /* \"#utility.yul\":1747:1760   */\n      iszero\n        /* \"#utility.yul\":1740:1761   */\n      iszero\n        /* \"#utility.yul\":1729:1761   */\n      swap1\n      pop\n        /* \"#utility.yul\":1677:1767   */\n      swap2\n      swap1\n      pop\n      jump\t// out\n        /* \"#utility.yul\":1773:1882   */\n    tag_157:\n        /* \"#utility.yul\":1854:1875   */\n      tag_201\n        /* \"#utility.yul\":1869:1874   */\n      dup2\n        /* \"#utility.yul\":1854:1875   */\n      tag_156\n      jump\t// in\n    tag_201:\n        /* \"#utility.yul\":1849:1852   */\n      dup3\n        /* \"#utility.yul\":1842:1876   */\n      mstore\n        /* \"#utility.yul\":1773:1882   */\n      pop\n      pop\n      jump\t// out\n        /* \"#utility.yul\":1888:2098   */\n    tag_33:\n        /* \"#utility.yul\":1975:1979   */\n      0x00\n        /* \"#utility.yul\":2013:2015   */\n      0x20\n        /* \"#utility.yul\":2002:2011   */\n      dup3\n        /* \"#utility.yul\":1998:2016   */\n      add\n        /* \"#utility.yul\":1990:2016   */\n      swap1\n      pop\n        /* \"#utility.yul\":2026:2091   */\n      tag_203\n        /* \"#utility.yul\":2088:2089   */\n      0x00\n        /* \"#utility.yul\":2077:2086   */\n      dup4\n        /* \"#utility.yul\":2073:2090   */\n      add\n        /* \"#utility.yul\":2064:2070   */\n      dup5\n        /* \"#utility.yul\":2026:2091   */\n      tag_157\n      jump\t// in\n    tag_203:\n        /* \"#utility.yul\":1888:2098   */\n      swap3\n      swap2\n      pop\n      pop\n      jump\t// out\n        /* \"#utility.yul\":2104:2222   */\n    tag_158:\n        /* \"#utility.yul\":2191:2215   */\n      tag_205\n        /* \"#utility.yul\":2209:2214   */\n      dup2\n        /* \"#utility.yul\":2191:2215   */\n      tag_153\n      jump\t// in\n    tag_205:\n        /* \"#utility.yul\":2186:2189   */\n      dup3\n        /* \"#utility.yul\":2179:2216   */\n      mstore\n        /* \"#utility.yul\":2104:2222   */\n      pop\n      pop\n      jump\t// out\n        /* \"#utility.yul\":2228:2450   */\n    tag_38:\n        /* \"#utility.yul\":2321:2325   */\n      0x00\n        /* \"#utility.yul\":2359:2361   */\n      0x20\n        /* \"#utility.yul\":2348:2357   */\n      dup3\n        /* \"#utility.yul\":2344:2362   */\n      add\n        /* \"#utility.yul\":2336:2362   */\n      swap1\n      pop\n        /* \"#utility.yul\":2372:2443   */\n      tag_207\n        /* \"#utility.yul\":2440:2441   */\n      0x00\n        /* \"#utility.yul\":2429:2438   */\n      dup4\n        /* \"#utility.yul\":2425:2442   */\n      add\n        /* \"#utility.yul\":2416:2422   */\n      dup5\n        /* \"#utility.yul\":2372:2443   */\n      tag_158\n      jump\t// in\n    tag_207:\n        /* \"#utility.yul\":2228:2450   */\n      swap3\n      swap2\n      pop\n      pop\n      jump\t// out\n        /* \"#utility.yul\":2456:3075   */\n    tag_42:\n        /* \"#utility.yul\":2533:2539   */\n      0x00\n        /* \"#utility.yul\":2541:2547   */\n      dup1\n        /* \"#utility.yul\":2549:2555   */\n      0x00\n        /* \"#utility.yul\":2598:2600   */\n      0x60\n        /* \"#utility.yul\":2586:2595   */\n      dup5\n        /* \"#utility.yul\":2577:2584   */\n      dup7\n        /* \"#utility.yul\":2573:2596   */\n      sub\n        /* \"#utility.yul\":2569:2601   */\n      slt\n        /* \"#utility.yul\":2566:2685   */\n      iszero\n      tag_209\n      jumpi\n        /* \"#utility.yul\":2604:2683   */\n      tag_210\n      tag_147\n      jump\t// in\n    tag_210:\n        /* \"#utility.yul\":2566:2685   */\n    tag_209:\n        /* \"#utility.yul\":2724:2725   */\n      0x00\n        /* \"#utility.yul\":2749:2802   */\n      tag_211\n        /* \"#utility.yul\":2794:2801   */\n      dup7\n        /* \"#utility.yul\":2785:2791   */\n      dup3\n        /* \"#utility.yul\":2774:2783   */\n      dup8\n        /* \"#utility.yul\":2770:2792   */\n      add\n        /* \"#utility.yul\":2749:2802   */\n      tag_152\n      jump\t// in\n    tag_211:\n        /* \"#utility.yul\":2739:2802   */\n      swap4\n      pop\n        /* \"#utility.yul\":2695:2812   */\n      pop\n        /* \"#utility.yul\":2851:2853   */\n      0x20\n        /* \"#utility.yul\":2877:2930   */\n      tag_212\n        /* \"#utility.yul\":2922:2929   */\n      dup7\n        /* \"#utility.yul\":2913:2919   */\n      dup3\n        /* \"#utility.yul\":2902:2911   */\n      dup8\n        /* \"#utility.yul\":2898:2920   */\n      add\n        /* \"#utility.yul\":2877:2930   */\n      tag_152\n      jump\t// in\n    tag_212:\n        /* \"#utility.yul\":2867:2930   */\n      swap3\n      pop\n        /* \"#utility.yul\":2822:2940   */\n      pop\n        /* \"#utility.yul\":2979:2981   */\n      0x40\n        /* \"#utility.yul\":3005:3058   */\n      tag_213\n        /* \"#utility.yul\":3050:3057   */\n      dup7\n        /* \"#utility.yul\":3041:3047   */\n      dup3\n        /* \"#utility.yul\":3030:3039   */\n      dup8\n        /* \"#utility.yul\":3026:3048   */\n      add\n        /* \"#utility.yul\":3005:3058   */\n      tag_155\n      jump\t// in\n    tag_213:\n        /* \"#utility.yul\":2995:3058   */\n      swap2\n      pop\n        /* \"#utility.yul\":2950:3068   */\n      pop\n        /* \"#utility.yul\":2456:3075   */\n      swap3\n      pop\n      swap3\n      pop\n      swap3\n      jump\t// out\n        /* \"#utility.yul\":3081:3167   */\n    tag_159:\n        /* \"#utility.yul\":3116:3123   */\n      0x00\n        /* \"#utility.yul\":3156:3160   */\n      0xff\n        /* \"#utility.yul\":3149:3154   */\n      dup3\n        /* \"#utility.yul\":3145:3161   */\n      and\n        /* \"#utility.yul\":3134:3161   */\n      swap1\n      pop\n        /* \"#utility.yul\":3081:3167   */\n      swap2\n      swap1\n      pop\n      jump\t// out\n        /* \"#utility.yul\":3173:3285   */\n    tag_160:\n        /* \"#utility.yul\":3256:3278   */\n      tag_216\n        /* \"#utility.yul\":3272:3277   */\n      dup2\n        /* \"#utility.yul\":3256:3278   */\n      tag_159\n      jump\t// in\n    tag_216:\n        /* \"#utility.yul\":3251:3254   */\n      dup3\n        /* \"#utility.yul\":3244:3279   */\n      mstore\n        /* \"#utility.yul\":3173:3285   */\n      pop\n      pop\n      jump\t// out\n        /* \"#utility.yul\":3291:3505   */\n    tag_49:\n        /* \"#utility.yul\":3380:3384   */\n      0x00\n        /* \"#utility.yul\":3418:3420   */\n      0x20\n        /* \"#utility.yul\":3407:3416   */\n      dup3\n        /* \"#utility.yul\":3403:3421   */\n      add\n        /* \"#utility.yul\":3395:3421   */\n      swap1\n      pop\n        /* \"#utility.yul\":3431:3498   */\n      tag_218\n        /* \"#utility.yul\":3495:3496   */\n      0x00\n        /* \"#utility.yul\":3484:3493   */\n      dup4\n        /* \"#utility.yul\":3480:3497   */\n      add\n        /* \"#utility.yul\":3471:3477   */\n      dup5\n        /* \"#utility.yul\":3431:3498   */\n      tag_160\n      jump\t// in\n    tag_218:\n        /* \"#utility.yul\":3291:3505   */\n      swap3\n      swap2\n      pop\n      pop\n      jump\t// out\n        /* \"#utility.yul\":3511:3840   */\n    tag_53:\n        /* \"#utility.yul\":3570:3576   */\n      0x00\n        /* \"#utility.yul\":3619:3621   */\n      0x20\n        /* \"#utility.yul\":3607:3616   */\n      dup3\n        /* \"#utility.yul\":3598:3605   */\n      dup5\n        /* \"#utility.yul\":3594:3617   */\n      sub\n        /* \"#utility.yul\":3590:3622   */\n      slt\n        /* \"#utility.yul\":3587:3706   */\n      iszero\n      tag_220\n      jumpi\n        /* \"#utility.yul\":3625:3704   */\n      tag_221\n      tag_147\n      jump\t// in\n    tag_221:\n        /* \"#utility.yul\":3587:3706   */\n    tag_220:\n        /* \"#utility.yul\":3745:3746   */\n      0x00\n        /* \"#utility.yul\":3770:3823   */\n      tag_222\n        /* \"#utility.yul\":3815:3822   */\n      dup5\n        /* \"#utility.yul\":3806:3812   */\n      dup3\n        /* \"#utility.yul\":3795:3804   */\n      dup6\n        /* \"#utility.yul\":3791:3813   */\n      add\n        /* \"#utility.yul\":3770:3823   */\n      tag_155\n      jump\t// in\n    tag_222:\n        /* \"#utility.yul\":3760:3823   */\n      swap2\n      pop\n        /* \"#utility.yul\":3716:3833   */\n      pop\n        /* \"#utility.yul\":3511:3840   */\n      swap3\n      swap2\n      pop\n      pop\n      jump\t// out\n        /* \"#utility.yul\":3846:4175   */\n    tag_66:\n        /* \"#utility.yul\":3905:3911   */\n      0x00\n        /* \"#utility.yul\":3954:3956   */\n      0x20\n        /* \"#utility.yul\":3942:3951   */\n      dup3\n        /* \"#utility.yul\":3933:3940   */\n      dup5\n        /* \"#utility.yul\":3929:3952   */\n      sub\n        /* \"#utility.yul\":3925:3957   */\n      slt\n        /* \"#utility.yul\":3922:4041   */\n      iszero\n      tag_224\n      jumpi\n        /* \"#utility.yul\":3960:4039   */\n      tag_225\n      tag_147\n      jump\t// in\n    tag_225:\n        /* \"#utility.yul\":3922:4041   */\n    tag_224:\n        /* \"#utility.yul\":4080:4081   */\n      0x00\n        /* \"#utility.yul\":4105:4158   */\n      tag_226\n        /* \"#utility.yul\":4150:4157   */\n      dup5\n        /* \"#utility.yul\":4141:4147   */\n      dup3\n        /* \"#utility.yul\":4130:4139   */\n      dup6\n        /* \"#utility.yul\":4126:4148   */\n      add\n        /* \"#utility.yul\":4105:4158   */\n      tag_152\n      jump\t// in\n    tag_226:\n        /* \"#utility.yul\":4095:4158   */\n      swap2\n      pop\n        /* \"#utility.yul\":4051:4168   */\n      pop\n        /* \"#utility.yul\":3846:4175   */\n      swap3\n      swap2\n      pop\n      pop\n      jump\t// out\n        /* \"#utility.yul\":4181:4280   */\n    tag_161:\n        /* \"#utility.yul\":4233:4239   */\n      0x00\n        /* \"#utility.yul\":4267:4272   */\n      dup2\n        /* \"#utility.yul\":4261:4273   */\n      mload\n        /* \"#utility.yul\":4251:4273   */\n      swap1\n      pop\n        /* \"#utility.yul\":4181:4280   */\n      swap2\n      swap1\n      pop\n      jump\t// out\n        /* \"#utility.yul\":4286:4455   */\n    tag_162:\n        /* \"#utility.yul\":4370:4381   */\n      0x00\n        /* \"#utility.yul\":4404:4410   */\n      dup3\n        /* \"#utility.yul\":4399:4402   */\n      dup3\n        /* \"#utility.yul\":4392:4411   */\n      mstore\n        /* \"#utility.yul\":4444:4448   */\n      0x20\n        /* \"#utility.yul\":4439:4442   */\n      dup3\n        /* \"#utility.yul\":4435:4449   */\n      add\n        /* \"#utility.yul\":4420:4449   */\n      swap1\n      pop\n        /* \"#utility.yul\":4286:4455   */\n      swap3\n      swap2\n      pop\n      pop\n      jump\t// out\n        /* \"#utility.yul\":4461:4600   */\n    tag_163:\n        /* \"#utility.yul\":4550:4556   */\n      dup3\n        /* \"#utility.yul\":4545:4548   */\n      dup2\n        /* \"#utility.yul\":4540:4543   */\n      dup4\n        /* \"#utility.yul\":4534:4557   */\n      mcopy\n        /* \"#utility.yul\":4591:4592   */\n      0x00\n        /* \"#utility.yul\":4582:4588   */\n      dup4\n        /* \"#utility.yul\":4577:4580   */\n      dup4\n        /* \"#utility.yul\":4573:4589   */\n      add\n        /* \"#utility.yul\":4566:4593   */\n      mstore\n        /* \"#utility.yul\":4461:4600   */\n      pop\n      pop\n      pop\n      jump\t// out\n        /* \"#utility.yul\":4606:4708   */\n    tag_164:\n        /* \"#utility.yul\":4647:4653   */\n      0x00\n        /* \"#utility.yul\":4698:4700   */\n      0x1f\n        /* \"#utility.yul\":4694:4701   */\n      not\n        /* \"#utility.yul\":4689:4691   */\n      0x1f\n        /* \"#utility.yul\":4682:4687   */\n      dup4\n        /* \"#utility.yul\":4678:4692   */\n      add\n        /* \"#utility.yul\":4674:4702   */\n      and\n        /* \"#utility.yul\":4664:4702   */\n      swap1\n      pop\n        /* \"#utility.yul\":4606:4708   */\n      swap2\n      swap1\n      pop\n      jump\t// out\n        /* \"#utility.yul\":4714:5091   */\n    tag_165:\n        /* \"#utility.yul\":4802:4805   */\n      0x00\n        /* \"#utility.yul\":4830:4869   */\n      tag_232\n        /* \"#utility.yul\":4863:4868   */\n      dup3\n        /* \"#utility.yul\":4830:4869   */\n      tag_161\n      jump\t// in\n    tag_232:\n        /* \"#utility.yul\":4885:4956   */\n      tag_233\n        /* \"#utility.yul\":4949:4955   */\n      dup2\n        /* \"#utility.yul\":4944:4947   */\n      dup6\n        /* \"#utility.yul\":4885:4956   */\n      tag_162\n      jump\t// in\n    tag_233:\n        /* \"#utility.yul\":4878:4956   */\n      swap4\n      pop\n        /* \"#utility.yul\":4965:5030   */\n      tag_234\n        /* \"#utility.yul\":5023:5029   */\n      dup2\n        /* \"#utility.yul\":5018:5021   */\n      dup6\n        /* \"#utility.yul\":5011:5015   */\n      0x20\n        /* \"#utility.yul\":5004:5009   */\n      dup7\n        /* \"#utility.yul\":5000:5016   */\n      add\n        /* \"#utility.yul\":4965:5030   */\n      tag_163\n      jump\t// in\n    tag_234:\n        /* \"#utility.yul\":5055:5084   */\n      tag_235\n        /* \"#utility.yul\":5077:5083   */\n      dup2\n        /* \"#utility.yul\":5055:5084   */\n      tag_164\n      jump\t// in\n    tag_235:\n        /* \"#utility.yul\":5050:5053   */\n      dup5\n        /* \"#utility.yul\":5046:5085   */\n      add\n        /* \"#utility.yul\":5039:5085   */\n      swap2\n      pop\n        /* \"#utility.yul\":4806:5091   */\n      pop\n        /* \"#utility.yul\":4714:5091   */\n      swap3\n      swap2\n      pop\n      pop\n      jump\t// out\n        /* \"#utility.yul\":5097:5410   */\n    tag_77:\n        /* \"#utility.yul\":5210:5214   */\n      0x00\n        /* \"#utility.yul\":5248:5250   */\n      0x20\n        /* \"#utility.yul\":5237:5246   */\n      dup3\n        /* \"#utility.yul\":5233:5251   */\n      add\n        /* \"#utility.yul\":5225:5251   */\n      swap1\n      pop\n        /* \"#utility.yul\":5297:5306   */\n      dup2\n        /* \"#utility.yul\":5291:5295   */\n      dup2\n        /* \"#utility.yul\":5287:5307   */\n      sub\n        /* \"#utility.yul\":5283:5284   */\n      0x00\n        /* \"#utility.yul\":5272:5281   */\n      dup4\n        /* \"#utility.yul\":5268:5285   */\n      add\n        /* \"#utility.yul\":5261:5308   */\n      mstore\n        /* \"#utility.yul\":5325:5403   */\n      tag_237\n        /* \"#utility.yul\":5398:5402   */\n      dup2\n        /* \"#utility.yul\":5389:5395   */\n      dup5\n        /* \"#utility.yul\":5325:5403   */\n      tag_165\n      jump\t// in\n    tag_237:\n        /* \"#utility.yul\":5317:5403   */\n      swap1\n      pop\n        /* \"#utility.yul\":5097:5410   */\n      swap3\n      swap2\n      pop\n      pop\n      jump\t// out\n        /* \"#utility.yul\":5416:5890   */\n    tag_91:\n        /* \"#utility.yul\":5484:5490   */\n      0x00\n        /* \"#utility.yul\":5492:5498   */\n      dup1\n        /* \"#utility.yul\":5541:5543   */\n      0x40\n        /* \"#utility.yul\":5529:5538   */\n      dup4\n        /* \"#utility.yul\":5520:5527   */\n      dup6\n        /* \"#utility.yul\":5516:5539   */\n      sub\n        /* \"#utility.yul\":5512:5544   */\n      slt\n        /* \"#utility.yul\":5509:5628   */\n      iszero\n      tag_239\n      jumpi\n        /* \"#utility.yul\":5547:5626   */\n      tag_240\n      tag_147\n      jump\t// in\n    tag_240:\n        /* \"#utility.yul\":5509:5628   */\n    tag_239:\n        /* \"#utility.yul\":5667:5668   */\n      0x00\n        /* \"#utility.yul\":5692:5745   */\n      tag_241\n        /* \"#utility.yul\":5737:5744   */\n      dup6\n        /* \"#utility.yul\":5728:5734   */\n      dup3\n        /* \"#utility.yul\":5717:5726   */\n      dup7\n        /* \"#utility.yul\":5713:5735   */\n      add\n        /* \"#utility.yul\":5692:5745   */\n      tag_152\n      jump\t// in\n    tag_241:\n        /* \"#utility.yul\":5682:5745   */\n      swap3\n      pop\n        /* \"#utility.yul\":5638:5755   */\n      pop\n        /* \"#utility.yul\":5794:5796   */\n      0x20\n        /* \"#utility.yul\":5820:5873   */\n      tag_242\n        /* \"#utility.yul\":5865:5872   */\n      dup6\n        /* \"#utility.yul\":5856:5862   */\n      dup3\n        /* \"#utility.yul\":5845:5854   */\n      dup7\n        /* \"#utility.yul\":5841:5863   */\n      add\n        /* \"#utility.yul\":5820:5873   */\n      tag_152\n      jump\t// in\n    tag_242:\n        /* \"#utility.yul\":5810:5873   */\n      swap2\n      pop\n        /* \"#utility.yul\":5765:5883   */\n      pop\n        /* \"#utility.yul\":5416:5890   */\n      swap3\n      pop\n      swap3\n      swap1\n      pop\n      jump\t// out\n        /* \"#utility.yul\":5896:6014   */\n    tag_166:\n        /* \"#utility.yul\":5983:6007   */\n      tag_244\n        /* \"#utility.yul\":6001:6006   */\n      dup2\n        /* \"#utility.yul\":5983:6007   */\n      tag_150\n      jump\t// in\n    tag_244:\n        /* \"#utility.yul\":5978:5981   */\n      dup3\n        /* \"#utility.yul\":5971:6008   */\n      mstore\n        /* \"#utility.yul\":5896:6014   */\n      pop\n      pop\n      jump\t// out\n        /* \"#utility.yul\":6020:6352   */\n    tag_97:\n        /* \"#utility.yul\":6141:6145   */\n      0x00\n        /* \"#utility.yul\":6179:6181   */\n      0x40\n        /* \"#utility.yul\":6168:6177   */\n      dup3\n        /* \"#utility.yul\":6164:6182   */\n      add\n        /* \"#utility.yul\":6156:6182   */\n      swap1\n      pop\n        /* \"#utility.yul\":6192:6263   */\n      tag_246\n        /* \"#utility.yul\":6260:6261   */\n      0x00\n        /* \"#utility.yul\":6249:6258   */\n      dup4\n        /* \"#utility.yul\":6245:6262   */\n      add\n        /* \"#utility.yul\":6236:6242   */\n      dup6\n        /* \"#utility.yul\":6192:6263   */\n      tag_166\n      jump\t// in\n    tag_246:\n        /* \"#utility.yul\":6273:6345   */\n      tag_247\n        /* \"#utility.yul\":6341:6343   */\n      0x20\n        /* \"#utility.yul\":6330:6339   */\n      dup4\n        /* \"#utility.yul\":6326:6344   */\n      add\n        /* \"#utility.yul\":6317:6323   */\n      dup5\n        /* \"#utility.yul\":6273:6345   */\n      tag_158\n      jump\t// in\n    tag_247:\n        /* \"#utility.yul\":6020:6352   */\n      swap4\n      swap3\n      pop\n      pop\n      pop\n      jump\t// out\n        /* \"#utility.yul\":6358:6538   */\n    tag_167:\n        /* \"#utility.yul\":6406:6483   */\n      0x4e487b7100000000000000000000000000000000000000000000000000000000\n        /* \"#utility.yul\":6403:6404   */\n      0x00\n        /* \"#utility.yul\":6396:6484   */\n      mstore\n        /* \"#utility.yul\":6503:6507   */\n      0x11\n        /* \"#utility.yul\":6500:6501   */\n      0x04\n        /* \"#utility.yul\":6493:6508   */\n      mstore\n        /* \"#utility.yul\":6527:6531   */\n      0x24\n        /* \"#utility.yul\":6524:6525   */\n      0x00\n        /* \"#utility.yul\":6517:6532   */\n      revert\n        /* \"#utility.yul\":6544:6738   */\n    tag_102:\n        /* \"#utility.yul\":6584:6588   */\n      0x00\n        /* \"#utility.yul\":6604:6624   */\n      tag_250\n        /* \"#utility.yul\":6622:6623   */\n      dup3\n        /* \"#utility.yul\":6604:6624   */\n      tag_153\n      jump\t// in\n    tag_250:\n        /* \"#utility.yul\":6599:6624   */\n      swap2\n      pop\n        /* \"#utility.yul\":6638:6658   */\n      tag_251\n        /* \"#utility.yul\":6656:6657   */\n      dup4\n        /* \"#utility.yul\":6638:6658   */\n      tag_153\n      jump\t// in\n    tag_251:\n        /* \"#utility.yul\":6633:6658   */\n      swap3\n      pop\n        /* \"#utility.yul\":6682:6683   */\n      dup3\n        /* \"#utility.yul\":6679:6680   */\n      dup3\n        /* \"#utility.yul\":6675:6684   */\n      sub\n        /* \"#utility.yul\":6667:6684   */\n      swap1\n      pop\n        /* \"#utility.yul\":6706:6707   */\n      dup2\n        /* \"#utility.yul\":6700:6704   */\n      dup2\n        /* \"#utility.yul\":6697:6708   */\n      gt\n        /* \"#utility.yul\":6694:6731   */\n      iszero\n      tag_252\n      jumpi\n        /* \"#utility.yul\":6711:6729   */\n      tag_253\n      tag_167\n      jump\t// in\n    tag_253:\n        /* \"#utility.yul\":6694:6731   */\n    tag_252:\n        /* \"#utility.yul\":6544:6738   */\n      swap3\n      swap2\n      pop\n      pop\n      jump\t// out\n        /* \"#utility.yul\":6744:6935   */\n    tag_105:\n        /* \"#utility.yul\":6784:6787   */\n      0x00\n        /* \"#utility.yul\":6803:6823   */\n      tag_255\n        /* \"#utility.yul\":6821:6822   */\n      dup3\n        /* \"#utility.yul\":6803:6823   */\n      tag_153\n      jump\t// in\n    tag_255:\n        /* \"#utility.yul\":6798:6823   */\n      swap2\n      pop\n        /* \"#utility.yul\":6837:6857   */\n      tag_256\n        /* \"#utility.yul\":6855:6856   */\n      dup4\n        /* \"#utility.yul\":6837:6857   */\n      tag_153\n      jump\t// in\n    tag_256:\n        /* \"#utility.yul\":6832:6857   */\n      swap3\n      pop\n        /* \"#utility.yul\":6880:6881   */\n      dup3\n        /* \"#utility.yul\":6877:6878   */\n      dup3\n        /* \"#utility.yul\":6873:6882   */\n      add\n        /* \"#utility.yul\":6866:6882   */\n      swap1\n      pop\n        /* \"#utility.yul\":6901:6904   */\n      dup1\n        /* \"#utility.yul\":6898:6899   */\n      dup3\n        /* \"#utility.yul\":6895:6905   */\n      gt\n        /* \"#utility.yul\":6892:6928   */\n      iszero\n      tag_257\n      jumpi\n        /* \"#utility.yul\":6908:6926   */\n      tag_258\n      tag_167\n      jump\t// in\n    tag_258:\n        /* \"#utility.yul\":6892:6928   */\n    tag_257:\n        /* \"#utility.yul\":6744:6935   */\n      swap3\n      swap2\n      pop\n      pop\n      jump\t// out\n        /* \"#utility.yul\":6941:7109   */\n    tag_168:\n        /* \"#utility.yul\":7081:7101   */\n      0x496e73756666696369656e7420746f6b656e0000000000000000000000000000\n        /* \"#utility.yul\":7077:7078   */\n      0x00\n        /* \"#utility.yul\":7069:7075   */\n      dup3\n        /* \"#utility.yul\":7065:7079   */\n      add\n        /* \"#utility.yul\":7058:7102   */\n      mstore\n        /* \"#utility.yul\":6941:7109   */\n      pop\n      jump\t// out\n        /* \"#utility.yul\":7115:7481   */\n    tag_169:\n        /* \"#utility.yul\":7257:7260   */\n      0x00\n        /* \"#utility.yul\":7278:7345   */\n      tag_261\n        /* \"#utility.yul\":7342:7344   */\n      0x12\n        /* \"#utility.yul\":7337:7340   */\n      dup4\n        /* \"#utility.yul\":7278:7345   */\n      tag_162\n      jump\t// in\n    tag_261:\n        /* \"#utility.yul\":7271:7345   */\n      swap2\n      pop\n        /* \"#utility.yul\":7354:7447   */\n      tag_262\n        /* \"#utility.yul\":7443:7446   */\n      dup3\n        /* \"#utility.yul\":7354:7447   */\n      tag_168\n      jump\t// in\n    tag_262:\n        /* \"#utility.yul\":7472:7474   */\n      0x20\n        /* \"#utility.yul\":7467:7470   */\n      dup3\n        /* \"#utility.yul\":7463:7475   */\n      add\n        /* \"#utility.yul\":7456:7475   */\n      swap1\n      pop\n        /* \"#utility.yul\":7115:7481   */\n      swap2\n      swap1\n      pop\n      jump\t// out\n        /* \"#utility.yul\":7487:7906   */\n    tag_121:\n        /* \"#utility.yul\":7653:7657   */\n      0x00\n        /* \"#utility.yul\":7691:7693   */\n      0x20\n        /* \"#utility.yul\":7680:7689   */\n      dup3\n        /* \"#utility.yul\":7676:7694   */\n      add\n        /* \"#utility.yul\":7668:7694   */\n      swap1\n      pop\n        /* \"#utility.yul\":7740:7749   */\n      dup2\n        /* \"#utility.yul\":7734:7738   */\n      dup2\n        /* \"#utility.yul\":7730:7750   */\n      sub\n        /* \"#utility.yul\":7726:7727   */\n      0x00\n        /* \"#utility.yul\":7715:7724   */\n      dup4\n        /* \"#utility.yul\":7711:7728   */\n      add\n        /* \"#utility.yul\":7704:7751   */\n      mstore\n        /* \"#utility.yul\":7768:7899   */\n      tag_264\n        /* \"#utility.yul\":7894:7898   */\n      dup2\n        /* \"#utility.yul\":7768:7899   */\n      tag_169\n      jump\t// in\n    tag_264:\n        /* \"#utility.yul\":7760:7899   */\n      swap1\n      pop\n        /* \"#utility.yul\":7487:7906   */\n      swap2\n      swap1\n      pop\n      jump\t// out\n        /* \"#utility.yul\":7912:8059   */\n    tag_170:\n        /* \"#utility.yul\":8013:8024   */\n      0x00\n        /* \"#utility.yul\":8050:8053   */\n      dup2\n        /* \"#utility.yul\":8035:8053   */\n      swap1\n      pop\n        /* \"#utility.yul\":7912:8059   */\n      swap3\n      swap2\n      pop\n      pop\n      jump\t// out\n        /* \"#utility.yul\":8065:8179   */\n    tag_171:\n      pop\n      jump\t// out\n        /* \"#utility.yul\":8185:8583   */\n    tag_172:\n        /* \"#utility.yul\":8344:8347   */\n      0x00\n        /* \"#utility.yul\":8365:8448   */\n      tag_268\n        /* \"#utility.yul\":8446:8447   */\n      0x00\n        /* \"#utility.yul\":8441:8444   */\n      dup4\n        /* \"#utility.yul\":8365:8448   */\n      tag_170\n      jump\t// in\n    tag_268:\n        /* \"#utility.yul\":8358:8448   */\n      swap2\n      pop\n        /* \"#utility.yul\":8457:8550   */\n      tag_269\n        /* \"#utility.yul\":8546:8549   */\n      dup3\n        /* \"#utility.yul\":8457:8550   */\n      tag_171\n      jump\t// in\n    tag_269:\n        /* \"#utility.yul\":8575:8576   */\n      0x00\n        /* \"#utility.yul\":8570:8573   */\n      dup3\n        /* \"#utility.yul\":8566:8577   */\n      add\n        /* \"#utility.yul\":8559:8577   */\n      swap1\n      pop\n        /* \"#utility.yul\":8185:8583   */\n      swap2\n      swap1\n      pop\n      jump\t// out\n        /* \"#utility.yul\":8589:8968   */\n    tag_124:\n        /* \"#utility.yul\":8773:8776   */\n      0x00\n        /* \"#utility.yul\":8795:8942   */\n      tag_271\n        /* \"#utility.yul\":8938:8941   */\n      dup3\n        /* \"#utility.yul\":8795:8942   */\n      tag_172\n      jump\t// in\n    tag_271:\n        /* \"#utility.yul\":8788:8942   */\n      swap2\n      pop\n        /* \"#utility.yul\":8959:8962   */\n      dup2\n        /* \"#utility.yul\":8952:8962   */\n      swap1\n      pop\n        /* \"#utility.yul\":8589:8968   */\n      swap2\n      swap1\n      pop\n      jump\t// out\n        /* \"#utility.yul\":8974:9137   */\n    tag_173:\n        /* \"#utility.yul\":9114:9129   */\n      0x7472616e73666572206661696c00000000000000000000000000000000000000\n        /* \"#utility.yul\":9110:9111   */\n      0x00\n        /* \"#utility.yul\":9102:9108   */\n      dup3\n        /* \"#utility.yul\":9098:9112   */\n      add\n        /* \"#utility.yul\":9091:9130   */\n      mstore\n        /* \"#utility.yul\":8974:9137   */\n      pop\n      jump\t// out\n        /* \"#utility.yul\":9143:9509   */\n    tag_174:\n        /* \"#utility.yul\":9285:9288   */\n      0x00\n        /* \"#utility.yul\":9306:9373   */\n      tag_274\n        /* \"#utility.yul\":9370:9372   */\n      0x0d\n        /* \"#utility.yul\":9365:9368   */\n      dup4\n        /* \"#utility.yul\":9306:9373   */\n      tag_162\n      jump\t// in\n    tag_274:\n        /* \"#utility.yul\":9299:9373   */\n      swap2\n      pop\n        /* \"#utility.yul\":9382:9475   */\n      tag_275\n        /* \"#utility.yul\":9471:9474   */\n      dup3\n        /* \"#utility.yul\":9382:9475   */\n      tag_173\n      jump\t// in\n    tag_275:\n        /* \"#utility.yul\":9500:9502   */\n      0x20\n        /* \"#utility.yul\":9495:9498   */\n      dup3\n        /* \"#utility.yul\":9491:9503   */\n      add\n        /* \"#utility.yul\":9484:9503   */\n      swap1\n      pop\n        /* \"#utility.yul\":9143:9509   */\n      swap2\n      swap1\n      pop\n      jump\t// out\n        /* \"#utility.yul\":9515:9934   */\n    tag_130:\n        /* \"#utility.yul\":9681:9685   */\n      0x00\n        /* \"#utility.yul\":9719:9721   */\n      0x20\n        /* \"#utility.yul\":9708:9717   */\n      dup3\n        /* \"#utility.yul\":9704:9722   */\n      add\n        /* \"#utility.yul\":9696:9722   */\n      swap1\n      pop\n        /* \"#utility.yul\":9768:9777   */\n      dup2\n        /* \"#utility.yul\":9762:9766   */\n      dup2\n        /* \"#utility.yul\":9758:9778   */\n      sub\n        /* \"#utility.yul\":9754:9755   */\n      0x00\n        /* \"#utility.yul\":9743:9752   */\n      dup4\n        /* \"#utility.yul\":9739:9756   */\n      add\n        /* \"#utility.yul\":9732:9779   */\n      mstore\n        /* \"#utility.yul\":9796:9927   */\n      tag_277\n        /* \"#utility.yul\":9922:9926   */\n      dup2\n        /* \"#utility.yul\":9796:9927   */\n      tag_174\n      jump\t// in\n    tag_277:\n        /* \"#utility.yul\":9788:9927   */\n      swap1\n      pop\n        /* \"#utility.yul\":9515:9934   */\n      swap2\n      swap1\n      pop\n      jump\t// out\n        /* \"#utility.yul\":9940:10120   */\n    tag_175:\n        /* \"#utility.yul\":9988:10065   */\n      0x4e487b7100000000000000000000000000000000000000000000000000000000\n        /* \"#utility.yul\":9985:9986   */\n      0x00\n        /* \"#utility.yul\":9978:10066   */\n      mstore\n        /* \"#utility.yul\":10085:10089   */\n      0x22\n        /* \"#utility.yul\":10082:10083   */\n      0x04\n        /* \"#utility.yul\":10075:10090   */\n      mstore\n        /* \"#utility.yul\":10109:10113   */\n      0x24\n        /* \"#utility.yul\":10106:10107   */\n      0x00\n        /* \"#utility.yul\":10099:10114   */\n      revert\n        /* \"#utility.yul\":10126:10446   */\n    tag_133:\n        /* \"#utility.yul\":10170:10176   */\n      0x00\n        /* \"#utility.yul\":10207:10208   */\n      0x02\n        /* \"#utility.yul\":10201:10205   */\n      dup3\n        /* \"#utility.yul\":10197:10209   */\n      div\n        /* \"#utility.yul\":10187:10209   */\n      swap1\n      pop\n        /* \"#utility.yul\":10254:10255   */\n      0x01\n        /* \"#utility.yul\":10248:10252   */\n      dup3\n        /* \"#utility.yul\":10244:10256   */\n      and\n        /* \"#utility.yul\":10275:10293   */\n      dup1\n        /* \"#utility.yul\":10265:10346   */\n      tag_280\n      jumpi\n        /* \"#utility.yul\":10331:10335   */\n      0x7f\n        /* \"#utility.yul\":10323:10329   */\n      dup3\n        /* \"#utility.yul\":10319:10336   */\n      and\n        /* \"#utility.yul\":10309:10336   */\n      swap2\n      pop\n        /* \"#utility.yul\":10265:10346   */\n    tag_280:\n        /* \"#utility.yul\":10393:10395   */\n      0x20\n        /* \"#utility.yul\":10385:10391   */\n      dup3\n        /* \"#utility.yul\":10382:10396   */\n      lt\n        /* \"#utility.yul\":10362:10380   */\n      dup2\n        /* \"#utility.yul\":10359:10397   */\n      sub\n        /* \"#utility.yul\":10356:10440   */\n      tag_281\n      jumpi\n        /* \"#utility.yul\":10412:10430   */\n      tag_282\n      tag_175\n      jump\t// in\n    tag_282:\n        /* \"#utility.yul\":10356:10440   */\n    tag_281:\n        /* \"#utility.yul\":10177:10446   */\n      pop\n        /* \"#utility.yul\":10126:10446   */\n      swap2\n      swap1\n      pop\n      jump\t// out\n\n    auxdata: 0xa2646970667358221220990fa0d2eea1bb0eb36195fa018570ff970b5ec509bdf0aab36e9da502d3915d64736f6c634300081a0033\n}\n",
				"bytecode": {
					"linkReferences": {},
					"object": "608060405234801561000f575f80fd5b5060405161173a38038061173a83398181016040528101906100319190610226565b82828282600281905550816003908161004a9190610496565b508060045f6101000a81548160ff021916908360ff160217905550505050505050610565565b5f604051905090565b5f80fd5b5f80fd5b5f819050919050565b61009381610081565b811461009d575f80fd5b50565b5f815190506100ae8161008a565b92915050565b5f80fd5b5f80fd5b5f601f19601f8301169050919050565b7f4e487b71000000000000000000000000000000000000000000000000000000005f52604160045260245ffd5b610102826100bc565b810181811067ffffffffffffffff82111715610121576101206100cc565b5b80604052505050565b5f610133610070565b905061013f82826100f9565b919050565b5f67ffffffffffffffff82111561015e5761015d6100cc565b5b610167826100bc565b9050602081019050919050565b8281835e5f83830152505050565b5f61019461018f84610144565b61012a565b9050828152602081018484840111156101b0576101af6100b8565b5b6101bb848285610174565b509392505050565b5f82601f8301126101d7576101d66100b4565b5b81516101e7848260208601610182565b91505092915050565b5f60ff82169050919050565b610205816101f0565b811461020f575f80fd5b50565b5f81519050610220816101fc565b92915050565b5f805f6060848603121561023d5761023c610079565b5b5f61024a868287016100a0565b935050602084015167ffffffffffffffff81111561026b5761026a61007d565b5b610277868287016101c3565b925050604061028886828701610212565b9150509250925092565b5f81519050919050565b7f4e487b71000000000000000000000000000000000000000000000000000000005f52602260045260245ffd5b5f60028204905060018216806102e057607f821691505b6020821081036102f3576102f261029c565b5b50919050565b5f819050815f5260205f209050919050565b5f6020601f8301049050919050565b5f82821b905092915050565b5f600883026103557fffffffffffffffffffffffffffffffffffffffffffffffffffffffffffffffff8261031a565b61035f868361031a565b95508019841693508086168417925050509392505050565b5f819050919050565b5f61039a61039561039084610081565b610377565b610081565b9050919050565b5f819050919050565b6103b383610380565b6103c76103bf826103a1565b848454610326565b825550505050565b5f90565b6103db6103cf565b6103e68184846103aa565b505050565b5b81811015610409576103fe5f826103d3565b6001810190506103ec565b5050565b601f82111561044e5761041f816102f9565b6104288461030b565b81016020851015610437578190505b61044b6104438561030b565b8301826103eb565b50505b505050565b5f82821c905092915050565b5f61046e5f1984600802610453565b1980831691505092915050565b5f610486838361045f565b9150826002028217905092915050565b61049f82610292565b67ffffffffffffffff8111156104b8576104b76100cc565b5b6104c282546102c9565b6104cd82828561040d565b5f60209050601f8311600181146104fe575f84156104ec578287015190505b6104f6858261047b565b86555061055d565b601f19841661050c866102f9565b5f5b828110156105335784890151825560018201915060208501945060208101905061050e565b86831015610550578489015161054c601f89168261045f565b8355505b6001600288020188555050505b505050505050565b6111c8806105725f395ff3fe6080604052600436106100e0575f3560e01c806370a082311161007e578063a0712d6811610058578063a0712d68146102cb578063a50ec326146102f3578063a9059cbb146102fd578063dd62ed3e14610339576100ef565b806370a082311461023d578063835fc6ca1461027957806395d89b41146102a1576100ef565b8063313ce567116100ba578063313ce5671461019b57806342966c68146101c55780634e6ec247146101ed5780636161eb1814610215576100ef565b8063095ea7b3146100f957806318160ddd1461013557806323b872dd1461015f576100ef565b366100ef576100ed610375565b005b6100f7610375565b005b348015610104575f80fd5b5061011f600480360381019061011a9190610d1a565b6103ba565b60405161012c9190610d72565b60405180910390f35b348015610140575f80fd5b506101496104a7565b6040516101569190610d9a565b60405180910390f35b34801561016a575f80fd5b5061018560048036038101906101809190610db3565b6104ad565b6040516101929190610d72565b60405180910390f35b3480156101a6575f80fd5b506101af6105eb565b6040516101bc9190610e1e565b60405180910390f35b3480156101d0575f80fd5b506101eb60048036038101906101e69190610e37565b6105fd565b005b3480156101f8575f80fd5b50610213600480360381019061020e9190610d1a565b6106cf565b005b348015610220575f80fd5b5061023b60048036038101906102369190610d1a565b6107a2565b005b348015610248575f80fd5b50610263600480360381019061025e9190610e62565b610875565b6040516102709190610d9a565b60405180910390f35b348015610284575f80fd5b5061029f600480360381019061029a9190610e37565b610889565b005b3480156102ac575f80fd5b506102b56109f7565b6040516102c29190610efd565b60405180910390f35b3480156102d6575f80fd5b506102f160048036038101906102ec9190610e37565b610a83565b005b6102fb610375565b005b348015610308575f80fd5b50610323600480360381019061031e9190610d1a565b610b55565b6040516103309190610d72565b60405180910390f35b348015610344575f80fd5b5061035f600480360381019061035a9190610f1d565b610c69565b60405161036c9190610d9a565b60405180910390f35b61037f33346106cf565b7f67d0e209d76ed24370106b1fd0fc1c82de411f7b72ba3d92736b75fe4add443a33346040516103b0929190610f6a565b60405180910390a1565b5f8160015f3373ffffffffffffffffffffffffffffffffffffffff1673ffffffffffffffffffffffffffffffffffffffff1681526020019081526020015f205f8573ffffffffffffffffffffffffffffffffffffffff1673ffffffffffffffffffffffffffffffffffffffff1681526020019081526020015f20819055508273ffffffffffffffffffffffffffffffffffffffff163373ffffffffffffffffffffffffffffffffffffffff167f6e11fb1b7f119e3f2fa29896ef5fdf8b8a2d0d4df6fe90ba8668e7d8b2ffa25e846040516104959190610d9a565b60405180910390a36001905092915050565b60025481565b5f8160015f8673ffffffffffffffffffffffffffffffffffffffff1673ffffffffffffffffffffffffffffffffffffffff1681526020019081526020015f205f3373ffffffffffffffffffffffffffffffffffffffff1673ffffffffffffffffffffffffffffffffffffffff1681526020019081526020015f205f8282546105359190610fbe565b92505081905550815f808673ffffffffffffffffffffffffffffffffffffffff1673ffffffffffffffffffffffffffffffffffffffff1681526020019081526020015f205f8282546105879190610fbe565b92505081905550815f808573ffffffffffffffffffffffffffffffffffffffff1673ffffffffffffffffffffffffffffffffffffffff1681526020019081526020015f205f8282546105d99190610ff1565b92505081905550600190509392505050565b60045f9054906101000a900460ff1681565b805f803373ffffffffffffffffffffffffffffffffffffffff1673ffffffffffffffffffffffffffffffffffffffff1681526020019081526020015f205f8282546106489190610fbe565b925050819055508060025f8282546106609190610fbe565b925050819055505f73ffffffffffffffffffffffffffffffffffffffff163373ffffffffffffffffffffffffffffffffffffffff167fddf252ad1be2c89b69c2b068fc378daa952ba7f163c4a11628f55a4df523b3ef836040516106c49190610d9a565b60405180910390a350565b805f808473ffffffffffffffffffffffffffffffffffffffff1673ffffffffffffffffffffffffffffffffffffffff1681526020019081526020015f205f82825461071a9190610ff1565b925050819055508060025f8282546107329190610ff1565b925050819055508173ffffffffffffffffffffffffffffffffffffffff165f73ffffffffffffffffffffffffffffffffffffffff167fddf252ad1be2c89b69c2b068fc378daa952ba7f163c4a11628f55a4df523b3ef836040516107969190610d9a565b60405180910390a35050565b805f808473ffffffffffffffffffffffffffffffffffffffff1673ffffffffffffffffffffffffffffffffffffffff1681526020019081526020015f205f8282546107ed9190610fbe565b925050819055508060025f8282546108059190610fbe565b925050819055505f73ffffffffffffffffffffffffffffffffffffffff168273ffffffffffffffffffffffffffffffffffffffff167fddf252ad1be2c89b69c2b068fc378daa952ba7f163c4a11628f55a4df523b3ef836040516108699190610d9a565b60405180910390a35050565b5f602052805f5260405f205f915090505481565b805f803373ffffffffffffffffffffffffffffffffffffffff1673ffffffffffffffffffffffffffffffffffffffff1681526020019081526020015f20541015610908576040517f08c379a00000000000000000000000000000000000000000000000000000000081526004016108ff9061106e565b60405180910390fd5b61091233826107a2565b5f3373ffffffffffffffffffffffffffffffffffffffff1682604051610937906110b9565b5f6040518083038185875af1925050503d805f8114610971576040519150601f19603f3d011682016040523d82523d5f602084013e610976565b606091505b50509050806109ba576040517f08c379a00000000000000000000000000000000000000000000000000000000081526004016109b190611117565b60405180910390fd5b7f7fcf532c15f0a6db0bd6d0e038bea71d30d808c7d98cb3bf7268a95bf5081b6533836040516109eb929190610f6a565b60405180910390a15050565b60038054610a0490611162565b80601f0160208091040260200160405190810160405280929190818152602001828054610a3090611162565b8015610a7b5780601f10610a5257610100808354040283529160200191610a7b565b820191905f5260205f20905b815481529060010190602001808311610a5e57829003601f168201915b505050505081565b805f803373ffffffffffffffffffffffffffffffffffffffff1673ffffffffffffffffffffffffffffffffffffffff1681526020019081526020015f205f828254610ace9190610ff1565b925050819055508060025f828254610ae69190610ff1565b925050819055503373ffffffffffffffffffffffffffffffffffffffff165f73ffffffffffffffffffffffffffffffffffffffff167fddf252ad1be2c89b69c2b068fc378daa952ba7f163c4a11628f55a4df523b3ef83604051610b4a9190610d9a565b60405180910390a350565b5f815f803373ffffffffffffffffffffffffffffffffffffffff1673ffffffffffffffffffffffffffffffffffffffff1681526020019081526020015f205f828254610ba19190610fbe565b92505081905550815f808573ffffffffffffffffffffffffffffffffffffffff1673ffffffffffffffffffffffffffffffffffffffff1681526020019081526020015f205f828254610bf39190610ff1565b925050819055508273ffffffffffffffffffffffffffffffffffffffff163373ffffffffffffffffffffffffffffffffffffffff167fddf252ad1be2c89b69c2b068fc378daa952ba7f163c4a11628f55a4df523b3ef84604051610c579190610d9a565b60405180910390a36001905092915050565b6001602052815f5260405f20602052805f5260405f205f91509150505481565b5f80fd5b5f73ffffffffffffffffffffffffffffffffffffffff82169050919050565b5f610cb682610c8d565b9050919050565b610cc681610cac565b8114610cd0575f80fd5b50565b5f81359050610ce181610cbd565b92915050565b5f819050919050565b610cf981610ce7565b8114610d03575f80fd5b50565b5f81359050610d1481610cf0565b92915050565b5f8060408385031215610d3057610d2f610c89565b5b5f610d3d85828601610cd3565b9250506020610d4e85828601610d06565b9150509250929050565b5f8115159050919050565b610d6c81610d58565b82525050565b5f602082019050610d855f830184610d63565b92915050565b610d9481610ce7565b82525050565b5f602082019050610dad5f830184610d8b565b92915050565b5f805f60608486031215610dca57610dc9610c89565b5b5f610dd786828701610cd3565b9350506020610de886828701610cd3565b9250506040610df986828701610d06565b9150509250925092565b5f60ff82169050919050565b610e1881610e03565b82525050565b5f602082019050610e315f830184610e0f565b92915050565b5f60208284031215610e4c57610e4b610c89565b5b5f610e5984828501610d06565b91505092915050565b5f60208284031215610e7757610e76610c89565b5b5f610e8484828501610cd3565b91505092915050565b5f81519050919050565b5f82825260208201905092915050565b8281835e5f83830152505050565b5f601f19601f8301169050919050565b5f610ecf82610e8d565b610ed98185610e97565b9350610ee9818560208601610ea7565b610ef281610eb5565b840191505092915050565b5f6020820190508181035f830152610f158184610ec5565b905092915050565b5f8060408385031215610f3357610f32610c89565b5b5f610f4085828601610cd3565b9250506020610f5185828601610cd3565b9150509250929050565b610f6481610cac565b82525050565b5f604082019050610f7d5f830185610f5b565b610f8a6020830184610d8b565b9392505050565b7f4e487b71000000000000000000000000000000000000000000000000000000005f52601160045260245ffd5b5f610fc882610ce7565b9150610fd383610ce7565b9250828203905081811115610feb57610fea610f91565b5b92915050565b5f610ffb82610ce7565b915061100683610ce7565b925082820190508082111561101e5761101d610f91565b5b92915050565b7f496e73756666696369656e7420746f6b656e00000000000000000000000000005f82015250565b5f611058601283610e97565b915061106382611024565b602082019050919050565b5f6020820190508181035f8301526110858161104c565b9050919050565b5f81905092915050565b50565b5f6110a45f8361108c565b91506110af82611096565b5f82019050919050565b5f6110c382611099565b9150819050919050565b7f7472616e73666572206661696c000000000000000000000000000000000000005f82015250565b5f611101600d83610e97565b915061110c826110cd565b602082019050919050565b5f6020820190508181035f83015261112e816110f5565b9050919050565b7f4e487b71000000000000000000000000000000000000000000000000000000005f52602260045260245ffd5b5f600282049050600182168061117957607f821691505b60208210810361118c5761118b611135565b5b5091905056fea2646970667358221220990fa0d2eea1bb0eb36195fa018570ff970b5ec509bdf0aab36e9da502d3915d64736f6c634300081a0033",
					"opcodes": "PUSH1 0x80 PUSH1 0x40 MSTORE CALLVALUE DUP1 ISZERO PUSH2 0xF JUMPI PUSH0 DUP1 REVERT JUMPDEST POP PUSH1 0x40 MLOAD PUSH2 0x173A CODESIZE SUB DUP1 PUSH2 0x173A DUP4 CODECOPY DUP2 DUP2 ADD PUSH1 0x40 MSTORE DUP2 ADD SWAP1 PUSH2 0x31 SWAP2 SWAP1 PUSH2 0x226 JUMP JUMPDEST DUP3 DUP3 DUP3 DUP3 PUSH1 0x2 DUP2 SWAP1 SSTORE POP DUP2 PUSH1 0x3 SWAP1 DUP2 PUSH2 0x4A SWAP2 SWAP1 PUSH2 0x496 JUMP JUMPDEST POP DUP1 PUSH1 0x4 PUSH0 PUSH2 0x100 EXP DUP2 SLOAD DUP2 PUSH1 0xFF MUL NOT AND SWAP1 DUP4 PUSH1 0xFF AND MUL OR SWAP1 SSTORE POP POP POP POP POP POP POP PUSH2 0x565 JUMP JUMPDEST PUSH0 PUSH1 0x40 MLOAD SWAP1 POP SWAP1 JUMP JUMPDEST PUSH0 DUP1 REVERT JUMPDEST PUSH0 DUP1 REVERT JUMPDEST PUSH0 DUP2 SWAP1 POP SWAP2 SWAP1 POP JUMP JUMPDEST PUSH2 0x93 DUP2 PUSH2 0x81 JUMP JUMPDEST DUP2 EQ PUSH2 0x9D JUMPI PUSH0 DUP1 REVERT JUMPDEST POP JUMP JUMPDEST PUSH0 DUP2 MLOAD SWAP1 POP PUSH2 0xAE DUP2 PUSH2 0x8A JUMP JUMPDEST SWAP3 SWAP2 POP POP JUMP JUMPDEST PUSH0 DUP1 REVERT JUMPDEST PUSH0 DUP1 REVERT JUMPDEST PUSH0 PUSH1 0x1F NOT PUSH1 0x1F DUP4 ADD AND SWAP1 POP SWAP2 SWAP1 POP JUMP JUMPDEST PUSH32 0x4E487B7100000000000000000000000000000000000000000000000000000000 PUSH0 MSTORE PUSH1 0x41 PUSH1 0x4 MSTORE PUSH1 0x24 PUSH0 REVERT JUMPDEST PUSH2 0x102 DUP3 PUSH2 0xBC JUMP JUMPDEST DUP2 ADD DUP2 DUP2 LT PUSH8 0xFFFFFFFFFFFFFFFF DUP3 GT OR ISZERO PUSH2 0x121 JUMPI PUSH2 0x120 PUSH2 0xCC JUMP JUMPDEST JUMPDEST DUP1 PUSH1 0x40 MSTORE POP POP POP JUMP JUMPDEST PUSH0 PUSH2 0x133 PUSH2 0x70 JUMP JUMPDEST SWAP1 POP PUSH2 0x13F DUP3 DUP3 PUSH2 0xF9 JUMP JUMPDEST SWAP2 SWAP1 POP JUMP JUMPDEST PUSH0 PUSH8 0xFFFFFFFFFFFFFFFF DUP3 GT ISZERO PUSH2 0x15E JUMPI PUSH2 0x15D PUSH2 0xCC JUMP JUMPDEST JUMPDEST PUSH2 0x167 DUP3 PUSH2 0xBC JUMP JUMPDEST SWAP1 POP PUSH1 0x20 DUP2 ADD SWAP1 POP SWAP2 SWAP1 POP JUMP JUMPDEST DUP3 DUP2 DUP4 MCOPY PUSH0 DUP4 DUP4 ADD MSTORE POP POP POP JUMP JUMPDEST PUSH0 PUSH2 0x194 PUSH2 0x18F DUP5 PUSH2 0x144 JUMP JUMPDEST PUSH2 0x12A JUMP JUMPDEST SWAP1 POP DUP3 DUP2 MSTORE PUSH1 0x20 DUP2 ADD DUP5 DUP5 DUP5 ADD GT ISZERO PUSH2 0x1B0 JUMPI PUSH2 0x1AF PUSH2 0xB8 JUMP JUMPDEST JUMPDEST PUSH2 0x1BB DUP5 DUP3 DUP6 PUSH2 0x174 JUMP JUMPDEST POP SWAP4 SWAP3 POP POP POP JUMP JUMPDEST PUSH0 DUP3 PUSH1 0x1F DUP4 ADD SLT PUSH2 0x1D7 JUMPI PUSH2 0x1D6 PUSH2 0xB4 JUMP JUMPDEST JUMPDEST DUP2 MLOAD PUSH2 0x1E7 DUP5 DUP3 PUSH1 0x20 DUP7 ADD PUSH2 0x182 JUMP JUMPDEST SWAP2 POP POP SWAP3 SWAP2 POP POP JUMP JUMPDEST PUSH0 PUSH1 0xFF DUP3 AND SWAP1 POP SWAP2 SWAP1 POP JUMP JUMPDEST PUSH2 0x205 DUP2 PUSH2 0x1F0 JUMP JUMPDEST DUP2 EQ PUSH2 0x20F JUMPI PUSH0 DUP1 REVERT JUMPDEST POP JUMP JUMPDEST PUSH0 DUP2 MLOAD SWAP1 POP PUSH2 0x220 DUP2 PUSH2 0x1FC JUMP JUMPDEST SWAP3 SWAP2 POP POP JUMP JUMPDEST PUSH0 DUP1 PUSH0 PUSH1 0x60 DUP5 DUP7 SUB SLT ISZERO PUSH2 0x23D JUMPI PUSH2 0x23C PUSH2 0x79 JUMP JUMPDEST JUMPDEST PUSH0 PUSH2 0x24A DUP7 DUP3 DUP8 ADD PUSH2 0xA0 JUMP JUMPDEST SWAP4 POP POP PUSH1 0x20 DUP5 ADD MLOAD PUSH8 0xFFFFFFFFFFFFFFFF DUP2 GT ISZERO PUSH2 0x26B JUMPI PUSH2 0x26A PUSH2 0x7D JUMP JUMPDEST JUMPDEST PUSH2 0x277 DUP7 DUP3 DUP8 ADD PUSH2 0x1C3 JUMP JUMPDEST SWAP3 POP POP PUSH1 0x40 PUSH2 0x288 DUP7 DUP3 DUP8 ADD PUSH2 0x212 JUMP JUMPDEST SWAP2 POP POP SWAP3 POP SWAP3 POP SWAP3 JUMP JUMPDEST PUSH0 DUP2 MLOAD SWAP1 POP SWAP2 SWAP1 POP JUMP JUMPDEST PUSH32 0x4E487B7100000000000000000000000000000000000000000000000000000000 PUSH0 MSTORE PUSH1 0x22 PUSH1 0x4 MSTORE PUSH1 0x24 PUSH0 REVERT JUMPDEST PUSH0 PUSH1 0x2 DUP3 DIV SWAP1 POP PUSH1 0x1 DUP3 AND DUP1 PUSH2 0x2E0 JUMPI PUSH1 0x7F DUP3 AND SWAP2 POP JUMPDEST PUSH1 0x20 DUP3 LT DUP2 SUB PUSH2 0x2F3 JUMPI PUSH2 0x2F2 PUSH2 0x29C JUMP JUMPDEST JUMPDEST POP SWAP2 SWAP1 POP JUMP JUMPDEST PUSH0 DUP2 SWAP1 POP DUP2 PUSH0 MSTORE PUSH1 0x20 PUSH0 KECCAK256 SWAP1 POP SWAP2 SWAP1 POP JUMP JUMPDEST PUSH0 PUSH1 0x20 PUSH1 0x1F DUP4 ADD DIV SWAP1 POP SWAP2 SWAP1 POP JUMP JUMPDEST PUSH0 DUP3 DUP3 SHL SWAP1 POP SWAP3 SWAP2 POP POP JUMP JUMPDEST PUSH0 PUSH1 0x8 DUP4 MUL PUSH2 0x355 PUSH32 0xFFFFFFFFFFFFFFFFFFFFFFFFFFFFFFFFFFFFFFFFFFFFFFFFFFFFFFFFFFFFFFFF DUP3 PUSH2 0x31A JUMP JUMPDEST PUSH2 0x35F DUP7 DUP4 PUSH2 0x31A JUMP JUMPDEST SWAP6 POP DUP1 NOT DUP5 AND SWAP4 POP DUP1 DUP7 AND DUP5 OR SWAP3 POP POP POP SWAP4 SWAP3 POP POP POP JUMP JUMPDEST PUSH0 DUP2 SWAP1 POP SWAP2 SWAP1 POP JUMP JUMPDEST PUSH0 PUSH2 0x39A PUSH2 0x395 PUSH2 0x390 DUP5 PUSH2 0x81 JUMP JUMPDEST PUSH2 0x377 JUMP JUMPDEST PUSH2 0x81 JUMP JUMPDEST SWAP1 POP SWAP2 SWAP1 POP JUMP JUMPDEST PUSH0 DUP2 SWAP1 POP SWAP2 SWAP1 POP JUMP JUMPDEST PUSH2 0x3B3 DUP4 PUSH2 0x380 JUMP JUMPDEST PUSH2 0x3C7 PUSH2 0x3BF DUP3 PUSH2 0x3A1 JUMP JUMPDEST DUP5 DUP5 SLOAD PUSH2 0x326 JUMP JUMPDEST DUP3 SSTORE POP POP POP POP JUMP JUMPDEST PUSH0 SWAP1 JUMP JUMPDEST PUSH2 0x3DB PUSH2 0x3CF JUMP JUMPDEST PUSH2 0x3E6 DUP2 DUP5 DUP5 PUSH2 0x3AA JUMP JUMPDEST POP POP POP JUMP JUMPDEST JUMPDEST DUP2 DUP2 LT ISZERO PUSH2 0x409 JUMPI PUSH2 0x3FE PUSH0 DUP3 PUSH2 0x3D3 JUMP JUMPDEST PUSH1 0x1 DUP2 ADD SWAP1 POP PUSH2 0x3EC JUMP JUMPDEST POP POP JUMP JUMPDEST PUSH1 0x1F DUP3 GT ISZERO PUSH2 0x44E JUMPI PUSH2 0x41F DUP2 PUSH2 0x2F9 JUMP JUMPDEST PUSH2 0x428 DUP5 PUSH2 0x30B JUMP JUMPDEST DUP2 ADD PUSH1 0x20 DUP6 LT ISZERO PUSH2 0x437 JUMPI DUP2 SWAP1 POP JUMPDEST PUSH2 0x44B PUSH2 0x443 DUP6 PUSH2 0x30B JUMP JUMPDEST DUP4 ADD DUP3 PUSH2 0x3EB JUMP JUMPDEST POP POP JUMPDEST POP POP POP JUMP JUMPDEST PUSH0 DUP3 DUP3 SHR SWAP1 POP SWAP3 SWAP2 POP POP JUMP JUMPDEST PUSH0 PUSH2 0x46E PUSH0 NOT DUP5 PUSH1 0x8 MUL PUSH2 0x453 JUMP JUMPDEST NOT DUP1 DUP4 AND SWAP2 POP POP SWAP3 SWAP2 POP POP JUMP JUMPDEST PUSH0 PUSH2 0x486 DUP4 DUP4 PUSH2 0x45F JUMP JUMPDEST SWAP2 POP DUP3 PUSH1 0x2 MUL DUP3 OR SWAP1 POP SWAP3 SWAP2 POP POP JUMP JUMPDEST PUSH2 0x49F DUP3 PUSH2 0x292 JUMP JUMPDEST PUSH8 0xFFFFFFFFFFFFFFFF DUP2 GT ISZERO PUSH2 0x4B8 JUMPI PUSH2 0x4B7 PUSH2 0xCC JUMP JUMPDEST JUMPDEST PUSH2 0x4C2 DUP3 SLOAD PUSH2 0x2C9 JUMP JUMPDEST PUSH2 0x4CD DUP3 DUP3 DUP6 PUSH2 0x40D JUMP JUMPDEST PUSH0 PUSH1 0x20 SWAP1 POP PUSH1 0x1F DUP4 GT PUSH1 0x1 DUP2 EQ PUSH2 0x4FE JUMPI PUSH0 DUP5 ISZERO PUSH2 0x4EC JUMPI DUP3 DUP8 ADD MLOAD SWAP1 POP JUMPDEST PUSH2 0x4F6 DUP6 DUP3 PUSH2 0x47B JUMP JUMPDEST DUP7 SSTORE POP PUSH2 0x55D JUMP JUMPDEST PUSH1 0x1F NOT DUP5 AND PUSH2 0x50C DUP7 PUSH2 0x2F9 JUMP JUMPDEST PUSH0 JUMPDEST DUP3 DUP2 LT ISZERO PUSH2 0x533 JUMPI DUP5 DUP10 ADD MLOAD DUP3 SSTORE PUSH1 0x1 DUP3 ADD SWAP2 POP PUSH1 0x20 DUP6 ADD SWAP5 POP PUSH1 0x20 DUP2 ADD SWAP1 POP PUSH2 0x50E JUMP JUMPDEST DUP7 DUP4 LT ISZERO PUSH2 0x550 JUMPI DUP5 DUP10 ADD MLOAD PUSH2 0x54C PUSH1 0x1F DUP10 AND DUP3 PUSH2 0x45F JUMP JUMPDEST DUP4 SSTORE POP JUMPDEST PUSH1 0x1 PUSH1 0x2 DUP9 MUL ADD DUP9 SSTORE POP POP POP JUMPDEST POP POP POP POP POP POP JUMP JUMPDEST PUSH2 0x11C8 DUP1 PUSH2 0x572 PUSH0 CODECOPY PUSH0 RETURN INVALID PUSH1 0x80 PUSH1 0x40 MSTORE PUSH1 0x4 CALLDATASIZE LT PUSH2 0xE0 JUMPI PUSH0 CALLDATALOAD PUSH1 0xE0 SHR DUP1 PUSH4 0x70A08231 GT PUSH2 0x7E JUMPI DUP1 PUSH4 0xA0712D68 GT PUSH2 0x58 JUMPI DUP1 PUSH4 0xA0712D68 EQ PUSH2 0x2CB JUMPI DUP1 PUSH4 0xA50EC326 EQ PUSH2 0x2F3 JUMPI DUP1 PUSH4 0xA9059CBB EQ PUSH2 0x2FD JUMPI DUP1 PUSH4 0xDD62ED3E EQ PUSH2 0x339 JUMPI PUSH2 0xEF JUMP JUMPDEST DUP1 PUSH4 0x70A08231 EQ PUSH2 0x23D JUMPI DUP1 PUSH4 0x835FC6CA EQ PUSH2 0x279 JUMPI DUP1 PUSH4 0x95D89B41 EQ PUSH2 0x2A1 JUMPI PUSH2 0xEF JUMP JUMPDEST DUP1 PUSH4 0x313CE567 GT PUSH2 0xBA JUMPI DUP1 PUSH4 0x313CE567 EQ PUSH2 0x19B JUMPI DUP1 PUSH4 0x42966C68 EQ PUSH2 0x1C5 JUMPI DUP1 PUSH4 0x4E6EC247 EQ PUSH2 0x1ED JUMPI DUP1 PUSH4 0x6161EB18 EQ PUSH2 0x215 JUMPI PUSH2 0xEF JUMP JUMPDEST DUP1 PUSH4 0x95EA7B3 EQ PUSH2 0xF9 JUMPI DUP1 PUSH4 0x18160DDD EQ PUSH2 0x135 JUMPI DUP1 PUSH4 0x23B872DD EQ PUSH2 0x15F JUMPI PUSH2 0xEF JUMP JUMPDEST CALLDATASIZE PUSH2 0xEF JUMPI PUSH2 0xED PUSH2 0x375 JUMP JUMPDEST STOP JUMPDEST PUSH2 0xF7 PUSH2 0x375 JUMP JUMPDEST STOP JUMPDEST CALLVALUE DUP1 ISZERO PUSH2 0x104 JUMPI PUSH0 DUP1 REVERT JUMPDEST POP PUSH2 0x11F PUSH1 0x4 DUP1 CALLDATASIZE SUB DUP2 ADD SWAP1 PUSH2 0x11A SWAP2 SWAP1 PUSH2 0xD1A JUMP JUMPDEST PUSH2 0x3BA JUMP JUMPDEST PUSH1 0x40 MLOAD PUSH2 0x12C SWAP2 SWAP1 PUSH2 0xD72 JUMP JUMPDEST PUSH1 0x40 MLOAD DUP1 SWAP2 SUB SWAP1 RETURN JUMPDEST CALLVALUE DUP1 ISZERO PUSH2 0x140 JUMPI PUSH0 DUP1 REVERT JUMPDEST POP PUSH2 0x149 PUSH2 0x4A7 JUMP JUMPDEST PUSH1 0x40 MLOAD PUSH2 0x156 SWAP2 SWAP1 PUSH2 0xD9A JUMP JUMPDEST PUSH1 0x40 MLOAD DUP1 SWAP2 SUB SWAP1 RETURN JUMPDEST CALLVALUE DUP1 ISZERO PUSH2 0x16A JUMPI PUSH0 DUP1 REVERT JUMPDEST POP PUSH2 0x185 PUSH1 0x4 DUP1 CALLDATASIZE SUB DUP2 ADD SWAP1 PUSH2 0x180 SWAP2 SWAP1 PUSH2 0xDB3 JUMP JUMPDEST PUSH2 0x4AD JUMP JUMPDEST PUSH1 0x40 MLOAD PUSH2 0x192 SWAP2 SWAP1 PUSH2 0xD72 JUMP JUMPDEST PUSH1 0x40 MLOAD DUP1 SWAP2 SUB SWAP1 RETURN JUMPDEST CALLVALUE DUP1 ISZERO PUSH2 0x1A6 JUMPI PUSH0 DUP1 REVERT JUMPDEST POP PUSH2 0x1AF PUSH2 0x5EB JUMP JUMPDEST PUSH1 0x40 MLOAD PUSH2 0x1BC SWAP2 SWAP1 PUSH2 0xE1E JUMP JUMPDEST PUSH1 0x40 MLOAD DUP1 SWAP2 SUB SWAP1 RETURN JUMPDEST CALLVALUE DUP1 ISZERO PUSH2 0x1D0 JUMPI PUSH0 DUP1 REVERT JUMPDEST POP PUSH2 0x1EB PUSH1 0x4 DUP1 CALLDATASIZE SUB DUP2 ADD SWAP1 PUSH2 0x1E6 SWAP2 SWAP1 PUSH2 0xE37 JUMP JUMPDEST PUSH2 0x5FD JUMP JUMPDEST STOP JUMPDEST CALLVALUE DUP1 ISZERO PUSH2 0x1F8 JUMPI PUSH0 DUP1 REVERT JUMPDEST POP PUSH2 0x213 PUSH1 0x4 DUP1 CALLDATASIZE SUB DUP2 ADD SWAP1 PUSH2 0x20E SWAP2 SWAP1 PUSH2 0xD1A JUMP JUMPDEST PUSH2 0x6CF JUMP JUMPDEST STOP JUMPDEST CALLVALUE DUP1 ISZERO PUSH2 0x220 JUMPI PUSH0 DUP1 REVERT JUMPDEST POP PUSH2 0x23B PUSH1 0x4 DUP1 CALLDATASIZE SUB DUP2 ADD SWAP1 PUSH2 0x236 SWAP2 SWAP1 PUSH2 0xD1A JUMP JUMPDEST PUSH2 0x7A2 JUMP JUMPDEST STOP JUMPDEST CALLVALUE DUP1 ISZERO PUSH2 0x248 JUMPI PUSH0 DUP1 REVERT JUMPDEST POP PUSH2 0x263 PUSH1 0x4 DUP1 CALLDATASIZE SUB DUP2 ADD SWAP1 PUSH2 0x25E SWAP2 SWAP1 PUSH2 0xE62 JUMP JUMPDEST PUSH2 0x875 JUMP JUMPDEST PUSH1 0x40 MLOAD PUSH2 0x270 SWAP2 SWAP1 PUSH2 0xD9A JUMP JUMPDEST PUSH1 0x40 MLOAD DUP1 SWAP2 SUB SWAP1 RETURN JUMPDEST CALLVALUE DUP1 ISZERO PUSH2 0x284 JUMPI PUSH0 DUP1 REVERT JUMPDEST POP PUSH2 0x29F PUSH1 0x4 DUP1 CALLDATASIZE SUB DUP2 ADD SWAP1 PUSH2 0x29A SWAP2 SWAP1 PUSH2 0xE37 JUMP JUMPDEST PUSH2 0x889 JUMP JUMPDEST STOP JUMPDEST CALLVALUE DUP1 ISZERO PUSH2 0x2AC JUMPI PUSH0 DUP1 REVERT JUMPDEST POP PUSH2 0x2B5 PUSH2 0x9F7 JUMP JUMPDEST PUSH1 0x40 MLOAD PUSH2 0x2C2 SWAP2 SWAP1 PUSH2 0xEFD JUMP JUMPDEST PUSH1 0x40 MLOAD DUP1 SWAP2 SUB SWAP1 RETURN JUMPDEST CALLVALUE DUP1 ISZERO PUSH2 0x2D6 JUMPI PUSH0 DUP1 REVERT JUMPDEST POP PUSH2 0x2F1 PUSH1 0x4 DUP1 CALLDATASIZE SUB DUP2 ADD SWAP1 PUSH2 0x2EC SWAP2 SWAP1 PUSH2 0xE37 JUMP JUMPDEST PUSH2 0xA83 JUMP JUMPDEST STOP JUMPDEST PUSH2 0x2FB PUSH2 0x375 JUMP JUMPDEST STOP JUMPDEST CALLVALUE DUP1 ISZERO PUSH2 0x308 JUMPI PUSH0 DUP1 REVERT JUMPDEST POP PUSH2 0x323 PUSH1 0x4 DUP1 CALLDATASIZE SUB DUP2 ADD SWAP1 PUSH2 0x31E SWAP2 SWAP1 PUSH2 0xD1A JUMP JUMPDEST PUSH2 0xB55 JUMP JUMPDEST PUSH1 0x40 MLOAD PUSH2 0x330 SWAP2 SWAP1 PUSH2 0xD72 JUMP JUMPDEST PUSH1 0x40 MLOAD DUP1 SWAP2 SUB SWAP1 RETURN JUMPDEST CALLVALUE DUP1 ISZERO PUSH2 0x344 JUMPI PUSH0 DUP1 REVERT JUMPDEST POP PUSH2 0x35F PUSH1 0x4 DUP1 CALLDATASIZE SUB DUP2 ADD SWAP1 PUSH2 0x35A SWAP2 SWAP1 PUSH2 0xF1D JUMP JUMPDEST PUSH2 0xC69 JUMP JUMPDEST PUSH1 0x40 MLOAD PUSH2 0x36C SWAP2 SWAP1 PUSH2 0xD9A JUMP JUMPDEST PUSH1 0x40 MLOAD DUP1 SWAP2 SUB SWAP1 RETURN JUMPDEST PUSH2 0x37F CALLER CALLVALUE PUSH2 0x6CF JUMP JUMPDEST PUSH32 0x67D0E209D76ED24370106B1FD0FC1C82DE411F7B72BA3D92736B75FE4ADD443A CALLER CALLVALUE PUSH1 0x40 MLOAD PUSH2 0x3B0 SWAP3 SWAP2 SWAP1 PUSH2 0xF6A JUMP JUMPDEST PUSH1 0x40 MLOAD DUP1 SWAP2 SUB SWAP1 LOG1 JUMP JUMPDEST PUSH0 DUP2 PUSH1 0x1 PUSH0 CALLER PUSH20 0xFFFFFFFFFFFFFFFFFFFFFFFFFFFFFFFFFFFFFFFF AND PUSH20 0xFFFFFFFFFFFFFFFFFFFFFFFFFFFFFFFFFFFFFFFF AND DUP2 MSTORE PUSH1 0x20 ADD SWAP1 DUP2 MSTORE PUSH1 0x20 ADD PUSH0 KECCAK256 PUSH0 DUP6 PUSH20 0xFFFFFFFFFFFFFFFFFFFFFFFFFFFFFFFFFFFFFFFF AND PUSH20 0xFFFFFFFFFFFFFFFFFFFFFFFFFFFFFFFFFFFFFFFF AND DUP2 MSTORE PUSH1 0x20 ADD SWAP1 DUP2 MSTORE PUSH1 0x20 ADD PUSH0 KECCAK256 DUP2 SWAP1 SSTORE POP DUP3 PUSH20 0xFFFFFFFFFFFFFFFFFFFFFFFFFFFFFFFFFFFFFFFF AND CALLER PUSH20 0xFFFFFFFFFFFFFFFFFFFFFFFFFFFFFFFFFFFFFFFF AND PUSH32 0x6E11FB1B7F119E3F2FA29896EF5FDF8B8A2D0D4DF6FE90BA8668E7D8B2FFA25E DUP5 PUSH1 0x40 MLOAD PUSH2 0x495 SWAP2 SWAP1 PUSH2 0xD9A JUMP JUMPDEST PUSH1 0x40 MLOAD DUP1 SWAP2 SUB SWAP1 LOG3 PUSH1 0x1 SWAP1 POP SWAP3 SWAP2 POP POP JUMP JUMPDEST PUSH1 0x2 SLOAD DUP2 JUMP JUMPDEST PUSH0 DUP2 PUSH1 0x1 PUSH0 DUP7 PUSH20 0xFFFFFFFFFFFFFFFFFFFFFFFFFFFFFFFFFFFFFFFF AND PUSH20 0xFFFFFFFFFFFFFFFFFFFFFFFFFFFFFFFFFFFFFFFF AND DUP2 MSTORE PUSH1 0x20 ADD SWAP1 DUP2 MSTORE PUSH1 0x20 ADD PUSH0 KECCAK256 PUSH0 CALLER PUSH20 0xFFFFFFFFFFFFFFFFFFFFFFFFFFFFFFFFFFFFFFFF AND PUSH20 0xFFFFFFFFFFFFFFFFFFFFFFFFFFFFFFFFFFFFFFFF AND DUP2 MSTORE PUSH1 0x20 ADD SWAP1 DUP2 MSTORE PUSH1 0x20 ADD PUSH0 KECCAK256 PUSH0 DUP3 DUP3 SLOAD PUSH2 0x535 SWAP2 SWAP1 PUSH2 0xFBE JUMP JUMPDEST SWAP3 POP POP DUP2 SWAP1 SSTORE POP DUP2 PUSH0 DUP1 DUP7 PUSH20 0xFFFFFFFFFFFFFFFFFFFFFFFFFFFFFFFFFFFFFFFF AND PUSH20 0xFFFFFFFFFFFFFFFFFFFFFFFFFFFFFFFFFFFFFFFF AND DUP2 MSTORE PUSH1 0x20 ADD SWAP1 DUP2 MSTORE PUSH1 0x20 ADD PUSH0 KECCAK256 PUSH0 DUP3 DUP3 SLOAD PUSH2 0x587 SWAP2 SWAP1 PUSH2 0xFBE JUMP JUMPDEST SWAP3 POP POP DUP2 SWAP1 SSTORE POP DUP2 PUSH0 DUP1 DUP6 PUSH20 0xFFFFFFFFFFFFFFFFFFFFFFFFFFFFFFFFFFFFFFFF AND PUSH20 0xFFFFFFFFFFFFFFFFFFFFFFFFFFFFFFFFFFFFFFFF AND DUP2 MSTORE PUSH1 0x20 ADD SWAP1 DUP2 MSTORE PUSH1 0x20 ADD PUSH0 KECCAK256 PUSH0 DUP3 DUP3 SLOAD PUSH2 0x5D9 SWAP2 SWAP1 PUSH2 0xFF1 JUMP JUMPDEST SWAP3 POP POP DUP2 SWAP1 SSTORE POP PUSH1 0x1 SWAP1 POP SWAP4 SWAP3 POP POP POP JUMP JUMPDEST PUSH1 0x4 PUSH0 SWAP1 SLOAD SWAP1 PUSH2 0x100 EXP SWAP1 DIV PUSH1 0xFF AND DUP2 JUMP JUMPDEST DUP1 PUSH0 DUP1 CALLER PUSH20 0xFFFFFFFFFFFFFFFFFFFFFFFFFFFFFFFFFFFFFFFF AND PUSH20 0xFFFFFFFFFFFFFFFFFFFFFFFFFFFFFFFFFFFFFFFF AND DUP2 MSTORE PUSH1 0x20 ADD SWAP1 DUP2 MSTORE PUSH1 0x20 ADD PUSH0 KECCAK256 PUSH0 DUP3 DUP3 SLOAD PUSH2 0x648 SWAP2 SWAP1 PUSH2 0xFBE JUMP JUMPDEST SWAP3 POP POP DUP2 SWAP1 SSTORE POP DUP1 PUSH1 0x2 PUSH0 DUP3 DUP3 SLOAD PUSH2 0x660 SWAP2 SWAP1 PUSH2 0xFBE JUMP JUMPDEST SWAP3 POP POP DUP2 SWAP1 SSTORE POP PUSH0 PUSH20 0xFFFFFFFFFFFFFFFFFFFFFFFFFFFFFFFFFFFFFFFF AND CALLER PUSH20 0xFFFFFFFFFFFFFFFFFFFFFFFFFFFFFFFFFFFFFFFF AND PUSH32 0xDDF252AD1BE2C89B69C2B068FC378DAA952BA7F163C4A11628F55A4DF523B3EF DUP4 PUSH1 0x40 MLOAD PUSH2 0x6C4 SWAP2 SWAP1 PUSH2 0xD9A JUMP JUMPDEST PUSH1 0x40 MLOAD DUP1 SWAP2 SUB SWAP1 LOG3 POP JUMP JUMPDEST DUP1 PUSH0 DUP1 DUP5 PUSH20 0xFFFFFFFFFFFFFFFFFFFFFFFFFFFFFFFFFFFFFFFF AND PUSH20 0xFFFFFFFFFFFFFFFFFFFFFFFFFFFFFFFFFFFFFFFF AND DUP2 MSTORE PUSH1 0x20 ADD SWAP1 DUP2 MSTORE PUSH1 0x20 ADD PUSH0 KECCAK256 PUSH0 DUP3 DUP3 SLOAD PUSH2 0x71A SWAP2 SWAP1 PUSH2 0xFF1 JUMP JUMPDEST SWAP3 POP POP DUP2 SWAP1 SSTORE POP DUP1 PUSH1 0x2 PUSH0 DUP3 DUP3 SLOAD PUSH2 0x732 SWAP2 SWAP1 PUSH2 0xFF1 JUMP JUMPDEST SWAP3 POP POP DUP2 SWAP1 SSTORE POP DUP2 PUSH20 0xFFFFFFFFFFFFFFFFFFFFFFFFFFFFFFFFFFFFFFFF AND PUSH0 PUSH20 0xFFFFFFFFFFFFFFFFFFFFFFFFFFFFFFFFFFFFFFFF AND PUSH32 0xDDF252AD1BE2C89B69C2B068FC378DAA952BA7F163C4A11628F55A4DF523B3EF DUP4 PUSH1 0x40 MLOAD PUSH2 0x796 SWAP2 SWAP1 PUSH2 0xD9A JUMP JUMPDEST PUSH1 0x40 MLOAD DUP1 SWAP2 SUB SWAP1 LOG3 POP POP JUMP JUMPDEST DUP1 PUSH0 DUP1 DUP5 PUSH20 0xFFFFFFFFFFFFFFFFFFFFFFFFFFFFFFFFFFFFFFFF AND PUSH20 0xFFFFFFFFFFFFFFFFFFFFFFFFFFFFFFFFFFFFFFFF AND DUP2 MSTORE PUSH1 0x20 ADD SWAP1 DUP2 MSTORE PUSH1 0x20 ADD PUSH0 KECCAK256 PUSH0 DUP3 DUP3 SLOAD PUSH2 0x7ED SWAP2 SWAP1 PUSH2 0xFBE JUMP JUMPDEST SWAP3 POP POP DUP2 SWAP1 SSTORE POP DUP1 PUSH1 0x2 PUSH0 DUP3 DUP3 SLOAD PUSH2 0x805 SWAP2 SWAP1 PUSH2 0xFBE JUMP JUMPDEST SWAP3 POP POP DUP2 SWAP1 SSTORE POP PUSH0 PUSH20 0xFFFFFFFFFFFFFFFFFFFFFFFFFFFFFFFFFFFFFFFF AND DUP3 PUSH20 0xFFFFFFFFFFFFFFFFFFFFFFFFFFFFFFFFFFFFFFFF AND PUSH32 0xDDF252AD1BE2C89B69C2B068FC378DAA952BA7F163C4A11628F55A4DF523B3EF DUP4 PUSH1 0x40 MLOAD PUSH2 0x869 SWAP2 SWAP1 PUSH2 0xD9A JUMP JUMPDEST PUSH1 0x40 MLOAD DUP1 SWAP2 SUB SWAP1 LOG3 POP POP JUMP JUMPDEST PUSH0 PUSH1 0x20 MSTORE DUP1 PUSH0 MSTORE PUSH1 0x40 PUSH0 KECCAK256 PUSH0 SWAP2 POP SWAP1 POP SLOAD DUP2 JUMP JUMPDEST DUP1 PUSH0 DUP1 CALLER PUSH20 0xFFFFFFFFFFFFFFFFFFFFFFFFFFFFFFFFFFFFFFFF AND PUSH20 0xFFFFFFFFFFFFFFFFFFFFFFFFFFFFFFFFFFFFFFFF AND DUP2 MSTORE PUSH1 0x20 ADD SWAP1 DUP2 MSTORE PUSH1 0x20 ADD PUSH0 KECCAK256 SLOAD LT ISZERO PUSH2 0x908 JUMPI PUSH1 0x40 MLOAD PUSH32 0x8C379A000000000000000000000000000000000000000000000000000000000 DUP2 MSTORE PUSH1 0x4 ADD PUSH2 0x8FF SWAP1 PUSH2 0x106E JUMP JUMPDEST PUSH1 0x40 MLOAD DUP1 SWAP2 SUB SWAP1 REVERT JUMPDEST PUSH2 0x912 CALLER DUP3 PUSH2 0x7A2 JUMP JUMPDEST PUSH0 CALLER PUSH20 0xFFFFFFFFFFFFFFFFFFFFFFFFFFFFFFFFFFFFFFFF AND DUP3 PUSH1 0x40 MLOAD PUSH2 0x937 SWAP1 PUSH2 0x10B9 JUMP JUMPDEST PUSH0 PUSH1 0x40 MLOAD DUP1 DUP4 SUB DUP2 DUP6 DUP8 GAS CALL SWAP3 POP POP POP RETURNDATASIZE DUP1 PUSH0 DUP2 EQ PUSH2 0x971 JUMPI PUSH1 0x40 MLOAD SWAP2 POP PUSH1 0x1F NOT PUSH1 0x3F RETURNDATASIZE ADD AND DUP3 ADD PUSH1 0x40 MSTORE RETURNDATASIZE DUP3 MSTORE RETURNDATASIZE PUSH0 PUSH1 0x20 DUP5 ADD RETURNDATACOPY PUSH2 0x976 JUMP JUMPDEST PUSH1 0x60 SWAP2 POP JUMPDEST POP POP SWAP1 POP DUP1 PUSH2 0x9BA JUMPI PUSH1 0x40 MLOAD PUSH32 0x8C379A000000000000000000000000000000000000000000000000000000000 DUP2 MSTORE PUSH1 0x4 ADD PUSH2 0x9B1 SWAP1 PUSH2 0x1117 JUMP JUMPDEST PUSH1 0x40 MLOAD DUP1 SWAP2 SUB SWAP1 REVERT JUMPDEST PUSH32 0x7FCF532C15F0A6DB0BD6D0E038BEA71D30D808C7D98CB3BF7268A95BF5081B65 CALLER DUP4 PUSH1 0x40 MLOAD PUSH2 0x9EB SWAP3 SWAP2 SWAP1 PUSH2 0xF6A JUMP JUMPDEST PUSH1 0x40 MLOAD DUP1 SWAP2 SUB SWAP1 LOG1 POP POP JUMP JUMPDEST PUSH1 0x3 DUP1 SLOAD PUSH2 0xA04 SWAP1 PUSH2 0x1162 JUMP JUMPDEST DUP1 PUSH1 0x1F ADD PUSH1 0x20 DUP1 SWAP2 DIV MUL PUSH1 0x20 ADD PUSH1 0x40 MLOAD SWAP1 DUP2 ADD PUSH1 0x40 MSTORE DUP1 SWAP3 SWAP2 SWAP1 DUP2 DUP2 MSTORE PUSH1 0x20 ADD DUP3 DUP1 SLOAD PUSH2 0xA30 SWAP1 PUSH2 0x1162 JUMP JUMPDEST DUP1 ISZERO PUSH2 0xA7B JUMPI DUP1 PUSH1 0x1F LT PUSH2 0xA52 JUMPI PUSH2 0x100 DUP1 DUP4 SLOAD DIV MUL DUP4 MSTORE SWAP2 PUSH1 0x20 ADD SWAP2 PUSH2 0xA7B JUMP JUMPDEST DUP3 ADD SWAP2 SWAP1 PUSH0 MSTORE PUSH1 0x20 PUSH0 KECCAK256 SWAP1 JUMPDEST DUP2 SLOAD DUP2 MSTORE SWAP1 PUSH1 0x1 ADD SWAP1 PUSH1 0x20 ADD DUP1 DUP4 GT PUSH2 0xA5E JUMPI DUP3 SWAP1 SUB PUSH1 0x1F AND DUP3 ADD SWAP2 JUMPDEST POP POP POP POP POP DUP2 JUMP JUMPDEST DUP1 PUSH0 DUP1 CALLER PUSH20 0xFFFFFFFFFFFFFFFFFFFFFFFFFFFFFFFFFFFFFFFF AND PUSH20 0xFFFFFFFFFFFFFFFFFFFFFFFFFFFFFFFFFFFFFFFF AND DUP2 MSTORE PUSH1 0x20 ADD SWAP1 DUP2 MSTORE PUSH1 0x20 ADD PUSH0 KECCAK256 PUSH0 DUP3 DUP3 SLOAD PUSH2 0xACE SWAP2 SWAP1 PUSH2 0xFF1 JUMP JUMPDEST SWAP3 POP POP DUP2 SWAP1 SSTORE POP DUP1 PUSH1 0x2 PUSH0 DUP3 DUP3 SLOAD PUSH2 0xAE6 SWAP2 SWAP1 PUSH2 0xFF1 JUMP JUMPDEST SWAP3 POP POP DUP2 SWAP1 SSTORE POP CALLER PUSH20 0xFFFFFFFFFFFFFFFFFFFFFFFFFFFFFFFFFFFFFFFF AND PUSH0 PUSH20 0xFFFFFFFFFFFFFFFFFFFFFFFFFFFFFFFFFFFFFFFF AND PUSH32 0xDDF252AD1BE2C89B69C2B068FC378DAA952BA7F163C4A11628F55A4DF523B3EF DUP4 PUSH1 0x40 MLOAD PUSH2 0xB4A SWAP2 SWAP1 PUSH2 0xD9A JUMP JUMPDEST PUSH1 0x40 MLOAD DUP1 SWAP2 SUB SWAP1 LOG3 POP JUMP JUMPDEST PUSH0 DUP2 PUSH0 DUP1 CALLER PUSH20 0xFFFFFFFFFFFFFFFFFFFFFFFFFFFFFFFFFFFFFFFF AND PUSH20 0xFFFFFFFFFFFFFFFFFFFFFFFFFFFFFFFFFFFFFFFF AND DUP2 MSTORE PUSH1 0x20 ADD SWAP1 DUP2 MSTORE PUSH1 0x20 ADD PUSH0 KECCAK256 PUSH0 DUP3 DUP3 SLOAD PUSH2 0xBA1 SWAP2 SWAP1 PUSH2 0xFBE JUMP JUMPDEST SWAP3 POP POP DUP2 SWAP1 SSTORE POP DUP2 PUSH0 DUP1 DUP6 PUSH20 0xFFFFFFFFFFFFFFFFFFFFFFFFFFFFFFFFFFFFFFFF AND PUSH20 0xFFFFFFFFFFFFFFFFFFFFFFFFFFFFFFFFFFFFFFFF AND DUP2 MSTORE PUSH1 0x20 ADD SWAP1 DUP2 MSTORE PUSH1 0x20 ADD PUSH0 KECCAK256 PUSH0 DUP3 DUP3 SLOAD PUSH2 0xBF3 SWAP2 SWAP1 PUSH2 0xFF1 JUMP JUMPDEST SWAP3 POP POP DUP2 SWAP1 SSTORE POP DUP3 PUSH20 0xFFFFFFFFFFFFFFFFFFFFFFFFFFFFFFFFFFFFFFFF AND CALLER PUSH20 0xFFFFFFFFFFFFFFFFFFFFFFFFFFFFFFFFFFFFFFFF AND PUSH32 0xDDF252AD1BE2C89B69C2B068FC378DAA952BA7F163C4A11628F55A4DF523B3EF DUP5 PUSH1 0x40 MLOAD PUSH2 0xC57 SWAP2 SWAP1 PUSH2 0xD9A JUMP JUMPDEST PUSH1 0x40 MLOAD DUP1 SWAP2 SUB SWAP1 LOG3 PUSH1 0x1 SWAP1 POP SWAP3 SWAP2 POP POP JUMP JUMPDEST PUSH1 0x1 PUSH1 0x20 MSTORE DUP2 PUSH0 MSTORE PUSH1 0x40 PUSH0 KECCAK256 PUSH1 0x20 MSTORE DUP1 PUSH0 MSTORE PUSH1 0x40 PUSH0 KECCAK256 PUSH0 SWAP2 POP SWAP2 POP POP SLOAD DUP2 JUMP JUMPDEST PUSH0 DUP1 REVERT JUMPDEST PUSH0 PUSH20 0xFFFFFFFFFFFFFFFFFFFFFFFFFFFFFFFFFFFFFFFF DUP3 AND SWAP1 POP SWAP2 SWAP1 POP JUMP JUMPDEST PUSH0 PUSH2 0xCB6 DUP3 PUSH2 0xC8D JUMP JUMPDEST SWAP1 POP SWAP2 SWAP1 POP JUMP JUMPDEST PUSH2 0xCC6 DUP2 PUSH2 0xCAC JUMP JUMPDEST DUP2 EQ PUSH2 0xCD0 JUMPI PUSH0 DUP1 REVERT JUMPDEST POP JUMP JUMPDEST PUSH0 DUP2 CALLDATALOAD SWAP1 POP PUSH2 0xCE1 DUP2 PUSH2 0xCBD JUMP JUMPDEST SWAP3 SWAP2 POP POP JUMP JUMPDEST PUSH0 DUP2 SWAP1 POP SWAP2 SWAP1 POP JUMP JUMPDEST PUSH2 0xCF9 DUP2 PUSH2 0xCE7 JUMP JUMPDEST DUP2 EQ PUSH2 0xD03 JUMPI PUSH0 DUP1 REVERT JUMPDEST POP JUMP JUMPDEST PUSH0 DUP2 CALLDATALOAD SWAP1 POP PUSH2 0xD14 DUP2 PUSH2 0xCF0 JUMP JUMPDEST SWAP3 SWAP2 POP POP JUMP JUMPDEST PUSH0 DUP1 PUSH1 0x40 DUP4 DUP6 SUB SLT ISZERO PUSH2 0xD30 JUMPI PUSH2 0xD2F PUSH2 0xC89 JUMP JUMPDEST JUMPDEST PUSH0 PUSH2 0xD3D DUP6 DUP3 DUP7 ADD PUSH2 0xCD3 JUMP JUMPDEST SWAP3 POP POP PUSH1 0x20 PUSH2 0xD4E DUP6 DUP3 DUP7 ADD PUSH2 0xD06 JUMP JUMPDEST SWAP2 POP POP SWAP3 POP SWAP3 SWAP1 POP JUMP JUMPDEST PUSH0 DUP2 ISZERO ISZERO SWAP1 POP SWAP2 SWAP1 POP JUMP JUMPDEST PUSH2 0xD6C DUP2 PUSH2 0xD58 JUMP JUMPDEST DUP3 MSTORE POP POP JUMP JUMPDEST PUSH0 PUSH1 0x20 DUP3 ADD SWAP1 POP PUSH2 0xD85 PUSH0 DUP4 ADD DUP5 PUSH2 0xD63 JUMP JUMPDEST SWAP3 SWAP2 POP POP JUMP JUMPDEST PUSH2 0xD94 DUP2 PUSH2 0xCE7 JUMP JUMPDEST DUP3 MSTORE POP POP JUMP JUMPDEST PUSH0 PUSH1 0x20 DUP3 ADD SWAP1 POP PUSH2 0xDAD PUSH0 DUP4 ADD DUP5 PUSH2 0xD8B JUMP JUMPDEST SWAP3 SWAP2 POP POP JUMP JUMPDEST PUSH0 DUP1 PUSH0 PUSH1 0x60 DUP5 DUP7 SUB SLT ISZERO PUSH2 0xDCA JUMPI PUSH2 0xDC9 PUSH2 0xC89 JUMP JUMPDEST JUMPDEST PUSH0 PUSH2 0xDD7 DUP7 DUP3 DUP8 ADD PUSH2 0xCD3 JUMP JUMPDEST SWAP4 POP POP PUSH1 0x20 PUSH2 0xDE8 DUP7 DUP3 DUP8 ADD PUSH2 0xCD3 JUMP JUMPDEST SWAP3 POP POP PUSH1 0x40 PUSH2 0xDF9 DUP7 DUP3 DUP8 ADD PUSH2 0xD06 JUMP JUMPDEST SWAP2 POP POP SWAP3 POP SWAP3 POP SWAP3 JUMP JUMPDEST PUSH0 PUSH1 0xFF DUP3 AND SWAP1 POP SWAP2 SWAP1 POP JUMP JUMPDEST PUSH2 0xE18 DUP2 PUSH2 0xE03 JUMP JUMPDEST DUP3 MSTORE POP POP JUMP JUMPDEST PUSH0 PUSH1 0x20 DUP3 ADD SWAP1 POP PUSH2 0xE31 PUSH0 DUP4 ADD DUP5 PUSH2 0xE0F JUMP JUMPDEST SWAP3 SWAP2 POP POP JUMP JUMPDEST PUSH0 PUSH1 0x20 DUP3 DUP5 SUB SLT ISZERO PUSH2 0xE4C JUMPI PUSH2 0xE4B PUSH2 0xC89 JUMP JUMPDEST JUMPDEST PUSH0 PUSH2 0xE59 DUP5 DUP3 DUP6 ADD PUSH2 0xD06 JUMP JUMPDEST SWAP2 POP POP SWAP3 SWAP2 POP POP JUMP JUMPDEST PUSH0 PUSH1 0x20 DUP3 DUP5 SUB SLT ISZERO PUSH2 0xE77 JUMPI PUSH2 0xE76 PUSH2 0xC89 JUMP JUMPDEST JUMPDEST PUSH0 PUSH2 0xE84 DUP5 DUP3 DUP6 ADD PUSH2 0xCD3 JUMP JUMPDEST SWAP2 POP POP SWAP3 SWAP2 POP POP JUMP JUMPDEST PUSH0 DUP2 MLOAD SWAP1 POP SWAP2 SWAP1 POP JUMP JUMPDEST PUSH0 DUP3 DUP3 MSTORE PUSH1 0x20 DUP3 ADD SWAP1 POP SWAP3 SWAP2 POP POP JUMP JUMPDEST DUP3 DUP2 DUP4 MCOPY PUSH0 DUP4 DUP4 ADD MSTORE POP POP POP JUMP JUMPDEST PUSH0 PUSH1 0x1F NOT PUSH1 0x1F DUP4 ADD AND SWAP1 POP SWAP2 SWAP1 POP JUMP JUMPDEST PUSH0 PUSH2 0xECF DUP3 PUSH2 0xE8D JUMP JUMPDEST PUSH2 0xED9 DUP2 DUP6 PUSH2 0xE97 JUMP JUMPDEST SWAP4 POP PUSH2 0xEE9 DUP2 DUP6 PUSH1 0x20 DUP7 ADD PUSH2 0xEA7 JUMP JUMPDEST PUSH2 0xEF2 DUP2 PUSH2 0xEB5 JUMP JUMPDEST DUP5 ADD SWAP2 POP POP SWAP3 SWAP2 POP POP JUMP JUMPDEST PUSH0 PUSH1 0x20 DUP3 ADD SWAP1 POP DUP2 DUP2 SUB PUSH0 DUP4 ADD MSTORE PUSH2 0xF15 DUP2 DUP5 PUSH2 0xEC5 JUMP JUMPDEST SWAP1 POP SWAP3 SWAP2 POP POP JUMP JUMPDEST PUSH0 DUP1 PUSH1 0x40 DUP4 DUP6 SUB SLT ISZERO PUSH2 0xF33 JUMPI PUSH2 0xF32 PUSH2 0xC89 JUMP JUMPDEST JUMPDEST PUSH0 PUSH2 0xF40 DUP6 DUP3 DUP7 ADD PUSH2 0xCD3 JUMP JUMPDEST SWAP3 POP POP PUSH1 0x20 PUSH2 0xF51 DUP6 DUP3 DUP7 ADD PUSH2 0xCD3 JUMP JUMPDEST SWAP2 POP POP SWAP3 POP SWAP3 SWAP1 POP JUMP JUMPDEST PUSH2 0xF64 DUP2 PUSH2 0xCAC JUMP JUMPDEST DUP3 MSTORE POP POP JUMP JUMPDEST PUSH0 PUSH1 0x40 DUP3 ADD SWAP1 POP PUSH2 0xF7D PUSH0 DUP4 ADD DUP6 PUSH2 0xF5B JUMP JUMPDEST PUSH2 0xF8A PUSH1 0x20 DUP4 ADD DUP5 PUSH2 0xD8B JUMP JUMPDEST SWAP4 SWAP3 POP POP POP JUMP JUMPDEST PUSH32 0x4E487B7100000000000000000000000000000000000000000000000000000000 PUSH0 MSTORE PUSH1 0x11 PUSH1 0x4 MSTORE PUSH1 0x24 PUSH0 REVERT JUMPDEST PUSH0 PUSH2 0xFC8 DUP3 PUSH2 0xCE7 JUMP JUMPDEST SWAP2 POP PUSH2 0xFD3 DUP4 PUSH2 0xCE7 JUMP JUMPDEST SWAP3 POP DUP3 DUP3 SUB SWAP1 POP DUP2 DUP2 GT ISZERO PUSH2 0xFEB JUMPI PUSH2 0xFEA PUSH2 0xF91 JUMP JUMPDEST JUMPDEST SWAP3 SWAP2 POP POP JUMP JUMPDEST PUSH0 PUSH2 0xFFB DUP3 PUSH2 0xCE7 JUMP JUMPDEST SWAP2 POP PUSH2 0x1006 DUP4 PUSH2 0xCE7 JUMP JUMPDEST SWAP3 POP DUP3 DUP3 ADD SWAP1 POP DUP1 DUP3 GT ISZERO PUSH2 0x101E JUMPI PUSH2 0x101D PUSH2 0xF91 JUMP JUMPDEST JUMPDEST SWAP3 SWAP2 POP POP JUMP JUMPDEST PUSH32 0x496E73756666696369656E7420746F6B656E0000000000000000000000000000 PUSH0 DUP3 ADD MSTORE POP JUMP JUMPDEST PUSH0 PUSH2 0x1058 PUSH1 0x12 DUP4 PUSH2 0xE97 JUMP JUMPDEST SWAP2 POP PUSH2 0x1063 DUP3 PUSH2 0x1024 JUMP JUMPDEST PUSH1 0x20 DUP3 ADD SWAP1 POP SWAP2 SWAP1 POP JUMP JUMPDEST PUSH0 PUSH1 0x20 DUP3 ADD SWAP1 POP DUP2 DUP2 SUB PUSH0 DUP4 ADD MSTORE PUSH2 0x1085 DUP2 PUSH2 0x104C JUMP JUMPDEST SWAP1 POP SWAP2 SWAP1 POP JUMP JUMPDEST PUSH0 DUP2 SWAP1 POP SWAP3 SWAP2 POP POP JUMP JUMPDEST POP JUMP JUMPDEST PUSH0 PUSH2 0x10A4 PUSH0 DUP4 PUSH2 0x108C JUMP JUMPDEST SWAP2 POP PUSH2 0x10AF DUP3 PUSH2 0x1096 JUMP JUMPDEST PUSH0 DUP3 ADD SWAP1 POP SWAP2 SWAP1 POP JUMP JUMPDEST PUSH0 PUSH2 0x10C3 DUP3 PUSH2 0x1099 JUMP JUMPDEST SWAP2 POP DUP2 SWAP1 POP SWAP2 SWAP1 POP JUMP JUMPDEST PUSH32 0x7472616E73666572206661696C00000000000000000000000000000000000000 PUSH0 DUP3 ADD MSTORE POP JUMP JUMPDEST PUSH0 PUSH2 0x1101 PUSH1 0xD DUP4 PUSH2 0xE97 JUMP JUMPDEST SWAP2 POP PUSH2 0x110C DUP3 PUSH2 0x10CD JUMP JUMPDEST PUSH1 0x20 DUP3 ADD SWAP1 POP SWAP2 SWAP1 POP JUMP JUMPDEST PUSH0 PUSH1 0x20 DUP3 ADD SWAP1 POP DUP2 DUP2 SUB PUSH0 DUP4 ADD MSTORE PUSH2 0x112E DUP2 PUSH2 0x10F5 JUMP JUMPDEST SWAP1 POP SWAP2 SWAP1 POP JUMP JUMPDEST PUSH32 0x4E487B7100000000000000000000000000000000000000000000000000000000 PUSH0 MSTORE PUSH1 0x22 PUSH1 0x4 MSTORE PUSH1 0x24 PUSH0 REVERT JUMPDEST PUSH0 PUSH1 0x2 DUP3 DIV SWAP1 POP PUSH1 0x1 DUP3 AND DUP1 PUSH2 0x1179 JUMPI PUSH1 0x7F DUP3 AND SWAP2 POP JUMPDEST PUSH1 0x20 DUP3 LT DUP2 SUB PUSH2 0x118C JUMPI PUSH2 0x118B PUSH2 0x1135 JUMP JUMPDEST JUMPDEST POP SWAP2 SWAP1 POP JUMP INVALID LOG2 PUSH5 0x6970667358 0x22 SLT KECCAK256 SWAP10 0xF LOG0 0xD2 0xEE LOG1 0xBB 0xE 0xB3 PUSH2 0x95FA ADD DUP6 PUSH17 0xFF970B5EC509BDF0AAB36E9DA502D3915D PUSH5 0x736F6C6343 STOP ADDMOD BYTE STOP CALLER "
				},
				"gasEstimates": {
					"creation": {
						"codeDepositCost": "910400",
						"executionCost": "infinite",
						"totalCost": "infinite"
					},
					"external": {
						"": "infinite",
						"_burn(address,uint256)": "infinite",
						"_mint(address,uint256)": "infinite",
						"allowance(address,address)": "infinite",
						"approve(address,uint256)": "infinite",
						"balanceOf(address)": "2824",
						"burn(uint256)": "infinite",
						"decimals()": "2489",
						"deposite()": "infinite",
						"mint(uint256)": "infinite",
						"symbol()": "infinite",
						"totalSupply()": "2471",
						"transfer(address,uint256)": "infinite",
						"transferFrom(address,address,uint256)": "infinite",
						"withdrawal(uint256)": "infinite"
					}
				},
				"methodIdentifiers": {
					"_burn(address,uint256)": "6161eb18",
					"_mint(address,uint256)": "4e6ec247",
					"allowance(address,address)": "dd62ed3e",
					"approve(address,uint256)": "095ea7b3",
					"balanceOf(address)": "70a08231",
					"burn(uint256)": "42966c68",
					"decimals()": "313ce567",
					"deposite()": "a50ec326",
					"mint(uint256)": "a0712d68",
					"symbol()": "95d89b41",
					"totalSupply()": "18160ddd",
					"transfer(address,uint256)": "a9059cbb",
					"transferFrom(address,address,uint256)": "23b872dd",
					"withdrawal(uint256)": "835fc6ca"
				}
			},
			"storageLayout": {
				"storage": [
					{
						"astId": 74,
						"contract": "contracts/WETH.sol:WETH",
						"label": "balanceOf",
						"offset": 0,
						"slot": "0",
						"type": "t_mapping(t_address,t_uint256)"
					},
					{
						"astId": 80,
						"contract": "contracts/WETH.sol:WETH",
						"label": "allowance",
						"offset": 0,
						"slot": "1",
						"type": "t_mapping(t_address,t_mapping(t_address,t_uint256))"
					},
					{
						"astId": 82,
						"contract": "contracts/WETH.sol:WETH",
						"label": "totalSupply",
						"offset": 0,
						"slot": "2",
						"type": "t_uint256"
					},
					{
						"astId": 84,
						"contract": "contracts/WETH.sol:WETH",
						"label": "symbol",
						"offset": 0,
						"slot": "3",
						"type": "t_string_storage"
					},
					{
						"astId": 86,
						"contract": "contracts/WETH.sol:WETH",
						"label": "decimals",
						"offset": 0,
						"slot": "4",
						"type": "t_uint8"
					}
				],
				"types": {
					"t_address": {
						"encoding": "inplace",
						"label": "address",
						"numberOfBytes": "20"
					},
					"t_mapping(t_address,t_mapping(t_address,t_uint256))": {
						"encoding": "mapping",
						"key": "t_address",
						"label": "mapping(address => mapping(address => uint256))",
						"numberOfBytes": "32",
						"value": "t_mapping(t_address,t_uint256)"
					},
					"t_mapping(t_address,t_uint256)": {
						"encoding": "mapping",
						"key": "t_address",
						"label": "mapping(address => uint256)",
						"numberOfBytes": "32",
						"value": "t_uint256"
					},
					"t_string_storage": {
						"encoding": "bytes",
						"label": "string",
						"numberOfBytes": "32"
					},
					"t_uint256": {
						"encoding": "inplace",
						"label": "uint256",
						"numberOfBytes": "32"
					},
					"t_uint8": {
						"encoding": "inplace",
						"label": "uint8",
						"numberOfBytes": "1"
					}
				}
			},
			"userdoc": {
				"kind": "user",
				"methods": {},
				"notice": "同比例将ETH兑换为WETH,旨在方便对WETH进行跨链等操作",
				"version": 1
			}
		}
	}
}