{
	"contracts/Selector.sol": {
		"FunSelector": {
			"abi": [
				{
					"anonymous": false,
					"inputs": [
						{
							"indexed": false,
							"internalType": "bytes",
							"name": "data",
							"type": "bytes"
						}
					],
					"name": "Log",
					"type": "event"
				},
				{
					"inputs": [
						{
							"internalType": "string",
							"name": "fun",
							"type": "string"
						}
					],
					"name": "getSelector",
					"outputs": [
						{
							"internalType": "bytes4",
							"name": "",
							"type": "bytes4"
						}
					],
					"stateMutability": "pure",
					"type": "function"
				},
				{
					"inputs": [
						{
							"internalType": "address",
							"name": "_addr",
							"type": "address"
						},
						{
							"internalType": "uint256",
							"name": "amount",
							"type": "uint256"
						}
					],
					"name": "receiver",
					"outputs": [],
					"stateMutability": "nonpayable",
					"type": "function"
				},
				{
					"inputs": [
						{
							"internalType": "uint256[]",
							"name": "arr",
							"type": "uint256[]"
						}
					],
					"name": "sumIfEvenAndLessThan99",
					"outputs": [],
					"stateMutability": "nonpayable",
					"type": "function"
				}
			],
			"devdoc": {
				"kind": "dev",
				"methods": {},
				"version": 1
			},
			"evm": {
				"assembly": "    /* \"contracts/Selector.sol\":61:1561  contract FunSelector {... */\n  mstore(0x40, 0x80)\n  callvalue\n  dup1\n  iszero\n  tag_1\n  jumpi\n  0x00\n  dup1\n  revert\ntag_1:\n  pop\n  dataSize(sub_0)\n  dup1\n  dataOffset(sub_0)\n  0x00\n  codecopy\n  0x00\n  return\nstop\n\nsub_0: assembly {\n        /* \"contracts/Selector.sol\":61:1561  contract FunSelector {... */\n      mstore(0x40, 0x80)\n      callvalue\n      dup1\n      iszero\n      tag_1\n      jumpi\n      0x00\n      dup1\n      revert\n    tag_1:\n      pop\n      jumpi(tag_2, lt(calldatasize, 0x04))\n      shr(0xe0, calldataload(0x00))\n      dup1\n      0x80a003ff\n      eq\n      tag_3\n      jumpi\n      dup1\n      0x9db0ba39\n      eq\n      tag_4\n      jumpi\n      dup1\n      0xc9762ec2\n      eq\n      tag_5\n      jumpi\n    tag_2:\n      0x00\n      dup1\n      revert\n        /* \"contracts/Selector.sol\":91:490  function getSelector(string calldata fun) external pure returns(bytes4) {... */\n    tag_3:\n      tag_6\n      0x04\n      dup1\n      calldatasize\n      sub\n      dup2\n      add\n      swap1\n      tag_7\n      swap2\n      swap1\n      tag_8\n      jump\t// in\n    tag_7:\n      tag_9\n      jump\t// in\n    tag_6:\n      mload(0x40)\n      tag_10\n      swap2\n      swap1\n      tag_11\n      jump\t// in\n    tag_10:\n      mload(0x40)\n      dup1\n      swap2\n      sub\n      swap1\n      return\n        /* \"contracts/Selector.sol\":1152:1451  function receiver(address _addr,uint amount) external {... */\n    tag_4:\n      tag_12\n      0x04\n      dup1\n      calldatasize\n      sub\n      dup2\n      add\n      swap1\n      tag_13\n      swap2\n      swap1\n      tag_14\n      jump\t// in\n    tag_13:\n      tag_15\n      jump\t// in\n    tag_12:\n      stop\n        /* \"contracts/Selector.sol\":1459:1558  function sumIfEvenAndLessThan99(uint[] calldata arr) external {... */\n    tag_5:\n      tag_16\n      0x04\n      dup1\n      calldatasize\n      sub\n      dup2\n      add\n      swap1\n      tag_17\n      swap2\n      swap1\n      tag_18\n      jump\t// in\n    tag_17:\n      tag_19\n      jump\t// in\n    tag_16:\n      stop\n        /* \"contracts/Selector.sol\":91:490  function getSelector(string calldata fun) external pure returns(bytes4) {... */\n    tag_9:\n        /* \"contracts/Selector.sol\":155:161  bytes4 */\n      0x00\n        /* \"contracts/Selector.sol\":476:479  fun */\n      dup3\n      dup3\n        /* \"contracts/Selector.sol\":460:481  keccak256(bytes(fun)) */\n      mload(0x40)\n      tag_21\n      swap3\n      swap2\n      swap1\n      tag_22\n      jump\t// in\n    tag_21:\n      mload(0x40)\n      dup1\n      swap2\n      sub\n      swap1\n      keccak256\n        /* \"contracts/Selector.sol\":446:482  return bytes4(keccak256(bytes(fun))) */\n      swap1\n      pop\n        /* \"contracts/Selector.sol\":91:490  function getSelector(string calldata fun) external pure returns(bytes4) {... */\n      swap3\n      swap2\n      pop\n      pop\n      jump\t// out\n        /* \"contracts/Selector.sol\":1152:1451  function receiver(address _addr,uint amount) external {... */\n    tag_15:\n        /* \"contracts/Selector.sol\":1222:1235  Log(msg.data) */\n      0xafabcf2dd47e06a477a89e49c03f8ebe8e0a7e94f775b25bbb24227c9d0110b2\n        /* \"contracts/Selector.sol\":1226:1234  msg.data */\n      0x00\n      calldatasize\n        /* \"contracts/Selector.sol\":1222:1235  Log(msg.data) */\n      mload(0x40)\n      tag_24\n      swap3\n      swap2\n      swap1\n      tag_25\n      jump\t// in\n    tag_24:\n      mload(0x40)\n      dup1\n      swap2\n      sub\n      swap1\n      log1\n        /* \"contracts/Selector.sol\":1152:1451  function receiver(address _addr,uint amount) external {... */\n      pop\n      pop\n      jump\t// out\n        /* \"contracts/Selector.sol\":1459:1558  function sumIfEvenAndLessThan99(uint[] calldata arr) external {... */\n    tag_19:\n        /* \"contracts/Selector.sol\":1537:1550  Log(msg.data) */\n      0xafabcf2dd47e06a477a89e49c03f8ebe8e0a7e94f775b25bbb24227c9d0110b2\n        /* \"contracts/Selector.sol\":1541:1549  msg.data */\n      0x00\n      calldatasize\n        /* \"contracts/Selector.sol\":1537:1550  Log(msg.data) */\n      mload(0x40)\n      tag_27\n      swap3\n      swap2\n      swap1\n      tag_25\n      jump\t// in\n    tag_27:\n      mload(0x40)\n      dup1\n      swap2\n      sub\n      swap1\n      log1\n        /* \"contracts/Selector.sol\":1459:1558  function sumIfEvenAndLessThan99(uint[] calldata arr) external {... */\n      pop\n      pop\n      jump\t// out\n        /* \"#utility.yul\":88:205   */\n    tag_29:\n        /* \"#utility.yul\":197:198   */\n      0x00\n        /* \"#utility.yul\":194:195   */\n      dup1\n        /* \"#utility.yul\":187:199   */\n      revert\n        /* \"#utility.yul\":211:328   */\n    tag_30:\n        /* \"#utility.yul\":320:321   */\n      0x00\n        /* \"#utility.yul\":317:318   */\n      dup1\n        /* \"#utility.yul\":310:322   */\n      revert\n        /* \"#utility.yul\":334:451   */\n    tag_31:\n        /* \"#utility.yul\":443:444   */\n      0x00\n        /* \"#utility.yul\":440:441   */\n      dup1\n        /* \"#utility.yul\":433:445   */\n      revert\n        /* \"#utility.yul\":457:574   */\n    tag_32:\n        /* \"#utility.yul\":566:567   */\n      0x00\n        /* \"#utility.yul\":563:564   */\n      dup1\n        /* \"#utility.yul\":556:568   */\n      revert\n        /* \"#utility.yul\":580:697   */\n    tag_33:\n        /* \"#utility.yul\":689:690   */\n      0x00\n        /* \"#utility.yul\":686:687   */\n      dup1\n        /* \"#utility.yul\":679:691   */\n      revert\n        /* \"#utility.yul\":717:1270   */\n    tag_34:\n        /* \"#utility.yul\":775:783   */\n      0x00\n        /* \"#utility.yul\":785:791   */\n      dup1\n        /* \"#utility.yul\":835:838   */\n      dup4\n        /* \"#utility.yul\":828:832   */\n      0x1f\n        /* \"#utility.yul\":820:826   */\n      dup5\n        /* \"#utility.yul\":816:833   */\n      add\n        /* \"#utility.yul\":812:839   */\n      slt\n        /* \"#utility.yul\":802:924   */\n      tag_59\n      jumpi\n        /* \"#utility.yul\":843:922   */\n      tag_60\n      tag_31\n      jump\t// in\n    tag_60:\n        /* \"#utility.yul\":802:924   */\n    tag_59:\n        /* \"#utility.yul\":956:962   */\n      dup3\n        /* \"#utility.yul\":943:963   */\n      calldataload\n        /* \"#utility.yul\":933:963   */\n      swap1\n      pop\n        /* \"#utility.yul\":986:1004   */\n      0xffffffffffffffff\n        /* \"#utility.yul\":978:984   */\n      dup2\n        /* \"#utility.yul\":975:1005   */\n      gt\n        /* \"#utility.yul\":972:1089   */\n      iszero\n      tag_61\n      jumpi\n        /* \"#utility.yul\":1008:1087   */\n      tag_62\n      tag_32\n      jump\t// in\n    tag_62:\n        /* \"#utility.yul\":972:1089   */\n    tag_61:\n        /* \"#utility.yul\":1122:1126   */\n      0x20\n        /* \"#utility.yul\":1114:1120   */\n      dup4\n        /* \"#utility.yul\":1110:1127   */\n      add\n        /* \"#utility.yul\":1098:1127   */\n      swap2\n      pop\n        /* \"#utility.yul\":1176:1179   */\n      dup4\n        /* \"#utility.yul\":1168:1172   */\n      0x01\n        /* \"#utility.yul\":1160:1166   */\n      dup3\n        /* \"#utility.yul\":1156:1173   */\n      mul\n        /* \"#utility.yul\":1146:1154   */\n      dup4\n        /* \"#utility.yul\":1142:1174   */\n      add\n        /* \"#utility.yul\":1139:1180   */\n      gt\n        /* \"#utility.yul\":1136:1264   */\n      iszero\n      tag_63\n      jumpi\n        /* \"#utility.yul\":1183:1262   */\n      tag_64\n      tag_33\n      jump\t// in\n    tag_64:\n        /* \"#utility.yul\":1136:1264   */\n    tag_63:\n        /* \"#utility.yul\":717:1270   */\n      swap3\n      pop\n      swap3\n      swap1\n      pop\n      jump\t// out\n        /* \"#utility.yul\":1276:1805   */\n    tag_8:\n        /* \"#utility.yul\":1347:1353   */\n      0x00\n        /* \"#utility.yul\":1355:1361   */\n      dup1\n        /* \"#utility.yul\":1404:1406   */\n      0x20\n        /* \"#utility.yul\":1392:1401   */\n      dup4\n        /* \"#utility.yul\":1383:1390   */\n      dup6\n        /* \"#utility.yul\":1379:1402   */\n      sub\n        /* \"#utility.yul\":1375:1407   */\n      slt\n        /* \"#utility.yul\":1372:1491   */\n      iszero\n      tag_66\n      jumpi\n        /* \"#utility.yul\":1410:1489   */\n      tag_67\n      tag_29\n      jump\t// in\n    tag_67:\n        /* \"#utility.yul\":1372:1491   */\n    tag_66:\n        /* \"#utility.yul\":1558:1559   */\n      0x00\n        /* \"#utility.yul\":1547:1556   */\n      dup4\n        /* \"#utility.yul\":1543:1560   */\n      add\n        /* \"#utility.yul\":1530:1561   */\n      calldataload\n        /* \"#utility.yul\":1588:1606   */\n      0xffffffffffffffff\n        /* \"#utility.yul\":1580:1586   */\n      dup2\n        /* \"#utility.yul\":1577:1607   */\n      gt\n        /* \"#utility.yul\":1574:1691   */\n      iszero\n      tag_68\n      jumpi\n        /* \"#utility.yul\":1610:1689   */\n      tag_69\n      tag_30\n      jump\t// in\n    tag_69:\n        /* \"#utility.yul\":1574:1691   */\n    tag_68:\n        /* \"#utility.yul\":1723:1788   */\n      tag_70\n        /* \"#utility.yul\":1780:1787   */\n      dup6\n        /* \"#utility.yul\":1771:1777   */\n      dup3\n        /* \"#utility.yul\":1760:1769   */\n      dup7\n        /* \"#utility.yul\":1756:1778   */\n      add\n        /* \"#utility.yul\":1723:1788   */\n      tag_34\n      jump\t// in\n    tag_70:\n        /* \"#utility.yul\":1705:1788   */\n      swap3\n      pop\n      swap3\n      pop\n        /* \"#utility.yul\":1501:1798   */\n      pop\n        /* \"#utility.yul\":1276:1805   */\n      swap3\n      pop\n      swap3\n      swap1\n      pop\n      jump\t// out\n        /* \"#utility.yul\":1811:1960   */\n    tag_35:\n        /* \"#utility.yul\":1847:1854   */\n      0x00\n        /* \"#utility.yul\":1887:1953   */\n      0xffffffff00000000000000000000000000000000000000000000000000000000\n        /* \"#utility.yul\":1880:1885   */\n      dup3\n        /* \"#utility.yul\":1876:1954   */\n      and\n        /* \"#utility.yul\":1865:1954   */\n      swap1\n      pop\n        /* \"#utility.yul\":1811:1960   */\n      swap2\n      swap1\n      pop\n      jump\t// out\n        /* \"#utility.yul\":1966:2081   */\n    tag_36:\n        /* \"#utility.yul\":2051:2074   */\n      tag_73\n        /* \"#utility.yul\":2068:2073   */\n      dup2\n        /* \"#utility.yul\":2051:2074   */\n      tag_35\n      jump\t// in\n    tag_73:\n        /* \"#utility.yul\":2046:2049   */\n      dup3\n        /* \"#utility.yul\":2039:2075   */\n      mstore\n        /* \"#utility.yul\":1966:2081   */\n      pop\n      pop\n      jump\t// out\n        /* \"#utility.yul\":2087:2305   */\n    tag_11:\n        /* \"#utility.yul\":2178:2182   */\n      0x00\n        /* \"#utility.yul\":2216:2218   */\n      0x20\n        /* \"#utility.yul\":2205:2214   */\n      dup3\n        /* \"#utility.yul\":2201:2219   */\n      add\n        /* \"#utility.yul\":2193:2219   */\n      swap1\n      pop\n        /* \"#utility.yul\":2229:2298   */\n      tag_75\n        /* \"#utility.yul\":2295:2296   */\n      0x00\n        /* \"#utility.yul\":2284:2293   */\n      dup4\n        /* \"#utility.yul\":2280:2297   */\n      add\n        /* \"#utility.yul\":2271:2277   */\n      dup5\n        /* \"#utility.yul\":2229:2298   */\n      tag_36\n      jump\t// in\n    tag_75:\n        /* \"#utility.yul\":2087:2305   */\n      swap3\n      swap2\n      pop\n      pop\n      jump\t// out\n        /* \"#utility.yul\":2311:2437   */\n    tag_37:\n        /* \"#utility.yul\":2348:2355   */\n      0x00\n        /* \"#utility.yul\":2388:2430   */\n      0xffffffffffffffffffffffffffffffffffffffff\n        /* \"#utility.yul\":2381:2386   */\n      dup3\n        /* \"#utility.yul\":2377:2431   */\n      and\n        /* \"#utility.yul\":2366:2431   */\n      swap1\n      pop\n        /* \"#utility.yul\":2311:2437   */\n      swap2\n      swap1\n      pop\n      jump\t// out\n        /* \"#utility.yul\":2443:2539   */\n    tag_38:\n        /* \"#utility.yul\":2480:2487   */\n      0x00\n        /* \"#utility.yul\":2509:2533   */\n      tag_78\n        /* \"#utility.yul\":2527:2532   */\n      dup3\n        /* \"#utility.yul\":2509:2533   */\n      tag_37\n      jump\t// in\n    tag_78:\n        /* \"#utility.yul\":2498:2533   */\n      swap1\n      pop\n        /* \"#utility.yul\":2443:2539   */\n      swap2\n      swap1\n      pop\n      jump\t// out\n        /* \"#utility.yul\":2545:2667   */\n    tag_39:\n        /* \"#utility.yul\":2618:2642   */\n      tag_80\n        /* \"#utility.yul\":2636:2641   */\n      dup2\n        /* \"#utility.yul\":2618:2642   */\n      tag_38\n      jump\t// in\n    tag_80:\n        /* \"#utility.yul\":2611:2616   */\n      dup2\n        /* \"#utility.yul\":2608:2643   */\n      eq\n        /* \"#utility.yul\":2598:2661   */\n      tag_81\n      jumpi\n        /* \"#utility.yul\":2657:2658   */\n      0x00\n        /* \"#utility.yul\":2654:2655   */\n      dup1\n        /* \"#utility.yul\":2647:2659   */\n      revert\n        /* \"#utility.yul\":2598:2661   */\n    tag_81:\n        /* \"#utility.yul\":2545:2667   */\n      pop\n      jump\t// out\n        /* \"#utility.yul\":2673:2812   */\n    tag_40:\n        /* \"#utility.yul\":2719:2724   */\n      0x00\n        /* \"#utility.yul\":2757:2763   */\n      dup2\n        /* \"#utility.yul\":2744:2764   */\n      calldataload\n        /* \"#utility.yul\":2735:2764   */\n      swap1\n      pop\n        /* \"#utility.yul\":2773:2806   */\n      tag_83\n        /* \"#utility.yul\":2800:2805   */\n      dup2\n        /* \"#utility.yul\":2773:2806   */\n      tag_39\n      jump\t// in\n    tag_83:\n        /* \"#utility.yul\":2673:2812   */\n      swap3\n      swap2\n      pop\n      pop\n      jump\t// out\n        /* \"#utility.yul\":2818:2895   */\n    tag_41:\n        /* \"#utility.yul\":2855:2862   */\n      0x00\n        /* \"#utility.yul\":2884:2889   */\n      dup2\n        /* \"#utility.yul\":2873:2889   */\n      swap1\n      pop\n        /* \"#utility.yul\":2818:2895   */\n      swap2\n      swap1\n      pop\n      jump\t// out\n        /* \"#utility.yul\":2901:3023   */\n    tag_42:\n        /* \"#utility.yul\":2974:2998   */\n      tag_86\n        /* \"#utility.yul\":2992:2997   */\n      dup2\n        /* \"#utility.yul\":2974:2998   */\n      tag_41\n      jump\t// in\n    tag_86:\n        /* \"#utility.yul\":2967:2972   */\n      dup2\n        /* \"#utility.yul\":2964:2999   */\n      eq\n        /* \"#utility.yul\":2954:3017   */\n      tag_87\n      jumpi\n        /* \"#utility.yul\":3013:3014   */\n      0x00\n        /* \"#utility.yul\":3010:3011   */\n      dup1\n        /* \"#utility.yul\":3003:3015   */\n      revert\n        /* \"#utility.yul\":2954:3017   */\n    tag_87:\n        /* \"#utility.yul\":2901:3023   */\n      pop\n      jump\t// out\n        /* \"#utility.yul\":3029:3168   */\n    tag_43:\n        /* \"#utility.yul\":3075:3080   */\n      0x00\n        /* \"#utility.yul\":3113:3119   */\n      dup2\n        /* \"#utility.yul\":3100:3120   */\n      calldataload\n        /* \"#utility.yul\":3091:3120   */\n      swap1\n      pop\n        /* \"#utility.yul\":3129:3162   */\n      tag_89\n        /* \"#utility.yul\":3156:3161   */\n      dup2\n        /* \"#utility.yul\":3129:3162   */\n      tag_42\n      jump\t// in\n    tag_89:\n        /* \"#utility.yul\":3029:3168   */\n      swap3\n      swap2\n      pop\n      pop\n      jump\t// out\n        /* \"#utility.yul\":3174:3648   */\n    tag_14:\n        /* \"#utility.yul\":3242:3248   */\n      0x00\n        /* \"#utility.yul\":3250:3256   */\n      dup1\n        /* \"#utility.yul\":3299:3301   */\n      0x40\n        /* \"#utility.yul\":3287:3296   */\n      dup4\n        /* \"#utility.yul\":3278:3285   */\n      dup6\n        /* \"#utility.yul\":3274:3297   */\n      sub\n        /* \"#utility.yul\":3270:3302   */\n      slt\n        /* \"#utility.yul\":3267:3386   */\n      iszero\n      tag_91\n      jumpi\n        /* \"#utility.yul\":3305:3384   */\n      tag_92\n      tag_29\n      jump\t// in\n    tag_92:\n        /* \"#utility.yul\":3267:3386   */\n    tag_91:\n        /* \"#utility.yul\":3425:3426   */\n      0x00\n        /* \"#utility.yul\":3450:3503   */\n      tag_93\n        /* \"#utility.yul\":3495:3502   */\n      dup6\n        /* \"#utility.yul\":3486:3492   */\n      dup3\n        /* \"#utility.yul\":3475:3484   */\n      dup7\n        /* \"#utility.yul\":3471:3493   */\n      add\n        /* \"#utility.yul\":3450:3503   */\n      tag_40\n      jump\t// in\n    tag_93:\n        /* \"#utility.yul\":3440:3503   */\n      swap3\n      pop\n        /* \"#utility.yul\":3396:3513   */\n      pop\n        /* \"#utility.yul\":3552:3554   */\n      0x20\n        /* \"#utility.yul\":3578:3631   */\n      tag_94\n        /* \"#utility.yul\":3623:3630   */\n      dup6\n        /* \"#utility.yul\":3614:3620   */\n      dup3\n        /* \"#utility.yul\":3603:3612   */\n      dup7\n        /* \"#utility.yul\":3599:3621   */\n      add\n        /* \"#utility.yul\":3578:3631   */\n      tag_43\n      jump\t// in\n    tag_94:\n        /* \"#utility.yul\":3568:3631   */\n      swap2\n      pop\n        /* \"#utility.yul\":3523:3641   */\n      pop\n        /* \"#utility.yul\":3174:3648   */\n      swap3\n      pop\n      swap3\n      swap1\n      pop\n      jump\t// out\n        /* \"#utility.yul\":3671:4239   */\n    tag_44:\n        /* \"#utility.yul\":3744:3752   */\n      0x00\n        /* \"#utility.yul\":3754:3760   */\n      dup1\n        /* \"#utility.yul\":3804:3807   */\n      dup4\n        /* \"#utility.yul\":3797:3801   */\n      0x1f\n        /* \"#utility.yul\":3789:3795   */\n      dup5\n        /* \"#utility.yul\":3785:3802   */\n      add\n        /* \"#utility.yul\":3781:3808   */\n      slt\n        /* \"#utility.yul\":3771:3893   */\n      tag_96\n      jumpi\n        /* \"#utility.yul\":3812:3891   */\n      tag_97\n      tag_31\n      jump\t// in\n    tag_97:\n        /* \"#utility.yul\":3771:3893   */\n    tag_96:\n        /* \"#utility.yul\":3925:3931   */\n      dup3\n        /* \"#utility.yul\":3912:3932   */\n      calldataload\n        /* \"#utility.yul\":3902:3932   */\n      swap1\n      pop\n        /* \"#utility.yul\":3955:3973   */\n      0xffffffffffffffff\n        /* \"#utility.yul\":3947:3953   */\n      dup2\n        /* \"#utility.yul\":3944:3974   */\n      gt\n        /* \"#utility.yul\":3941:4058   */\n      iszero\n      tag_98\n      jumpi\n        /* \"#utility.yul\":3977:4056   */\n      tag_99\n      tag_32\n      jump\t// in\n    tag_99:\n        /* \"#utility.yul\":3941:4058   */\n    tag_98:\n        /* \"#utility.yul\":4091:4095   */\n      0x20\n        /* \"#utility.yul\":4083:4089   */\n      dup4\n        /* \"#utility.yul\":4079:4096   */\n      add\n        /* \"#utility.yul\":4067:4096   */\n      swap2\n      pop\n        /* \"#utility.yul\":4145:4148   */\n      dup4\n        /* \"#utility.yul\":4137:4141   */\n      0x20\n        /* \"#utility.yul\":4129:4135   */\n      dup3\n        /* \"#utility.yul\":4125:4142   */\n      mul\n        /* \"#utility.yul\":4115:4123   */\n      dup4\n        /* \"#utility.yul\":4111:4143   */\n      add\n        /* \"#utility.yul\":4108:4149   */\n      gt\n        /* \"#utility.yul\":4105:4233   */\n      iszero\n      tag_100\n      jumpi\n        /* \"#utility.yul\":4152:4231   */\n      tag_101\n      tag_33\n      jump\t// in\n    tag_101:\n        /* \"#utility.yul\":4105:4233   */\n    tag_100:\n        /* \"#utility.yul\":3671:4239   */\n      swap3\n      pop\n      swap3\n      swap1\n      pop\n      jump\t// out\n        /* \"#utility.yul\":4245:4804   */\n    tag_18:\n        /* \"#utility.yul\":4331:4337   */\n      0x00\n        /* \"#utility.yul\":4339:4345   */\n      dup1\n        /* \"#utility.yul\":4388:4390   */\n      0x20\n        /* \"#utility.yul\":4376:4385   */\n      dup4\n        /* \"#utility.yul\":4367:4374   */\n      dup6\n        /* \"#utility.yul\":4363:4386   */\n      sub\n        /* \"#utility.yul\":4359:4391   */\n      slt\n        /* \"#utility.yul\":4356:4475   */\n      iszero\n      tag_103\n      jumpi\n        /* \"#utility.yul\":4394:4473   */\n      tag_104\n      tag_29\n      jump\t// in\n    tag_104:\n        /* \"#utility.yul\":4356:4475   */\n    tag_103:\n        /* \"#utility.yul\":4542:4543   */\n      0x00\n        /* \"#utility.yul\":4531:4540   */\n      dup4\n        /* \"#utility.yul\":4527:4544   */\n      add\n        /* \"#utility.yul\":4514:4545   */\n      calldataload\n        /* \"#utility.yul\":4572:4590   */\n      0xffffffffffffffff\n        /* \"#utility.yul\":4564:4570   */\n      dup2\n        /* \"#utility.yul\":4561:4591   */\n      gt\n        /* \"#utility.yul\":4558:4675   */\n      iszero\n      tag_105\n      jumpi\n        /* \"#utility.yul\":4594:4673   */\n      tag_106\n      tag_30\n      jump\t// in\n    tag_106:\n        /* \"#utility.yul\":4558:4675   */\n    tag_105:\n        /* \"#utility.yul\":4707:4787   */\n      tag_107\n        /* \"#utility.yul\":4779:4786   */\n      dup6\n        /* \"#utility.yul\":4770:4776   */\n      dup3\n        /* \"#utility.yul\":4759:4768   */\n      dup7\n        /* \"#utility.yul\":4755:4777   */\n      add\n        /* \"#utility.yul\":4707:4787   */\n      tag_44\n      jump\t// in\n    tag_107:\n        /* \"#utility.yul\":4689:4787   */\n      swap3\n      pop\n      swap3\n      pop\n        /* \"#utility.yul\":4485:4797   */\n      pop\n        /* \"#utility.yul\":4245:4804   */\n      swap3\n      pop\n      swap3\n      swap1\n      pop\n      jump\t// out\n        /* \"#utility.yul\":4810:4957   */\n    tag_45:\n        /* \"#utility.yul\":4911:4922   */\n      0x00\n        /* \"#utility.yul\":4948:4951   */\n      dup2\n        /* \"#utility.yul\":4933:4951   */\n      swap1\n      pop\n        /* \"#utility.yul\":4810:4957   */\n      swap3\n      swap2\n      pop\n      pop\n      jump\t// out\n        /* \"#utility.yul\":4963:5111   */\n    tag_46:\n        /* \"#utility.yul\":5061:5067   */\n      dup3\n        /* \"#utility.yul\":5056:5059   */\n      dup2\n        /* \"#utility.yul\":5051:5054   */\n      dup4\n        /* \"#utility.yul\":5038:5068   */\n      calldatacopy\n        /* \"#utility.yul\":5102:5103   */\n      0x00\n        /* \"#utility.yul\":5093:5099   */\n      dup4\n        /* \"#utility.yul\":5088:5091   */\n      dup4\n        /* \"#utility.yul\":5084:5100   */\n      add\n        /* \"#utility.yul\":5077:5104   */\n      mstore\n        /* \"#utility.yul\":4963:5111   */\n      pop\n      pop\n      pop\n      jump\t// out\n        /* \"#utility.yul\":5139:5466   */\n    tag_47:\n        /* \"#utility.yul\":5253:5256   */\n      0x00\n        /* \"#utility.yul\":5274:5362   */\n      tag_111\n        /* \"#utility.yul\":5355:5361   */\n      dup4\n        /* \"#utility.yul\":5350:5353   */\n      dup6\n        /* \"#utility.yul\":5274:5362   */\n      tag_45\n      jump\t// in\n    tag_111:\n        /* \"#utility.yul\":5267:5362   */\n      swap4\n      pop\n        /* \"#utility.yul\":5372:5428   */\n      tag_112\n        /* \"#utility.yul\":5421:5427   */\n      dup4\n        /* \"#utility.yul\":5416:5419   */\n      dup6\n        /* \"#utility.yul\":5409:5414   */\n      dup5\n        /* \"#utility.yul\":5372:5428   */\n      tag_46\n      jump\t// in\n    tag_112:\n        /* \"#utility.yul\":5453:5459   */\n      dup3\n        /* \"#utility.yul\":5448:5451   */\n      dup5\n        /* \"#utility.yul\":5444:5460   */\n      add\n        /* \"#utility.yul\":5437:5460   */\n      swap1\n      pop\n        /* \"#utility.yul\":5139:5466   */\n      swap4\n      swap3\n      pop\n      pop\n      pop\n      jump\t// out\n        /* \"#utility.yul\":5472:5763   */\n    tag_22:\n        /* \"#utility.yul\":5612:5615   */\n      0x00\n        /* \"#utility.yul\":5634:5737   */\n      tag_114\n        /* \"#utility.yul\":5733:5736   */\n      dup3\n        /* \"#utility.yul\":5724:5730   */\n      dup5\n        /* \"#utility.yul\":5716:5722   */\n      dup7\n        /* \"#utility.yul\":5634:5737   */\n      tag_47\n      jump\t// in\n    tag_114:\n        /* \"#utility.yul\":5627:5737   */\n      swap2\n      pop\n        /* \"#utility.yul\":5754:5757   */\n      dup2\n        /* \"#utility.yul\":5747:5757   */\n      swap1\n      pop\n        /* \"#utility.yul\":5472:5763   */\n      swap4\n      swap3\n      pop\n      pop\n      pop\n      jump\t// out\n        /* \"#utility.yul\":5769:5937   */\n    tag_48:\n        /* \"#utility.yul\":5852:5863   */\n      0x00\n        /* \"#utility.yul\":5886:5892   */\n      dup3\n        /* \"#utility.yul\":5881:5884   */\n      dup3\n        /* \"#utility.yul\":5874:5893   */\n      mstore\n        /* \"#utility.yul\":5926:5930   */\n      0x20\n        /* \"#utility.yul\":5921:5924   */\n      dup3\n        /* \"#utility.yul\":5917:5931   */\n      add\n        /* \"#utility.yul\":5902:5931   */\n      swap1\n      pop\n        /* \"#utility.yul\":5769:5937   */\n      swap3\n      swap2\n      pop\n      pop\n      jump\t// out\n        /* \"#utility.yul\":5943:6045   */\n    tag_49:\n        /* \"#utility.yul\":5984:5990   */\n      0x00\n        /* \"#utility.yul\":6035:6037   */\n      0x1f\n        /* \"#utility.yul\":6031:6038   */\n      not\n        /* \"#utility.yul\":6026:6028   */\n      0x1f\n        /* \"#utility.yul\":6019:6024   */\n      dup4\n        /* \"#utility.yul\":6015:6029   */\n      add\n        /* \"#utility.yul\":6011:6039   */\n      and\n        /* \"#utility.yul\":6001:6039   */\n      swap1\n      pop\n        /* \"#utility.yul\":5943:6045   */\n      swap2\n      swap1\n      pop\n      jump\t// out\n        /* \"#utility.yul\":6073:6387   */\n    tag_50:\n        /* \"#utility.yul\":6169:6172   */\n      0x00\n        /* \"#utility.yul\":6190:6260   */\n      tag_118\n        /* \"#utility.yul\":6253:6259   */\n      dup4\n        /* \"#utility.yul\":6248:6251   */\n      dup6\n        /* \"#utility.yul\":6190:6260   */\n      tag_48\n      jump\t// in\n    tag_118:\n        /* \"#utility.yul\":6183:6260   */\n      swap4\n      pop\n        /* \"#utility.yul\":6270:6326   */\n      tag_119\n        /* \"#utility.yul\":6319:6325   */\n      dup4\n        /* \"#utility.yul\":6314:6317   */\n      dup6\n        /* \"#utility.yul\":6307:6312   */\n      dup5\n        /* \"#utility.yul\":6270:6326   */\n      tag_46\n      jump\t// in\n    tag_119:\n        /* \"#utility.yul\":6351:6380   */\n      tag_120\n        /* \"#utility.yul\":6373:6379   */\n      dup4\n        /* \"#utility.yul\":6351:6380   */\n      tag_49\n      jump\t// in\n    tag_120:\n        /* \"#utility.yul\":6346:6349   */\n      dup5\n        /* \"#utility.yul\":6342:6381   */\n      add\n        /* \"#utility.yul\":6335:6381   */\n      swap1\n      pop\n        /* \"#utility.yul\":6073:6387   */\n      swap4\n      swap3\n      pop\n      pop\n      pop\n      jump\t// out\n        /* \"#utility.yul\":6393:6722   */\n    tag_25:\n        /* \"#utility.yul\":6514:6518   */\n      0x00\n        /* \"#utility.yul\":6552:6554   */\n      0x20\n        /* \"#utility.yul\":6541:6550   */\n      dup3\n        /* \"#utility.yul\":6537:6555   */\n      add\n        /* \"#utility.yul\":6529:6555   */\n      swap1\n      pop\n        /* \"#utility.yul\":6601:6610   */\n      dup2\n        /* \"#utility.yul\":6595:6599   */\n      dup2\n        /* \"#utility.yul\":6591:6611   */\n      sub\n        /* \"#utility.yul\":6587:6588   */\n      0x00\n        /* \"#utility.yul\":6576:6585   */\n      dup4\n        /* \"#utility.yul\":6572:6589   */\n      add\n        /* \"#utility.yul\":6565:6612   */\n      mstore\n        /* \"#utility.yul\":6629:6715   */\n      tag_122\n        /* \"#utility.yul\":6710:6714   */\n      dup2\n        /* \"#utility.yul\":6701:6707   */\n      dup5\n        /* \"#utility.yul\":6693:6699   */\n      dup7\n        /* \"#utility.yul\":6629:6715   */\n      tag_50\n      jump\t// in\n    tag_122:\n        /* \"#utility.yul\":6621:6715   */\n      swap1\n      pop\n        /* \"#utility.yul\":6393:6722   */\n      swap4\n      swap3\n      pop\n      pop\n      pop\n      jump\t// out\n\n    auxdata: 0xa26469706673582212206f5c824556b7051a197f26356521120d342e72be69d757fbfba792e466f5272564736f6c634300081a0033\n}\n",
				"bytecode": {
					"linkReferences": {},
					"object": "6080604052348015600e575f80fd5b506104b08061001c5f395ff3fe608060405234801561000f575f80fd5b506004361061003f575f3560e01c806380a003ff146100435780639db0ba3914610073578063c9762ec21461008f575b5f80fd5b61005d600480360381019061005891906101af565b6100ab565b60405161006a9190610234565b60405180910390f35b61008d600480360381019061008891906102da565b6100cc565b005b6100a960048036038101906100a4919061036d565b610109565b005b5f82826040516100bc9291906103f4565b6040518091039020905092915050565b7fafabcf2dd47e06a477a89e49c03f8ebe8e0a7e94f775b25bbb24227c9d0110b25f366040516100fd929190610458565b60405180910390a15050565b7fafabcf2dd47e06a477a89e49c03f8ebe8e0a7e94f775b25bbb24227c9d0110b25f3660405161013a929190610458565b60405180910390a15050565b5f80fd5b5f80fd5b5f80fd5b5f80fd5b5f80fd5b5f8083601f84011261016f5761016e61014e565b5b8235905067ffffffffffffffff81111561018c5761018b610152565b5b6020830191508360018202830111156101a8576101a7610156565b5b9250929050565b5f80602083850312156101c5576101c4610146565b5b5f83013567ffffffffffffffff8111156101e2576101e161014a565b5b6101ee8582860161015a565b92509250509250929050565b5f7fffffffff0000000000000000000000000000000000000000000000000000000082169050919050565b61022e816101fa565b82525050565b5f6020820190506102475f830184610225565b92915050565b5f73ffffffffffffffffffffffffffffffffffffffff82169050919050565b5f6102768261024d565b9050919050565b6102868161026c565b8114610290575f80fd5b50565b5f813590506102a18161027d565b92915050565b5f819050919050565b6102b9816102a7565b81146102c3575f80fd5b50565b5f813590506102d4816102b0565b92915050565b5f80604083850312156102f0576102ef610146565b5b5f6102fd85828601610293565b925050602061030e858286016102c6565b9150509250929050565b5f8083601f84011261032d5761032c61014e565b5b8235905067ffffffffffffffff81111561034a57610349610152565b5b60208301915083602082028301111561036657610365610156565b5b9250929050565b5f806020838503121561038357610382610146565b5b5f83013567ffffffffffffffff8111156103a05761039f61014a565b5b6103ac85828601610318565b92509250509250929050565b5f81905092915050565b828183375f83830152505050565b5f6103db83856103b8565b93506103e88385846103c2565b82840190509392505050565b5f6104008284866103d0565b91508190509392505050565b5f82825260208201905092915050565b5f601f19601f8301169050919050565b5f610437838561040c565b93506104448385846103c2565b61044d8361041c565b840190509392505050565b5f6020820190508181035f83015261047181848661042c565b9050939250505056fea26469706673582212206f5c824556b7051a197f26356521120d342e72be69d757fbfba792e466f5272564736f6c634300081a0033",
					"opcodes": "PUSH1 0x80 PUSH1 0x40 MSTORE CALLVALUE DUP1 ISZERO PUSH1 0xE JUMPI PUSH0 DUP1 REVERT JUMPDEST POP PUSH2 0x4B0 DUP1 PUSH2 0x1C PUSH0 CODECOPY PUSH0 RETURN INVALID PUSH1 0x80 PUSH1 0x40 MSTORE CALLVALUE DUP1 ISZERO PUSH2 0xF JUMPI PUSH0 DUP1 REVERT JUMPDEST POP PUSH1 0x4 CALLDATASIZE LT PUSH2 0x3F JUMPI PUSH0 CALLDATALOAD PUSH1 0xE0 SHR DUP1 PUSH4 0x80A003FF EQ PUSH2 0x43 JUMPI DUP1 PUSH4 0x9DB0BA39 EQ PUSH2 0x73 JUMPI DUP1 PUSH4 0xC9762EC2 EQ PUSH2 0x8F JUMPI JUMPDEST PUSH0 DUP1 REVERT JUMPDEST PUSH2 0x5D PUSH1 0x4 DUP1 CALLDATASIZE SUB DUP2 ADD SWAP1 PUSH2 0x58 SWAP2 SWAP1 PUSH2 0x1AF JUMP JUMPDEST PUSH2 0xAB JUMP JUMPDEST PUSH1 0x40 MLOAD PUSH2 0x6A SWAP2 SWAP1 PUSH2 0x234 JUMP JUMPDEST PUSH1 0x40 MLOAD DUP1 SWAP2 SUB SWAP1 RETURN JUMPDEST PUSH2 0x8D PUSH1 0x4 DUP1 CALLDATASIZE SUB DUP2 ADD SWAP1 PUSH2 0x88 SWAP2 SWAP1 PUSH2 0x2DA JUMP JUMPDEST PUSH2 0xCC JUMP JUMPDEST STOP JUMPDEST PUSH2 0xA9 PUSH1 0x4 DUP1 CALLDATASIZE SUB DUP2 ADD SWAP1 PUSH2 0xA4 SWAP2 SWAP1 PUSH2 0x36D JUMP JUMPDEST PUSH2 0x109 JUMP JUMPDEST STOP JUMPDEST PUSH0 DUP3 DUP3 PUSH1 0x40 MLOAD PUSH2 0xBC SWAP3 SWAP2 SWAP1 PUSH2 0x3F4 JUMP JUMPDEST PUSH1 0x40 MLOAD DUP1 SWAP2 SUB SWAP1 KECCAK256 SWAP1 POP SWAP3 SWAP2 POP POP JUMP JUMPDEST PUSH32 0xAFABCF2DD47E06A477A89E49C03F8EBE8E0A7E94F775B25BBB24227C9D0110B2 PUSH0 CALLDATASIZE PUSH1 0x40 MLOAD PUSH2 0xFD SWAP3 SWAP2 SWAP1 PUSH2 0x458 JUMP JUMPDEST PUSH1 0x40 MLOAD DUP1 SWAP2 SUB SWAP1 LOG1 POP POP JUMP JUMPDEST PUSH32 0xAFABCF2DD47E06A477A89E49C03F8EBE8E0A7E94F775B25BBB24227C9D0110B2 PUSH0 CALLDATASIZE PUSH1 0x40 MLOAD PUSH2 0x13A SWAP3 SWAP2 SWAP1 PUSH2 0x458 JUMP JUMPDEST PUSH1 0x40 MLOAD DUP1 SWAP2 SUB SWAP1 LOG1 POP POP JUMP JUMPDEST PUSH0 DUP1 REVERT JUMPDEST PUSH0 DUP1 REVERT JUMPDEST PUSH0 DUP1 REVERT JUMPDEST PUSH0 DUP1 REVERT JUMPDEST PUSH0 DUP1 REVERT JUMPDEST PUSH0 DUP1 DUP4 PUSH1 0x1F DUP5 ADD SLT PUSH2 0x16F JUMPI PUSH2 0x16E PUSH2 0x14E JUMP JUMPDEST JUMPDEST DUP3 CALLDATALOAD SWAP1 POP PUSH8 0xFFFFFFFFFFFFFFFF DUP2 GT ISZERO PUSH2 0x18C JUMPI PUSH2 0x18B PUSH2 0x152 JUMP JUMPDEST JUMPDEST PUSH1 0x20 DUP4 ADD SWAP2 POP DUP4 PUSH1 0x1 DUP3 MUL DUP4 ADD GT ISZERO PUSH2 0x1A8 JUMPI PUSH2 0x1A7 PUSH2 0x156 JUMP JUMPDEST JUMPDEST SWAP3 POP SWAP3 SWAP1 POP JUMP JUMPDEST PUSH0 DUP1 PUSH1 0x20 DUP4 DUP6 SUB SLT ISZERO PUSH2 0x1C5 JUMPI PUSH2 0x1C4 PUSH2 0x146 JUMP JUMPDEST JUMPDEST PUSH0 DUP4 ADD CALLDATALOAD PUSH8 0xFFFFFFFFFFFFFFFF DUP2 GT ISZERO PUSH2 0x1E2 JUMPI PUSH2 0x1E1 PUSH2 0x14A JUMP JUMPDEST JUMPDEST PUSH2 0x1EE DUP6 DUP3 DUP7 ADD PUSH2 0x15A JUMP JUMPDEST SWAP3 POP SWAP3 POP POP SWAP3 POP SWAP3 SWAP1 POP JUMP JUMPDEST PUSH0 PUSH32 0xFFFFFFFF00000000000000000000000000000000000000000000000000000000 DUP3 AND SWAP1 POP SWAP2 SWAP1 POP JUMP JUMPDEST PUSH2 0x22E DUP2 PUSH2 0x1FA JUMP JUMPDEST DUP3 MSTORE POP POP JUMP JUMPDEST PUSH0 PUSH1 0x20 DUP3 ADD SWAP1 POP PUSH2 0x247 PUSH0 DUP4 ADD DUP5 PUSH2 0x225 JUMP JUMPDEST SWAP3 SWAP2 POP POP JUMP JUMPDEST PUSH0 PUSH20 0xFFFFFFFFFFFFFFFFFFFFFFFFFFFFFFFFFFFFFFFF DUP3 AND SWAP1 POP SWAP2 SWAP1 POP JUMP JUMPDEST PUSH0 PUSH2 0x276 DUP3 PUSH2 0x24D JUMP JUMPDEST SWAP1 POP SWAP2 SWAP1 POP JUMP JUMPDEST PUSH2 0x286 DUP2 PUSH2 0x26C JUMP JUMPDEST DUP2 EQ PUSH2 0x290 JUMPI PUSH0 DUP1 REVERT JUMPDEST POP JUMP JUMPDEST PUSH0 DUP2 CALLDATALOAD SWAP1 POP PUSH2 0x2A1 DUP2 PUSH2 0x27D JUMP JUMPDEST SWAP3 SWAP2 POP POP JUMP JUMPDEST PUSH0 DUP2 SWAP1 POP SWAP2 SWAP1 POP JUMP JUMPDEST PUSH2 0x2B9 DUP2 PUSH2 0x2A7 JUMP JUMPDEST DUP2 EQ PUSH2 0x2C3 JUMPI PUSH0 DUP1 REVERT JUMPDEST POP JUMP JUMPDEST PUSH0 DUP2 CALLDATALOAD SWAP1 POP PUSH2 0x2D4 DUP2 PUSH2 0x2B0 JUMP JUMPDEST SWAP3 SWAP2 POP POP JUMP JUMPDEST PUSH0 DUP1 PUSH1 0x40 DUP4 DUP6 SUB SLT ISZERO PUSH2 0x2F0 JUMPI PUSH2 0x2EF PUSH2 0x146 JUMP JUMPDEST JUMPDEST PUSH0 PUSH2 0x2FD DUP6 DUP3 DUP7 ADD PUSH2 0x293 JUMP JUMPDEST SWAP3 POP POP PUSH1 0x20 PUSH2 0x30E DUP6 DUP3 DUP7 ADD PUSH2 0x2C6 JUMP JUMPDEST SWAP2 POP POP SWAP3 POP SWAP3 SWAP1 POP JUMP JUMPDEST PUSH0 DUP1 DUP4 PUSH1 0x1F DUP5 ADD SLT PUSH2 0x32D JUMPI PUSH2 0x32C PUSH2 0x14E JUMP JUMPDEST JUMPDEST DUP3 CALLDATALOAD SWAP1 POP PUSH8 0xFFFFFFFFFFFFFFFF DUP2 GT ISZERO PUSH2 0x34A JUMPI PUSH2 0x349 PUSH2 0x152 JUMP JUMPDEST JUMPDEST PUSH1 0x20 DUP4 ADD SWAP2 POP DUP4 PUSH1 0x20 DUP3 MUL DUP4 ADD GT ISZERO PUSH2 0x366 JUMPI PUSH2 0x365 PUSH2 0x156 JUMP JUMPDEST JUMPDEST SWAP3 POP SWAP3 SWAP1 POP JUMP JUMPDEST PUSH0 DUP1 PUSH1 0x20 DUP4 DUP6 SUB SLT ISZERO PUSH2 0x383 JUMPI PUSH2 0x382 PUSH2 0x146 JUMP JUMPDEST JUMPDEST PUSH0 DUP4 ADD CALLDATALOAD PUSH8 0xFFFFFFFFFFFFFFFF DUP2 GT ISZERO PUSH2 0x3A0 JUMPI PUSH2 0x39F PUSH2 0x14A JUMP JUMPDEST JUMPDEST PUSH2 0x3AC DUP6 DUP3 DUP7 ADD PUSH2 0x318 JUMP JUMPDEST SWAP3 POP SWAP3 POP POP SWAP3 POP SWAP3 SWAP1 POP JUMP JUMPDEST PUSH0 DUP2 SWAP1 POP SWAP3 SWAP2 POP POP JUMP JUMPDEST DUP3 DUP2 DUP4 CALLDATACOPY PUSH0 DUP4 DUP4 ADD MSTORE POP POP POP JUMP JUMPDEST PUSH0 PUSH2 0x3DB DUP4 DUP6 PUSH2 0x3B8 JUMP JUMPDEST SWAP4 POP PUSH2 0x3E8 DUP4 DUP6 DUP5 PUSH2 0x3C2 JUMP JUMPDEST DUP3 DUP5 ADD SWAP1 POP SWAP4 SWAP3 POP POP POP JUMP JUMPDEST PUSH0 PUSH2 0x400 DUP3 DUP5 DUP7 PUSH2 0x3D0 JUMP JUMPDEST SWAP2 POP DUP2 SWAP1 POP SWAP4 SWAP3 POP POP POP JUMP JUMPDEST PUSH0 DUP3 DUP3 MSTORE PUSH1 0x20 DUP3 ADD SWAP1 POP SWAP3 SWAP2 POP POP JUMP JUMPDEST PUSH0 PUSH1 0x1F NOT PUSH1 0x1F DUP4 ADD AND SWAP1 POP SWAP2 SWAP1 POP JUMP JUMPDEST PUSH0 PUSH2 0x437 DUP4 DUP6 PUSH2 0x40C JUMP JUMPDEST SWAP4 POP PUSH2 0x444 DUP4 DUP6 DUP5 PUSH2 0x3C2 JUMP JUMPDEST PUSH2 0x44D DUP4 PUSH2 0x41C JUMP JUMPDEST DUP5 ADD SWAP1 POP SWAP4 SWAP3 POP POP POP JUMP JUMPDEST PUSH0 PUSH1 0x20 DUP3 ADD SWAP1 POP DUP2 DUP2 SUB PUSH0 DUP4 ADD MSTORE PUSH2 0x471 DUP2 DUP5 DUP7 PUSH2 0x42C JUMP JUMPDEST SWAP1 POP SWAP4 SWAP3 POP POP POP JUMP INVALID LOG2 PUSH5 0x6970667358 0x22 SLT KECCAK256 PUSH16 0x5C824556B7051A197F26356521120D34 0x2E PUSH19 0xBE69D757FBFBA792E466F5272564736F6C6343 STOP ADDMOD BYTE STOP CALLER "
				},
				"gasEstimates": {
					"creation": {
						"codeDepositCost": "240000",
						"executionCost": "279",
						"totalCost": "240279"
					},
					"external": {
						"getSelector(string)": "infinite",
						"receiver(address,uint256)": "infinite",
						"sumIfEvenAndLessThan99(uint256[])": "infinite"
					}
				},
				"methodIdentifiers": {
					"getSelector(string)": "80a003ff",
					"receiver(address,uint256)": "9db0ba39",
					"sumIfEvenAndLessThan99(uint256[])": "c9762ec2"
				}
			},
			"storageLayout": {
				"storage": [],
				"types": null
			},
			"userdoc": {
				"kind": "user",
				"methods": {},
				"version": 1
			}
		}
	}
}