{
	"contracts/AccessControl.sol": {
		"AccessControl": {
			"abi": [
				{
					"inputs": [],
					"stateMutability": "nonpayable",
					"type": "constructor"
				},
				{
					"anonymous": false,
					"inputs": [
						{
							"indexed": false,
							"internalType": "bytes32",
							"name": "role",
							"type": "bytes32"
						},
						{
							"indexed": false,
							"internalType": "address",
							"name": "account",
							"type": "address"
						}
					],
					"name": "GrantRole",
					"type": "event"
				},
				{
					"anonymous": false,
					"inputs": [
						{
							"indexed": false,
							"internalType": "bytes32",
							"name": "role",
							"type": "bytes32"
						},
						{
							"indexed": false,
							"internalType": "address",
							"name": "account",
							"type": "address"
						}
					],
					"name": "RevokeRole",
					"type": "event"
				},
				{
					"inputs": [
						{
							"internalType": "bytes32",
							"name": "_role",
							"type": "bytes32"
						},
						{
							"internalType": "address",
							"name": "_account",
							"type": "address"
						}
					],
					"name": "grantRole",
					"outputs": [],
					"stateMutability": "nonpayable",
					"type": "function"
				},
				{
					"inputs": [
						{
							"internalType": "bytes32",
							"name": "_role",
							"type": "bytes32"
						},
						{
							"internalType": "address",
							"name": "_account",
							"type": "address"
						}
					],
					"name": "revokeRole",
					"outputs": [],
					"stateMutability": "nonpayable",
					"type": "function"
				},
				{
					"inputs": [
						{
							"internalType": "bytes32",
							"name": "",
							"type": "bytes32"
						},
						{
							"internalType": "address",
							"name": "",
							"type": "address"
						}
					],
					"name": "roles",
					"outputs": [
						{
							"internalType": "bool",
							"name": "",
							"type": "bool"
						}
					],
					"stateMutability": "view",
					"type": "function"
				}
			],
			"devdoc": {
				"kind": "dev",
				"methods": {},
				"version": 1
			},
			"evm": {
				"assembly": "    /* \"contracts/AccessControl.sol\":61:1462  contract AccessControl {... */\n  mstore(0x40, 0x80)\n    /* \"contracts/AccessControl.sol\":262:287  abi.encodePacked(\"ADMIN\") */\n  add(0x20, mload(0x40))\n  tag_1\n  swap1\n  tag_2\n  jump\t// in\ntag_1:\n  mload(0x40)\n  0x20\n  dup2\n  dup4\n  sub\n  sub\n  dup2\n  mstore\n  swap1\n  0x40\n  mstore\n    /* \"contracts/AccessControl.sol\":252:288  keccak256(abi.encodePacked(\"ADMIN\")) */\n  dup1\n  mload\n  swap1\n  0x20\n  add\n  keccak256\n    /* \"contracts/AccessControl.sol\":228:288  bytes32 private ADMIN = keccak256(abi.encodePacked(\"ADMIN\")) */\n  0x01\n  sstore\n    /* \"contracts/AccessControl.sol\":403:427  abi.encodePacked(\"USER\") */\n  add(0x20, mload(0x40))\n  tag_3\n  swap1\n  tag_4\n  jump\t// in\ntag_3:\n  mload(0x40)\n  0x20\n  dup2\n  dup4\n  sub\n  sub\n  dup2\n  mstore\n  swap1\n  0x40\n  mstore\n    /* \"contracts/AccessControl.sol\":393:428  keccak256(abi.encodePacked(\"USER\")) */\n  dup1\n  mload\n  swap1\n  0x20\n  add\n  keccak256\n    /* \"contracts/AccessControl.sol\":370:428  bytes32 private USER = keccak256(abi.encodePacked(\"USER\")) */\n  0x02\n  sstore\n    /* \"contracts/AccessControl.sol\":805:869  constructor() {... */\n  callvalue\n  dup1\n  iszero\n  tag_5\n  jumpi\n  0x00\n  dup1\n  revert\ntag_5:\n  pop\n    /* \"contracts/AccessControl.sol\":857:861  true */\n  0x01\n    /* \"contracts/AccessControl.sol\":830:835  roles */\n  0x00\n    /* \"contracts/AccessControl.sol\":830:842  roles[ADMIN] */\n  dup1\n    /* \"contracts/AccessControl.sol\":836:841  ADMIN */\n  sload(0x01)\n    /* \"contracts/AccessControl.sol\":830:842  roles[ADMIN] */\n  dup2\n  mstore\n  0x20\n  add\n  swap1\n  dup2\n  mstore\n  0x20\n  add\n  0x00\n  keccak256\n    /* \"contracts/AccessControl.sol\":830:854  roles[ADMIN][msg.sender] */\n  0x00\n    /* \"contracts/AccessControl.sol\":843:853  msg.sender */\n  caller\n    /* \"contracts/AccessControl.sol\":830:854  roles[ADMIN][msg.sender] */\n  0xffffffffffffffffffffffffffffffffffffffff\n  and\n  0xffffffffffffffffffffffffffffffffffffffff\n  and\n  dup2\n  mstore\n  0x20\n  add\n  swap1\n  dup2\n  mstore\n  0x20\n  add\n  0x00\n  keccak256\n  0x00\n    /* \"contracts/AccessControl.sol\":830:861  roles[ADMIN][msg.sender] = true */\n  0x0100\n  exp\n  dup2\n  sload\n  dup2\n  0xff\n  mul\n  not\n  and\n  swap1\n  dup4\n  iszero\n  iszero\n  mul\n  or\n  swap1\n  sstore\n  pop\n    /* \"contracts/AccessControl.sol\":61:1462  contract AccessControl {... */\n  jump(tag_8)\n    /* \"#utility.yul\":7:155   */\ntag_9:\n    /* \"#utility.yul\":109:120   */\n  0x00\n    /* \"#utility.yul\":146:149   */\n  dup2\n    /* \"#utility.yul\":131:149   */\n  swap1\n  pop\n    /* \"#utility.yul\":7:155   */\n  swap3\n  swap2\n  pop\n  pop\n  jump\t// out\n    /* \"#utility.yul\":161:316   */\ntag_10:\n    /* \"#utility.yul\":301:308   */\n  0x41444d494e000000000000000000000000000000000000000000000000000000\n    /* \"#utility.yul\":297:298   */\n  0x00\n    /* \"#utility.yul\":289:295   */\n  dup3\n    /* \"#utility.yul\":285:299   */\n  add\n    /* \"#utility.yul\":278:309   */\n  mstore\n    /* \"#utility.yul\":161:316   */\n  pop\n  jump\t// out\n    /* \"#utility.yul\":322:722   */\ntag_11:\n    /* \"#utility.yul\":482:485   */\n  0x00\n    /* \"#utility.yul\":503:587   */\n  tag_18\n    /* \"#utility.yul\":585:586   */\n  0x05\n    /* \"#utility.yul\":580:583   */\n  dup4\n    /* \"#utility.yul\":503:587   */\n  tag_9\n  jump\t// in\ntag_18:\n    /* \"#utility.yul\":496:587   */\n  swap2\n  pop\n    /* \"#utility.yul\":596:689   */\n  tag_19\n    /* \"#utility.yul\":685:688   */\n  dup3\n    /* \"#utility.yul\":596:689   */\n  tag_10\n  jump\t// in\ntag_19:\n    /* \"#utility.yul\":714:715   */\n  0x05\n    /* \"#utility.yul\":709:712   */\n  dup3\n    /* \"#utility.yul\":705:716   */\n  add\n    /* \"#utility.yul\":698:716   */\n  swap1\n  pop\n    /* \"#utility.yul\":322:722   */\n  swap2\n  swap1\n  pop\n  jump\t// out\n    /* \"#utility.yul\":728:1109   */\ntag_2:\n    /* \"#utility.yul\":913:916   */\n  0x00\n    /* \"#utility.yul\":935:1083   */\n  tag_21\n    /* \"#utility.yul\":1079:1082   */\n  dup3\n    /* \"#utility.yul\":935:1083   */\n  tag_11\n  jump\t// in\ntag_21:\n    /* \"#utility.yul\":928:1083   */\n  swap2\n  pop\n    /* \"#utility.yul\":1100:1103   */\n  dup2\n    /* \"#utility.yul\":1093:1103   */\n  swap1\n  pop\n    /* \"#utility.yul\":728:1109   */\n  swap2\n  swap1\n  pop\n  jump\t// out\n    /* \"#utility.yul\":1115:1269   */\ntag_12:\n    /* \"#utility.yul\":1255:1261   */\n  0x5553455200000000000000000000000000000000000000000000000000000000\n    /* \"#utility.yul\":1251:1252   */\n  0x00\n    /* \"#utility.yul\":1243:1249   */\n  dup3\n    /* \"#utility.yul\":1239:1253   */\n  add\n    /* \"#utility.yul\":1232:1262   */\n  mstore\n    /* \"#utility.yul\":1115:1269   */\n  pop\n  jump\t// out\n    /* \"#utility.yul\":1275:1675   */\ntag_13:\n    /* \"#utility.yul\":1435:1438   */\n  0x00\n    /* \"#utility.yul\":1456:1540   */\n  tag_24\n    /* \"#utility.yul\":1538:1539   */\n  0x04\n    /* \"#utility.yul\":1533:1536   */\n  dup4\n    /* \"#utility.yul\":1456:1540   */\n  tag_9\n  jump\t// in\ntag_24:\n    /* \"#utility.yul\":1449:1540   */\n  swap2\n  pop\n    /* \"#utility.yul\":1549:1642   */\n  tag_25\n    /* \"#utility.yul\":1638:1641   */\n  dup3\n    /* \"#utility.yul\":1549:1642   */\n  tag_12\n  jump\t// in\ntag_25:\n    /* \"#utility.yul\":1667:1668   */\n  0x04\n    /* \"#utility.yul\":1662:1665   */\n  dup3\n    /* \"#utility.yul\":1658:1669   */\n  add\n    /* \"#utility.yul\":1651:1669   */\n  swap1\n  pop\n    /* \"#utility.yul\":1275:1675   */\n  swap2\n  swap1\n  pop\n  jump\t// out\n    /* \"#utility.yul\":1681:2062   */\ntag_4:\n    /* \"#utility.yul\":1866:1869   */\n  0x00\n    /* \"#utility.yul\":1888:2036   */\n  tag_27\n    /* \"#utility.yul\":2032:2035   */\n  dup3\n    /* \"#utility.yul\":1888:2036   */\n  tag_13\n  jump\t// in\ntag_27:\n    /* \"#utility.yul\":1881:2036   */\n  swap2\n  pop\n    /* \"#utility.yul\":2053:2056   */\n  dup2\n    /* \"#utility.yul\":2046:2056   */\n  swap1\n  pop\n    /* \"#utility.yul\":1681:2062   */\n  swap2\n  swap1\n  pop\n  jump\t// out\n    /* \"contracts/AccessControl.sol\":61:1462  contract AccessControl {... */\ntag_8:\n  dataSize(sub_0)\n  dup1\n  dataOffset(sub_0)\n  0x00\n  codecopy\n  0x00\n  return\nstop\n\nsub_0: assembly {\n        /* \"contracts/AccessControl.sol\":61:1462  contract AccessControl {... */\n      mstore(0x40, 0x80)\n      callvalue\n      dup1\n      iszero\n      tag_1\n      jumpi\n      0x00\n      dup1\n      revert\n    tag_1:\n      pop\n      jumpi(tag_2, lt(calldatasize, 0x04))\n      shr(0xe0, calldataload(0x00))\n      dup1\n      0x2f2ff15d\n      eq\n      tag_3\n      jumpi\n      dup1\n      0xd547741f\n      eq\n      tag_4\n      jumpi\n      dup1\n      0xf8fc08b9\n      eq\n      tag_5\n      jumpi\n    tag_2:\n      0x00\n      dup1\n      revert\n        /* \"contracts/AccessControl.sol\":1041:1162  function grantRole(bytes32 _role,address _account) external onlyRole(ADMIN) {... */\n    tag_3:\n      tag_6\n      0x04\n      dup1\n      calldatasize\n      sub\n      dup2\n      add\n      swap1\n      tag_7\n      swap2\n      swap1\n      tag_8\n      jump\t// in\n    tag_7:\n      tag_9\n      jump\t// in\n    tag_6:\n      stop\n        /* \"contracts/AccessControl.sol\":1336:1459  function revokeRole(bytes32 _role,address _account) external onlyRole(ADMIN) {... */\n    tag_4:\n      tag_10\n      0x04\n      dup1\n      calldatasize\n      sub\n      dup2\n      add\n      swap1\n      tag_11\n      swap2\n      swap1\n      tag_8\n      jump\t// in\n    tag_11:\n      tag_12\n      jump\t// in\n    tag_10:\n      stop\n        /* \"contracts/AccessControl.sol\":91:146  mapping(bytes32 => mapping(address=>bool)) public roles */\n    tag_5:\n      tag_13\n      0x04\n      dup1\n      calldatasize\n      sub\n      dup2\n      add\n      swap1\n      tag_14\n      swap2\n      swap1\n      tag_8\n      jump\t// in\n    tag_14:\n      tag_15\n      jump\t// in\n    tag_13:\n      mload(0x40)\n      tag_16\n      swap2\n      swap1\n      tag_17\n      jump\t// in\n    tag_16:\n      mload(0x40)\n      dup1\n      swap2\n      sub\n      swap1\n      return\n        /* \"contracts/AccessControl.sol\":1041:1162  function grantRole(bytes32 _role,address _account) external onlyRole(ADMIN) {... */\n    tag_9:\n        /* \"contracts/AccessControl.sol\":1110:1115  ADMIN */\n      sload(0x01)\n        /* \"contracts/AccessControl.sol\":737:742  roles */\n      0x00\n        /* \"contracts/AccessControl.sol\":737:749  roles[_role] */\n      dup1\n        /* \"contracts/AccessControl.sol\":743:748  _role */\n      dup3\n        /* \"contracts/AccessControl.sol\":737:749  roles[_role] */\n      dup2\n      mstore\n      0x20\n      add\n      swap1\n      dup2\n      mstore\n      0x20\n      add\n      0x00\n      keccak256\n        /* \"contracts/AccessControl.sol\":737:761  roles[_role][msg.sender] */\n      0x00\n        /* \"contracts/AccessControl.sol\":750:760  msg.sender */\n      caller\n        /* \"contracts/AccessControl.sol\":737:761  roles[_role][msg.sender] */\n      0xffffffffffffffffffffffffffffffffffffffff\n      and\n      0xffffffffffffffffffffffffffffffffffffffff\n      and\n      dup2\n      mstore\n      0x20\n      add\n      swap1\n      dup2\n      mstore\n      0x20\n      add\n      0x00\n      keccak256\n      0x00\n      swap1\n      sload\n      swap1\n      0x0100\n      exp\n      swap1\n      div\n      0xff\n      and\n        /* \"contracts/AccessControl.sol\":729:777  require(roles[_role][msg.sender],\"have no auth\") */\n      tag_19\n      jumpi\n      mload(0x40)\n      0x08c379a000000000000000000000000000000000000000000000000000000000\n      dup2\n      mstore\n      0x04\n      add\n      tag_20\n      swap1\n      tag_21\n      jump\t// in\n    tag_20:\n      mload(0x40)\n      dup1\n      swap2\n      sub\n      swap1\n      revert\n    tag_19:\n        /* \"contracts/AccessControl.sol\":1128:1154  _grantRole(_role,_account) */\n      tag_23\n        /* \"contracts/AccessControl.sol\":1139:1144  _role */\n      dup4\n        /* \"contracts/AccessControl.sol\":1145:1153  _account */\n      dup4\n        /* \"contracts/AccessControl.sol\":1128:1138  _grantRole */\n      tag_24\n        /* \"contracts/AccessControl.sol\":1128:1154  _grantRole(_role,_account) */\n      jump\t// in\n    tag_23:\n        /* \"contracts/AccessControl.sol\":1041:1162  function grantRole(bytes32 _role,address _account) external onlyRole(ADMIN) {... */\n      pop\n      pop\n      pop\n      jump\t// out\n        /* \"contracts/AccessControl.sol\":1336:1459  function revokeRole(bytes32 _role,address _account) external onlyRole(ADMIN) {... */\n    tag_12:\n        /* \"contracts/AccessControl.sol\":1406:1411  ADMIN */\n      sload(0x01)\n        /* \"contracts/AccessControl.sol\":737:742  roles */\n      0x00\n        /* \"contracts/AccessControl.sol\":737:749  roles[_role] */\n      dup1\n        /* \"contracts/AccessControl.sol\":743:748  _role */\n      dup3\n        /* \"contracts/AccessControl.sol\":737:749  roles[_role] */\n      dup2\n      mstore\n      0x20\n      add\n      swap1\n      dup2\n      mstore\n      0x20\n      add\n      0x00\n      keccak256\n        /* \"contracts/AccessControl.sol\":737:761  roles[_role][msg.sender] */\n      0x00\n        /* \"contracts/AccessControl.sol\":750:760  msg.sender */\n      caller\n        /* \"contracts/AccessControl.sol\":737:761  roles[_role][msg.sender] */\n      0xffffffffffffffffffffffffffffffffffffffff\n      and\n      0xffffffffffffffffffffffffffffffffffffffff\n      and\n      dup2\n      mstore\n      0x20\n      add\n      swap1\n      dup2\n      mstore\n      0x20\n      add\n      0x00\n      keccak256\n      0x00\n      swap1\n      sload\n      swap1\n      0x0100\n      exp\n      swap1\n      div\n      0xff\n      and\n        /* \"contracts/AccessControl.sol\":729:777  require(roles[_role][msg.sender],\"have no auth\") */\n      tag_26\n      jumpi\n      mload(0x40)\n      0x08c379a000000000000000000000000000000000000000000000000000000000\n      dup2\n      mstore\n      0x04\n      add\n      tag_27\n      swap1\n      tag_21\n      jump\t// in\n    tag_27:\n      mload(0x40)\n      dup1\n      swap2\n      sub\n      swap1\n      revert\n    tag_26:\n        /* \"contracts/AccessControl.sol\":1424:1451  _revokeRole(_role,_account) */\n      tag_29\n        /* \"contracts/AccessControl.sol\":1436:1441  _role */\n      dup4\n        /* \"contracts/AccessControl.sol\":1442:1450  _account */\n      dup4\n        /* \"contracts/AccessControl.sol\":1424:1435  _revokeRole */\n      tag_30\n        /* \"contracts/AccessControl.sol\":1424:1451  _revokeRole(_role,_account) */\n      jump\t// in\n    tag_29:\n        /* \"contracts/AccessControl.sol\":1336:1459  function revokeRole(bytes32 _role,address _account) external onlyRole(ADMIN) {... */\n      pop\n      pop\n      pop\n      jump\t// out\n        /* \"contracts/AccessControl.sol\":91:146  mapping(bytes32 => mapping(address=>bool)) public roles */\n    tag_15:\n      mstore(0x20, 0x00)\n      dup2\n      0x00\n      mstore\n      mstore(0x20, keccak256(0x00, 0x40))\n      dup1\n      0x00\n      mstore\n      keccak256(0x00, 0x40)\n      0x00\n      swap2\n      pop\n      swap2\n      pop\n      swap1\n      sload\n      swap1\n      0x0100\n      exp\n      swap1\n      div\n      0xff\n      and\n      dup2\n      jump\t// out\n        /* \"contracts/AccessControl.sol\":882:1033  function _grantRole(bytes32 _role,address _account) internal {... */\n    tag_24:\n        /* \"contracts/AccessControl.sol\":979:983  true */\n      0x01\n        /* \"contracts/AccessControl.sol\":954:959  roles */\n      0x00\n        /* \"contracts/AccessControl.sol\":954:966  roles[_role] */\n      dup1\n        /* \"contracts/AccessControl.sol\":960:965  _role */\n      dup5\n        /* \"contracts/AccessControl.sol\":954:966  roles[_role] */\n      dup2\n      mstore\n      0x20\n      add\n      swap1\n      dup2\n      mstore\n      0x20\n      add\n      0x00\n      keccak256\n        /* \"contracts/AccessControl.sol\":954:976  roles[_role][_account] */\n      0x00\n        /* \"contracts/AccessControl.sol\":967:975  _account */\n      dup4\n        /* \"contracts/AccessControl.sol\":954:976  roles[_role][_account] */\n      0xffffffffffffffffffffffffffffffffffffffff\n      and\n      0xffffffffffffffffffffffffffffffffffffffff\n      and\n      dup2\n      mstore\n      0x20\n      add\n      swap1\n      dup2\n      mstore\n      0x20\n      add\n      0x00\n      keccak256\n      0x00\n        /* \"contracts/AccessControl.sol\":954:983  roles[_role][_account] = true */\n      0x0100\n      exp\n      dup2\n      sload\n      dup2\n      0xff\n      mul\n      not\n      and\n      swap1\n      dup4\n      iszero\n      iszero\n      mul\n      or\n      swap1\n      sstore\n      pop\n        /* \"contracts/AccessControl.sol\":999:1025  GrantRole(_role, _account) */\n      0x5a06360d65acf95e98445dc834f205063424c636e65418d928cdfabc33a95399\n        /* \"contracts/AccessControl.sol\":1009:1014  _role */\n      dup3\n        /* \"contracts/AccessControl.sol\":1016:1024  _account */\n      dup3\n        /* \"contracts/AccessControl.sol\":999:1025  GrantRole(_role, _account) */\n      mload(0x40)\n      tag_32\n      swap3\n      swap2\n      swap1\n      tag_33\n      jump\t// in\n    tag_32:\n      mload(0x40)\n      dup1\n      swap2\n      sub\n      swap1\n      log1\n        /* \"contracts/AccessControl.sol\":882:1033  function _grantRole(bytes32 _role,address _account) internal {... */\n      pop\n      pop\n      jump\t// out\n        /* \"contracts/AccessControl.sol\":1174:1328  function _revokeRole(bytes32 _role,address _account) internal {... */\n    tag_30:\n        /* \"contracts/AccessControl.sol\":1272:1277  false */\n      0x00\n        /* \"contracts/AccessControl.sol\":1247:1252  roles */\n      dup1\n        /* \"contracts/AccessControl.sol\":1247:1259  roles[_role] */\n      0x00\n        /* \"contracts/AccessControl.sol\":1253:1258  _role */\n      dup5\n        /* \"contracts/AccessControl.sol\":1247:1259  roles[_role] */\n      dup2\n      mstore\n      0x20\n      add\n      swap1\n      dup2\n      mstore\n      0x20\n      add\n      0x00\n      keccak256\n        /* \"contracts/AccessControl.sol\":1247:1269  roles[_role][_account] */\n      0x00\n        /* \"contracts/AccessControl.sol\":1260:1268  _account */\n      dup4\n        /* \"contracts/AccessControl.sol\":1247:1269  roles[_role][_account] */\n      0xffffffffffffffffffffffffffffffffffffffff\n      and\n      0xffffffffffffffffffffffffffffffffffffffff\n      and\n      dup2\n      mstore\n      0x20\n      add\n      swap1\n      dup2\n      mstore\n      0x20\n      add\n      0x00\n      keccak256\n      0x00\n        /* \"contracts/AccessControl.sol\":1247:1277  roles[_role][_account] = false */\n      0x0100\n      exp\n      dup2\n      sload\n      dup2\n      0xff\n      mul\n      not\n      and\n      swap1\n      dup4\n      iszero\n      iszero\n      mul\n      or\n      swap1\n      sstore\n      pop\n        /* \"contracts/AccessControl.sol\":1293:1320  RevokeRole(_role, _account) */\n      0x76e6093c136cd7faa5a6d92b2b633f3b4595abd4a529b7a13917398355fea694\n        /* \"contracts/AccessControl.sol\":1304:1309  _role */\n      dup3\n        /* \"contracts/AccessControl.sol\":1311:1319  _account */\n      dup3\n        /* \"contracts/AccessControl.sol\":1293:1320  RevokeRole(_role, _account) */\n      mload(0x40)\n      tag_35\n      swap3\n      swap2\n      swap1\n      tag_33\n      jump\t// in\n    tag_35:\n      mload(0x40)\n      dup1\n      swap2\n      sub\n      swap1\n      log1\n        /* \"contracts/AccessControl.sol\":1174:1328  function _revokeRole(bytes32 _role,address _account) internal {... */\n      pop\n      pop\n      jump\t// out\n        /* \"#utility.yul\":88:205   */\n    tag_37:\n        /* \"#utility.yul\":197:198   */\n      0x00\n        /* \"#utility.yul\":194:195   */\n      dup1\n        /* \"#utility.yul\":187:199   */\n      revert\n        /* \"#utility.yul\":334:411   */\n    tag_39:\n        /* \"#utility.yul\":371:378   */\n      0x00\n        /* \"#utility.yul\":400:405   */\n      dup2\n        /* \"#utility.yul\":389:405   */\n      swap1\n      pop\n        /* \"#utility.yul\":334:411   */\n      swap2\n      swap1\n      pop\n      jump\t// out\n        /* \"#utility.yul\":417:539   */\n    tag_40:\n        /* \"#utility.yul\":490:514   */\n      tag_59\n        /* \"#utility.yul\":508:513   */\n      dup2\n        /* \"#utility.yul\":490:514   */\n      tag_39\n      jump\t// in\n    tag_59:\n        /* \"#utility.yul\":483:488   */\n      dup2\n        /* \"#utility.yul\":480:515   */\n      eq\n        /* \"#utility.yul\":470:533   */\n      tag_60\n      jumpi\n        /* \"#utility.yul\":529:530   */\n      0x00\n        /* \"#utility.yul\":526:527   */\n      dup1\n        /* \"#utility.yul\":519:531   */\n      revert\n        /* \"#utility.yul\":470:533   */\n    tag_60:\n        /* \"#utility.yul\":417:539   */\n      pop\n      jump\t// out\n        /* \"#utility.yul\":545:684   */\n    tag_41:\n        /* \"#utility.yul\":591:596   */\n      0x00\n        /* \"#utility.yul\":629:635   */\n      dup2\n        /* \"#utility.yul\":616:636   */\n      calldataload\n        /* \"#utility.yul\":607:636   */\n      swap1\n      pop\n        /* \"#utility.yul\":645:678   */\n      tag_62\n        /* \"#utility.yul\":672:677   */\n      dup2\n        /* \"#utility.yul\":645:678   */\n      tag_40\n      jump\t// in\n    tag_62:\n        /* \"#utility.yul\":545:684   */\n      swap3\n      swap2\n      pop\n      pop\n      jump\t// out\n        /* \"#utility.yul\":690:816   */\n    tag_42:\n        /* \"#utility.yul\":727:734   */\n      0x00\n        /* \"#utility.yul\":767:809   */\n      0xffffffffffffffffffffffffffffffffffffffff\n        /* \"#utility.yul\":760:765   */\n      dup3\n        /* \"#utility.yul\":756:810   */\n      and\n        /* \"#utility.yul\":745:810   */\n      swap1\n      pop\n        /* \"#utility.yul\":690:816   */\n      swap2\n      swap1\n      pop\n      jump\t// out\n        /* \"#utility.yul\":822:918   */\n    tag_43:\n        /* \"#utility.yul\":859:866   */\n      0x00\n        /* \"#utility.yul\":888:912   */\n      tag_65\n        /* \"#utility.yul\":906:911   */\n      dup3\n        /* \"#utility.yul\":888:912   */\n      tag_42\n      jump\t// in\n    tag_65:\n        /* \"#utility.yul\":877:912   */\n      swap1\n      pop\n        /* \"#utility.yul\":822:918   */\n      swap2\n      swap1\n      pop\n      jump\t// out\n        /* \"#utility.yul\":924:1046   */\n    tag_44:\n        /* \"#utility.yul\":997:1021   */\n      tag_67\n        /* \"#utility.yul\":1015:1020   */\n      dup2\n        /* \"#utility.yul\":997:1021   */\n      tag_43\n      jump\t// in\n    tag_67:\n        /* \"#utility.yul\":990:995   */\n      dup2\n        /* \"#utility.yul\":987:1022   */\n      eq\n        /* \"#utility.yul\":977:1040   */\n      tag_68\n      jumpi\n        /* \"#utility.yul\":1036:1037   */\n      0x00\n        /* \"#utility.yul\":1033:1034   */\n      dup1\n        /* \"#utility.yul\":1026:1038   */\n      revert\n        /* \"#utility.yul\":977:1040   */\n    tag_68:\n        /* \"#utility.yul\":924:1046   */\n      pop\n      jump\t// out\n        /* \"#utility.yul\":1052:1191   */\n    tag_45:\n        /* \"#utility.yul\":1098:1103   */\n      0x00\n        /* \"#utility.yul\":1136:1142   */\n      dup2\n        /* \"#utility.yul\":1123:1143   */\n      calldataload\n        /* \"#utility.yul\":1114:1143   */\n      swap1\n      pop\n        /* \"#utility.yul\":1152:1185   */\n      tag_70\n        /* \"#utility.yul\":1179:1184   */\n      dup2\n        /* \"#utility.yul\":1152:1185   */\n      tag_44\n      jump\t// in\n    tag_70:\n        /* \"#utility.yul\":1052:1191   */\n      swap3\n      swap2\n      pop\n      pop\n      jump\t// out\n        /* \"#utility.yul\":1197:1671   */\n    tag_8:\n        /* \"#utility.yul\":1265:1271   */\n      0x00\n        /* \"#utility.yul\":1273:1279   */\n      dup1\n        /* \"#utility.yul\":1322:1324   */\n      0x40\n        /* \"#utility.yul\":1310:1319   */\n      dup4\n        /* \"#utility.yul\":1301:1308   */\n      dup6\n        /* \"#utility.yul\":1297:1320   */\n      sub\n        /* \"#utility.yul\":1293:1325   */\n      slt\n        /* \"#utility.yul\":1290:1409   */\n      iszero\n      tag_72\n      jumpi\n        /* \"#utility.yul\":1328:1407   */\n      tag_73\n      tag_37\n      jump\t// in\n    tag_73:\n        /* \"#utility.yul\":1290:1409   */\n    tag_72:\n        /* \"#utility.yul\":1448:1449   */\n      0x00\n        /* \"#utility.yul\":1473:1526   */\n      tag_74\n        /* \"#utility.yul\":1518:1525   */\n      dup6\n        /* \"#utility.yul\":1509:1515   */\n      dup3\n        /* \"#utility.yul\":1498:1507   */\n      dup7\n        /* \"#utility.yul\":1494:1516   */\n      add\n        /* \"#utility.yul\":1473:1526   */\n      tag_41\n      jump\t// in\n    tag_74:\n        /* \"#utility.yul\":1463:1526   */\n      swap3\n      pop\n        /* \"#utility.yul\":1419:1536   */\n      pop\n        /* \"#utility.yul\":1575:1577   */\n      0x20\n        /* \"#utility.yul\":1601:1654   */\n      tag_75\n        /* \"#utility.yul\":1646:1653   */\n      dup6\n        /* \"#utility.yul\":1637:1643   */\n      dup3\n        /* \"#utility.yul\":1626:1635   */\n      dup7\n        /* \"#utility.yul\":1622:1644   */\n      add\n        /* \"#utility.yul\":1601:1654   */\n      tag_45\n      jump\t// in\n    tag_75:\n        /* \"#utility.yul\":1591:1654   */\n      swap2\n      pop\n        /* \"#utility.yul\":1546:1664   */\n      pop\n        /* \"#utility.yul\":1197:1671   */\n      swap3\n      pop\n      swap3\n      swap1\n      pop\n      jump\t// out\n        /* \"#utility.yul\":1677:1767   */\n    tag_46:\n        /* \"#utility.yul\":1711:1718   */\n      0x00\n        /* \"#utility.yul\":1754:1759   */\n      dup2\n        /* \"#utility.yul\":1747:1760   */\n      iszero\n        /* \"#utility.yul\":1740:1761   */\n      iszero\n        /* \"#utility.yul\":1729:1761   */\n      swap1\n      pop\n        /* \"#utility.yul\":1677:1767   */\n      swap2\n      swap1\n      pop\n      jump\t// out\n        /* \"#utility.yul\":1773:1882   */\n    tag_47:\n        /* \"#utility.yul\":1854:1875   */\n      tag_78\n        /* \"#utility.yul\":1869:1874   */\n      dup2\n        /* \"#utility.yul\":1854:1875   */\n      tag_46\n      jump\t// in\n    tag_78:\n        /* \"#utility.yul\":1849:1852   */\n      dup3\n        /* \"#utility.yul\":1842:1876   */\n      mstore\n        /* \"#utility.yul\":1773:1882   */\n      pop\n      pop\n      jump\t// out\n        /* \"#utility.yul\":1888:2098   */\n    tag_17:\n        /* \"#utility.yul\":1975:1979   */\n      0x00\n        /* \"#utility.yul\":2013:2015   */\n      0x20\n        /* \"#utility.yul\":2002:2011   */\n      dup3\n        /* \"#utility.yul\":1998:2016   */\n      add\n        /* \"#utility.yul\":1990:2016   */\n      swap1\n      pop\n        /* \"#utility.yul\":2026:2091   */\n      tag_80\n        /* \"#utility.yul\":2088:2089   */\n      0x00\n        /* \"#utility.yul\":2077:2086   */\n      dup4\n        /* \"#utility.yul\":2073:2090   */\n      add\n        /* \"#utility.yul\":2064:2070   */\n      dup5\n        /* \"#utility.yul\":2026:2091   */\n      tag_47\n      jump\t// in\n    tag_80:\n        /* \"#utility.yul\":1888:2098   */\n      swap3\n      swap2\n      pop\n      pop\n      jump\t// out\n        /* \"#utility.yul\":2104:2273   */\n    tag_48:\n        /* \"#utility.yul\":2188:2199   */\n      0x00\n        /* \"#utility.yul\":2222:2228   */\n      dup3\n        /* \"#utility.yul\":2217:2220   */\n      dup3\n        /* \"#utility.yul\":2210:2229   */\n      mstore\n        /* \"#utility.yul\":2262:2266   */\n      0x20\n        /* \"#utility.yul\":2257:2260   */\n      dup3\n        /* \"#utility.yul\":2253:2267   */\n      add\n        /* \"#utility.yul\":2238:2267   */\n      swap1\n      pop\n        /* \"#utility.yul\":2104:2273   */\n      swap3\n      swap2\n      pop\n      pop\n      jump\t// out\n        /* \"#utility.yul\":2279:2441   */\n    tag_49:\n        /* \"#utility.yul\":2419:2433   */\n      0x68617665206e6f20617574680000000000000000000000000000000000000000\n        /* \"#utility.yul\":2415:2416   */\n      0x00\n        /* \"#utility.yul\":2407:2413   */\n      dup3\n        /* \"#utility.yul\":2403:2417   */\n      add\n        /* \"#utility.yul\":2396:2434   */\n      mstore\n        /* \"#utility.yul\":2279:2441   */\n      pop\n      jump\t// out\n        /* \"#utility.yul\":2447:2813   */\n    tag_50:\n        /* \"#utility.yul\":2589:2592   */\n      0x00\n        /* \"#utility.yul\":2610:2677   */\n      tag_84\n        /* \"#utility.yul\":2674:2676   */\n      0x0c\n        /* \"#utility.yul\":2669:2672   */\n      dup4\n        /* \"#utility.yul\":2610:2677   */\n      tag_48\n      jump\t// in\n    tag_84:\n        /* \"#utility.yul\":2603:2677   */\n      swap2\n      pop\n        /* \"#utility.yul\":2686:2779   */\n      tag_85\n        /* \"#utility.yul\":2775:2778   */\n      dup3\n        /* \"#utility.yul\":2686:2779   */\n      tag_49\n      jump\t// in\n    tag_85:\n        /* \"#utility.yul\":2804:2806   */\n      0x20\n        /* \"#utility.yul\":2799:2802   */\n      dup3\n        /* \"#utility.yul\":2795:2807   */\n      add\n        /* \"#utility.yul\":2788:2807   */\n      swap1\n      pop\n        /* \"#utility.yul\":2447:2813   */\n      swap2\n      swap1\n      pop\n      jump\t// out\n        /* \"#utility.yul\":2819:3238   */\n    tag_21:\n        /* \"#utility.yul\":2985:2989   */\n      0x00\n        /* \"#utility.yul\":3023:3025   */\n      0x20\n        /* \"#utility.yul\":3012:3021   */\n      dup3\n        /* \"#utility.yul\":3008:3026   */\n      add\n        /* \"#utility.yul\":3000:3026   */\n      swap1\n      pop\n        /* \"#utility.yul\":3072:3081   */\n      dup2\n        /* \"#utility.yul\":3066:3070   */\n      dup2\n        /* \"#utility.yul\":3062:3082   */\n      sub\n        /* \"#utility.yul\":3058:3059   */\n      0x00\n        /* \"#utility.yul\":3047:3056   */\n      dup4\n        /* \"#utility.yul\":3043:3060   */\n      add\n        /* \"#utility.yul\":3036:3083   */\n      mstore\n        /* \"#utility.yul\":3100:3231   */\n      tag_87\n        /* \"#utility.yul\":3226:3230   */\n      dup2\n        /* \"#utility.yul\":3100:3231   */\n      tag_50\n      jump\t// in\n    tag_87:\n        /* \"#utility.yul\":3092:3231   */\n      swap1\n      pop\n        /* \"#utility.yul\":2819:3238   */\n      swap2\n      swap1\n      pop\n      jump\t// out\n        /* \"#utility.yul\":3244:3362   */\n    tag_51:\n        /* \"#utility.yul\":3331:3355   */\n      tag_89\n        /* \"#utility.yul\":3349:3354   */\n      dup2\n        /* \"#utility.yul\":3331:3355   */\n      tag_39\n      jump\t// in\n    tag_89:\n        /* \"#utility.yul\":3326:3329   */\n      dup3\n        /* \"#utility.yul\":3319:3356   */\n      mstore\n        /* \"#utility.yul\":3244:3362   */\n      pop\n      pop\n      jump\t// out\n        /* \"#utility.yul\":3368:3486   */\n    tag_52:\n        /* \"#utility.yul\":3455:3479   */\n      tag_91\n        /* \"#utility.yul\":3473:3478   */\n      dup2\n        /* \"#utility.yul\":3455:3479   */\n      tag_43\n      jump\t// in\n    tag_91:\n        /* \"#utility.yul\":3450:3453   */\n      dup3\n        /* \"#utility.yul\":3443:3480   */\n      mstore\n        /* \"#utility.yul\":3368:3486   */\n      pop\n      pop\n      jump\t// out\n        /* \"#utility.yul\":3492:3824   */\n    tag_33:\n        /* \"#utility.yul\":3613:3617   */\n      0x00\n        /* \"#utility.yul\":3651:3653   */\n      0x40\n        /* \"#utility.yul\":3640:3649   */\n      dup3\n        /* \"#utility.yul\":3636:3654   */\n      add\n        /* \"#utility.yul\":3628:3654   */\n      swap1\n      pop\n        /* \"#utility.yul\":3664:3735   */\n      tag_93\n        /* \"#utility.yul\":3732:3733   */\n      0x00\n        /* \"#utility.yul\":3721:3730   */\n      dup4\n        /* \"#utility.yul\":3717:3734   */\n      add\n        /* \"#utility.yul\":3708:3714   */\n      dup6\n        /* \"#utility.yul\":3664:3735   */\n      tag_51\n      jump\t// in\n    tag_93:\n        /* \"#utility.yul\":3745:3817   */\n      tag_94\n        /* \"#utility.yul\":3813:3815   */\n      0x20\n        /* \"#utility.yul\":3802:3811   */\n      dup4\n        /* \"#utility.yul\":3798:3816   */\n      add\n        /* \"#utility.yul\":3789:3795   */\n      dup5\n        /* \"#utility.yul\":3745:3817   */\n      tag_52\n      jump\t// in\n    tag_94:\n        /* \"#utility.yul\":3492:3824   */\n      swap4\n      swap3\n      pop\n      pop\n      pop\n      jump\t// out\n\n    auxdata: 0xa264697066735822122014261d9ab57bcf84f06ded831cfcdf8d50498eff87bff15541073acd1578892364736f6c634300081a0033\n}\n",
				"bytecode": {
					"linkReferences": {},
					"object": "60806040526040516020016100139061011e565b6040516020818303038152906040528051906020012060015560405160200161003b9061017c565b6040516020818303038152906040528051906020012060025534801561005f575f80fd5b5060015f8060015481526020019081526020015f205f3373ffffffffffffffffffffffffffffffffffffffff1673ffffffffffffffffffffffffffffffffffffffff1681526020019081526020015f205f6101000a81548160ff021916908315150217905550610190565b5f81905092915050565b7f41444d494e0000000000000000000000000000000000000000000000000000005f82015250565b5f6101086005836100ca565b9150610113826100d4565b600582019050919050565b5f610128826100fc565b9150819050919050565b7f55534552000000000000000000000000000000000000000000000000000000005f82015250565b5f6101666004836100ca565b915061017182610132565b600482019050919050565b5f6101868261015a565b9150819050919050565b61055a8061019d5f395ff3fe608060405234801561000f575f80fd5b506004361061003f575f3560e01c80632f2ff15d14610043578063d547741f1461005f578063f8fc08b91461007b575b5f80fd5b61005d600480360381019061005891906103f6565b6100ab565b005b610079600480360381019061007491906103f6565b610154565b005b610095600480360381019061009091906103f6565b6101fd565b6040516100a2919061044e565b60405180910390f35b6001545f808281526020019081526020015f205f3373ffffffffffffffffffffffffffffffffffffffff1673ffffffffffffffffffffffffffffffffffffffff1681526020019081526020015f205f9054906101000a900460ff16610145576040517f08c379a000000000000000000000000000000000000000000000000000000000815260040161013c906104c1565b60405180910390fd5b61014f8383610226565b505050565b6001545f808281526020019081526020015f205f3373ffffffffffffffffffffffffffffffffffffffff1673ffffffffffffffffffffffffffffffffffffffff1681526020019081526020015f205f9054906101000a900460ff166101ee576040517f08c379a00000000000000000000000000000000000000000000000000000000081526004016101e5906104c1565b60405180910390fd5b6101f883836102c6565b505050565b5f602052815f5260405f20602052805f5260405f205f915091509054906101000a900460ff1681565b60015f808481526020019081526020015f205f8373ffffffffffffffffffffffffffffffffffffffff1673ffffffffffffffffffffffffffffffffffffffff1681526020019081526020015f205f6101000a81548160ff0219169083151502179055507f5a06360d65acf95e98445dc834f205063424c636e65418d928cdfabc33a9539982826040516102ba9291906104fd565b60405180910390a15050565b5f805f8481526020019081526020015f205f8373ffffffffffffffffffffffffffffffffffffffff1673ffffffffffffffffffffffffffffffffffffffff1681526020019081526020015f205f6101000a81548160ff0219169083151502179055507f76e6093c136cd7faa5a6d92b2b633f3b4595abd4a529b7a13917398355fea69482826040516103599291906104fd565b60405180910390a15050565b5f80fd5b5f819050919050565b61037b81610369565b8114610385575f80fd5b50565b5f8135905061039681610372565b92915050565b5f73ffffffffffffffffffffffffffffffffffffffff82169050919050565b5f6103c58261039c565b9050919050565b6103d5816103bb565b81146103df575f80fd5b50565b5f813590506103f0816103cc565b92915050565b5f806040838503121561040c5761040b610365565b5b5f61041985828601610388565b925050602061042a858286016103e2565b9150509250929050565b5f8115159050919050565b61044881610434565b82525050565b5f6020820190506104615f83018461043f565b92915050565b5f82825260208201905092915050565b7f68617665206e6f206175746800000000000000000000000000000000000000005f82015250565b5f6104ab600c83610467565b91506104b682610477565b602082019050919050565b5f6020820190508181035f8301526104d88161049f565b9050919050565b6104e881610369565b82525050565b6104f7816103bb565b82525050565b5f6040820190506105105f8301856104df565b61051d60208301846104ee565b939250505056fea264697066735822122014261d9ab57bcf84f06ded831cfcdf8d50498eff87bff15541073acd1578892364736f6c634300081a0033",
					"opcodes": "PUSH1 0x80 PUSH1 0x40 MSTORE PUSH1 0x40 MLOAD PUSH1 0x20 ADD PUSH2 0x13 SWAP1 PUSH2 0x11E JUMP JUMPDEST PUSH1 0x40 MLOAD PUSH1 0x20 DUP2 DUP4 SUB SUB DUP2 MSTORE SWAP1 PUSH1 0x40 MSTORE DUP1 MLOAD SWAP1 PUSH1 0x20 ADD KECCAK256 PUSH1 0x1 SSTORE PUSH1 0x40 MLOAD PUSH1 0x20 ADD PUSH2 0x3B SWAP1 PUSH2 0x17C JUMP JUMPDEST PUSH1 0x40 MLOAD PUSH1 0x20 DUP2 DUP4 SUB SUB DUP2 MSTORE SWAP1 PUSH1 0x40 MSTORE DUP1 MLOAD SWAP1 PUSH1 0x20 ADD KECCAK256 PUSH1 0x2 SSTORE CALLVALUE DUP1 ISZERO PUSH2 0x5F JUMPI PUSH0 DUP1 REVERT JUMPDEST POP PUSH1 0x1 PUSH0 DUP1 PUSH1 0x1 SLOAD DUP2 MSTORE PUSH1 0x20 ADD SWAP1 DUP2 MSTORE PUSH1 0x20 ADD PUSH0 KECCAK256 PUSH0 CALLER PUSH20 0xFFFFFFFFFFFFFFFFFFFFFFFFFFFFFFFFFFFFFFFF AND PUSH20 0xFFFFFFFFFFFFFFFFFFFFFFFFFFFFFFFFFFFFFFFF AND DUP2 MSTORE PUSH1 0x20 ADD SWAP1 DUP2 MSTORE PUSH1 0x20 ADD PUSH0 KECCAK256 PUSH0 PUSH2 0x100 EXP DUP2 SLOAD DUP2 PUSH1 0xFF MUL NOT AND SWAP1 DUP4 ISZERO ISZERO MUL OR SWAP1 SSTORE POP PUSH2 0x190 JUMP JUMPDEST PUSH0 DUP2 SWAP1 POP SWAP3 SWAP2 POP POP JUMP JUMPDEST PUSH32 0x41444D494E000000000000000000000000000000000000000000000000000000 PUSH0 DUP3 ADD MSTORE POP JUMP JUMPDEST PUSH0 PUSH2 0x108 PUSH1 0x5 DUP4 PUSH2 0xCA JUMP JUMPDEST SWAP2 POP PUSH2 0x113 DUP3 PUSH2 0xD4 JUMP JUMPDEST PUSH1 0x5 DUP3 ADD SWAP1 POP SWAP2 SWAP1 POP JUMP JUMPDEST PUSH0 PUSH2 0x128 DUP3 PUSH2 0xFC JUMP JUMPDEST SWAP2 POP DUP2 SWAP1 POP SWAP2 SWAP1 POP JUMP JUMPDEST PUSH32 0x5553455200000000000000000000000000000000000000000000000000000000 PUSH0 DUP3 ADD MSTORE POP JUMP JUMPDEST PUSH0 PUSH2 0x166 PUSH1 0x4 DUP4 PUSH2 0xCA JUMP JUMPDEST SWAP2 POP PUSH2 0x171 DUP3 PUSH2 0x132 JUMP JUMPDEST PUSH1 0x4 DUP3 ADD SWAP1 POP SWAP2 SWAP1 POP JUMP JUMPDEST PUSH0 PUSH2 0x186 DUP3 PUSH2 0x15A JUMP JUMPDEST SWAP2 POP DUP2 SWAP1 POP SWAP2 SWAP1 POP JUMP JUMPDEST PUSH2 0x55A DUP1 PUSH2 0x19D PUSH0 CODECOPY PUSH0 RETURN INVALID PUSH1 0x80 PUSH1 0x40 MSTORE CALLVALUE DUP1 ISZERO PUSH2 0xF JUMPI PUSH0 DUP1 REVERT JUMPDEST POP PUSH1 0x4 CALLDATASIZE LT PUSH2 0x3F JUMPI PUSH0 CALLDATALOAD PUSH1 0xE0 SHR DUP1 PUSH4 0x2F2FF15D EQ PUSH2 0x43 JUMPI DUP1 PUSH4 0xD547741F EQ PUSH2 0x5F JUMPI DUP1 PUSH4 0xF8FC08B9 EQ PUSH2 0x7B JUMPI JUMPDEST PUSH0 DUP1 REVERT JUMPDEST PUSH2 0x5D PUSH1 0x4 DUP1 CALLDATASIZE SUB DUP2 ADD SWAP1 PUSH2 0x58 SWAP2 SWAP1 PUSH2 0x3F6 JUMP JUMPDEST PUSH2 0xAB JUMP JUMPDEST STOP JUMPDEST PUSH2 0x79 PUSH1 0x4 DUP1 CALLDATASIZE SUB DUP2 ADD SWAP1 PUSH2 0x74 SWAP2 SWAP1 PUSH2 0x3F6 JUMP JUMPDEST PUSH2 0x154 JUMP JUMPDEST STOP JUMPDEST PUSH2 0x95 PUSH1 0x4 DUP1 CALLDATASIZE SUB DUP2 ADD SWAP1 PUSH2 0x90 SWAP2 SWAP1 PUSH2 0x3F6 JUMP JUMPDEST PUSH2 0x1FD JUMP JUMPDEST PUSH1 0x40 MLOAD PUSH2 0xA2 SWAP2 SWAP1 PUSH2 0x44E JUMP JUMPDEST PUSH1 0x40 MLOAD DUP1 SWAP2 SUB SWAP1 RETURN JUMPDEST PUSH1 0x1 SLOAD PUSH0 DUP1 DUP3 DUP2 MSTORE PUSH1 0x20 ADD SWAP1 DUP2 MSTORE PUSH1 0x20 ADD PUSH0 KECCAK256 PUSH0 CALLER PUSH20 0xFFFFFFFFFFFFFFFFFFFFFFFFFFFFFFFFFFFFFFFF AND PUSH20 0xFFFFFFFFFFFFFFFFFFFFFFFFFFFFFFFFFFFFFFFF AND DUP2 MSTORE PUSH1 0x20 ADD SWAP1 DUP2 MSTORE PUSH1 0x20 ADD PUSH0 KECCAK256 PUSH0 SWAP1 SLOAD SWAP1 PUSH2 0x100 EXP SWAP1 DIV PUSH1 0xFF AND PUSH2 0x145 JUMPI PUSH1 0x40 MLOAD PUSH32 0x8C379A000000000000000000000000000000000000000000000000000000000 DUP2 MSTORE PUSH1 0x4 ADD PUSH2 0x13C SWAP1 PUSH2 0x4C1 JUMP JUMPDEST PUSH1 0x40 MLOAD DUP1 SWAP2 SUB SWAP1 REVERT JUMPDEST PUSH2 0x14F DUP4 DUP4 PUSH2 0x226 JUMP JUMPDEST POP POP POP JUMP JUMPDEST PUSH1 0x1 SLOAD PUSH0 DUP1 DUP3 DUP2 MSTORE PUSH1 0x20 ADD SWAP1 DUP2 MSTORE PUSH1 0x20 ADD PUSH0 KECCAK256 PUSH0 CALLER PUSH20 0xFFFFFFFFFFFFFFFFFFFFFFFFFFFFFFFFFFFFFFFF AND PUSH20 0xFFFFFFFFFFFFFFFFFFFFFFFFFFFFFFFFFFFFFFFF AND DUP2 MSTORE PUSH1 0x20 ADD SWAP1 DUP2 MSTORE PUSH1 0x20 ADD PUSH0 KECCAK256 PUSH0 SWAP1 SLOAD SWAP1 PUSH2 0x100 EXP SWAP1 DIV PUSH1 0xFF AND PUSH2 0x1EE JUMPI PUSH1 0x40 MLOAD PUSH32 0x8C379A000000000000000000000000000000000000000000000000000000000 DUP2 MSTORE PUSH1 0x4 ADD PUSH2 0x1E5 SWAP1 PUSH2 0x4C1 JUMP JUMPDEST PUSH1 0x40 MLOAD DUP1 SWAP2 SUB SWAP1 REVERT JUMPDEST PUSH2 0x1F8 DUP4 DUP4 PUSH2 0x2C6 JUMP JUMPDEST POP POP POP JUMP JUMPDEST PUSH0 PUSH1 0x20 MSTORE DUP2 PUSH0 MSTORE PUSH1 0x40 PUSH0 KECCAK256 PUSH1 0x20 MSTORE DUP1 PUSH0 MSTORE PUSH1 0x40 PUSH0 KECCAK256 PUSH0 SWAP2 POP SWAP2 POP SWAP1 SLOAD SWAP1 PUSH2 0x100 EXP SWAP1 DIV PUSH1 0xFF AND DUP2 JUMP JUMPDEST PUSH1 0x1 PUSH0 DUP1 DUP5 DUP2 MSTORE PUSH1 0x20 ADD SWAP1 DUP2 MSTORE PUSH1 0x20 ADD PUSH0 KECCAK256 PUSH0 DUP4 PUSH20 0xFFFFFFFFFFFFFFFFFFFFFFFFFFFFFFFFFFFFFFFF AND PUSH20 0xFFFFFFFFFFFFFFFFFFFFFFFFFFFFFFFFFFFFFFFF AND DUP2 MSTORE PUSH1 0x20 ADD SWAP1 DUP2 MSTORE PUSH1 0x20 ADD PUSH0 KECCAK256 PUSH0 PUSH2 0x100 EXP DUP2 SLOAD DUP2 PUSH1 0xFF MUL NOT AND SWAP1 DUP4 ISZERO ISZERO MUL OR SWAP1 SSTORE POP PUSH32 0x5A06360D65ACF95E98445DC834F205063424C636E65418D928CDFABC33A95399 DUP3 DUP3 PUSH1 0x40 MLOAD PUSH2 0x2BA SWAP3 SWAP2 SWAP1 PUSH2 0x4FD JUMP JUMPDEST PUSH1 0x40 MLOAD DUP1 SWAP2 SUB SWAP1 LOG1 POP POP JUMP JUMPDEST PUSH0 DUP1 PUSH0 DUP5 DUP2 MSTORE PUSH1 0x20 ADD SWAP1 DUP2 MSTORE PUSH1 0x20 ADD PUSH0 KECCAK256 PUSH0 DUP4 PUSH20 0xFFFFFFFFFFFFFFFFFFFFFFFFFFFFFFFFFFFFFFFF AND PUSH20 0xFFFFFFFFFFFFFFFFFFFFFFFFFFFFFFFFFFFFFFFF AND DUP2 MSTORE PUSH1 0x20 ADD SWAP1 DUP2 MSTORE PUSH1 0x20 ADD PUSH0 KECCAK256 PUSH0 PUSH2 0x100 EXP DUP2 SLOAD DUP2 PUSH1 0xFF MUL NOT AND SWAP1 DUP4 ISZERO ISZERO MUL OR SWAP1 SSTORE POP PUSH32 0x76E6093C136CD7FAA5A6D92B2B633F3B4595ABD4A529B7A13917398355FEA694 DUP3 DUP3 PUSH1 0x40 MLOAD PUSH2 0x359 SWAP3 SWAP2 SWAP1 PUSH2 0x4FD JUMP JUMPDEST PUSH1 0x40 MLOAD DUP1 SWAP2 SUB SWAP1 LOG1 POP POP JUMP JUMPDEST PUSH0 DUP1 REVERT JUMPDEST PUSH0 DUP2 SWAP1 POP SWAP2 SWAP1 POP JUMP JUMPDEST PUSH2 0x37B DUP2 PUSH2 0x369 JUMP JUMPDEST DUP2 EQ PUSH2 0x385 JUMPI PUSH0 DUP1 REVERT JUMPDEST POP JUMP JUMPDEST PUSH0 DUP2 CALLDATALOAD SWAP1 POP PUSH2 0x396 DUP2 PUSH2 0x372 JUMP JUMPDEST SWAP3 SWAP2 POP POP JUMP JUMPDEST PUSH0 PUSH20 0xFFFFFFFFFFFFFFFFFFFFFFFFFFFFFFFFFFFFFFFF DUP3 AND SWAP1 POP SWAP2 SWAP1 POP JUMP JUMPDEST PUSH0 PUSH2 0x3C5 DUP3 PUSH2 0x39C JUMP JUMPDEST SWAP1 POP SWAP2 SWAP1 POP JUMP JUMPDEST PUSH2 0x3D5 DUP2 PUSH2 0x3BB JUMP JUMPDEST DUP2 EQ PUSH2 0x3DF JUMPI PUSH0 DUP1 REVERT JUMPDEST POP JUMP JUMPDEST PUSH0 DUP2 CALLDATALOAD SWAP1 POP PUSH2 0x3F0 DUP2 PUSH2 0x3CC JUMP JUMPDEST SWAP3 SWAP2 POP POP JUMP JUMPDEST PUSH0 DUP1 PUSH1 0x40 DUP4 DUP6 SUB SLT ISZERO PUSH2 0x40C JUMPI PUSH2 0x40B PUSH2 0x365 JUMP JUMPDEST JUMPDEST PUSH0 PUSH2 0x419 DUP6 DUP3 DUP7 ADD PUSH2 0x388 JUMP JUMPDEST SWAP3 POP POP PUSH1 0x20 PUSH2 0x42A DUP6 DUP3 DUP7 ADD PUSH2 0x3E2 JUMP JUMPDEST SWAP2 POP POP SWAP3 POP SWAP3 SWAP1 POP JUMP JUMPDEST PUSH0 DUP2 ISZERO ISZERO SWAP1 POP SWAP2 SWAP1 POP JUMP JUMPDEST PUSH2 0x448 DUP2 PUSH2 0x434 JUMP JUMPDEST DUP3 MSTORE POP POP JUMP JUMPDEST PUSH0 PUSH1 0x20 DUP3 ADD SWAP1 POP PUSH2 0x461 PUSH0 DUP4 ADD DUP5 PUSH2 0x43F JUMP JUMPDEST SWAP3 SWAP2 POP POP JUMP JUMPDEST PUSH0 DUP3 DUP3 MSTORE PUSH1 0x20 DUP3 ADD SWAP1 POP SWAP3 SWAP2 POP POP JUMP JUMPDEST PUSH32 0x68617665206E6F20617574680000000000000000000000000000000000000000 PUSH0 DUP3 ADD MSTORE POP JUMP JUMPDEST PUSH0 PUSH2 0x4AB PUSH1 0xC DUP4 PUSH2 0x467 JUMP JUMPDEST SWAP2 POP PUSH2 0x4B6 DUP3 PUSH2 0x477 JUMP JUMPDEST PUSH1 0x20 DUP3 ADD SWAP1 POP SWAP2 SWAP1 POP JUMP JUMPDEST PUSH0 PUSH1 0x20 DUP3 ADD SWAP1 POP DUP2 DUP2 SUB PUSH0 DUP4 ADD MSTORE PUSH2 0x4D8 DUP2 PUSH2 0x49F JUMP JUMPDEST SWAP1 POP SWAP2 SWAP1 POP JUMP JUMPDEST PUSH2 0x4E8 DUP2 PUSH2 0x369 JUMP JUMPDEST DUP3 MSTORE POP POP JUMP JUMPDEST PUSH2 0x4F7 DUP2 PUSH2 0x3BB JUMP JUMPDEST DUP3 MSTORE POP POP JUMP JUMPDEST PUSH0 PUSH1 0x40 DUP3 ADD SWAP1 POP PUSH2 0x510 PUSH0 DUP4 ADD DUP6 PUSH2 0x4DF JUMP JUMPDEST PUSH2 0x51D PUSH1 0x20 DUP4 ADD DUP5 PUSH2 0x4EE JUMP JUMPDEST SWAP4 SWAP3 POP POP POP JUMP INVALID LOG2 PUSH5 0x6970667358 0x22 SLT KECCAK256 EQ 0x26 SAR SWAP11 0xB5 PUSH28 0xCF84F06DED831CFCDF8D50498EFF87BFF15541073ACD157889236473 PUSH16 0x6C634300081A00330000000000000000 "
				},
				"gasEstimates": {
					"creation": {
						"codeDepositCost": "274000",
						"executionCost": "infinite",
						"totalCost": "infinite"
					},
					"external": {
						"grantRole(bytes32,address)": "infinite",
						"revokeRole(bytes32,address)": "infinite",
						"roles(bytes32,address)": "3092"
					},
					"internal": {
						"_grantRole(bytes32,address)": "infinite",
						"_revokeRole(bytes32,address)": "infinite"
					}
				},
				"methodIdentifiers": {
					"grantRole(bytes32,address)": "2f2ff15d",
					"revokeRole(bytes32,address)": "d547741f",
					"roles(bytes32,address)": "f8fc08b9"
				}
			},
			"storageLayout": {
				"storage": [
					{
						"astId": 7,
						"contract": "contracts/AccessControl.sol:AccessControl",
						"label": "roles",
						"offset": 0,
						"slot": "0",
						"type": "t_mapping(t_bytes32,t_mapping(t_address,t_bool))"
					},
					{
						"astId": 15,
						"contract": "contracts/AccessControl.sol:AccessControl",
						"label": "ADMIN",
						"offset": 0,
						"slot": "1",
						"type": "t_bytes32"
					},
					{
						"astId": 23,
						"contract": "contracts/AccessControl.sol:AccessControl",
						"label": "USER",
						"offset": 0,
						"slot": "2",
						"type": "t_bytes32"
					}
				],
				"types": {
					"t_address": {
						"encoding": "inplace",
						"label": "address",
						"numberOfBytes": "20"
					},
					"t_bool": {
						"encoding": "inplace",
						"label": "bool",
						"numberOfBytes": "1"
					},
					"t_bytes32": {
						"encoding": "inplace",
						"label": "bytes32",
						"numberOfBytes": "32"
					},
					"t_mapping(t_address,t_bool)": {
						"encoding": "mapping",
						"key": "t_address",
						"label": "mapping(address => bool)",
						"numberOfBytes": "32",
						"value": "t_bool"
					},
					"t_mapping(t_bytes32,t_mapping(t_address,t_bool))": {
						"encoding": "mapping",
						"key": "t_bytes32",
						"label": "mapping(bytes32 => mapping(address => bool))",
						"numberOfBytes": "32",
						"value": "t_mapping(t_address,t_bool)"
					}
				}
			},
			"userdoc": {
				"kind": "user",
				"methods": {},
				"version": 1
			}
		}
	}
}