{
	"contracts/Selector.sol": {
		"FunSelector": {
			"abi": [
				{
					"anonymous": false,
					"inputs": [
						{
							"indexed": false,
							"internalType": "bytes",
							"name": "data",
							"type": "bytes"
						}
					],
					"name": "Log",
					"type": "event"
				},
				{
					"inputs": [],
					"name": "getSelector",
					"outputs": [
						{
							"internalType": "bytes4",
							"name": "",
							"type": "bytes4"
						}
					],
					"stateMutability": "pure",
					"type": "function"
				},
				{
					"inputs": [
						{
							"internalType": "address",
							"name": "_addr",
							"type": "address"
						},
						{
							"internalType": "uint256",
							"name": "amount",
							"type": "uint256"
						}
					],
					"name": "receiver",
					"outputs": [],
					"stateMutability": "nonpayable",
					"type": "function"
				},
				{
					"inputs": [
						{
							"internalType": "uint256[]",
							"name": "arr",
							"type": "uint256[]"
						}
					],
					"name": "sumIfEvenAndLessThan99",
					"outputs": [],
					"stateMutability": "nonpayable",
					"type": "function"
				}
			],
			"devdoc": {
				"kind": "dev",
				"methods": {},
				"version": 1
			},
			"evm": {
				"assembly": "    /* \"contracts/Selector.sol\":61:1609  contract FunSelector {... */\n  mstore(0x40, 0x80)\n  callvalue\n  dup1\n  iszero\n  tag_1\n  jumpi\n  0x00\n  dup1\n  revert\ntag_1:\n  pop\n  dataSize(sub_0)\n  dup1\n  dataOffset(sub_0)\n  0x00\n  codecopy\n  0x00\n  return\nstop\n\nsub_0: assembly {\n        /* \"contracts/Selector.sol\":61:1609  contract FunSelector {... */\n      mstore(0x40, 0x80)\n      callvalue\n      dup1\n      iszero\n      tag_1\n      jumpi\n      0x00\n      dup1\n      revert\n    tag_1:\n      pop\n      jumpi(tag_2, lt(calldatasize, 0x04))\n      shr(0xe0, calldataload(0x00))\n      dup1\n      0x034899bc\n      eq\n      tag_3\n      jumpi\n      dup1\n      0x9db0ba39\n      eq\n      tag_4\n      jumpi\n      dup1\n      0xc9762ec2\n      eq\n      tag_5\n      jumpi\n    tag_2:\n      0x00\n      dup1\n      revert\n        /* \"contracts/Selector.sol\":91:538  function getSelector() external pure returns(bytes4) {... */\n    tag_3:\n      tag_6\n      tag_7\n      jump\t// in\n    tag_6:\n      mload(0x40)\n      tag_8\n      swap2\n      swap1\n      tag_9\n      jump\t// in\n    tag_8:\n      mload(0x40)\n      dup1\n      swap2\n      sub\n      swap1\n      return\n        /* \"contracts/Selector.sol\":1200:1499  function receiver(address _addr,uint amount) external {... */\n    tag_4:\n      tag_10\n      0x04\n      dup1\n      calldatasize\n      sub\n      dup2\n      add\n      swap1\n      tag_11\n      swap2\n      swap1\n      tag_12\n      jump\t// in\n    tag_11:\n      tag_13\n      jump\t// in\n    tag_10:\n      stop\n        /* \"contracts/Selector.sol\":1507:1606  function sumIfEvenAndLessThan99(uint[] calldata arr) external {... */\n    tag_5:\n      tag_14\n      0x04\n      dup1\n      calldatasize\n      sub\n      dup2\n      add\n      swap1\n      tag_15\n      swap2\n      swap1\n      tag_16\n      jump\t// in\n    tag_15:\n      tag_17\n      jump\t// in\n    tag_14:\n      stop\n        /* \"contracts/Selector.sol\":91:538  function getSelector() external pure returns(bytes4) {... */\n    tag_7:\n        /* \"contracts/Selector.sol\":136:142  bytes4 */\n      0x00\n        /* \"contracts/Selector.sol\":491:529  keccak256(\"transfer(address,uint256)\") */\n      0xa9059cbb2ab09eb219583f4a59a5d0623ade346d962bcd4e46b11da047c9049b\n        /* \"contracts/Selector.sol\":477:530  return bytes4(keccak256(\"transfer(address,uint256)\")) */\n      swap1\n      pop\n        /* \"contracts/Selector.sol\":91:538  function getSelector() external pure returns(bytes4) {... */\n      swap1\n      jump\t// out\n        /* \"contracts/Selector.sol\":1200:1499  function receiver(address _addr,uint amount) external {... */\n    tag_13:\n        /* \"contracts/Selector.sol\":1270:1283  Log(msg.data) */\n      0xafabcf2dd47e06a477a89e49c03f8ebe8e0a7e94f775b25bbb24227c9d0110b2\n        /* \"contracts/Selector.sol\":1274:1282  msg.data */\n      0x00\n      calldatasize\n        /* \"contracts/Selector.sol\":1270:1283  Log(msg.data) */\n      mload(0x40)\n      tag_20\n      swap3\n      swap2\n      swap1\n      tag_21\n      jump\t// in\n    tag_20:\n      mload(0x40)\n      dup1\n      swap2\n      sub\n      swap1\n      log1\n        /* \"contracts/Selector.sol\":1200:1499  function receiver(address _addr,uint amount) external {... */\n      pop\n      pop\n      jump\t// out\n        /* \"contracts/Selector.sol\":1507:1606  function sumIfEvenAndLessThan99(uint[] calldata arr) external {... */\n    tag_17:\n        /* \"contracts/Selector.sol\":1585:1598  Log(msg.data) */\n      0xafabcf2dd47e06a477a89e49c03f8ebe8e0a7e94f775b25bbb24227c9d0110b2\n        /* \"contracts/Selector.sol\":1589:1597  msg.data */\n      0x00\n      calldatasize\n        /* \"contracts/Selector.sol\":1585:1598  Log(msg.data) */\n      mload(0x40)\n      tag_23\n      swap3\n      swap2\n      swap1\n      tag_21\n      jump\t// in\n    tag_23:\n      mload(0x40)\n      dup1\n      swap2\n      sub\n      swap1\n      log1\n        /* \"contracts/Selector.sol\":1507:1606  function sumIfEvenAndLessThan99(uint[] calldata arr) external {... */\n      pop\n      pop\n      jump\t// out\n        /* \"#utility.yul\":7:156   */\n    tag_24:\n        /* \"#utility.yul\":43:50   */\n      0x00\n        /* \"#utility.yul\":83:149   */\n      0xffffffff00000000000000000000000000000000000000000000000000000000\n        /* \"#utility.yul\":76:81   */\n      dup3\n        /* \"#utility.yul\":72:150   */\n      and\n        /* \"#utility.yul\":61:150   */\n      swap1\n      pop\n        /* \"#utility.yul\":7:156   */\n      swap2\n      swap1\n      pop\n      jump\t// out\n        /* \"#utility.yul\":162:277   */\n    tag_25:\n        /* \"#utility.yul\":247:270   */\n      tag_47\n        /* \"#utility.yul\":264:269   */\n      dup2\n        /* \"#utility.yul\":247:270   */\n      tag_24\n      jump\t// in\n    tag_47:\n        /* \"#utility.yul\":242:245   */\n      dup3\n        /* \"#utility.yul\":235:271   */\n      mstore\n        /* \"#utility.yul\":162:277   */\n      pop\n      pop\n      jump\t// out\n        /* \"#utility.yul\":283:501   */\n    tag_9:\n        /* \"#utility.yul\":374:378   */\n      0x00\n        /* \"#utility.yul\":412:414   */\n      0x20\n        /* \"#utility.yul\":401:410   */\n      dup3\n        /* \"#utility.yul\":397:415   */\n      add\n        /* \"#utility.yul\":389:415   */\n      swap1\n      pop\n        /* \"#utility.yul\":425:494   */\n      tag_49\n        /* \"#utility.yul\":491:492   */\n      0x00\n        /* \"#utility.yul\":480:489   */\n      dup4\n        /* \"#utility.yul\":476:493   */\n      add\n        /* \"#utility.yul\":467:473   */\n      dup5\n        /* \"#utility.yul\":425:494   */\n      tag_25\n      jump\t// in\n    tag_49:\n        /* \"#utility.yul\":283:501   */\n      swap3\n      swap2\n      pop\n      pop\n      jump\t// out\n        /* \"#utility.yul\":588:705   */\n    tag_27:\n        /* \"#utility.yul\":697:698   */\n      0x00\n        /* \"#utility.yul\":694:695   */\n      dup1\n        /* \"#utility.yul\":687:699   */\n      revert\n        /* \"#utility.yul\":711:828   */\n    tag_28:\n        /* \"#utility.yul\":820:821   */\n      0x00\n        /* \"#utility.yul\":817:818   */\n      dup1\n        /* \"#utility.yul\":810:822   */\n      revert\n        /* \"#utility.yul\":834:960   */\n    tag_29:\n        /* \"#utility.yul\":871:878   */\n      0x00\n        /* \"#utility.yul\":911:953   */\n      0xffffffffffffffffffffffffffffffffffffffff\n        /* \"#utility.yul\":904:909   */\n      dup3\n        /* \"#utility.yul\":900:954   */\n      and\n        /* \"#utility.yul\":889:954   */\n      swap1\n      pop\n        /* \"#utility.yul\":834:960   */\n      swap2\n      swap1\n      pop\n      jump\t// out\n        /* \"#utility.yul\":966:1062   */\n    tag_30:\n        /* \"#utility.yul\":1003:1010   */\n      0x00\n        /* \"#utility.yul\":1032:1056   */\n      tag_55\n        /* \"#utility.yul\":1050:1055   */\n      dup3\n        /* \"#utility.yul\":1032:1056   */\n      tag_29\n      jump\t// in\n    tag_55:\n        /* \"#utility.yul\":1021:1056   */\n      swap1\n      pop\n        /* \"#utility.yul\":966:1062   */\n      swap2\n      swap1\n      pop\n      jump\t// out\n        /* \"#utility.yul\":1068:1190   */\n    tag_31:\n        /* \"#utility.yul\":1141:1165   */\n      tag_57\n        /* \"#utility.yul\":1159:1164   */\n      dup2\n        /* \"#utility.yul\":1141:1165   */\n      tag_30\n      jump\t// in\n    tag_57:\n        /* \"#utility.yul\":1134:1139   */\n      dup2\n        /* \"#utility.yul\":1131:1166   */\n      eq\n        /* \"#utility.yul\":1121:1184   */\n      tag_58\n      jumpi\n        /* \"#utility.yul\":1180:1181   */\n      0x00\n        /* \"#utility.yul\":1177:1178   */\n      dup1\n        /* \"#utility.yul\":1170:1182   */\n      revert\n        /* \"#utility.yul\":1121:1184   */\n    tag_58:\n        /* \"#utility.yul\":1068:1190   */\n      pop\n      jump\t// out\n        /* \"#utility.yul\":1196:1335   */\n    tag_32:\n        /* \"#utility.yul\":1242:1247   */\n      0x00\n        /* \"#utility.yul\":1280:1286   */\n      dup2\n        /* \"#utility.yul\":1267:1287   */\n      calldataload\n        /* \"#utility.yul\":1258:1287   */\n      swap1\n      pop\n        /* \"#utility.yul\":1296:1329   */\n      tag_60\n        /* \"#utility.yul\":1323:1328   */\n      dup2\n        /* \"#utility.yul\":1296:1329   */\n      tag_31\n      jump\t// in\n    tag_60:\n        /* \"#utility.yul\":1196:1335   */\n      swap3\n      swap2\n      pop\n      pop\n      jump\t// out\n        /* \"#utility.yul\":1341:1418   */\n    tag_33:\n        /* \"#utility.yul\":1378:1385   */\n      0x00\n        /* \"#utility.yul\":1407:1412   */\n      dup2\n        /* \"#utility.yul\":1396:1412   */\n      swap1\n      pop\n        /* \"#utility.yul\":1341:1418   */\n      swap2\n      swap1\n      pop\n      jump\t// out\n        /* \"#utility.yul\":1424:1546   */\n    tag_34:\n        /* \"#utility.yul\":1497:1521   */\n      tag_63\n        /* \"#utility.yul\":1515:1520   */\n      dup2\n        /* \"#utility.yul\":1497:1521   */\n      tag_33\n      jump\t// in\n    tag_63:\n        /* \"#utility.yul\":1490:1495   */\n      dup2\n        /* \"#utility.yul\":1487:1522   */\n      eq\n        /* \"#utility.yul\":1477:1540   */\n      tag_64\n      jumpi\n        /* \"#utility.yul\":1536:1537   */\n      0x00\n        /* \"#utility.yul\":1533:1534   */\n      dup1\n        /* \"#utility.yul\":1526:1538   */\n      revert\n        /* \"#utility.yul\":1477:1540   */\n    tag_64:\n        /* \"#utility.yul\":1424:1546   */\n      pop\n      jump\t// out\n        /* \"#utility.yul\":1552:1691   */\n    tag_35:\n        /* \"#utility.yul\":1598:1603   */\n      0x00\n        /* \"#utility.yul\":1636:1642   */\n      dup2\n        /* \"#utility.yul\":1623:1643   */\n      calldataload\n        /* \"#utility.yul\":1614:1643   */\n      swap1\n      pop\n        /* \"#utility.yul\":1652:1685   */\n      tag_66\n        /* \"#utility.yul\":1679:1684   */\n      dup2\n        /* \"#utility.yul\":1652:1685   */\n      tag_34\n      jump\t// in\n    tag_66:\n        /* \"#utility.yul\":1552:1691   */\n      swap3\n      swap2\n      pop\n      pop\n      jump\t// out\n        /* \"#utility.yul\":1697:2171   */\n    tag_12:\n        /* \"#utility.yul\":1765:1771   */\n      0x00\n        /* \"#utility.yul\":1773:1779   */\n      dup1\n        /* \"#utility.yul\":1822:1824   */\n      0x40\n        /* \"#utility.yul\":1810:1819   */\n      dup4\n        /* \"#utility.yul\":1801:1808   */\n      dup6\n        /* \"#utility.yul\":1797:1820   */\n      sub\n        /* \"#utility.yul\":1793:1825   */\n      slt\n        /* \"#utility.yul\":1790:1909   */\n      iszero\n      tag_68\n      jumpi\n        /* \"#utility.yul\":1828:1907   */\n      tag_69\n      tag_27\n      jump\t// in\n    tag_69:\n        /* \"#utility.yul\":1790:1909   */\n    tag_68:\n        /* \"#utility.yul\":1948:1949   */\n      0x00\n        /* \"#utility.yul\":1973:2026   */\n      tag_70\n        /* \"#utility.yul\":2018:2025   */\n      dup6\n        /* \"#utility.yul\":2009:2015   */\n      dup3\n        /* \"#utility.yul\":1998:2007   */\n      dup7\n        /* \"#utility.yul\":1994:2016   */\n      add\n        /* \"#utility.yul\":1973:2026   */\n      tag_32\n      jump\t// in\n    tag_70:\n        /* \"#utility.yul\":1963:2026   */\n      swap3\n      pop\n        /* \"#utility.yul\":1919:2036   */\n      pop\n        /* \"#utility.yul\":2075:2077   */\n      0x20\n        /* \"#utility.yul\":2101:2154   */\n      tag_71\n        /* \"#utility.yul\":2146:2153   */\n      dup6\n        /* \"#utility.yul\":2137:2143   */\n      dup3\n        /* \"#utility.yul\":2126:2135   */\n      dup7\n        /* \"#utility.yul\":2122:2144   */\n      add\n        /* \"#utility.yul\":2101:2154   */\n      tag_35\n      jump\t// in\n    tag_71:\n        /* \"#utility.yul\":2091:2154   */\n      swap2\n      pop\n        /* \"#utility.yul\":2046:2164   */\n      pop\n        /* \"#utility.yul\":1697:2171   */\n      swap3\n      pop\n      swap3\n      swap1\n      pop\n      jump\t// out\n        /* \"#utility.yul\":2177:2294   */\n    tag_36:\n        /* \"#utility.yul\":2286:2287   */\n      0x00\n        /* \"#utility.yul\":2283:2284   */\n      dup1\n        /* \"#utility.yul\":2276:2288   */\n      revert\n        /* \"#utility.yul\":2300:2417   */\n    tag_37:\n        /* \"#utility.yul\":2409:2410   */\n      0x00\n        /* \"#utility.yul\":2406:2407   */\n      dup1\n        /* \"#utility.yul\":2399:2411   */\n      revert\n        /* \"#utility.yul\":2423:2540   */\n    tag_38:\n        /* \"#utility.yul\":2532:2533   */\n      0x00\n        /* \"#utility.yul\":2529:2530   */\n      dup1\n        /* \"#utility.yul\":2522:2534   */\n      revert\n        /* \"#utility.yul\":2563:3131   */\n    tag_39:\n        /* \"#utility.yul\":2636:2644   */\n      0x00\n        /* \"#utility.yul\":2646:2652   */\n      dup1\n        /* \"#utility.yul\":2696:2699   */\n      dup4\n        /* \"#utility.yul\":2689:2693   */\n      0x1f\n        /* \"#utility.yul\":2681:2687   */\n      dup5\n        /* \"#utility.yul\":2677:2694   */\n      add\n        /* \"#utility.yul\":2673:2700   */\n      slt\n        /* \"#utility.yul\":2663:2785   */\n      tag_76\n      jumpi\n        /* \"#utility.yul\":2704:2783   */\n      tag_77\n      tag_36\n      jump\t// in\n    tag_77:\n        /* \"#utility.yul\":2663:2785   */\n    tag_76:\n        /* \"#utility.yul\":2817:2823   */\n      dup3\n        /* \"#utility.yul\":2804:2824   */\n      calldataload\n        /* \"#utility.yul\":2794:2824   */\n      swap1\n      pop\n        /* \"#utility.yul\":2847:2865   */\n      0xffffffffffffffff\n        /* \"#utility.yul\":2839:2845   */\n      dup2\n        /* \"#utility.yul\":2836:2866   */\n      gt\n        /* \"#utility.yul\":2833:2950   */\n      iszero\n      tag_78\n      jumpi\n        /* \"#utility.yul\":2869:2948   */\n      tag_79\n      tag_37\n      jump\t// in\n    tag_79:\n        /* \"#utility.yul\":2833:2950   */\n    tag_78:\n        /* \"#utility.yul\":2983:2987   */\n      0x20\n        /* \"#utility.yul\":2975:2981   */\n      dup4\n        /* \"#utility.yul\":2971:2988   */\n      add\n        /* \"#utility.yul\":2959:2988   */\n      swap2\n      pop\n        /* \"#utility.yul\":3037:3040   */\n      dup4\n        /* \"#utility.yul\":3029:3033   */\n      0x20\n        /* \"#utility.yul\":3021:3027   */\n      dup3\n        /* \"#utility.yul\":3017:3034   */\n      mul\n        /* \"#utility.yul\":3007:3015   */\n      dup4\n        /* \"#utility.yul\":3003:3035   */\n      add\n        /* \"#utility.yul\":3000:3041   */\n      gt\n        /* \"#utility.yul\":2997:3125   */\n      iszero\n      tag_80\n      jumpi\n        /* \"#utility.yul\":3044:3123   */\n      tag_81\n      tag_38\n      jump\t// in\n    tag_81:\n        /* \"#utility.yul\":2997:3125   */\n    tag_80:\n        /* \"#utility.yul\":2563:3131   */\n      swap3\n      pop\n      swap3\n      swap1\n      pop\n      jump\t// out\n        /* \"#utility.yul\":3137:3696   */\n    tag_16:\n        /* \"#utility.yul\":3223:3229   */\n      0x00\n        /* \"#utility.yul\":3231:3237   */\n      dup1\n        /* \"#utility.yul\":3280:3282   */\n      0x20\n        /* \"#utility.yul\":3268:3277   */\n      dup4\n        /* \"#utility.yul\":3259:3266   */\n      dup6\n        /* \"#utility.yul\":3255:3278   */\n      sub\n        /* \"#utility.yul\":3251:3283   */\n      slt\n        /* \"#utility.yul\":3248:3367   */\n      iszero\n      tag_83\n      jumpi\n        /* \"#utility.yul\":3286:3365   */\n      tag_84\n      tag_27\n      jump\t// in\n    tag_84:\n        /* \"#utility.yul\":3248:3367   */\n    tag_83:\n        /* \"#utility.yul\":3434:3435   */\n      0x00\n        /* \"#utility.yul\":3423:3432   */\n      dup4\n        /* \"#utility.yul\":3419:3436   */\n      add\n        /* \"#utility.yul\":3406:3437   */\n      calldataload\n        /* \"#utility.yul\":3464:3482   */\n      0xffffffffffffffff\n        /* \"#utility.yul\":3456:3462   */\n      dup2\n        /* \"#utility.yul\":3453:3483   */\n      gt\n        /* \"#utility.yul\":3450:3567   */\n      iszero\n      tag_85\n      jumpi\n        /* \"#utility.yul\":3486:3565   */\n      tag_86\n      tag_28\n      jump\t// in\n    tag_86:\n        /* \"#utility.yul\":3450:3567   */\n    tag_85:\n        /* \"#utility.yul\":3599:3679   */\n      tag_87\n        /* \"#utility.yul\":3671:3678   */\n      dup6\n        /* \"#utility.yul\":3662:3668   */\n      dup3\n        /* \"#utility.yul\":3651:3660   */\n      dup7\n        /* \"#utility.yul\":3647:3669   */\n      add\n        /* \"#utility.yul\":3599:3679   */\n      tag_39\n      jump\t// in\n    tag_87:\n        /* \"#utility.yul\":3581:3679   */\n      swap3\n      pop\n      swap3\n      pop\n        /* \"#utility.yul\":3377:3689   */\n      pop\n        /* \"#utility.yul\":3137:3696   */\n      swap3\n      pop\n      swap3\n      swap1\n      pop\n      jump\t// out\n        /* \"#utility.yul\":3702:3870   */\n    tag_40:\n        /* \"#utility.yul\":3785:3796   */\n      0x00\n        /* \"#utility.yul\":3819:3825   */\n      dup3\n        /* \"#utility.yul\":3814:3817   */\n      dup3\n        /* \"#utility.yul\":3807:3826   */\n      mstore\n        /* \"#utility.yul\":3859:3863   */\n      0x20\n        /* \"#utility.yul\":3854:3857   */\n      dup3\n        /* \"#utility.yul\":3850:3864   */\n      add\n        /* \"#utility.yul\":3835:3864   */\n      swap1\n      pop\n        /* \"#utility.yul\":3702:3870   */\n      swap3\n      swap2\n      pop\n      pop\n      jump\t// out\n        /* \"#utility.yul\":3876:4024   */\n    tag_41:\n        /* \"#utility.yul\":3974:3980   */\n      dup3\n        /* \"#utility.yul\":3969:3972   */\n      dup2\n        /* \"#utility.yul\":3964:3967   */\n      dup4\n        /* \"#utility.yul\":3951:3981   */\n      calldatacopy\n        /* \"#utility.yul\":4015:4016   */\n      0x00\n        /* \"#utility.yul\":4006:4012   */\n      dup4\n        /* \"#utility.yul\":4001:4004   */\n      dup4\n        /* \"#utility.yul\":3997:4013   */\n      add\n        /* \"#utility.yul\":3990:4017   */\n      mstore\n        /* \"#utility.yul\":3876:4024   */\n      pop\n      pop\n      pop\n      jump\t// out\n        /* \"#utility.yul\":4030:4132   */\n    tag_42:\n        /* \"#utility.yul\":4071:4077   */\n      0x00\n        /* \"#utility.yul\":4122:4124   */\n      0x1f\n        /* \"#utility.yul\":4118:4125   */\n      not\n        /* \"#utility.yul\":4113:4115   */\n      0x1f\n        /* \"#utility.yul\":4106:4111   */\n      dup4\n        /* \"#utility.yul\":4102:4116   */\n      add\n        /* \"#utility.yul\":4098:4126   */\n      and\n        /* \"#utility.yul\":4088:4126   */\n      swap1\n      pop\n        /* \"#utility.yul\":4030:4132   */\n      swap2\n      swap1\n      pop\n      jump\t// out\n        /* \"#utility.yul\":4160:4474   */\n    tag_43:\n        /* \"#utility.yul\":4256:4259   */\n      0x00\n        /* \"#utility.yul\":4277:4347   */\n      tag_92\n        /* \"#utility.yul\":4340:4346   */\n      dup4\n        /* \"#utility.yul\":4335:4338   */\n      dup6\n        /* \"#utility.yul\":4277:4347   */\n      tag_40\n      jump\t// in\n    tag_92:\n        /* \"#utility.yul\":4270:4347   */\n      swap4\n      pop\n        /* \"#utility.yul\":4357:4413   */\n      tag_93\n        /* \"#utility.yul\":4406:4412   */\n      dup4\n        /* \"#utility.yul\":4401:4404   */\n      dup6\n        /* \"#utility.yul\":4394:4399   */\n      dup5\n        /* \"#utility.yul\":4357:4413   */\n      tag_41\n      jump\t// in\n    tag_93:\n        /* \"#utility.yul\":4438:4467   */\n      tag_94\n        /* \"#utility.yul\":4460:4466   */\n      dup4\n        /* \"#utility.yul\":4438:4467   */\n      tag_42\n      jump\t// in\n    tag_94:\n        /* \"#utility.yul\":4433:4436   */\n      dup5\n        /* \"#utility.yul\":4429:4468   */\n      add\n        /* \"#utility.yul\":4422:4468   */\n      swap1\n      pop\n        /* \"#utility.yul\":4160:4474   */\n      swap4\n      swap3\n      pop\n      pop\n      pop\n      jump\t// out\n        /* \"#utility.yul\":4480:4809   */\n    tag_21:\n        /* \"#utility.yul\":4601:4605   */\n      0x00\n        /* \"#utility.yul\":4639:4641   */\n      0x20\n        /* \"#utility.yul\":4628:4637   */\n      dup3\n        /* \"#utility.yul\":4624:4642   */\n      add\n        /* \"#utility.yul\":4616:4642   */\n      swap1\n      pop\n        /* \"#utility.yul\":4688:4697   */\n      dup2\n        /* \"#utility.yul\":4682:4686   */\n      dup2\n        /* \"#utility.yul\":4678:4698   */\n      sub\n        /* \"#utility.yul\":4674:4675   */\n      0x00\n        /* \"#utility.yul\":4663:4672   */\n      dup4\n        /* \"#utility.yul\":4659:4676   */\n      add\n        /* \"#utility.yul\":4652:4699   */\n      mstore\n        /* \"#utility.yul\":4716:4802   */\n      tag_96\n        /* \"#utility.yul\":4797:4801   */\n      dup2\n        /* \"#utility.yul\":4788:4794   */\n      dup5\n        /* \"#utility.yul\":4780:4786   */\n      dup7\n        /* \"#utility.yul\":4716:4802   */\n      tag_43\n      jump\t// in\n    tag_96:\n        /* \"#utility.yul\":4708:4802   */\n      swap1\n      pop\n        /* \"#utility.yul\":4480:4809   */\n      swap4\n      swap3\n      pop\n      pop\n      pop\n      jump\t// out\n\n    auxdata: 0xa2646970667358221220e999ab820975488fa8d6774e03a0eac28c2b4b13c1c130cb3a09030cd3948d8064736f6c634300081a0033\n}\n",
				"bytecode": {
					"linkReferences": {},
					"object": "6080604052348015600e575f80fd5b506103be8061001c5f395ff3fe608060405234801561000f575f80fd5b506004361061003f575f3560e01c8063034899bc146100435780639db0ba3914610061578063c9762ec21461007d575b5f80fd5b61004b610099565b6040516100589190610174565b60405180910390f35b61007b60048036038101906100769190610222565b6100c0565b005b610097600480360381019061009291906102c1565b6100fd565b005b5f7fa9059cbb2ab09eb219583f4a59a5d0623ade346d962bcd4e46b11da047c9049b905090565b7fafabcf2dd47e06a477a89e49c03f8ebe8e0a7e94f775b25bbb24227c9d0110b25f366040516100f1929190610366565b60405180910390a15050565b7fafabcf2dd47e06a477a89e49c03f8ebe8e0a7e94f775b25bbb24227c9d0110b25f3660405161012e929190610366565b60405180910390a15050565b5f7fffffffff0000000000000000000000000000000000000000000000000000000082169050919050565b61016e8161013a565b82525050565b5f6020820190506101875f830184610165565b92915050565b5f80fd5b5f80fd5b5f73ffffffffffffffffffffffffffffffffffffffff82169050919050565b5f6101be82610195565b9050919050565b6101ce816101b4565b81146101d8575f80fd5b50565b5f813590506101e9816101c5565b92915050565b5f819050919050565b610201816101ef565b811461020b575f80fd5b50565b5f8135905061021c816101f8565b92915050565b5f80604083850312156102385761023761018d565b5b5f610245858286016101db565b92505060206102568582860161020e565b9150509250929050565b5f80fd5b5f80fd5b5f80fd5b5f8083601f84011261028157610280610260565b5b8235905067ffffffffffffffff81111561029e5761029d610264565b5b6020830191508360208202830111156102ba576102b9610268565b5b9250929050565b5f80602083850312156102d7576102d661018d565b5b5f83013567ffffffffffffffff8111156102f4576102f3610191565b5b6103008582860161026c565b92509250509250929050565b5f82825260208201905092915050565b828183375f83830152505050565b5f601f19601f8301169050919050565b5f610345838561030c565b935061035283858461031c565b61035b8361032a565b840190509392505050565b5f6020820190508181035f83015261037f81848661033a565b9050939250505056fea2646970667358221220e999ab820975488fa8d6774e03a0eac28c2b4b13c1c130cb3a09030cd3948d8064736f6c634300081a0033",
					"opcodes": "PUSH1 0x80 PUSH1 0x40 MSTORE CALLVALUE DUP1 ISZERO PUSH1 0xE JUMPI PUSH0 DUP1 REVERT JUMPDEST POP PUSH2 0x3BE DUP1 PUSH2 0x1C PUSH0 CODECOPY PUSH0 RETURN INVALID PUSH1 0x80 PUSH1 0x40 MSTORE CALLVALUE DUP1 ISZERO PUSH2 0xF JUMPI PUSH0 DUP1 REVERT JUMPDEST POP PUSH1 0x4 CALLDATASIZE LT PUSH2 0x3F JUMPI PUSH0 CALLDATALOAD PUSH1 0xE0 SHR DUP1 PUSH4 0x34899BC EQ PUSH2 0x43 JUMPI DUP1 PUSH4 0x9DB0BA39 EQ PUSH2 0x61 JUMPI DUP1 PUSH4 0xC9762EC2 EQ PUSH2 0x7D JUMPI JUMPDEST PUSH0 DUP1 REVERT JUMPDEST PUSH2 0x4B PUSH2 0x99 JUMP JUMPDEST PUSH1 0x40 MLOAD PUSH2 0x58 SWAP2 SWAP1 PUSH2 0x174 JUMP JUMPDEST PUSH1 0x40 MLOAD DUP1 SWAP2 SUB SWAP1 RETURN JUMPDEST PUSH2 0x7B PUSH1 0x4 DUP1 CALLDATASIZE SUB DUP2 ADD SWAP1 PUSH2 0x76 SWAP2 SWAP1 PUSH2 0x222 JUMP JUMPDEST PUSH2 0xC0 JUMP JUMPDEST STOP JUMPDEST PUSH2 0x97 PUSH1 0x4 DUP1 CALLDATASIZE SUB DUP2 ADD SWAP1 PUSH2 0x92 SWAP2 SWAP1 PUSH2 0x2C1 JUMP JUMPDEST PUSH2 0xFD JUMP JUMPDEST STOP JUMPDEST PUSH0 PUSH32 0xA9059CBB2AB09EB219583F4A59A5D0623ADE346D962BCD4E46B11DA047C9049B SWAP1 POP SWAP1 JUMP JUMPDEST PUSH32 0xAFABCF2DD47E06A477A89E49C03F8EBE8E0A7E94F775B25BBB24227C9D0110B2 PUSH0 CALLDATASIZE PUSH1 0x40 MLOAD PUSH2 0xF1 SWAP3 SWAP2 SWAP1 PUSH2 0x366 JUMP JUMPDEST PUSH1 0x40 MLOAD DUP1 SWAP2 SUB SWAP1 LOG1 POP POP JUMP JUMPDEST PUSH32 0xAFABCF2DD47E06A477A89E49C03F8EBE8E0A7E94F775B25BBB24227C9D0110B2 PUSH0 CALLDATASIZE PUSH1 0x40 MLOAD PUSH2 0x12E SWAP3 SWAP2 SWAP1 PUSH2 0x366 JUMP JUMPDEST PUSH1 0x40 MLOAD DUP1 SWAP2 SUB SWAP1 LOG1 POP POP JUMP JUMPDEST PUSH0 PUSH32 0xFFFFFFFF00000000000000000000000000000000000000000000000000000000 DUP3 AND SWAP1 POP SWAP2 SWAP1 POP JUMP JUMPDEST PUSH2 0x16E DUP2 PUSH2 0x13A JUMP JUMPDEST DUP3 MSTORE POP POP JUMP JUMPDEST PUSH0 PUSH1 0x20 DUP3 ADD SWAP1 POP PUSH2 0x187 PUSH0 DUP4 ADD DUP5 PUSH2 0x165 JUMP JUMPDEST SWAP3 SWAP2 POP POP JUMP JUMPDEST PUSH0 DUP1 REVERT JUMPDEST PUSH0 DUP1 REVERT JUMPDEST PUSH0 PUSH20 0xFFFFFFFFFFFFFFFFFFFFFFFFFFFFFFFFFFFFFFFF DUP3 AND SWAP1 POP SWAP2 SWAP1 POP JUMP JUMPDEST PUSH0 PUSH2 0x1BE DUP3 PUSH2 0x195 JUMP JUMPDEST SWAP1 POP SWAP2 SWAP1 POP JUMP JUMPDEST PUSH2 0x1CE DUP2 PUSH2 0x1B4 JUMP JUMPDEST DUP2 EQ PUSH2 0x1D8 JUMPI PUSH0 DUP1 REVERT JUMPDEST POP JUMP JUMPDEST PUSH0 DUP2 CALLDATALOAD SWAP1 POP PUSH2 0x1E9 DUP2 PUSH2 0x1C5 JUMP JUMPDEST SWAP3 SWAP2 POP POP JUMP JUMPDEST PUSH0 DUP2 SWAP1 POP SWAP2 SWAP1 POP JUMP JUMPDEST PUSH2 0x201 DUP2 PUSH2 0x1EF JUMP JUMPDEST DUP2 EQ PUSH2 0x20B JUMPI PUSH0 DUP1 REVERT JUMPDEST POP JUMP JUMPDEST PUSH0 DUP2 CALLDATALOAD SWAP1 POP PUSH2 0x21C DUP2 PUSH2 0x1F8 JUMP JUMPDEST SWAP3 SWAP2 POP POP JUMP JUMPDEST PUSH0 DUP1 PUSH1 0x40 DUP4 DUP6 SUB SLT ISZERO PUSH2 0x238 JUMPI PUSH2 0x237 PUSH2 0x18D JUMP JUMPDEST JUMPDEST PUSH0 PUSH2 0x245 DUP6 DUP3 DUP7 ADD PUSH2 0x1DB JUMP JUMPDEST SWAP3 POP POP PUSH1 0x20 PUSH2 0x256 DUP6 DUP3 DUP7 ADD PUSH2 0x20E JUMP JUMPDEST SWAP2 POP POP SWAP3 POP SWAP3 SWAP1 POP JUMP JUMPDEST PUSH0 DUP1 REVERT JUMPDEST PUSH0 DUP1 REVERT JUMPDEST PUSH0 DUP1 REVERT JUMPDEST PUSH0 DUP1 DUP4 PUSH1 0x1F DUP5 ADD SLT PUSH2 0x281 JUMPI PUSH2 0x280 PUSH2 0x260 JUMP JUMPDEST JUMPDEST DUP3 CALLDATALOAD SWAP1 POP PUSH8 0xFFFFFFFFFFFFFFFF DUP2 GT ISZERO PUSH2 0x29E JUMPI PUSH2 0x29D PUSH2 0x264 JUMP JUMPDEST JUMPDEST PUSH1 0x20 DUP4 ADD SWAP2 POP DUP4 PUSH1 0x20 DUP3 MUL DUP4 ADD GT ISZERO PUSH2 0x2BA JUMPI PUSH2 0x2B9 PUSH2 0x268 JUMP JUMPDEST JUMPDEST SWAP3 POP SWAP3 SWAP1 POP JUMP JUMPDEST PUSH0 DUP1 PUSH1 0x20 DUP4 DUP6 SUB SLT ISZERO PUSH2 0x2D7 JUMPI PUSH2 0x2D6 PUSH2 0x18D JUMP JUMPDEST JUMPDEST PUSH0 DUP4 ADD CALLDATALOAD PUSH8 0xFFFFFFFFFFFFFFFF DUP2 GT ISZERO PUSH2 0x2F4 JUMPI PUSH2 0x2F3 PUSH2 0x191 JUMP JUMPDEST JUMPDEST PUSH2 0x300 DUP6 DUP3 DUP7 ADD PUSH2 0x26C JUMP JUMPDEST SWAP3 POP SWAP3 POP POP SWAP3 POP SWAP3 SWAP1 POP JUMP JUMPDEST PUSH0 DUP3 DUP3 MSTORE PUSH1 0x20 DUP3 ADD SWAP1 POP SWAP3 SWAP2 POP POP JUMP JUMPDEST DUP3 DUP2 DUP4 CALLDATACOPY PUSH0 DUP4 DUP4 ADD MSTORE POP POP POP JUMP JUMPDEST PUSH0 PUSH1 0x1F NOT PUSH1 0x1F DUP4 ADD AND SWAP1 POP SWAP2 SWAP1 POP JUMP JUMPDEST PUSH0 PUSH2 0x345 DUP4 DUP6 PUSH2 0x30C JUMP JUMPDEST SWAP4 POP PUSH2 0x352 DUP4 DUP6 DUP5 PUSH2 0x31C JUMP JUMPDEST PUSH2 0x35B DUP4 PUSH2 0x32A JUMP JUMPDEST DUP5 ADD SWAP1 POP SWAP4 SWAP3 POP POP POP JUMP JUMPDEST PUSH0 PUSH1 0x20 DUP3 ADD SWAP1 POP DUP2 DUP2 SUB PUSH0 DUP4 ADD MSTORE PUSH2 0x37F DUP2 DUP5 DUP7 PUSH2 0x33A JUMP JUMPDEST SWAP1 POP SWAP4 SWAP3 POP POP POP JUMP INVALID LOG2 PUSH5 0x6970667358 0x22 SLT KECCAK256 0xE9 SWAP10 0xAB DUP3 MULMOD PUSH22 0x488FA8D6774E03A0EAC28C2B4B13C1C130CB3A09030C 0xD3 SWAP5 DUP14 DUP1 PUSH5 0x736F6C6343 STOP ADDMOD BYTE STOP CALLER "
				},
				"gasEstimates": {
					"creation": {
						"codeDepositCost": "191600",
						"executionCost": "230",
						"totalCost": "191830"
					},
					"external": {
						"getSelector()": "316",
						"receiver(address,uint256)": "infinite",
						"sumIfEvenAndLessThan99(uint256[])": "infinite"
					}
				},
				"methodIdentifiers": {
					"getSelector()": "034899bc",
					"receiver(address,uint256)": "9db0ba39",
					"sumIfEvenAndLessThan99(uint256[])": "c9762ec2"
				}
			},
			"storageLayout": {
				"storage": [],
				"types": null
			},
			"userdoc": {
				"kind": "user",
				"methods": {},
				"version": 1
			}
		}
	}
}