{
	"contracts/CrowdFund.sol": {
		"CrowdFund": {
			"abi": [
				{
					"inputs": [
						{
							"internalType": "address",
							"name": "_token",
							"type": "address"
						}
					],
					"stateMutability": "nonpayable",
					"type": "constructor"
				},
				{
					"anonymous": false,
					"inputs": [
						{
							"indexed": false,
							"internalType": "uint256",
							"name": "id",
							"type": "uint256"
						}
					],
					"name": "Cancel",
					"type": "event"
				},
				{
					"anonymous": false,
					"inputs": [
						{
							"indexed": false,
							"internalType": "uint256",
							"name": "id",
							"type": "uint256"
						}
					],
					"name": "Claim",
					"type": "event"
				},
				{
					"anonymous": false,
					"inputs": [
						{
							"indexed": true,
							"internalType": "uint256",
							"name": "id",
							"type": "uint256"
						},
						{
							"indexed": true,
							"internalType": "address",
							"name": "creator",
							"type": "address"
						},
						{
							"indexed": false,
							"internalType": "uint256",
							"name": "goal",
							"type": "uint256"
						},
						{
							"indexed": false,
							"internalType": "uint32",
							"name": "startAt",
							"type": "uint32"
						},
						{
							"indexed": false,
							"internalType": "uint32",
							"name": "endAt",
							"type": "uint32"
						}
					],
					"name": "Lauch",
					"type": "event"
				},
				{
					"anonymous": false,
					"inputs": [
						{
							"indexed": true,
							"internalType": "uint256",
							"name": "id",
							"type": "uint256"
						},
						{
							"indexed": true,
							"internalType": "address",
							"name": "pledger",
							"type": "address"
						},
						{
							"indexed": false,
							"internalType": "uint256",
							"name": "amount",
							"type": "uint256"
						}
					],
					"name": "Pledge",
					"type": "event"
				},
				{
					"anonymous": false,
					"inputs": [
						{
							"indexed": true,
							"internalType": "uint256",
							"name": "id",
							"type": "uint256"
						},
						{
							"indexed": true,
							"internalType": "address",
							"name": "refunder",
							"type": "address"
						},
						{
							"indexed": false,
							"internalType": "uint256",
							"name": "amount",
							"type": "uint256"
						}
					],
					"name": "Refund",
					"type": "event"
				},
				{
					"anonymous": false,
					"inputs": [
						{
							"indexed": true,
							"internalType": "uint256",
							"name": "id",
							"type": "uint256"
						},
						{
							"indexed": true,
							"internalType": "address",
							"name": "pledger",
							"type": "address"
						},
						{
							"indexed": false,
							"internalType": "uint256",
							"name": "amount",
							"type": "uint256"
						}
					],
					"name": "UnPledge",
					"type": "event"
				},
				{
					"inputs": [
						{
							"internalType": "uint256",
							"name": "_id",
							"type": "uint256"
						}
					],
					"name": "cancel",
					"outputs": [],
					"stateMutability": "nonpayable",
					"type": "function"
				},
				{
					"inputs": [
						{
							"internalType": "uint256",
							"name": "_id",
							"type": "uint256"
						}
					],
					"name": "claim",
					"outputs": [],
					"stateMutability": "nonpayable",
					"type": "function"
				},
				{
					"inputs": [
						{
							"internalType": "uint256",
							"name": "",
							"type": "uint256"
						}
					],
					"name": "compaigns",
					"outputs": [
						{
							"internalType": "address",
							"name": "creator",
							"type": "address"
						},
						{
							"internalType": "uint32",
							"name": "startAt",
							"type": "uint32"
						},
						{
							"internalType": "uint32",
							"name": "endAt",
							"type": "uint32"
						},
						{
							"internalType": "uint256",
							"name": "goal",
							"type": "uint256"
						},
						{
							"internalType": "uint256",
							"name": "pledged",
							"type": "uint256"
						},
						{
							"internalType": "bool",
							"name": "claimed",
							"type": "bool"
						}
					],
					"stateMutability": "view",
					"type": "function"
				},
				{
					"inputs": [],
					"name": "idGenerator",
					"outputs": [
						{
							"internalType": "uint256",
							"name": "",
							"type": "uint256"
						}
					],
					"stateMutability": "view",
					"type": "function"
				},
				{
					"inputs": [
						{
							"internalType": "uint32",
							"name": "_startAt",
							"type": "uint32"
						},
						{
							"internalType": "uint32",
							"name": "_endAt",
							"type": "uint32"
						},
						{
							"internalType": "uint256",
							"name": "_goal",
							"type": "uint256"
						}
					],
					"name": "lauch",
					"outputs": [],
					"stateMutability": "nonpayable",
					"type": "function"
				},
				{
					"inputs": [
						{
							"internalType": "uint256",
							"name": "_id",
							"type": "uint256"
						},
						{
							"internalType": "uint256",
							"name": "_amount",
							"type": "uint256"
						}
					],
					"name": "pledge",
					"outputs": [],
					"stateMutability": "nonpayable",
					"type": "function"
				},
				{
					"inputs": [
						{
							"internalType": "uint256",
							"name": "",
							"type": "uint256"
						},
						{
							"internalType": "address",
							"name": "",
							"type": "address"
						}
					],
					"name": "pledgedAmount",
					"outputs": [
						{
							"internalType": "uint256",
							"name": "",
							"type": "uint256"
						}
					],
					"stateMutability": "view",
					"type": "function"
				},
				{
					"inputs": [
						{
							"internalType": "uint256",
							"name": "_id",
							"type": "uint256"
						}
					],
					"name": "refund",
					"outputs": [],
					"stateMutability": "nonpayable",
					"type": "function"
				},
				{
					"inputs": [],
					"name": "token",
					"outputs": [
						{
							"internalType": "contract IERC20",
							"name": "",
							"type": "address"
						}
					],
					"stateMutability": "view",
					"type": "function"
				},
				{
					"inputs": [
						{
							"internalType": "uint256",
							"name": "_id",
							"type": "uint256"
						},
						{
							"internalType": "uint256",
							"name": "_amount",
							"type": "uint256"
						}
					],
					"name": "unpledge",
					"outputs": [],
					"stateMutability": "nonpayable",
					"type": "function"
				}
			],
			"devdoc": {
				"kind": "dev",
				"methods": {},
				"version": 1
			},
			"evm": {
				"assembly": "    /* \"contracts/CrowdFund.sol\":263:3972  contract CrowdFund {... */\n  mstore(0x40, 0xa0)\n    /* \"contracts/CrowdFund.sol\":1133:1202  constructor(address _token) {... */\n  callvalue\n  dup1\n  iszero\n  tag_1\n  jumpi\n  0x00\n  dup1\n  revert\ntag_1:\n  pop\n  mload(0x40)\n  sub(codesize, bytecodeSize)\n  dup1\n  bytecodeSize\n  dup4\n  codecopy\n  dup2\n  dup2\n  add\n  0x40\n  mstore\n  dup2\n  add\n  swap1\n  tag_2\n  swap2\n  swap1\n  tag_3\n  jump\t// in\ntag_2:\n    /* \"contracts/CrowdFund.sol\":1187:1193  _token */\n  dup1\n    /* \"contracts/CrowdFund.sol\":1172:1194  token = IERC20(_token) */\n  0xffffffffffffffffffffffffffffffffffffffff\n  and\n  0x80\n  dup2\n  0xffffffffffffffffffffffffffffffffffffffff\n  and\n  dup2\n  mstore\n  pop\n  pop\n    /* \"contracts/CrowdFund.sol\":1133:1202  constructor(address _token) {... */\n  pop\n    /* \"contracts/CrowdFund.sol\":263:3972  contract CrowdFund {... */\n  jump(tag_6)\n    /* \"#utility.yul\":88:205   */\ntag_8:\n    /* \"#utility.yul\":197:198   */\n  0x00\n    /* \"#utility.yul\":194:195   */\n  dup1\n    /* \"#utility.yul\":187:199   */\n  revert\n    /* \"#utility.yul\":334:460   */\ntag_10:\n    /* \"#utility.yul\":371:378   */\n  0x00\n    /* \"#utility.yul\":411:453   */\n  0xffffffffffffffffffffffffffffffffffffffff\n    /* \"#utility.yul\":404:409   */\n  dup3\n    /* \"#utility.yul\":400:454   */\n  and\n    /* \"#utility.yul\":389:454   */\n  swap1\n  pop\n    /* \"#utility.yul\":334:460   */\n  swap2\n  swap1\n  pop\n  jump\t// out\n    /* \"#utility.yul\":466:562   */\ntag_11:\n    /* \"#utility.yul\":503:510   */\n  0x00\n    /* \"#utility.yul\":532:556   */\n  tag_20\n    /* \"#utility.yul\":550:555   */\n  dup3\n    /* \"#utility.yul\":532:556   */\n  tag_10\n  jump\t// in\ntag_20:\n    /* \"#utility.yul\":521:556   */\n  swap1\n  pop\n    /* \"#utility.yul\":466:562   */\n  swap2\n  swap1\n  pop\n  jump\t// out\n    /* \"#utility.yul\":568:690   */\ntag_12:\n    /* \"#utility.yul\":641:665   */\n  tag_22\n    /* \"#utility.yul\":659:664   */\n  dup2\n    /* \"#utility.yul\":641:665   */\n  tag_11\n  jump\t// in\ntag_22:\n    /* \"#utility.yul\":634:639   */\n  dup2\n    /* \"#utility.yul\":631:666   */\n  eq\n    /* \"#utility.yul\":621:684   */\n  tag_23\n  jumpi\n    /* \"#utility.yul\":680:681   */\n  0x00\n    /* \"#utility.yul\":677:678   */\n  dup1\n    /* \"#utility.yul\":670:682   */\n  revert\n    /* \"#utility.yul\":621:684   */\ntag_23:\n    /* \"#utility.yul\":568:690   */\n  pop\n  jump\t// out\n    /* \"#utility.yul\":696:839   */\ntag_13:\n    /* \"#utility.yul\":753:758   */\n  0x00\n    /* \"#utility.yul\":784:790   */\n  dup2\n    /* \"#utility.yul\":778:791   */\n  mload\n    /* \"#utility.yul\":769:791   */\n  swap1\n  pop\n    /* \"#utility.yul\":800:833   */\n  tag_25\n    /* \"#utility.yul\":827:832   */\n  dup2\n    /* \"#utility.yul\":800:833   */\n  tag_12\n  jump\t// in\ntag_25:\n    /* \"#utility.yul\":696:839   */\n  swap3\n  swap2\n  pop\n  pop\n  jump\t// out\n    /* \"#utility.yul\":845:1196   */\ntag_3:\n    /* \"#utility.yul\":915:921   */\n  0x00\n    /* \"#utility.yul\":964:966   */\n  0x20\n    /* \"#utility.yul\":952:961   */\n  dup3\n    /* \"#utility.yul\":943:950   */\n  dup5\n    /* \"#utility.yul\":939:962   */\n  sub\n    /* \"#utility.yul\":935:967   */\n  slt\n    /* \"#utility.yul\":932:1051   */\n  iszero\n  tag_27\n  jumpi\n    /* \"#utility.yul\":970:1049   */\n  tag_28\n  tag_8\n  jump\t// in\ntag_28:\n    /* \"#utility.yul\":932:1051   */\ntag_27:\n    /* \"#utility.yul\":1090:1091   */\n  0x00\n    /* \"#utility.yul\":1115:1179   */\n  tag_29\n    /* \"#utility.yul\":1171:1178   */\n  dup5\n    /* \"#utility.yul\":1162:1168   */\n  dup3\n    /* \"#utility.yul\":1151:1160   */\n  dup6\n    /* \"#utility.yul\":1147:1169   */\n  add\n    /* \"#utility.yul\":1115:1179   */\n  tag_13\n  jump\t// in\ntag_29:\n    /* \"#utility.yul\":1105:1179   */\n  swap2\n  pop\n    /* \"#utility.yul\":1061:1189   */\n  pop\n    /* \"#utility.yul\":845:1196   */\n  swap3\n  swap2\n  pop\n  pop\n  jump\t// out\n    /* \"contracts/CrowdFund.sol\":263:3972  contract CrowdFund {... */\ntag_6:\n  mload(0x80)\n  codecopy(0x00, dataOffset(sub_0), dataSize(sub_0))\n  0x00\n  assignImmutable(\"0xab20a672b3c5d5f71a8da6c43d4bf580ed35b623d6b0366b1de9df7e12238080\")\n  return(0x00, dataSize(sub_0))\nstop\n\nsub_0: assembly {\n        /* \"contracts/CrowdFund.sol\":263:3972  contract CrowdFund {... */\n      mstore(0x40, 0x80)\n      callvalue\n      dup1\n      iszero\n      tag_1\n      jumpi\n      0x00\n      dup1\n      revert\n    tag_1:\n      pop\n      jumpi(tag_2, lt(calldatasize, 0x04))\n      shr(0xe0, calldataload(0x00))\n      dup1\n      0xbefc98a9\n      gt\n      tag_13\n      jumpi\n      dup1\n      0xbefc98a9\n      eq\n      tag_8\n      jumpi\n      dup1\n      0xcbc261d7\n      eq\n      tag_9\n      jumpi\n      dup1\n      0xe7bd92b9\n      eq\n      tag_10\n      jumpi\n      dup1\n      0xfc0c546a\n      eq\n      tag_11\n      jumpi\n      dup1\n      0xfde327be\n      eq\n      tag_12\n      jumpi\n      jump(tag_2)\n    tag_13:\n      dup1\n      0x278ecde1\n      eq\n      tag_3\n      jumpi\n      dup1\n      0x379607f5\n      eq\n      tag_4\n      jumpi\n      dup1\n      0x40e58ee5\n      eq\n      tag_5\n      jumpi\n      dup1\n      0x711853ab\n      eq\n      tag_6\n      jumpi\n      dup1\n      0xaa4fb63a\n      eq\n      tag_7\n      jumpi\n    tag_2:\n      0x00\n      dup1\n      revert\n        /* \"contracts/CrowdFund.sol\":3529:3959  function refund(uint _id) external {... */\n    tag_3:\n      tag_14\n      0x04\n      dup1\n      calldatasize\n      sub\n      dup2\n      add\n      swap1\n      tag_15\n      swap2\n      swap1\n      tag_16\n      jump\t// in\n    tag_15:\n      tag_17\n      jump\t// in\n    tag_14:\n      stop\n        /* \"contracts/CrowdFund.sol\":3012:3472  function claim(uint _id) external {... */\n    tag_4:\n      tag_18\n      0x04\n      dup1\n      calldatasize\n      sub\n      dup2\n      add\n      swap1\n      tag_19\n      swap2\n      swap1\n      tag_16\n      jump\t// in\n    tag_19:\n      tag_20\n      jump\t// in\n    tag_18:\n      stop\n        /* \"contracts/CrowdFund.sol\":1799:2088  function cancel(uint _id) external {... */\n    tag_5:\n      tag_21\n      0x04\n      dup1\n      calldatasize\n      sub\n      dup2\n      add\n      swap1\n      tag_22\n      swap2\n      swap1\n      tag_16\n      jump\t// in\n    tag_22:\n      tag_23\n      jump\t// in\n    tag_21:\n      stop\n        /* \"contracts/CrowdFund.sol\":2569:3004  function unpledge(uint _id,uint _amount) external {... */\n    tag_6:\n      tag_24\n      0x04\n      dup1\n      calldatasize\n      sub\n      dup2\n      add\n      swap1\n      tag_25\n      swap2\n      swap1\n      tag_26\n      jump\t// in\n    tag_25:\n      tag_27\n      jump\t// in\n    tag_24:\n      stop\n        /* \"contracts/CrowdFund.sol\":1066:1124  mapping(uint=>mapping(address=>uint)) public pledgedAmount */\n    tag_7:\n      tag_28\n      0x04\n      dup1\n      calldatasize\n      sub\n      dup2\n      add\n      swap1\n      tag_29\n      swap2\n      swap1\n      tag_30\n      jump\t// in\n    tag_29:\n      tag_31\n      jump\t// in\n    tag_28:\n      mload(0x40)\n      tag_32\n      swap2\n      swap1\n      tag_33\n      jump\t// in\n    tag_32:\n      mload(0x40)\n      dup1\n      swap2\n      sub\n      swap1\n      return\n        /* \"contracts/CrowdFund.sol\":1210:1791  function lauch(uint32 _startAt,uint32 _endAt,uint _goal) external {... */\n    tag_8:\n      tag_34\n      0x04\n      dup1\n      calldatasize\n      sub\n      dup2\n      add\n      swap1\n      tag_35\n      swap2\n      swap1\n      tag_36\n      jump\t// in\n    tag_35:\n      tag_37\n      jump\t// in\n    tag_34:\n      stop\n        /* \"contracts/CrowdFund.sol\":977:1017  mapping(uint=>Compaign) public compaigns */\n    tag_9:\n      tag_38\n      0x04\n      dup1\n      calldatasize\n      sub\n      dup2\n      add\n      swap1\n      tag_39\n      swap2\n      swap1\n      tag_16\n      jump\t// in\n    tag_39:\n      tag_40\n      jump\t// in\n    tag_38:\n      mload(0x40)\n      tag_41\n      swap7\n      swap6\n      swap5\n      swap4\n      swap3\n      swap2\n      swap1\n      tag_42\n      jump\t// in\n    tag_41:\n      mload(0x40)\n      dup1\n      swap2\n      sub\n      swap1\n      return\n        /* \"contracts/CrowdFund.sol\":662:685  uint public idGenerator */\n    tag_10:\n      tag_43\n      tag_44\n      jump\t// in\n    tag_43:\n      mload(0x40)\n      tag_45\n      swap2\n      swap1\n      tag_33\n      jump\t// in\n    tag_45:\n      mload(0x40)\n      dup1\n      swap2\n      sub\n      swap1\n      return\n        /* \"contracts/CrowdFund.sol\":916:945  IERC20 immutable public token */\n    tag_11:\n      tag_46\n      tag_47\n      jump\t// in\n    tag_46:\n      mload(0x40)\n      tag_48\n      swap2\n      swap1\n      tag_49\n      jump\t// in\n    tag_48:\n      mload(0x40)\n      dup1\n      swap2\n      sub\n      swap1\n      return\n        /* \"contracts/CrowdFund.sol\":2096:2561  function pledge(uint _id,uint _amount) external {... */\n    tag_12:\n      tag_50\n      0x04\n      dup1\n      calldatasize\n      sub\n      dup2\n      add\n      swap1\n      tag_51\n      swap2\n      swap1\n      tag_26\n      jump\t// in\n    tag_51:\n      tag_52\n      jump\t// in\n    tag_50:\n      stop\n        /* \"contracts/CrowdFund.sol\":3529:3959  function refund(uint _id) external {... */\n    tag_17:\n        /* \"contracts/CrowdFund.sol\":3575:3599  Compaign memory compaign */\n      0x00\n        /* \"contracts/CrowdFund.sol\":3603:3612  compaigns */\n      0x01\n        /* \"contracts/CrowdFund.sol\":3603:3617  compaigns[_id] */\n      0x00\n        /* \"contracts/CrowdFund.sol\":3613:3616  _id */\n      dup4\n        /* \"contracts/CrowdFund.sol\":3603:3617  compaigns[_id] */\n      dup2\n      mstore\n      0x20\n      add\n      swap1\n      dup2\n      mstore\n      0x20\n      add\n      0x00\n      keccak256\n        /* \"contracts/CrowdFund.sol\":3575:3617  Compaign memory compaign =  compaigns[_id] */\n      mload(0x40)\n      dup1\n      0xc0\n      add\n      0x40\n      mstore\n      swap1\n      dup2\n      0x00\n      dup3\n      add\n      0x00\n      swap1\n      sload\n      swap1\n      0x0100\n      exp\n      swap1\n      div\n      0xffffffffffffffffffffffffffffffffffffffff\n      and\n      0xffffffffffffffffffffffffffffffffffffffff\n      and\n      0xffffffffffffffffffffffffffffffffffffffff\n      and\n      dup2\n      mstore\n      0x20\n      add\n      0x00\n      dup3\n      add\n      0x14\n      swap1\n      sload\n      swap1\n      0x0100\n      exp\n      swap1\n      div\n      0xffffffff\n      and\n      0xffffffff\n      and\n      0xffffffff\n      and\n      dup2\n      mstore\n      0x20\n      add\n      0x00\n      dup3\n      add\n      0x18\n      swap1\n      sload\n      swap1\n      0x0100\n      exp\n      swap1\n      div\n      0xffffffff\n      and\n      0xffffffff\n      and\n      0xffffffff\n      and\n      dup2\n      mstore\n      0x20\n      add\n      0x01\n      dup3\n      add\n      sload\n      dup2\n      mstore\n      0x20\n      add\n      0x02\n      dup3\n      add\n      sload\n      dup2\n      mstore\n      0x20\n      add\n      0x03\n      dup3\n      add\n      0x00\n      swap1\n      sload\n      swap1\n      0x0100\n      exp\n      swap1\n      div\n      0xff\n      and\n      iszero\n      iszero\n      iszero\n      iszero\n      dup2\n      mstore\n      pop\n      pop\n      swap1\n      pop\n        /* \"contracts/CrowdFund.sol\":3655:3663  compaign */\n      dup1\n        /* \"contracts/CrowdFund.sol\":3655:3669  compaign.endAt */\n      0x40\n      add\n      mload\n        /* \"contracts/CrowdFund.sol\":3636:3669  block.timestamp >= compaign.endAt */\n      0xffffffff\n      and\n        /* \"contracts/CrowdFund.sol\":3636:3651  block.timestamp */\n      timestamp\n        /* \"contracts/CrowdFund.sol\":3636:3669  block.timestamp >= compaign.endAt */\n      lt\n      iszero\n        /* \"contracts/CrowdFund.sol\":3628:3680  require(block.timestamp >= compaign.endAt,\"not end\") */\n      tag_54\n      jumpi\n      mload(0x40)\n      0x08c379a000000000000000000000000000000000000000000000000000000000\n      dup2\n      mstore\n      0x04\n      add\n      tag_55\n      swap1\n      tag_56\n      jump\t// in\n    tag_55:\n      mload(0x40)\n      dup1\n      swap2\n      sub\n      swap1\n      revert\n    tag_54:\n        /* \"contracts/CrowdFund.sol\":3718:3726  compaign */\n      dup1\n        /* \"contracts/CrowdFund.sol\":3718:3731  compaign.goal */\n      0x60\n      add\n      mload\n        /* \"contracts/CrowdFund.sol\":3699:3707  compaign */\n      dup2\n        /* \"contracts/CrowdFund.sol\":3699:3715  compaign.pledged */\n      0x80\n      add\n      mload\n        /* \"contracts/CrowdFund.sol\":3699:3731  compaign.pledged < compaign.goal */\n      lt\n        /* \"contracts/CrowdFund.sol\":3691:3747  require(compaign.pledged < compaign.goal,\"goal success\") */\n      tag_57\n      jumpi\n      mload(0x40)\n      0x08c379a000000000000000000000000000000000000000000000000000000000\n      dup2\n      mstore\n      0x04\n      add\n      tag_58\n      swap1\n      tag_59\n      jump\t// in\n    tag_58:\n      mload(0x40)\n      dup1\n      swap2\n      sub\n      swap1\n      revert\n    tag_57:\n        /* \"contracts/CrowdFund.sol\":3760:3774  uint refundVal */\n      0x00\n        /* \"contracts/CrowdFund.sol\":3777:3790  pledgedAmount */\n      0x02\n        /* \"contracts/CrowdFund.sol\":3777:3795  pledgedAmount[_id] */\n      0x00\n        /* \"contracts/CrowdFund.sol\":3791:3794  _id */\n      dup5\n        /* \"contracts/CrowdFund.sol\":3777:3795  pledgedAmount[_id] */\n      dup2\n      mstore\n      0x20\n      add\n      swap1\n      dup2\n      mstore\n      0x20\n      add\n      0x00\n      keccak256\n        /* \"contracts/CrowdFund.sol\":3777:3807  pledgedAmount[_id][msg.sender] */\n      0x00\n        /* \"contracts/CrowdFund.sol\":3796:3806  msg.sender */\n      caller\n        /* \"contracts/CrowdFund.sol\":3777:3807  pledgedAmount[_id][msg.sender] */\n      0xffffffffffffffffffffffffffffffffffffffff\n      and\n      0xffffffffffffffffffffffffffffffffffffffff\n      and\n      dup2\n      mstore\n      0x20\n      add\n      swap1\n      dup2\n      mstore\n      0x20\n      add\n      0x00\n      keccak256\n      sload\n        /* \"contracts/CrowdFund.sol\":3760:3807  uint refundVal = pledgedAmount[_id][msg.sender] */\n      swap1\n      pop\n        /* \"contracts/CrowdFund.sol\":3851:3852  0 */\n      0x00\n        /* \"contracts/CrowdFund.sol\":3818:3831  pledgedAmount */\n      0x02\n        /* \"contracts/CrowdFund.sol\":3818:3836  pledgedAmount[_id] */\n      0x00\n        /* \"contracts/CrowdFund.sol\":3832:3835  _id */\n      dup6\n        /* \"contracts/CrowdFund.sol\":3818:3836  pledgedAmount[_id] */\n      dup2\n      mstore\n      0x20\n      add\n      swap1\n      dup2\n      mstore\n      0x20\n      add\n      0x00\n      keccak256\n        /* \"contracts/CrowdFund.sol\":3818:3848  pledgedAmount[_id][msg.sender] */\n      0x00\n        /* \"contracts/CrowdFund.sol\":3837:3847  msg.sender */\n      caller\n        /* \"contracts/CrowdFund.sol\":3818:3848  pledgedAmount[_id][msg.sender] */\n      0xffffffffffffffffffffffffffffffffffffffff\n      and\n      0xffffffffffffffffffffffffffffffffffffffff\n      and\n      dup2\n      mstore\n      0x20\n      add\n      swap1\n      dup2\n      mstore\n      0x20\n      add\n      0x00\n      keccak256\n        /* \"contracts/CrowdFund.sol\":3818:3852  pledgedAmount[_id][msg.sender] = 0 */\n      dup2\n      swap1\n      sstore\n      pop\n        /* \"contracts/CrowdFund.sol\":3865:3870  token */\n      immutable(\"0xab20a672b3c5d5f71a8da6c43d4bf580ed35b623d6b0366b1de9df7e12238080\")\n        /* \"contracts/CrowdFund.sol\":3865:3879  token.transfer */\n      0xffffffffffffffffffffffffffffffffffffffff\n      and\n      0xa9059cbb\n        /* \"contracts/CrowdFund.sol\":3880:3890  msg.sender */\n      caller\n        /* \"contracts/CrowdFund.sol\":3891:3900  refundVal */\n      dup4\n        /* \"contracts/CrowdFund.sol\":3865:3901  token.transfer(msg.sender,refundVal) */\n      mload(0x40)\n      dup4\n      0xffffffff\n      and\n      0xe0\n      shl\n      dup2\n      mstore\n      0x04\n      add\n      tag_60\n      swap3\n      swap2\n      swap1\n      tag_61\n      jump\t// in\n    tag_60:\n      0x20\n      mload(0x40)\n      dup1\n      dup4\n      sub\n      dup2\n      0x00\n      dup8\n      gas\n      call\n      iszero\n      dup1\n      iszero\n      tag_63\n      jumpi\n      returndatasize\n      0x00\n      dup1\n      returndatacopy\n      revert(0x00, returndatasize)\n    tag_63:\n      pop\n      pop\n      pop\n      pop\n      mload(0x40)\n      returndatasize\n      not(0x1f)\n      0x1f\n      dup3\n      add\n      and\n      dup3\n      add\n      dup1\n      0x40\n      mstore\n      pop\n      dup2\n      add\n      swap1\n      tag_64\n      swap2\n      swap1\n      tag_65\n      jump\t// in\n    tag_64:\n      pop\n        /* \"contracts/CrowdFund.sol\":3930:3940  msg.sender */\n      caller\n        /* \"contracts/CrowdFund.sol\":3919:3951  Refund(_id,msg.sender,refundVal) */\n      0xffffffffffffffffffffffffffffffffffffffff\n      and\n        /* \"contracts/CrowdFund.sol\":3926:3929  _id */\n      dup4\n        /* \"contracts/CrowdFund.sol\":3919:3951  Refund(_id,msg.sender,refundVal) */\n      0x21e12a7cad0da5928167e1084ea4d5fdf8d9af66657a2543a9ac76a0ca081477\n        /* \"contracts/CrowdFund.sol\":3941:3950  refundVal */\n      dup4\n        /* \"contracts/CrowdFund.sol\":3919:3951  Refund(_id,msg.sender,refundVal) */\n      mload(0x40)\n      tag_66\n      swap2\n      swap1\n      tag_33\n      jump\t// in\n    tag_66:\n      mload(0x40)\n      dup1\n      swap2\n      sub\n      swap1\n      log3\n        /* \"contracts/CrowdFund.sol\":3564:3959  {... */\n      pop\n      pop\n        /* \"contracts/CrowdFund.sol\":3529:3959  function refund(uint _id) external {... */\n      pop\n      jump\t// out\n        /* \"contracts/CrowdFund.sol\":3012:3472  function claim(uint _id) external {... */\n    tag_20:\n        /* \"contracts/CrowdFund.sol\":3057:3082  Compaign storage compaign */\n      0x00\n        /* \"contracts/CrowdFund.sol\":3086:3095  compaigns */\n      0x01\n        /* \"contracts/CrowdFund.sol\":3086:3100  compaigns[_id] */\n      0x00\n        /* \"contracts/CrowdFund.sol\":3096:3099  _id */\n      dup4\n        /* \"contracts/CrowdFund.sol\":3086:3100  compaigns[_id] */\n      dup2\n      mstore\n      0x20\n      add\n      swap1\n      dup2\n      mstore\n      0x20\n      add\n      0x00\n      keccak256\n        /* \"contracts/CrowdFund.sol\":3057:3100  Compaign storage compaign =  compaigns[_id] */\n      swap1\n      pop\n        /* \"contracts/CrowdFund.sol\":3137:3145  compaign */\n      dup1\n        /* \"contracts/CrowdFund.sol\":3137:3151  compaign.endAt */\n      0x00\n      add\n      0x18\n      swap1\n      sload\n      swap1\n      0x0100\n      exp\n      swap1\n      div\n      0xffffffff\n      and\n        /* \"contracts/CrowdFund.sol\":3119:3151  block.timestamp > compaign.endAt */\n      0xffffffff\n      and\n        /* \"contracts/CrowdFund.sol\":3119:3134  block.timestamp */\n      timestamp\n        /* \"contracts/CrowdFund.sol\":3119:3151  block.timestamp > compaign.endAt */\n      gt\n        /* \"contracts/CrowdFund.sol\":3111:3162  require(block.timestamp > compaign.endAt,\"not end\") */\n      tag_68\n      jumpi\n      mload(0x40)\n      0x08c379a000000000000000000000000000000000000000000000000000000000\n      dup2\n      mstore\n      0x04\n      add\n      tag_69\n      swap1\n      tag_56\n      jump\t// in\n    tag_69:\n      mload(0x40)\n      dup1\n      swap2\n      sub\n      swap1\n      revert\n    tag_68:\n        /* \"contracts/CrowdFund.sol\":3195:3203  compaign */\n      dup1\n        /* \"contracts/CrowdFund.sol\":3195:3211  compaign.creator */\n      0x00\n      add\n      0x00\n      swap1\n      sload\n      swap1\n      0x0100\n      exp\n      swap1\n      div\n      0xffffffffffffffffffffffffffffffffffffffff\n      and\n        /* \"contracts/CrowdFund.sol\":3181:3211  msg.sender == compaign.creator */\n      0xffffffffffffffffffffffffffffffffffffffff\n      and\n        /* \"contracts/CrowdFund.sol\":3181:3191  msg.sender */\n      caller\n        /* \"contracts/CrowdFund.sol\":3181:3211  msg.sender == compaign.creator */\n      0xffffffffffffffffffffffffffffffffffffffff\n      and\n      eq\n        /* \"contracts/CrowdFund.sol\":3173:3226  require(msg.sender == compaign.creator,\"not creator\") */\n      tag_70\n      jumpi\n      mload(0x40)\n      0x08c379a000000000000000000000000000000000000000000000000000000000\n      dup2\n      mstore\n      0x04\n      add\n      tag_71\n      swap1\n      tag_72\n      jump\t// in\n    tag_71:\n      mload(0x40)\n      dup1\n      swap2\n      sub\n      swap1\n      revert\n    tag_70:\n        /* \"contracts/CrowdFund.sol\":3265:3273  compaign */\n      dup1\n        /* \"contracts/CrowdFund.sol\":3265:3278  compaign.goal */\n      0x01\n      add\n      sload\n        /* \"contracts/CrowdFund.sol\":3245:3253  compaign */\n      dup2\n        /* \"contracts/CrowdFund.sol\":3245:3261  compaign.pledged */\n      0x02\n      add\n      sload\n        /* \"contracts/CrowdFund.sol\":3245:3278  compaign.pledged >= compaign.goal */\n      lt\n      iszero\n        /* \"contracts/CrowdFund.sol\":3237:3291  require(compaign.pledged >= compaign.goal,\"goal fail\") */\n      tag_73\n      jumpi\n      mload(0x40)\n      0x08c379a000000000000000000000000000000000000000000000000000000000\n      dup2\n      mstore\n      0x04\n      add\n      tag_74\n      swap1\n      tag_75\n      jump\t// in\n    tag_74:\n      mload(0x40)\n      dup1\n      swap2\n      sub\n      swap1\n      revert\n    tag_73:\n        /* \"contracts/CrowdFund.sol\":3311:3319  compaign */\n      dup1\n        /* \"contracts/CrowdFund.sol\":3311:3327  compaign.claimed */\n      0x03\n      add\n      0x00\n      swap1\n      sload\n      swap1\n      0x0100\n      exp\n      swap1\n      div\n      0xff\n      and\n        /* \"contracts/CrowdFund.sol\":3310:3327  !compaign.claimed */\n      iszero\n        /* \"contracts/CrowdFund.sol\":3302:3338  require(!compaign.claimed,\"claimed\") */\n      tag_76\n      jumpi\n      mload(0x40)\n      0x08c379a000000000000000000000000000000000000000000000000000000000\n      dup2\n      mstore\n      0x04\n      add\n      tag_77\n      swap1\n      tag_78\n      jump\t// in\n    tag_77:\n      mload(0x40)\n      dup1\n      swap2\n      sub\n      swap1\n      revert\n    tag_76:\n        /* \"contracts/CrowdFund.sol\":3370:3374  true */\n      0x01\n        /* \"contracts/CrowdFund.sol\":3351:3359  compaign */\n      dup2\n        /* \"contracts/CrowdFund.sol\":3351:3367  compaign.claimed */\n      0x03\n      add\n      0x00\n        /* \"contracts/CrowdFund.sol\":3351:3374  compaign.claimed = true */\n      0x0100\n      exp\n      dup2\n      sload\n      dup2\n      0xff\n      mul\n      not\n      and\n      swap1\n      dup4\n      iszero\n      iszero\n      mul\n      or\n      swap1\n      sstore\n      pop\n        /* \"contracts/CrowdFund.sol\":3385:3390  token */\n      immutable(\"0xab20a672b3c5d5f71a8da6c43d4bf580ed35b623d6b0366b1de9df7e12238080\")\n        /* \"contracts/CrowdFund.sol\":3385:3399  token.transfer */\n      0xffffffffffffffffffffffffffffffffffffffff\n      and\n      0xa9059cbb\n        /* \"contracts/CrowdFund.sol\":3400:3408  compaign */\n      dup3\n        /* \"contracts/CrowdFund.sol\":3400:3416  compaign.creator */\n      0x00\n      add\n      0x00\n      swap1\n      sload\n      swap1\n      0x0100\n      exp\n      swap1\n      div\n      0xffffffffffffffffffffffffffffffffffffffff\n      and\n        /* \"contracts/CrowdFund.sol\":3419:3427  compaign */\n      dup4\n        /* \"contracts/CrowdFund.sol\":3419:3435  compaign.pledged */\n      0x02\n      add\n      sload\n        /* \"contracts/CrowdFund.sol\":3385:3436  token.transfer(compaign.creator , compaign.pledged) */\n      mload(0x40)\n      dup4\n      0xffffffff\n      and\n      0xe0\n      shl\n      dup2\n      mstore\n      0x04\n      add\n      tag_79\n      swap3\n      swap2\n      swap1\n      tag_61\n      jump\t// in\n    tag_79:\n      0x20\n      mload(0x40)\n      dup1\n      dup4\n      sub\n      dup2\n      0x00\n      dup8\n      gas\n      call\n      iszero\n      dup1\n      iszero\n      tag_81\n      jumpi\n      returndatasize\n      0x00\n      dup1\n      returndatacopy\n      revert(0x00, returndatasize)\n    tag_81:\n      pop\n      pop\n      pop\n      pop\n      mload(0x40)\n      returndatasize\n      not(0x1f)\n      0x1f\n      dup3\n      add\n      and\n      dup3\n      add\n      dup1\n      0x40\n      mstore\n      pop\n      dup2\n      add\n      swap1\n      tag_82\n      swap2\n      swap1\n      tag_65\n      jump\t// in\n    tag_82:\n      pop\n        /* \"contracts/CrowdFund.sol\":3454:3464  Claim(_id) */\n      0x7bb2b3c10797baccb6f8c4791f1edd6ca2f0d028ee0eda64b01a9a57e3a653f7\n        /* \"contracts/CrowdFund.sol\":3460:3463  _id */\n      dup3\n        /* \"contracts/CrowdFund.sol\":3454:3464  Claim(_id) */\n      mload(0x40)\n      tag_83\n      swap2\n      swap1\n      tag_33\n      jump\t// in\n    tag_83:\n      mload(0x40)\n      dup1\n      swap2\n      sub\n      swap1\n      log1\n        /* \"contracts/CrowdFund.sol\":3046:3472  {... */\n      pop\n        /* \"contracts/CrowdFund.sol\":3012:3472  function claim(uint _id) external {... */\n      pop\n      jump\t// out\n        /* \"contracts/CrowdFund.sol\":1799:2088  function cancel(uint _id) external {... */\n    tag_23:\n        /* \"contracts/CrowdFund.sol\":1845:1869  Compaign memory compaign */\n      0x00\n        /* \"contracts/CrowdFund.sol\":1873:1882  compaigns */\n      0x01\n        /* \"contracts/CrowdFund.sol\":1873:1887  compaigns[_id] */\n      0x00\n        /* \"contracts/CrowdFund.sol\":1883:1886  _id */\n      dup4\n        /* \"contracts/CrowdFund.sol\":1873:1887  compaigns[_id] */\n      dup2\n      mstore\n      0x20\n      add\n      swap1\n      dup2\n      mstore\n      0x20\n      add\n      0x00\n      keccak256\n        /* \"contracts/CrowdFund.sol\":1845:1887  Compaign memory compaign =  compaigns[_id] */\n      mload(0x40)\n      dup1\n      0xc0\n      add\n      0x40\n      mstore\n      swap1\n      dup2\n      0x00\n      dup3\n      add\n      0x00\n      swap1\n      sload\n      swap1\n      0x0100\n      exp\n      swap1\n      div\n      0xffffffffffffffffffffffffffffffffffffffff\n      and\n      0xffffffffffffffffffffffffffffffffffffffff\n      and\n      0xffffffffffffffffffffffffffffffffffffffff\n      and\n      dup2\n      mstore\n      0x20\n      add\n      0x00\n      dup3\n      add\n      0x14\n      swap1\n      sload\n      swap1\n      0x0100\n      exp\n      swap1\n      div\n      0xffffffff\n      and\n      0xffffffff\n      and\n      0xffffffff\n      and\n      dup2\n      mstore\n      0x20\n      add\n      0x00\n      dup3\n      add\n      0x18\n      swap1\n      sload\n      swap1\n      0x0100\n      exp\n      swap1\n      div\n      0xffffffff\n      and\n      0xffffffff\n      and\n      0xffffffff\n      and\n      dup2\n      mstore\n      0x20\n      add\n      0x01\n      dup3\n      add\n      sload\n      dup2\n      mstore\n      0x20\n      add\n      0x02\n      dup3\n      add\n      sload\n      dup2\n      mstore\n      0x20\n      add\n      0x03\n      dup3\n      add\n      0x00\n      swap1\n      sload\n      swap1\n      0x0100\n      exp\n      swap1\n      div\n      0xff\n      and\n      iszero\n      iszero\n      iszero\n      iszero\n      dup2\n      mstore\n      pop\n      pop\n      swap1\n      pop\n        /* \"contracts/CrowdFund.sol\":1920:1928  compaign */\n      dup1\n        /* \"contracts/CrowdFund.sol\":1920:1936  compaign.creator */\n      0x00\n      add\n      mload\n        /* \"contracts/CrowdFund.sol\":1906:1936  msg.sender == compaign.creator */\n      0xffffffffffffffffffffffffffffffffffffffff\n      and\n        /* \"contracts/CrowdFund.sol\":1906:1916  msg.sender */\n      caller\n        /* \"contracts/CrowdFund.sol\":1906:1936  msg.sender == compaign.creator */\n      0xffffffffffffffffffffffffffffffffffffffff\n      and\n      eq\n        /* \"contracts/CrowdFund.sol\":1898:1951  require(msg.sender == compaign.creator,\"not creator\") */\n      tag_85\n      jumpi\n      mload(0x40)\n      0x08c379a000000000000000000000000000000000000000000000000000000000\n      dup2\n      mstore\n      0x04\n      add\n      tag_86\n      swap1\n      tag_72\n      jump\t// in\n    tag_86:\n      mload(0x40)\n      dup1\n      swap2\n      sub\n      swap1\n      revert\n    tag_85:\n        /* \"contracts/CrowdFund.sol\":1989:2004  block.timestamp */\n      timestamp\n        /* \"contracts/CrowdFund.sol\":1970:1978  compaign */\n      dup2\n        /* \"contracts/CrowdFund.sol\":1970:1986  compaign.startAt */\n      0x20\n      add\n      mload\n        /* \"contracts/CrowdFund.sol\":1970:2004  compaign.startAt < block.timestamp */\n      0xffffffff\n      and\n      lt\n        /* \"contracts/CrowdFund.sol\":1962:2015  require(compaign.startAt < block.timestamp,\"started\") */\n      tag_87\n      jumpi\n      mload(0x40)\n      0x08c379a000000000000000000000000000000000000000000000000000000000\n      dup2\n      mstore\n      0x04\n      add\n      tag_88\n      swap1\n      tag_89\n      jump\t// in\n    tag_88:\n      mload(0x40)\n      dup1\n      swap2\n      sub\n      swap1\n      revert\n    tag_87:\n        /* \"contracts/CrowdFund.sol\":2035:2044  compaigns */\n      0x01\n        /* \"contracts/CrowdFund.sol\":2035:2049  compaigns[_id] */\n      0x00\n        /* \"contracts/CrowdFund.sol\":2045:2048  _id */\n      dup4\n        /* \"contracts/CrowdFund.sol\":2035:2049  compaigns[_id] */\n      dup2\n      mstore\n      0x20\n      add\n      swap1\n      dup2\n      mstore\n      0x20\n      add\n      0x00\n      keccak256\n      0x00\n        /* \"contracts/CrowdFund.sol\":2028:2049  delete compaigns[_id] */\n      dup1\n      dup3\n      add\n      exp(0x0100, 0x00)\n      dup2\n      sload\n      swap1\n      0xffffffffffffffffffffffffffffffffffffffff\n      mul\n      not\n      and\n      swap1\n      sstore\n      0x00\n      dup3\n      add\n      exp(0x0100, 0x14)\n      dup2\n      sload\n      swap1\n      0xffffffff\n      mul\n      not\n      and\n      swap1\n      sstore\n      0x00\n      dup3\n      add\n      exp(0x0100, 0x18)\n      dup2\n      sload\n      swap1\n      0xffffffff\n      mul\n      not\n      and\n      swap1\n      sstore\n      0x01\n      dup3\n      add\n      0x00\n      swap1\n      sstore\n      0x02\n      dup3\n      add\n      0x00\n      swap1\n      sstore\n      0x03\n      dup3\n      add\n      exp(0x0100, 0x00)\n      dup2\n      sload\n      swap1\n      0xff\n      mul\n      not\n      and\n      swap1\n      sstore\n      pop\n      pop\n        /* \"contracts/CrowdFund.sol\":2067:2078  Cancel(_id) */\n      0x8bf30e7ff26833413be5f69e1d373744864d600b664204b4a2f9844a8eedb9ed\n        /* \"contracts/CrowdFund.sol\":2074:2077  _id */\n      dup3\n        /* \"contracts/CrowdFund.sol\":2067:2078  Cancel(_id) */\n      mload(0x40)\n      tag_90\n      swap2\n      swap1\n      tag_33\n      jump\t// in\n    tag_90:\n      mload(0x40)\n      dup1\n      swap2\n      sub\n      swap1\n      log1\n        /* \"contracts/CrowdFund.sol\":1834:2088  {... */\n      pop\n        /* \"contracts/CrowdFund.sol\":1799:2088  function cancel(uint _id) external {... */\n      pop\n      jump\t// out\n        /* \"contracts/CrowdFund.sol\":2569:3004  function unpledge(uint _id,uint _amount) external {... */\n    tag_27:\n        /* \"contracts/CrowdFund.sol\":2630:2655  Compaign storage compaign */\n      0x00\n        /* \"contracts/CrowdFund.sol\":2659:2668  compaigns */\n      0x01\n        /* \"contracts/CrowdFund.sol\":2659:2673  compaigns[_id] */\n      0x00\n        /* \"contracts/CrowdFund.sol\":2669:2672  _id */\n      dup5\n        /* \"contracts/CrowdFund.sol\":2659:2673  compaigns[_id] */\n      dup2\n      mstore\n      0x20\n      add\n      swap1\n      dup2\n      mstore\n      0x20\n      add\n      0x00\n      keccak256\n        /* \"contracts/CrowdFund.sol\":2630:2673  Compaign storage compaign =  compaigns[_id] */\n      swap1\n      pop\n        /* \"contracts/CrowdFund.sol\":2710:2718  compaign */\n      dup1\n        /* \"contracts/CrowdFund.sol\":2710:2724  compaign.endAt */\n      0x00\n      add\n      0x18\n      swap1\n      sload\n      swap1\n      0x0100\n      exp\n      swap1\n      div\n      0xffffffff\n      and\n        /* \"contracts/CrowdFund.sol\":2692:2724  block.timestamp < compaign.endAt */\n      0xffffffff\n      and\n        /* \"contracts/CrowdFund.sol\":2692:2707  block.timestamp */\n      timestamp\n        /* \"contracts/CrowdFund.sol\":2692:2724  block.timestamp < compaign.endAt */\n      lt\n        /* \"contracts/CrowdFund.sol\":2684:2734  require(block.timestamp < compaign.endAt ,\"ended\") */\n      tag_92\n      jumpi\n      mload(0x40)\n      0x08c379a000000000000000000000000000000000000000000000000000000000\n      dup2\n      mstore\n      0x04\n      add\n      tag_93\n      swap1\n      tag_94\n      jump\t// in\n    tag_93:\n      mload(0x40)\n      dup1\n      swap2\n      sub\n      swap1\n      revert\n    tag_92:\n        /* \"contracts/CrowdFund.sol\":2787:2794  _amount */\n      dup2\n        /* \"contracts/CrowdFund.sol\":2753:2766  pledgedAmount */\n      0x02\n        /* \"contracts/CrowdFund.sol\":2753:2771  pledgedAmount[_id] */\n      0x00\n        /* \"contracts/CrowdFund.sol\":2767:2770  _id */\n      dup6\n        /* \"contracts/CrowdFund.sol\":2753:2771  pledgedAmount[_id] */\n      dup2\n      mstore\n      0x20\n      add\n      swap1\n      dup2\n      mstore\n      0x20\n      add\n      0x00\n      keccak256\n        /* \"contracts/CrowdFund.sol\":2753:2783  pledgedAmount[_id][msg.sender] */\n      0x00\n        /* \"contracts/CrowdFund.sol\":2772:2782  msg.sender */\n      caller\n        /* \"contracts/CrowdFund.sol\":2753:2783  pledgedAmount[_id][msg.sender] */\n      0xffffffffffffffffffffffffffffffffffffffff\n      and\n      0xffffffffffffffffffffffffffffffffffffffff\n      and\n      dup2\n      mstore\n      0x20\n      add\n      swap1\n      dup2\n      mstore\n      0x20\n      add\n      0x00\n      keccak256\n      sload\n        /* \"contracts/CrowdFund.sol\":2753:2794  pledgedAmount[_id][msg.sender] >= _amount */\n      lt\n      iszero\n        /* \"contracts/CrowdFund.sol\":2745:2809  require(pledgedAmount[_id][msg.sender] >= _amount,\"over exceed\") */\n      tag_95\n      jumpi\n      mload(0x40)\n      0x08c379a000000000000000000000000000000000000000000000000000000000\n      dup2\n      mstore\n      0x04\n      add\n      tag_96\n      swap1\n      tag_97\n      jump\t// in\n    tag_96:\n      mload(0x40)\n      dup1\n      swap2\n      sub\n      swap1\n      revert\n    tag_95:\n        /* \"contracts/CrowdFund.sol\":2840:2847  _amount */\n      dup2\n        /* \"contracts/CrowdFund.sol\":2820:2828  compaign */\n      dup2\n        /* \"contracts/CrowdFund.sol\":2820:2836  compaign.pledged */\n      0x02\n      add\n      0x00\n        /* \"contracts/CrowdFund.sol\":2820:2847  compaign.pledged -= _amount */\n      dup3\n      dup3\n      sload\n      tag_98\n      swap2\n      swap1\n      tag_99\n      jump\t// in\n    tag_98:\n      swap3\n      pop\n      pop\n      dup2\n      swap1\n      sstore\n      pop\n        /* \"contracts/CrowdFund.sol\":2892:2899  _amount */\n      dup2\n        /* \"contracts/CrowdFund.sol\":2858:2871  pledgedAmount */\n      0x02\n        /* \"contracts/CrowdFund.sol\":2858:2876  pledgedAmount[_id] */\n      0x00\n        /* \"contracts/CrowdFund.sol\":2872:2875  _id */\n      dup6\n        /* \"contracts/CrowdFund.sol\":2858:2876  pledgedAmount[_id] */\n      dup2\n      mstore\n      0x20\n      add\n      swap1\n      dup2\n      mstore\n      0x20\n      add\n      0x00\n      keccak256\n        /* \"contracts/CrowdFund.sol\":2858:2888  pledgedAmount[_id][msg.sender] */\n      0x00\n        /* \"contracts/CrowdFund.sol\":2877:2887  msg.sender */\n      caller\n        /* \"contracts/CrowdFund.sol\":2858:2888  pledgedAmount[_id][msg.sender] */\n      0xffffffffffffffffffffffffffffffffffffffff\n      and\n      0xffffffffffffffffffffffffffffffffffffffff\n      and\n      dup2\n      mstore\n      0x20\n      add\n      swap1\n      dup2\n      mstore\n      0x20\n      add\n      0x00\n      keccak256\n      0x00\n        /* \"contracts/CrowdFund.sol\":2858:2899  pledgedAmount[_id][msg.sender] -= _amount */\n      dup3\n      dup3\n      sload\n      tag_100\n      swap2\n      swap1\n      tag_99\n      jump\t// in\n    tag_100:\n      swap3\n      pop\n      pop\n      dup2\n      swap1\n      sstore\n      pop\n        /* \"contracts/CrowdFund.sol\":2910:2915  token */\n      immutable(\"0xab20a672b3c5d5f71a8da6c43d4bf580ed35b623d6b0366b1de9df7e12238080\")\n        /* \"contracts/CrowdFund.sol\":2910:2924  token.transfer */\n      0xffffffffffffffffffffffffffffffffffffffff\n      and\n      0xa9059cbb\n        /* \"contracts/CrowdFund.sol\":2925:2935  msg.sender */\n      caller\n        /* \"contracts/CrowdFund.sol\":2936:2943  _amount */\n      dup5\n        /* \"contracts/CrowdFund.sol\":2910:2944  token.transfer(msg.sender,_amount) */\n      mload(0x40)\n      dup4\n      0xffffffff\n      and\n      0xe0\n      shl\n      dup2\n      mstore\n      0x04\n      add\n      tag_101\n      swap3\n      swap2\n      swap1\n      tag_61\n      jump\t// in\n    tag_101:\n      0x20\n      mload(0x40)\n      dup1\n      dup4\n      sub\n      dup2\n      0x00\n      dup8\n      gas\n      call\n      iszero\n      dup1\n      iszero\n      tag_103\n      jumpi\n      returndatasize\n      0x00\n      dup1\n      returndatacopy\n      revert(0x00, returndatasize)\n    tag_103:\n      pop\n      pop\n      pop\n      pop\n      mload(0x40)\n      returndatasize\n      not(0x1f)\n      0x1f\n      dup3\n      add\n      and\n      dup3\n      add\n      dup1\n      0x40\n      mstore\n      pop\n      dup2\n      add\n      swap1\n      tag_104\n      swap2\n      swap1\n      tag_65\n      jump\t// in\n    tag_104:\n      pop\n        /* \"contracts/CrowdFund.sol\":2975:2985  msg.sender */\n      caller\n        /* \"contracts/CrowdFund.sol\":2962:2994  UnPledge(_id,msg.sender,_amount) */\n      0xffffffffffffffffffffffffffffffffffffffff\n      and\n        /* \"contracts/CrowdFund.sol\":2971:2974  _id */\n      dup4\n        /* \"contracts/CrowdFund.sol\":2962:2994  UnPledge(_id,msg.sender,_amount) */\n      0xdc63160518c9c709fe39309a0e6f3d567887986a4625cd35090a6689e56e34c0\n        /* \"contracts/CrowdFund.sol\":2986:2993  _amount */\n      dup5\n        /* \"contracts/CrowdFund.sol\":2962:2994  UnPledge(_id,msg.sender,_amount) */\n      mload(0x40)\n      tag_105\n      swap2\n      swap1\n      tag_33\n      jump\t// in\n    tag_105:\n      mload(0x40)\n      dup1\n      swap2\n      sub\n      swap1\n      log3\n        /* \"contracts/CrowdFund.sol\":2619:3004  {... */\n      pop\n        /* \"contracts/CrowdFund.sol\":2569:3004  function unpledge(uint _id,uint _amount) external {... */\n      pop\n      pop\n      jump\t// out\n        /* \"contracts/CrowdFund.sol\":1066:1124  mapping(uint=>mapping(address=>uint)) public pledgedAmount */\n    tag_31:\n      mstore(0x20, 0x02)\n      dup2\n      0x00\n      mstore\n      mstore(0x20, keccak256(0x00, 0x40))\n      dup1\n      0x00\n      mstore\n      keccak256(0x00, 0x40)\n      0x00\n      swap2\n      pop\n      swap2\n      pop\n      pop\n      sload\n      dup2\n      jump\t// out\n        /* \"contracts/CrowdFund.sol\":1210:1791  function lauch(uint32 _startAt,uint32 _endAt,uint _goal) external {... */\n    tag_37:\n        /* \"contracts/CrowdFund.sol\":1304:1319  block.timestamp */\n      timestamp\n        /* \"contracts/CrowdFund.sol\":1295:1303  _startAt */\n      dup4\n        /* \"contracts/CrowdFund.sol\":1295:1319  _startAt>block.timestamp */\n      0xffffffff\n      and\n      gt\n        /* \"contracts/CrowdFund.sol\":1287:1336  require(_startAt>block.timestamp,\"startAt < now\") */\n      tag_107\n      jumpi\n      mload(0x40)\n      0x08c379a000000000000000000000000000000000000000000000000000000000\n      dup2\n      mstore\n      0x04\n      add\n      tag_108\n      swap1\n      tag_109\n      jump\t// in\n    tag_108:\n      mload(0x40)\n      dup1\n      swap2\n      sub\n      swap1\n      revert\n    tag_107:\n        /* \"contracts/CrowdFund.sol\":1364:1372  _startAt */\n      dup3\n        /* \"contracts/CrowdFund.sol\":1355:1372  _endAt > _startAt */\n      0xffffffff\n      and\n        /* \"contracts/CrowdFund.sol\":1355:1361  _endAt */\n      dup3\n        /* \"contracts/CrowdFund.sol\":1355:1372  _endAt > _startAt */\n      0xffffffff\n      and\n      gt\n        /* \"contracts/CrowdFund.sol\":1347:1391  require(_endAt > _startAt,\"endAt < startAt\") */\n      tag_110\n      jumpi\n      mload(0x40)\n      0x08c379a000000000000000000000000000000000000000000000000000000000\n      dup2\n      mstore\n      0x04\n      add\n      tag_111\n      swap1\n      tag_112\n      jump\t// in\n    tag_111:\n      mload(0x40)\n      dup1\n      swap2\n      sub\n      swap1\n      revert\n    tag_110:\n        /* \"contracts/CrowdFund.sol\":1437:1444  90 days */\n      0x76a700\n        /* \"contracts/CrowdFund.sol\":1419:1434  block.timestamp */\n      timestamp\n        /* \"contracts/CrowdFund.sol\":1419:1444  block.timestamp + 90 days */\n      tag_113\n      swap2\n      swap1\n      tag_114\n      jump\t// in\n    tag_113:\n        /* \"contracts/CrowdFund.sol\":1410:1416  _endAt */\n      dup3\n        /* \"contracts/CrowdFund.sol\":1410:1444  _endAt < block.timestamp + 90 days */\n      0xffffffff\n      and\n      lt\n        /* \"contracts/CrowdFund.sol\":1402:1464  require(_endAt < block.timestamp + 90 days,\"endAt > DURATION\") */\n      tag_115\n      jumpi\n      mload(0x40)\n      0x08c379a000000000000000000000000000000000000000000000000000000000\n      dup2\n      mstore\n      0x04\n      add\n      tag_116\n      swap1\n      tag_117\n      jump\t// in\n    tag_116:\n      mload(0x40)\n      dup1\n      swap2\n      sub\n      swap1\n      revert\n    tag_115:\n        /* \"contracts/CrowdFund.sol\":1477:1484  uint id */\n      0x00\n        /* \"contracts/CrowdFund.sol\":1501:1502  1 */\n      0x01\n        /* \"contracts/CrowdFund.sol\":1487:1498  idGenerator */\n      sload(0x00)\n        /* \"contracts/CrowdFund.sol\":1487:1502  idGenerator + 1 */\n      tag_118\n      swap2\n      swap1\n      tag_114\n      jump\t// in\n    tag_118:\n        /* \"contracts/CrowdFund.sol\":1477:1502  uint id = idGenerator + 1 */\n      swap1\n      pop\n        /* \"contracts/CrowdFund.sol\":1529:1723  Compaign({... */\n      mload(0x40)\n      dup1\n      0xc0\n      add\n      0x40\n      mstore\n      dup1\n        /* \"contracts/CrowdFund.sol\":1562:1572  msg.sender */\n      caller\n        /* \"contracts/CrowdFund.sol\":1529:1723  Compaign({... */\n      0xffffffffffffffffffffffffffffffffffffffff\n      and\n      dup2\n      mstore\n      0x20\n      add\n        /* \"contracts/CrowdFund.sol\":1596:1604  _startAt */\n      dup6\n        /* \"contracts/CrowdFund.sol\":1529:1723  Compaign({... */\n      0xffffffff\n      and\n      dup2\n      mstore\n      0x20\n      add\n        /* \"contracts/CrowdFund.sol\":1626:1632  _endAt */\n      dup5\n        /* \"contracts/CrowdFund.sol\":1529:1723  Compaign({... */\n      0xffffffff\n      and\n      dup2\n      mstore\n      0x20\n      add\n        /* \"contracts/CrowdFund.sol\":1653:1658  _goal */\n      dup4\n        /* \"contracts/CrowdFund.sol\":1529:1723  Compaign({... */\n      dup2\n      mstore\n      0x20\n      add\n        /* \"contracts/CrowdFund.sol\":1681:1682  0 */\n      0x00\n        /* \"contracts/CrowdFund.sol\":1529:1723  Compaign({... */\n      dup2\n      mstore\n      0x20\n      add\n        /* \"contracts/CrowdFund.sol\":1706:1711  false */\n      0x00\n        /* \"contracts/CrowdFund.sol\":1529:1723  Compaign({... */\n      iszero\n      iszero\n      dup2\n      mstore\n      pop\n        /* \"contracts/CrowdFund.sol\":1513:1522  compaigns */\n      0x01\n        /* \"contracts/CrowdFund.sol\":1513:1526  compaigns[id] */\n      0x00\n        /* \"contracts/CrowdFund.sol\":1523:1525  id */\n      dup4\n        /* \"contracts/CrowdFund.sol\":1513:1526  compaigns[id] */\n      dup2\n      mstore\n      0x20\n      add\n      swap1\n      dup2\n      mstore\n      0x20\n      add\n      0x00\n      keccak256\n        /* \"contracts/CrowdFund.sol\":1513:1723  compaigns[id] = Compaign({... */\n      0x00\n      dup3\n      add\n      mload\n      dup2\n      0x00\n      add\n      exp(0x0100, 0x00)\n      dup2\n      sload\n      dup2\n      0xffffffffffffffffffffffffffffffffffffffff\n      mul\n      not\n      and\n      swap1\n      dup4\n      0xffffffffffffffffffffffffffffffffffffffff\n      and\n      mul\n      or\n      swap1\n      sstore\n      pop\n      0x20\n      dup3\n      add\n      mload\n      dup2\n      0x00\n      add\n      exp(0x0100, 0x14)\n      dup2\n      sload\n      dup2\n      0xffffffff\n      mul\n      not\n      and\n      swap1\n      dup4\n      0xffffffff\n      and\n      mul\n      or\n      swap1\n      sstore\n      pop\n      0x40\n      dup3\n      add\n      mload\n      dup2\n      0x00\n      add\n      exp(0x0100, 0x18)\n      dup2\n      sload\n      dup2\n      0xffffffff\n      mul\n      not\n      and\n      swap1\n      dup4\n      0xffffffff\n      and\n      mul\n      or\n      swap1\n      sstore\n      pop\n      0x60\n      dup3\n      add\n      mload\n      dup2\n      0x01\n      add\n      sstore\n      0x80\n      dup3\n      add\n      mload\n      dup2\n      0x02\n      add\n      sstore\n      0xa0\n      dup3\n      add\n      mload\n      dup2\n      0x03\n      add\n      exp(0x0100, 0x00)\n      dup2\n      sload\n      dup2\n      0xff\n      mul\n      not\n      and\n      swap1\n      dup4\n      iszero\n      iszero\n      mul\n      or\n      swap1\n      sstore\n      pop\n      swap1\n      pop\n      pop\n        /* \"contracts/CrowdFund.sol\":1750:1760  msg.sender */\n      caller\n        /* \"contracts/CrowdFund.sol\":1741:1783  Lauch(id,msg.sender,_goal,_startAt,_endAt) */\n      0xffffffffffffffffffffffffffffffffffffffff\n      and\n        /* \"contracts/CrowdFund.sol\":1747:1749  id */\n      dup2\n        /* \"contracts/CrowdFund.sol\":1741:1783  Lauch(id,msg.sender,_goal,_startAt,_endAt) */\n      0xf53c69f70da8067d7a640b762952c982bd6580135aaf19973bb3565087bf9b25\n        /* \"contracts/CrowdFund.sol\":1761:1766  _goal */\n      dup5\n        /* \"contracts/CrowdFund.sol\":1767:1775  _startAt */\n      dup8\n        /* \"contracts/CrowdFund.sol\":1776:1782  _endAt */\n      dup8\n        /* \"contracts/CrowdFund.sol\":1741:1783  Lauch(id,msg.sender,_goal,_startAt,_endAt) */\n      mload(0x40)\n      tag_119\n      swap4\n      swap3\n      swap2\n      swap1\n      tag_120\n      jump\t// in\n    tag_119:\n      mload(0x40)\n      dup1\n      swap2\n      sub\n      swap1\n      log3\n        /* \"contracts/CrowdFund.sol\":1276:1791  {... */\n      pop\n        /* \"contracts/CrowdFund.sol\":1210:1791  function lauch(uint32 _startAt,uint32 _endAt,uint _goal) external {... */\n      pop\n      pop\n      pop\n      jump\t// out\n        /* \"contracts/CrowdFund.sol\":977:1017  mapping(uint=>Compaign) public compaigns */\n    tag_40:\n      mstore(0x20, 0x01)\n      dup1\n      0x00\n      mstore\n      keccak256(0x00, 0x40)\n      0x00\n      swap2\n      pop\n      swap1\n      pop\n      dup1\n      0x00\n      add\n      0x00\n      swap1\n      sload\n      swap1\n      0x0100\n      exp\n      swap1\n      div\n      0xffffffffffffffffffffffffffffffffffffffff\n      and\n      swap1\n      dup1\n      0x00\n      add\n      0x14\n      swap1\n      sload\n      swap1\n      0x0100\n      exp\n      swap1\n      div\n      0xffffffff\n      and\n      swap1\n      dup1\n      0x00\n      add\n      0x18\n      swap1\n      sload\n      swap1\n      0x0100\n      exp\n      swap1\n      div\n      0xffffffff\n      and\n      swap1\n      dup1\n      0x01\n      add\n      sload\n      swap1\n      dup1\n      0x02\n      add\n      sload\n      swap1\n      dup1\n      0x03\n      add\n      0x00\n      swap1\n      sload\n      swap1\n      0x0100\n      exp\n      swap1\n      div\n      0xff\n      and\n      swap1\n      pop\n      dup7\n      jump\t// out\n        /* \"contracts/CrowdFund.sol\":662:685  uint public idGenerator */\n    tag_44:\n      sload(0x00)\n      dup2\n      jump\t// out\n        /* \"contracts/CrowdFund.sol\":916:945  IERC20 immutable public token */\n    tag_47:\n      immutable(\"0xab20a672b3c5d5f71a8da6c43d4bf580ed35b623d6b0366b1de9df7e12238080\")\n      dup2\n      jump\t// out\n        /* \"contracts/CrowdFund.sol\":2096:2561  function pledge(uint _id,uint _amount) external {... */\n    tag_52:\n        /* \"contracts/CrowdFund.sol\":2155:2180  Compaign storage compaign */\n      0x00\n        /* \"contracts/CrowdFund.sol\":2184:2193  compaigns */\n      0x01\n        /* \"contracts/CrowdFund.sol\":2184:2198  compaigns[_id] */\n      0x00\n        /* \"contracts/CrowdFund.sol\":2194:2197  _id */\n      dup5\n        /* \"contracts/CrowdFund.sol\":2184:2198  compaigns[_id] */\n      dup2\n      mstore\n      0x20\n      add\n      swap1\n      dup2\n      mstore\n      0x20\n      add\n      0x00\n      keccak256\n        /* \"contracts/CrowdFund.sol\":2155:2198  Compaign storage compaign =  compaigns[_id] */\n      swap1\n      pop\n        /* \"contracts/CrowdFund.sol\":2235:2243  compaign */\n      dup1\n        /* \"contracts/CrowdFund.sol\":2235:2251  compaign.startAt */\n      0x00\n      add\n      0x14\n      swap1\n      sload\n      swap1\n      0x0100\n      exp\n      swap1\n      div\n      0xffffffff\n      and\n        /* \"contracts/CrowdFund.sol\":2217:2251  block.timestamp > compaign.startAt */\n      0xffffffff\n      and\n        /* \"contracts/CrowdFund.sol\":2217:2232  block.timestamp */\n      timestamp\n        /* \"contracts/CrowdFund.sol\":2217:2251  block.timestamp > compaign.startAt */\n      gt\n        /* \"contracts/CrowdFund.sol\":2209:2264  require(block.timestamp > compaign.startAt,\"not start\") */\n      tag_122\n      jumpi\n      mload(0x40)\n      0x08c379a000000000000000000000000000000000000000000000000000000000\n      dup2\n      mstore\n      0x04\n      add\n      tag_123\n      swap1\n      tag_124\n      jump\t// in\n    tag_123:\n      mload(0x40)\n      dup1\n      swap2\n      sub\n      swap1\n      revert\n    tag_122:\n        /* \"contracts/CrowdFund.sol\":2301:2309  compaign */\n      dup1\n        /* \"contracts/CrowdFund.sol\":2301:2315  compaign.endAt */\n      0x00\n      add\n      0x18\n      swap1\n      sload\n      swap1\n      0x0100\n      exp\n      swap1\n      div\n      0xffffffff\n      and\n        /* \"contracts/CrowdFund.sol\":2283:2315  block.timestamp < compaign.endAt */\n      0xffffffff\n      and\n        /* \"contracts/CrowdFund.sol\":2283:2298  block.timestamp */\n      timestamp\n        /* \"contracts/CrowdFund.sol\":2283:2315  block.timestamp < compaign.endAt */\n      lt\n        /* \"contracts/CrowdFund.sol\":2275:2324  require(block.timestamp < compaign.endAt,\"ended\") */\n      tag_125\n      jumpi\n      mload(0x40)\n      0x08c379a000000000000000000000000000000000000000000000000000000000\n      dup2\n      mstore\n      0x04\n      add\n      tag_126\n      swap1\n      tag_94\n      jump\t// in\n    tag_126:\n      mload(0x40)\n      dup1\n      swap2\n      sub\n      swap1\n      revert\n    tag_125:\n        /* \"contracts/CrowdFund.sol\":2357:2364  _amount */\n      dup2\n        /* \"contracts/CrowdFund.sol\":2337:2345  compaign */\n      dup2\n        /* \"contracts/CrowdFund.sol\":2337:2353  compaign.pledged */\n      0x02\n      add\n      0x00\n        /* \"contracts/CrowdFund.sol\":2337:2364  compaign.pledged += _amount */\n      dup3\n      dup3\n      sload\n      tag_127\n      swap2\n      swap1\n      tag_114\n      jump\t// in\n    tag_127:\n      swap3\n      pop\n      pop\n      dup2\n      swap1\n      sstore\n      pop\n        /* \"contracts/CrowdFund.sol\":2409:2416  _amount */\n      dup2\n        /* \"contracts/CrowdFund.sol\":2375:2388  pledgedAmount */\n      0x02\n        /* \"contracts/CrowdFund.sol\":2375:2393  pledgedAmount[_id] */\n      0x00\n        /* \"contracts/CrowdFund.sol\":2389:2392  _id */\n      dup6\n        /* \"contracts/CrowdFund.sol\":2375:2393  pledgedAmount[_id] */\n      dup2\n      mstore\n      0x20\n      add\n      swap1\n      dup2\n      mstore\n      0x20\n      add\n      0x00\n      keccak256\n        /* \"contracts/CrowdFund.sol\":2375:2405  pledgedAmount[_id][msg.sender] */\n      0x00\n        /* \"contracts/CrowdFund.sol\":2394:2404  msg.sender */\n      caller\n        /* \"contracts/CrowdFund.sol\":2375:2405  pledgedAmount[_id][msg.sender] */\n      0xffffffffffffffffffffffffffffffffffffffff\n      and\n      0xffffffffffffffffffffffffffffffffffffffff\n      and\n      dup2\n      mstore\n      0x20\n      add\n      swap1\n      dup2\n      mstore\n      0x20\n      add\n      0x00\n      keccak256\n      0x00\n        /* \"contracts/CrowdFund.sol\":2375:2416  pledgedAmount[_id][msg.sender] += _amount */\n      dup3\n      dup3\n      sload\n      tag_128\n      swap2\n      swap1\n      tag_114\n      jump\t// in\n    tag_128:\n      swap3\n      pop\n      pop\n      dup2\n      swap1\n      sstore\n      pop\n        /* \"contracts/CrowdFund.sol\":2451:2456  token */\n      immutable(\"0xab20a672b3c5d5f71a8da6c43d4bf580ed35b623d6b0366b1de9df7e12238080\")\n        /* \"contracts/CrowdFund.sol\":2451:2469  token.transferFrom */\n      0xffffffffffffffffffffffffffffffffffffffff\n      and\n      0x23b872dd\n        /* \"contracts/CrowdFund.sol\":2470:2480  msg.sender */\n      caller\n        /* \"contracts/CrowdFund.sol\":2489:2493  this */\n      address\n        /* \"contracts/CrowdFund.sol\":2495:2502  _amount */\n      dup6\n        /* \"contracts/CrowdFund.sol\":2451:2503  token.transferFrom(msg.sender,address(this),_amount) */\n      mload(0x40)\n      dup5\n      0xffffffff\n      and\n      0xe0\n      shl\n      dup2\n      mstore\n      0x04\n      add\n      tag_129\n      swap4\n      swap3\n      swap2\n      swap1\n      tag_130\n      jump\t// in\n    tag_129:\n      0x20\n      mload(0x40)\n      dup1\n      dup4\n      sub\n      dup2\n      0x00\n      dup8\n      gas\n      call\n      iszero\n      dup1\n      iszero\n      tag_132\n      jumpi\n      returndatasize\n      0x00\n      dup1\n      returndatacopy\n      revert(0x00, returndatasize)\n    tag_132:\n      pop\n      pop\n      pop\n      pop\n      mload(0x40)\n      returndatasize\n      not(0x1f)\n      0x1f\n      dup3\n      add\n      and\n      dup3\n      add\n      dup1\n      0x40\n      mstore\n      pop\n      dup2\n      add\n      swap1\n      tag_133\n      swap2\n      swap1\n      tag_65\n      jump\t// in\n    tag_133:\n      pop\n        /* \"contracts/CrowdFund.sol\":2532:2542  msg.sender */\n      caller\n        /* \"contracts/CrowdFund.sol\":2521:2551  Pledge(_id,msg.sender,_amount) */\n      0xffffffffffffffffffffffffffffffffffffffff\n      and\n        /* \"contracts/CrowdFund.sol\":2528:2531  _id */\n      dup4\n        /* \"contracts/CrowdFund.sol\":2521:2551  Pledge(_id,msg.sender,_amount) */\n      0x06bdb975df800a73232998e71ed585d536222f1dfeaa622d7f62a23ada686c82\n        /* \"contracts/CrowdFund.sol\":2543:2550  _amount */\n      dup5\n        /* \"contracts/CrowdFund.sol\":2521:2551  Pledge(_id,msg.sender,_amount) */\n      mload(0x40)\n      tag_134\n      swap2\n      swap1\n      tag_33\n      jump\t// in\n    tag_134:\n      mload(0x40)\n      dup1\n      swap2\n      sub\n      swap1\n      log3\n        /* \"contracts/CrowdFund.sol\":2144:2561  {... */\n      pop\n        /* \"contracts/CrowdFund.sol\":2096:2561  function pledge(uint _id,uint _amount) external {... */\n      pop\n      pop\n      jump\t// out\n        /* \"#utility.yul\":88:205   */\n    tag_136:\n        /* \"#utility.yul\":197:198   */\n      0x00\n        /* \"#utility.yul\":194:195   */\n      dup1\n        /* \"#utility.yul\":187:199   */\n      revert\n        /* \"#utility.yul\":334:411   */\n    tag_138:\n        /* \"#utility.yul\":371:378   */\n      0x00\n        /* \"#utility.yul\":400:405   */\n      dup2\n        /* \"#utility.yul\":389:405   */\n      swap1\n      pop\n        /* \"#utility.yul\":334:411   */\n      swap2\n      swap1\n      pop\n      jump\t// out\n        /* \"#utility.yul\":417:539   */\n    tag_139:\n        /* \"#utility.yul\":490:514   */\n      tag_192\n        /* \"#utility.yul\":508:513   */\n      dup2\n        /* \"#utility.yul\":490:514   */\n      tag_138\n      jump\t// in\n    tag_192:\n        /* \"#utility.yul\":483:488   */\n      dup2\n        /* \"#utility.yul\":480:515   */\n      eq\n        /* \"#utility.yul\":470:533   */\n      tag_193\n      jumpi\n        /* \"#utility.yul\":529:530   */\n      0x00\n        /* \"#utility.yul\":526:527   */\n      dup1\n        /* \"#utility.yul\":519:531   */\n      revert\n        /* \"#utility.yul\":470:533   */\n    tag_193:\n        /* \"#utility.yul\":417:539   */\n      pop\n      jump\t// out\n        /* \"#utility.yul\":545:684   */\n    tag_140:\n        /* \"#utility.yul\":591:596   */\n      0x00\n        /* \"#utility.yul\":629:635   */\n      dup2\n        /* \"#utility.yul\":616:636   */\n      calldataload\n        /* \"#utility.yul\":607:636   */\n      swap1\n      pop\n        /* \"#utility.yul\":645:678   */\n      tag_195\n        /* \"#utility.yul\":672:677   */\n      dup2\n        /* \"#utility.yul\":645:678   */\n      tag_139\n      jump\t// in\n    tag_195:\n        /* \"#utility.yul\":545:684   */\n      swap3\n      swap2\n      pop\n      pop\n      jump\t// out\n        /* \"#utility.yul\":690:1019   */\n    tag_16:\n        /* \"#utility.yul\":749:755   */\n      0x00\n        /* \"#utility.yul\":798:800   */\n      0x20\n        /* \"#utility.yul\":786:795   */\n      dup3\n        /* \"#utility.yul\":777:784   */\n      dup5\n        /* \"#utility.yul\":773:796   */\n      sub\n        /* \"#utility.yul\":769:801   */\n      slt\n        /* \"#utility.yul\":766:885   */\n      iszero\n      tag_197\n      jumpi\n        /* \"#utility.yul\":804:883   */\n      tag_198\n      tag_136\n      jump\t// in\n    tag_198:\n        /* \"#utility.yul\":766:885   */\n    tag_197:\n        /* \"#utility.yul\":924:925   */\n      0x00\n        /* \"#utility.yul\":949:1002   */\n      tag_199\n        /* \"#utility.yul\":994:1001   */\n      dup5\n        /* \"#utility.yul\":985:991   */\n      dup3\n        /* \"#utility.yul\":974:983   */\n      dup6\n        /* \"#utility.yul\":970:992   */\n      add\n        /* \"#utility.yul\":949:1002   */\n      tag_140\n      jump\t// in\n    tag_199:\n        /* \"#utility.yul\":939:1002   */\n      swap2\n      pop\n        /* \"#utility.yul\":895:1012   */\n      pop\n        /* \"#utility.yul\":690:1019   */\n      swap3\n      swap2\n      pop\n      pop\n      jump\t// out\n        /* \"#utility.yul\":1025:1499   */\n    tag_26:\n        /* \"#utility.yul\":1093:1099   */\n      0x00\n        /* \"#utility.yul\":1101:1107   */\n      dup1\n        /* \"#utility.yul\":1150:1152   */\n      0x40\n        /* \"#utility.yul\":1138:1147   */\n      dup4\n        /* \"#utility.yul\":1129:1136   */\n      dup6\n        /* \"#utility.yul\":1125:1148   */\n      sub\n        /* \"#utility.yul\":1121:1153   */\n      slt\n        /* \"#utility.yul\":1118:1237   */\n      iszero\n      tag_201\n      jumpi\n        /* \"#utility.yul\":1156:1235   */\n      tag_202\n      tag_136\n      jump\t// in\n    tag_202:\n        /* \"#utility.yul\":1118:1237   */\n    tag_201:\n        /* \"#utility.yul\":1276:1277   */\n      0x00\n        /* \"#utility.yul\":1301:1354   */\n      tag_203\n        /* \"#utility.yul\":1346:1353   */\n      dup6\n        /* \"#utility.yul\":1337:1343   */\n      dup3\n        /* \"#utility.yul\":1326:1335   */\n      dup7\n        /* \"#utility.yul\":1322:1344   */\n      add\n        /* \"#utility.yul\":1301:1354   */\n      tag_140\n      jump\t// in\n    tag_203:\n        /* \"#utility.yul\":1291:1354   */\n      swap3\n      pop\n        /* \"#utility.yul\":1247:1364   */\n      pop\n        /* \"#utility.yul\":1403:1405   */\n      0x20\n        /* \"#utility.yul\":1429:1482   */\n      tag_204\n        /* \"#utility.yul\":1474:1481   */\n      dup6\n        /* \"#utility.yul\":1465:1471   */\n      dup3\n        /* \"#utility.yul\":1454:1463   */\n      dup7\n        /* \"#utility.yul\":1450:1472   */\n      add\n        /* \"#utility.yul\":1429:1482   */\n      tag_140\n      jump\t// in\n    tag_204:\n        /* \"#utility.yul\":1419:1482   */\n      swap2\n      pop\n        /* \"#utility.yul\":1374:1492   */\n      pop\n        /* \"#utility.yul\":1025:1499   */\n      swap3\n      pop\n      swap3\n      swap1\n      pop\n      jump\t// out\n        /* \"#utility.yul\":1505:1631   */\n    tag_141:\n        /* \"#utility.yul\":1542:1549   */\n      0x00\n        /* \"#utility.yul\":1582:1624   */\n      0xffffffffffffffffffffffffffffffffffffffff\n        /* \"#utility.yul\":1575:1580   */\n      dup3\n        /* \"#utility.yul\":1571:1625   */\n      and\n        /* \"#utility.yul\":1560:1625   */\n      swap1\n      pop\n        /* \"#utility.yul\":1505:1631   */\n      swap2\n      swap1\n      pop\n      jump\t// out\n        /* \"#utility.yul\":1637:1733   */\n    tag_142:\n        /* \"#utility.yul\":1674:1681   */\n      0x00\n        /* \"#utility.yul\":1703:1727   */\n      tag_207\n        /* \"#utility.yul\":1721:1726   */\n      dup3\n        /* \"#utility.yul\":1703:1727   */\n      tag_141\n      jump\t// in\n    tag_207:\n        /* \"#utility.yul\":1692:1727   */\n      swap1\n      pop\n        /* \"#utility.yul\":1637:1733   */\n      swap2\n      swap1\n      pop\n      jump\t// out\n        /* \"#utility.yul\":1739:1861   */\n    tag_143:\n        /* \"#utility.yul\":1812:1836   */\n      tag_209\n        /* \"#utility.yul\":1830:1835   */\n      dup2\n        /* \"#utility.yul\":1812:1836   */\n      tag_142\n      jump\t// in\n    tag_209:\n        /* \"#utility.yul\":1805:1810   */\n      dup2\n        /* \"#utility.yul\":1802:1837   */\n      eq\n        /* \"#utility.yul\":1792:1855   */\n      tag_210\n      jumpi\n        /* \"#utility.yul\":1851:1852   */\n      0x00\n        /* \"#utility.yul\":1848:1849   */\n      dup1\n        /* \"#utility.yul\":1841:1853   */\n      revert\n        /* \"#utility.yul\":1792:1855   */\n    tag_210:\n        /* \"#utility.yul\":1739:1861   */\n      pop\n      jump\t// out\n        /* \"#utility.yul\":1867:2006   */\n    tag_144:\n        /* \"#utility.yul\":1913:1918   */\n      0x00\n        /* \"#utility.yul\":1951:1957   */\n      dup2\n        /* \"#utility.yul\":1938:1958   */\n      calldataload\n        /* \"#utility.yul\":1929:1958   */\n      swap1\n      pop\n        /* \"#utility.yul\":1967:2000   */\n      tag_212\n        /* \"#utility.yul\":1994:1999   */\n      dup2\n        /* \"#utility.yul\":1967:2000   */\n      tag_143\n      jump\t// in\n    tag_212:\n        /* \"#utility.yul\":1867:2006   */\n      swap3\n      swap2\n      pop\n      pop\n      jump\t// out\n        /* \"#utility.yul\":2012:2486   */\n    tag_30:\n        /* \"#utility.yul\":2080:2086   */\n      0x00\n        /* \"#utility.yul\":2088:2094   */\n      dup1\n        /* \"#utility.yul\":2137:2139   */\n      0x40\n        /* \"#utility.yul\":2125:2134   */\n      dup4\n        /* \"#utility.yul\":2116:2123   */\n      dup6\n        /* \"#utility.yul\":2112:2135   */\n      sub\n        /* \"#utility.yul\":2108:2140   */\n      slt\n        /* \"#utility.yul\":2105:2224   */\n      iszero\n      tag_214\n      jumpi\n        /* \"#utility.yul\":2143:2222   */\n      tag_215\n      tag_136\n      jump\t// in\n    tag_215:\n        /* \"#utility.yul\":2105:2224   */\n    tag_214:\n        /* \"#utility.yul\":2263:2264   */\n      0x00\n        /* \"#utility.yul\":2288:2341   */\n      tag_216\n        /* \"#utility.yul\":2333:2340   */\n      dup6\n        /* \"#utility.yul\":2324:2330   */\n      dup3\n        /* \"#utility.yul\":2313:2322   */\n      dup7\n        /* \"#utility.yul\":2309:2331   */\n      add\n        /* \"#utility.yul\":2288:2341   */\n      tag_140\n      jump\t// in\n    tag_216:\n        /* \"#utility.yul\":2278:2341   */\n      swap3\n      pop\n        /* \"#utility.yul\":2234:2351   */\n      pop\n        /* \"#utility.yul\":2390:2392   */\n      0x20\n        /* \"#utility.yul\":2416:2469   */\n      tag_217\n        /* \"#utility.yul\":2461:2468   */\n      dup6\n        /* \"#utility.yul\":2452:2458   */\n      dup3\n        /* \"#utility.yul\":2441:2450   */\n      dup7\n        /* \"#utility.yul\":2437:2459   */\n      add\n        /* \"#utility.yul\":2416:2469   */\n      tag_144\n      jump\t// in\n    tag_217:\n        /* \"#utility.yul\":2406:2469   */\n      swap2\n      pop\n        /* \"#utility.yul\":2361:2479   */\n      pop\n        /* \"#utility.yul\":2012:2486   */\n      swap3\n      pop\n      swap3\n      swap1\n      pop\n      jump\t// out\n        /* \"#utility.yul\":2492:2610   */\n    tag_145:\n        /* \"#utility.yul\":2579:2603   */\n      tag_219\n        /* \"#utility.yul\":2597:2602   */\n      dup2\n        /* \"#utility.yul\":2579:2603   */\n      tag_138\n      jump\t// in\n    tag_219:\n        /* \"#utility.yul\":2574:2577   */\n      dup3\n        /* \"#utility.yul\":2567:2604   */\n      mstore\n        /* \"#utility.yul\":2492:2610   */\n      pop\n      pop\n      jump\t// out\n        /* \"#utility.yul\":2616:2838   */\n    tag_33:\n        /* \"#utility.yul\":2709:2713   */\n      0x00\n        /* \"#utility.yul\":2747:2749   */\n      0x20\n        /* \"#utility.yul\":2736:2745   */\n      dup3\n        /* \"#utility.yul\":2732:2750   */\n      add\n        /* \"#utility.yul\":2724:2750   */\n      swap1\n      pop\n        /* \"#utility.yul\":2760:2831   */\n      tag_221\n        /* \"#utility.yul\":2828:2829   */\n      0x00\n        /* \"#utility.yul\":2817:2826   */\n      dup4\n        /* \"#utility.yul\":2813:2830   */\n      add\n        /* \"#utility.yul\":2804:2810   */\n      dup5\n        /* \"#utility.yul\":2760:2831   */\n      tag_145\n      jump\t// in\n    tag_221:\n        /* \"#utility.yul\":2616:2838   */\n      swap3\n      swap2\n      pop\n      pop\n      jump\t// out\n        /* \"#utility.yul\":2844:2937   */\n    tag_146:\n        /* \"#utility.yul\":2880:2887   */\n      0x00\n        /* \"#utility.yul\":2920:2930   */\n      0xffffffff\n        /* \"#utility.yul\":2913:2918   */\n      dup3\n        /* \"#utility.yul\":2909:2931   */\n      and\n        /* \"#utility.yul\":2898:2931   */\n      swap1\n      pop\n        /* \"#utility.yul\":2844:2937   */\n      swap2\n      swap1\n      pop\n      jump\t// out\n        /* \"#utility.yul\":2943:3063   */\n    tag_147:\n        /* \"#utility.yul\":3015:3038   */\n      tag_224\n        /* \"#utility.yul\":3032:3037   */\n      dup2\n        /* \"#utility.yul\":3015:3038   */\n      tag_146\n      jump\t// in\n    tag_224:\n        /* \"#utility.yul\":3008:3013   */\n      dup2\n        /* \"#utility.yul\":3005:3039   */\n      eq\n        /* \"#utility.yul\":2995:3057   */\n      tag_225\n      jumpi\n        /* \"#utility.yul\":3053:3054   */\n      0x00\n        /* \"#utility.yul\":3050:3051   */\n      dup1\n        /* \"#utility.yul\":3043:3055   */\n      revert\n        /* \"#utility.yul\":2995:3057   */\n    tag_225:\n        /* \"#utility.yul\":2943:3063   */\n      pop\n      jump\t// out\n        /* \"#utility.yul\":3069:3206   */\n    tag_148:\n        /* \"#utility.yul\":3114:3119   */\n      0x00\n        /* \"#utility.yul\":3152:3158   */\n      dup2\n        /* \"#utility.yul\":3139:3159   */\n      calldataload\n        /* \"#utility.yul\":3130:3159   */\n      swap1\n      pop\n        /* \"#utility.yul\":3168:3200   */\n      tag_227\n        /* \"#utility.yul\":3194:3199   */\n      dup2\n        /* \"#utility.yul\":3168:3200   */\n      tag_147\n      jump\t// in\n    tag_227:\n        /* \"#utility.yul\":3069:3206   */\n      swap3\n      swap2\n      pop\n      pop\n      jump\t// out\n        /* \"#utility.yul\":3212:3827   */\n    tag_36:\n        /* \"#utility.yul\":3287:3293   */\n      0x00\n        /* \"#utility.yul\":3295:3301   */\n      dup1\n        /* \"#utility.yul\":3303:3309   */\n      0x00\n        /* \"#utility.yul\":3352:3354   */\n      0x60\n        /* \"#utility.yul\":3340:3349   */\n      dup5\n        /* \"#utility.yul\":3331:3338   */\n      dup7\n        /* \"#utility.yul\":3327:3350   */\n      sub\n        /* \"#utility.yul\":3323:3355   */\n      slt\n        /* \"#utility.yul\":3320:3439   */\n      iszero\n      tag_229\n      jumpi\n        /* \"#utility.yul\":3358:3437   */\n      tag_230\n      tag_136\n      jump\t// in\n    tag_230:\n        /* \"#utility.yul\":3320:3439   */\n    tag_229:\n        /* \"#utility.yul\":3478:3479   */\n      0x00\n        /* \"#utility.yul\":3503:3555   */\n      tag_231\n        /* \"#utility.yul\":3547:3554   */\n      dup7\n        /* \"#utility.yul\":3538:3544   */\n      dup3\n        /* \"#utility.yul\":3527:3536   */\n      dup8\n        /* \"#utility.yul\":3523:3545   */\n      add\n        /* \"#utility.yul\":3503:3555   */\n      tag_148\n      jump\t// in\n    tag_231:\n        /* \"#utility.yul\":3493:3555   */\n      swap4\n      pop\n        /* \"#utility.yul\":3449:3565   */\n      pop\n        /* \"#utility.yul\":3604:3606   */\n      0x20\n        /* \"#utility.yul\":3630:3682   */\n      tag_232\n        /* \"#utility.yul\":3674:3681   */\n      dup7\n        /* \"#utility.yul\":3665:3671   */\n      dup3\n        /* \"#utility.yul\":3654:3663   */\n      dup8\n        /* \"#utility.yul\":3650:3672   */\n      add\n        /* \"#utility.yul\":3630:3682   */\n      tag_148\n      jump\t// in\n    tag_232:\n        /* \"#utility.yul\":3620:3682   */\n      swap3\n      pop\n        /* \"#utility.yul\":3575:3692   */\n      pop\n        /* \"#utility.yul\":3731:3733   */\n      0x40\n        /* \"#utility.yul\":3757:3810   */\n      tag_233\n        /* \"#utility.yul\":3802:3809   */\n      dup7\n        /* \"#utility.yul\":3793:3799   */\n      dup3\n        /* \"#utility.yul\":3782:3791   */\n      dup8\n        /* \"#utility.yul\":3778:3800   */\n      add\n        /* \"#utility.yul\":3757:3810   */\n      tag_140\n      jump\t// in\n    tag_233:\n        /* \"#utility.yul\":3747:3810   */\n      swap2\n      pop\n        /* \"#utility.yul\":3702:3820   */\n      pop\n        /* \"#utility.yul\":3212:3827   */\n      swap3\n      pop\n      swap3\n      pop\n      swap3\n      jump\t// out\n        /* \"#utility.yul\":3833:3951   */\n    tag_149:\n        /* \"#utility.yul\":3920:3944   */\n      tag_235\n        /* \"#utility.yul\":3938:3943   */\n      dup2\n        /* \"#utility.yul\":3920:3944   */\n      tag_142\n      jump\t// in\n    tag_235:\n        /* \"#utility.yul\":3915:3918   */\n      dup3\n        /* \"#utility.yul\":3908:3945   */\n      mstore\n        /* \"#utility.yul\":3833:3951   */\n      pop\n      pop\n      jump\t// out\n        /* \"#utility.yul\":3957:4072   */\n    tag_150:\n        /* \"#utility.yul\":4042:4065   */\n      tag_237\n        /* \"#utility.yul\":4059:4064   */\n      dup2\n        /* \"#utility.yul\":4042:4065   */\n      tag_146\n      jump\t// in\n    tag_237:\n        /* \"#utility.yul\":4037:4040   */\n      dup3\n        /* \"#utility.yul\":4030:4066   */\n      mstore\n        /* \"#utility.yul\":3957:4072   */\n      pop\n      pop\n      jump\t// out\n        /* \"#utility.yul\":4078:4168   */\n    tag_151:\n        /* \"#utility.yul\":4112:4119   */\n      0x00\n        /* \"#utility.yul\":4155:4160   */\n      dup2\n        /* \"#utility.yul\":4148:4161   */\n      iszero\n        /* \"#utility.yul\":4141:4162   */\n      iszero\n        /* \"#utility.yul\":4130:4162   */\n      swap1\n      pop\n        /* \"#utility.yul\":4078:4168   */\n      swap2\n      swap1\n      pop\n      jump\t// out\n        /* \"#utility.yul\":4174:4283   */\n    tag_152:\n        /* \"#utility.yul\":4255:4276   */\n      tag_240\n        /* \"#utility.yul\":4270:4275   */\n      dup2\n        /* \"#utility.yul\":4255:4276   */\n      tag_151\n      jump\t// in\n    tag_240:\n        /* \"#utility.yul\":4250:4253   */\n      dup3\n        /* \"#utility.yul\":4243:4277   */\n      mstore\n        /* \"#utility.yul\":4174:4283   */\n      pop\n      pop\n      jump\t// out\n        /* \"#utility.yul\":4289:5044   */\n    tag_42:\n        /* \"#utility.yul\":4512:4516   */\n      0x00\n        /* \"#utility.yul\":4550:4553   */\n      0xc0\n        /* \"#utility.yul\":4539:4548   */\n      dup3\n        /* \"#utility.yul\":4535:4554   */\n      add\n        /* \"#utility.yul\":4527:4554   */\n      swap1\n      pop\n        /* \"#utility.yul\":4564:4635   */\n      tag_242\n        /* \"#utility.yul\":4632:4633   */\n      0x00\n        /* \"#utility.yul\":4621:4630   */\n      dup4\n        /* \"#utility.yul\":4617:4634   */\n      add\n        /* \"#utility.yul\":4608:4614   */\n      dup10\n        /* \"#utility.yul\":4564:4635   */\n      tag_149\n      jump\t// in\n    tag_242:\n        /* \"#utility.yul\":4645:4715   */\n      tag_243\n        /* \"#utility.yul\":4711:4713   */\n      0x20\n        /* \"#utility.yul\":4700:4709   */\n      dup4\n        /* \"#utility.yul\":4696:4714   */\n      add\n        /* \"#utility.yul\":4687:4693   */\n      dup9\n        /* \"#utility.yul\":4645:4715   */\n      tag_150\n      jump\t// in\n    tag_243:\n        /* \"#utility.yul\":4725:4795   */\n      tag_244\n        /* \"#utility.yul\":4791:4793   */\n      0x40\n        /* \"#utility.yul\":4780:4789   */\n      dup4\n        /* \"#utility.yul\":4776:4794   */\n      add\n        /* \"#utility.yul\":4767:4773   */\n      dup8\n        /* \"#utility.yul\":4725:4795   */\n      tag_150\n      jump\t// in\n    tag_244:\n        /* \"#utility.yul\":4805:4877   */\n      tag_245\n        /* \"#utility.yul\":4873:4875   */\n      0x60\n        /* \"#utility.yul\":4862:4871   */\n      dup4\n        /* \"#utility.yul\":4858:4876   */\n      add\n        /* \"#utility.yul\":4849:4855   */\n      dup7\n        /* \"#utility.yul\":4805:4877   */\n      tag_145\n      jump\t// in\n    tag_245:\n        /* \"#utility.yul\":4887:4960   */\n      tag_246\n        /* \"#utility.yul\":4955:4958   */\n      0x80\n        /* \"#utility.yul\":4944:4953   */\n      dup4\n        /* \"#utility.yul\":4940:4959   */\n      add\n        /* \"#utility.yul\":4931:4937   */\n      dup6\n        /* \"#utility.yul\":4887:4960   */\n      tag_145\n      jump\t// in\n    tag_246:\n        /* \"#utility.yul\":4970:5037   */\n      tag_247\n        /* \"#utility.yul\":5032:5035   */\n      0xa0\n        /* \"#utility.yul\":5021:5030   */\n      dup4\n        /* \"#utility.yul\":5017:5036   */\n      add\n        /* \"#utility.yul\":5008:5014   */\n      dup5\n        /* \"#utility.yul\":4970:5037   */\n      tag_152\n      jump\t// in\n    tag_247:\n        /* \"#utility.yul\":4289:5044   */\n      swap8\n      swap7\n      pop\n      pop\n      pop\n      pop\n      pop\n      pop\n      pop\n      jump\t// out\n        /* \"#utility.yul\":5050:5110   */\n    tag_153:\n        /* \"#utility.yul\":5078:5081   */\n      0x00\n        /* \"#utility.yul\":5099:5104   */\n      dup2\n        /* \"#utility.yul\":5092:5104   */\n      swap1\n      pop\n        /* \"#utility.yul\":5050:5110   */\n      swap2\n      swap1\n      pop\n      jump\t// out\n        /* \"#utility.yul\":5116:5258   */\n    tag_154:\n        /* \"#utility.yul\":5166:5175   */\n      0x00\n        /* \"#utility.yul\":5199:5252   */\n      tag_250\n        /* \"#utility.yul\":5217:5251   */\n      tag_251\n        /* \"#utility.yul\":5226:5250   */\n      tag_252\n        /* \"#utility.yul\":5244:5249   */\n      dup5\n        /* \"#utility.yul\":5226:5250   */\n      tag_141\n      jump\t// in\n    tag_252:\n        /* \"#utility.yul\":5217:5251   */\n      tag_153\n      jump\t// in\n    tag_251:\n        /* \"#utility.yul\":5199:5252   */\n      tag_141\n      jump\t// in\n    tag_250:\n        /* \"#utility.yul\":5186:5252   */\n      swap1\n      pop\n        /* \"#utility.yul\":5116:5258   */\n      swap2\n      swap1\n      pop\n      jump\t// out\n        /* \"#utility.yul\":5264:5390   */\n    tag_155:\n        /* \"#utility.yul\":5314:5323   */\n      0x00\n        /* \"#utility.yul\":5347:5384   */\n      tag_254\n        /* \"#utility.yul\":5378:5383   */\n      dup3\n        /* \"#utility.yul\":5347:5384   */\n      tag_154\n      jump\t// in\n    tag_254:\n        /* \"#utility.yul\":5334:5384   */\n      swap1\n      pop\n        /* \"#utility.yul\":5264:5390   */\n      swap2\n      swap1\n      pop\n      jump\t// out\n        /* \"#utility.yul\":5396:5535   */\n    tag_156:\n        /* \"#utility.yul\":5459:5468   */\n      0x00\n        /* \"#utility.yul\":5492:5529   */\n      tag_256\n        /* \"#utility.yul\":5523:5528   */\n      dup3\n        /* \"#utility.yul\":5492:5529   */\n      tag_155\n      jump\t// in\n    tag_256:\n        /* \"#utility.yul\":5479:5529   */\n      swap1\n      pop\n        /* \"#utility.yul\":5396:5535   */\n      swap2\n      swap1\n      pop\n      jump\t// out\n        /* \"#utility.yul\":5541:5698   */\n    tag_157:\n        /* \"#utility.yul\":5641:5691   */\n      tag_258\n        /* \"#utility.yul\":5685:5690   */\n      dup2\n        /* \"#utility.yul\":5641:5691   */\n      tag_156\n      jump\t// in\n    tag_258:\n        /* \"#utility.yul\":5636:5639   */\n      dup3\n        /* \"#utility.yul\":5629:5692   */\n      mstore\n        /* \"#utility.yul\":5541:5698   */\n      pop\n      pop\n      jump\t// out\n        /* \"#utility.yul\":5704:5952   */\n    tag_49:\n        /* \"#utility.yul\":5810:5814   */\n      0x00\n        /* \"#utility.yul\":5848:5850   */\n      0x20\n        /* \"#utility.yul\":5837:5846   */\n      dup3\n        /* \"#utility.yul\":5833:5851   */\n      add\n        /* \"#utility.yul\":5825:5851   */\n      swap1\n      pop\n        /* \"#utility.yul\":5861:5945   */\n      tag_260\n        /* \"#utility.yul\":5942:5943   */\n      0x00\n        /* \"#utility.yul\":5931:5940   */\n      dup4\n        /* \"#utility.yul\":5927:5944   */\n      add\n        /* \"#utility.yul\":5918:5924   */\n      dup5\n        /* \"#utility.yul\":5861:5945   */\n      tag_157\n      jump\t// in\n    tag_260:\n        /* \"#utility.yul\":5704:5952   */\n      swap3\n      swap2\n      pop\n      pop\n      jump\t// out\n        /* \"#utility.yul\":5958:6127   */\n    tag_158:\n        /* \"#utility.yul\":6042:6053   */\n      0x00\n        /* \"#utility.yul\":6076:6082   */\n      dup3\n        /* \"#utility.yul\":6071:6074   */\n      dup3\n        /* \"#utility.yul\":6064:6083   */\n      mstore\n        /* \"#utility.yul\":6116:6120   */\n      0x20\n        /* \"#utility.yul\":6111:6114   */\n      dup3\n        /* \"#utility.yul\":6107:6121   */\n      add\n        /* \"#utility.yul\":6092:6121   */\n      swap1\n      pop\n        /* \"#utility.yul\":5958:6127   */\n      swap3\n      swap2\n      pop\n      pop\n      jump\t// out\n        /* \"#utility.yul\":6133:6290   */\n    tag_159:\n        /* \"#utility.yul\":6273:6282   */\n      0x6e6f7420656e6400000000000000000000000000000000000000000000000000\n        /* \"#utility.yul\":6269:6270   */\n      0x00\n        /* \"#utility.yul\":6261:6267   */\n      dup3\n        /* \"#utility.yul\":6257:6271   */\n      add\n        /* \"#utility.yul\":6250:6283   */\n      mstore\n        /* \"#utility.yul\":6133:6290   */\n      pop\n      jump\t// out\n        /* \"#utility.yul\":6296:6661   */\n    tag_160:\n        /* \"#utility.yul\":6438:6441   */\n      0x00\n        /* \"#utility.yul\":6459:6525   */\n      tag_264\n        /* \"#utility.yul\":6523:6524   */\n      0x07\n        /* \"#utility.yul\":6518:6521   */\n      dup4\n        /* \"#utility.yul\":6459:6525   */\n      tag_158\n      jump\t// in\n    tag_264:\n        /* \"#utility.yul\":6452:6525   */\n      swap2\n      pop\n        /* \"#utility.yul\":6534:6627   */\n      tag_265\n        /* \"#utility.yul\":6623:6626   */\n      dup3\n        /* \"#utility.yul\":6534:6627   */\n      tag_159\n      jump\t// in\n    tag_265:\n        /* \"#utility.yul\":6652:6654   */\n      0x20\n        /* \"#utility.yul\":6647:6650   */\n      dup3\n        /* \"#utility.yul\":6643:6655   */\n      add\n        /* \"#utility.yul\":6636:6655   */\n      swap1\n      pop\n        /* \"#utility.yul\":6296:6661   */\n      swap2\n      swap1\n      pop\n      jump\t// out\n        /* \"#utility.yul\":6667:7086   */\n    tag_56:\n        /* \"#utility.yul\":6833:6837   */\n      0x00\n        /* \"#utility.yul\":6871:6873   */\n      0x20\n        /* \"#utility.yul\":6860:6869   */\n      dup3\n        /* \"#utility.yul\":6856:6874   */\n      add\n        /* \"#utility.yul\":6848:6874   */\n      swap1\n      pop\n        /* \"#utility.yul\":6920:6929   */\n      dup2\n        /* \"#utility.yul\":6914:6918   */\n      dup2\n        /* \"#utility.yul\":6910:6930   */\n      sub\n        /* \"#utility.yul\":6906:6907   */\n      0x00\n        /* \"#utility.yul\":6895:6904   */\n      dup4\n        /* \"#utility.yul\":6891:6908   */\n      add\n        /* \"#utility.yul\":6884:6931   */\n      mstore\n        /* \"#utility.yul\":6948:7079   */\n      tag_267\n        /* \"#utility.yul\":7074:7078   */\n      dup2\n        /* \"#utility.yul\":6948:7079   */\n      tag_160\n      jump\t// in\n    tag_267:\n        /* \"#utility.yul\":6940:7079   */\n      swap1\n      pop\n        /* \"#utility.yul\":6667:7086   */\n      swap2\n      swap1\n      pop\n      jump\t// out\n        /* \"#utility.yul\":7092:7254   */\n    tag_161:\n        /* \"#utility.yul\":7232:7246   */\n      0x676f616c20737563636573730000000000000000000000000000000000000000\n        /* \"#utility.yul\":7228:7229   */\n      0x00\n        /* \"#utility.yul\":7220:7226   */\n      dup3\n        /* \"#utility.yul\":7216:7230   */\n      add\n        /* \"#utility.yul\":7209:7247   */\n      mstore\n        /* \"#utility.yul\":7092:7254   */\n      pop\n      jump\t// out\n        /* \"#utility.yul\":7260:7626   */\n    tag_162:\n        /* \"#utility.yul\":7402:7405   */\n      0x00\n        /* \"#utility.yul\":7423:7490   */\n      tag_270\n        /* \"#utility.yul\":7487:7489   */\n      0x0c\n        /* \"#utility.yul\":7482:7485   */\n      dup4\n        /* \"#utility.yul\":7423:7490   */\n      tag_158\n      jump\t// in\n    tag_270:\n        /* \"#utility.yul\":7416:7490   */\n      swap2\n      pop\n        /* \"#utility.yul\":7499:7592   */\n      tag_271\n        /* \"#utility.yul\":7588:7591   */\n      dup3\n        /* \"#utility.yul\":7499:7592   */\n      tag_161\n      jump\t// in\n    tag_271:\n        /* \"#utility.yul\":7617:7619   */\n      0x20\n        /* \"#utility.yul\":7612:7615   */\n      dup3\n        /* \"#utility.yul\":7608:7620   */\n      add\n        /* \"#utility.yul\":7601:7620   */\n      swap1\n      pop\n        /* \"#utility.yul\":7260:7626   */\n      swap2\n      swap1\n      pop\n      jump\t// out\n        /* \"#utility.yul\":7632:8051   */\n    tag_59:\n        /* \"#utility.yul\":7798:7802   */\n      0x00\n        /* \"#utility.yul\":7836:7838   */\n      0x20\n        /* \"#utility.yul\":7825:7834   */\n      dup3\n        /* \"#utility.yul\":7821:7839   */\n      add\n        /* \"#utility.yul\":7813:7839   */\n      swap1\n      pop\n        /* \"#utility.yul\":7885:7894   */\n      dup2\n        /* \"#utility.yul\":7879:7883   */\n      dup2\n        /* \"#utility.yul\":7875:7895   */\n      sub\n        /* \"#utility.yul\":7871:7872   */\n      0x00\n        /* \"#utility.yul\":7860:7869   */\n      dup4\n        /* \"#utility.yul\":7856:7873   */\n      add\n        /* \"#utility.yul\":7849:7896   */\n      mstore\n        /* \"#utility.yul\":7913:8044   */\n      tag_273\n        /* \"#utility.yul\":8039:8043   */\n      dup2\n        /* \"#utility.yul\":7913:8044   */\n      tag_162\n      jump\t// in\n    tag_273:\n        /* \"#utility.yul\":7905:8044   */\n      swap1\n      pop\n        /* \"#utility.yul\":7632:8051   */\n      swap2\n      swap1\n      pop\n      jump\t// out\n        /* \"#utility.yul\":8057:8389   */\n    tag_61:\n        /* \"#utility.yul\":8178:8182   */\n      0x00\n        /* \"#utility.yul\":8216:8218   */\n      0x40\n        /* \"#utility.yul\":8205:8214   */\n      dup3\n        /* \"#utility.yul\":8201:8219   */\n      add\n        /* \"#utility.yul\":8193:8219   */\n      swap1\n      pop\n        /* \"#utility.yul\":8229:8300   */\n      tag_275\n        /* \"#utility.yul\":8297:8298   */\n      0x00\n        /* \"#utility.yul\":8286:8295   */\n      dup4\n        /* \"#utility.yul\":8282:8299   */\n      add\n        /* \"#utility.yul\":8273:8279   */\n      dup6\n        /* \"#utility.yul\":8229:8300   */\n      tag_149\n      jump\t// in\n    tag_275:\n        /* \"#utility.yul\":8310:8382   */\n      tag_276\n        /* \"#utility.yul\":8378:8380   */\n      0x20\n        /* \"#utility.yul\":8367:8376   */\n      dup4\n        /* \"#utility.yul\":8363:8381   */\n      add\n        /* \"#utility.yul\":8354:8360   */\n      dup5\n        /* \"#utility.yul\":8310:8382   */\n      tag_145\n      jump\t// in\n    tag_276:\n        /* \"#utility.yul\":8057:8389   */\n      swap4\n      swap3\n      pop\n      pop\n      pop\n      jump\t// out\n        /* \"#utility.yul\":8395:8511   */\n    tag_163:\n        /* \"#utility.yul\":8465:8486   */\n      tag_278\n        /* \"#utility.yul\":8480:8485   */\n      dup2\n        /* \"#utility.yul\":8465:8486   */\n      tag_151\n      jump\t// in\n    tag_278:\n        /* \"#utility.yul\":8458:8463   */\n      dup2\n        /* \"#utility.yul\":8455:8487   */\n      eq\n        /* \"#utility.yul\":8445:8505   */\n      tag_279\n      jumpi\n        /* \"#utility.yul\":8501:8502   */\n      0x00\n        /* \"#utility.yul\":8498:8499   */\n      dup1\n        /* \"#utility.yul\":8491:8503   */\n      revert\n        /* \"#utility.yul\":8445:8505   */\n    tag_279:\n        /* \"#utility.yul\":8395:8511   */\n      pop\n      jump\t// out\n        /* \"#utility.yul\":8517:8654   */\n    tag_164:\n        /* \"#utility.yul\":8571:8576   */\n      0x00\n        /* \"#utility.yul\":8602:8608   */\n      dup2\n        /* \"#utility.yul\":8596:8609   */\n      mload\n        /* \"#utility.yul\":8587:8609   */\n      swap1\n      pop\n        /* \"#utility.yul\":8618:8648   */\n      tag_281\n        /* \"#utility.yul\":8642:8647   */\n      dup2\n        /* \"#utility.yul\":8618:8648   */\n      tag_163\n      jump\t// in\n    tag_281:\n        /* \"#utility.yul\":8517:8654   */\n      swap3\n      swap2\n      pop\n      pop\n      jump\t// out\n        /* \"#utility.yul\":8660:9005   */\n    tag_65:\n        /* \"#utility.yul\":8727:8733   */\n      0x00\n        /* \"#utility.yul\":8776:8778   */\n      0x20\n        /* \"#utility.yul\":8764:8773   */\n      dup3\n        /* \"#utility.yul\":8755:8762   */\n      dup5\n        /* \"#utility.yul\":8751:8774   */\n      sub\n        /* \"#utility.yul\":8747:8779   */\n      slt\n        /* \"#utility.yul\":8744:8863   */\n      iszero\n      tag_283\n      jumpi\n        /* \"#utility.yul\":8782:8861   */\n      tag_284\n      tag_136\n      jump\t// in\n    tag_284:\n        /* \"#utility.yul\":8744:8863   */\n    tag_283:\n        /* \"#utility.yul\":8902:8903   */\n      0x00\n        /* \"#utility.yul\":8927:8988   */\n      tag_285\n        /* \"#utility.yul\":8980:8987   */\n      dup5\n        /* \"#utility.yul\":8971:8977   */\n      dup3\n        /* \"#utility.yul\":8960:8969   */\n      dup6\n        /* \"#utility.yul\":8956:8978   */\n      add\n        /* \"#utility.yul\":8927:8988   */\n      tag_164\n      jump\t// in\n    tag_285:\n        /* \"#utility.yul\":8917:8988   */\n      swap2\n      pop\n        /* \"#utility.yul\":8873:8998   */\n      pop\n        /* \"#utility.yul\":8660:9005   */\n      swap3\n      swap2\n      pop\n      pop\n      jump\t// out\n        /* \"#utility.yul\":9011:9172   */\n    tag_165:\n        /* \"#utility.yul\":9151:9164   */\n      0x6e6f742063726561746f72000000000000000000000000000000000000000000\n        /* \"#utility.yul\":9147:9148   */\n      0x00\n        /* \"#utility.yul\":9139:9145   */\n      dup3\n        /* \"#utility.yul\":9135:9149   */\n      add\n        /* \"#utility.yul\":9128:9165   */\n      mstore\n        /* \"#utility.yul\":9011:9172   */\n      pop\n      jump\t// out\n        /* \"#utility.yul\":9178:9544   */\n    tag_166:\n        /* \"#utility.yul\":9320:9323   */\n      0x00\n        /* \"#utility.yul\":9341:9408   */\n      tag_288\n        /* \"#utility.yul\":9405:9407   */\n      0x0b\n        /* \"#utility.yul\":9400:9403   */\n      dup4\n        /* \"#utility.yul\":9341:9408   */\n      tag_158\n      jump\t// in\n    tag_288:\n        /* \"#utility.yul\":9334:9408   */\n      swap2\n      pop\n        /* \"#utility.yul\":9417:9510   */\n      tag_289\n        /* \"#utility.yul\":9506:9509   */\n      dup3\n        /* \"#utility.yul\":9417:9510   */\n      tag_165\n      jump\t// in\n    tag_289:\n        /* \"#utility.yul\":9535:9537   */\n      0x20\n        /* \"#utility.yul\":9530:9533   */\n      dup3\n        /* \"#utility.yul\":9526:9538   */\n      add\n        /* \"#utility.yul\":9519:9538   */\n      swap1\n      pop\n        /* \"#utility.yul\":9178:9544   */\n      swap2\n      swap1\n      pop\n      jump\t// out\n        /* \"#utility.yul\":9550:9969   */\n    tag_72:\n        /* \"#utility.yul\":9716:9720   */\n      0x00\n        /* \"#utility.yul\":9754:9756   */\n      0x20\n        /* \"#utility.yul\":9743:9752   */\n      dup3\n        /* \"#utility.yul\":9739:9757   */\n      add\n        /* \"#utility.yul\":9731:9757   */\n      swap1\n      pop\n        /* \"#utility.yul\":9803:9812   */\n      dup2\n        /* \"#utility.yul\":9797:9801   */\n      dup2\n        /* \"#utility.yul\":9793:9813   */\n      sub\n        /* \"#utility.yul\":9789:9790   */\n      0x00\n        /* \"#utility.yul\":9778:9787   */\n      dup4\n        /* \"#utility.yul\":9774:9791   */\n      add\n        /* \"#utility.yul\":9767:9814   */\n      mstore\n        /* \"#utility.yul\":9831:9962   */\n      tag_291\n        /* \"#utility.yul\":9957:9961   */\n      dup2\n        /* \"#utility.yul\":9831:9962   */\n      tag_166\n      jump\t// in\n    tag_291:\n        /* \"#utility.yul\":9823:9962   */\n      swap1\n      pop\n        /* \"#utility.yul\":9550:9969   */\n      swap2\n      swap1\n      pop\n      jump\t// out\n        /* \"#utility.yul\":9975:10134   */\n    tag_167:\n        /* \"#utility.yul\":10115:10126   */\n      0x676f616c206661696c0000000000000000000000000000000000000000000000\n        /* \"#utility.yul\":10111:10112   */\n      0x00\n        /* \"#utility.yul\":10103:10109   */\n      dup3\n        /* \"#utility.yul\":10099:10113   */\n      add\n        /* \"#utility.yul\":10092:10127   */\n      mstore\n        /* \"#utility.yul\":9975:10134   */\n      pop\n      jump\t// out\n        /* \"#utility.yul\":10140:10505   */\n    tag_168:\n        /* \"#utility.yul\":10282:10285   */\n      0x00\n        /* \"#utility.yul\":10303:10369   */\n      tag_294\n        /* \"#utility.yul\":10367:10368   */\n      0x09\n        /* \"#utility.yul\":10362:10365   */\n      dup4\n        /* \"#utility.yul\":10303:10369   */\n      tag_158\n      jump\t// in\n    tag_294:\n        /* \"#utility.yul\":10296:10369   */\n      swap2\n      pop\n        /* \"#utility.yul\":10378:10471   */\n      tag_295\n        /* \"#utility.yul\":10467:10470   */\n      dup3\n        /* \"#utility.yul\":10378:10471   */\n      tag_167\n      jump\t// in\n    tag_295:\n        /* \"#utility.yul\":10496:10498   */\n      0x20\n        /* \"#utility.yul\":10491:10494   */\n      dup3\n        /* \"#utility.yul\":10487:10499   */\n      add\n        /* \"#utility.yul\":10480:10499   */\n      swap1\n      pop\n        /* \"#utility.yul\":10140:10505   */\n      swap2\n      swap1\n      pop\n      jump\t// out\n        /* \"#utility.yul\":10511:10930   */\n    tag_75:\n        /* \"#utility.yul\":10677:10681   */\n      0x00\n        /* \"#utility.yul\":10715:10717   */\n      0x20\n        /* \"#utility.yul\":10704:10713   */\n      dup3\n        /* \"#utility.yul\":10700:10718   */\n      add\n        /* \"#utility.yul\":10692:10718   */\n      swap1\n      pop\n        /* \"#utility.yul\":10764:10773   */\n      dup2\n        /* \"#utility.yul\":10758:10762   */\n      dup2\n        /* \"#utility.yul\":10754:10774   */\n      sub\n        /* \"#utility.yul\":10750:10751   */\n      0x00\n        /* \"#utility.yul\":10739:10748   */\n      dup4\n        /* \"#utility.yul\":10735:10752   */\n      add\n        /* \"#utility.yul\":10728:10775   */\n      mstore\n        /* \"#utility.yul\":10792:10923   */\n      tag_297\n        /* \"#utility.yul\":10918:10922   */\n      dup2\n        /* \"#utility.yul\":10792:10923   */\n      tag_168\n      jump\t// in\n    tag_297:\n        /* \"#utility.yul\":10784:10923   */\n      swap1\n      pop\n        /* \"#utility.yul\":10511:10930   */\n      swap2\n      swap1\n      pop\n      jump\t// out\n        /* \"#utility.yul\":10936:11093   */\n    tag_169:\n        /* \"#utility.yul\":11076:11085   */\n      0x636c61696d656400000000000000000000000000000000000000000000000000\n        /* \"#utility.yul\":11072:11073   */\n      0x00\n        /* \"#utility.yul\":11064:11070   */\n      dup3\n        /* \"#utility.yul\":11060:11074   */\n      add\n        /* \"#utility.yul\":11053:11086   */\n      mstore\n        /* \"#utility.yul\":10936:11093   */\n      pop\n      jump\t// out\n        /* \"#utility.yul\":11099:11464   */\n    tag_170:\n        /* \"#utility.yul\":11241:11244   */\n      0x00\n        /* \"#utility.yul\":11262:11328   */\n      tag_300\n        /* \"#utility.yul\":11326:11327   */\n      0x07\n        /* \"#utility.yul\":11321:11324   */\n      dup4\n        /* \"#utility.yul\":11262:11328   */\n      tag_158\n      jump\t// in\n    tag_300:\n        /* \"#utility.yul\":11255:11328   */\n      swap2\n      pop\n        /* \"#utility.yul\":11337:11430   */\n      tag_301\n        /* \"#utility.yul\":11426:11429   */\n      dup3\n        /* \"#utility.yul\":11337:11430   */\n      tag_169\n      jump\t// in\n    tag_301:\n        /* \"#utility.yul\":11455:11457   */\n      0x20\n        /* \"#utility.yul\":11450:11453   */\n      dup3\n        /* \"#utility.yul\":11446:11458   */\n      add\n        /* \"#utility.yul\":11439:11458   */\n      swap1\n      pop\n        /* \"#utility.yul\":11099:11464   */\n      swap2\n      swap1\n      pop\n      jump\t// out\n        /* \"#utility.yul\":11470:11889   */\n    tag_78:\n        /* \"#utility.yul\":11636:11640   */\n      0x00\n        /* \"#utility.yul\":11674:11676   */\n      0x20\n        /* \"#utility.yul\":11663:11672   */\n      dup3\n        /* \"#utility.yul\":11659:11677   */\n      add\n        /* \"#utility.yul\":11651:11677   */\n      swap1\n      pop\n        /* \"#utility.yul\":11723:11732   */\n      dup2\n        /* \"#utility.yul\":11717:11721   */\n      dup2\n        /* \"#utility.yul\":11713:11733   */\n      sub\n        /* \"#utility.yul\":11709:11710   */\n      0x00\n        /* \"#utility.yul\":11698:11707   */\n      dup4\n        /* \"#utility.yul\":11694:11711   */\n      add\n        /* \"#utility.yul\":11687:11734   */\n      mstore\n        /* \"#utility.yul\":11751:11882   */\n      tag_303\n        /* \"#utility.yul\":11877:11881   */\n      dup2\n        /* \"#utility.yul\":11751:11882   */\n      tag_170\n      jump\t// in\n    tag_303:\n        /* \"#utility.yul\":11743:11882   */\n      swap1\n      pop\n        /* \"#utility.yul\":11470:11889   */\n      swap2\n      swap1\n      pop\n      jump\t// out\n        /* \"#utility.yul\":11895:12052   */\n    tag_171:\n        /* \"#utility.yul\":12035:12044   */\n      0x7374617274656400000000000000000000000000000000000000000000000000\n        /* \"#utility.yul\":12031:12032   */\n      0x00\n        /* \"#utility.yul\":12023:12029   */\n      dup3\n        /* \"#utility.yul\":12019:12033   */\n      add\n        /* \"#utility.yul\":12012:12045   */\n      mstore\n        /* \"#utility.yul\":11895:12052   */\n      pop\n      jump\t// out\n        /* \"#utility.yul\":12058:12423   */\n    tag_172:\n        /* \"#utility.yul\":12200:12203   */\n      0x00\n        /* \"#utility.yul\":12221:12287   */\n      tag_306\n        /* \"#utility.yul\":12285:12286   */\n      0x07\n        /* \"#utility.yul\":12280:12283   */\n      dup4\n        /* \"#utility.yul\":12221:12287   */\n      tag_158\n      jump\t// in\n    tag_306:\n        /* \"#utility.yul\":12214:12287   */\n      swap2\n      pop\n        /* \"#utility.yul\":12296:12389   */\n      tag_307\n        /* \"#utility.yul\":12385:12388   */\n      dup3\n        /* \"#utility.yul\":12296:12389   */\n      tag_171\n      jump\t// in\n    tag_307:\n        /* \"#utility.yul\":12414:12416   */\n      0x20\n        /* \"#utility.yul\":12409:12412   */\n      dup3\n        /* \"#utility.yul\":12405:12417   */\n      add\n        /* \"#utility.yul\":12398:12417   */\n      swap1\n      pop\n        /* \"#utility.yul\":12058:12423   */\n      swap2\n      swap1\n      pop\n      jump\t// out\n        /* \"#utility.yul\":12429:12848   */\n    tag_89:\n        /* \"#utility.yul\":12595:12599   */\n      0x00\n        /* \"#utility.yul\":12633:12635   */\n      0x20\n        /* \"#utility.yul\":12622:12631   */\n      dup3\n        /* \"#utility.yul\":12618:12636   */\n      add\n        /* \"#utility.yul\":12610:12636   */\n      swap1\n      pop\n        /* \"#utility.yul\":12682:12691   */\n      dup2\n        /* \"#utility.yul\":12676:12680   */\n      dup2\n        /* \"#utility.yul\":12672:12692   */\n      sub\n        /* \"#utility.yul\":12668:12669   */\n      0x00\n        /* \"#utility.yul\":12657:12666   */\n      dup4\n        /* \"#utility.yul\":12653:12670   */\n      add\n        /* \"#utility.yul\":12646:12693   */\n      mstore\n        /* \"#utility.yul\":12710:12841   */\n      tag_309\n        /* \"#utility.yul\":12836:12840   */\n      dup2\n        /* \"#utility.yul\":12710:12841   */\n      tag_172\n      jump\t// in\n    tag_309:\n        /* \"#utility.yul\":12702:12841   */\n      swap1\n      pop\n        /* \"#utility.yul\":12429:12848   */\n      swap2\n      swap1\n      pop\n      jump\t// out\n        /* \"#utility.yul\":12854:13009   */\n    tag_173:\n        /* \"#utility.yul\":12994:13001   */\n      0x656e646564000000000000000000000000000000000000000000000000000000\n        /* \"#utility.yul\":12990:12991   */\n      0x00\n        /* \"#utility.yul\":12982:12988   */\n      dup3\n        /* \"#utility.yul\":12978:12992   */\n      add\n        /* \"#utility.yul\":12971:13002   */\n      mstore\n        /* \"#utility.yul\":12854:13009   */\n      pop\n      jump\t// out\n        /* \"#utility.yul\":13015:13380   */\n    tag_174:\n        /* \"#utility.yul\":13157:13160   */\n      0x00\n        /* \"#utility.yul\":13178:13244   */\n      tag_312\n        /* \"#utility.yul\":13242:13243   */\n      0x05\n        /* \"#utility.yul\":13237:13240   */\n      dup4\n        /* \"#utility.yul\":13178:13244   */\n      tag_158\n      jump\t// in\n    tag_312:\n        /* \"#utility.yul\":13171:13244   */\n      swap2\n      pop\n        /* \"#utility.yul\":13253:13346   */\n      tag_313\n        /* \"#utility.yul\":13342:13345   */\n      dup3\n        /* \"#utility.yul\":13253:13346   */\n      tag_173\n      jump\t// in\n    tag_313:\n        /* \"#utility.yul\":13371:13373   */\n      0x20\n        /* \"#utility.yul\":13366:13369   */\n      dup3\n        /* \"#utility.yul\":13362:13374   */\n      add\n        /* \"#utility.yul\":13355:13374   */\n      swap1\n      pop\n        /* \"#utility.yul\":13015:13380   */\n      swap2\n      swap1\n      pop\n      jump\t// out\n        /* \"#utility.yul\":13386:13805   */\n    tag_94:\n        /* \"#utility.yul\":13552:13556   */\n      0x00\n        /* \"#utility.yul\":13590:13592   */\n      0x20\n        /* \"#utility.yul\":13579:13588   */\n      dup3\n        /* \"#utility.yul\":13575:13593   */\n      add\n        /* \"#utility.yul\":13567:13593   */\n      swap1\n      pop\n        /* \"#utility.yul\":13639:13648   */\n      dup2\n        /* \"#utility.yul\":13633:13637   */\n      dup2\n        /* \"#utility.yul\":13629:13649   */\n      sub\n        /* \"#utility.yul\":13625:13626   */\n      0x00\n        /* \"#utility.yul\":13614:13623   */\n      dup4\n        /* \"#utility.yul\":13610:13627   */\n      add\n        /* \"#utility.yul\":13603:13650   */\n      mstore\n        /* \"#utility.yul\":13667:13798   */\n      tag_315\n        /* \"#utility.yul\":13793:13797   */\n      dup2\n        /* \"#utility.yul\":13667:13798   */\n      tag_174\n      jump\t// in\n    tag_315:\n        /* \"#utility.yul\":13659:13798   */\n      swap1\n      pop\n        /* \"#utility.yul\":13386:13805   */\n      swap2\n      swap1\n      pop\n      jump\t// out\n        /* \"#utility.yul\":13811:13972   */\n    tag_175:\n        /* \"#utility.yul\":13951:13964   */\n      0x6f76657220657863656564000000000000000000000000000000000000000000\n        /* \"#utility.yul\":13947:13948   */\n      0x00\n        /* \"#utility.yul\":13939:13945   */\n      dup3\n        /* \"#utility.yul\":13935:13949   */\n      add\n        /* \"#utility.yul\":13928:13965   */\n      mstore\n        /* \"#utility.yul\":13811:13972   */\n      pop\n      jump\t// out\n        /* \"#utility.yul\":13978:14344   */\n    tag_176:\n        /* \"#utility.yul\":14120:14123   */\n      0x00\n        /* \"#utility.yul\":14141:14208   */\n      tag_318\n        /* \"#utility.yul\":14205:14207   */\n      0x0b\n        /* \"#utility.yul\":14200:14203   */\n      dup4\n        /* \"#utility.yul\":14141:14208   */\n      tag_158\n      jump\t// in\n    tag_318:\n        /* \"#utility.yul\":14134:14208   */\n      swap2\n      pop\n        /* \"#utility.yul\":14217:14310   */\n      tag_319\n        /* \"#utility.yul\":14306:14309   */\n      dup3\n        /* \"#utility.yul\":14217:14310   */\n      tag_175\n      jump\t// in\n    tag_319:\n        /* \"#utility.yul\":14335:14337   */\n      0x20\n        /* \"#utility.yul\":14330:14333   */\n      dup3\n        /* \"#utility.yul\":14326:14338   */\n      add\n        /* \"#utility.yul\":14319:14338   */\n      swap1\n      pop\n        /* \"#utility.yul\":13978:14344   */\n      swap2\n      swap1\n      pop\n      jump\t// out\n        /* \"#utility.yul\":14350:14769   */\n    tag_97:\n        /* \"#utility.yul\":14516:14520   */\n      0x00\n        /* \"#utility.yul\":14554:14556   */\n      0x20\n        /* \"#utility.yul\":14543:14552   */\n      dup3\n        /* \"#utility.yul\":14539:14557   */\n      add\n        /* \"#utility.yul\":14531:14557   */\n      swap1\n      pop\n        /* \"#utility.yul\":14603:14612   */\n      dup2\n        /* \"#utility.yul\":14597:14601   */\n      dup2\n        /* \"#utility.yul\":14593:14613   */\n      sub\n        /* \"#utility.yul\":14589:14590   */\n      0x00\n        /* \"#utility.yul\":14578:14587   */\n      dup4\n        /* \"#utility.yul\":14574:14591   */\n      add\n        /* \"#utility.yul\":14567:14614   */\n      mstore\n        /* \"#utility.yul\":14631:14762   */\n      tag_321\n        /* \"#utility.yul\":14757:14761   */\n      dup2\n        /* \"#utility.yul\":14631:14762   */\n      tag_176\n      jump\t// in\n    tag_321:\n        /* \"#utility.yul\":14623:14762   */\n      swap1\n      pop\n        /* \"#utility.yul\":14350:14769   */\n      swap2\n      swap1\n      pop\n      jump\t// out\n        /* \"#utility.yul\":14775:14955   */\n    tag_177:\n        /* \"#utility.yul\":14823:14900   */\n      0x4e487b7100000000000000000000000000000000000000000000000000000000\n        /* \"#utility.yul\":14820:14821   */\n      0x00\n        /* \"#utility.yul\":14813:14901   */\n      mstore\n        /* \"#utility.yul\":14920:14924   */\n      0x11\n        /* \"#utility.yul\":14917:14918   */\n      0x04\n        /* \"#utility.yul\":14910:14925   */\n      mstore\n        /* \"#utility.yul\":14944:14948   */\n      0x24\n        /* \"#utility.yul\":14941:14942   */\n      0x00\n        /* \"#utility.yul\":14934:14949   */\n      revert\n        /* \"#utility.yul\":14961:15155   */\n    tag_99:\n        /* \"#utility.yul\":15001:15005   */\n      0x00\n        /* \"#utility.yul\":15021:15041   */\n      tag_324\n        /* \"#utility.yul\":15039:15040   */\n      dup3\n        /* \"#utility.yul\":15021:15041   */\n      tag_138\n      jump\t// in\n    tag_324:\n        /* \"#utility.yul\":15016:15041   */\n      swap2\n      pop\n        /* \"#utility.yul\":15055:15075   */\n      tag_325\n        /* \"#utility.yul\":15073:15074   */\n      dup4\n        /* \"#utility.yul\":15055:15075   */\n      tag_138\n      jump\t// in\n    tag_325:\n        /* \"#utility.yul\":15050:15075   */\n      swap3\n      pop\n        /* \"#utility.yul\":15099:15100   */\n      dup3\n        /* \"#utility.yul\":15096:15097   */\n      dup3\n        /* \"#utility.yul\":15092:15101   */\n      sub\n        /* \"#utility.yul\":15084:15101   */\n      swap1\n      pop\n        /* \"#utility.yul\":15123:15124   */\n      dup2\n        /* \"#utility.yul\":15117:15121   */\n      dup2\n        /* \"#utility.yul\":15114:15125   */\n      gt\n        /* \"#utility.yul\":15111:15148   */\n      iszero\n      tag_326\n      jumpi\n        /* \"#utility.yul\":15128:15146   */\n      tag_327\n      tag_177\n      jump\t// in\n    tag_327:\n        /* \"#utility.yul\":15111:15148   */\n    tag_326:\n        /* \"#utility.yul\":14961:15155   */\n      swap3\n      swap2\n      pop\n      pop\n      jump\t// out\n        /* \"#utility.yul\":15161:15324   */\n    tag_178:\n        /* \"#utility.yul\":15301:15316   */\n      0x73746172744174203c206e6f7700000000000000000000000000000000000000\n        /* \"#utility.yul\":15297:15298   */\n      0x00\n        /* \"#utility.yul\":15289:15295   */\n      dup3\n        /* \"#utility.yul\":15285:15299   */\n      add\n        /* \"#utility.yul\":15278:15317   */\n      mstore\n        /* \"#utility.yul\":15161:15324   */\n      pop\n      jump\t// out\n        /* \"#utility.yul\":15330:15696   */\n    tag_179:\n        /* \"#utility.yul\":15472:15475   */\n      0x00\n        /* \"#utility.yul\":15493:15560   */\n      tag_330\n        /* \"#utility.yul\":15557:15559   */\n      0x0d\n        /* \"#utility.yul\":15552:15555   */\n      dup4\n        /* \"#utility.yul\":15493:15560   */\n      tag_158\n      jump\t// in\n    tag_330:\n        /* \"#utility.yul\":15486:15560   */\n      swap2\n      pop\n        /* \"#utility.yul\":15569:15662   */\n      tag_331\n        /* \"#utility.yul\":15658:15661   */\n      dup3\n        /* \"#utility.yul\":15569:15662   */\n      tag_178\n      jump\t// in\n    tag_331:\n        /* \"#utility.yul\":15687:15689   */\n      0x20\n        /* \"#utility.yul\":15682:15685   */\n      dup3\n        /* \"#utility.yul\":15678:15690   */\n      add\n        /* \"#utility.yul\":15671:15690   */\n      swap1\n      pop\n        /* \"#utility.yul\":15330:15696   */\n      swap2\n      swap1\n      pop\n      jump\t// out\n        /* \"#utility.yul\":15702:16121   */\n    tag_109:\n        /* \"#utility.yul\":15868:15872   */\n      0x00\n        /* \"#utility.yul\":15906:15908   */\n      0x20\n        /* \"#utility.yul\":15895:15904   */\n      dup3\n        /* \"#utility.yul\":15891:15909   */\n      add\n        /* \"#utility.yul\":15883:15909   */\n      swap1\n      pop\n        /* \"#utility.yul\":15955:15964   */\n      dup2\n        /* \"#utility.yul\":15949:15953   */\n      dup2\n        /* \"#utility.yul\":15945:15965   */\n      sub\n        /* \"#utility.yul\":15941:15942   */\n      0x00\n        /* \"#utility.yul\":15930:15939   */\n      dup4\n        /* \"#utility.yul\":15926:15943   */\n      add\n        /* \"#utility.yul\":15919:15966   */\n      mstore\n        /* \"#utility.yul\":15983:16114   */\n      tag_333\n        /* \"#utility.yul\":16109:16113   */\n      dup2\n        /* \"#utility.yul\":15983:16114   */\n      tag_179\n      jump\t// in\n    tag_333:\n        /* \"#utility.yul\":15975:16114   */\n      swap1\n      pop\n        /* \"#utility.yul\":15702:16121   */\n      swap2\n      swap1\n      pop\n      jump\t// out\n        /* \"#utility.yul\":16127:16292   */\n    tag_180:\n        /* \"#utility.yul\":16267:16284   */\n      0x656e644174203c20737461727441740000000000000000000000000000000000\n        /* \"#utility.yul\":16263:16264   */\n      0x00\n        /* \"#utility.yul\":16255:16261   */\n      dup3\n        /* \"#utility.yul\":16251:16265   */\n      add\n        /* \"#utility.yul\":16244:16285   */\n      mstore\n        /* \"#utility.yul\":16127:16292   */\n      pop\n      jump\t// out\n        /* \"#utility.yul\":16298:16664   */\n    tag_181:\n        /* \"#utility.yul\":16440:16443   */\n      0x00\n        /* \"#utility.yul\":16461:16528   */\n      tag_336\n        /* \"#utility.yul\":16525:16527   */\n      0x0f\n        /* \"#utility.yul\":16520:16523   */\n      dup4\n        /* \"#utility.yul\":16461:16528   */\n      tag_158\n      jump\t// in\n    tag_336:\n        /* \"#utility.yul\":16454:16528   */\n      swap2\n      pop\n        /* \"#utility.yul\":16537:16630   */\n      tag_337\n        /* \"#utility.yul\":16626:16629   */\n      dup3\n        /* \"#utility.yul\":16537:16630   */\n      tag_180\n      jump\t// in\n    tag_337:\n        /* \"#utility.yul\":16655:16657   */\n      0x20\n        /* \"#utility.yul\":16650:16653   */\n      dup3\n        /* \"#utility.yul\":16646:16658   */\n      add\n        /* \"#utility.yul\":16639:16658   */\n      swap1\n      pop\n        /* \"#utility.yul\":16298:16664   */\n      swap2\n      swap1\n      pop\n      jump\t// out\n        /* \"#utility.yul\":16670:17089   */\n    tag_112:\n        /* \"#utility.yul\":16836:16840   */\n      0x00\n        /* \"#utility.yul\":16874:16876   */\n      0x20\n        /* \"#utility.yul\":16863:16872   */\n      dup3\n        /* \"#utility.yul\":16859:16877   */\n      add\n        /* \"#utility.yul\":16851:16877   */\n      swap1\n      pop\n        /* \"#utility.yul\":16923:16932   */\n      dup2\n        /* \"#utility.yul\":16917:16921   */\n      dup2\n        /* \"#utility.yul\":16913:16933   */\n      sub\n        /* \"#utility.yul\":16909:16910   */\n      0x00\n        /* \"#utility.yul\":16898:16907   */\n      dup4\n        /* \"#utility.yul\":16894:16911   */\n      add\n        /* \"#utility.yul\":16887:16934   */\n      mstore\n        /* \"#utility.yul\":16951:17082   */\n      tag_339\n        /* \"#utility.yul\":17077:17081   */\n      dup2\n        /* \"#utility.yul\":16951:17082   */\n      tag_181\n      jump\t// in\n    tag_339:\n        /* \"#utility.yul\":16943:17082   */\n      swap1\n      pop\n        /* \"#utility.yul\":16670:17089   */\n      swap2\n      swap1\n      pop\n      jump\t// out\n        /* \"#utility.yul\":17095:17286   */\n    tag_114:\n        /* \"#utility.yul\":17135:17138   */\n      0x00\n        /* \"#utility.yul\":17154:17174   */\n      tag_341\n        /* \"#utility.yul\":17172:17173   */\n      dup3\n        /* \"#utility.yul\":17154:17174   */\n      tag_138\n      jump\t// in\n    tag_341:\n        /* \"#utility.yul\":17149:17174   */\n      swap2\n      pop\n        /* \"#utility.yul\":17188:17208   */\n      tag_342\n        /* \"#utility.yul\":17206:17207   */\n      dup4\n        /* \"#utility.yul\":17188:17208   */\n      tag_138\n      jump\t// in\n    tag_342:\n        /* \"#utility.yul\":17183:17208   */\n      swap3\n      pop\n        /* \"#utility.yul\":17231:17232   */\n      dup3\n        /* \"#utility.yul\":17228:17229   */\n      dup3\n        /* \"#utility.yul\":17224:17233   */\n      add\n        /* \"#utility.yul\":17217:17233   */\n      swap1\n      pop\n        /* \"#utility.yul\":17252:17255   */\n      dup1\n        /* \"#utility.yul\":17249:17250   */\n      dup3\n        /* \"#utility.yul\":17246:17256   */\n      gt\n        /* \"#utility.yul\":17243:17279   */\n      iszero\n      tag_343\n      jumpi\n        /* \"#utility.yul\":17259:17277   */\n      tag_344\n      tag_177\n      jump\t// in\n    tag_344:\n        /* \"#utility.yul\":17243:17279   */\n    tag_343:\n        /* \"#utility.yul\":17095:17286   */\n      swap3\n      swap2\n      pop\n      pop\n      jump\t// out\n        /* \"#utility.yul\":17292:17458   */\n    tag_182:\n        /* \"#utility.yul\":17432:17450   */\n      0x656e644174203e204455524154494f4e00000000000000000000000000000000\n        /* \"#utility.yul\":17428:17429   */\n      0x00\n        /* \"#utility.yul\":17420:17426   */\n      dup3\n        /* \"#utility.yul\":17416:17430   */\n      add\n        /* \"#utility.yul\":17409:17451   */\n      mstore\n        /* \"#utility.yul\":17292:17458   */\n      pop\n      jump\t// out\n        /* \"#utility.yul\":17464:17830   */\n    tag_183:\n        /* \"#utility.yul\":17606:17609   */\n      0x00\n        /* \"#utility.yul\":17627:17694   */\n      tag_347\n        /* \"#utility.yul\":17691:17693   */\n      0x10\n        /* \"#utility.yul\":17686:17689   */\n      dup4\n        /* \"#utility.yul\":17627:17694   */\n      tag_158\n      jump\t// in\n    tag_347:\n        /* \"#utility.yul\":17620:17694   */\n      swap2\n      pop\n        /* \"#utility.yul\":17703:17796   */\n      tag_348\n        /* \"#utility.yul\":17792:17795   */\n      dup3\n        /* \"#utility.yul\":17703:17796   */\n      tag_182\n      jump\t// in\n    tag_348:\n        /* \"#utility.yul\":17821:17823   */\n      0x20\n        /* \"#utility.yul\":17816:17819   */\n      dup3\n        /* \"#utility.yul\":17812:17824   */\n      add\n        /* \"#utility.yul\":17805:17824   */\n      swap1\n      pop\n        /* \"#utility.yul\":17464:17830   */\n      swap2\n      swap1\n      pop\n      jump\t// out\n        /* \"#utility.yul\":17836:18255   */\n    tag_117:\n        /* \"#utility.yul\":18002:18006   */\n      0x00\n        /* \"#utility.yul\":18040:18042   */\n      0x20\n        /* \"#utility.yul\":18029:18038   */\n      dup3\n        /* \"#utility.yul\":18025:18043   */\n      add\n        /* \"#utility.yul\":18017:18043   */\n      swap1\n      pop\n        /* \"#utility.yul\":18089:18098   */\n      dup2\n        /* \"#utility.yul\":18083:18087   */\n      dup2\n        /* \"#utility.yul\":18079:18099   */\n      sub\n        /* \"#utility.yul\":18075:18076   */\n      0x00\n        /* \"#utility.yul\":18064:18073   */\n      dup4\n        /* \"#utility.yul\":18060:18077   */\n      add\n        /* \"#utility.yul\":18053:18100   */\n      mstore\n        /* \"#utility.yul\":18117:18248   */\n      tag_350\n        /* \"#utility.yul\":18243:18247   */\n      dup2\n        /* \"#utility.yul\":18117:18248   */\n      tag_183\n      jump\t// in\n    tag_350:\n        /* \"#utility.yul\":18109:18248   */\n      swap1\n      pop\n        /* \"#utility.yul\":17836:18255   */\n      swap2\n      swap1\n      pop\n      jump\t// out\n        /* \"#utility.yul\":18261:18695   */\n    tag_120:\n        /* \"#utility.yul\":18406:18410   */\n      0x00\n        /* \"#utility.yul\":18444:18446   */\n      0x60\n        /* \"#utility.yul\":18433:18442   */\n      dup3\n        /* \"#utility.yul\":18429:18447   */\n      add\n        /* \"#utility.yul\":18421:18447   */\n      swap1\n      pop\n        /* \"#utility.yul\":18457:18528   */\n      tag_352\n        /* \"#utility.yul\":18525:18526   */\n      0x00\n        /* \"#utility.yul\":18514:18523   */\n      dup4\n        /* \"#utility.yul\":18510:18527   */\n      add\n        /* \"#utility.yul\":18501:18507   */\n      dup7\n        /* \"#utility.yul\":18457:18528   */\n      tag_145\n      jump\t// in\n    tag_352:\n        /* \"#utility.yul\":18538:18608   */\n      tag_353\n        /* \"#utility.yul\":18604:18606   */\n      0x20\n        /* \"#utility.yul\":18593:18602   */\n      dup4\n        /* \"#utility.yul\":18589:18607   */\n      add\n        /* \"#utility.yul\":18580:18586   */\n      dup6\n        /* \"#utility.yul\":18538:18608   */\n      tag_150\n      jump\t// in\n    tag_353:\n        /* \"#utility.yul\":18618:18688   */\n      tag_354\n        /* \"#utility.yul\":18684:18686   */\n      0x40\n        /* \"#utility.yul\":18673:18682   */\n      dup4\n        /* \"#utility.yul\":18669:18687   */\n      add\n        /* \"#utility.yul\":18660:18666   */\n      dup5\n        /* \"#utility.yul\":18618:18688   */\n      tag_150\n      jump\t// in\n    tag_354:\n        /* \"#utility.yul\":18261:18695   */\n      swap5\n      swap4\n      pop\n      pop\n      pop\n      pop\n      jump\t// out\n        /* \"#utility.yul\":18701:18860   */\n    tag_184:\n        /* \"#utility.yul\":18841:18852   */\n      0x6e6f742073746172740000000000000000000000000000000000000000000000\n        /* \"#utility.yul\":18837:18838   */\n      0x00\n        /* \"#utility.yul\":18829:18835   */\n      dup3\n        /* \"#utility.yul\":18825:18839   */\n      add\n        /* \"#utility.yul\":18818:18853   */\n      mstore\n        /* \"#utility.yul\":18701:18860   */\n      pop\n      jump\t// out\n        /* \"#utility.yul\":18866:19231   */\n    tag_185:\n        /* \"#utility.yul\":19008:19011   */\n      0x00\n        /* \"#utility.yul\":19029:19095   */\n      tag_357\n        /* \"#utility.yul\":19093:19094   */\n      0x09\n        /* \"#utility.yul\":19088:19091   */\n      dup4\n        /* \"#utility.yul\":19029:19095   */\n      tag_158\n      jump\t// in\n    tag_357:\n        /* \"#utility.yul\":19022:19095   */\n      swap2\n      pop\n        /* \"#utility.yul\":19104:19197   */\n      tag_358\n        /* \"#utility.yul\":19193:19196   */\n      dup3\n        /* \"#utility.yul\":19104:19197   */\n      tag_184\n      jump\t// in\n    tag_358:\n        /* \"#utility.yul\":19222:19224   */\n      0x20\n        /* \"#utility.yul\":19217:19220   */\n      dup3\n        /* \"#utility.yul\":19213:19225   */\n      add\n        /* \"#utility.yul\":19206:19225   */\n      swap1\n      pop\n        /* \"#utility.yul\":18866:19231   */\n      swap2\n      swap1\n      pop\n      jump\t// out\n        /* \"#utility.yul\":19237:19656   */\n    tag_124:\n        /* \"#utility.yul\":19403:19407   */\n      0x00\n        /* \"#utility.yul\":19441:19443   */\n      0x20\n        /* \"#utility.yul\":19430:19439   */\n      dup3\n        /* \"#utility.yul\":19426:19444   */\n      add\n        /* \"#utility.yul\":19418:19444   */\n      swap1\n      pop\n        /* \"#utility.yul\":19490:19499   */\n      dup2\n        /* \"#utility.yul\":19484:19488   */\n      dup2\n        /* \"#utility.yul\":19480:19500   */\n      sub\n        /* \"#utility.yul\":19476:19477   */\n      0x00\n        /* \"#utility.yul\":19465:19474   */\n      dup4\n        /* \"#utility.yul\":19461:19478   */\n      add\n        /* \"#utility.yul\":19454:19501   */\n      mstore\n        /* \"#utility.yul\":19518:19649   */\n      tag_360\n        /* \"#utility.yul\":19644:19648   */\n      dup2\n        /* \"#utility.yul\":19518:19649   */\n      tag_185\n      jump\t// in\n    tag_360:\n        /* \"#utility.yul\":19510:19649   */\n      swap1\n      pop\n        /* \"#utility.yul\":19237:19656   */\n      swap2\n      swap1\n      pop\n      jump\t// out\n        /* \"#utility.yul\":19662:20104   */\n    tag_130:\n        /* \"#utility.yul\":19811:19815   */\n      0x00\n        /* \"#utility.yul\":19849:19851   */\n      0x60\n        /* \"#utility.yul\":19838:19847   */\n      dup3\n        /* \"#utility.yul\":19834:19852   */\n      add\n        /* \"#utility.yul\":19826:19852   */\n      swap1\n      pop\n        /* \"#utility.yul\":19862:19933   */\n      tag_362\n        /* \"#utility.yul\":19930:19931   */\n      0x00\n        /* \"#utility.yul\":19919:19928   */\n      dup4\n        /* \"#utility.yul\":19915:19932   */\n      add\n        /* \"#utility.yul\":19906:19912   */\n      dup7\n        /* \"#utility.yul\":19862:19933   */\n      tag_149\n      jump\t// in\n    tag_362:\n        /* \"#utility.yul\":19943:20015   */\n      tag_363\n        /* \"#utility.yul\":20011:20013   */\n      0x20\n        /* \"#utility.yul\":20000:20009   */\n      dup4\n        /* \"#utility.yul\":19996:20014   */\n      add\n        /* \"#utility.yul\":19987:19993   */\n      dup6\n        /* \"#utility.yul\":19943:20015   */\n      tag_149\n      jump\t// in\n    tag_363:\n        /* \"#utility.yul\":20025:20097   */\n      tag_364\n        /* \"#utility.yul\":20093:20095   */\n      0x40\n        /* \"#utility.yul\":20082:20091   */\n      dup4\n        /* \"#utility.yul\":20078:20096   */\n      add\n        /* \"#utility.yul\":20069:20075   */\n      dup5\n        /* \"#utility.yul\":20025:20097   */\n      tag_145\n      jump\t// in\n    tag_364:\n        /* \"#utility.yul\":19662:20104   */\n      swap5\n      swap4\n      pop\n      pop\n      pop\n      pop\n      jump\t// out\n\n    auxdata: 0xa26469706673582212208bd1c9335c287ba8670ad60aa984a763a9ea8f2df347a5a0a2214e29cccec29f64736f6c634300081a0033\n}\n",
				"bytecode": {
					"linkReferences": {},
					"object": "60a060405234801561000f575f80fd5b50604051611cbe380380611cbe833981810160405281019061003191906100c9565b8073ffffffffffffffffffffffffffffffffffffffff1660808173ffffffffffffffffffffffffffffffffffffffff1681525050506100f4565b5f80fd5b5f73ffffffffffffffffffffffffffffffffffffffff82169050919050565b5f6100988261006f565b9050919050565b6100a88161008e565b81146100b2575f80fd5b50565b5f815190506100c38161009f565b92915050565b5f602082840312156100de576100dd61006b565b5b5f6100eb848285016100b5565b91505092915050565b608051611b966101285f395f818161040e015281816106b501528181610b9501528181610fa901526111130152611b965ff3fe608060405234801561000f575f80fd5b506004361061009c575f3560e01c8063befc98a911610064578063befc98a914610140578063cbc261d71461015c578063e7bd92b914610191578063fc0c546a146101af578063fde327be146101cd5761009c565b8063278ecde1146100a0578063379607f5146100bc57806340e58ee5146100d8578063711853ab146100f4578063aa4fb63a14610110575b5f80fd5b6100ba60048036038101906100b5919061123a565b6101e9565b005b6100d660048036038101906100d1919061123a565b6104fc565b005b6100f260048036038101906100ed919061123a565b6107b0565b005b61010e60048036038101906101099190611265565b610a19565b005b61012a600480360381019061012591906112fd565b610c83565b604051610137919061134a565b60405180910390f35b61015a6004803603810190610155919061139c565b610ca3565b005b6101766004803603810190610171919061123a565b610f21565b60405161018896959493929190611424565b60405180910390f35b610199610fa2565b6040516101a6919061134a565b60405180910390f35b6101b7610fa7565b6040516101c491906114de565b60405180910390f35b6101e760048036038101906101e29190611265565b610fcb565b005b5f60015f8381526020019081526020015f206040518060c00160405290815f82015f9054906101000a900473ffffffffffffffffffffffffffffffffffffffff1673ffffffffffffffffffffffffffffffffffffffff1673ffffffffffffffffffffffffffffffffffffffff1681526020015f820160149054906101000a900463ffffffff1663ffffffff1663ffffffff1681526020015f820160189054906101000a900463ffffffff1663ffffffff1663ffffffff1681526020016001820154815260200160028201548152602001600382015f9054906101000a900460ff1615151515815250509050806040015163ffffffff16421015610321576040517f08c379a000000000000000000000000000000000000000000000000000000000815260040161031890611551565b60405180910390fd5b806060015181608001511061036b576040517f08c379a0000000000000000000000000000000000000000000000000000000008152600401610362906115b9565b60405180910390fd5b5f60025f8481526020019081526020015f205f3373ffffffffffffffffffffffffffffffffffffffff1673ffffffffffffffffffffffffffffffffffffffff1681526020019081526020015f205490505f60025f8581526020019081526020015f205f3373ffffffffffffffffffffffffffffffffffffffff1673ffffffffffffffffffffffffffffffffffffffff1681526020019081526020015f20819055507f000000000000000000000000000000000000000000000000000000000000000073ffffffffffffffffffffffffffffffffffffffff1663a9059cbb33836040518363ffffffff1660e01b81526004016104679291906115d7565b6020604051808303815f875af1158015610483573d5f803e3d5ffd5b505050506040513d601f19601f820116820180604052508101906104a79190611628565b503373ffffffffffffffffffffffffffffffffffffffff16837f21e12a7cad0da5928167e1084ea4d5fdf8d9af66657a2543a9ac76a0ca081477836040516104ef919061134a565b60405180910390a3505050565b5f60015f8381526020019081526020015f209050805f0160189054906101000a900463ffffffff1663ffffffff16421161056b576040517f08c379a000000000000000000000000000000000000000000000000000000000815260040161056290611551565b60405180910390fd5b805f015f9054906101000a900473ffffffffffffffffffffffffffffffffffffffff1673ffffffffffffffffffffffffffffffffffffffff163373ffffffffffffffffffffffffffffffffffffffff16146105fb576040517f08c379a00000000000000000000000000000000000000000000000000000000081526004016105f29061169d565b60405180910390fd5b806001015481600201541015610646576040517f08c379a000000000000000000000000000000000000000000000000000000000815260040161063d90611705565b60405180910390fd5b806003015f9054906101000a900460ff1615610697576040517f08c379a000000000000000000000000000000000000000000000000000000000815260040161068e9061176d565b60405180910390fd5b6001816003015f6101000a81548160ff0219169083151502179055507f000000000000000000000000000000000000000000000000000000000000000073ffffffffffffffffffffffffffffffffffffffff1663a9059cbb825f015f9054906101000a900473ffffffffffffffffffffffffffffffffffffffff1683600201546040518363ffffffff1660e01b81526004016107349291906115d7565b6020604051808303815f875af1158015610750573d5f803e3d5ffd5b505050506040513d601f19601f820116820180604052508101906107749190611628565b507f7bb2b3c10797baccb6f8c4791f1edd6ca2f0d028ee0eda64b01a9a57e3a653f7826040516107a4919061134a565b60405180910390a15050565b5f60015f8381526020019081526020015f206040518060c00160405290815f82015f9054906101000a900473ffffffffffffffffffffffffffffffffffffffff1673ffffffffffffffffffffffffffffffffffffffff1673ffffffffffffffffffffffffffffffffffffffff1681526020015f820160149054906101000a900463ffffffff1663ffffffff1663ffffffff1681526020015f820160189054906101000a900463ffffffff1663ffffffff1663ffffffff1681526020016001820154815260200160028201548152602001600382015f9054906101000a900460ff1615151515815250509050805f015173ffffffffffffffffffffffffffffffffffffffff163373ffffffffffffffffffffffffffffffffffffffff161461090c576040517f08c379a00000000000000000000000000000000000000000000000000000000081526004016109039061169d565b60405180910390fd5b42816020015163ffffffff1610610958576040517f08c379a000000000000000000000000000000000000000000000000000000000815260040161094f906117d5565b60405180910390fd5b60015f8381526020019081526020015f205f8082015f6101000a81549073ffffffffffffffffffffffffffffffffffffffff02191690555f820160146101000a81549063ffffffff02191690555f820160186101000a81549063ffffffff0219169055600182015f9055600282015f9055600382015f6101000a81549060ff021916905550507f8bf30e7ff26833413be5f69e1d373744864d600b664204b4a2f9844a8eedb9ed82604051610a0d919061134a565b60405180910390a15050565b5f60015f8481526020019081526020015f209050805f0160189054906101000a900463ffffffff1663ffffffff164210610a88576040517f08c379a0000000000000000000000000000000000000000000000000000000008152600401610a7f9061183d565b60405180910390fd5b8160025f8581526020019081526020015f205f3373ffffffffffffffffffffffffffffffffffffffff1673ffffffffffffffffffffffffffffffffffffffff1681526020019081526020015f20541015610b17576040517f08c379a0000000000000000000000000000000000000000000000000000000008152600401610b0e906118a5565b60405180910390fd5b81816002015f828254610b2a91906118f0565b925050819055508160025f8581526020019081526020015f205f3373ffffffffffffffffffffffffffffffffffffffff1673ffffffffffffffffffffffffffffffffffffffff1681526020019081526020015f205f828254610b8c91906118f0565b925050819055507f000000000000000000000000000000000000000000000000000000000000000073ffffffffffffffffffffffffffffffffffffffff1663a9059cbb33846040518363ffffffff1660e01b8152600401610bee9291906115d7565b6020604051808303815f875af1158015610c0a573d5f803e3d5ffd5b505050506040513d601f19601f82011682018060405250810190610c2e9190611628565b503373ffffffffffffffffffffffffffffffffffffffff16837fdc63160518c9c709fe39309a0e6f3d567887986a4625cd35090a6689e56e34c084604051610c76919061134a565b60405180910390a3505050565b6002602052815f5260405f20602052805f5260405f205f91509150505481565b428363ffffffff1611610ceb576040517f08c379a0000000000000000000000000000000000000000000000000000000008152600401610ce29061196d565b60405180910390fd5b8263ffffffff168263ffffffff1611610d39576040517f08c379a0000000000000000000000000000000000000000000000000000000008152600401610d30906119d5565b60405180910390fd5b6276a70042610d4891906119f3565b8263ffffffff1610610d8f576040517f08c379a0000000000000000000000000000000000000000000000000000000008152600401610d8690611a70565b60405180910390fd5b5f60015f54610d9e91906119f3565b90506040518060c001604052803373ffffffffffffffffffffffffffffffffffffffff1681526020018563ffffffff1681526020018463ffffffff1681526020018381526020015f81526020015f151581525060015f8381526020019081526020015f205f820151815f015f6101000a81548173ffffffffffffffffffffffffffffffffffffffff021916908373ffffffffffffffffffffffffffffffffffffffff1602179055506020820151815f0160146101000a81548163ffffffff021916908363ffffffff1602179055506040820151815f0160186101000a81548163ffffffff021916908363ffffffff160217905550606082015181600101556080820151816002015560a0820151816003015f6101000a81548160ff0219169083151502179055509050503373ffffffffffffffffffffffffffffffffffffffff16817ff53c69f70da8067d7a640b762952c982bd6580135aaf19973bb3565087bf9b25848787604051610f1393929190611a8e565b60405180910390a350505050565b6001602052805f5260405f205f91509050805f015f9054906101000a900473ffffffffffffffffffffffffffffffffffffffff1690805f0160149054906101000a900463ffffffff1690805f0160189054906101000a900463ffffffff1690806001015490806002015490806003015f9054906101000a900460ff16905086565b5f5481565b7f000000000000000000000000000000000000000000000000000000000000000081565b5f60015f8481526020019081526020015f209050805f0160149054906101000a900463ffffffff1663ffffffff16421161103a576040517f08c379a000000000000000000000000000000000000000000000000000000000815260040161103190611b0d565b60405180910390fd5b805f0160189054906101000a900463ffffffff1663ffffffff164210611095576040517f08c379a000000000000000000000000000000000000000000000000000000000815260040161108c9061183d565b60405180910390fd5b81816002015f8282546110a891906119f3565b925050819055508160025f8581526020019081526020015f205f3373ffffffffffffffffffffffffffffffffffffffff1673ffffffffffffffffffffffffffffffffffffffff1681526020019081526020015f205f82825461110a91906119f3565b925050819055507f000000000000000000000000000000000000000000000000000000000000000073ffffffffffffffffffffffffffffffffffffffff166323b872dd3330856040518463ffffffff1660e01b815260040161116e93929190611b2b565b6020604051808303815f875af115801561118a573d5f803e3d5ffd5b505050506040513d601f19601f820116820180604052508101906111ae9190611628565b503373ffffffffffffffffffffffffffffffffffffffff16837f06bdb975df800a73232998e71ed585d536222f1dfeaa622d7f62a23ada686c82846040516111f6919061134a565b60405180910390a3505050565b5f80fd5b5f819050919050565b61121981611207565b8114611223575f80fd5b50565b5f8135905061123481611210565b92915050565b5f6020828403121561124f5761124e611203565b5b5f61125c84828501611226565b91505092915050565b5f806040838503121561127b5761127a611203565b5b5f61128885828601611226565b925050602061129985828601611226565b9150509250929050565b5f73ffffffffffffffffffffffffffffffffffffffff82169050919050565b5f6112cc826112a3565b9050919050565b6112dc816112c2565b81146112e6575f80fd5b50565b5f813590506112f7816112d3565b92915050565b5f806040838503121561131357611312611203565b5b5f61132085828601611226565b9250506020611331858286016112e9565b9150509250929050565b61134481611207565b82525050565b5f60208201905061135d5f83018461133b565b92915050565b5f63ffffffff82169050919050565b61137b81611363565b8114611385575f80fd5b50565b5f8135905061139681611372565b92915050565b5f805f606084860312156113b3576113b2611203565b5b5f6113c086828701611388565b93505060206113d186828701611388565b92505060406113e286828701611226565b9150509250925092565b6113f5816112c2565b82525050565b61140481611363565b82525050565b5f8115159050919050565b61141e8161140a565b82525050565b5f60c0820190506114375f8301896113ec565b61144460208301886113fb565b61145160408301876113fb565b61145e606083018661133b565b61146b608083018561133b565b61147860a0830184611415565b979650505050505050565b5f819050919050565b5f6114a66114a161149c846112a3565b611483565b6112a3565b9050919050565b5f6114b78261148c565b9050919050565b5f6114c8826114ad565b9050919050565b6114d8816114be565b82525050565b5f6020820190506114f15f8301846114cf565b92915050565b5f82825260208201905092915050565b7f6e6f7420656e64000000000000000000000000000000000000000000000000005f82015250565b5f61153b6007836114f7565b915061154682611507565b602082019050919050565b5f6020820190508181035f8301526115688161152f565b9050919050565b7f676f616c207375636365737300000000000000000000000000000000000000005f82015250565b5f6115a3600c836114f7565b91506115ae8261156f565b602082019050919050565b5f6020820190508181035f8301526115d081611597565b9050919050565b5f6040820190506115ea5f8301856113ec565b6115f7602083018461133b565b9392505050565b6116078161140a565b8114611611575f80fd5b50565b5f81519050611622816115fe565b92915050565b5f6020828403121561163d5761163c611203565b5b5f61164a84828501611614565b91505092915050565b7f6e6f742063726561746f720000000000000000000000000000000000000000005f82015250565b5f611687600b836114f7565b915061169282611653565b602082019050919050565b5f6020820190508181035f8301526116b48161167b565b9050919050565b7f676f616c206661696c00000000000000000000000000000000000000000000005f82015250565b5f6116ef6009836114f7565b91506116fa826116bb565b602082019050919050565b5f6020820190508181035f83015261171c816116e3565b9050919050565b7f636c61696d6564000000000000000000000000000000000000000000000000005f82015250565b5f6117576007836114f7565b915061176282611723565b602082019050919050565b5f6020820190508181035f8301526117848161174b565b9050919050565b7f73746172746564000000000000000000000000000000000000000000000000005f82015250565b5f6117bf6007836114f7565b91506117ca8261178b565b602082019050919050565b5f6020820190508181035f8301526117ec816117b3565b9050919050565b7f656e6465640000000000000000000000000000000000000000000000000000005f82015250565b5f6118276005836114f7565b9150611832826117f3565b602082019050919050565b5f6020820190508181035f8301526118548161181b565b9050919050565b7f6f766572206578636565640000000000000000000000000000000000000000005f82015250565b5f61188f600b836114f7565b915061189a8261185b565b602082019050919050565b5f6020820190508181035f8301526118bc81611883565b9050919050565b7f4e487b71000000000000000000000000000000000000000000000000000000005f52601160045260245ffd5b5f6118fa82611207565b915061190583611207565b925082820390508181111561191d5761191c6118c3565b5b92915050565b7f73746172744174203c206e6f77000000000000000000000000000000000000005f82015250565b5f611957600d836114f7565b915061196282611923565b602082019050919050565b5f6020820190508181035f8301526119848161194b565b9050919050565b7f656e644174203c207374617274417400000000000000000000000000000000005f82015250565b5f6119bf600f836114f7565b91506119ca8261198b565b602082019050919050565b5f6020820190508181035f8301526119ec816119b3565b9050919050565b5f6119fd82611207565b9150611a0883611207565b9250828201905080821115611a2057611a1f6118c3565b5b92915050565b7f656e644174203e204455524154494f4e000000000000000000000000000000005f82015250565b5f611a5a6010836114f7565b9150611a6582611a26565b602082019050919050565b5f6020820190508181035f830152611a8781611a4e565b9050919050565b5f606082019050611aa15f83018661133b565b611aae60208301856113fb565b611abb60408301846113fb565b949350505050565b7f6e6f7420737461727400000000000000000000000000000000000000000000005f82015250565b5f611af76009836114f7565b9150611b0282611ac3565b602082019050919050565b5f6020820190508181035f830152611b2481611aeb565b9050919050565b5f606082019050611b3e5f8301866113ec565b611b4b60208301856113ec565b611b58604083018461133b565b94935050505056fea26469706673582212208bd1c9335c287ba8670ad60aa984a763a9ea8f2df347a5a0a2214e29cccec29f64736f6c634300081a0033",
					"opcodes": "PUSH1 0xA0 PUSH1 0x40 MSTORE CALLVALUE DUP1 ISZERO PUSH2 0xF JUMPI PUSH0 DUP1 REVERT JUMPDEST POP PUSH1 0x40 MLOAD PUSH2 0x1CBE CODESIZE SUB DUP1 PUSH2 0x1CBE DUP4 CODECOPY DUP2 DUP2 ADD PUSH1 0x40 MSTORE DUP2 ADD SWAP1 PUSH2 0x31 SWAP2 SWAP1 PUSH2 0xC9 JUMP JUMPDEST DUP1 PUSH20 0xFFFFFFFFFFFFFFFFFFFFFFFFFFFFFFFFFFFFFFFF AND PUSH1 0x80 DUP2 PUSH20 0xFFFFFFFFFFFFFFFFFFFFFFFFFFFFFFFFFFFFFFFF AND DUP2 MSTORE POP POP POP PUSH2 0xF4 JUMP JUMPDEST PUSH0 DUP1 REVERT JUMPDEST PUSH0 PUSH20 0xFFFFFFFFFFFFFFFFFFFFFFFFFFFFFFFFFFFFFFFF DUP3 AND SWAP1 POP SWAP2 SWAP1 POP JUMP JUMPDEST PUSH0 PUSH2 0x98 DUP3 PUSH2 0x6F JUMP JUMPDEST SWAP1 POP SWAP2 SWAP1 POP JUMP JUMPDEST PUSH2 0xA8 DUP2 PUSH2 0x8E JUMP JUMPDEST DUP2 EQ PUSH2 0xB2 JUMPI PUSH0 DUP1 REVERT JUMPDEST POP JUMP JUMPDEST PUSH0 DUP2 MLOAD SWAP1 POP PUSH2 0xC3 DUP2 PUSH2 0x9F JUMP JUMPDEST SWAP3 SWAP2 POP POP JUMP JUMPDEST PUSH0 PUSH1 0x20 DUP3 DUP5 SUB SLT ISZERO PUSH2 0xDE JUMPI PUSH2 0xDD PUSH2 0x6B JUMP JUMPDEST JUMPDEST PUSH0 PUSH2 0xEB DUP5 DUP3 DUP6 ADD PUSH2 0xB5 JUMP JUMPDEST SWAP2 POP POP SWAP3 SWAP2 POP POP JUMP JUMPDEST PUSH1 0x80 MLOAD PUSH2 0x1B96 PUSH2 0x128 PUSH0 CODECOPY PUSH0 DUP2 DUP2 PUSH2 0x40E ADD MSTORE DUP2 DUP2 PUSH2 0x6B5 ADD MSTORE DUP2 DUP2 PUSH2 0xB95 ADD MSTORE DUP2 DUP2 PUSH2 0xFA9 ADD MSTORE PUSH2 0x1113 ADD MSTORE PUSH2 0x1B96 PUSH0 RETURN INVALID PUSH1 0x80 PUSH1 0x40 MSTORE CALLVALUE DUP1 ISZERO PUSH2 0xF JUMPI PUSH0 DUP1 REVERT JUMPDEST POP PUSH1 0x4 CALLDATASIZE LT PUSH2 0x9C JUMPI PUSH0 CALLDATALOAD PUSH1 0xE0 SHR DUP1 PUSH4 0xBEFC98A9 GT PUSH2 0x64 JUMPI DUP1 PUSH4 0xBEFC98A9 EQ PUSH2 0x140 JUMPI DUP1 PUSH4 0xCBC261D7 EQ PUSH2 0x15C JUMPI DUP1 PUSH4 0xE7BD92B9 EQ PUSH2 0x191 JUMPI DUP1 PUSH4 0xFC0C546A EQ PUSH2 0x1AF JUMPI DUP1 PUSH4 0xFDE327BE EQ PUSH2 0x1CD JUMPI PUSH2 0x9C JUMP JUMPDEST DUP1 PUSH4 0x278ECDE1 EQ PUSH2 0xA0 JUMPI DUP1 PUSH4 0x379607F5 EQ PUSH2 0xBC JUMPI DUP1 PUSH4 0x40E58EE5 EQ PUSH2 0xD8 JUMPI DUP1 PUSH4 0x711853AB EQ PUSH2 0xF4 JUMPI DUP1 PUSH4 0xAA4FB63A EQ PUSH2 0x110 JUMPI JUMPDEST PUSH0 DUP1 REVERT JUMPDEST PUSH2 0xBA PUSH1 0x4 DUP1 CALLDATASIZE SUB DUP2 ADD SWAP1 PUSH2 0xB5 SWAP2 SWAP1 PUSH2 0x123A JUMP JUMPDEST PUSH2 0x1E9 JUMP JUMPDEST STOP JUMPDEST PUSH2 0xD6 PUSH1 0x4 DUP1 CALLDATASIZE SUB DUP2 ADD SWAP1 PUSH2 0xD1 SWAP2 SWAP1 PUSH2 0x123A JUMP JUMPDEST PUSH2 0x4FC JUMP JUMPDEST STOP JUMPDEST PUSH2 0xF2 PUSH1 0x4 DUP1 CALLDATASIZE SUB DUP2 ADD SWAP1 PUSH2 0xED SWAP2 SWAP1 PUSH2 0x123A JUMP JUMPDEST PUSH2 0x7B0 JUMP JUMPDEST STOP JUMPDEST PUSH2 0x10E PUSH1 0x4 DUP1 CALLDATASIZE SUB DUP2 ADD SWAP1 PUSH2 0x109 SWAP2 SWAP1 PUSH2 0x1265 JUMP JUMPDEST PUSH2 0xA19 JUMP JUMPDEST STOP JUMPDEST PUSH2 0x12A PUSH1 0x4 DUP1 CALLDATASIZE SUB DUP2 ADD SWAP1 PUSH2 0x125 SWAP2 SWAP1 PUSH2 0x12FD JUMP JUMPDEST PUSH2 0xC83 JUMP JUMPDEST PUSH1 0x40 MLOAD PUSH2 0x137 SWAP2 SWAP1 PUSH2 0x134A JUMP JUMPDEST PUSH1 0x40 MLOAD DUP1 SWAP2 SUB SWAP1 RETURN JUMPDEST PUSH2 0x15A PUSH1 0x4 DUP1 CALLDATASIZE SUB DUP2 ADD SWAP1 PUSH2 0x155 SWAP2 SWAP1 PUSH2 0x139C JUMP JUMPDEST PUSH2 0xCA3 JUMP JUMPDEST STOP JUMPDEST PUSH2 0x176 PUSH1 0x4 DUP1 CALLDATASIZE SUB DUP2 ADD SWAP1 PUSH2 0x171 SWAP2 SWAP1 PUSH2 0x123A JUMP JUMPDEST PUSH2 0xF21 JUMP JUMPDEST PUSH1 0x40 MLOAD PUSH2 0x188 SWAP7 SWAP6 SWAP5 SWAP4 SWAP3 SWAP2 SWAP1 PUSH2 0x1424 JUMP JUMPDEST PUSH1 0x40 MLOAD DUP1 SWAP2 SUB SWAP1 RETURN JUMPDEST PUSH2 0x199 PUSH2 0xFA2 JUMP JUMPDEST PUSH1 0x40 MLOAD PUSH2 0x1A6 SWAP2 SWAP1 PUSH2 0x134A JUMP JUMPDEST PUSH1 0x40 MLOAD DUP1 SWAP2 SUB SWAP1 RETURN JUMPDEST PUSH2 0x1B7 PUSH2 0xFA7 JUMP JUMPDEST PUSH1 0x40 MLOAD PUSH2 0x1C4 SWAP2 SWAP1 PUSH2 0x14DE JUMP JUMPDEST PUSH1 0x40 MLOAD DUP1 SWAP2 SUB SWAP1 RETURN JUMPDEST PUSH2 0x1E7 PUSH1 0x4 DUP1 CALLDATASIZE SUB DUP2 ADD SWAP1 PUSH2 0x1E2 SWAP2 SWAP1 PUSH2 0x1265 JUMP JUMPDEST PUSH2 0xFCB JUMP JUMPDEST STOP JUMPDEST PUSH0 PUSH1 0x1 PUSH0 DUP4 DUP2 MSTORE PUSH1 0x20 ADD SWAP1 DUP2 MSTORE PUSH1 0x20 ADD PUSH0 KECCAK256 PUSH1 0x40 MLOAD DUP1 PUSH1 0xC0 ADD PUSH1 0x40 MSTORE SWAP1 DUP2 PUSH0 DUP3 ADD PUSH0 SWAP1 SLOAD SWAP1 PUSH2 0x100 EXP SWAP1 DIV PUSH20 0xFFFFFFFFFFFFFFFFFFFFFFFFFFFFFFFFFFFFFFFF AND PUSH20 0xFFFFFFFFFFFFFFFFFFFFFFFFFFFFFFFFFFFFFFFF AND PUSH20 0xFFFFFFFFFFFFFFFFFFFFFFFFFFFFFFFFFFFFFFFF AND DUP2 MSTORE PUSH1 0x20 ADD PUSH0 DUP3 ADD PUSH1 0x14 SWAP1 SLOAD SWAP1 PUSH2 0x100 EXP SWAP1 DIV PUSH4 0xFFFFFFFF AND PUSH4 0xFFFFFFFF AND PUSH4 0xFFFFFFFF AND DUP2 MSTORE PUSH1 0x20 ADD PUSH0 DUP3 ADD PUSH1 0x18 SWAP1 SLOAD SWAP1 PUSH2 0x100 EXP SWAP1 DIV PUSH4 0xFFFFFFFF AND PUSH4 0xFFFFFFFF AND PUSH4 0xFFFFFFFF AND DUP2 MSTORE PUSH1 0x20 ADD PUSH1 0x1 DUP3 ADD SLOAD DUP2 MSTORE PUSH1 0x20 ADD PUSH1 0x2 DUP3 ADD SLOAD DUP2 MSTORE PUSH1 0x20 ADD PUSH1 0x3 DUP3 ADD PUSH0 SWAP1 SLOAD SWAP1 PUSH2 0x100 EXP SWAP1 DIV PUSH1 0xFF AND ISZERO ISZERO ISZERO ISZERO DUP2 MSTORE POP POP SWAP1 POP DUP1 PUSH1 0x40 ADD MLOAD PUSH4 0xFFFFFFFF AND TIMESTAMP LT ISZERO PUSH2 0x321 JUMPI PUSH1 0x40 MLOAD PUSH32 0x8C379A000000000000000000000000000000000000000000000000000000000 DUP2 MSTORE PUSH1 0x4 ADD PUSH2 0x318 SWAP1 PUSH2 0x1551 JUMP JUMPDEST PUSH1 0x40 MLOAD DUP1 SWAP2 SUB SWAP1 REVERT JUMPDEST DUP1 PUSH1 0x60 ADD MLOAD DUP2 PUSH1 0x80 ADD MLOAD LT PUSH2 0x36B JUMPI PUSH1 0x40 MLOAD PUSH32 0x8C379A000000000000000000000000000000000000000000000000000000000 DUP2 MSTORE PUSH1 0x4 ADD PUSH2 0x362 SWAP1 PUSH2 0x15B9 JUMP JUMPDEST PUSH1 0x40 MLOAD DUP1 SWAP2 SUB SWAP1 REVERT JUMPDEST PUSH0 PUSH1 0x2 PUSH0 DUP5 DUP2 MSTORE PUSH1 0x20 ADD SWAP1 DUP2 MSTORE PUSH1 0x20 ADD PUSH0 KECCAK256 PUSH0 CALLER PUSH20 0xFFFFFFFFFFFFFFFFFFFFFFFFFFFFFFFFFFFFFFFF AND PUSH20 0xFFFFFFFFFFFFFFFFFFFFFFFFFFFFFFFFFFFFFFFF AND DUP2 MSTORE PUSH1 0x20 ADD SWAP1 DUP2 MSTORE PUSH1 0x20 ADD PUSH0 KECCAK256 SLOAD SWAP1 POP PUSH0 PUSH1 0x2 PUSH0 DUP6 DUP2 MSTORE PUSH1 0x20 ADD SWAP1 DUP2 MSTORE PUSH1 0x20 ADD PUSH0 KECCAK256 PUSH0 CALLER PUSH20 0xFFFFFFFFFFFFFFFFFFFFFFFFFFFFFFFFFFFFFFFF AND PUSH20 0xFFFFFFFFFFFFFFFFFFFFFFFFFFFFFFFFFFFFFFFF AND DUP2 MSTORE PUSH1 0x20 ADD SWAP1 DUP2 MSTORE PUSH1 0x20 ADD PUSH0 KECCAK256 DUP2 SWAP1 SSTORE POP PUSH32 0x0 PUSH20 0xFFFFFFFFFFFFFFFFFFFFFFFFFFFFFFFFFFFFFFFF AND PUSH4 0xA9059CBB CALLER DUP4 PUSH1 0x40 MLOAD DUP4 PUSH4 0xFFFFFFFF AND PUSH1 0xE0 SHL DUP2 MSTORE PUSH1 0x4 ADD PUSH2 0x467 SWAP3 SWAP2 SWAP1 PUSH2 0x15D7 JUMP JUMPDEST PUSH1 0x20 PUSH1 0x40 MLOAD DUP1 DUP4 SUB DUP2 PUSH0 DUP8 GAS CALL ISZERO DUP1 ISZERO PUSH2 0x483 JUMPI RETURNDATASIZE PUSH0 DUP1 RETURNDATACOPY RETURNDATASIZE PUSH0 REVERT JUMPDEST POP POP POP POP PUSH1 0x40 MLOAD RETURNDATASIZE PUSH1 0x1F NOT PUSH1 0x1F DUP3 ADD AND DUP3 ADD DUP1 PUSH1 0x40 MSTORE POP DUP2 ADD SWAP1 PUSH2 0x4A7 SWAP2 SWAP1 PUSH2 0x1628 JUMP JUMPDEST POP CALLER PUSH20 0xFFFFFFFFFFFFFFFFFFFFFFFFFFFFFFFFFFFFFFFF AND DUP4 PUSH32 0x21E12A7CAD0DA5928167E1084EA4D5FDF8D9AF66657A2543A9AC76A0CA081477 DUP4 PUSH1 0x40 MLOAD PUSH2 0x4EF SWAP2 SWAP1 PUSH2 0x134A JUMP JUMPDEST PUSH1 0x40 MLOAD DUP1 SWAP2 SUB SWAP1 LOG3 POP POP POP JUMP JUMPDEST PUSH0 PUSH1 0x1 PUSH0 DUP4 DUP2 MSTORE PUSH1 0x20 ADD SWAP1 DUP2 MSTORE PUSH1 0x20 ADD PUSH0 KECCAK256 SWAP1 POP DUP1 PUSH0 ADD PUSH1 0x18 SWAP1 SLOAD SWAP1 PUSH2 0x100 EXP SWAP1 DIV PUSH4 0xFFFFFFFF AND PUSH4 0xFFFFFFFF AND TIMESTAMP GT PUSH2 0x56B JUMPI PUSH1 0x40 MLOAD PUSH32 0x8C379A000000000000000000000000000000000000000000000000000000000 DUP2 MSTORE PUSH1 0x4 ADD PUSH2 0x562 SWAP1 PUSH2 0x1551 JUMP JUMPDEST PUSH1 0x40 MLOAD DUP1 SWAP2 SUB SWAP1 REVERT JUMPDEST DUP1 PUSH0 ADD PUSH0 SWAP1 SLOAD SWAP1 PUSH2 0x100 EXP SWAP1 DIV PUSH20 0xFFFFFFFFFFFFFFFFFFFFFFFFFFFFFFFFFFFFFFFF AND PUSH20 0xFFFFFFFFFFFFFFFFFFFFFFFFFFFFFFFFFFFFFFFF AND CALLER PUSH20 0xFFFFFFFFFFFFFFFFFFFFFFFFFFFFFFFFFFFFFFFF AND EQ PUSH2 0x5FB JUMPI PUSH1 0x40 MLOAD PUSH32 0x8C379A000000000000000000000000000000000000000000000000000000000 DUP2 MSTORE PUSH1 0x4 ADD PUSH2 0x5F2 SWAP1 PUSH2 0x169D JUMP JUMPDEST PUSH1 0x40 MLOAD DUP1 SWAP2 SUB SWAP1 REVERT JUMPDEST DUP1 PUSH1 0x1 ADD SLOAD DUP2 PUSH1 0x2 ADD SLOAD LT ISZERO PUSH2 0x646 JUMPI PUSH1 0x40 MLOAD PUSH32 0x8C379A000000000000000000000000000000000000000000000000000000000 DUP2 MSTORE PUSH1 0x4 ADD PUSH2 0x63D SWAP1 PUSH2 0x1705 JUMP JUMPDEST PUSH1 0x40 MLOAD DUP1 SWAP2 SUB SWAP1 REVERT JUMPDEST DUP1 PUSH1 0x3 ADD PUSH0 SWAP1 SLOAD SWAP1 PUSH2 0x100 EXP SWAP1 DIV PUSH1 0xFF AND ISZERO PUSH2 0x697 JUMPI PUSH1 0x40 MLOAD PUSH32 0x8C379A000000000000000000000000000000000000000000000000000000000 DUP2 MSTORE PUSH1 0x4 ADD PUSH2 0x68E SWAP1 PUSH2 0x176D JUMP JUMPDEST PUSH1 0x40 MLOAD DUP1 SWAP2 SUB SWAP1 REVERT JUMPDEST PUSH1 0x1 DUP2 PUSH1 0x3 ADD PUSH0 PUSH2 0x100 EXP DUP2 SLOAD DUP2 PUSH1 0xFF MUL NOT AND SWAP1 DUP4 ISZERO ISZERO MUL OR SWAP1 SSTORE POP PUSH32 0x0 PUSH20 0xFFFFFFFFFFFFFFFFFFFFFFFFFFFFFFFFFFFFFFFF AND PUSH4 0xA9059CBB DUP3 PUSH0 ADD PUSH0 SWAP1 SLOAD SWAP1 PUSH2 0x100 EXP SWAP1 DIV PUSH20 0xFFFFFFFFFFFFFFFFFFFFFFFFFFFFFFFFFFFFFFFF AND DUP4 PUSH1 0x2 ADD SLOAD PUSH1 0x40 MLOAD DUP4 PUSH4 0xFFFFFFFF AND PUSH1 0xE0 SHL DUP2 MSTORE PUSH1 0x4 ADD PUSH2 0x734 SWAP3 SWAP2 SWAP1 PUSH2 0x15D7 JUMP JUMPDEST PUSH1 0x20 PUSH1 0x40 MLOAD DUP1 DUP4 SUB DUP2 PUSH0 DUP8 GAS CALL ISZERO DUP1 ISZERO PUSH2 0x750 JUMPI RETURNDATASIZE PUSH0 DUP1 RETURNDATACOPY RETURNDATASIZE PUSH0 REVERT JUMPDEST POP POP POP POP PUSH1 0x40 MLOAD RETURNDATASIZE PUSH1 0x1F NOT PUSH1 0x1F DUP3 ADD AND DUP3 ADD DUP1 PUSH1 0x40 MSTORE POP DUP2 ADD SWAP1 PUSH2 0x774 SWAP2 SWAP1 PUSH2 0x1628 JUMP JUMPDEST POP PUSH32 0x7BB2B3C10797BACCB6F8C4791F1EDD6CA2F0D028EE0EDA64B01A9A57E3A653F7 DUP3 PUSH1 0x40 MLOAD PUSH2 0x7A4 SWAP2 SWAP1 PUSH2 0x134A JUMP JUMPDEST PUSH1 0x40 MLOAD DUP1 SWAP2 SUB SWAP1 LOG1 POP POP JUMP JUMPDEST PUSH0 PUSH1 0x1 PUSH0 DUP4 DUP2 MSTORE PUSH1 0x20 ADD SWAP1 DUP2 MSTORE PUSH1 0x20 ADD PUSH0 KECCAK256 PUSH1 0x40 MLOAD DUP1 PUSH1 0xC0 ADD PUSH1 0x40 MSTORE SWAP1 DUP2 PUSH0 DUP3 ADD PUSH0 SWAP1 SLOAD SWAP1 PUSH2 0x100 EXP SWAP1 DIV PUSH20 0xFFFFFFFFFFFFFFFFFFFFFFFFFFFFFFFFFFFFFFFF AND PUSH20 0xFFFFFFFFFFFFFFFFFFFFFFFFFFFFFFFFFFFFFFFF AND PUSH20 0xFFFFFFFFFFFFFFFFFFFFFFFFFFFFFFFFFFFFFFFF AND DUP2 MSTORE PUSH1 0x20 ADD PUSH0 DUP3 ADD PUSH1 0x14 SWAP1 SLOAD SWAP1 PUSH2 0x100 EXP SWAP1 DIV PUSH4 0xFFFFFFFF AND PUSH4 0xFFFFFFFF AND PUSH4 0xFFFFFFFF AND DUP2 MSTORE PUSH1 0x20 ADD PUSH0 DUP3 ADD PUSH1 0x18 SWAP1 SLOAD SWAP1 PUSH2 0x100 EXP SWAP1 DIV PUSH4 0xFFFFFFFF AND PUSH4 0xFFFFFFFF AND PUSH4 0xFFFFFFFF AND DUP2 MSTORE PUSH1 0x20 ADD PUSH1 0x1 DUP3 ADD SLOAD DUP2 MSTORE PUSH1 0x20 ADD PUSH1 0x2 DUP3 ADD SLOAD DUP2 MSTORE PUSH1 0x20 ADD PUSH1 0x3 DUP3 ADD PUSH0 SWAP1 SLOAD SWAP1 PUSH2 0x100 EXP SWAP1 DIV PUSH1 0xFF AND ISZERO ISZERO ISZERO ISZERO DUP2 MSTORE POP POP SWAP1 POP DUP1 PUSH0 ADD MLOAD PUSH20 0xFFFFFFFFFFFFFFFFFFFFFFFFFFFFFFFFFFFFFFFF AND CALLER PUSH20 0xFFFFFFFFFFFFFFFFFFFFFFFFFFFFFFFFFFFFFFFF AND EQ PUSH2 0x90C JUMPI PUSH1 0x40 MLOAD PUSH32 0x8C379A000000000000000000000000000000000000000000000000000000000 DUP2 MSTORE PUSH1 0x4 ADD PUSH2 0x903 SWAP1 PUSH2 0x169D JUMP JUMPDEST PUSH1 0x40 MLOAD DUP1 SWAP2 SUB SWAP1 REVERT JUMPDEST TIMESTAMP DUP2 PUSH1 0x20 ADD MLOAD PUSH4 0xFFFFFFFF AND LT PUSH2 0x958 JUMPI PUSH1 0x40 MLOAD PUSH32 0x8C379A000000000000000000000000000000000000000000000000000000000 DUP2 MSTORE PUSH1 0x4 ADD PUSH2 0x94F SWAP1 PUSH2 0x17D5 JUMP JUMPDEST PUSH1 0x40 MLOAD DUP1 SWAP2 SUB SWAP1 REVERT JUMPDEST PUSH1 0x1 PUSH0 DUP4 DUP2 MSTORE PUSH1 0x20 ADD SWAP1 DUP2 MSTORE PUSH1 0x20 ADD PUSH0 KECCAK256 PUSH0 DUP1 DUP3 ADD PUSH0 PUSH2 0x100 EXP DUP2 SLOAD SWAP1 PUSH20 0xFFFFFFFFFFFFFFFFFFFFFFFFFFFFFFFFFFFFFFFF MUL NOT AND SWAP1 SSTORE PUSH0 DUP3 ADD PUSH1 0x14 PUSH2 0x100 EXP DUP2 SLOAD SWAP1 PUSH4 0xFFFFFFFF MUL NOT AND SWAP1 SSTORE PUSH0 DUP3 ADD PUSH1 0x18 PUSH2 0x100 EXP DUP2 SLOAD SWAP1 PUSH4 0xFFFFFFFF MUL NOT AND SWAP1 SSTORE PUSH1 0x1 DUP3 ADD PUSH0 SWAP1 SSTORE PUSH1 0x2 DUP3 ADD PUSH0 SWAP1 SSTORE PUSH1 0x3 DUP3 ADD PUSH0 PUSH2 0x100 EXP DUP2 SLOAD SWAP1 PUSH1 0xFF MUL NOT AND SWAP1 SSTORE POP POP PUSH32 0x8BF30E7FF26833413BE5F69E1D373744864D600B664204B4A2F9844A8EEDB9ED DUP3 PUSH1 0x40 MLOAD PUSH2 0xA0D SWAP2 SWAP1 PUSH2 0x134A JUMP JUMPDEST PUSH1 0x40 MLOAD DUP1 SWAP2 SUB SWAP1 LOG1 POP POP JUMP JUMPDEST PUSH0 PUSH1 0x1 PUSH0 DUP5 DUP2 MSTORE PUSH1 0x20 ADD SWAP1 DUP2 MSTORE PUSH1 0x20 ADD PUSH0 KECCAK256 SWAP1 POP DUP1 PUSH0 ADD PUSH1 0x18 SWAP1 SLOAD SWAP1 PUSH2 0x100 EXP SWAP1 DIV PUSH4 0xFFFFFFFF AND PUSH4 0xFFFFFFFF AND TIMESTAMP LT PUSH2 0xA88 JUMPI PUSH1 0x40 MLOAD PUSH32 0x8C379A000000000000000000000000000000000000000000000000000000000 DUP2 MSTORE PUSH1 0x4 ADD PUSH2 0xA7F SWAP1 PUSH2 0x183D JUMP JUMPDEST PUSH1 0x40 MLOAD DUP1 SWAP2 SUB SWAP1 REVERT JUMPDEST DUP2 PUSH1 0x2 PUSH0 DUP6 DUP2 MSTORE PUSH1 0x20 ADD SWAP1 DUP2 MSTORE PUSH1 0x20 ADD PUSH0 KECCAK256 PUSH0 CALLER PUSH20 0xFFFFFFFFFFFFFFFFFFFFFFFFFFFFFFFFFFFFFFFF AND PUSH20 0xFFFFFFFFFFFFFFFFFFFFFFFFFFFFFFFFFFFFFFFF AND DUP2 MSTORE PUSH1 0x20 ADD SWAP1 DUP2 MSTORE PUSH1 0x20 ADD PUSH0 KECCAK256 SLOAD LT ISZERO PUSH2 0xB17 JUMPI PUSH1 0x40 MLOAD PUSH32 0x8C379A000000000000000000000000000000000000000000000000000000000 DUP2 MSTORE PUSH1 0x4 ADD PUSH2 0xB0E SWAP1 PUSH2 0x18A5 JUMP JUMPDEST PUSH1 0x40 MLOAD DUP1 SWAP2 SUB SWAP1 REVERT JUMPDEST DUP2 DUP2 PUSH1 0x2 ADD PUSH0 DUP3 DUP3 SLOAD PUSH2 0xB2A SWAP2 SWAP1 PUSH2 0x18F0 JUMP JUMPDEST SWAP3 POP POP DUP2 SWAP1 SSTORE POP DUP2 PUSH1 0x2 PUSH0 DUP6 DUP2 MSTORE PUSH1 0x20 ADD SWAP1 DUP2 MSTORE PUSH1 0x20 ADD PUSH0 KECCAK256 PUSH0 CALLER PUSH20 0xFFFFFFFFFFFFFFFFFFFFFFFFFFFFFFFFFFFFFFFF AND PUSH20 0xFFFFFFFFFFFFFFFFFFFFFFFFFFFFFFFFFFFFFFFF AND DUP2 MSTORE PUSH1 0x20 ADD SWAP1 DUP2 MSTORE PUSH1 0x20 ADD PUSH0 KECCAK256 PUSH0 DUP3 DUP3 SLOAD PUSH2 0xB8C SWAP2 SWAP1 PUSH2 0x18F0 JUMP JUMPDEST SWAP3 POP POP DUP2 SWAP1 SSTORE POP PUSH32 0x0 PUSH20 0xFFFFFFFFFFFFFFFFFFFFFFFFFFFFFFFFFFFFFFFF AND PUSH4 0xA9059CBB CALLER DUP5 PUSH1 0x40 MLOAD DUP4 PUSH4 0xFFFFFFFF AND PUSH1 0xE0 SHL DUP2 MSTORE PUSH1 0x4 ADD PUSH2 0xBEE SWAP3 SWAP2 SWAP1 PUSH2 0x15D7 JUMP JUMPDEST PUSH1 0x20 PUSH1 0x40 MLOAD DUP1 DUP4 SUB DUP2 PUSH0 DUP8 GAS CALL ISZERO DUP1 ISZERO PUSH2 0xC0A JUMPI RETURNDATASIZE PUSH0 DUP1 RETURNDATACOPY RETURNDATASIZE PUSH0 REVERT JUMPDEST POP POP POP POP PUSH1 0x40 MLOAD RETURNDATASIZE PUSH1 0x1F NOT PUSH1 0x1F DUP3 ADD AND DUP3 ADD DUP1 PUSH1 0x40 MSTORE POP DUP2 ADD SWAP1 PUSH2 0xC2E SWAP2 SWAP1 PUSH2 0x1628 JUMP JUMPDEST POP CALLER PUSH20 0xFFFFFFFFFFFFFFFFFFFFFFFFFFFFFFFFFFFFFFFF AND DUP4 PUSH32 0xDC63160518C9C709FE39309A0E6F3D567887986A4625CD35090A6689E56E34C0 DUP5 PUSH1 0x40 MLOAD PUSH2 0xC76 SWAP2 SWAP1 PUSH2 0x134A JUMP JUMPDEST PUSH1 0x40 MLOAD DUP1 SWAP2 SUB SWAP1 LOG3 POP POP POP JUMP JUMPDEST PUSH1 0x2 PUSH1 0x20 MSTORE DUP2 PUSH0 MSTORE PUSH1 0x40 PUSH0 KECCAK256 PUSH1 0x20 MSTORE DUP1 PUSH0 MSTORE PUSH1 0x40 PUSH0 KECCAK256 PUSH0 SWAP2 POP SWAP2 POP POP SLOAD DUP2 JUMP JUMPDEST TIMESTAMP DUP4 PUSH4 0xFFFFFFFF AND GT PUSH2 0xCEB JUMPI PUSH1 0x40 MLOAD PUSH32 0x8C379A000000000000000000000000000000000000000000000000000000000 DUP2 MSTORE PUSH1 0x4 ADD PUSH2 0xCE2 SWAP1 PUSH2 0x196D JUMP JUMPDEST PUSH1 0x40 MLOAD DUP1 SWAP2 SUB SWAP1 REVERT JUMPDEST DUP3 PUSH4 0xFFFFFFFF AND DUP3 PUSH4 0xFFFFFFFF AND GT PUSH2 0xD39 JUMPI PUSH1 0x40 MLOAD PUSH32 0x8C379A000000000000000000000000000000000000000000000000000000000 DUP2 MSTORE PUSH1 0x4 ADD PUSH2 0xD30 SWAP1 PUSH2 0x19D5 JUMP JUMPDEST PUSH1 0x40 MLOAD DUP1 SWAP2 SUB SWAP1 REVERT JUMPDEST PUSH3 0x76A700 TIMESTAMP PUSH2 0xD48 SWAP2 SWAP1 PUSH2 0x19F3 JUMP JUMPDEST DUP3 PUSH4 0xFFFFFFFF AND LT PUSH2 0xD8F JUMPI PUSH1 0x40 MLOAD PUSH32 0x8C379A000000000000000000000000000000000000000000000000000000000 DUP2 MSTORE PUSH1 0x4 ADD PUSH2 0xD86 SWAP1 PUSH2 0x1A70 JUMP JUMPDEST PUSH1 0x40 MLOAD DUP1 SWAP2 SUB SWAP1 REVERT JUMPDEST PUSH0 PUSH1 0x1 PUSH0 SLOAD PUSH2 0xD9E SWAP2 SWAP1 PUSH2 0x19F3 JUMP JUMPDEST SWAP1 POP PUSH1 0x40 MLOAD DUP1 PUSH1 0xC0 ADD PUSH1 0x40 MSTORE DUP1 CALLER PUSH20 0xFFFFFFFFFFFFFFFFFFFFFFFFFFFFFFFFFFFFFFFF AND DUP2 MSTORE PUSH1 0x20 ADD DUP6 PUSH4 0xFFFFFFFF AND DUP2 MSTORE PUSH1 0x20 ADD DUP5 PUSH4 0xFFFFFFFF AND DUP2 MSTORE PUSH1 0x20 ADD DUP4 DUP2 MSTORE PUSH1 0x20 ADD PUSH0 DUP2 MSTORE PUSH1 0x20 ADD PUSH0 ISZERO ISZERO DUP2 MSTORE POP PUSH1 0x1 PUSH0 DUP4 DUP2 MSTORE PUSH1 0x20 ADD SWAP1 DUP2 MSTORE PUSH1 0x20 ADD PUSH0 KECCAK256 PUSH0 DUP3 ADD MLOAD DUP2 PUSH0 ADD PUSH0 PUSH2 0x100 EXP DUP2 SLOAD DUP2 PUSH20 0xFFFFFFFFFFFFFFFFFFFFFFFFFFFFFFFFFFFFFFFF MUL NOT AND SWAP1 DUP4 PUSH20 0xFFFFFFFFFFFFFFFFFFFFFFFFFFFFFFFFFFFFFFFF AND MUL OR SWAP1 SSTORE POP PUSH1 0x20 DUP3 ADD MLOAD DUP2 PUSH0 ADD PUSH1 0x14 PUSH2 0x100 EXP DUP2 SLOAD DUP2 PUSH4 0xFFFFFFFF MUL NOT AND SWAP1 DUP4 PUSH4 0xFFFFFFFF AND MUL OR SWAP1 SSTORE POP PUSH1 0x40 DUP3 ADD MLOAD DUP2 PUSH0 ADD PUSH1 0x18 PUSH2 0x100 EXP DUP2 SLOAD DUP2 PUSH4 0xFFFFFFFF MUL NOT AND SWAP1 DUP4 PUSH4 0xFFFFFFFF AND MUL OR SWAP1 SSTORE POP PUSH1 0x60 DUP3 ADD MLOAD DUP2 PUSH1 0x1 ADD SSTORE PUSH1 0x80 DUP3 ADD MLOAD DUP2 PUSH1 0x2 ADD SSTORE PUSH1 0xA0 DUP3 ADD MLOAD DUP2 PUSH1 0x3 ADD PUSH0 PUSH2 0x100 EXP DUP2 SLOAD DUP2 PUSH1 0xFF MUL NOT AND SWAP1 DUP4 ISZERO ISZERO MUL OR SWAP1 SSTORE POP SWAP1 POP POP CALLER PUSH20 0xFFFFFFFFFFFFFFFFFFFFFFFFFFFFFFFFFFFFFFFF AND DUP2 PUSH32 0xF53C69F70DA8067D7A640B762952C982BD6580135AAF19973BB3565087BF9B25 DUP5 DUP8 DUP8 PUSH1 0x40 MLOAD PUSH2 0xF13 SWAP4 SWAP3 SWAP2 SWAP1 PUSH2 0x1A8E JUMP JUMPDEST PUSH1 0x40 MLOAD DUP1 SWAP2 SUB SWAP1 LOG3 POP POP POP POP JUMP JUMPDEST PUSH1 0x1 PUSH1 0x20 MSTORE DUP1 PUSH0 MSTORE PUSH1 0x40 PUSH0 KECCAK256 PUSH0 SWAP2 POP SWAP1 POP DUP1 PUSH0 ADD PUSH0 SWAP1 SLOAD SWAP1 PUSH2 0x100 EXP SWAP1 DIV PUSH20 0xFFFFFFFFFFFFFFFFFFFFFFFFFFFFFFFFFFFFFFFF AND SWAP1 DUP1 PUSH0 ADD PUSH1 0x14 SWAP1 SLOAD SWAP1 PUSH2 0x100 EXP SWAP1 DIV PUSH4 0xFFFFFFFF AND SWAP1 DUP1 PUSH0 ADD PUSH1 0x18 SWAP1 SLOAD SWAP1 PUSH2 0x100 EXP SWAP1 DIV PUSH4 0xFFFFFFFF AND SWAP1 DUP1 PUSH1 0x1 ADD SLOAD SWAP1 DUP1 PUSH1 0x2 ADD SLOAD SWAP1 DUP1 PUSH1 0x3 ADD PUSH0 SWAP1 SLOAD SWAP1 PUSH2 0x100 EXP SWAP1 DIV PUSH1 0xFF AND SWAP1 POP DUP7 JUMP JUMPDEST PUSH0 SLOAD DUP2 JUMP JUMPDEST PUSH32 0x0 DUP2 JUMP JUMPDEST PUSH0 PUSH1 0x1 PUSH0 DUP5 DUP2 MSTORE PUSH1 0x20 ADD SWAP1 DUP2 MSTORE PUSH1 0x20 ADD PUSH0 KECCAK256 SWAP1 POP DUP1 PUSH0 ADD PUSH1 0x14 SWAP1 SLOAD SWAP1 PUSH2 0x100 EXP SWAP1 DIV PUSH4 0xFFFFFFFF AND PUSH4 0xFFFFFFFF AND TIMESTAMP GT PUSH2 0x103A JUMPI PUSH1 0x40 MLOAD PUSH32 0x8C379A000000000000000000000000000000000000000000000000000000000 DUP2 MSTORE PUSH1 0x4 ADD PUSH2 0x1031 SWAP1 PUSH2 0x1B0D JUMP JUMPDEST PUSH1 0x40 MLOAD DUP1 SWAP2 SUB SWAP1 REVERT JUMPDEST DUP1 PUSH0 ADD PUSH1 0x18 SWAP1 SLOAD SWAP1 PUSH2 0x100 EXP SWAP1 DIV PUSH4 0xFFFFFFFF AND PUSH4 0xFFFFFFFF AND TIMESTAMP LT PUSH2 0x1095 JUMPI PUSH1 0x40 MLOAD PUSH32 0x8C379A000000000000000000000000000000000000000000000000000000000 DUP2 MSTORE PUSH1 0x4 ADD PUSH2 0x108C SWAP1 PUSH2 0x183D JUMP JUMPDEST PUSH1 0x40 MLOAD DUP1 SWAP2 SUB SWAP1 REVERT JUMPDEST DUP2 DUP2 PUSH1 0x2 ADD PUSH0 DUP3 DUP3 SLOAD PUSH2 0x10A8 SWAP2 SWAP1 PUSH2 0x19F3 JUMP JUMPDEST SWAP3 POP POP DUP2 SWAP1 SSTORE POP DUP2 PUSH1 0x2 PUSH0 DUP6 DUP2 MSTORE PUSH1 0x20 ADD SWAP1 DUP2 MSTORE PUSH1 0x20 ADD PUSH0 KECCAK256 PUSH0 CALLER PUSH20 0xFFFFFFFFFFFFFFFFFFFFFFFFFFFFFFFFFFFFFFFF AND PUSH20 0xFFFFFFFFFFFFFFFFFFFFFFFFFFFFFFFFFFFFFFFF AND DUP2 MSTORE PUSH1 0x20 ADD SWAP1 DUP2 MSTORE PUSH1 0x20 ADD PUSH0 KECCAK256 PUSH0 DUP3 DUP3 SLOAD PUSH2 0x110A SWAP2 SWAP1 PUSH2 0x19F3 JUMP JUMPDEST SWAP3 POP POP DUP2 SWAP1 SSTORE POP PUSH32 0x0 PUSH20 0xFFFFFFFFFFFFFFFFFFFFFFFFFFFFFFFFFFFFFFFF AND PUSH4 0x23B872DD CALLER ADDRESS DUP6 PUSH1 0x40 MLOAD DUP5 PUSH4 0xFFFFFFFF AND PUSH1 0xE0 SHL DUP2 MSTORE PUSH1 0x4 ADD PUSH2 0x116E SWAP4 SWAP3 SWAP2 SWAP1 PUSH2 0x1B2B JUMP JUMPDEST PUSH1 0x20 PUSH1 0x40 MLOAD DUP1 DUP4 SUB DUP2 PUSH0 DUP8 GAS CALL ISZERO DUP1 ISZERO PUSH2 0x118A JUMPI RETURNDATASIZE PUSH0 DUP1 RETURNDATACOPY RETURNDATASIZE PUSH0 REVERT JUMPDEST POP POP POP POP PUSH1 0x40 MLOAD RETURNDATASIZE PUSH1 0x1F NOT PUSH1 0x1F DUP3 ADD AND DUP3 ADD DUP1 PUSH1 0x40 MSTORE POP DUP2 ADD SWAP1 PUSH2 0x11AE SWAP2 SWAP1 PUSH2 0x1628 JUMP JUMPDEST POP CALLER PUSH20 0xFFFFFFFFFFFFFFFFFFFFFFFFFFFFFFFFFFFFFFFF AND DUP4 PUSH32 0x6BDB975DF800A73232998E71ED585D536222F1DFEAA622D7F62A23ADA686C82 DUP5 PUSH1 0x40 MLOAD PUSH2 0x11F6 SWAP2 SWAP1 PUSH2 0x134A JUMP JUMPDEST PUSH1 0x40 MLOAD DUP1 SWAP2 SUB SWAP1 LOG3 POP POP POP JUMP JUMPDEST PUSH0 DUP1 REVERT JUMPDEST PUSH0 DUP2 SWAP1 POP SWAP2 SWAP1 POP JUMP JUMPDEST PUSH2 0x1219 DUP2 PUSH2 0x1207 JUMP JUMPDEST DUP2 EQ PUSH2 0x1223 JUMPI PUSH0 DUP1 REVERT JUMPDEST POP JUMP JUMPDEST PUSH0 DUP2 CALLDATALOAD SWAP1 POP PUSH2 0x1234 DUP2 PUSH2 0x1210 JUMP JUMPDEST SWAP3 SWAP2 POP POP JUMP JUMPDEST PUSH0 PUSH1 0x20 DUP3 DUP5 SUB SLT ISZERO PUSH2 0x124F JUMPI PUSH2 0x124E PUSH2 0x1203 JUMP JUMPDEST JUMPDEST PUSH0 PUSH2 0x125C DUP5 DUP3 DUP6 ADD PUSH2 0x1226 JUMP JUMPDEST SWAP2 POP POP SWAP3 SWAP2 POP POP JUMP JUMPDEST PUSH0 DUP1 PUSH1 0x40 DUP4 DUP6 SUB SLT ISZERO PUSH2 0x127B JUMPI PUSH2 0x127A PUSH2 0x1203 JUMP JUMPDEST JUMPDEST PUSH0 PUSH2 0x1288 DUP6 DUP3 DUP7 ADD PUSH2 0x1226 JUMP JUMPDEST SWAP3 POP POP PUSH1 0x20 PUSH2 0x1299 DUP6 DUP3 DUP7 ADD PUSH2 0x1226 JUMP JUMPDEST SWAP2 POP POP SWAP3 POP SWAP3 SWAP1 POP JUMP JUMPDEST PUSH0 PUSH20 0xFFFFFFFFFFFFFFFFFFFFFFFFFFFFFFFFFFFFFFFF DUP3 AND SWAP1 POP SWAP2 SWAP1 POP JUMP JUMPDEST PUSH0 PUSH2 0x12CC DUP3 PUSH2 0x12A3 JUMP JUMPDEST SWAP1 POP SWAP2 SWAP1 POP JUMP JUMPDEST PUSH2 0x12DC DUP2 PUSH2 0x12C2 JUMP JUMPDEST DUP2 EQ PUSH2 0x12E6 JUMPI PUSH0 DUP1 REVERT JUMPDEST POP JUMP JUMPDEST PUSH0 DUP2 CALLDATALOAD SWAP1 POP PUSH2 0x12F7 DUP2 PUSH2 0x12D3 JUMP JUMPDEST SWAP3 SWAP2 POP POP JUMP JUMPDEST PUSH0 DUP1 PUSH1 0x40 DUP4 DUP6 SUB SLT ISZERO PUSH2 0x1313 JUMPI PUSH2 0x1312 PUSH2 0x1203 JUMP JUMPDEST JUMPDEST PUSH0 PUSH2 0x1320 DUP6 DUP3 DUP7 ADD PUSH2 0x1226 JUMP JUMPDEST SWAP3 POP POP PUSH1 0x20 PUSH2 0x1331 DUP6 DUP3 DUP7 ADD PUSH2 0x12E9 JUMP JUMPDEST SWAP2 POP POP SWAP3 POP SWAP3 SWAP1 POP JUMP JUMPDEST PUSH2 0x1344 DUP2 PUSH2 0x1207 JUMP JUMPDEST DUP3 MSTORE POP POP JUMP JUMPDEST PUSH0 PUSH1 0x20 DUP3 ADD SWAP1 POP PUSH2 0x135D PUSH0 DUP4 ADD DUP5 PUSH2 0x133B JUMP JUMPDEST SWAP3 SWAP2 POP POP JUMP JUMPDEST PUSH0 PUSH4 0xFFFFFFFF DUP3 AND SWAP1 POP SWAP2 SWAP1 POP JUMP JUMPDEST PUSH2 0x137B DUP2 PUSH2 0x1363 JUMP JUMPDEST DUP2 EQ PUSH2 0x1385 JUMPI PUSH0 DUP1 REVERT JUMPDEST POP JUMP JUMPDEST PUSH0 DUP2 CALLDATALOAD SWAP1 POP PUSH2 0x1396 DUP2 PUSH2 0x1372 JUMP JUMPDEST SWAP3 SWAP2 POP POP JUMP JUMPDEST PUSH0 DUP1 PUSH0 PUSH1 0x60 DUP5 DUP7 SUB SLT ISZERO PUSH2 0x13B3 JUMPI PUSH2 0x13B2 PUSH2 0x1203 JUMP JUMPDEST JUMPDEST PUSH0 PUSH2 0x13C0 DUP7 DUP3 DUP8 ADD PUSH2 0x1388 JUMP JUMPDEST SWAP4 POP POP PUSH1 0x20 PUSH2 0x13D1 DUP7 DUP3 DUP8 ADD PUSH2 0x1388 JUMP JUMPDEST SWAP3 POP POP PUSH1 0x40 PUSH2 0x13E2 DUP7 DUP3 DUP8 ADD PUSH2 0x1226 JUMP JUMPDEST SWAP2 POP POP SWAP3 POP SWAP3 POP SWAP3 JUMP JUMPDEST PUSH2 0x13F5 DUP2 PUSH2 0x12C2 JUMP JUMPDEST DUP3 MSTORE POP POP JUMP JUMPDEST PUSH2 0x1404 DUP2 PUSH2 0x1363 JUMP JUMPDEST DUP3 MSTORE POP POP JUMP JUMPDEST PUSH0 DUP2 ISZERO ISZERO SWAP1 POP SWAP2 SWAP1 POP JUMP JUMPDEST PUSH2 0x141E DUP2 PUSH2 0x140A JUMP JUMPDEST DUP3 MSTORE POP POP JUMP JUMPDEST PUSH0 PUSH1 0xC0 DUP3 ADD SWAP1 POP PUSH2 0x1437 PUSH0 DUP4 ADD DUP10 PUSH2 0x13EC JUMP JUMPDEST PUSH2 0x1444 PUSH1 0x20 DUP4 ADD DUP9 PUSH2 0x13FB JUMP JUMPDEST PUSH2 0x1451 PUSH1 0x40 DUP4 ADD DUP8 PUSH2 0x13FB JUMP JUMPDEST PUSH2 0x145E PUSH1 0x60 DUP4 ADD DUP7 PUSH2 0x133B JUMP JUMPDEST PUSH2 0x146B PUSH1 0x80 DUP4 ADD DUP6 PUSH2 0x133B JUMP JUMPDEST PUSH2 0x1478 PUSH1 0xA0 DUP4 ADD DUP5 PUSH2 0x1415 JUMP JUMPDEST SWAP8 SWAP7 POP POP POP POP POP POP POP JUMP JUMPDEST PUSH0 DUP2 SWAP1 POP SWAP2 SWAP1 POP JUMP JUMPDEST PUSH0 PUSH2 0x14A6 PUSH2 0x14A1 PUSH2 0x149C DUP5 PUSH2 0x12A3 JUMP JUMPDEST PUSH2 0x1483 JUMP JUMPDEST PUSH2 0x12A3 JUMP JUMPDEST SWAP1 POP SWAP2 SWAP1 POP JUMP JUMPDEST PUSH0 PUSH2 0x14B7 DUP3 PUSH2 0x148C JUMP JUMPDEST SWAP1 POP SWAP2 SWAP1 POP JUMP JUMPDEST PUSH0 PUSH2 0x14C8 DUP3 PUSH2 0x14AD JUMP JUMPDEST SWAP1 POP SWAP2 SWAP1 POP JUMP JUMPDEST PUSH2 0x14D8 DUP2 PUSH2 0x14BE JUMP JUMPDEST DUP3 MSTORE POP POP JUMP JUMPDEST PUSH0 PUSH1 0x20 DUP3 ADD SWAP1 POP PUSH2 0x14F1 PUSH0 DUP4 ADD DUP5 PUSH2 0x14CF JUMP JUMPDEST SWAP3 SWAP2 POP POP JUMP JUMPDEST PUSH0 DUP3 DUP3 MSTORE PUSH1 0x20 DUP3 ADD SWAP1 POP SWAP3 SWAP2 POP POP JUMP JUMPDEST PUSH32 0x6E6F7420656E6400000000000000000000000000000000000000000000000000 PUSH0 DUP3 ADD MSTORE POP JUMP JUMPDEST PUSH0 PUSH2 0x153B PUSH1 0x7 DUP4 PUSH2 0x14F7 JUMP JUMPDEST SWAP2 POP PUSH2 0x1546 DUP3 PUSH2 0x1507 JUMP JUMPDEST PUSH1 0x20 DUP3 ADD SWAP1 POP SWAP2 SWAP1 POP JUMP JUMPDEST PUSH0 PUSH1 0x20 DUP3 ADD SWAP1 POP DUP2 DUP2 SUB PUSH0 DUP4 ADD MSTORE PUSH2 0x1568 DUP2 PUSH2 0x152F JUMP JUMPDEST SWAP1 POP SWAP2 SWAP1 POP JUMP JUMPDEST PUSH32 0x676F616C20737563636573730000000000000000000000000000000000000000 PUSH0 DUP3 ADD MSTORE POP JUMP JUMPDEST PUSH0 PUSH2 0x15A3 PUSH1 0xC DUP4 PUSH2 0x14F7 JUMP JUMPDEST SWAP2 POP PUSH2 0x15AE DUP3 PUSH2 0x156F JUMP JUMPDEST PUSH1 0x20 DUP3 ADD SWAP1 POP SWAP2 SWAP1 POP JUMP JUMPDEST PUSH0 PUSH1 0x20 DUP3 ADD SWAP1 POP DUP2 DUP2 SUB PUSH0 DUP4 ADD MSTORE PUSH2 0x15D0 DUP2 PUSH2 0x1597 JUMP JUMPDEST SWAP1 POP SWAP2 SWAP1 POP JUMP JUMPDEST PUSH0 PUSH1 0x40 DUP3 ADD SWAP1 POP PUSH2 0x15EA PUSH0 DUP4 ADD DUP6 PUSH2 0x13EC JUMP JUMPDEST PUSH2 0x15F7 PUSH1 0x20 DUP4 ADD DUP5 PUSH2 0x133B JUMP JUMPDEST SWAP4 SWAP3 POP POP POP JUMP JUMPDEST PUSH2 0x1607 DUP2 PUSH2 0x140A JUMP JUMPDEST DUP2 EQ PUSH2 0x1611 JUMPI PUSH0 DUP1 REVERT JUMPDEST POP JUMP JUMPDEST PUSH0 DUP2 MLOAD SWAP1 POP PUSH2 0x1622 DUP2 PUSH2 0x15FE JUMP JUMPDEST SWAP3 SWAP2 POP POP JUMP JUMPDEST PUSH0 PUSH1 0x20 DUP3 DUP5 SUB SLT ISZERO PUSH2 0x163D JUMPI PUSH2 0x163C PUSH2 0x1203 JUMP JUMPDEST JUMPDEST PUSH0 PUSH2 0x164A DUP5 DUP3 DUP6 ADD PUSH2 0x1614 JUMP JUMPDEST SWAP2 POP POP SWAP3 SWAP2 POP POP JUMP JUMPDEST PUSH32 0x6E6F742063726561746F72000000000000000000000000000000000000000000 PUSH0 DUP3 ADD MSTORE POP JUMP JUMPDEST PUSH0 PUSH2 0x1687 PUSH1 0xB DUP4 PUSH2 0x14F7 JUMP JUMPDEST SWAP2 POP PUSH2 0x1692 DUP3 PUSH2 0x1653 JUMP JUMPDEST PUSH1 0x20 DUP3 ADD SWAP1 POP SWAP2 SWAP1 POP JUMP JUMPDEST PUSH0 PUSH1 0x20 DUP3 ADD SWAP1 POP DUP2 DUP2 SUB PUSH0 DUP4 ADD MSTORE PUSH2 0x16B4 DUP2 PUSH2 0x167B JUMP JUMPDEST SWAP1 POP SWAP2 SWAP1 POP JUMP JUMPDEST PUSH32 0x676F616C206661696C0000000000000000000000000000000000000000000000 PUSH0 DUP3 ADD MSTORE POP JUMP JUMPDEST PUSH0 PUSH2 0x16EF PUSH1 0x9 DUP4 PUSH2 0x14F7 JUMP JUMPDEST SWAP2 POP PUSH2 0x16FA DUP3 PUSH2 0x16BB JUMP JUMPDEST PUSH1 0x20 DUP3 ADD SWAP1 POP SWAP2 SWAP1 POP JUMP JUMPDEST PUSH0 PUSH1 0x20 DUP3 ADD SWAP1 POP DUP2 DUP2 SUB PUSH0 DUP4 ADD MSTORE PUSH2 0x171C DUP2 PUSH2 0x16E3 JUMP JUMPDEST SWAP1 POP SWAP2 SWAP1 POP JUMP JUMPDEST PUSH32 0x636C61696D656400000000000000000000000000000000000000000000000000 PUSH0 DUP3 ADD MSTORE POP JUMP JUMPDEST PUSH0 PUSH2 0x1757 PUSH1 0x7 DUP4 PUSH2 0x14F7 JUMP JUMPDEST SWAP2 POP PUSH2 0x1762 DUP3 PUSH2 0x1723 JUMP JUMPDEST PUSH1 0x20 DUP3 ADD SWAP1 POP SWAP2 SWAP1 POP JUMP JUMPDEST PUSH0 PUSH1 0x20 DUP3 ADD SWAP1 POP DUP2 DUP2 SUB PUSH0 DUP4 ADD MSTORE PUSH2 0x1784 DUP2 PUSH2 0x174B JUMP JUMPDEST SWAP1 POP SWAP2 SWAP1 POP JUMP JUMPDEST PUSH32 0x7374617274656400000000000000000000000000000000000000000000000000 PUSH0 DUP3 ADD MSTORE POP JUMP JUMPDEST PUSH0 PUSH2 0x17BF PUSH1 0x7 DUP4 PUSH2 0x14F7 JUMP JUMPDEST SWAP2 POP PUSH2 0x17CA DUP3 PUSH2 0x178B JUMP JUMPDEST PUSH1 0x20 DUP3 ADD SWAP1 POP SWAP2 SWAP1 POP JUMP JUMPDEST PUSH0 PUSH1 0x20 DUP3 ADD SWAP1 POP DUP2 DUP2 SUB PUSH0 DUP4 ADD MSTORE PUSH2 0x17EC DUP2 PUSH2 0x17B3 JUMP JUMPDEST SWAP1 POP SWAP2 SWAP1 POP JUMP JUMPDEST PUSH32 0x656E646564000000000000000000000000000000000000000000000000000000 PUSH0 DUP3 ADD MSTORE POP JUMP JUMPDEST PUSH0 PUSH2 0x1827 PUSH1 0x5 DUP4 PUSH2 0x14F7 JUMP JUMPDEST SWAP2 POP PUSH2 0x1832 DUP3 PUSH2 0x17F3 JUMP JUMPDEST PUSH1 0x20 DUP3 ADD SWAP1 POP SWAP2 SWAP1 POP JUMP JUMPDEST PUSH0 PUSH1 0x20 DUP3 ADD SWAP1 POP DUP2 DUP2 SUB PUSH0 DUP4 ADD MSTORE PUSH2 0x1854 DUP2 PUSH2 0x181B JUMP JUMPDEST SWAP1 POP SWAP2 SWAP1 POP JUMP JUMPDEST PUSH32 0x6F76657220657863656564000000000000000000000000000000000000000000 PUSH0 DUP3 ADD MSTORE POP JUMP JUMPDEST PUSH0 PUSH2 0x188F PUSH1 0xB DUP4 PUSH2 0x14F7 JUMP JUMPDEST SWAP2 POP PUSH2 0x189A DUP3 PUSH2 0x185B JUMP JUMPDEST PUSH1 0x20 DUP3 ADD SWAP1 POP SWAP2 SWAP1 POP JUMP JUMPDEST PUSH0 PUSH1 0x20 DUP3 ADD SWAP1 POP DUP2 DUP2 SUB PUSH0 DUP4 ADD MSTORE PUSH2 0x18BC DUP2 PUSH2 0x1883 JUMP JUMPDEST SWAP1 POP SWAP2 SWAP1 POP JUMP JUMPDEST PUSH32 0x4E487B7100000000000000000000000000000000000000000000000000000000 PUSH0 MSTORE PUSH1 0x11 PUSH1 0x4 MSTORE PUSH1 0x24 PUSH0 REVERT JUMPDEST PUSH0 PUSH2 0x18FA DUP3 PUSH2 0x1207 JUMP JUMPDEST SWAP2 POP PUSH2 0x1905 DUP4 PUSH2 0x1207 JUMP JUMPDEST SWAP3 POP DUP3 DUP3 SUB SWAP1 POP DUP2 DUP2 GT ISZERO PUSH2 0x191D JUMPI PUSH2 0x191C PUSH2 0x18C3 JUMP JUMPDEST JUMPDEST SWAP3 SWAP2 POP POP JUMP JUMPDEST PUSH32 0x73746172744174203C206E6F7700000000000000000000000000000000000000 PUSH0 DUP3 ADD MSTORE POP JUMP JUMPDEST PUSH0 PUSH2 0x1957 PUSH1 0xD DUP4 PUSH2 0x14F7 JUMP JUMPDEST SWAP2 POP PUSH2 0x1962 DUP3 PUSH2 0x1923 JUMP JUMPDEST PUSH1 0x20 DUP3 ADD SWAP1 POP SWAP2 SWAP1 POP JUMP JUMPDEST PUSH0 PUSH1 0x20 DUP3 ADD SWAP1 POP DUP2 DUP2 SUB PUSH0 DUP4 ADD MSTORE PUSH2 0x1984 DUP2 PUSH2 0x194B JUMP JUMPDEST SWAP1 POP SWAP2 SWAP1 POP JUMP JUMPDEST PUSH32 0x656E644174203C20737461727441740000000000000000000000000000000000 PUSH0 DUP3 ADD MSTORE POP JUMP JUMPDEST PUSH0 PUSH2 0x19BF PUSH1 0xF DUP4 PUSH2 0x14F7 JUMP JUMPDEST SWAP2 POP PUSH2 0x19CA DUP3 PUSH2 0x198B JUMP JUMPDEST PUSH1 0x20 DUP3 ADD SWAP1 POP SWAP2 SWAP1 POP JUMP JUMPDEST PUSH0 PUSH1 0x20 DUP3 ADD SWAP1 POP DUP2 DUP2 SUB PUSH0 DUP4 ADD MSTORE PUSH2 0x19EC DUP2 PUSH2 0x19B3 JUMP JUMPDEST SWAP1 POP SWAP2 SWAP1 POP JUMP JUMPDEST PUSH0 PUSH2 0x19FD DUP3 PUSH2 0x1207 JUMP JUMPDEST SWAP2 POP PUSH2 0x1A08 DUP4 PUSH2 0x1207 JUMP JUMPDEST SWAP3 POP DUP3 DUP3 ADD SWAP1 POP DUP1 DUP3 GT ISZERO PUSH2 0x1A20 JUMPI PUSH2 0x1A1F PUSH2 0x18C3 JUMP JUMPDEST JUMPDEST SWAP3 SWAP2 POP POP JUMP JUMPDEST PUSH32 0x656E644174203E204455524154494F4E00000000000000000000000000000000 PUSH0 DUP3 ADD MSTORE POP JUMP JUMPDEST PUSH0 PUSH2 0x1A5A PUSH1 0x10 DUP4 PUSH2 0x14F7 JUMP JUMPDEST SWAP2 POP PUSH2 0x1A65 DUP3 PUSH2 0x1A26 JUMP JUMPDEST PUSH1 0x20 DUP3 ADD SWAP1 POP SWAP2 SWAP1 POP JUMP JUMPDEST PUSH0 PUSH1 0x20 DUP3 ADD SWAP1 POP DUP2 DUP2 SUB PUSH0 DUP4 ADD MSTORE PUSH2 0x1A87 DUP2 PUSH2 0x1A4E JUMP JUMPDEST SWAP1 POP SWAP2 SWAP1 POP JUMP JUMPDEST PUSH0 PUSH1 0x60 DUP3 ADD SWAP1 POP PUSH2 0x1AA1 PUSH0 DUP4 ADD DUP7 PUSH2 0x133B JUMP JUMPDEST PUSH2 0x1AAE PUSH1 0x20 DUP4 ADD DUP6 PUSH2 0x13FB JUMP JUMPDEST PUSH2 0x1ABB PUSH1 0x40 DUP4 ADD DUP5 PUSH2 0x13FB JUMP JUMPDEST SWAP5 SWAP4 POP POP POP POP JUMP JUMPDEST PUSH32 0x6E6F742073746172740000000000000000000000000000000000000000000000 PUSH0 DUP3 ADD MSTORE POP JUMP JUMPDEST PUSH0 PUSH2 0x1AF7 PUSH1 0x9 DUP4 PUSH2 0x14F7 JUMP JUMPDEST SWAP2 POP PUSH2 0x1B02 DUP3 PUSH2 0x1AC3 JUMP JUMPDEST PUSH1 0x20 DUP3 ADD SWAP1 POP SWAP2 SWAP1 POP JUMP JUMPDEST PUSH0 PUSH1 0x20 DUP3 ADD SWAP1 POP DUP2 DUP2 SUB PUSH0 DUP4 ADD MSTORE PUSH2 0x1B24 DUP2 PUSH2 0x1AEB JUMP JUMPDEST SWAP1 POP SWAP2 SWAP1 POP JUMP JUMPDEST PUSH0 PUSH1 0x60 DUP3 ADD SWAP1 POP PUSH2 0x1B3E PUSH0 DUP4 ADD DUP7 PUSH2 0x13EC JUMP JUMPDEST PUSH2 0x1B4B PUSH1 0x20 DUP4 ADD DUP6 PUSH2 0x13EC JUMP JUMPDEST PUSH2 0x1B58 PUSH1 0x40 DUP4 ADD DUP5 PUSH2 0x133B JUMP JUMPDEST SWAP5 SWAP4 POP POP POP POP JUMP INVALID LOG2 PUSH5 0x6970667358 0x22 SLT KECCAK256 DUP12 0xD1 0xC9 CALLER TLOAD 0x28 PUSH28 0xA8670AD60AA984A763A9EA8F2DF347A5A0A2214E29CCCEC29F64736F PUSH13 0x634300081A0033000000000000 "
				},
				"gasEstimates": {
					"creation": {
						"codeDepositCost": "1412400",
						"executionCost": "infinite",
						"totalCost": "infinite"
					},
					"external": {
						"cancel(uint256)": "infinite",
						"claim(uint256)": "infinite",
						"compaigns(uint256)": "infinite",
						"idGenerator()": "2468",
						"lauch(uint32,uint32,uint256)": "infinite",
						"pledge(uint256,uint256)": "infinite",
						"pledgedAmount(uint256,address)": "infinite",
						"refund(uint256)": "infinite",
						"token()": "infinite",
						"unpledge(uint256,uint256)": "infinite"
					}
				},
				"methodIdentifiers": {
					"cancel(uint256)": "40e58ee5",
					"claim(uint256)": "379607f5",
					"compaigns(uint256)": "cbc261d7",
					"idGenerator()": "e7bd92b9",
					"lauch(uint32,uint32,uint256)": "befc98a9",
					"pledge(uint256,uint256)": "fde327be",
					"pledgedAmount(uint256,address)": "aa4fb63a",
					"refund(uint256)": "278ecde1",
					"token()": "fc0c546a",
					"unpledge(uint256,uint256)": "711853ab"
				}
			},
			"storageLayout": {
				"storage": [
					{
						"astId": 68,
						"contract": "contracts/CrowdFund.sol:CrowdFund",
						"label": "idGenerator",
						"offset": 0,
						"slot": "0",
						"type": "t_uint256"
					},
					{
						"astId": 89,
						"contract": "contracts/CrowdFund.sol:CrowdFund",
						"label": "compaigns",
						"offset": 0,
						"slot": "1",
						"type": "t_mapping(t_uint256,t_struct(Compaign)81_storage)"
					},
					{
						"astId": 95,
						"contract": "contracts/CrowdFund.sol:CrowdFund",
						"label": "pledgedAmount",
						"offset": 0,
						"slot": "2",
						"type": "t_mapping(t_uint256,t_mapping(t_address,t_uint256))"
					}
				],
				"types": {
					"t_address": {
						"encoding": "inplace",
						"label": "address",
						"numberOfBytes": "20"
					},
					"t_bool": {
						"encoding": "inplace",
						"label": "bool",
						"numberOfBytes": "1"
					},
					"t_mapping(t_address,t_uint256)": {
						"encoding": "mapping",
						"key": "t_address",
						"label": "mapping(address => uint256)",
						"numberOfBytes": "32",
						"value": "t_uint256"
					},
					"t_mapping(t_uint256,t_mapping(t_address,t_uint256))": {
						"encoding": "mapping",
						"key": "t_uint256",
						"label": "mapping(uint256 => mapping(address => uint256))",
						"numberOfBytes": "32",
						"value": "t_mapping(t_address,t_uint256)"
					},
					"t_mapping(t_uint256,t_struct(Compaign)81_storage)": {
						"encoding": "mapping",
						"key": "t_uint256",
						"label": "mapping(uint256 => struct CrowdFund.Compaign)",
						"numberOfBytes": "32",
						"value": "t_struct(Compaign)81_storage"
					},
					"t_struct(Compaign)81_storage": {
						"encoding": "inplace",
						"label": "struct CrowdFund.Compaign",
						"members": [
							{
								"astId": 70,
								"contract": "contracts/CrowdFund.sol:CrowdFund",
								"label": "creator",
								"offset": 0,
								"slot": "0",
								"type": "t_address"
							},
							{
								"astId": 72,
								"contract": "contracts/CrowdFund.sol:CrowdFund",
								"label": "startAt",
								"offset": 20,
								"slot": "0",
								"type": "t_uint32"
							},
							{
								"astId": 74,
								"contract": "contracts/CrowdFund.sol:CrowdFund",
								"label": "endAt",
								"offset": 24,
								"slot": "0",
								"type": "t_uint32"
							},
							{
								"astId": 76,
								"contract": "contracts/CrowdFund.sol:CrowdFund",
								"label": "goal",
								"offset": 0,
								"slot": "1",
								"type": "t_uint256"
							},
							{
								"astId": 78,
								"contract": "contracts/CrowdFund.sol:CrowdFund",
								"label": "pledged",
								"offset": 0,
								"slot": "2",
								"type": "t_uint256"
							},
							{
								"astId": 80,
								"contract": "contracts/CrowdFund.sol:CrowdFund",
								"label": "claimed",
								"offset": 0,
								"slot": "3",
								"type": "t_bool"
							}
						],
						"numberOfBytes": "128"
					},
					"t_uint256": {
						"encoding": "inplace",
						"label": "uint256",
						"numberOfBytes": "32"
					},
					"t_uint32": {
						"encoding": "inplace",
						"label": "uint32",
						"numberOfBytes": "4"
					}
				}
			},
			"userdoc": {
				"kind": "user",
				"methods": {},
				"version": 1
			}
		}
	}
}