{
	"contracts/MerkleTree.sol": {
		"MerkleTree": {
			"abi": [
				{
					"inputs": [
						{
							"internalType": "bytes32",
							"name": "merkleroot",
							"type": "bytes32"
						}
					],
					"stateMutability": "nonpayable",
					"type": "constructor"
				},
				{
					"anonymous": false,
					"inputs": [
						{
							"indexed": true,
							"internalType": "address",
							"name": "owner",
							"type": "address"
						},
						{
							"indexed": true,
							"internalType": "address",
							"name": "approved",
							"type": "address"
						},
						{
							"indexed": true,
							"internalType": "uint256",
							"name": "tokenId",
							"type": "uint256"
						}
					],
					"name": "Approval",
					"type": "event"
				},
				{
					"anonymous": false,
					"inputs": [
						{
							"indexed": true,
							"internalType": "address",
							"name": "owner",
							"type": "address"
						},
						{
							"indexed": true,
							"internalType": "address",
							"name": "operator",
							"type": "address"
						},
						{
							"indexed": false,
							"internalType": "bool",
							"name": "approved",
							"type": "bool"
						}
					],
					"name": "ApprovalForAll",
					"type": "event"
				},
				{
					"anonymous": false,
					"inputs": [
						{
							"indexed": true,
							"internalType": "address",
							"name": "from",
							"type": "address"
						},
						{
							"indexed": true,
							"internalType": "address",
							"name": "to",
							"type": "address"
						},
						{
							"indexed": true,
							"internalType": "uint256",
							"name": "tokenId",
							"type": "uint256"
						}
					],
					"name": "Transfer",
					"type": "event"
				},
				{
					"inputs": [
						{
							"internalType": "address",
							"name": "to",
							"type": "address"
						},
						{
							"internalType": "uint256",
							"name": "tokenId",
							"type": "uint256"
						}
					],
					"name": "approve",
					"outputs": [],
					"stateMutability": "nonpayable",
					"type": "function"
				},
				{
					"inputs": [
						{
							"internalType": "address",
							"name": "owner",
							"type": "address"
						}
					],
					"name": "balanceOf",
					"outputs": [
						{
							"internalType": "uint256",
							"name": "",
							"type": "uint256"
						}
					],
					"stateMutability": "view",
					"type": "function"
				},
				{
					"inputs": [
						{
							"internalType": "uint256",
							"name": "tokenId",
							"type": "uint256"
						}
					],
					"name": "burn",
					"outputs": [],
					"stateMutability": "nonpayable",
					"type": "function"
				},
				{
					"inputs": [
						{
							"internalType": "uint256",
							"name": "tokenId",
							"type": "uint256"
						}
					],
					"name": "getApproved",
					"outputs": [
						{
							"internalType": "address",
							"name": "",
							"type": "address"
						}
					],
					"stateMutability": "view",
					"type": "function"
				},
				{
					"inputs": [
						{
							"internalType": "address",
							"name": "owner",
							"type": "address"
						},
						{
							"internalType": "address",
							"name": "operator",
							"type": "address"
						}
					],
					"name": "isApprovedForAll",
					"outputs": [
						{
							"internalType": "bool",
							"name": "",
							"type": "bool"
						}
					],
					"stateMutability": "view",
					"type": "function"
				},
				{
					"inputs": [
						{
							"internalType": "address",
							"name": "to",
							"type": "address"
						},
						{
							"internalType": "uint256",
							"name": "tokenId",
							"type": "uint256"
						}
					],
					"name": "mint",
					"outputs": [],
					"stateMutability": "nonpayable",
					"type": "function"
				},
				{
					"inputs": [
						{
							"internalType": "address",
							"name": "account",
							"type": "address"
						},
						{
							"internalType": "uint256",
							"name": "tokenId",
							"type": "uint256"
						},
						{
							"internalType": "bytes32[]",
							"name": "proof",
							"type": "bytes32[]"
						}
					],
					"name": "mint",
					"outputs": [],
					"stateMutability": "nonpayable",
					"type": "function"
				},
				{
					"inputs": [
						{
							"internalType": "address",
							"name": "",
							"type": "address"
						}
					],
					"name": "mintedAddress",
					"outputs": [
						{
							"internalType": "bool",
							"name": "",
							"type": "bool"
						}
					],
					"stateMutability": "view",
					"type": "function"
				},
				{
					"inputs": [
						{
							"internalType": "uint256",
							"name": "tokenId",
							"type": "uint256"
						}
					],
					"name": "ownerOf",
					"outputs": [
						{
							"internalType": "address",
							"name": "owner",
							"type": "address"
						}
					],
					"stateMutability": "view",
					"type": "function"
				},
				{
					"inputs": [],
					"name": "root",
					"outputs": [
						{
							"internalType": "bytes32",
							"name": "",
							"type": "bytes32"
						}
					],
					"stateMutability": "view",
					"type": "function"
				},
				{
					"inputs": [
						{
							"internalType": "address",
							"name": "from",
							"type": "address"
						},
						{
							"internalType": "address",
							"name": "to",
							"type": "address"
						},
						{
							"internalType": "uint256",
							"name": "tokenId",
							"type": "uint256"
						}
					],
					"name": "safeTransferFrom",
					"outputs": [],
					"stateMutability": "nonpayable",
					"type": "function"
				},
				{
					"inputs": [
						{
							"internalType": "address",
							"name": "from",
							"type": "address"
						},
						{
							"internalType": "address",
							"name": "to",
							"type": "address"
						},
						{
							"internalType": "uint256",
							"name": "tokenId",
							"type": "uint256"
						},
						{
							"internalType": "bytes",
							"name": "_data",
							"type": "bytes"
						}
					],
					"name": "safeTransferFrom",
					"outputs": [],
					"stateMutability": "nonpayable",
					"type": "function"
				},
				{
					"inputs": [
						{
							"internalType": "address",
							"name": "operator",
							"type": "address"
						},
						{
							"internalType": "bool",
							"name": "approved",
							"type": "bool"
						}
					],
					"name": "setApprovalForAll",
					"outputs": [],
					"stateMutability": "nonpayable",
					"type": "function"
				},
				{
					"inputs": [
						{
							"internalType": "bytes4",
							"name": "interfaceId",
							"type": "bytes4"
						}
					],
					"name": "supportsInterface",
					"outputs": [
						{
							"internalType": "bool",
							"name": "",
							"type": "bool"
						}
					],
					"stateMutability": "pure",
					"type": "function"
				},
				{
					"inputs": [
						{
							"internalType": "address",
							"name": "from",
							"type": "address"
						},
						{
							"internalType": "address",
							"name": "to",
							"type": "address"
						},
						{
							"internalType": "uint256",
							"name": "tokenId",
							"type": "uint256"
						}
					],
					"name": "transferFrom",
					"outputs": [],
					"stateMutability": "nonpayable",
					"type": "function"
				}
			],
			"devdoc": {
				"kind": "dev",
				"methods": {},
				"version": 1
			},
			"evm": {
				"assembly": "    /* \"contracts/MerkleTree.sol\":160:1347  contract MerkleTree is ERC721 {... */\n  mstore(0x40, 0xa0)\n    /* \"contracts/MerkleTree.sol\":415:483  constructor(bytes32 merkleroot) {... */\n  callvalue\n  dup1\n  iszero\n  tag_1\n  jumpi\n  0x00\n  dup1\n  revert\ntag_1:\n  pop\n  mload(0x40)\n  sub(codesize, bytecodeSize)\n  dup1\n  bytecodeSize\n  dup4\n  codecopy\n  dup2\n  dup2\n  add\n  0x40\n  mstore\n  dup2\n  add\n  swap1\n  tag_2\n  swap2\n  swap1\n  tag_3\n  jump\t// in\ntag_2:\n    /* \"contracts/MerkleTree.sol\":465:475  merkleroot */\n  dup1\n    /* \"contracts/MerkleTree.sol\":458:475  root = merkleroot */\n  0x80\n  dup2\n  dup2\n  mstore\n  pop\n  pop\n    /* \"contracts/MerkleTree.sol\":415:483  constructor(bytes32 merkleroot) {... */\n  pop\n    /* \"contracts/MerkleTree.sol\":160:1347  contract MerkleTree is ERC721 {... */\n  jump(tag_6)\n    /* \"#utility.yul\":88:205   */\ntag_8:\n    /* \"#utility.yul\":197:198   */\n  0x00\n    /* \"#utility.yul\":194:195   */\n  dup1\n    /* \"#utility.yul\":187:199   */\n  revert\n    /* \"#utility.yul\":334:411   */\ntag_10:\n    /* \"#utility.yul\":371:378   */\n  0x00\n    /* \"#utility.yul\":400:405   */\n  dup2\n    /* \"#utility.yul\":389:405   */\n  swap1\n  pop\n    /* \"#utility.yul\":334:411   */\n  swap2\n  swap1\n  pop\n  jump\t// out\n    /* \"#utility.yul\":417:539   */\ntag_11:\n    /* \"#utility.yul\":490:514   */\n  tag_19\n    /* \"#utility.yul\":508:513   */\n  dup2\n    /* \"#utility.yul\":490:514   */\n  tag_10\n  jump\t// in\ntag_19:\n    /* \"#utility.yul\":483:488   */\n  dup2\n    /* \"#utility.yul\":480:515   */\n  eq\n    /* \"#utility.yul\":470:533   */\n  tag_20\n  jumpi\n    /* \"#utility.yul\":529:530   */\n  0x00\n    /* \"#utility.yul\":526:527   */\n  dup1\n    /* \"#utility.yul\":519:531   */\n  revert\n    /* \"#utility.yul\":470:533   */\ntag_20:\n    /* \"#utility.yul\":417:539   */\n  pop\n  jump\t// out\n    /* \"#utility.yul\":545:688   */\ntag_12:\n    /* \"#utility.yul\":602:607   */\n  0x00\n    /* \"#utility.yul\":633:639   */\n  dup2\n    /* \"#utility.yul\":627:640   */\n  mload\n    /* \"#utility.yul\":618:640   */\n  swap1\n  pop\n    /* \"#utility.yul\":649:682   */\n  tag_22\n    /* \"#utility.yul\":676:681   */\n  dup2\n    /* \"#utility.yul\":649:682   */\n  tag_11\n  jump\t// in\ntag_22:\n    /* \"#utility.yul\":545:688   */\n  swap3\n  swap2\n  pop\n  pop\n  jump\t// out\n    /* \"#utility.yul\":694:1045   */\ntag_3:\n    /* \"#utility.yul\":764:770   */\n  0x00\n    /* \"#utility.yul\":813:815   */\n  0x20\n    /* \"#utility.yul\":801:810   */\n  dup3\n    /* \"#utility.yul\":792:799   */\n  dup5\n    /* \"#utility.yul\":788:811   */\n  sub\n    /* \"#utility.yul\":784:816   */\n  slt\n    /* \"#utility.yul\":781:900   */\n  iszero\n  tag_24\n  jumpi\n    /* \"#utility.yul\":819:898   */\n  tag_25\n  tag_8\n  jump\t// in\ntag_25:\n    /* \"#utility.yul\":781:900   */\ntag_24:\n    /* \"#utility.yul\":939:940   */\n  0x00\n    /* \"#utility.yul\":964:1028   */\n  tag_26\n    /* \"#utility.yul\":1020:1027   */\n  dup5\n    /* \"#utility.yul\":1011:1017   */\n  dup3\n    /* \"#utility.yul\":1000:1009   */\n  dup6\n    /* \"#utility.yul\":996:1018   */\n  add\n    /* \"#utility.yul\":964:1028   */\n  tag_12\n  jump\t// in\ntag_26:\n    /* \"#utility.yul\":954:1028   */\n  swap2\n  pop\n    /* \"#utility.yul\":910:1038   */\n  pop\n    /* \"#utility.yul\":694:1045   */\n  swap3\n  swap2\n  pop\n  pop\n  jump\t// out\n    /* \"contracts/MerkleTree.sol\":160:1347  contract MerkleTree is ERC721 {... */\ntag_6:\n  mload(0x80)\n  codecopy(0x00, dataOffset(sub_0), dataSize(sub_0))\n  0x00\n  assignImmutable(\"0x1b3fd0da9f6b7da2147eff870266af25b54877bf9c7064498588ee6f953ee460\")\n  return(0x00, dataSize(sub_0))\nstop\n\nsub_0: assembly {\n        /* \"contracts/MerkleTree.sol\":160:1347  contract MerkleTree is ERC721 {... */\n      mstore(0x40, 0x80)\n      callvalue\n      dup1\n      iszero\n      tag_1\n      jumpi\n      0x00\n      dup1\n      revert\n    tag_1:\n      pop\n      jumpi(tag_2, lt(calldatasize, 0x04))\n      shr(0xe0, calldataload(0x00))\n      dup1\n      0x630303c6\n      gt\n      tag_18\n      jumpi\n      dup1\n      0xa22cb465\n      gt\n      tag_19\n      jumpi\n      dup1\n      0xa22cb465\n      eq\n      tag_14\n      jumpi\n      dup1\n      0xb88d4fde\n      eq\n      tag_15\n      jumpi\n      dup1\n      0xe985e9c5\n      eq\n      tag_16\n      jumpi\n      dup1\n      0xebf0c717\n      eq\n      tag_17\n      jumpi\n      jump(tag_2)\n    tag_19:\n      dup1\n      0x630303c6\n      eq\n      tag_10\n      jumpi\n      dup1\n      0x6352211e\n      eq\n      tag_11\n      jumpi\n      dup1\n      0x641ce140\n      eq\n      tag_12\n      jumpi\n      dup1\n      0x70a08231\n      eq\n      tag_13\n      jumpi\n      jump(tag_2)\n    tag_18:\n      dup1\n      0x23b872dd\n      gt\n      tag_20\n      jumpi\n      dup1\n      0x23b872dd\n      eq\n      tag_6\n      jumpi\n      dup1\n      0x40c10f19\n      eq\n      tag_7\n      jumpi\n      dup1\n      0x42842e0e\n      eq\n      tag_8\n      jumpi\n      dup1\n      0x42966c68\n      eq\n      tag_9\n      jumpi\n      jump(tag_2)\n    tag_20:\n      dup1\n      0x01ffc9a7\n      eq\n      tag_3\n      jumpi\n      dup1\n      0x081812fc\n      eq\n      tag_4\n      jumpi\n      dup1\n      0x095ea7b3\n      eq\n      tag_5\n      jumpi\n    tag_2:\n      0x00\n      dup1\n      revert\n        /* \"contracts/ERC721.sol\":2117:2379  function supportsInterface(bytes4 interfaceId)... */\n    tag_3:\n      tag_21\n      0x04\n      dup1\n      calldatasize\n      sub\n      dup2\n      add\n      swap1\n      tag_22\n      swap2\n      swap1\n      tag_23\n      jump\t// in\n    tag_22:\n      tag_24\n      jump\t// in\n    tag_21:\n      mload(0x40)\n      tag_25\n      swap2\n      swap1\n      tag_26\n      jump\t// in\n    tag_25:\n      mload(0x40)\n      dup1\n      swap2\n      sub\n      swap1\n      return\n        /* \"contracts/ERC721.sol\":3186:3385  function getApproved(uint tokenId) external view override returns (address) {... */\n    tag_4:\n      tag_27\n      0x04\n      dup1\n      calldatasize\n      sub\n      dup2\n      add\n      swap1\n      tag_28\n      swap2\n      swap1\n      tag_29\n      jump\t// in\n    tag_28:\n      tag_30\n      jump\t// in\n    tag_27:\n      mload(0x40)\n      tag_31\n      swap2\n      swap1\n      tag_32\n      jump\t// in\n    tag_31:\n      mload(0x40)\n      dup1\n      swap2\n      sub\n      swap1\n      return\n        /* \"contracts/ERC721.sol\":3594:3896  function approve(address to, uint tokenId) external override {... */\n    tag_5:\n      tag_33\n      0x04\n      dup1\n      calldatasize\n      sub\n      dup2\n      add\n      swap1\n      tag_34\n      swap2\n      swap1\n      tag_35\n      jump\t// in\n    tag_34:\n      tag_36\n      jump\t// in\n    tag_33:\n      stop\n        /* \"contracts/ERC721.sol\":4638:4978  function transferFrom(... */\n    tag_6:\n      tag_37\n      0x04\n      dup1\n      calldatasize\n      sub\n      dup2\n      add\n      swap1\n      tag_38\n      swap2\n      swap1\n      tag_39\n      jump\t// in\n    tag_38:\n      tag_40\n      jump\t// in\n    tag_37:\n      stop\n        /* \"contracts/ERC721.sol\":6388:6691  function mint(address to, uint tokenId) public {... */\n    tag_7:\n      tag_41\n      0x04\n      dup1\n      calldatasize\n      sub\n      dup2\n      add\n      swap1\n      tag_42\n      swap2\n      swap1\n      tag_35\n      jump\t// in\n    tag_42:\n      tag_43\n      jump\t// in\n    tag_41:\n      stop\n        /* \"contracts/ERC721.sol\":6204:6380  function safeTransferFrom(... */\n    tag_8:\n      tag_44\n      0x04\n      dup1\n      calldatasize\n      sub\n      dup2\n      add\n      swap1\n      tag_45\n      swap2\n      swap1\n      tag_39\n      jump\t// in\n    tag_45:\n      tag_46\n      jump\t// in\n    tag_44:\n      stop\n        /* \"contracts/ERC721.sol\":6699:6958  function burn(uint tokenId) external {... */\n    tag_9:\n      tag_47\n      0x04\n      dup1\n      calldatasize\n      sub\n      dup2\n      add\n      swap1\n      tag_48\n      swap2\n      swap1\n      tag_29\n      jump\t// in\n    tag_48:\n      tag_49\n      jump\t// in\n    tag_47:\n      stop\n        /* \"contracts/MerkleTree.sol\":252:297  mapping(address => bool) public mintedAddress */\n    tag_10:\n      tag_50\n      0x04\n      dup1\n      calldatasize\n      sub\n      dup2\n      add\n      swap1\n      tag_51\n      swap2\n      swap1\n      tag_52\n      jump\t// in\n    tag_51:\n      tag_53\n      jump\t// in\n    tag_50:\n      mload(0x40)\n      tag_54\n      swap2\n      swap1\n      tag_26\n      jump\t// in\n    tag_54:\n      mload(0x40)\n      dup1\n      swap2\n      sub\n      swap1\n      return\n        /* \"contracts/ERC721.sol\":2572:2753  function ownerOf(uint tokenId) public view override returns (address owner) {... */\n    tag_11:\n      tag_55\n      0x04\n      dup1\n      calldatasize\n      sub\n      dup2\n      add\n      swap1\n      tag_56\n      swap2\n      swap1\n      tag_29\n      jump\t// in\n    tag_56:\n      tag_57\n      jump\t// in\n    tag_55:\n      mload(0x40)\n      tag_58\n      swap2\n      swap1\n      tag_32\n      jump\t// in\n    tag_58:\n      mload(0x40)\n      dup1\n      swap2\n      sub\n      swap1\n      return\n        /* \"contracts/MerkleTree.sol\":540:929  function mint(address account, uint256 tokenId, bytes32[] calldata proof)... */\n    tag_12:\n      tag_59\n      0x04\n      dup1\n      calldatasize\n      sub\n      dup2\n      add\n      swap1\n      tag_60\n      swap2\n      swap1\n      tag_61\n      jump\t// in\n    tag_60:\n      tag_62\n      jump\t// in\n    tag_59:\n      stop\n        /* \"contracts/ERC721.sol\":2387:2564  function balanceOf(address owner) external view override returns (uint) {... */\n    tag_13:\n      tag_63\n      0x04\n      dup1\n      calldatasize\n      sub\n      dup2\n      add\n      swap1\n      tag_64\n      swap2\n      swap1\n      tag_52\n      jump\t// in\n    tag_64:\n      tag_65\n      jump\t// in\n    tag_63:\n      mload(0x40)\n      tag_66\n      swap2\n      swap1\n      tag_67\n      jump\t// in\n    tag_66:\n      mload(0x40)\n      dup1\n      swap2\n      sub\n      swap1\n      return\n        /* \"contracts/ERC721.sol\":2968:3178  function setApprovalForAll(address operator, bool approved) external override {... */\n    tag_14:\n      tag_68\n      0x04\n      dup1\n      calldatasize\n      sub\n      dup2\n      add\n      swap1\n      tag_69\n      swap2\n      swap1\n      tag_70\n      jump\t// in\n    tag_69:\n      tag_71\n      jump\t// in\n    tag_68:\n      stop\n        /* \"contracts/ERC721.sol\":5814:6196  function safeTransferFrom(... */\n    tag_15:\n      tag_72\n      0x04\n      dup1\n      calldatasize\n      sub\n      dup2\n      add\n      swap1\n      tag_73\n      swap2\n      swap1\n      tag_74\n      jump\t// in\n    tag_73:\n      tag_75\n      jump\t// in\n    tag_72:\n      stop\n        /* \"contracts/ERC721.sol\":2761:2960  function isApprovedForAll(address owner, address operator)... */\n    tag_16:\n      tag_76\n      0x04\n      dup1\n      calldatasize\n      sub\n      dup2\n      add\n      swap1\n      tag_77\n      swap2\n      swap1\n      tag_78\n      jump\t// in\n    tag_77:\n      tag_79\n      jump\t// in\n    tag_76:\n      mload(0x40)\n      tag_80\n      swap2\n      swap1\n      tag_26\n      jump\t// in\n    tag_80:\n      mload(0x40)\n      dup1\n      swap2\n      sub\n      swap1\n      return\n        /* \"contracts/MerkleTree.sol\":197:226  bytes32 immutable public root */\n    tag_17:\n      tag_81\n      tag_82\n      jump\t// in\n    tag_81:\n      mload(0x40)\n      tag_83\n      swap2\n      swap1\n      tag_84\n      jump\t// in\n    tag_83:\n      mload(0x40)\n      dup1\n      swap2\n      sub\n      swap1\n      return\n        /* \"contracts/ERC721.sol\":2117:2379  function supportsInterface(bytes4 interfaceId)... */\n    tag_24:\n        /* \"contracts/ERC721.sol\":2232:2236  bool */\n      0x00\n        /* \"contracts/ERC721.sol\":2289:2314  type(IERC721).interfaceId */\n      0x80ac58cd00000000000000000000000000000000000000000000000000000000\n        /* \"contracts/ERC721.sol\":2274:2314  interfaceId == type(IERC721).interfaceId */\n      not(0xffffffffffffffffffffffffffffffffffffffffffffffffffffffff)\n      and\n        /* \"contracts/ERC721.sol\":2274:2285  interfaceId */\n      dup3\n        /* \"contracts/ERC721.sol\":2274:2314  interfaceId == type(IERC721).interfaceId */\n      not(0xffffffffffffffffffffffffffffffffffffffffffffffffffffffff)\n      and\n      eq\n        /* \"contracts/ERC721.sol\":2274:2371  interfaceId == type(IERC721).interfaceId ||... */\n      dup1\n      tag_86\n      jumpi\n      pop\n        /* \"contracts/ERC721.sol\":2346:2371  type(IERC165).interfaceId */\n      0x01ffc9a700000000000000000000000000000000000000000000000000000000\n        /* \"contracts/ERC721.sol\":2331:2371  interfaceId == type(IERC165).interfaceId */\n      not(0xffffffffffffffffffffffffffffffffffffffffffffffffffffffff)\n      and\n        /* \"contracts/ERC721.sol\":2331:2342  interfaceId */\n      dup3\n        /* \"contracts/ERC721.sol\":2331:2371  interfaceId == type(IERC165).interfaceId */\n      not(0xffffffffffffffffffffffffffffffffffffffffffffffffffffffff)\n      and\n      eq\n        /* \"contracts/ERC721.sol\":2274:2371  interfaceId == type(IERC721).interfaceId ||... */\n    tag_86:\n        /* \"contracts/ERC721.sol\":2254:2371  return... */\n      swap1\n      pop\n        /* \"contracts/ERC721.sol\":2117:2379  function supportsInterface(bytes4 interfaceId)... */\n      swap2\n      swap1\n      pop\n      jump\t// out\n        /* \"contracts/ERC721.sol\":3186:3385  function getApproved(uint tokenId) external view override returns (address) {... */\n    tag_30:\n        /* \"contracts/ERC721.sol\":3253:3260  address */\n      0x00\n        /* \"contracts/ERC721.sol\":3309:3310  0 */\n      dup1\n        /* \"contracts/ERC721.sol\":3281:3311  _owners[tokenId] != address(0) */\n      0xffffffffffffffffffffffffffffffffffffffff\n      and\n        /* \"contracts/ERC721.sol\":3281:3288  _owners */\n      0x00\n        /* \"contracts/ERC721.sol\":3281:3297  _owners[tokenId] */\n      dup1\n        /* \"contracts/ERC721.sol\":3289:3296  tokenId */\n      dup5\n        /* \"contracts/ERC721.sol\":3281:3297  _owners[tokenId] */\n      dup2\n      mstore\n      0x20\n      add\n      swap1\n      dup2\n      mstore\n      0x20\n      add\n      0x00\n      keccak256\n      0x00\n      swap1\n      sload\n      swap1\n      0x0100\n      exp\n      swap1\n      div\n      0xffffffffffffffffffffffffffffffffffffffff\n      and\n        /* \"contracts/ERC721.sol\":3281:3311  _owners[tokenId] != address(0) */\n      0xffffffffffffffffffffffffffffffffffffffff\n      and\n      sub\n        /* \"contracts/ERC721.sol\":3273:3335  require(_owners[tokenId] != address(0), \"token doesn't exist\") */\n      tag_88\n      jumpi\n      mload(0x40)\n      0x08c379a000000000000000000000000000000000000000000000000000000000\n      dup2\n      mstore\n      0x04\n      add\n      tag_89\n      swap1\n      tag_90\n      jump\t// in\n    tag_89:\n      mload(0x40)\n      dup1\n      swap2\n      sub\n      swap1\n      revert\n    tag_88:\n        /* \"contracts/ERC721.sol\":3353:3368  _tokenApprovals */\n      0x02\n        /* \"contracts/ERC721.sol\":3353:3377  _tokenApprovals[tokenId] */\n      0x00\n        /* \"contracts/ERC721.sol\":3369:3376  tokenId */\n      dup4\n        /* \"contracts/ERC721.sol\":3353:3377  _tokenApprovals[tokenId] */\n      dup2\n      mstore\n      0x20\n      add\n      swap1\n      dup2\n      mstore\n      0x20\n      add\n      0x00\n      keccak256\n      0x00\n      swap1\n      sload\n      swap1\n      0x0100\n      exp\n      swap1\n      div\n      0xffffffffffffffffffffffffffffffffffffffff\n      and\n        /* \"contracts/ERC721.sol\":3346:3377  return _tokenApprovals[tokenId] */\n      swap1\n      pop\n        /* \"contracts/ERC721.sol\":3186:3385  function getApproved(uint tokenId) external view override returns (address) {... */\n      swap2\n      swap1\n      pop\n      jump\t// out\n        /* \"contracts/ERC721.sol\":3594:3896  function approve(address to, uint tokenId) external override {... */\n    tag_36:\n        /* \"contracts/ERC721.sol\":3666:3679  address owner */\n      0x00\n        /* \"contracts/ERC721.sol\":3682:3689  _owners */\n      dup1\n        /* \"contracts/ERC721.sol\":3682:3698  _owners[tokenId] */\n      0x00\n        /* \"contracts/ERC721.sol\":3690:3697  tokenId */\n      dup4\n        /* \"contracts/ERC721.sol\":3682:3698  _owners[tokenId] */\n      dup2\n      mstore\n      0x20\n      add\n      swap1\n      dup2\n      mstore\n      0x20\n      add\n      0x00\n      keccak256\n      0x00\n      swap1\n      sload\n      swap1\n      0x0100\n      exp\n      swap1\n      div\n      0xffffffffffffffffffffffffffffffffffffffff\n      and\n        /* \"contracts/ERC721.sol\":3666:3698  address owner = _owners[tokenId] */\n      swap1\n      pop\n        /* \"contracts/ERC721.sol\":3745:3750  owner */\n      dup1\n        /* \"contracts/ERC721.sol\":3731:3750  msg.sender == owner */\n      0xffffffffffffffffffffffffffffffffffffffff\n      and\n        /* \"contracts/ERC721.sol\":3731:3741  msg.sender */\n      caller\n        /* \"contracts/ERC721.sol\":3731:3750  msg.sender == owner */\n      0xffffffffffffffffffffffffffffffffffffffff\n      and\n      eq\n        /* \"contracts/ERC721.sol\":3731:3791  msg.sender == owner || _operatorApprovals[owner][msg.sender] */\n      dup1\n      tag_92\n      jumpi\n      pop\n        /* \"contracts/ERC721.sol\":3754:3772  _operatorApprovals */\n      0x03\n        /* \"contracts/ERC721.sol\":3754:3779  _operatorApprovals[owner] */\n      0x00\n        /* \"contracts/ERC721.sol\":3773:3778  owner */\n      dup3\n        /* \"contracts/ERC721.sol\":3754:3779  _operatorApprovals[owner] */\n      0xffffffffffffffffffffffffffffffffffffffff\n      and\n      0xffffffffffffffffffffffffffffffffffffffff\n      and\n      dup2\n      mstore\n      0x20\n      add\n      swap1\n      dup2\n      mstore\n      0x20\n      add\n      0x00\n      keccak256\n        /* \"contracts/ERC721.sol\":3754:3791  _operatorApprovals[owner][msg.sender] */\n      0x00\n        /* \"contracts/ERC721.sol\":3780:3790  msg.sender */\n      caller\n        /* \"contracts/ERC721.sol\":3754:3791  _operatorApprovals[owner][msg.sender] */\n      0xffffffffffffffffffffffffffffffffffffffff\n      and\n      0xffffffffffffffffffffffffffffffffffffffff\n      and\n      dup2\n      mstore\n      0x20\n      add\n      swap1\n      dup2\n      mstore\n      0x20\n      add\n      0x00\n      keccak256\n      0x00\n      swap1\n      sload\n      swap1\n      0x0100\n      exp\n      swap1\n      div\n      0xff\n      and\n        /* \"contracts/ERC721.sol\":3731:3791  msg.sender == owner || _operatorApprovals[owner][msg.sender] */\n    tag_92:\n        /* \"contracts/ERC721.sol\":3709:3849  require(... */\n      tag_93\n      jumpi\n      mload(0x40)\n      0x08c379a000000000000000000000000000000000000000000000000000000000\n      dup2\n      mstore\n      0x04\n      add\n      tag_94\n      swap1\n      tag_95\n      jump\t// in\n    tag_94:\n      mload(0x40)\n      dup1\n      swap2\n      sub\n      swap1\n      revert\n    tag_93:\n        /* \"contracts/ERC721.sol\":3860:3888  _approve(owner, to, tokenId) */\n      tag_96\n        /* \"contracts/ERC721.sol\":3869:3874  owner */\n      dup2\n        /* \"contracts/ERC721.sol\":3876:3878  to */\n      dup5\n        /* \"contracts/ERC721.sol\":3880:3887  tokenId */\n      dup5\n        /* \"contracts/ERC721.sol\":3860:3868  _approve */\n      tag_97\n        /* \"contracts/ERC721.sol\":3860:3888  _approve(owner, to, tokenId) */\n      jump\t// in\n    tag_96:\n        /* \"contracts/ERC721.sol\":3655:3896  {... */\n      pop\n        /* \"contracts/ERC721.sol\":3594:3896  function approve(address to, uint tokenId) external override {... */\n      pop\n      pop\n      jump\t// out\n        /* \"contracts/ERC721.sol\":4638:4978  function transferFrom(... */\n    tag_40:\n        /* \"contracts/ERC721.sol\":4763:4776  address owner */\n      0x00\n        /* \"contracts/ERC721.sol\":4779:4795  ownerOf(tokenId) */\n      tag_99\n        /* \"contracts/ERC721.sol\":4787:4794  tokenId */\n      dup3\n        /* \"contracts/ERC721.sol\":4779:4786  ownerOf */\n      tag_57\n        /* \"contracts/ERC721.sol\":4779:4795  ownerOf(tokenId) */\n      jump\t// in\n    tag_99:\n        /* \"contracts/ERC721.sol\":4763:4795  address owner = ownerOf(tokenId) */\n      swap1\n      pop\n        /* \"contracts/ERC721.sol\":4828:4874  _isApprovedOrOwner(owner, msg.sender, tokenId) */\n      tag_100\n        /* \"contracts/ERC721.sol\":4847:4852  owner */\n      dup2\n        /* \"contracts/ERC721.sol\":4854:4864  msg.sender */\n      caller\n        /* \"contracts/ERC721.sol\":4866:4873  tokenId */\n      dup5\n        /* \"contracts/ERC721.sol\":4828:4846  _isApprovedOrOwner */\n      tag_101\n        /* \"contracts/ERC721.sol\":4828:4874  _isApprovedOrOwner(owner, msg.sender, tokenId) */\n      jump\t// in\n    tag_100:\n        /* \"contracts/ERC721.sol\":4806:4924  require(... */\n      tag_102\n      jumpi\n      mload(0x40)\n      0x08c379a000000000000000000000000000000000000000000000000000000000\n      dup2\n      mstore\n      0x04\n      add\n      tag_103\n      swap1\n      tag_104\n      jump\t// in\n    tag_103:\n      mload(0x40)\n      dup1\n      swap2\n      sub\n      swap1\n      revert\n    tag_102:\n        /* \"contracts/ERC721.sol\":4935:4970  _transfer(owner, from, to, tokenId) */\n      tag_105\n        /* \"contracts/ERC721.sol\":4945:4950  owner */\n      dup2\n        /* \"contracts/ERC721.sol\":4952:4956  from */\n      dup6\n        /* \"contracts/ERC721.sol\":4958:4960  to */\n      dup6\n        /* \"contracts/ERC721.sol\":4962:4969  tokenId */\n      dup6\n        /* \"contracts/ERC721.sol\":4935:4944  _transfer */\n      tag_106\n        /* \"contracts/ERC721.sol\":4935:4970  _transfer(owner, from, to, tokenId) */\n      jump\t// in\n    tag_105:\n        /* \"contracts/ERC721.sol\":4752:4978  {... */\n      pop\n        /* \"contracts/ERC721.sol\":4638:4978  function transferFrom(... */\n      pop\n      pop\n      pop\n      jump\t// out\n        /* \"contracts/ERC721.sol\":6388:6691  function mint(address to, uint tokenId) public {... */\n    tag_43:\n        /* \"contracts/ERC721.sol\":6468:6469  0 */\n      0x00\n        /* \"contracts/ERC721.sol\":6454:6470  to != address(0) */\n      0xffffffffffffffffffffffffffffffffffffffff\n      and\n        /* \"contracts/ERC721.sol\":6454:6456  to */\n      dup3\n        /* \"contracts/ERC721.sol\":6454:6470  to != address(0) */\n      0xffffffffffffffffffffffffffffffffffffffff\n      and\n      sub\n        /* \"contracts/ERC721.sol\":6446:6495  require(to != address(0), \"mint to zero address\") */\n      tag_108\n      jumpi\n      mload(0x40)\n      0x08c379a000000000000000000000000000000000000000000000000000000000\n      dup2\n      mstore\n      0x04\n      add\n      tag_109\n      swap1\n      tag_110\n      jump\t// in\n    tag_109:\n      mload(0x40)\n      dup1\n      swap2\n      sub\n      swap1\n      revert\n    tag_108:\n        /* \"contracts/ERC721.sol\":6542:6543  0 */\n      0x00\n        /* \"contracts/ERC721.sol\":6514:6544  _owners[tokenId] == address(0) */\n      0xffffffffffffffffffffffffffffffffffffffff\n      and\n        /* \"contracts/ERC721.sol\":6514:6521  _owners */\n      0x00\n        /* \"contracts/ERC721.sol\":6514:6530  _owners[tokenId] */\n      dup1\n        /* \"contracts/ERC721.sol\":6522:6529  tokenId */\n      dup4\n        /* \"contracts/ERC721.sol\":6514:6530  _owners[tokenId] */\n      dup2\n      mstore\n      0x20\n      add\n      swap1\n      dup2\n      mstore\n      0x20\n      add\n      0x00\n      keccak256\n      0x00\n      swap1\n      sload\n      swap1\n      0x0100\n      exp\n      swap1\n      div\n      0xffffffffffffffffffffffffffffffffffffffff\n      and\n        /* \"contracts/ERC721.sol\":6514:6544  _owners[tokenId] == address(0) */\n      0xffffffffffffffffffffffffffffffffffffffff\n      and\n      eq\n        /* \"contracts/ERC721.sol\":6506:6569  require(_owners[tokenId] == address(0), \"token already minted\") */\n      tag_111\n      jumpi\n      mload(0x40)\n      0x08c379a000000000000000000000000000000000000000000000000000000000\n      dup2\n      mstore\n      0x04\n      add\n      tag_112\n      swap1\n      tag_113\n      jump\t// in\n    tag_112:\n      mload(0x40)\n      dup1\n      swap2\n      sub\n      swap1\n      revert\n    tag_111:\n        /* \"contracts/ERC721.sol\":6599:6600  1 */\n      0x01\n        /* \"contracts/ERC721.sol\":6582:6591  _balances */\n      dup1\n        /* \"contracts/ERC721.sol\":6582:6595  _balances[to] */\n      0x00\n        /* \"contracts/ERC721.sol\":6592:6594  to */\n      dup5\n        /* \"contracts/ERC721.sol\":6582:6595  _balances[to] */\n      0xffffffffffffffffffffffffffffffffffffffff\n      and\n      0xffffffffffffffffffffffffffffffffffffffff\n      and\n      dup2\n      mstore\n      0x20\n      add\n      swap1\n      dup2\n      mstore\n      0x20\n      add\n      0x00\n      keccak256\n      0x00\n        /* \"contracts/ERC721.sol\":6582:6600  _balances[to] += 1 */\n      dup3\n      dup3\n      sload\n      tag_114\n      swap2\n      swap1\n      tag_115\n      jump\t// in\n    tag_114:\n      swap3\n      pop\n      pop\n      dup2\n      swap1\n      sstore\n      pop\n        /* \"contracts/ERC721.sol\":6630:6632  to */\n      dup2\n        /* \"contracts/ERC721.sol\":6611:6618  _owners */\n      0x00\n        /* \"contracts/ERC721.sol\":6611:6627  _owners[tokenId] */\n      dup1\n        /* \"contracts/ERC721.sol\":6619:6626  tokenId */\n      dup4\n        /* \"contracts/ERC721.sol\":6611:6627  _owners[tokenId] */\n      dup2\n      mstore\n      0x20\n      add\n      swap1\n      dup2\n      mstore\n      0x20\n      add\n      0x00\n      keccak256\n      0x00\n        /* \"contracts/ERC721.sol\":6611:6632  _owners[tokenId] = to */\n      0x0100\n      exp\n      dup2\n      sload\n      dup2\n      0xffffffffffffffffffffffffffffffffffffffff\n      mul\n      not\n      and\n      swap1\n      dup4\n      0xffffffffffffffffffffffffffffffffffffffff\n      and\n      mul\n      or\n      swap1\n      sstore\n      pop\n        /* \"contracts/ERC721.sol\":6675:6682  tokenId */\n      dup1\n        /* \"contracts/ERC721.sol\":6671:6673  to */\n      dup3\n        /* \"contracts/ERC721.sol\":6650:6683  Transfer(address(0), to, tokenId) */\n      0xffffffffffffffffffffffffffffffffffffffff\n      and\n        /* \"contracts/ERC721.sol\":6667:6668  0 */\n      0x00\n        /* \"contracts/ERC721.sol\":6650:6683  Transfer(address(0), to, tokenId) */\n      0xffffffffffffffffffffffffffffffffffffffff\n      and\n      0xddf252ad1be2c89b69c2b068fc378daa952ba7f163c4a11628f55a4df523b3ef\n      mload(0x40)\n      mload(0x40)\n      dup1\n      swap2\n      sub\n      swap1\n      log4\n        /* \"contracts/ERC721.sol\":6388:6691  function mint(address to, uint tokenId) public {... */\n      pop\n      pop\n      jump\t// out\n        /* \"contracts/ERC721.sol\":6204:6380  function safeTransferFrom(... */\n    tag_46:\n        /* \"contracts/ERC721.sol\":6333:6372  safeTransferFrom(from, to, tokenId, \"\") */\n      tag_117\n        /* \"contracts/ERC721.sol\":6350:6354  from */\n      dup4\n        /* \"contracts/ERC721.sol\":6356:6358  to */\n      dup4\n        /* \"contracts/ERC721.sol\":6360:6367  tokenId */\n      dup4\n        /* \"contracts/ERC721.sol\":6333:6372  safeTransferFrom(from, to, tokenId, \"\") */\n      mload(0x40)\n      dup1\n      0x20\n      add\n      0x40\n      mstore\n      dup1\n      0x00\n      dup2\n      mstore\n      pop\n        /* \"contracts/ERC721.sol\":6333:6349  safeTransferFrom */\n      tag_75\n        /* \"contracts/ERC721.sol\":6333:6372  safeTransferFrom(from, to, tokenId, \"\") */\n      jump\t// in\n    tag_117:\n        /* \"contracts/ERC721.sol\":6204:6380  function safeTransferFrom(... */\n      pop\n      pop\n      pop\n      jump\t// out\n        /* \"contracts/ERC721.sol\":6699:6958  function burn(uint tokenId) external {... */\n    tag_49:\n        /* \"contracts/ERC721.sol\":6747:6760  address owner */\n      0x00\n        /* \"contracts/ERC721.sol\":6763:6779  ownerOf(tokenId) */\n      tag_119\n        /* \"contracts/ERC721.sol\":6771:6778  tokenId */\n      dup3\n        /* \"contracts/ERC721.sol\":6763:6770  ownerOf */\n      tag_57\n        /* \"contracts/ERC721.sol\":6763:6779  ownerOf(tokenId) */\n      jump\t// in\n    tag_119:\n        /* \"contracts/ERC721.sol\":6747:6779  address owner = ownerOf(tokenId) */\n      swap1\n      pop\n        /* \"contracts/ERC721.sol\":6792:6828  _approve(owner, address(0), tokenId) */\n      tag_120\n        /* \"contracts/ERC721.sol\":6801:6806  owner */\n      dup2\n        /* \"contracts/ERC721.sol\":6816:6817  0 */\n      0x00\n        /* \"contracts/ERC721.sol\":6820:6827  tokenId */\n      dup5\n        /* \"contracts/ERC721.sol\":6792:6800  _approve */\n      tag_97\n        /* \"contracts/ERC721.sol\":6792:6828  _approve(owner, address(0), tokenId) */\n      jump\t// in\n    tag_120:\n        /* \"contracts/ERC721.sol\":6861:6862  1 */\n      0x01\n        /* \"contracts/ERC721.sol\":6841:6850  _balances */\n      dup1\n        /* \"contracts/ERC721.sol\":6841:6857  _balances[owner] */\n      0x00\n        /* \"contracts/ERC721.sol\":6851:6856  owner */\n      dup4\n        /* \"contracts/ERC721.sol\":6841:6857  _balances[owner] */\n      0xffffffffffffffffffffffffffffffffffffffff\n      and\n      0xffffffffffffffffffffffffffffffffffffffff\n      and\n      dup2\n      mstore\n      0x20\n      add\n      swap1\n      dup2\n      mstore\n      0x20\n      add\n      0x00\n      keccak256\n      0x00\n        /* \"contracts/ERC721.sol\":6841:6862  _balances[owner] -= 1 */\n      dup3\n      dup3\n      sload\n      tag_121\n      swap2\n      swap1\n      tag_122\n      jump\t// in\n    tag_121:\n      swap3\n      pop\n      pop\n      dup2\n      swap1\n      sstore\n      pop\n        /* \"contracts/ERC721.sol\":6880:6887  _owners */\n      0x00\n        /* \"contracts/ERC721.sol\":6880:6896  _owners[tokenId] */\n      dup1\n        /* \"contracts/ERC721.sol\":6888:6895  tokenId */\n      dup4\n        /* \"contracts/ERC721.sol\":6880:6896  _owners[tokenId] */\n      dup2\n      mstore\n      0x20\n      add\n      swap1\n      dup2\n      mstore\n      0x20\n      add\n      0x00\n      keccak256\n      0x00\n        /* \"contracts/ERC721.sol\":6873:6896  delete _owners[tokenId] */\n      0x0100\n      exp\n      dup2\n      sload\n      swap1\n      0xffffffffffffffffffffffffffffffffffffffff\n      mul\n      not\n      and\n      swap1\n      sstore\n        /* \"contracts/ERC721.sol\":6942:6949  tokenId */\n      dup2\n        /* \"contracts/ERC721.sol\":6938:6939  0 */\n      0x00\n        /* \"contracts/ERC721.sol\":6914:6950  Transfer(owner, address(0), tokenId) */\n      0xffffffffffffffffffffffffffffffffffffffff\n      and\n        /* \"contracts/ERC721.sol\":6923:6928  owner */\n      dup3\n        /* \"contracts/ERC721.sol\":6914:6950  Transfer(owner, address(0), tokenId) */\n      0xffffffffffffffffffffffffffffffffffffffff\n      and\n      0xddf252ad1be2c89b69c2b068fc378daa952ba7f163c4a11628f55a4df523b3ef\n      mload(0x40)\n      mload(0x40)\n      dup1\n      swap2\n      sub\n      swap1\n      log4\n        /* \"contracts/ERC721.sol\":6736:6958  {... */\n      pop\n        /* \"contracts/ERC721.sol\":6699:6958  function burn(uint tokenId) external {... */\n      pop\n      jump\t// out\n        /* \"contracts/MerkleTree.sol\":252:297  mapping(address => bool) public mintedAddress */\n    tag_53:\n      mstore(0x20, 0x04)\n      dup1\n      0x00\n      mstore\n      keccak256(0x00, 0x40)\n      0x00\n      swap2\n      pop\n      sload\n      swap1\n      0x0100\n      exp\n      swap1\n      div\n      0xff\n      and\n      dup2\n      jump\t// out\n        /* \"contracts/ERC721.sol\":2572:2753  function ownerOf(uint tokenId) public view override returns (address owner) {... */\n    tag_57:\n        /* \"contracts/ERC721.sol\":2633:2646  address owner */\n      0x00\n        /* \"contracts/ERC721.sol\":2667:2674  _owners */\n      dup1\n        /* \"contracts/ERC721.sol\":2667:2683  _owners[tokenId] */\n      0x00\n        /* \"contracts/ERC721.sol\":2675:2682  tokenId */\n      dup4\n        /* \"contracts/ERC721.sol\":2667:2683  _owners[tokenId] */\n      dup2\n      mstore\n      0x20\n      add\n      swap1\n      dup2\n      mstore\n      0x20\n      add\n      0x00\n      keccak256\n      0x00\n      swap1\n      sload\n      swap1\n      0x0100\n      exp\n      swap1\n      div\n      0xffffffffffffffffffffffffffffffffffffffff\n      and\n        /* \"contracts/ERC721.sol\":2659:2683  owner = _owners[tokenId] */\n      swap1\n      pop\n        /* \"contracts/ERC721.sol\":2719:2720  0 */\n      0x00\n        /* \"contracts/ERC721.sol\":2702:2721  owner != address(0) */\n      0xffffffffffffffffffffffffffffffffffffffff\n      and\n        /* \"contracts/ERC721.sol\":2702:2707  owner */\n      dup2\n        /* \"contracts/ERC721.sol\":2702:2721  owner != address(0) */\n      0xffffffffffffffffffffffffffffffffffffffff\n      and\n      sub\n        /* \"contracts/ERC721.sol\":2694:2745  require(owner != address(0), \"token doesn't exist\") */\n      tag_124\n      jumpi\n      mload(0x40)\n      0x08c379a000000000000000000000000000000000000000000000000000000000\n      dup2\n      mstore\n      0x04\n      add\n      tag_125\n      swap1\n      tag_90\n      jump\t// in\n    tag_125:\n      mload(0x40)\n      dup1\n      swap2\n      sub\n      swap1\n      revert\n    tag_124:\n        /* \"contracts/ERC721.sol\":2572:2753  function ownerOf(uint tokenId) public view override returns (address owner) {... */\n      swap2\n      swap1\n      pop\n      jump\t// out\n        /* \"contracts/MerkleTree.sol\":540:929  function mint(address account, uint256 tokenId, bytes32[] calldata proof)... */\n    tag_62:\n        /* \"contracts/MerkleTree.sol\":652:682  _verify(_leaf(account), proof) */\n      tag_127\n        /* \"contracts/MerkleTree.sol\":660:674  _leaf(account) */\n      tag_128\n        /* \"contracts/MerkleTree.sol\":666:673  account */\n      dup6\n        /* \"contracts/MerkleTree.sol\":660:665  _leaf */\n      tag_129\n        /* \"contracts/MerkleTree.sol\":660:674  _leaf(account) */\n      jump\t// in\n    tag_128:\n        /* \"contracts/MerkleTree.sol\":676:681  proof */\n      dup4\n      dup4\n        /* \"contracts/MerkleTree.sol\":652:682  _verify(_leaf(account), proof) */\n      dup1\n      dup1\n      0x20\n      mul\n      0x20\n      add\n      mload(0x40)\n      swap1\n      dup2\n      add\n      0x40\n      mstore\n      dup1\n      swap4\n      swap3\n      swap2\n      swap1\n      dup2\n      dup2\n      mstore\n      0x20\n      add\n      dup4\n      dup4\n      0x20\n      mul\n      dup1\n      dup3\n      dup5\n      calldatacopy\n      0x00\n      dup2\n      dup5\n      add\n      mstore\n      not(0x1f)\n      0x1f\n      dup3\n      add\n      and\n      swap1\n      pop\n      dup1\n      dup4\n      add\n      swap3\n      pop\n      pop\n      pop\n      pop\n      pop\n      pop\n      pop\n        /* \"contracts/MerkleTree.sol\":652:659  _verify */\n      tag_130\n        /* \"contracts/MerkleTree.sol\":652:682  _verify(_leaf(account), proof) */\n      jump\t// in\n    tag_127:\n        /* \"contracts/MerkleTree.sol\":644:707  require(_verify(_leaf(account), proof), \"Invalid merkle proof\") */\n      tag_131\n      jumpi\n      mload(0x40)\n      0x08c379a000000000000000000000000000000000000000000000000000000000\n      dup2\n      mstore\n      0x04\n      add\n      tag_132\n      swap1\n      tag_133\n      jump\t// in\n    tag_132:\n      mload(0x40)\n      dup1\n      swap2\n      sub\n      swap1\n      revert\n    tag_131:\n        /* \"contracts/MerkleTree.sol\":749:762  mintedAddress */\n      0x04\n        /* \"contracts/MerkleTree.sol\":749:771  mintedAddress[account] */\n      0x00\n        /* \"contracts/MerkleTree.sol\":763:770  account */\n      dup6\n        /* \"contracts/MerkleTree.sol\":749:771  mintedAddress[account] */\n      0xffffffffffffffffffffffffffffffffffffffff\n      and\n      0xffffffffffffffffffffffffffffffffffffffff\n      and\n      dup2\n      mstore\n      0x20\n      add\n      swap1\n      dup2\n      mstore\n      0x20\n      add\n      0x00\n      keccak256\n      0x00\n      swap1\n      sload\n      swap1\n      0x0100\n      exp\n      swap1\n      div\n      0xff\n      and\n        /* \"contracts/MerkleTree.sol\":748:771  !mintedAddress[account] */\n      iszero\n        /* \"contracts/MerkleTree.sol\":740:791  require(!mintedAddress[account], \"Already minted!\") */\n      tag_134\n      jumpi\n      mload(0x40)\n      0x08c379a000000000000000000000000000000000000000000000000000000000\n      dup2\n      mstore\n      0x04\n      add\n      tag_135\n      swap1\n      tag_136\n      jump\t// in\n    tag_135:\n      mload(0x40)\n      dup1\n      swap2\n      sub\n      swap1\n      revert\n    tag_134:\n        /* \"contracts/MerkleTree.sol\":825:847  mint(account, tokenId) */\n      tag_137\n        /* \"contracts/MerkleTree.sol\":830:837  account */\n      dup5\n        /* \"contracts/MerkleTree.sol\":839:846  tokenId */\n      dup5\n        /* \"contracts/MerkleTree.sol\":825:829  mint */\n      tag_43\n        /* \"contracts/MerkleTree.sol\":825:847  mint(account, tokenId) */\n      jump\t// in\n    tag_137:\n        /* \"contracts/MerkleTree.sol\":891:895  true */\n      0x01\n        /* \"contracts/MerkleTree.sol\":866:879  mintedAddress */\n      0x04\n        /* \"contracts/MerkleTree.sol\":866:888  mintedAddress[account] */\n      0x00\n        /* \"contracts/MerkleTree.sol\":880:887  account */\n      dup7\n        /* \"contracts/MerkleTree.sol\":866:888  mintedAddress[account] */\n      0xffffffffffffffffffffffffffffffffffffffff\n      and\n      0xffffffffffffffffffffffffffffffffffffffff\n      and\n      dup2\n      mstore\n      0x20\n      add\n      swap1\n      dup2\n      mstore\n      0x20\n      add\n      0x00\n      keccak256\n      0x00\n        /* \"contracts/MerkleTree.sol\":866:895  mintedAddress[account] = true */\n      0x0100\n      exp\n      dup2\n      sload\n      dup2\n      0xff\n      mul\n      not\n      and\n      swap1\n      dup4\n      iszero\n      iszero\n      mul\n      or\n      swap1\n      sstore\n      pop\n        /* \"contracts/MerkleTree.sol\":540:929  function mint(address account, uint256 tokenId, bytes32[] calldata proof)... */\n      pop\n      pop\n      pop\n      pop\n      jump\t// out\n        /* \"contracts/ERC721.sol\":2387:2564  function balanceOf(address owner) external view override returns (uint) {... */\n    tag_65:\n        /* \"contracts/ERC721.sol\":2453:2457  uint */\n      0x00\n        /* \"contracts/ERC721.sol\":2495:2496  0 */\n      dup1\n        /* \"contracts/ERC721.sol\":2478:2497  owner != address(0) */\n      0xffffffffffffffffffffffffffffffffffffffff\n      and\n        /* \"contracts/ERC721.sol\":2478:2483  owner */\n      dup3\n        /* \"contracts/ERC721.sol\":2478:2497  owner != address(0) */\n      0xffffffffffffffffffffffffffffffffffffffff\n      and\n      sub\n        /* \"contracts/ERC721.sol\":2470:2522  require(owner != address(0), \"owner = zero address\") */\n      tag_139\n      jumpi\n      mload(0x40)\n      0x08c379a000000000000000000000000000000000000000000000000000000000\n      dup2\n      mstore\n      0x04\n      add\n      tag_140\n      swap1\n      tag_141\n      jump\t// in\n    tag_140:\n      mload(0x40)\n      dup1\n      swap2\n      sub\n      swap1\n      revert\n    tag_139:\n        /* \"contracts/ERC721.sol\":2540:2549  _balances */\n      0x01\n        /* \"contracts/ERC721.sol\":2540:2556  _balances[owner] */\n      0x00\n        /* \"contracts/ERC721.sol\":2550:2555  owner */\n      dup4\n        /* \"contracts/ERC721.sol\":2540:2556  _balances[owner] */\n      0xffffffffffffffffffffffffffffffffffffffff\n      and\n      0xffffffffffffffffffffffffffffffffffffffff\n      and\n      dup2\n      mstore\n      0x20\n      add\n      swap1\n      dup2\n      mstore\n      0x20\n      add\n      0x00\n      keccak256\n      sload\n        /* \"contracts/ERC721.sol\":2533:2556  return _balances[owner] */\n      swap1\n      pop\n        /* \"contracts/ERC721.sol\":2387:2564  function balanceOf(address owner) external view override returns (uint) {... */\n      swap2\n      swap1\n      pop\n      jump\t// out\n        /* \"contracts/ERC721.sol\":2968:3178  function setApprovalForAll(address operator, bool approved) external override {... */\n    tag_71:\n        /* \"contracts/ERC721.sol\":3100:3108  approved */\n      dup1\n        /* \"contracts/ERC721.sol\":3057:3075  _operatorApprovals */\n      0x03\n        /* \"contracts/ERC721.sol\":3057:3087  _operatorApprovals[msg.sender] */\n      0x00\n        /* \"contracts/ERC721.sol\":3076:3086  msg.sender */\n      caller\n        /* \"contracts/ERC721.sol\":3057:3087  _operatorApprovals[msg.sender] */\n      0xffffffffffffffffffffffffffffffffffffffff\n      and\n      0xffffffffffffffffffffffffffffffffffffffff\n      and\n      dup2\n      mstore\n      0x20\n      add\n      swap1\n      dup2\n      mstore\n      0x20\n      add\n      0x00\n      keccak256\n        /* \"contracts/ERC721.sol\":3057:3097  _operatorApprovals[msg.sender][operator] */\n      0x00\n        /* \"contracts/ERC721.sol\":3088:3096  operator */\n      dup5\n        /* \"contracts/ERC721.sol\":3057:3097  _operatorApprovals[msg.sender][operator] */\n      0xffffffffffffffffffffffffffffffffffffffff\n      and\n      0xffffffffffffffffffffffffffffffffffffffff\n      and\n      dup2\n      mstore\n      0x20\n      add\n      swap1\n      dup2\n      mstore\n      0x20\n      add\n      0x00\n      keccak256\n      0x00\n        /* \"contracts/ERC721.sol\":3057:3108  _operatorApprovals[msg.sender][operator] = approved */\n      0x0100\n      exp\n      dup2\n      sload\n      dup2\n      0xff\n      mul\n      not\n      and\n      swap1\n      dup4\n      iszero\n      iszero\n      mul\n      or\n      swap1\n      sstore\n      pop\n        /* \"contracts/ERC721.sol\":3151:3159  operator */\n      dup2\n        /* \"contracts/ERC721.sol\":3124:3170  ApprovalForAll(msg.sender, operator, approved) */\n      0xffffffffffffffffffffffffffffffffffffffff\n      and\n        /* \"contracts/ERC721.sol\":3139:3149  msg.sender */\n      caller\n        /* \"contracts/ERC721.sol\":3124:3170  ApprovalForAll(msg.sender, operator, approved) */\n      0xffffffffffffffffffffffffffffffffffffffff\n      and\n      0x17307eab39ab6107e8899845ad3d59bd9653f200f220920489ca2b5937696c31\n        /* \"contracts/ERC721.sol\":3161:3169  approved */\n      dup4\n        /* \"contracts/ERC721.sol\":3124:3170  ApprovalForAll(msg.sender, operator, approved) */\n      mload(0x40)\n      tag_143\n      swap2\n      swap1\n      tag_26\n      jump\t// in\n    tag_143:\n      mload(0x40)\n      dup1\n      swap2\n      sub\n      swap1\n      log3\n        /* \"contracts/ERC721.sol\":2968:3178  function setApprovalForAll(address operator, bool approved) external override {... */\n      pop\n      pop\n      jump\t// out\n        /* \"contracts/ERC721.sol\":5814:6196  function safeTransferFrom(... */\n    tag_75:\n        /* \"contracts/ERC721.sol\":5970:5983  address owner */\n      0x00\n        /* \"contracts/ERC721.sol\":5986:6002  ownerOf(tokenId) */\n      tag_145\n        /* \"contracts/ERC721.sol\":5994:6001  tokenId */\n      dup4\n        /* \"contracts/ERC721.sol\":5986:5993  ownerOf */\n      tag_57\n        /* \"contracts/ERC721.sol\":5986:6002  ownerOf(tokenId) */\n      jump\t// in\n    tag_145:\n        /* \"contracts/ERC721.sol\":5970:6002  address owner = ownerOf(tokenId) */\n      swap1\n      pop\n        /* \"contracts/ERC721.sol\":6035:6081  _isApprovedOrOwner(owner, msg.sender, tokenId) */\n      tag_146\n        /* \"contracts/ERC721.sol\":6054:6059  owner */\n      dup2\n        /* \"contracts/ERC721.sol\":6061:6071  msg.sender */\n      caller\n        /* \"contracts/ERC721.sol\":6073:6080  tokenId */\n      dup6\n        /* \"contracts/ERC721.sol\":6035:6053  _isApprovedOrOwner */\n      tag_101\n        /* \"contracts/ERC721.sol\":6035:6081  _isApprovedOrOwner(owner, msg.sender, tokenId) */\n      jump\t// in\n    tag_146:\n        /* \"contracts/ERC721.sol\":6013:6131  require(... */\n      tag_147\n      jumpi\n      mload(0x40)\n      0x08c379a000000000000000000000000000000000000000000000000000000000\n      dup2\n      mstore\n      0x04\n      add\n      tag_148\n      swap1\n      tag_104\n      jump\t// in\n    tag_148:\n      mload(0x40)\n      dup1\n      swap2\n      sub\n      swap1\n      revert\n    tag_147:\n        /* \"contracts/ERC721.sol\":6142:6188  _safeTransfer(owner, from, to, tokenId, _data) */\n      tag_149\n        /* \"contracts/ERC721.sol\":6156:6161  owner */\n      dup2\n        /* \"contracts/ERC721.sol\":6163:6167  from */\n      dup7\n        /* \"contracts/ERC721.sol\":6169:6171  to */\n      dup7\n        /* \"contracts/ERC721.sol\":6173:6180  tokenId */\n      dup7\n        /* \"contracts/ERC721.sol\":6182:6187  _data */\n      dup7\n        /* \"contracts/ERC721.sol\":6142:6155  _safeTransfer */\n      tag_150\n        /* \"contracts/ERC721.sol\":6142:6188  _safeTransfer(owner, from, to, tokenId, _data) */\n      jump\t// in\n    tag_149:\n        /* \"contracts/ERC721.sol\":5959:6196  {... */\n      pop\n        /* \"contracts/ERC721.sol\":5814:6196  function safeTransferFrom(... */\n      pop\n      pop\n      pop\n      pop\n      jump\t// out\n        /* \"contracts/ERC721.sol\":2761:2960  function isApprovedForAll(address owner, address operator)... */\n    tag_79:\n        /* \"contracts/ERC721.sol\":2888:2892  bool */\n      0x00\n        /* \"contracts/ERC721.sol\":2917:2935  _operatorApprovals */\n      0x03\n        /* \"contracts/ERC721.sol\":2917:2942  _operatorApprovals[owner] */\n      0x00\n        /* \"contracts/ERC721.sol\":2936:2941  owner */\n      dup5\n        /* \"contracts/ERC721.sol\":2917:2942  _operatorApprovals[owner] */\n      0xffffffffffffffffffffffffffffffffffffffff\n      and\n      0xffffffffffffffffffffffffffffffffffffffff\n      and\n      dup2\n      mstore\n      0x20\n      add\n      swap1\n      dup2\n      mstore\n      0x20\n      add\n      0x00\n      keccak256\n        /* \"contracts/ERC721.sol\":2917:2952  _operatorApprovals[owner][operator] */\n      0x00\n        /* \"contracts/ERC721.sol\":2943:2951  operator */\n      dup4\n        /* \"contracts/ERC721.sol\":2917:2952  _operatorApprovals[owner][operator] */\n      0xffffffffffffffffffffffffffffffffffffffff\n      and\n      0xffffffffffffffffffffffffffffffffffffffff\n      and\n      dup2\n      mstore\n      0x20\n      add\n      swap1\n      dup2\n      mstore\n      0x20\n      add\n      0x00\n      keccak256\n      0x00\n      swap1\n      sload\n      swap1\n      0x0100\n      exp\n      swap1\n      div\n      0xff\n      and\n        /* \"contracts/ERC721.sol\":2910:2952  return _operatorApprovals[owner][operator] */\n      swap1\n      pop\n        /* \"contracts/ERC721.sol\":2761:2960  function isApprovedForAll(address owner, address operator)... */\n      swap3\n      swap2\n      pop\n      pop\n      jump\t// out\n        /* \"contracts/MerkleTree.sol\":197:226  bytes32 immutable public root */\n    tag_82:\n      immutable(\"0x1b3fd0da9f6b7da2147eff870266af25b54877bf9c7064498588ee6f953ee460\")\n      dup2\n      jump\t// out\n        /* \"contracts/ERC721.sol\":3393:3586  function _approve(... */\n    tag_97:\n        /* \"contracts/ERC721.sol\":3532:3534  to */\n      dup2\n        /* \"contracts/ERC721.sol\":3505:3520  _tokenApprovals */\n      0x02\n        /* \"contracts/ERC721.sol\":3505:3529  _tokenApprovals[tokenId] */\n      0x00\n        /* \"contracts/ERC721.sol\":3521:3528  tokenId */\n      dup4\n        /* \"contracts/ERC721.sol\":3505:3529  _tokenApprovals[tokenId] */\n      dup2\n      mstore\n      0x20\n      add\n      swap1\n      dup2\n      mstore\n      0x20\n      add\n      0x00\n      keccak256\n      0x00\n        /* \"contracts/ERC721.sol\":3505:3534  _tokenApprovals[tokenId] = to */\n      0x0100\n      exp\n      dup2\n      sload\n      dup2\n      0xffffffffffffffffffffffffffffffffffffffff\n      mul\n      not\n      and\n      swap1\n      dup4\n      0xffffffffffffffffffffffffffffffffffffffff\n      and\n      mul\n      or\n      swap1\n      sstore\n      pop\n        /* \"contracts/ERC721.sol\":3570:3577  tokenId */\n      dup1\n        /* \"contracts/ERC721.sol\":3566:3568  to */\n      dup3\n        /* \"contracts/ERC721.sol\":3550:3578  Approval(owner, to, tokenId) */\n      0xffffffffffffffffffffffffffffffffffffffff\n      and\n        /* \"contracts/ERC721.sol\":3559:3564  owner */\n      dup5\n        /* \"contracts/ERC721.sol\":3550:3578  Approval(owner, to, tokenId) */\n      0xffffffffffffffffffffffffffffffffffffffff\n      and\n      0x8c5be1e5ebec7d5bd14f71427d1e84f3dd0314c0f7b2291e5b200ac8c7c3b925\n      mload(0x40)\n      mload(0x40)\n      dup1\n      swap2\n      sub\n      swap1\n      log4\n        /* \"contracts/ERC721.sol\":3393:3586  function _approve(... */\n      pop\n      pop\n      pop\n      jump\t// out\n        /* \"contracts/ERC721.sol\":3904:4187  function _isApprovedOrOwner(... */\n    tag_101:\n        /* \"contracts/ERC721.sol\":4034:4038  bool */\n      0x00\n        /* \"contracts/ERC721.sol\":4070:4075  owner */\n      dup4\n        /* \"contracts/ERC721.sol\":4059:4075  spender == owner */\n      0xffffffffffffffffffffffffffffffffffffffff\n      and\n        /* \"contracts/ERC721.sol\":4059:4066  spender */\n      dup4\n        /* \"contracts/ERC721.sol\":4059:4075  spender == owner */\n      0xffffffffffffffffffffffffffffffffffffffff\n      and\n      eq\n        /* \"contracts/ERC721.sol\":4059:4127  spender == owner ||... */\n      dup1\n      tag_154\n      jumpi\n      pop\n        /* \"contracts/ERC721.sol\":4120:4127  spender */\n      dup3\n        /* \"contracts/ERC721.sol\":4092:4127  _tokenApprovals[tokenId] == spender */\n      0xffffffffffffffffffffffffffffffffffffffff\n      and\n        /* \"contracts/ERC721.sol\":4092:4107  _tokenApprovals */\n      0x02\n        /* \"contracts/ERC721.sol\":4092:4116  _tokenApprovals[tokenId] */\n      0x00\n        /* \"contracts/ERC721.sol\":4108:4115  tokenId */\n      dup5\n        /* \"contracts/ERC721.sol\":4092:4116  _tokenApprovals[tokenId] */\n      dup2\n      mstore\n      0x20\n      add\n      swap1\n      dup2\n      mstore\n      0x20\n      add\n      0x00\n      keccak256\n      0x00\n      swap1\n      sload\n      swap1\n      0x0100\n      exp\n      swap1\n      div\n      0xffffffffffffffffffffffffffffffffffffffff\n      and\n        /* \"contracts/ERC721.sol\":4092:4127  _tokenApprovals[tokenId] == spender */\n      0xffffffffffffffffffffffffffffffffffffffff\n      and\n      eq\n        /* \"contracts/ERC721.sol\":4059:4127  spender == owner ||... */\n    tag_154:\n        /* \"contracts/ERC721.sol\":4059:4178  spender == owner ||... */\n      dup1\n      tag_155\n      jumpi\n      pop\n        /* \"contracts/ERC721.sol\":4144:4162  _operatorApprovals */\n      0x03\n        /* \"contracts/ERC721.sol\":4144:4169  _operatorApprovals[owner] */\n      0x00\n        /* \"contracts/ERC721.sol\":4163:4168  owner */\n      dup6\n        /* \"contracts/ERC721.sol\":4144:4169  _operatorApprovals[owner] */\n      0xffffffffffffffffffffffffffffffffffffffff\n      and\n      0xffffffffffffffffffffffffffffffffffffffff\n      and\n      dup2\n      mstore\n      0x20\n      add\n      swap1\n      dup2\n      mstore\n      0x20\n      add\n      0x00\n      keccak256\n        /* \"contracts/ERC721.sol\":4144:4178  _operatorApprovals[owner][spender] */\n      0x00\n        /* \"contracts/ERC721.sol\":4170:4177  spender */\n      dup5\n        /* \"contracts/ERC721.sol\":4144:4178  _operatorApprovals[owner][spender] */\n      0xffffffffffffffffffffffffffffffffffffffff\n      and\n      0xffffffffffffffffffffffffffffffffffffffff\n      and\n      dup2\n      mstore\n      0x20\n      add\n      swap1\n      dup2\n      mstore\n      0x20\n      add\n      0x00\n      keccak256\n      0x00\n      swap1\n      sload\n      swap1\n      0x0100\n      exp\n      swap1\n      div\n      0xff\n      and\n        /* \"contracts/ERC721.sol\":4059:4178  spender == owner ||... */\n    tag_155:\n        /* \"contracts/ERC721.sol\":4051:4179  return (spender == owner ||... */\n      swap1\n      pop\n        /* \"contracts/ERC721.sol\":3904:4187  function _isApprovedOrOwner(... */\n      swap4\n      swap3\n      pop\n      pop\n      pop\n      jump\t// out\n        /* \"contracts/ERC721.sol\":4195:4630  function _transfer(... */\n    tag_106:\n        /* \"contracts/ERC721.sol\":4347:4352  owner */\n      dup4\n        /* \"contracts/ERC721.sol\":4339:4352  from == owner */\n      0xffffffffffffffffffffffffffffffffffffffff\n      and\n        /* \"contracts/ERC721.sol\":4339:4343  from */\n      dup4\n        /* \"contracts/ERC721.sol\":4339:4352  from == owner */\n      0xffffffffffffffffffffffffffffffffffffffff\n      and\n      eq\n        /* \"contracts/ERC721.sol\":4331:4366  require(from == owner, \"not owner\") */\n      tag_157\n      jumpi\n      mload(0x40)\n      0x08c379a000000000000000000000000000000000000000000000000000000000\n      dup2\n      mstore\n      0x04\n      add\n      tag_158\n      swap1\n      tag_159\n      jump\t// in\n    tag_158:\n      mload(0x40)\n      dup1\n      swap2\n      sub\n      swap1\n      revert\n    tag_157:\n        /* \"contracts/ERC721.sol\":4399:4400  0 */\n      0x00\n        /* \"contracts/ERC721.sol\":4385:4401  to != address(0) */\n      0xffffffffffffffffffffffffffffffffffffffff\n      and\n        /* \"contracts/ERC721.sol\":4385:4387  to */\n      dup3\n        /* \"contracts/ERC721.sol\":4385:4401  to != address(0) */\n      0xffffffffffffffffffffffffffffffffffffffff\n      and\n      sub\n        /* \"contracts/ERC721.sol\":4377:4434  require(to != address(0), \"transfer to the zero address\") */\n      tag_160\n      jumpi\n      mload(0x40)\n      0x08c379a000000000000000000000000000000000000000000000000000000000\n      dup2\n      mstore\n      0x04\n      add\n      tag_161\n      swap1\n      tag_162\n      jump\t// in\n    tag_161:\n      mload(0x40)\n      dup1\n      swap2\n      sub\n      swap1\n      revert\n    tag_160:\n        /* \"contracts/ERC721.sol\":4447:4483  _approve(owner, address(0), tokenId) */\n      tag_163\n        /* \"contracts/ERC721.sol\":4456:4461  owner */\n      dup5\n        /* \"contracts/ERC721.sol\":4471:4472  0 */\n      0x00\n        /* \"contracts/ERC721.sol\":4475:4482  tokenId */\n      dup4\n        /* \"contracts/ERC721.sol\":4447:4455  _approve */\n      tag_97\n        /* \"contracts/ERC721.sol\":4447:4483  _approve(owner, address(0), tokenId) */\n      jump\t// in\n    tag_163:\n        /* \"contracts/ERC721.sol\":4515:4516  1 */\n      0x01\n        /* \"contracts/ERC721.sol\":4496:4505  _balances */\n      dup1\n        /* \"contracts/ERC721.sol\":4496:4511  _balances[from] */\n      0x00\n        /* \"contracts/ERC721.sol\":4506:4510  from */\n      dup6\n        /* \"contracts/ERC721.sol\":4496:4511  _balances[from] */\n      0xffffffffffffffffffffffffffffffffffffffff\n      and\n      0xffffffffffffffffffffffffffffffffffffffff\n      and\n      dup2\n      mstore\n      0x20\n      add\n      swap1\n      dup2\n      mstore\n      0x20\n      add\n      0x00\n      keccak256\n      0x00\n        /* \"contracts/ERC721.sol\":4496:4516  _balances[from] -= 1 */\n      dup3\n      dup3\n      sload\n      tag_164\n      swap2\n      swap1\n      tag_122\n      jump\t// in\n    tag_164:\n      swap3\n      pop\n      pop\n      dup2\n      swap1\n      sstore\n      pop\n        /* \"contracts/ERC721.sol\":4544:4545  1 */\n      0x01\n        /* \"contracts/ERC721.sol\":4527:4536  _balances */\n      dup1\n        /* \"contracts/ERC721.sol\":4527:4540  _balances[to] */\n      0x00\n        /* \"contracts/ERC721.sol\":4537:4539  to */\n      dup5\n        /* \"contracts/ERC721.sol\":4527:4540  _balances[to] */\n      0xffffffffffffffffffffffffffffffffffffffff\n      and\n      0xffffffffffffffffffffffffffffffffffffffff\n      and\n      dup2\n      mstore\n      0x20\n      add\n      swap1\n      dup2\n      mstore\n      0x20\n      add\n      0x00\n      keccak256\n      0x00\n        /* \"contracts/ERC721.sol\":4527:4545  _balances[to] += 1 */\n      dup3\n      dup3\n      sload\n      tag_165\n      swap2\n      swap1\n      tag_115\n      jump\t// in\n    tag_165:\n      swap3\n      pop\n      pop\n      dup2\n      swap1\n      sstore\n      pop\n        /* \"contracts/ERC721.sol\":4575:4577  to */\n      dup2\n        /* \"contracts/ERC721.sol\":4556:4563  _owners */\n      0x00\n        /* \"contracts/ERC721.sol\":4556:4572  _owners[tokenId] */\n      dup1\n        /* \"contracts/ERC721.sol\":4564:4571  tokenId */\n      dup4\n        /* \"contracts/ERC721.sol\":4556:4572  _owners[tokenId] */\n      dup2\n      mstore\n      0x20\n      add\n      swap1\n      dup2\n      mstore\n      0x20\n      add\n      0x00\n      keccak256\n      0x00\n        /* \"contracts/ERC721.sol\":4556:4577  _owners[tokenId] = to */\n      0x0100\n      exp\n      dup2\n      sload\n      dup2\n      0xffffffffffffffffffffffffffffffffffffffff\n      mul\n      not\n      and\n      swap1\n      dup4\n      0xffffffffffffffffffffffffffffffffffffffff\n      and\n      mul\n      or\n      swap1\n      sstore\n      pop\n        /* \"contracts/ERC721.sol\":4614:4621  tokenId */\n      dup1\n        /* \"contracts/ERC721.sol\":4610:4612  to */\n      dup3\n        /* \"contracts/ERC721.sol\":4595:4622  Transfer(from, to, tokenId) */\n      0xffffffffffffffffffffffffffffffffffffffff\n      and\n        /* \"contracts/ERC721.sol\":4604:4608  from */\n      dup5\n        /* \"contracts/ERC721.sol\":4595:4622  Transfer(from, to, tokenId) */\n      0xffffffffffffffffffffffffffffffffffffffff\n      and\n      0xddf252ad1be2c89b69c2b068fc378daa952ba7f163c4a11628f55a4df523b3ef\n      mload(0x40)\n      mload(0x40)\n      dup1\n      swap2\n      sub\n      swap1\n      log4\n        /* \"contracts/ERC721.sol\":4195:4630  function _transfer(... */\n      pop\n      pop\n      pop\n      pop\n      jump\t// out\n        /* \"contracts/MerkleTree.sol\":979:1115  function _leaf(address account)... */\n    tag_129:\n        /* \"contracts/MerkleTree.sol\":1039:1046  bytes32 */\n      0x00\n        /* \"contracts/MerkleTree.sol\":1098:1105  account */\n      dup2\n        /* \"contracts/MerkleTree.sol\":1081:1106  abi.encodePacked(account) */\n      add(0x20, mload(0x40))\n      tag_167\n      swap2\n      swap1\n      tag_168\n      jump\t// in\n    tag_167:\n      mload(0x40)\n      0x20\n      dup2\n      dup4\n      sub\n      sub\n      dup2\n      mstore\n      swap1\n      0x40\n      mstore\n        /* \"contracts/MerkleTree.sol\":1071:1107  keccak256(abi.encodePacked(account)) */\n      dup1\n      mload\n      swap1\n      0x20\n      add\n      keccak256\n        /* \"contracts/MerkleTree.sol\":1064:1107  return keccak256(abi.encodePacked(account)) */\n      swap1\n      pop\n        /* \"contracts/MerkleTree.sol\":979:1115  function _leaf(address account)... */\n      swap2\n      swap1\n      pop\n      jump\t// out\n        /* \"contracts/MerkleTree.sol\":1187:1344  function _verify(bytes32 leaf, bytes32[] memory proof)... */\n    tag_130:\n        /* \"contracts/MerkleTree.sol\":1270:1274  bool */\n      0x00\n        /* \"contracts/MerkleTree.sol\":1299:1336  MerkleProof.verify(proof, root, leaf) */\n      tag_170\n        /* \"contracts/MerkleTree.sol\":1318:1323  proof */\n      dup3\n        /* \"contracts/MerkleTree.sol\":1325:1329  root */\n      immutable(\"0x1b3fd0da9f6b7da2147eff870266af25b54877bf9c7064498588ee6f953ee460\")\n        /* \"contracts/MerkleTree.sol\":1331:1335  leaf */\n      dup6\n        /* \"contracts/MerkleTree.sol\":1299:1317  MerkleProof.verify */\n      tag_171\n        /* \"contracts/MerkleTree.sol\":1299:1336  MerkleProof.verify(proof, root, leaf) */\n      jump\t// in\n    tag_170:\n        /* \"contracts/MerkleTree.sol\":1292:1336  return MerkleProof.verify(proof, root, leaf) */\n      swap1\n      pop\n        /* \"contracts/MerkleTree.sol\":1187:1344  function _verify(bytes32 leaf, bytes32[] memory proof)... */\n      swap3\n      swap2\n      pop\n      pop\n      jump\t// out\n        /* \"contracts/ERC721.sol\":5504:5806  function _safeTransfer(... */\n    tag_150:\n        /* \"contracts/ERC721.sol\":5673:5708  _transfer(owner, from, to, tokenId) */\n      tag_173\n        /* \"contracts/ERC721.sol\":5683:5688  owner */\n      dup6\n        /* \"contracts/ERC721.sol\":5690:5694  from */\n      dup6\n        /* \"contracts/ERC721.sol\":5696:5698  to */\n      dup6\n        /* \"contracts/ERC721.sol\":5700:5707  tokenId */\n      dup6\n        /* \"contracts/ERC721.sol\":5673:5682  _transfer */\n      tag_106\n        /* \"contracts/ERC721.sol\":5673:5708  _transfer(owner, from, to, tokenId) */\n      jump\t// in\n    tag_173:\n        /* \"contracts/ERC721.sol\":5727:5775  _checkOnERC721Received(from, to, tokenId, _data) */\n      tag_174\n        /* \"contracts/ERC721.sol\":5750:5754  from */\n      dup5\n        /* \"contracts/ERC721.sol\":5756:5758  to */\n      dup5\n        /* \"contracts/ERC721.sol\":5760:5767  tokenId */\n      dup5\n        /* \"contracts/ERC721.sol\":5769:5774  _data */\n      dup5\n        /* \"contracts/ERC721.sol\":5727:5749  _checkOnERC721Received */\n      tag_175\n        /* \"contracts/ERC721.sol\":5727:5775  _checkOnERC721Received(from, to, tokenId, _data) */\n      jump\t// in\n    tag_174:\n        /* \"contracts/ERC721.sol\":5719:5798  require(_checkOnERC721Received(from, to, tokenId, _data), \"not ERC721Receiver\") */\n      tag_176\n      jumpi\n      mload(0x40)\n      0x08c379a000000000000000000000000000000000000000000000000000000000\n      dup2\n      mstore\n      0x04\n      add\n      tag_177\n      swap1\n      tag_178\n      jump\t// in\n    tag_177:\n      mload(0x40)\n      dup1\n      swap2\n      sub\n      swap1\n      revert\n    tag_176:\n        /* \"contracts/ERC721.sol\":5504:5806  function _safeTransfer(... */\n      pop\n      pop\n      pop\n      pop\n      pop\n      jump\t// out\n        /* \"library/MerkleProof.sol\":295:485  function verify(... */\n    tag_171:\n        /* \"library/MerkleProof.sol\":420:424  bool */\n      0x00\n        /* \"library/MerkleProof.sol\":473:477  root */\n      dup3\n        /* \"library/MerkleProof.sol\":444:469  processProof(proof, leaf) */\n      tag_180\n        /* \"library/MerkleProof.sol\":457:462  proof */\n      dup6\n        /* \"library/MerkleProof.sol\":464:468  leaf */\n      dup5\n        /* \"library/MerkleProof.sol\":444:456  processProof */\n      tag_181\n        /* \"library/MerkleProof.sol\":444:469  processProof(proof, leaf) */\n      jump\t// in\n    tag_180:\n        /* \"library/MerkleProof.sol\":444:477  processProof(proof, leaf) == root */\n      eq\n        /* \"library/MerkleProof.sol\":437:477  return processProof(proof, leaf) == root */\n      swap1\n      pop\n        /* \"library/MerkleProof.sol\":295:485  function verify(... */\n      swap4\n      swap3\n      pop\n      pop\n      pop\n      jump\t// out\n        /* \"contracts/ERC721.sol\":4986:5496  function _checkOnERC721Received(... */\n    tag_175:\n        /* \"contracts/ERC721.sol\":5138:5142  bool */\n      0x00\n        /* \"contracts/ERC721.sol\":5159:5174  to.isContract() */\n      tag_183\n        /* \"contracts/ERC721.sol\":5159:5161  to */\n      dup5\n        /* \"contracts/ERC721.sol\":5159:5172  to.isContract */\n      0xffffffffffffffffffffffffffffffffffffffff\n      and\n      tag_184\n        /* \"contracts/ERC721.sol\":5159:5174  to.isContract() */\n      jump\t// in\n    tag_183:\n        /* \"contracts/ERC721.sol\":5155:5489  if (to.isContract()) {... */\n      iszero\n      tag_185\n      jumpi\n        /* \"contracts/ERC721.sol\":5392:5433  IERC721Receiver.onERC721Received.selector */\n      shl(0xe0, 0x150b7a02)\n        /* \"contracts/ERC721.sol\":5215:5433  IERC721Receiver(to).onERC721Received(... */\n      not(0xffffffffffffffffffffffffffffffffffffffffffffffffffffffff)\n      and\n        /* \"contracts/ERC721.sol\":5231:5233  to */\n      dup5\n        /* \"contracts/ERC721.sol\":5215:5251  IERC721Receiver(to).onERC721Received */\n      0xffffffffffffffffffffffffffffffffffffffff\n      and\n      0x150b7a02\n        /* \"contracts/ERC721.sol\":5274:5284  msg.sender */\n      caller\n        /* \"contracts/ERC721.sol\":5307:5311  from */\n      dup9\n        /* \"contracts/ERC721.sol\":5334:5341  tokenId */\n      dup8\n        /* \"contracts/ERC721.sol\":5364:5369  _data */\n      dup8\n        /* \"contracts/ERC721.sol\":5215:5388  IERC721Receiver(to).onERC721Received(... */\n      mload(0x40)\n      dup6\n      0xffffffff\n      and\n      0xe0\n      shl\n      dup2\n      mstore\n      0x04\n      add\n      tag_186\n      swap5\n      swap4\n      swap3\n      swap2\n      swap1\n      tag_187\n      jump\t// in\n    tag_186:\n      0x20\n      mload(0x40)\n      dup1\n      dup4\n      sub\n      dup2\n      0x00\n      dup8\n      gas\n      call\n      iszero\n      dup1\n      iszero\n      tag_189\n      jumpi\n      returndatasize\n      0x00\n      dup1\n      returndatacopy\n      revert(0x00, returndatasize)\n    tag_189:\n      pop\n      pop\n      pop\n      pop\n      mload(0x40)\n      returndatasize\n      not(0x1f)\n      0x1f\n      dup3\n      add\n      and\n      dup3\n      add\n      dup1\n      0x40\n      mstore\n      pop\n      dup2\n      add\n      swap1\n      tag_190\n      swap2\n      swap1\n      tag_191\n      jump\t// in\n    tag_190:\n        /* \"contracts/ERC721.sol\":5215:5433  IERC721Receiver(to).onERC721Received(... */\n      not(0xffffffffffffffffffffffffffffffffffffffffffffffffffffffff)\n      and\n      eq\n        /* \"contracts/ERC721.sol\":5191:5433  return... */\n      swap1\n      pop\n      jump(tag_182)\n        /* \"contracts/ERC721.sol\":5155:5489  if (to.isContract()) {... */\n    tag_185:\n        /* \"contracts/ERC721.sol\":5473:5477  true */\n      0x01\n        /* \"contracts/ERC721.sol\":5466:5477  return true */\n      swap1\n      pop\n        /* \"contracts/ERC721.sol\":4986:5496  function _checkOnERC721Received(... */\n    tag_182:\n      swap5\n      swap4\n      pop\n      pop\n      pop\n      pop\n      jump\t// out\n        /* \"library/MerkleProof.sol\":732:1028  function processProof(bytes32[] memory proof, bytes32 leaf) internal pure returns (bytes32) {... */\n    tag_181:\n        /* \"library/MerkleProof.sol\":815:822  bytes32 */\n      0x00\n        /* \"library/MerkleProof.sol\":835:855  bytes32 computedHash */\n      dup1\n        /* \"library/MerkleProof.sol\":858:862  leaf */\n      dup3\n        /* \"library/MerkleProof.sol\":835:862  bytes32 computedHash = leaf */\n      swap1\n      pop\n        /* \"library/MerkleProof.sol\":878:887  uint256 i */\n      0x00\n        /* \"library/MerkleProof.sol\":873:991  for (uint256 i = 0; i < proof.length; i++) {... */\n    tag_194:\n        /* \"library/MerkleProof.sol\":897:902  proof */\n      dup5\n        /* \"library/MerkleProof.sol\":897:909  proof.length */\n      mload\n        /* \"library/MerkleProof.sol\":893:894  i */\n      dup2\n        /* \"library/MerkleProof.sol\":893:909  i < proof.length */\n      lt\n        /* \"library/MerkleProof.sol\":873:991  for (uint256 i = 0; i < proof.length; i++) {... */\n      iszero\n      tag_195\n      jumpi\n        /* \"library/MerkleProof.sol\":946:979  _hashPair(computedHash, proof[i]) */\n      tag_197\n        /* \"library/MerkleProof.sol\":956:968  computedHash */\n      dup3\n        /* \"library/MerkleProof.sol\":970:975  proof */\n      dup7\n        /* \"library/MerkleProof.sol\":976:977  i */\n      dup4\n        /* \"library/MerkleProof.sol\":970:978  proof[i] */\n      dup2\n      mload\n      dup2\n      lt\n      tag_198\n      jumpi\n      tag_199\n      tag_200\n      jump\t// in\n    tag_199:\n    tag_198:\n      0x20\n      mul\n      0x20\n      add\n      add\n      mload\n        /* \"library/MerkleProof.sol\":946:955  _hashPair */\n      tag_201\n        /* \"library/MerkleProof.sol\":946:979  _hashPair(computedHash, proof[i]) */\n      jump\t// in\n    tag_197:\n        /* \"library/MerkleProof.sol\":931:979  computedHash = _hashPair(computedHash, proof[i]) */\n      swap2\n      pop\n        /* \"library/MerkleProof.sol\":911:914  i++ */\n      dup1\n      dup1\n      0x01\n      add\n      swap2\n      pop\n      pop\n        /* \"library/MerkleProof.sol\":873:991  for (uint256 i = 0; i < proof.length; i++) {... */\n      jump(tag_194)\n    tag_195:\n      pop\n        /* \"library/MerkleProof.sol\":1008:1020  computedHash */\n      dup1\n        /* \"library/MerkleProof.sol\":1001:1020  return computedHash */\n      swap2\n      pop\n      pop\n        /* \"library/MerkleProof.sol\":732:1028  function processProof(bytes32[] memory proof, bytes32 leaf) internal pure returns (bytes32) {... */\n      swap3\n      swap2\n      pop\n      pop\n      jump\t// out\n        /* \"contracts/ERC721.sol\":6988:7181  function isContract(address account) internal view returns (bool) {... */\n    tag_184:\n        /* \"contracts/ERC721.sol\":7048:7052  bool */\n      0x00\n        /* \"contracts/ERC721.sol\":7065:7074  uint size */\n      dup1\n        /* \"contracts/ERC721.sol\":7129:7136  account */\n      dup3\n        /* \"contracts/ERC721.sol\":7117:7137  extcodesize(account) */\n      extcodesize\n        /* \"contracts/ERC721.sol\":7109:7137  size := extcodesize(account) */\n      swap1\n      pop\n        /* \"contracts/ERC721.sol\":7172:7173  0 */\n      0x00\n        /* \"contracts/ERC721.sol\":7165:7169  size */\n      dup2\n        /* \"contracts/ERC721.sol\":7165:7173  size > 0 */\n      gt\n        /* \"contracts/ERC721.sol\":7158:7173  return size > 0 */\n      swap2\n      pop\n      pop\n        /* \"contracts/ERC721.sol\":6988:7181  function isContract(address account) internal view returns (bool) {... */\n      swap2\n      swap1\n      pop\n      jump\t// out\n        /* \"library/MerkleProof.sol\":1061:1236  function _hashPair(bytes32 a, bytes32 b) private pure returns (bytes32) {... */\n    tag_201:\n        /* \"library/MerkleProof.sol\":1124:1131  bytes32 */\n      0x00\n        /* \"library/MerkleProof.sol\":1155:1156  b */\n      dup2\n        /* \"library/MerkleProof.sol\":1151:1152  a */\n      dup4\n        /* \"library/MerkleProof.sol\":1151:1156  a < b */\n      lt\n        /* \"library/MerkleProof.sol\":1151:1228  a < b ? keccak256(abi.encodePacked(a, b)) : keccak256(abi.encodePacked(b, a)) */\n      tag_204\n      jumpi\n        /* \"library/MerkleProof.sol\":1222:1223  b */\n      dup2\n        /* \"library/MerkleProof.sol\":1225:1226  a */\n      dup4\n        /* \"library/MerkleProof.sol\":1205:1227  abi.encodePacked(b, a) */\n      add(0x20, mload(0x40))\n      tag_205\n      swap3\n      swap2\n      swap1\n      tag_206\n      jump\t// in\n    tag_205:\n      mload(0x40)\n      0x20\n      dup2\n      dup4\n      sub\n      sub\n      dup2\n      mstore\n      swap1\n      0x40\n      mstore\n        /* \"library/MerkleProof.sol\":1195:1228  keccak256(abi.encodePacked(b, a)) */\n      dup1\n      mload\n      swap1\n      0x20\n      add\n      keccak256\n        /* \"library/MerkleProof.sol\":1151:1228  a < b ? keccak256(abi.encodePacked(a, b)) : keccak256(abi.encodePacked(b, a)) */\n      jump(tag_207)\n    tag_204:\n        /* \"library/MerkleProof.sol\":1186:1187  a */\n      dup3\n        /* \"library/MerkleProof.sol\":1189:1190  b */\n      dup3\n        /* \"library/MerkleProof.sol\":1169:1191  abi.encodePacked(a, b) */\n      add(0x20, mload(0x40))\n      tag_208\n      swap3\n      swap2\n      swap1\n      tag_206\n      jump\t// in\n    tag_208:\n      mload(0x40)\n      0x20\n      dup2\n      dup4\n      sub\n      sub\n      dup2\n      mstore\n      swap1\n      0x40\n      mstore\n        /* \"library/MerkleProof.sol\":1159:1192  keccak256(abi.encodePacked(a, b)) */\n      dup1\n      mload\n      swap1\n      0x20\n      add\n      keccak256\n        /* \"library/MerkleProof.sol\":1151:1228  a < b ? keccak256(abi.encodePacked(a, b)) : keccak256(abi.encodePacked(b, a)) */\n    tag_207:\n        /* \"library/MerkleProof.sol\":1144:1228  return a < b ? keccak256(abi.encodePacked(a, b)) : keccak256(abi.encodePacked(b, a)) */\n      swap1\n      pop\n        /* \"library/MerkleProof.sol\":1061:1236  function _hashPair(bytes32 a, bytes32 b) private pure returns (bytes32) {... */\n      swap3\n      swap2\n      pop\n      pop\n      jump\t// out\n        /* \"#utility.yul\":7:82   */\n    tag_209:\n        /* \"#utility.yul\":40:46   */\n      0x00\n        /* \"#utility.yul\":73:75   */\n      0x40\n        /* \"#utility.yul\":67:76   */\n      mload\n        /* \"#utility.yul\":57:76   */\n      swap1\n      pop\n        /* \"#utility.yul\":7:82   */\n      swap1\n      jump\t// out\n        /* \"#utility.yul\":88:205   */\n    tag_210:\n        /* \"#utility.yul\":197:198   */\n      0x00\n        /* \"#utility.yul\":194:195   */\n      dup1\n        /* \"#utility.yul\":187:199   */\n      revert\n        /* \"#utility.yul\":211:328   */\n    tag_211:\n        /* \"#utility.yul\":320:321   */\n      0x00\n        /* \"#utility.yul\":317:318   */\n      dup1\n        /* \"#utility.yul\":310:322   */\n      revert\n        /* \"#utility.yul\":334:483   */\n    tag_212:\n        /* \"#utility.yul\":370:377   */\n      0x00\n        /* \"#utility.yul\":410:476   */\n      0xffffffff00000000000000000000000000000000000000000000000000000000\n        /* \"#utility.yul\":403:408   */\n      dup3\n        /* \"#utility.yul\":399:477   */\n      and\n        /* \"#utility.yul\":388:477   */\n      swap1\n      pop\n        /* \"#utility.yul\":334:483   */\n      swap2\n      swap1\n      pop\n      jump\t// out\n        /* \"#utility.yul\":489:609   */\n    tag_213:\n        /* \"#utility.yul\":561:584   */\n      tag_284\n        /* \"#utility.yul\":578:583   */\n      dup2\n        /* \"#utility.yul\":561:584   */\n      tag_212\n      jump\t// in\n    tag_284:\n        /* \"#utility.yul\":554:559   */\n      dup2\n        /* \"#utility.yul\":551:585   */\n      eq\n        /* \"#utility.yul\":541:603   */\n      tag_285\n      jumpi\n        /* \"#utility.yul\":599:600   */\n      0x00\n        /* \"#utility.yul\":596:597   */\n      dup1\n        /* \"#utility.yul\":589:601   */\n      revert\n        /* \"#utility.yul\":541:603   */\n    tag_285:\n        /* \"#utility.yul\":489:609   */\n      pop\n      jump\t// out\n        /* \"#utility.yul\":615:752   */\n    tag_214:\n        /* \"#utility.yul\":660:665   */\n      0x00\n        /* \"#utility.yul\":698:704   */\n      dup2\n        /* \"#utility.yul\":685:705   */\n      calldataload\n        /* \"#utility.yul\":676:705   */\n      swap1\n      pop\n        /* \"#utility.yul\":714:746   */\n      tag_287\n        /* \"#utility.yul\":740:745   */\n      dup2\n        /* \"#utility.yul\":714:746   */\n      tag_213\n      jump\t// in\n    tag_287:\n        /* \"#utility.yul\":615:752   */\n      swap3\n      swap2\n      pop\n      pop\n      jump\t// out\n        /* \"#utility.yul\":758:1085   */\n    tag_23:\n        /* \"#utility.yul\":816:822   */\n      0x00\n        /* \"#utility.yul\":865:867   */\n      0x20\n        /* \"#utility.yul\":853:862   */\n      dup3\n        /* \"#utility.yul\":844:851   */\n      dup5\n        /* \"#utility.yul\":840:863   */\n      sub\n        /* \"#utility.yul\":836:868   */\n      slt\n        /* \"#utility.yul\":833:952   */\n      iszero\n      tag_289\n      jumpi\n        /* \"#utility.yul\":871:950   */\n      tag_290\n      tag_210\n      jump\t// in\n    tag_290:\n        /* \"#utility.yul\":833:952   */\n    tag_289:\n        /* \"#utility.yul\":991:992   */\n      0x00\n        /* \"#utility.yul\":1016:1068   */\n      tag_291\n        /* \"#utility.yul\":1060:1067   */\n      dup5\n        /* \"#utility.yul\":1051:1057   */\n      dup3\n        /* \"#utility.yul\":1040:1049   */\n      dup6\n        /* \"#utility.yul\":1036:1058   */\n      add\n        /* \"#utility.yul\":1016:1068   */\n      tag_214\n      jump\t// in\n    tag_291:\n        /* \"#utility.yul\":1006:1068   */\n      swap2\n      pop\n        /* \"#utility.yul\":962:1078   */\n      pop\n        /* \"#utility.yul\":758:1085   */\n      swap3\n      swap2\n      pop\n      pop\n      jump\t// out\n        /* \"#utility.yul\":1091:1181   */\n    tag_215:\n        /* \"#utility.yul\":1125:1132   */\n      0x00\n        /* \"#utility.yul\":1168:1173   */\n      dup2\n        /* \"#utility.yul\":1161:1174   */\n      iszero\n        /* \"#utility.yul\":1154:1175   */\n      iszero\n        /* \"#utility.yul\":1143:1175   */\n      swap1\n      pop\n        /* \"#utility.yul\":1091:1181   */\n      swap2\n      swap1\n      pop\n      jump\t// out\n        /* \"#utility.yul\":1187:1296   */\n    tag_216:\n        /* \"#utility.yul\":1268:1289   */\n      tag_294\n        /* \"#utility.yul\":1283:1288   */\n      dup2\n        /* \"#utility.yul\":1268:1289   */\n      tag_215\n      jump\t// in\n    tag_294:\n        /* \"#utility.yul\":1263:1266   */\n      dup3\n        /* \"#utility.yul\":1256:1290   */\n      mstore\n        /* \"#utility.yul\":1187:1296   */\n      pop\n      pop\n      jump\t// out\n        /* \"#utility.yul\":1302:1512   */\n    tag_26:\n        /* \"#utility.yul\":1389:1393   */\n      0x00\n        /* \"#utility.yul\":1427:1429   */\n      0x20\n        /* \"#utility.yul\":1416:1425   */\n      dup3\n        /* \"#utility.yul\":1412:1430   */\n      add\n        /* \"#utility.yul\":1404:1430   */\n      swap1\n      pop\n        /* \"#utility.yul\":1440:1505   */\n      tag_296\n        /* \"#utility.yul\":1502:1503   */\n      0x00\n        /* \"#utility.yul\":1491:1500   */\n      dup4\n        /* \"#utility.yul\":1487:1504   */\n      add\n        /* \"#utility.yul\":1478:1484   */\n      dup5\n        /* \"#utility.yul\":1440:1505   */\n      tag_216\n      jump\t// in\n    tag_296:\n        /* \"#utility.yul\":1302:1512   */\n      swap3\n      swap2\n      pop\n      pop\n      jump\t// out\n        /* \"#utility.yul\":1518:1595   */\n    tag_217:\n        /* \"#utility.yul\":1555:1562   */\n      0x00\n        /* \"#utility.yul\":1584:1589   */\n      dup2\n        /* \"#utility.yul\":1573:1589   */\n      swap1\n      pop\n        /* \"#utility.yul\":1518:1595   */\n      swap2\n      swap1\n      pop\n      jump\t// out\n        /* \"#utility.yul\":1601:1723   */\n    tag_218:\n        /* \"#utility.yul\":1674:1698   */\n      tag_299\n        /* \"#utility.yul\":1692:1697   */\n      dup2\n        /* \"#utility.yul\":1674:1698   */\n      tag_217\n      jump\t// in\n    tag_299:\n        /* \"#utility.yul\":1667:1672   */\n      dup2\n        /* \"#utility.yul\":1664:1699   */\n      eq\n        /* \"#utility.yul\":1654:1717   */\n      tag_300\n      jumpi\n        /* \"#utility.yul\":1713:1714   */\n      0x00\n        /* \"#utility.yul\":1710:1711   */\n      dup1\n        /* \"#utility.yul\":1703:1715   */\n      revert\n        /* \"#utility.yul\":1654:1717   */\n    tag_300:\n        /* \"#utility.yul\":1601:1723   */\n      pop\n      jump\t// out\n        /* \"#utility.yul\":1729:1868   */\n    tag_219:\n        /* \"#utility.yul\":1775:1780   */\n      0x00\n        /* \"#utility.yul\":1813:1819   */\n      dup2\n        /* \"#utility.yul\":1800:1820   */\n      calldataload\n        /* \"#utility.yul\":1791:1820   */\n      swap1\n      pop\n        /* \"#utility.yul\":1829:1862   */\n      tag_302\n        /* \"#utility.yul\":1856:1861   */\n      dup2\n        /* \"#utility.yul\":1829:1862   */\n      tag_218\n      jump\t// in\n    tag_302:\n        /* \"#utility.yul\":1729:1868   */\n      swap3\n      swap2\n      pop\n      pop\n      jump\t// out\n        /* \"#utility.yul\":1874:2203   */\n    tag_29:\n        /* \"#utility.yul\":1933:1939   */\n      0x00\n        /* \"#utility.yul\":1982:1984   */\n      0x20\n        /* \"#utility.yul\":1970:1979   */\n      dup3\n        /* \"#utility.yul\":1961:1968   */\n      dup5\n        /* \"#utility.yul\":1957:1980   */\n      sub\n        /* \"#utility.yul\":1953:1985   */\n      slt\n        /* \"#utility.yul\":1950:2069   */\n      iszero\n      tag_304\n      jumpi\n        /* \"#utility.yul\":1988:2067   */\n      tag_305\n      tag_210\n      jump\t// in\n    tag_305:\n        /* \"#utility.yul\":1950:2069   */\n    tag_304:\n        /* \"#utility.yul\":2108:2109   */\n      0x00\n        /* \"#utility.yul\":2133:2186   */\n      tag_306\n        /* \"#utility.yul\":2178:2185   */\n      dup5\n        /* \"#utility.yul\":2169:2175   */\n      dup3\n        /* \"#utility.yul\":2158:2167   */\n      dup6\n        /* \"#utility.yul\":2154:2176   */\n      add\n        /* \"#utility.yul\":2133:2186   */\n      tag_219\n      jump\t// in\n    tag_306:\n        /* \"#utility.yul\":2123:2186   */\n      swap2\n      pop\n        /* \"#utility.yul\":2079:2196   */\n      pop\n        /* \"#utility.yul\":1874:2203   */\n      swap3\n      swap2\n      pop\n      pop\n      jump\t// out\n        /* \"#utility.yul\":2209:2335   */\n    tag_220:\n        /* \"#utility.yul\":2246:2253   */\n      0x00\n        /* \"#utility.yul\":2286:2328   */\n      0xffffffffffffffffffffffffffffffffffffffff\n        /* \"#utility.yul\":2279:2284   */\n      dup3\n        /* \"#utility.yul\":2275:2329   */\n      and\n        /* \"#utility.yul\":2264:2329   */\n      swap1\n      pop\n        /* \"#utility.yul\":2209:2335   */\n      swap2\n      swap1\n      pop\n      jump\t// out\n        /* \"#utility.yul\":2341:2437   */\n    tag_221:\n        /* \"#utility.yul\":2378:2385   */\n      0x00\n        /* \"#utility.yul\":2407:2431   */\n      tag_309\n        /* \"#utility.yul\":2425:2430   */\n      dup3\n        /* \"#utility.yul\":2407:2431   */\n      tag_220\n      jump\t// in\n    tag_309:\n        /* \"#utility.yul\":2396:2431   */\n      swap1\n      pop\n        /* \"#utility.yul\":2341:2437   */\n      swap2\n      swap1\n      pop\n      jump\t// out\n        /* \"#utility.yul\":2443:2561   */\n    tag_222:\n        /* \"#utility.yul\":2530:2554   */\n      tag_311\n        /* \"#utility.yul\":2548:2553   */\n      dup2\n        /* \"#utility.yul\":2530:2554   */\n      tag_221\n      jump\t// in\n    tag_311:\n        /* \"#utility.yul\":2525:2528   */\n      dup3\n        /* \"#utility.yul\":2518:2555   */\n      mstore\n        /* \"#utility.yul\":2443:2561   */\n      pop\n      pop\n      jump\t// out\n        /* \"#utility.yul\":2567:2789   */\n    tag_32:\n        /* \"#utility.yul\":2660:2664   */\n      0x00\n        /* \"#utility.yul\":2698:2700   */\n      0x20\n        /* \"#utility.yul\":2687:2696   */\n      dup3\n        /* \"#utility.yul\":2683:2701   */\n      add\n        /* \"#utility.yul\":2675:2701   */\n      swap1\n      pop\n        /* \"#utility.yul\":2711:2782   */\n      tag_313\n        /* \"#utility.yul\":2779:2780   */\n      0x00\n        /* \"#utility.yul\":2768:2777   */\n      dup4\n        /* \"#utility.yul\":2764:2781   */\n      add\n        /* \"#utility.yul\":2755:2761   */\n      dup5\n        /* \"#utility.yul\":2711:2782   */\n      tag_222\n      jump\t// in\n    tag_313:\n        /* \"#utility.yul\":2567:2789   */\n      swap3\n      swap2\n      pop\n      pop\n      jump\t// out\n        /* \"#utility.yul\":2795:2917   */\n    tag_223:\n        /* \"#utility.yul\":2868:2892   */\n      tag_315\n        /* \"#utility.yul\":2886:2891   */\n      dup2\n        /* \"#utility.yul\":2868:2892   */\n      tag_221\n      jump\t// in\n    tag_315:\n        /* \"#utility.yul\":2861:2866   */\n      dup2\n        /* \"#utility.yul\":2858:2893   */\n      eq\n        /* \"#utility.yul\":2848:2911   */\n      tag_316\n      jumpi\n        /* \"#utility.yul\":2907:2908   */\n      0x00\n        /* \"#utility.yul\":2904:2905   */\n      dup1\n        /* \"#utility.yul\":2897:2909   */\n      revert\n        /* \"#utility.yul\":2848:2911   */\n    tag_316:\n        /* \"#utility.yul\":2795:2917   */\n      pop\n      jump\t// out\n        /* \"#utility.yul\":2923:3062   */\n    tag_224:\n        /* \"#utility.yul\":2969:2974   */\n      0x00\n        /* \"#utility.yul\":3007:3013   */\n      dup2\n        /* \"#utility.yul\":2994:3014   */\n      calldataload\n        /* \"#utility.yul\":2985:3014   */\n      swap1\n      pop\n        /* \"#utility.yul\":3023:3056   */\n      tag_318\n        /* \"#utility.yul\":3050:3055   */\n      dup2\n        /* \"#utility.yul\":3023:3056   */\n      tag_223\n      jump\t// in\n    tag_318:\n        /* \"#utility.yul\":2923:3062   */\n      swap3\n      swap2\n      pop\n      pop\n      jump\t// out\n        /* \"#utility.yul\":3068:3542   */\n    tag_35:\n        /* \"#utility.yul\":3136:3142   */\n      0x00\n        /* \"#utility.yul\":3144:3150   */\n      dup1\n        /* \"#utility.yul\":3193:3195   */\n      0x40\n        /* \"#utility.yul\":3181:3190   */\n      dup4\n        /* \"#utility.yul\":3172:3179   */\n      dup6\n        /* \"#utility.yul\":3168:3191   */\n      sub\n        /* \"#utility.yul\":3164:3196   */\n      slt\n        /* \"#utility.yul\":3161:3280   */\n      iszero\n      tag_320\n      jumpi\n        /* \"#utility.yul\":3199:3278   */\n      tag_321\n      tag_210\n      jump\t// in\n    tag_321:\n        /* \"#utility.yul\":3161:3280   */\n    tag_320:\n        /* \"#utility.yul\":3319:3320   */\n      0x00\n        /* \"#utility.yul\":3344:3397   */\n      tag_322\n        /* \"#utility.yul\":3389:3396   */\n      dup6\n        /* \"#utility.yul\":3380:3386   */\n      dup3\n        /* \"#utility.yul\":3369:3378   */\n      dup7\n        /* \"#utility.yul\":3365:3387   */\n      add\n        /* \"#utility.yul\":3344:3397   */\n      tag_224\n      jump\t// in\n    tag_322:\n        /* \"#utility.yul\":3334:3397   */\n      swap3\n      pop\n        /* \"#utility.yul\":3290:3407   */\n      pop\n        /* \"#utility.yul\":3446:3448   */\n      0x20\n        /* \"#utility.yul\":3472:3525   */\n      tag_323\n        /* \"#utility.yul\":3517:3524   */\n      dup6\n        /* \"#utility.yul\":3508:3514   */\n      dup3\n        /* \"#utility.yul\":3497:3506   */\n      dup7\n        /* \"#utility.yul\":3493:3515   */\n      add\n        /* \"#utility.yul\":3472:3525   */\n      tag_219\n      jump\t// in\n    tag_323:\n        /* \"#utility.yul\":3462:3525   */\n      swap2\n      pop\n        /* \"#utility.yul\":3417:3535   */\n      pop\n        /* \"#utility.yul\":3068:3542   */\n      swap3\n      pop\n      swap3\n      swap1\n      pop\n      jump\t// out\n        /* \"#utility.yul\":3548:4167   */\n    tag_39:\n        /* \"#utility.yul\":3625:3631   */\n      0x00\n        /* \"#utility.yul\":3633:3639   */\n      dup1\n        /* \"#utility.yul\":3641:3647   */\n      0x00\n        /* \"#utility.yul\":3690:3692   */\n      0x60\n        /* \"#utility.yul\":3678:3687   */\n      dup5\n        /* \"#utility.yul\":3669:3676   */\n      dup7\n        /* \"#utility.yul\":3665:3688   */\n      sub\n        /* \"#utility.yul\":3661:3693   */\n      slt\n        /* \"#utility.yul\":3658:3777   */\n      iszero\n      tag_325\n      jumpi\n        /* \"#utility.yul\":3696:3775   */\n      tag_326\n      tag_210\n      jump\t// in\n    tag_326:\n        /* \"#utility.yul\":3658:3777   */\n    tag_325:\n        /* \"#utility.yul\":3816:3817   */\n      0x00\n        /* \"#utility.yul\":3841:3894   */\n      tag_327\n        /* \"#utility.yul\":3886:3893   */\n      dup7\n        /* \"#utility.yul\":3877:3883   */\n      dup3\n        /* \"#utility.yul\":3866:3875   */\n      dup8\n        /* \"#utility.yul\":3862:3884   */\n      add\n        /* \"#utility.yul\":3841:3894   */\n      tag_224\n      jump\t// in\n    tag_327:\n        /* \"#utility.yul\":3831:3894   */\n      swap4\n      pop\n        /* \"#utility.yul\":3787:3904   */\n      pop\n        /* \"#utility.yul\":3943:3945   */\n      0x20\n        /* \"#utility.yul\":3969:4022   */\n      tag_328\n        /* \"#utility.yul\":4014:4021   */\n      dup7\n        /* \"#utility.yul\":4005:4011   */\n      dup3\n        /* \"#utility.yul\":3994:4003   */\n      dup8\n        /* \"#utility.yul\":3990:4012   */\n      add\n        /* \"#utility.yul\":3969:4022   */\n      tag_224\n      jump\t// in\n    tag_328:\n        /* \"#utility.yul\":3959:4022   */\n      swap3\n      pop\n        /* \"#utility.yul\":3914:4032   */\n      pop\n        /* \"#utility.yul\":4071:4073   */\n      0x40\n        /* \"#utility.yul\":4097:4150   */\n      tag_329\n        /* \"#utility.yul\":4142:4149   */\n      dup7\n        /* \"#utility.yul\":4133:4139   */\n      dup3\n        /* \"#utility.yul\":4122:4131   */\n      dup8\n        /* \"#utility.yul\":4118:4140   */\n      add\n        /* \"#utility.yul\":4097:4150   */\n      tag_219\n      jump\t// in\n    tag_329:\n        /* \"#utility.yul\":4087:4150   */\n      swap2\n      pop\n        /* \"#utility.yul\":4042:4160   */\n      pop\n        /* \"#utility.yul\":3548:4167   */\n      swap3\n      pop\n      swap3\n      pop\n      swap3\n      jump\t// out\n        /* \"#utility.yul\":4173:4502   */\n    tag_52:\n        /* \"#utility.yul\":4232:4238   */\n      0x00\n        /* \"#utility.yul\":4281:4283   */\n      0x20\n        /* \"#utility.yul\":4269:4278   */\n      dup3\n        /* \"#utility.yul\":4260:4267   */\n      dup5\n        /* \"#utility.yul\":4256:4279   */\n      sub\n        /* \"#utility.yul\":4252:4284   */\n      slt\n        /* \"#utility.yul\":4249:4368   */\n      iszero\n      tag_331\n      jumpi\n        /* \"#utility.yul\":4287:4366   */\n      tag_332\n      tag_210\n      jump\t// in\n    tag_332:\n        /* \"#utility.yul\":4249:4368   */\n    tag_331:\n        /* \"#utility.yul\":4407:4408   */\n      0x00\n        /* \"#utility.yul\":4432:4485   */\n      tag_333\n        /* \"#utility.yul\":4477:4484   */\n      dup5\n        /* \"#utility.yul\":4468:4474   */\n      dup3\n        /* \"#utility.yul\":4457:4466   */\n      dup6\n        /* \"#utility.yul\":4453:4475   */\n      add\n        /* \"#utility.yul\":4432:4485   */\n      tag_224\n      jump\t// in\n    tag_333:\n        /* \"#utility.yul\":4422:4485   */\n      swap2\n      pop\n        /* \"#utility.yul\":4378:4495   */\n      pop\n        /* \"#utility.yul\":4173:4502   */\n      swap3\n      swap2\n      pop\n      pop\n      jump\t// out\n        /* \"#utility.yul\":4508:4625   */\n    tag_225:\n        /* \"#utility.yul\":4617:4618   */\n      0x00\n        /* \"#utility.yul\":4614:4615   */\n      dup1\n        /* \"#utility.yul\":4607:4619   */\n      revert\n        /* \"#utility.yul\":4631:4748   */\n    tag_226:\n        /* \"#utility.yul\":4740:4741   */\n      0x00\n        /* \"#utility.yul\":4737:4738   */\n      dup1\n        /* \"#utility.yul\":4730:4742   */\n      revert\n        /* \"#utility.yul\":4754:4871   */\n    tag_227:\n        /* \"#utility.yul\":4863:4864   */\n      0x00\n        /* \"#utility.yul\":4860:4861   */\n      dup1\n        /* \"#utility.yul\":4853:4865   */\n      revert\n        /* \"#utility.yul\":4894:5462   */\n    tag_228:\n        /* \"#utility.yul\":4967:4975   */\n      0x00\n        /* \"#utility.yul\":4977:4983   */\n      dup1\n        /* \"#utility.yul\":5027:5030   */\n      dup4\n        /* \"#utility.yul\":5020:5024   */\n      0x1f\n        /* \"#utility.yul\":5012:5018   */\n      dup5\n        /* \"#utility.yul\":5008:5025   */\n      add\n        /* \"#utility.yul\":5004:5031   */\n      slt\n        /* \"#utility.yul\":4994:5116   */\n      tag_338\n      jumpi\n        /* \"#utility.yul\":5035:5114   */\n      tag_339\n      tag_225\n      jump\t// in\n    tag_339:\n        /* \"#utility.yul\":4994:5116   */\n    tag_338:\n        /* \"#utility.yul\":5148:5154   */\n      dup3\n        /* \"#utility.yul\":5135:5155   */\n      calldataload\n        /* \"#utility.yul\":5125:5155   */\n      swap1\n      pop\n        /* \"#utility.yul\":5178:5196   */\n      0xffffffffffffffff\n        /* \"#utility.yul\":5170:5176   */\n      dup2\n        /* \"#utility.yul\":5167:5197   */\n      gt\n        /* \"#utility.yul\":5164:5281   */\n      iszero\n      tag_340\n      jumpi\n        /* \"#utility.yul\":5200:5279   */\n      tag_341\n      tag_226\n      jump\t// in\n    tag_341:\n        /* \"#utility.yul\":5164:5281   */\n    tag_340:\n        /* \"#utility.yul\":5314:5318   */\n      0x20\n        /* \"#utility.yul\":5306:5312   */\n      dup4\n        /* \"#utility.yul\":5302:5319   */\n      add\n        /* \"#utility.yul\":5290:5319   */\n      swap2\n      pop\n        /* \"#utility.yul\":5368:5371   */\n      dup4\n        /* \"#utility.yul\":5360:5364   */\n      0x20\n        /* \"#utility.yul\":5352:5358   */\n      dup3\n        /* \"#utility.yul\":5348:5365   */\n      mul\n        /* \"#utility.yul\":5338:5346   */\n      dup4\n        /* \"#utility.yul\":5334:5366   */\n      add\n        /* \"#utility.yul\":5331:5372   */\n      gt\n        /* \"#utility.yul\":5328:5456   */\n      iszero\n      tag_342\n      jumpi\n        /* \"#utility.yul\":5375:5454   */\n      tag_343\n      tag_227\n      jump\t// in\n    tag_343:\n        /* \"#utility.yul\":5328:5456   */\n    tag_342:\n        /* \"#utility.yul\":4894:5462   */\n      swap3\n      pop\n      swap3\n      swap1\n      pop\n      jump\t// out\n        /* \"#utility.yul\":5468:6317   */\n    tag_61:\n        /* \"#utility.yul\":5572:5578   */\n      0x00\n        /* \"#utility.yul\":5580:5586   */\n      dup1\n        /* \"#utility.yul\":5588:5594   */\n      0x00\n        /* \"#utility.yul\":5596:5602   */\n      dup1\n        /* \"#utility.yul\":5645:5647   */\n      0x60\n        /* \"#utility.yul\":5633:5642   */\n      dup6\n        /* \"#utility.yul\":5624:5631   */\n      dup8\n        /* \"#utility.yul\":5620:5643   */\n      sub\n        /* \"#utility.yul\":5616:5648   */\n      slt\n        /* \"#utility.yul\":5613:5732   */\n      iszero\n      tag_345\n      jumpi\n        /* \"#utility.yul\":5651:5730   */\n      tag_346\n      tag_210\n      jump\t// in\n    tag_346:\n        /* \"#utility.yul\":5613:5732   */\n    tag_345:\n        /* \"#utility.yul\":5771:5772   */\n      0x00\n        /* \"#utility.yul\":5796:5849   */\n      tag_347\n        /* \"#utility.yul\":5841:5848   */\n      dup8\n        /* \"#utility.yul\":5832:5838   */\n      dup3\n        /* \"#utility.yul\":5821:5830   */\n      dup9\n        /* \"#utility.yul\":5817:5839   */\n      add\n        /* \"#utility.yul\":5796:5849   */\n      tag_224\n      jump\t// in\n    tag_347:\n        /* \"#utility.yul\":5786:5849   */\n      swap5\n      pop\n        /* \"#utility.yul\":5742:5859   */\n      pop\n        /* \"#utility.yul\":5898:5900   */\n      0x20\n        /* \"#utility.yul\":5924:5977   */\n      tag_348\n        /* \"#utility.yul\":5969:5976   */\n      dup8\n        /* \"#utility.yul\":5960:5966   */\n      dup3\n        /* \"#utility.yul\":5949:5958   */\n      dup9\n        /* \"#utility.yul\":5945:5967   */\n      add\n        /* \"#utility.yul\":5924:5977   */\n      tag_219\n      jump\t// in\n    tag_348:\n        /* \"#utility.yul\":5914:5977   */\n      swap4\n      pop\n        /* \"#utility.yul\":5869:5987   */\n      pop\n        /* \"#utility.yul\":6054:6056   */\n      0x40\n        /* \"#utility.yul\":6043:6052   */\n      dup6\n        /* \"#utility.yul\":6039:6057   */\n      add\n        /* \"#utility.yul\":6026:6058   */\n      calldataload\n        /* \"#utility.yul\":6085:6103   */\n      0xffffffffffffffff\n        /* \"#utility.yul\":6077:6083   */\n      dup2\n        /* \"#utility.yul\":6074:6104   */\n      gt\n        /* \"#utility.yul\":6071:6188   */\n      iszero\n      tag_349\n      jumpi\n        /* \"#utility.yul\":6107:6186   */\n      tag_350\n      tag_211\n      jump\t// in\n    tag_350:\n        /* \"#utility.yul\":6071:6188   */\n    tag_349:\n        /* \"#utility.yul\":6220:6300   */\n      tag_351\n        /* \"#utility.yul\":6292:6299   */\n      dup8\n        /* \"#utility.yul\":6283:6289   */\n      dup3\n        /* \"#utility.yul\":6272:6281   */\n      dup9\n        /* \"#utility.yul\":6268:6290   */\n      add\n        /* \"#utility.yul\":6220:6300   */\n      tag_228\n      jump\t// in\n    tag_351:\n        /* \"#utility.yul\":6202:6300   */\n      swap3\n      pop\n      swap3\n      pop\n        /* \"#utility.yul\":5997:6310   */\n      pop\n        /* \"#utility.yul\":5468:6317   */\n      swap3\n      swap6\n      swap2\n      swap5\n      pop\n      swap3\n      pop\n      jump\t// out\n        /* \"#utility.yul\":6323:6441   */\n    tag_229:\n        /* \"#utility.yul\":6410:6434   */\n      tag_353\n        /* \"#utility.yul\":6428:6433   */\n      dup2\n        /* \"#utility.yul\":6410:6434   */\n      tag_217\n      jump\t// in\n    tag_353:\n        /* \"#utility.yul\":6405:6408   */\n      dup3\n        /* \"#utility.yul\":6398:6435   */\n      mstore\n        /* \"#utility.yul\":6323:6441   */\n      pop\n      pop\n      jump\t// out\n        /* \"#utility.yul\":6447:6669   */\n    tag_67:\n        /* \"#utility.yul\":6540:6544   */\n      0x00\n        /* \"#utility.yul\":6578:6580   */\n      0x20\n        /* \"#utility.yul\":6567:6576   */\n      dup3\n        /* \"#utility.yul\":6563:6581   */\n      add\n        /* \"#utility.yul\":6555:6581   */\n      swap1\n      pop\n        /* \"#utility.yul\":6591:6662   */\n      tag_355\n        /* \"#utility.yul\":6659:6660   */\n      0x00\n        /* \"#utility.yul\":6648:6657   */\n      dup4\n        /* \"#utility.yul\":6644:6661   */\n      add\n        /* \"#utility.yul\":6635:6641   */\n      dup5\n        /* \"#utility.yul\":6591:6662   */\n      tag_229\n      jump\t// in\n    tag_355:\n        /* \"#utility.yul\":6447:6669   */\n      swap3\n      swap2\n      pop\n      pop\n      jump\t// out\n        /* \"#utility.yul\":6675:6791   */\n    tag_230:\n        /* \"#utility.yul\":6745:6766   */\n      tag_357\n        /* \"#utility.yul\":6760:6765   */\n      dup2\n        /* \"#utility.yul\":6745:6766   */\n      tag_215\n      jump\t// in\n    tag_357:\n        /* \"#utility.yul\":6738:6743   */\n      dup2\n        /* \"#utility.yul\":6735:6767   */\n      eq\n        /* \"#utility.yul\":6725:6785   */\n      tag_358\n      jumpi\n        /* \"#utility.yul\":6781:6782   */\n      0x00\n        /* \"#utility.yul\":6778:6779   */\n      dup1\n        /* \"#utility.yul\":6771:6783   */\n      revert\n        /* \"#utility.yul\":6725:6785   */\n    tag_358:\n        /* \"#utility.yul\":6675:6791   */\n      pop\n      jump\t// out\n        /* \"#utility.yul\":6797:6930   */\n    tag_231:\n        /* \"#utility.yul\":6840:6845   */\n      0x00\n        /* \"#utility.yul\":6878:6884   */\n      dup2\n        /* \"#utility.yul\":6865:6885   */\n      calldataload\n        /* \"#utility.yul\":6856:6885   */\n      swap1\n      pop\n        /* \"#utility.yul\":6894:6924   */\n      tag_360\n        /* \"#utility.yul\":6918:6923   */\n      dup2\n        /* \"#utility.yul\":6894:6924   */\n      tag_230\n      jump\t// in\n    tag_360:\n        /* \"#utility.yul\":6797:6930   */\n      swap3\n      swap2\n      pop\n      pop\n      jump\t// out\n        /* \"#utility.yul\":6936:7404   */\n    tag_70:\n        /* \"#utility.yul\":7001:7007   */\n      0x00\n        /* \"#utility.yul\":7009:7015   */\n      dup1\n        /* \"#utility.yul\":7058:7060   */\n      0x40\n        /* \"#utility.yul\":7046:7055   */\n      dup4\n        /* \"#utility.yul\":7037:7044   */\n      dup6\n        /* \"#utility.yul\":7033:7056   */\n      sub\n        /* \"#utility.yul\":7029:7061   */\n      slt\n        /* \"#utility.yul\":7026:7145   */\n      iszero\n      tag_362\n      jumpi\n        /* \"#utility.yul\":7064:7143   */\n      tag_363\n      tag_210\n      jump\t// in\n    tag_363:\n        /* \"#utility.yul\":7026:7145   */\n    tag_362:\n        /* \"#utility.yul\":7184:7185   */\n      0x00\n        /* \"#utility.yul\":7209:7262   */\n      tag_364\n        /* \"#utility.yul\":7254:7261   */\n      dup6\n        /* \"#utility.yul\":7245:7251   */\n      dup3\n        /* \"#utility.yul\":7234:7243   */\n      dup7\n        /* \"#utility.yul\":7230:7252   */\n      add\n        /* \"#utility.yul\":7209:7262   */\n      tag_224\n      jump\t// in\n    tag_364:\n        /* \"#utility.yul\":7199:7262   */\n      swap3\n      pop\n        /* \"#utility.yul\":7155:7272   */\n      pop\n        /* \"#utility.yul\":7311:7313   */\n      0x20\n        /* \"#utility.yul\":7337:7387   */\n      tag_365\n        /* \"#utility.yul\":7379:7386   */\n      dup6\n        /* \"#utility.yul\":7370:7376   */\n      dup3\n        /* \"#utility.yul\":7359:7368   */\n      dup7\n        /* \"#utility.yul\":7355:7377   */\n      add\n        /* \"#utility.yul\":7337:7387   */\n      tag_231\n      jump\t// in\n    tag_365:\n        /* \"#utility.yul\":7327:7387   */\n      swap2\n      pop\n        /* \"#utility.yul\":7282:7397   */\n      pop\n        /* \"#utility.yul\":6936:7404   */\n      swap3\n      pop\n      swap3\n      swap1\n      pop\n      jump\t// out\n        /* \"#utility.yul\":7410:7527   */\n    tag_232:\n        /* \"#utility.yul\":7519:7520   */\n      0x00\n        /* \"#utility.yul\":7516:7517   */\n      dup1\n        /* \"#utility.yul\":7509:7521   */\n      revert\n        /* \"#utility.yul\":7533:7635   */\n    tag_233:\n        /* \"#utility.yul\":7574:7580   */\n      0x00\n        /* \"#utility.yul\":7625:7627   */\n      0x1f\n        /* \"#utility.yul\":7621:7628   */\n      not\n        /* \"#utility.yul\":7616:7618   */\n      0x1f\n        /* \"#utility.yul\":7609:7614   */\n      dup4\n        /* \"#utility.yul\":7605:7619   */\n      add\n        /* \"#utility.yul\":7601:7629   */\n      and\n        /* \"#utility.yul\":7591:7629   */\n      swap1\n      pop\n        /* \"#utility.yul\":7533:7635   */\n      swap2\n      swap1\n      pop\n      jump\t// out\n        /* \"#utility.yul\":7641:7821   */\n    tag_234:\n        /* \"#utility.yul\":7689:7766   */\n      0x4e487b7100000000000000000000000000000000000000000000000000000000\n        /* \"#utility.yul\":7686:7687   */\n      0x00\n        /* \"#utility.yul\":7679:7767   */\n      mstore\n        /* \"#utility.yul\":7786:7790   */\n      0x41\n        /* \"#utility.yul\":7783:7784   */\n      0x04\n        /* \"#utility.yul\":7776:7791   */\n      mstore\n        /* \"#utility.yul\":7810:7814   */\n      0x24\n        /* \"#utility.yul\":7807:7808   */\n      0x00\n        /* \"#utility.yul\":7800:7815   */\n      revert\n        /* \"#utility.yul\":7827:8108   */\n    tag_235:\n        /* \"#utility.yul\":7910:7937   */\n      tag_370\n        /* \"#utility.yul\":7932:7936   */\n      dup3\n        /* \"#utility.yul\":7910:7937   */\n      tag_233\n      jump\t// in\n    tag_370:\n        /* \"#utility.yul\":7902:7908   */\n      dup2\n        /* \"#utility.yul\":7898:7938   */\n      add\n        /* \"#utility.yul\":8040:8046   */\n      dup2\n        /* \"#utility.yul\":8028:8038   */\n      dup2\n        /* \"#utility.yul\":8025:8047   */\n      lt\n        /* \"#utility.yul\":8004:8022   */\n      0xffffffffffffffff\n        /* \"#utility.yul\":7992:8002   */\n      dup3\n        /* \"#utility.yul\":7989:8023   */\n      gt\n        /* \"#utility.yul\":7986:8048   */\n      or\n        /* \"#utility.yul\":7983:8071   */\n      iszero\n      tag_371\n      jumpi\n        /* \"#utility.yul\":8051:8069   */\n      tag_372\n      tag_234\n      jump\t// in\n    tag_372:\n        /* \"#utility.yul\":7983:8071   */\n    tag_371:\n        /* \"#utility.yul\":8091:8101   */\n      dup1\n        /* \"#utility.yul\":8087:8089   */\n      0x40\n        /* \"#utility.yul\":8080:8102   */\n      mstore\n        /* \"#utility.yul\":7870:8108   */\n      pop\n        /* \"#utility.yul\":7827:8108   */\n      pop\n      pop\n      jump\t// out\n        /* \"#utility.yul\":8114:8243   */\n    tag_236:\n        /* \"#utility.yul\":8148:8154   */\n      0x00\n        /* \"#utility.yul\":8175:8195   */\n      tag_374\n      tag_209\n      jump\t// in\n    tag_374:\n        /* \"#utility.yul\":8165:8195   */\n      swap1\n      pop\n        /* \"#utility.yul\":8204:8237   */\n      tag_375\n        /* \"#utility.yul\":8232:8236   */\n      dup3\n        /* \"#utility.yul\":8224:8230   */\n      dup3\n        /* \"#utility.yul\":8204:8237   */\n      tag_235\n      jump\t// in\n    tag_375:\n        /* \"#utility.yul\":8114:8243   */\n      swap2\n      swap1\n      pop\n      jump\t// out\n        /* \"#utility.yul\":8249:8556   */\n    tag_237:\n        /* \"#utility.yul\":8310:8314   */\n      0x00\n        /* \"#utility.yul\":8400:8418   */\n      0xffffffffffffffff\n        /* \"#utility.yul\":8392:8398   */\n      dup3\n        /* \"#utility.yul\":8389:8419   */\n      gt\n        /* \"#utility.yul\":8386:8442   */\n      iszero\n      tag_377\n      jumpi\n        /* \"#utility.yul\":8422:8440   */\n      tag_378\n      tag_234\n      jump\t// in\n    tag_378:\n        /* \"#utility.yul\":8386:8442   */\n    tag_377:\n        /* \"#utility.yul\":8460:8489   */\n      tag_379\n        /* \"#utility.yul\":8482:8488   */\n      dup3\n        /* \"#utility.yul\":8460:8489   */\n      tag_233\n      jump\t// in\n    tag_379:\n        /* \"#utility.yul\":8452:8489   */\n      swap1\n      pop\n        /* \"#utility.yul\":8544:8548   */\n      0x20\n        /* \"#utility.yul\":8538:8542   */\n      dup2\n        /* \"#utility.yul\":8534:8549   */\n      add\n        /* \"#utility.yul\":8526:8549   */\n      swap1\n      pop\n        /* \"#utility.yul\":8249:8556   */\n      swap2\n      swap1\n      pop\n      jump\t// out\n        /* \"#utility.yul\":8562:8710   */\n    tag_238:\n        /* \"#utility.yul\":8660:8666   */\n      dup3\n        /* \"#utility.yul\":8655:8658   */\n      dup2\n        /* \"#utility.yul\":8650:8653   */\n      dup4\n        /* \"#utility.yul\":8637:8667   */\n      calldatacopy\n        /* \"#utility.yul\":8701:8702   */\n      0x00\n        /* \"#utility.yul\":8692:8698   */\n      dup4\n        /* \"#utility.yul\":8687:8690   */\n      dup4\n        /* \"#utility.yul\":8683:8699   */\n      add\n        /* \"#utility.yul\":8676:8703   */\n      mstore\n        /* \"#utility.yul\":8562:8710   */\n      pop\n      pop\n      pop\n      jump\t// out\n        /* \"#utility.yul\":8716:9139   */\n    tag_239:\n        /* \"#utility.yul\":8793:8798   */\n      0x00\n        /* \"#utility.yul\":8818:8883   */\n      tag_382\n        /* \"#utility.yul\":8834:8882   */\n      tag_383\n        /* \"#utility.yul\":8875:8881   */\n      dup5\n        /* \"#utility.yul\":8834:8882   */\n      tag_237\n      jump\t// in\n    tag_383:\n        /* \"#utility.yul\":8818:8883   */\n      tag_236\n      jump\t// in\n    tag_382:\n        /* \"#utility.yul\":8809:8883   */\n      swap1\n      pop\n        /* \"#utility.yul\":8906:8912   */\n      dup3\n        /* \"#utility.yul\":8899:8904   */\n      dup2\n        /* \"#utility.yul\":8892:8913   */\n      mstore\n        /* \"#utility.yul\":8944:8948   */\n      0x20\n        /* \"#utility.yul\":8937:8942   */\n      dup2\n        /* \"#utility.yul\":8933:8949   */\n      add\n        /* \"#utility.yul\":8982:8985   */\n      dup5\n        /* \"#utility.yul\":8973:8979   */\n      dup5\n        /* \"#utility.yul\":8968:8971   */\n      dup5\n        /* \"#utility.yul\":8964:8980   */\n      add\n        /* \"#utility.yul\":8961:8986   */\n      gt\n        /* \"#utility.yul\":8958:9070   */\n      iszero\n      tag_384\n      jumpi\n        /* \"#utility.yul\":8989:9068   */\n      tag_385\n      tag_232\n      jump\t// in\n    tag_385:\n        /* \"#utility.yul\":8958:9070   */\n    tag_384:\n        /* \"#utility.yul\":9079:9133   */\n      tag_386\n        /* \"#utility.yul\":9126:9132   */\n      dup5\n        /* \"#utility.yul\":9121:9124   */\n      dup3\n        /* \"#utility.yul\":9116:9119   */\n      dup6\n        /* \"#utility.yul\":9079:9133   */\n      tag_238\n      jump\t// in\n    tag_386:\n        /* \"#utility.yul\":8799:9139   */\n      pop\n        /* \"#utility.yul\":8716:9139   */\n      swap4\n      swap3\n      pop\n      pop\n      pop\n      jump\t// out\n        /* \"#utility.yul\":9158:9496   */\n    tag_240:\n        /* \"#utility.yul\":9213:9218   */\n      0x00\n        /* \"#utility.yul\":9262:9265   */\n      dup3\n        /* \"#utility.yul\":9255:9259   */\n      0x1f\n        /* \"#utility.yul\":9247:9253   */\n      dup4\n        /* \"#utility.yul\":9243:9260   */\n      add\n        /* \"#utility.yul\":9239:9266   */\n      slt\n        /* \"#utility.yul\":9229:9351   */\n      tag_388\n      jumpi\n        /* \"#utility.yul\":9270:9349   */\n      tag_389\n      tag_225\n      jump\t// in\n    tag_389:\n        /* \"#utility.yul\":9229:9351   */\n    tag_388:\n        /* \"#utility.yul\":9387:9393   */\n      dup2\n        /* \"#utility.yul\":9374:9394   */\n      calldataload\n        /* \"#utility.yul\":9412:9490   */\n      tag_390\n        /* \"#utility.yul\":9486:9489   */\n      dup5\n        /* \"#utility.yul\":9478:9484   */\n      dup3\n        /* \"#utility.yul\":9471:9475   */\n      0x20\n        /* \"#utility.yul\":9463:9469   */\n      dup7\n        /* \"#utility.yul\":9459:9476   */\n      add\n        /* \"#utility.yul\":9412:9490   */\n      tag_239\n      jump\t// in\n    tag_390:\n        /* \"#utility.yul\":9403:9490   */\n      swap2\n      pop\n        /* \"#utility.yul\":9219:9496   */\n      pop\n        /* \"#utility.yul\":9158:9496   */\n      swap3\n      swap2\n      pop\n      pop\n      jump\t// out\n        /* \"#utility.yul\":9502:10445   */\n    tag_74:\n        /* \"#utility.yul\":9597:9603   */\n      0x00\n        /* \"#utility.yul\":9605:9611   */\n      dup1\n        /* \"#utility.yul\":9613:9619   */\n      0x00\n        /* \"#utility.yul\":9621:9627   */\n      dup1\n        /* \"#utility.yul\":9670:9673   */\n      0x80\n        /* \"#utility.yul\":9658:9667   */\n      dup6\n        /* \"#utility.yul\":9649:9656   */\n      dup8\n        /* \"#utility.yul\":9645:9668   */\n      sub\n        /* \"#utility.yul\":9641:9674   */\n      slt\n        /* \"#utility.yul\":9638:9758   */\n      iszero\n      tag_392\n      jumpi\n        /* \"#utility.yul\":9677:9756   */\n      tag_393\n      tag_210\n      jump\t// in\n    tag_393:\n        /* \"#utility.yul\":9638:9758   */\n    tag_392:\n        /* \"#utility.yul\":9797:9798   */\n      0x00\n        /* \"#utility.yul\":9822:9875   */\n      tag_394\n        /* \"#utility.yul\":9867:9874   */\n      dup8\n        /* \"#utility.yul\":9858:9864   */\n      dup3\n        /* \"#utility.yul\":9847:9856   */\n      dup9\n        /* \"#utility.yul\":9843:9865   */\n      add\n        /* \"#utility.yul\":9822:9875   */\n      tag_224\n      jump\t// in\n    tag_394:\n        /* \"#utility.yul\":9812:9875   */\n      swap5\n      pop\n        /* \"#utility.yul\":9768:9885   */\n      pop\n        /* \"#utility.yul\":9924:9926   */\n      0x20\n        /* \"#utility.yul\":9950:10003   */\n      tag_395\n        /* \"#utility.yul\":9995:10002   */\n      dup8\n        /* \"#utility.yul\":9986:9992   */\n      dup3\n        /* \"#utility.yul\":9975:9984   */\n      dup9\n        /* \"#utility.yul\":9971:9993   */\n      add\n        /* \"#utility.yul\":9950:10003   */\n      tag_224\n      jump\t// in\n    tag_395:\n        /* \"#utility.yul\":9940:10003   */\n      swap4\n      pop\n        /* \"#utility.yul\":9895:10013   */\n      pop\n        /* \"#utility.yul\":10052:10054   */\n      0x40\n        /* \"#utility.yul\":10078:10131   */\n      tag_396\n        /* \"#utility.yul\":10123:10130   */\n      dup8\n        /* \"#utility.yul\":10114:10120   */\n      dup3\n        /* \"#utility.yul\":10103:10112   */\n      dup9\n        /* \"#utility.yul\":10099:10121   */\n      add\n        /* \"#utility.yul\":10078:10131   */\n      tag_219\n      jump\t// in\n    tag_396:\n        /* \"#utility.yul\":10068:10131   */\n      swap3\n      pop\n        /* \"#utility.yul\":10023:10141   */\n      pop\n        /* \"#utility.yul\":10208:10210   */\n      0x60\n        /* \"#utility.yul\":10197:10206   */\n      dup6\n        /* \"#utility.yul\":10193:10211   */\n      add\n        /* \"#utility.yul\":10180:10212   */\n      calldataload\n        /* \"#utility.yul\":10239:10257   */\n      0xffffffffffffffff\n        /* \"#utility.yul\":10231:10237   */\n      dup2\n        /* \"#utility.yul\":10228:10258   */\n      gt\n        /* \"#utility.yul\":10225:10342   */\n      iszero\n      tag_397\n      jumpi\n        /* \"#utility.yul\":10261:10340   */\n      tag_398\n      tag_211\n      jump\t// in\n    tag_398:\n        /* \"#utility.yul\":10225:10342   */\n    tag_397:\n        /* \"#utility.yul\":10366:10428   */\n      tag_399\n        /* \"#utility.yul\":10420:10427   */\n      dup8\n        /* \"#utility.yul\":10411:10417   */\n      dup3\n        /* \"#utility.yul\":10400:10409   */\n      dup9\n        /* \"#utility.yul\":10396:10418   */\n      add\n        /* \"#utility.yul\":10366:10428   */\n      tag_240\n      jump\t// in\n    tag_399:\n        /* \"#utility.yul\":10356:10428   */\n      swap2\n      pop\n        /* \"#utility.yul\":10151:10438   */\n      pop\n        /* \"#utility.yul\":9502:10445   */\n      swap3\n      swap6\n      swap2\n      swap5\n      pop\n      swap3\n      pop\n      jump\t// out\n        /* \"#utility.yul\":10451:10925   */\n    tag_78:\n        /* \"#utility.yul\":10519:10525   */\n      0x00\n        /* \"#utility.yul\":10527:10533   */\n      dup1\n        /* \"#utility.yul\":10576:10578   */\n      0x40\n        /* \"#utility.yul\":10564:10573   */\n      dup4\n        /* \"#utility.yul\":10555:10562   */\n      dup6\n        /* \"#utility.yul\":10551:10574   */\n      sub\n        /* \"#utility.yul\":10547:10579   */\n      slt\n        /* \"#utility.yul\":10544:10663   */\n      iszero\n      tag_401\n      jumpi\n        /* \"#utility.yul\":10582:10661   */\n      tag_402\n      tag_210\n      jump\t// in\n    tag_402:\n        /* \"#utility.yul\":10544:10663   */\n    tag_401:\n        /* \"#utility.yul\":10702:10703   */\n      0x00\n        /* \"#utility.yul\":10727:10780   */\n      tag_403\n        /* \"#utility.yul\":10772:10779   */\n      dup6\n        /* \"#utility.yul\":10763:10769   */\n      dup3\n        /* \"#utility.yul\":10752:10761   */\n      dup7\n        /* \"#utility.yul\":10748:10770   */\n      add\n        /* \"#utility.yul\":10727:10780   */\n      tag_224\n      jump\t// in\n    tag_403:\n        /* \"#utility.yul\":10717:10780   */\n      swap3\n      pop\n        /* \"#utility.yul\":10673:10790   */\n      pop\n        /* \"#utility.yul\":10829:10831   */\n      0x20\n        /* \"#utility.yul\":10855:10908   */\n      tag_404\n        /* \"#utility.yul\":10900:10907   */\n      dup6\n        /* \"#utility.yul\":10891:10897   */\n      dup3\n        /* \"#utility.yul\":10880:10889   */\n      dup7\n        /* \"#utility.yul\":10876:10898   */\n      add\n        /* \"#utility.yul\":10855:10908   */\n      tag_224\n      jump\t// in\n    tag_404:\n        /* \"#utility.yul\":10845:10908   */\n      swap2\n      pop\n        /* \"#utility.yul\":10800:10918   */\n      pop\n        /* \"#utility.yul\":10451:10925   */\n      swap3\n      pop\n      swap3\n      swap1\n      pop\n      jump\t// out\n        /* \"#utility.yul\":10931:11008   */\n    tag_241:\n        /* \"#utility.yul\":10968:10975   */\n      0x00\n        /* \"#utility.yul\":10997:11002   */\n      dup2\n        /* \"#utility.yul\":10986:11002   */\n      swap1\n      pop\n        /* \"#utility.yul\":10931:11008   */\n      swap2\n      swap1\n      pop\n      jump\t// out\n        /* \"#utility.yul\":11014:11132   */\n    tag_242:\n        /* \"#utility.yul\":11101:11125   */\n      tag_407\n        /* \"#utility.yul\":11119:11124   */\n      dup2\n        /* \"#utility.yul\":11101:11125   */\n      tag_241\n      jump\t// in\n    tag_407:\n        /* \"#utility.yul\":11096:11099   */\n      dup3\n        /* \"#utility.yul\":11089:11126   */\n      mstore\n        /* \"#utility.yul\":11014:11132   */\n      pop\n      pop\n      jump\t// out\n        /* \"#utility.yul\":11138:11360   */\n    tag_84:\n        /* \"#utility.yul\":11231:11235   */\n      0x00\n        /* \"#utility.yul\":11269:11271   */\n      0x20\n        /* \"#utility.yul\":11258:11267   */\n      dup3\n        /* \"#utility.yul\":11254:11272   */\n      add\n        /* \"#utility.yul\":11246:11272   */\n      swap1\n      pop\n        /* \"#utility.yul\":11282:11353   */\n      tag_409\n        /* \"#utility.yul\":11350:11351   */\n      0x00\n        /* \"#utility.yul\":11339:11348   */\n      dup4\n        /* \"#utility.yul\":11335:11352   */\n      add\n        /* \"#utility.yul\":11326:11332   */\n      dup5\n        /* \"#utility.yul\":11282:11353   */\n      tag_242\n      jump\t// in\n    tag_409:\n        /* \"#utility.yul\":11138:11360   */\n      swap3\n      swap2\n      pop\n      pop\n      jump\t// out\n        /* \"#utility.yul\":11366:11535   */\n    tag_243:\n        /* \"#utility.yul\":11450:11461   */\n      0x00\n        /* \"#utility.yul\":11484:11490   */\n      dup3\n        /* \"#utility.yul\":11479:11482   */\n      dup3\n        /* \"#utility.yul\":11472:11491   */\n      mstore\n        /* \"#utility.yul\":11524:11528   */\n      0x20\n        /* \"#utility.yul\":11519:11522   */\n      dup3\n        /* \"#utility.yul\":11515:11529   */\n      add\n        /* \"#utility.yul\":11500:11529   */\n      swap1\n      pop\n        /* \"#utility.yul\":11366:11535   */\n      swap3\n      swap2\n      pop\n      pop\n      jump\t// out\n        /* \"#utility.yul\":11541:11710   */\n    tag_244:\n        /* \"#utility.yul\":11681:11702   */\n      0x746f6b656e20646f65736e277420657869737400000000000000000000000000\n        /* \"#utility.yul\":11677:11678   */\n      0x00\n        /* \"#utility.yul\":11669:11675   */\n      dup3\n        /* \"#utility.yul\":11665:11679   */\n      add\n        /* \"#utility.yul\":11658:11703   */\n      mstore\n        /* \"#utility.yul\":11541:11710   */\n      pop\n      jump\t// out\n        /* \"#utility.yul\":11716:12082   */\n    tag_245:\n        /* \"#utility.yul\":11858:11861   */\n      0x00\n        /* \"#utility.yul\":11879:11946   */\n      tag_413\n        /* \"#utility.yul\":11943:11945   */\n      0x13\n        /* \"#utility.yul\":11938:11941   */\n      dup4\n        /* \"#utility.yul\":11879:11946   */\n      tag_243\n      jump\t// in\n    tag_413:\n        /* \"#utility.yul\":11872:11946   */\n      swap2\n      pop\n        /* \"#utility.yul\":11955:12048   */\n      tag_414\n        /* \"#utility.yul\":12044:12047   */\n      dup3\n        /* \"#utility.yul\":11955:12048   */\n      tag_244\n      jump\t// in\n    tag_414:\n        /* \"#utility.yul\":12073:12075   */\n      0x20\n        /* \"#utility.yul\":12068:12071   */\n      dup3\n        /* \"#utility.yul\":12064:12076   */\n      add\n        /* \"#utility.yul\":12057:12076   */\n      swap1\n      pop\n        /* \"#utility.yul\":11716:12082   */\n      swap2\n      swap1\n      pop\n      jump\t// out\n        /* \"#utility.yul\":12088:12507   */\n    tag_90:\n        /* \"#utility.yul\":12254:12258   */\n      0x00\n        /* \"#utility.yul\":12292:12294   */\n      0x20\n        /* \"#utility.yul\":12281:12290   */\n      dup3\n        /* \"#utility.yul\":12277:12295   */\n      add\n        /* \"#utility.yul\":12269:12295   */\n      swap1\n      pop\n        /* \"#utility.yul\":12341:12350   */\n      dup2\n        /* \"#utility.yul\":12335:12339   */\n      dup2\n        /* \"#utility.yul\":12331:12351   */\n      sub\n        /* \"#utility.yul\":12327:12328   */\n      0x00\n        /* \"#utility.yul\":12316:12325   */\n      dup4\n        /* \"#utility.yul\":12312:12329   */\n      add\n        /* \"#utility.yul\":12305:12352   */\n      mstore\n        /* \"#utility.yul\":12369:12500   */\n      tag_416\n        /* \"#utility.yul\":12495:12499   */\n      dup2\n        /* \"#utility.yul\":12369:12500   */\n      tag_245\n      jump\t// in\n    tag_416:\n        /* \"#utility.yul\":12361:12500   */\n      swap1\n      pop\n        /* \"#utility.yul\":12088:12507   */\n      swap2\n      swap1\n      pop\n      jump\t// out\n        /* \"#utility.yul\":12513:12693   */\n    tag_246:\n        /* \"#utility.yul\":12653:12685   */\n      0x6e6f74206f776e6572206e6f7220617070726f76656420666f7220616c6c0000\n        /* \"#utility.yul\":12649:12650   */\n      0x00\n        /* \"#utility.yul\":12641:12647   */\n      dup3\n        /* \"#utility.yul\":12637:12651   */\n      add\n        /* \"#utility.yul\":12630:12686   */\n      mstore\n        /* \"#utility.yul\":12513:12693   */\n      pop\n      jump\t// out\n        /* \"#utility.yul\":12699:13065   */\n    tag_247:\n        /* \"#utility.yul\":12841:12844   */\n      0x00\n        /* \"#utility.yul\":12862:12929   */\n      tag_419\n        /* \"#utility.yul\":12926:12928   */\n      0x1e\n        /* \"#utility.yul\":12921:12924   */\n      dup4\n        /* \"#utility.yul\":12862:12929   */\n      tag_243\n      jump\t// in\n    tag_419:\n        /* \"#utility.yul\":12855:12929   */\n      swap2\n      pop\n        /* \"#utility.yul\":12938:13031   */\n      tag_420\n        /* \"#utility.yul\":13027:13030   */\n      dup3\n        /* \"#utility.yul\":12938:13031   */\n      tag_246\n      jump\t// in\n    tag_420:\n        /* \"#utility.yul\":13056:13058   */\n      0x20\n        /* \"#utility.yul\":13051:13054   */\n      dup3\n        /* \"#utility.yul\":13047:13059   */\n      add\n        /* \"#utility.yul\":13040:13059   */\n      swap1\n      pop\n        /* \"#utility.yul\":12699:13065   */\n      swap2\n      swap1\n      pop\n      jump\t// out\n        /* \"#utility.yul\":13071:13490   */\n    tag_95:\n        /* \"#utility.yul\":13237:13241   */\n      0x00\n        /* \"#utility.yul\":13275:13277   */\n      0x20\n        /* \"#utility.yul\":13264:13273   */\n      dup3\n        /* \"#utility.yul\":13260:13278   */\n      add\n        /* \"#utility.yul\":13252:13278   */\n      swap1\n      pop\n        /* \"#utility.yul\":13324:13333   */\n      dup2\n        /* \"#utility.yul\":13318:13322   */\n      dup2\n        /* \"#utility.yul\":13314:13334   */\n      sub\n        /* \"#utility.yul\":13310:13311   */\n      0x00\n        /* \"#utility.yul\":13299:13308   */\n      dup4\n        /* \"#utility.yul\":13295:13312   */\n      add\n        /* \"#utility.yul\":13288:13335   */\n      mstore\n        /* \"#utility.yul\":13352:13483   */\n      tag_422\n        /* \"#utility.yul\":13478:13482   */\n      dup2\n        /* \"#utility.yul\":13352:13483   */\n      tag_247\n      jump\t// in\n    tag_422:\n        /* \"#utility.yul\":13344:13483   */\n      swap1\n      pop\n        /* \"#utility.yul\":13071:13490   */\n      swap2\n      swap1\n      pop\n      jump\t// out\n        /* \"#utility.yul\":13496:13668   */\n    tag_248:\n        /* \"#utility.yul\":13636:13660   */\n      0x6e6f74206f776e6572206e6f7220617070726f76656400000000000000000000\n        /* \"#utility.yul\":13632:13633   */\n      0x00\n        /* \"#utility.yul\":13624:13630   */\n      dup3\n        /* \"#utility.yul\":13620:13634   */\n      add\n        /* \"#utility.yul\":13613:13661   */\n      mstore\n        /* \"#utility.yul\":13496:13668   */\n      pop\n      jump\t// out\n        /* \"#utility.yul\":13674:14040   */\n    tag_249:\n        /* \"#utility.yul\":13816:13819   */\n      0x00\n        /* \"#utility.yul\":13837:13904   */\n      tag_425\n        /* \"#utility.yul\":13901:13903   */\n      0x16\n        /* \"#utility.yul\":13896:13899   */\n      dup4\n        /* \"#utility.yul\":13837:13904   */\n      tag_243\n      jump\t// in\n    tag_425:\n        /* \"#utility.yul\":13830:13904   */\n      swap2\n      pop\n        /* \"#utility.yul\":13913:14006   */\n      tag_426\n        /* \"#utility.yul\":14002:14005   */\n      dup3\n        /* \"#utility.yul\":13913:14006   */\n      tag_248\n      jump\t// in\n    tag_426:\n        /* \"#utility.yul\":14031:14033   */\n      0x20\n        /* \"#utility.yul\":14026:14029   */\n      dup3\n        /* \"#utility.yul\":14022:14034   */\n      add\n        /* \"#utility.yul\":14015:14034   */\n      swap1\n      pop\n        /* \"#utility.yul\":13674:14040   */\n      swap2\n      swap1\n      pop\n      jump\t// out\n        /* \"#utility.yul\":14046:14465   */\n    tag_104:\n        /* \"#utility.yul\":14212:14216   */\n      0x00\n        /* \"#utility.yul\":14250:14252   */\n      0x20\n        /* \"#utility.yul\":14239:14248   */\n      dup3\n        /* \"#utility.yul\":14235:14253   */\n      add\n        /* \"#utility.yul\":14227:14253   */\n      swap1\n      pop\n        /* \"#utility.yul\":14299:14308   */\n      dup2\n        /* \"#utility.yul\":14293:14297   */\n      dup2\n        /* \"#utility.yul\":14289:14309   */\n      sub\n        /* \"#utility.yul\":14285:14286   */\n      0x00\n        /* \"#utility.yul\":14274:14283   */\n      dup4\n        /* \"#utility.yul\":14270:14287   */\n      add\n        /* \"#utility.yul\":14263:14310   */\n      mstore\n        /* \"#utility.yul\":14327:14458   */\n      tag_428\n        /* \"#utility.yul\":14453:14457   */\n      dup2\n        /* \"#utility.yul\":14327:14458   */\n      tag_249\n      jump\t// in\n    tag_428:\n        /* \"#utility.yul\":14319:14458   */\n      swap1\n      pop\n        /* \"#utility.yul\":14046:14465   */\n      swap2\n      swap1\n      pop\n      jump\t// out\n        /* \"#utility.yul\":14471:14641   */\n    tag_250:\n        /* \"#utility.yul\":14611:14633   */\n      0x6d696e7420746f207a65726f2061646472657373000000000000000000000000\n        /* \"#utility.yul\":14607:14608   */\n      0x00\n        /* \"#utility.yul\":14599:14605   */\n      dup3\n        /* \"#utility.yul\":14595:14609   */\n      add\n        /* \"#utility.yul\":14588:14634   */\n      mstore\n        /* \"#utility.yul\":14471:14641   */\n      pop\n      jump\t// out\n        /* \"#utility.yul\":14647:15013   */\n    tag_251:\n        /* \"#utility.yul\":14789:14792   */\n      0x00\n        /* \"#utility.yul\":14810:14877   */\n      tag_431\n        /* \"#utility.yul\":14874:14876   */\n      0x14\n        /* \"#utility.yul\":14869:14872   */\n      dup4\n        /* \"#utility.yul\":14810:14877   */\n      tag_243\n      jump\t// in\n    tag_431:\n        /* \"#utility.yul\":14803:14877   */\n      swap2\n      pop\n        /* \"#utility.yul\":14886:14979   */\n      tag_432\n        /* \"#utility.yul\":14975:14978   */\n      dup3\n        /* \"#utility.yul\":14886:14979   */\n      tag_250\n      jump\t// in\n    tag_432:\n        /* \"#utility.yul\":15004:15006   */\n      0x20\n        /* \"#utility.yul\":14999:15002   */\n      dup3\n        /* \"#utility.yul\":14995:15007   */\n      add\n        /* \"#utility.yul\":14988:15007   */\n      swap1\n      pop\n        /* \"#utility.yul\":14647:15013   */\n      swap2\n      swap1\n      pop\n      jump\t// out\n        /* \"#utility.yul\":15019:15438   */\n    tag_110:\n        /* \"#utility.yul\":15185:15189   */\n      0x00\n        /* \"#utility.yul\":15223:15225   */\n      0x20\n        /* \"#utility.yul\":15212:15221   */\n      dup3\n        /* \"#utility.yul\":15208:15226   */\n      add\n        /* \"#utility.yul\":15200:15226   */\n      swap1\n      pop\n        /* \"#utility.yul\":15272:15281   */\n      dup2\n        /* \"#utility.yul\":15266:15270   */\n      dup2\n        /* \"#utility.yul\":15262:15282   */\n      sub\n        /* \"#utility.yul\":15258:15259   */\n      0x00\n        /* \"#utility.yul\":15247:15256   */\n      dup4\n        /* \"#utility.yul\":15243:15260   */\n      add\n        /* \"#utility.yul\":15236:15283   */\n      mstore\n        /* \"#utility.yul\":15300:15431   */\n      tag_434\n        /* \"#utility.yul\":15426:15430   */\n      dup2\n        /* \"#utility.yul\":15300:15431   */\n      tag_251\n      jump\t// in\n    tag_434:\n        /* \"#utility.yul\":15292:15431   */\n      swap1\n      pop\n        /* \"#utility.yul\":15019:15438   */\n      swap2\n      swap1\n      pop\n      jump\t// out\n        /* \"#utility.yul\":15444:15614   */\n    tag_252:\n        /* \"#utility.yul\":15584:15606   */\n      0x746f6b656e20616c7265616479206d696e746564000000000000000000000000\n        /* \"#utility.yul\":15580:15581   */\n      0x00\n        /* \"#utility.yul\":15572:15578   */\n      dup3\n        /* \"#utility.yul\":15568:15582   */\n      add\n        /* \"#utility.yul\":15561:15607   */\n      mstore\n        /* \"#utility.yul\":15444:15614   */\n      pop\n      jump\t// out\n        /* \"#utility.yul\":15620:15986   */\n    tag_253:\n        /* \"#utility.yul\":15762:15765   */\n      0x00\n        /* \"#utility.yul\":15783:15850   */\n      tag_437\n        /* \"#utility.yul\":15847:15849   */\n      0x14\n        /* \"#utility.yul\":15842:15845   */\n      dup4\n        /* \"#utility.yul\":15783:15850   */\n      tag_243\n      jump\t// in\n    tag_437:\n        /* \"#utility.yul\":15776:15850   */\n      swap2\n      pop\n        /* \"#utility.yul\":15859:15952   */\n      tag_438\n        /* \"#utility.yul\":15948:15951   */\n      dup3\n        /* \"#utility.yul\":15859:15952   */\n      tag_252\n      jump\t// in\n    tag_438:\n        /* \"#utility.yul\":15977:15979   */\n      0x20\n        /* \"#utility.yul\":15972:15975   */\n      dup3\n        /* \"#utility.yul\":15968:15980   */\n      add\n        /* \"#utility.yul\":15961:15980   */\n      swap1\n      pop\n        /* \"#utility.yul\":15620:15986   */\n      swap2\n      swap1\n      pop\n      jump\t// out\n        /* \"#utility.yul\":15992:16411   */\n    tag_113:\n        /* \"#utility.yul\":16158:16162   */\n      0x00\n        /* \"#utility.yul\":16196:16198   */\n      0x20\n        /* \"#utility.yul\":16185:16194   */\n      dup3\n        /* \"#utility.yul\":16181:16199   */\n      add\n        /* \"#utility.yul\":16173:16199   */\n      swap1\n      pop\n        /* \"#utility.yul\":16245:16254   */\n      dup2\n        /* \"#utility.yul\":16239:16243   */\n      dup2\n        /* \"#utility.yul\":16235:16255   */\n      sub\n        /* \"#utility.yul\":16231:16232   */\n      0x00\n        /* \"#utility.yul\":16220:16229   */\n      dup4\n        /* \"#utility.yul\":16216:16233   */\n      add\n        /* \"#utility.yul\":16209:16256   */\n      mstore\n        /* \"#utility.yul\":16273:16404   */\n      tag_440\n        /* \"#utility.yul\":16399:16403   */\n      dup2\n        /* \"#utility.yul\":16273:16404   */\n      tag_253\n      jump\t// in\n    tag_440:\n        /* \"#utility.yul\":16265:16404   */\n      swap1\n      pop\n        /* \"#utility.yul\":15992:16411   */\n      swap2\n      swap1\n      pop\n      jump\t// out\n        /* \"#utility.yul\":16417:16597   */\n    tag_254:\n        /* \"#utility.yul\":16465:16542   */\n      0x4e487b7100000000000000000000000000000000000000000000000000000000\n        /* \"#utility.yul\":16462:16463   */\n      0x00\n        /* \"#utility.yul\":16455:16543   */\n      mstore\n        /* \"#utility.yul\":16562:16566   */\n      0x11\n        /* \"#utility.yul\":16559:16560   */\n      0x04\n        /* \"#utility.yul\":16552:16567   */\n      mstore\n        /* \"#utility.yul\":16586:16590   */\n      0x24\n        /* \"#utility.yul\":16583:16584   */\n      0x00\n        /* \"#utility.yul\":16576:16591   */\n      revert\n        /* \"#utility.yul\":16603:16794   */\n    tag_115:\n        /* \"#utility.yul\":16643:16646   */\n      0x00\n        /* \"#utility.yul\":16662:16682   */\n      tag_443\n        /* \"#utility.yul\":16680:16681   */\n      dup3\n        /* \"#utility.yul\":16662:16682   */\n      tag_217\n      jump\t// in\n    tag_443:\n        /* \"#utility.yul\":16657:16682   */\n      swap2\n      pop\n        /* \"#utility.yul\":16696:16716   */\n      tag_444\n        /* \"#utility.yul\":16714:16715   */\n      dup4\n        /* \"#utility.yul\":16696:16716   */\n      tag_217\n      jump\t// in\n    tag_444:\n        /* \"#utility.yul\":16691:16716   */\n      swap3\n      pop\n        /* \"#utility.yul\":16739:16740   */\n      dup3\n        /* \"#utility.yul\":16736:16737   */\n      dup3\n        /* \"#utility.yul\":16732:16741   */\n      add\n        /* \"#utility.yul\":16725:16741   */\n      swap1\n      pop\n        /* \"#utility.yul\":16760:16763   */\n      dup1\n        /* \"#utility.yul\":16757:16758   */\n      dup3\n        /* \"#utility.yul\":16754:16764   */\n      gt\n        /* \"#utility.yul\":16751:16787   */\n      iszero\n      tag_445\n      jumpi\n        /* \"#utility.yul\":16767:16785   */\n      tag_446\n      tag_254\n      jump\t// in\n    tag_446:\n        /* \"#utility.yul\":16751:16787   */\n    tag_445:\n        /* \"#utility.yul\":16603:16794   */\n      swap3\n      swap2\n      pop\n      pop\n      jump\t// out\n        /* \"#utility.yul\":16800:16994   */\n    tag_122:\n        /* \"#utility.yul\":16840:16844   */\n      0x00\n        /* \"#utility.yul\":16860:16880   */\n      tag_448\n        /* \"#utility.yul\":16878:16879   */\n      dup3\n        /* \"#utility.yul\":16860:16880   */\n      tag_217\n      jump\t// in\n    tag_448:\n        /* \"#utility.yul\":16855:16880   */\n      swap2\n      pop\n        /* \"#utility.yul\":16894:16914   */\n      tag_449\n        /* \"#utility.yul\":16912:16913   */\n      dup4\n        /* \"#utility.yul\":16894:16914   */\n      tag_217\n      jump\t// in\n    tag_449:\n        /* \"#utility.yul\":16889:16914   */\n      swap3\n      pop\n        /* \"#utility.yul\":16938:16939   */\n      dup3\n        /* \"#utility.yul\":16935:16936   */\n      dup3\n        /* \"#utility.yul\":16931:16940   */\n      sub\n        /* \"#utility.yul\":16923:16940   */\n      swap1\n      pop\n        /* \"#utility.yul\":16962:16963   */\n      dup2\n        /* \"#utility.yul\":16956:16960   */\n      dup2\n        /* \"#utility.yul\":16953:16964   */\n      gt\n        /* \"#utility.yul\":16950:16987   */\n      iszero\n      tag_450\n      jumpi\n        /* \"#utility.yul\":16967:16985   */\n      tag_451\n      tag_254\n      jump\t// in\n    tag_451:\n        /* \"#utility.yul\":16950:16987   */\n    tag_450:\n        /* \"#utility.yul\":16800:16994   */\n      swap3\n      swap2\n      pop\n      pop\n      jump\t// out\n        /* \"#utility.yul\":17000:17170   */\n    tag_255:\n        /* \"#utility.yul\":17140:17162   */\n      0x496e76616c6964206d65726b6c652070726f6f66000000000000000000000000\n        /* \"#utility.yul\":17136:17137   */\n      0x00\n        /* \"#utility.yul\":17128:17134   */\n      dup3\n        /* \"#utility.yul\":17124:17138   */\n      add\n        /* \"#utility.yul\":17117:17163   */\n      mstore\n        /* \"#utility.yul\":17000:17170   */\n      pop\n      jump\t// out\n        /* \"#utility.yul\":17176:17542   */\n    tag_256:\n        /* \"#utility.yul\":17318:17321   */\n      0x00\n        /* \"#utility.yul\":17339:17406   */\n      tag_454\n        /* \"#utility.yul\":17403:17405   */\n      0x14\n        /* \"#utility.yul\":17398:17401   */\n      dup4\n        /* \"#utility.yul\":17339:17406   */\n      tag_243\n      jump\t// in\n    tag_454:\n        /* \"#utility.yul\":17332:17406   */\n      swap2\n      pop\n        /* \"#utility.yul\":17415:17508   */\n      tag_455\n        /* \"#utility.yul\":17504:17507   */\n      dup3\n        /* \"#utility.yul\":17415:17508   */\n      tag_255\n      jump\t// in\n    tag_455:\n        /* \"#utility.yul\":17533:17535   */\n      0x20\n        /* \"#utility.yul\":17528:17531   */\n      dup3\n        /* \"#utility.yul\":17524:17536   */\n      add\n        /* \"#utility.yul\":17517:17536   */\n      swap1\n      pop\n        /* \"#utility.yul\":17176:17542   */\n      swap2\n      swap1\n      pop\n      jump\t// out\n        /* \"#utility.yul\":17548:17967   */\n    tag_133:\n        /* \"#utility.yul\":17714:17718   */\n      0x00\n        /* \"#utility.yul\":17752:17754   */\n      0x20\n        /* \"#utility.yul\":17741:17750   */\n      dup3\n        /* \"#utility.yul\":17737:17755   */\n      add\n        /* \"#utility.yul\":17729:17755   */\n      swap1\n      pop\n        /* \"#utility.yul\":17801:17810   */\n      dup2\n        /* \"#utility.yul\":17795:17799   */\n      dup2\n        /* \"#utility.yul\":17791:17811   */\n      sub\n        /* \"#utility.yul\":17787:17788   */\n      0x00\n        /* \"#utility.yul\":17776:17785   */\n      dup4\n        /* \"#utility.yul\":17772:17789   */\n      add\n        /* \"#utility.yul\":17765:17812   */\n      mstore\n        /* \"#utility.yul\":17829:17960   */\n      tag_457\n        /* \"#utility.yul\":17955:17959   */\n      dup2\n        /* \"#utility.yul\":17829:17960   */\n      tag_256\n      jump\t// in\n    tag_457:\n        /* \"#utility.yul\":17821:17960   */\n      swap1\n      pop\n        /* \"#utility.yul\":17548:17967   */\n      swap2\n      swap1\n      pop\n      jump\t// out\n        /* \"#utility.yul\":17973:18138   */\n    tag_257:\n        /* \"#utility.yul\":18113:18130   */\n      0x416c7265616479206d696e746564210000000000000000000000000000000000\n        /* \"#utility.yul\":18109:18110   */\n      0x00\n        /* \"#utility.yul\":18101:18107   */\n      dup3\n        /* \"#utility.yul\":18097:18111   */\n      add\n        /* \"#utility.yul\":18090:18131   */\n      mstore\n        /* \"#utility.yul\":17973:18138   */\n      pop\n      jump\t// out\n        /* \"#utility.yul\":18144:18510   */\n    tag_258:\n        /* \"#utility.yul\":18286:18289   */\n      0x00\n        /* \"#utility.yul\":18307:18374   */\n      tag_460\n        /* \"#utility.yul\":18371:18373   */\n      0x0f\n        /* \"#utility.yul\":18366:18369   */\n      dup4\n        /* \"#utility.yul\":18307:18374   */\n      tag_243\n      jump\t// in\n    tag_460:\n        /* \"#utility.yul\":18300:18374   */\n      swap2\n      pop\n        /* \"#utility.yul\":18383:18476   */\n      tag_461\n        /* \"#utility.yul\":18472:18475   */\n      dup3\n        /* \"#utility.yul\":18383:18476   */\n      tag_257\n      jump\t// in\n    tag_461:\n        /* \"#utility.yul\":18501:18503   */\n      0x20\n        /* \"#utility.yul\":18496:18499   */\n      dup3\n        /* \"#utility.yul\":18492:18504   */\n      add\n        /* \"#utility.yul\":18485:18504   */\n      swap1\n      pop\n        /* \"#utility.yul\":18144:18510   */\n      swap2\n      swap1\n      pop\n      jump\t// out\n        /* \"#utility.yul\":18516:18935   */\n    tag_136:\n        /* \"#utility.yul\":18682:18686   */\n      0x00\n        /* \"#utility.yul\":18720:18722   */\n      0x20\n        /* \"#utility.yul\":18709:18718   */\n      dup3\n        /* \"#utility.yul\":18705:18723   */\n      add\n        /* \"#utility.yul\":18697:18723   */\n      swap1\n      pop\n        /* \"#utility.yul\":18769:18778   */\n      dup2\n        /* \"#utility.yul\":18763:18767   */\n      dup2\n        /* \"#utility.yul\":18759:18779   */\n      sub\n        /* \"#utility.yul\":18755:18756   */\n      0x00\n        /* \"#utility.yul\":18744:18753   */\n      dup4\n        /* \"#utility.yul\":18740:18757   */\n      add\n        /* \"#utility.yul\":18733:18780   */\n      mstore\n        /* \"#utility.yul\":18797:18928   */\n      tag_463\n        /* \"#utility.yul\":18923:18927   */\n      dup2\n        /* \"#utility.yul\":18797:18928   */\n      tag_258\n      jump\t// in\n    tag_463:\n        /* \"#utility.yul\":18789:18928   */\n      swap1\n      pop\n        /* \"#utility.yul\":18516:18935   */\n      swap2\n      swap1\n      pop\n      jump\t// out\n        /* \"#utility.yul\":18941:19111   */\n    tag_259:\n        /* \"#utility.yul\":19081:19103   */\n      0x6f776e6572203d207a65726f2061646472657373000000000000000000000000\n        /* \"#utility.yul\":19077:19078   */\n      0x00\n        /* \"#utility.yul\":19069:19075   */\n      dup3\n        /* \"#utility.yul\":19065:19079   */\n      add\n        /* \"#utility.yul\":19058:19104   */\n      mstore\n        /* \"#utility.yul\":18941:19111   */\n      pop\n      jump\t// out\n        /* \"#utility.yul\":19117:19483   */\n    tag_260:\n        /* \"#utility.yul\":19259:19262   */\n      0x00\n        /* \"#utility.yul\":19280:19347   */\n      tag_466\n        /* \"#utility.yul\":19344:19346   */\n      0x14\n        /* \"#utility.yul\":19339:19342   */\n      dup4\n        /* \"#utility.yul\":19280:19347   */\n      tag_243\n      jump\t// in\n    tag_466:\n        /* \"#utility.yul\":19273:19347   */\n      swap2\n      pop\n        /* \"#utility.yul\":19356:19449   */\n      tag_467\n        /* \"#utility.yul\":19445:19448   */\n      dup3\n        /* \"#utility.yul\":19356:19449   */\n      tag_259\n      jump\t// in\n    tag_467:\n        /* \"#utility.yul\":19474:19476   */\n      0x20\n        /* \"#utility.yul\":19469:19472   */\n      dup3\n        /* \"#utility.yul\":19465:19477   */\n      add\n        /* \"#utility.yul\":19458:19477   */\n      swap1\n      pop\n        /* \"#utility.yul\":19117:19483   */\n      swap2\n      swap1\n      pop\n      jump\t// out\n        /* \"#utility.yul\":19489:19908   */\n    tag_141:\n        /* \"#utility.yul\":19655:19659   */\n      0x00\n        /* \"#utility.yul\":19693:19695   */\n      0x20\n        /* \"#utility.yul\":19682:19691   */\n      dup3\n        /* \"#utility.yul\":19678:19696   */\n      add\n        /* \"#utility.yul\":19670:19696   */\n      swap1\n      pop\n        /* \"#utility.yul\":19742:19751   */\n      dup2\n        /* \"#utility.yul\":19736:19740   */\n      dup2\n        /* \"#utility.yul\":19732:19752   */\n      sub\n        /* \"#utility.yul\":19728:19729   */\n      0x00\n        /* \"#utility.yul\":19717:19726   */\n      dup4\n        /* \"#utility.yul\":19713:19730   */\n      add\n        /* \"#utility.yul\":19706:19753   */\n      mstore\n        /* \"#utility.yul\":19770:19901   */\n      tag_469\n        /* \"#utility.yul\":19896:19900   */\n      dup2\n        /* \"#utility.yul\":19770:19901   */\n      tag_260\n      jump\t// in\n    tag_469:\n        /* \"#utility.yul\":19762:19901   */\n      swap1\n      pop\n        /* \"#utility.yul\":19489:19908   */\n      swap2\n      swap1\n      pop\n      jump\t// out\n        /* \"#utility.yul\":19914:20073   */\n    tag_261:\n        /* \"#utility.yul\":20054:20065   */\n      0x6e6f74206f776e65720000000000000000000000000000000000000000000000\n        /* \"#utility.yul\":20050:20051   */\n      0x00\n        /* \"#utility.yul\":20042:20048   */\n      dup3\n        /* \"#utility.yul\":20038:20052   */\n      add\n        /* \"#utility.yul\":20031:20066   */\n      mstore\n        /* \"#utility.yul\":19914:20073   */\n      pop\n      jump\t// out\n        /* \"#utility.yul\":20079:20444   */\n    tag_262:\n        /* \"#utility.yul\":20221:20224   */\n      0x00\n        /* \"#utility.yul\":20242:20308   */\n      tag_472\n        /* \"#utility.yul\":20306:20307   */\n      0x09\n        /* \"#utility.yul\":20301:20304   */\n      dup4\n        /* \"#utility.yul\":20242:20308   */\n      tag_243\n      jump\t// in\n    tag_472:\n        /* \"#utility.yul\":20235:20308   */\n      swap2\n      pop\n        /* \"#utility.yul\":20317:20410   */\n      tag_473\n        /* \"#utility.yul\":20406:20409   */\n      dup3\n        /* \"#utility.yul\":20317:20410   */\n      tag_261\n      jump\t// in\n    tag_473:\n        /* \"#utility.yul\":20435:20437   */\n      0x20\n        /* \"#utility.yul\":20430:20433   */\n      dup3\n        /* \"#utility.yul\":20426:20438   */\n      add\n        /* \"#utility.yul\":20419:20438   */\n      swap1\n      pop\n        /* \"#utility.yul\":20079:20444   */\n      swap2\n      swap1\n      pop\n      jump\t// out\n        /* \"#utility.yul\":20450:20869   */\n    tag_159:\n        /* \"#utility.yul\":20616:20620   */\n      0x00\n        /* \"#utility.yul\":20654:20656   */\n      0x20\n        /* \"#utility.yul\":20643:20652   */\n      dup3\n        /* \"#utility.yul\":20639:20657   */\n      add\n        /* \"#utility.yul\":20631:20657   */\n      swap1\n      pop\n        /* \"#utility.yul\":20703:20712   */\n      dup2\n        /* \"#utility.yul\":20697:20701   */\n      dup2\n        /* \"#utility.yul\":20693:20713   */\n      sub\n        /* \"#utility.yul\":20689:20690   */\n      0x00\n        /* \"#utility.yul\":20678:20687   */\n      dup4\n        /* \"#utility.yul\":20674:20691   */\n      add\n        /* \"#utility.yul\":20667:20714   */\n      mstore\n        /* \"#utility.yul\":20731:20862   */\n      tag_475\n        /* \"#utility.yul\":20857:20861   */\n      dup2\n        /* \"#utility.yul\":20731:20862   */\n      tag_262\n      jump\t// in\n    tag_475:\n        /* \"#utility.yul\":20723:20862   */\n      swap1\n      pop\n        /* \"#utility.yul\":20450:20869   */\n      swap2\n      swap1\n      pop\n      jump\t// out\n        /* \"#utility.yul\":20875:21053   */\n    tag_263:\n        /* \"#utility.yul\":21015:21045   */\n      0x7472616e7366657220746f20746865207a65726f206164647265737300000000\n        /* \"#utility.yul\":21011:21012   */\n      0x00\n        /* \"#utility.yul\":21003:21009   */\n      dup3\n        /* \"#utility.yul\":20999:21013   */\n      add\n        /* \"#utility.yul\":20992:21046   */\n      mstore\n        /* \"#utility.yul\":20875:21053   */\n      pop\n      jump\t// out\n        /* \"#utility.yul\":21059:21425   */\n    tag_264:\n        /* \"#utility.yul\":21201:21204   */\n      0x00\n        /* \"#utility.yul\":21222:21289   */\n      tag_478\n        /* \"#utility.yul\":21286:21288   */\n      0x1c\n        /* \"#utility.yul\":21281:21284   */\n      dup4\n        /* \"#utility.yul\":21222:21289   */\n      tag_243\n      jump\t// in\n    tag_478:\n        /* \"#utility.yul\":21215:21289   */\n      swap2\n      pop\n        /* \"#utility.yul\":21298:21391   */\n      tag_479\n        /* \"#utility.yul\":21387:21390   */\n      dup3\n        /* \"#utility.yul\":21298:21391   */\n      tag_263\n      jump\t// in\n    tag_479:\n        /* \"#utility.yul\":21416:21418   */\n      0x20\n        /* \"#utility.yul\":21411:21414   */\n      dup3\n        /* \"#utility.yul\":21407:21419   */\n      add\n        /* \"#utility.yul\":21400:21419   */\n      swap1\n      pop\n        /* \"#utility.yul\":21059:21425   */\n      swap2\n      swap1\n      pop\n      jump\t// out\n        /* \"#utility.yul\":21431:21850   */\n    tag_162:\n        /* \"#utility.yul\":21597:21601   */\n      0x00\n        /* \"#utility.yul\":21635:21637   */\n      0x20\n        /* \"#utility.yul\":21624:21633   */\n      dup3\n        /* \"#utility.yul\":21620:21638   */\n      add\n        /* \"#utility.yul\":21612:21638   */\n      swap1\n      pop\n        /* \"#utility.yul\":21684:21693   */\n      dup2\n        /* \"#utility.yul\":21678:21682   */\n      dup2\n        /* \"#utility.yul\":21674:21694   */\n      sub\n        /* \"#utility.yul\":21670:21671   */\n      0x00\n        /* \"#utility.yul\":21659:21668   */\n      dup4\n        /* \"#utility.yul\":21655:21672   */\n      add\n        /* \"#utility.yul\":21648:21695   */\n      mstore\n        /* \"#utility.yul\":21712:21843   */\n      tag_481\n        /* \"#utility.yul\":21838:21842   */\n      dup2\n        /* \"#utility.yul\":21712:21843   */\n      tag_264\n      jump\t// in\n    tag_481:\n        /* \"#utility.yul\":21704:21843   */\n      swap1\n      pop\n        /* \"#utility.yul\":21431:21850   */\n      swap2\n      swap1\n      pop\n      jump\t// out\n        /* \"#utility.yul\":21856:21950   */\n    tag_265:\n        /* \"#utility.yul\":21889:21897   */\n      0x00\n        /* \"#utility.yul\":21937:21942   */\n      dup2\n        /* \"#utility.yul\":21933:21935   */\n      0x60\n        /* \"#utility.yul\":21929:21943   */\n      shl\n        /* \"#utility.yul\":21908:21943   */\n      swap1\n      pop\n        /* \"#utility.yul\":21856:21950   */\n      swap2\n      swap1\n      pop\n      jump\t// out\n        /* \"#utility.yul\":21956:22050   */\n    tag_266:\n        /* \"#utility.yul\":21995:22002   */\n      0x00\n        /* \"#utility.yul\":22024:22044   */\n      tag_484\n        /* \"#utility.yul\":22038:22043   */\n      dup3\n        /* \"#utility.yul\":22024:22044   */\n      tag_265\n      jump\t// in\n    tag_484:\n        /* \"#utility.yul\":22013:22044   */\n      swap1\n      pop\n        /* \"#utility.yul\":21956:22050   */\n      swap2\n      swap1\n      pop\n      jump\t// out\n        /* \"#utility.yul\":22056:22156   */\n    tag_267:\n        /* \"#utility.yul\":22095:22102   */\n      0x00\n        /* \"#utility.yul\":22124:22150   */\n      tag_486\n        /* \"#utility.yul\":22144:22149   */\n      dup3\n        /* \"#utility.yul\":22124:22150   */\n      tag_266\n      jump\t// in\n    tag_486:\n        /* \"#utility.yul\":22113:22150   */\n      swap1\n      pop\n        /* \"#utility.yul\":22056:22156   */\n      swap2\n      swap1\n      pop\n      jump\t// out\n        /* \"#utility.yul\":22162:22319   */\n    tag_268:\n        /* \"#utility.yul\":22267:22312   */\n      tag_488\n        /* \"#utility.yul\":22287:22311   */\n      tag_489\n        /* \"#utility.yul\":22305:22310   */\n      dup3\n        /* \"#utility.yul\":22287:22311   */\n      tag_221\n      jump\t// in\n    tag_489:\n        /* \"#utility.yul\":22267:22312   */\n      tag_267\n      jump\t// in\n    tag_488:\n        /* \"#utility.yul\":22262:22265   */\n      dup3\n        /* \"#utility.yul\":22255:22313   */\n      mstore\n        /* \"#utility.yul\":22162:22319   */\n      pop\n      pop\n      jump\t// out\n        /* \"#utility.yul\":22325:22581   */\n    tag_168:\n        /* \"#utility.yul\":22437:22440   */\n      0x00\n        /* \"#utility.yul\":22452:22527   */\n      tag_491\n        /* \"#utility.yul\":22523:22526   */\n      dup3\n        /* \"#utility.yul\":22514:22520   */\n      dup5\n        /* \"#utility.yul\":22452:22527   */\n      tag_268\n      jump\t// in\n    tag_491:\n        /* \"#utility.yul\":22552:22554   */\n      0x14\n        /* \"#utility.yul\":22547:22550   */\n      dup3\n        /* \"#utility.yul\":22543:22555   */\n      add\n        /* \"#utility.yul\":22536:22555   */\n      swap2\n      pop\n        /* \"#utility.yul\":22572:22575   */\n      dup2\n        /* \"#utility.yul\":22565:22575   */\n      swap1\n      pop\n        /* \"#utility.yul\":22325:22581   */\n      swap3\n      swap2\n      pop\n      pop\n      jump\t// out\n        /* \"#utility.yul\":22587:22755   */\n    tag_269:\n        /* \"#utility.yul\":22727:22747   */\n      0x6e6f742045524337323152656365697665720000000000000000000000000000\n        /* \"#utility.yul\":22723:22724   */\n      0x00\n        /* \"#utility.yul\":22715:22721   */\n      dup3\n        /* \"#utility.yul\":22711:22725   */\n      add\n        /* \"#utility.yul\":22704:22748   */\n      mstore\n        /* \"#utility.yul\":22587:22755   */\n      pop\n      jump\t// out\n        /* \"#utility.yul\":22761:23127   */\n    tag_270:\n        /* \"#utility.yul\":22903:22906   */\n      0x00\n        /* \"#utility.yul\":22924:22991   */\n      tag_494\n        /* \"#utility.yul\":22988:22990   */\n      0x12\n        /* \"#utility.yul\":22983:22986   */\n      dup4\n        /* \"#utility.yul\":22924:22991   */\n      tag_243\n      jump\t// in\n    tag_494:\n        /* \"#utility.yul\":22917:22991   */\n      swap2\n      pop\n        /* \"#utility.yul\":23000:23093   */\n      tag_495\n        /* \"#utility.yul\":23089:23092   */\n      dup3\n        /* \"#utility.yul\":23000:23093   */\n      tag_269\n      jump\t// in\n    tag_495:\n        /* \"#utility.yul\":23118:23120   */\n      0x20\n        /* \"#utility.yul\":23113:23116   */\n      dup3\n        /* \"#utility.yul\":23109:23121   */\n      add\n        /* \"#utility.yul\":23102:23121   */\n      swap1\n      pop\n        /* \"#utility.yul\":22761:23127   */\n      swap2\n      swap1\n      pop\n      jump\t// out\n        /* \"#utility.yul\":23133:23552   */\n    tag_178:\n        /* \"#utility.yul\":23299:23303   */\n      0x00\n        /* \"#utility.yul\":23337:23339   */\n      0x20\n        /* \"#utility.yul\":23326:23335   */\n      dup3\n        /* \"#utility.yul\":23322:23340   */\n      add\n        /* \"#utility.yul\":23314:23340   */\n      swap1\n      pop\n        /* \"#utility.yul\":23386:23395   */\n      dup2\n        /* \"#utility.yul\":23380:23384   */\n      dup2\n        /* \"#utility.yul\":23376:23396   */\n      sub\n        /* \"#utility.yul\":23372:23373   */\n      0x00\n        /* \"#utility.yul\":23361:23370   */\n      dup4\n        /* \"#utility.yul\":23357:23374   */\n      add\n        /* \"#utility.yul\":23350:23397   */\n      mstore\n        /* \"#utility.yul\":23414:23545   */\n      tag_497\n        /* \"#utility.yul\":23540:23544   */\n      dup2\n        /* \"#utility.yul\":23414:23545   */\n      tag_270\n      jump\t// in\n    tag_497:\n        /* \"#utility.yul\":23406:23545   */\n      swap1\n      pop\n        /* \"#utility.yul\":23133:23552   */\n      swap2\n      swap1\n      pop\n      jump\t// out\n        /* \"#utility.yul\":23558:23656   */\n    tag_271:\n        /* \"#utility.yul\":23609:23615   */\n      0x00\n        /* \"#utility.yul\":23643:23648   */\n      dup2\n        /* \"#utility.yul\":23637:23649   */\n      mload\n        /* \"#utility.yul\":23627:23649   */\n      swap1\n      pop\n        /* \"#utility.yul\":23558:23656   */\n      swap2\n      swap1\n      pop\n      jump\t// out\n        /* \"#utility.yul\":23662:23830   */\n    tag_272:\n        /* \"#utility.yul\":23745:23756   */\n      0x00\n        /* \"#utility.yul\":23779:23785   */\n      dup3\n        /* \"#utility.yul\":23774:23777   */\n      dup3\n        /* \"#utility.yul\":23767:23786   */\n      mstore\n        /* \"#utility.yul\":23819:23823   */\n      0x20\n        /* \"#utility.yul\":23814:23817   */\n      dup3\n        /* \"#utility.yul\":23810:23824   */\n      add\n        /* \"#utility.yul\":23795:23824   */\n      swap1\n      pop\n        /* \"#utility.yul\":23662:23830   */\n      swap3\n      swap2\n      pop\n      pop\n      jump\t// out\n        /* \"#utility.yul\":23836:23975   */\n    tag_273:\n        /* \"#utility.yul\":23925:23931   */\n      dup3\n        /* \"#utility.yul\":23920:23923   */\n      dup2\n        /* \"#utility.yul\":23915:23918   */\n      dup4\n        /* \"#utility.yul\":23909:23932   */\n      mcopy\n        /* \"#utility.yul\":23966:23967   */\n      0x00\n        /* \"#utility.yul\":23957:23963   */\n      dup4\n        /* \"#utility.yul\":23952:23955   */\n      dup4\n        /* \"#utility.yul\":23948:23964   */\n      add\n        /* \"#utility.yul\":23941:23968   */\n      mstore\n        /* \"#utility.yul\":23836:23975   */\n      pop\n      pop\n      pop\n      jump\t// out\n        /* \"#utility.yul\":23981:24354   */\n    tag_274:\n        /* \"#utility.yul\":24067:24070   */\n      0x00\n        /* \"#utility.yul\":24095:24133   */\n      tag_502\n        /* \"#utility.yul\":24127:24132   */\n      dup3\n        /* \"#utility.yul\":24095:24133   */\n      tag_271\n      jump\t// in\n    tag_502:\n        /* \"#utility.yul\":24149:24219   */\n      tag_503\n        /* \"#utility.yul\":24212:24218   */\n      dup2\n        /* \"#utility.yul\":24207:24210   */\n      dup6\n        /* \"#utility.yul\":24149:24219   */\n      tag_272\n      jump\t// in\n    tag_503:\n        /* \"#utility.yul\":24142:24219   */\n      swap4\n      pop\n        /* \"#utility.yul\":24228:24293   */\n      tag_504\n        /* \"#utility.yul\":24286:24292   */\n      dup2\n        /* \"#utility.yul\":24281:24284   */\n      dup6\n        /* \"#utility.yul\":24274:24278   */\n      0x20\n        /* \"#utility.yul\":24267:24272   */\n      dup7\n        /* \"#utility.yul\":24263:24279   */\n      add\n        /* \"#utility.yul\":24228:24293   */\n      tag_273\n      jump\t// in\n    tag_504:\n        /* \"#utility.yul\":24318:24347   */\n      tag_505\n        /* \"#utility.yul\":24340:24346   */\n      dup2\n        /* \"#utility.yul\":24318:24347   */\n      tag_233\n      jump\t// in\n    tag_505:\n        /* \"#utility.yul\":24313:24316   */\n      dup5\n        /* \"#utility.yul\":24309:24348   */\n      add\n        /* \"#utility.yul\":24302:24348   */\n      swap2\n      pop\n        /* \"#utility.yul\":24071:24354   */\n      pop\n        /* \"#utility.yul\":23981:24354   */\n      swap3\n      swap2\n      pop\n      pop\n      jump\t// out\n        /* \"#utility.yul\":24360:25000   */\n    tag_187:\n        /* \"#utility.yul\":24555:24559   */\n      0x00\n        /* \"#utility.yul\":24593:24596   */\n      0x80\n        /* \"#utility.yul\":24582:24591   */\n      dup3\n        /* \"#utility.yul\":24578:24597   */\n      add\n        /* \"#utility.yul\":24570:24597   */\n      swap1\n      pop\n        /* \"#utility.yul\":24607:24678   */\n      tag_507\n        /* \"#utility.yul\":24675:24676   */\n      0x00\n        /* \"#utility.yul\":24664:24673   */\n      dup4\n        /* \"#utility.yul\":24660:24677   */\n      add\n        /* \"#utility.yul\":24651:24657   */\n      dup8\n        /* \"#utility.yul\":24607:24678   */\n      tag_222\n      jump\t// in\n    tag_507:\n        /* \"#utility.yul\":24688:24760   */\n      tag_508\n        /* \"#utility.yul\":24756:24758   */\n      0x20\n        /* \"#utility.yul\":24745:24754   */\n      dup4\n        /* \"#utility.yul\":24741:24759   */\n      add\n        /* \"#utility.yul\":24732:24738   */\n      dup7\n        /* \"#utility.yul\":24688:24760   */\n      tag_222\n      jump\t// in\n    tag_508:\n        /* \"#utility.yul\":24770:24842   */\n      tag_509\n        /* \"#utility.yul\":24838:24840   */\n      0x40\n        /* \"#utility.yul\":24827:24836   */\n      dup4\n        /* \"#utility.yul\":24823:24841   */\n      add\n        /* \"#utility.yul\":24814:24820   */\n      dup6\n        /* \"#utility.yul\":24770:24842   */\n      tag_229\n      jump\t// in\n    tag_509:\n        /* \"#utility.yul\":24889:24898   */\n      dup2\n        /* \"#utility.yul\":24883:24887   */\n      dup2\n        /* \"#utility.yul\":24879:24899   */\n      sub\n        /* \"#utility.yul\":24874:24876   */\n      0x60\n        /* \"#utility.yul\":24863:24872   */\n      dup4\n        /* \"#utility.yul\":24859:24877   */\n      add\n        /* \"#utility.yul\":24852:24900   */\n      mstore\n        /* \"#utility.yul\":24917:24993   */\n      tag_510\n        /* \"#utility.yul\":24988:24992   */\n      dup2\n        /* \"#utility.yul\":24979:24985   */\n      dup5\n        /* \"#utility.yul\":24917:24993   */\n      tag_274\n      jump\t// in\n    tag_510:\n        /* \"#utility.yul\":24909:24993   */\n      swap1\n      pop\n        /* \"#utility.yul\":24360:25000   */\n      swap6\n      swap5\n      pop\n      pop\n      pop\n      pop\n      pop\n      jump\t// out\n        /* \"#utility.yul\":25006:25147   */\n    tag_275:\n        /* \"#utility.yul\":25062:25067   */\n      0x00\n        /* \"#utility.yul\":25093:25099   */\n      dup2\n        /* \"#utility.yul\":25087:25100   */\n      mload\n        /* \"#utility.yul\":25078:25100   */\n      swap1\n      pop\n        /* \"#utility.yul\":25109:25141   */\n      tag_512\n        /* \"#utility.yul\":25135:25140   */\n      dup2\n        /* \"#utility.yul\":25109:25141   */\n      tag_213\n      jump\t// in\n    tag_512:\n        /* \"#utility.yul\":25006:25147   */\n      swap3\n      swap2\n      pop\n      pop\n      jump\t// out\n        /* \"#utility.yul\":25153:25502   */\n    tag_191:\n        /* \"#utility.yul\":25222:25228   */\n      0x00\n        /* \"#utility.yul\":25271:25273   */\n      0x20\n        /* \"#utility.yul\":25259:25268   */\n      dup3\n        /* \"#utility.yul\":25250:25257   */\n      dup5\n        /* \"#utility.yul\":25246:25269   */\n      sub\n        /* \"#utility.yul\":25242:25274   */\n      slt\n        /* \"#utility.yul\":25239:25358   */\n      iszero\n      tag_514\n      jumpi\n        /* \"#utility.yul\":25277:25356   */\n      tag_515\n      tag_210\n      jump\t// in\n    tag_515:\n        /* \"#utility.yul\":25239:25358   */\n    tag_514:\n        /* \"#utility.yul\":25397:25398   */\n      0x00\n        /* \"#utility.yul\":25422:25485   */\n      tag_516\n        /* \"#utility.yul\":25477:25484   */\n      dup5\n        /* \"#utility.yul\":25468:25474   */\n      dup3\n        /* \"#utility.yul\":25457:25466   */\n      dup6\n        /* \"#utility.yul\":25453:25475   */\n      add\n        /* \"#utility.yul\":25422:25485   */\n      tag_275\n      jump\t// in\n    tag_516:\n        /* \"#utility.yul\":25412:25485   */\n      swap2\n      pop\n        /* \"#utility.yul\":25368:25495   */\n      pop\n        /* \"#utility.yul\":25153:25502   */\n      swap3\n      swap2\n      pop\n      pop\n      jump\t// out\n        /* \"#utility.yul\":25508:25688   */\n    tag_200:\n        /* \"#utility.yul\":25556:25633   */\n      0x4e487b7100000000000000000000000000000000000000000000000000000000\n        /* \"#utility.yul\":25553:25554   */\n      0x00\n        /* \"#utility.yul\":25546:25634   */\n      mstore\n        /* \"#utility.yul\":25653:25657   */\n      0x32\n        /* \"#utility.yul\":25650:25651   */\n      0x04\n        /* \"#utility.yul\":25643:25658   */\n      mstore\n        /* \"#utility.yul\":25677:25681   */\n      0x24\n        /* \"#utility.yul\":25674:25675   */\n      0x00\n        /* \"#utility.yul\":25667:25682   */\n      revert\n        /* \"#utility.yul\":25694:25773   */\n    tag_276:\n        /* \"#utility.yul\":25733:25740   */\n      0x00\n        /* \"#utility.yul\":25762:25767   */\n      dup2\n        /* \"#utility.yul\":25751:25767   */\n      swap1\n      pop\n        /* \"#utility.yul\":25694:25773   */\n      swap2\n      swap1\n      pop\n      jump\t// out\n        /* \"#utility.yul\":25779:25936   */\n    tag_277:\n        /* \"#utility.yul\":25884:25929   */\n      tag_520\n        /* \"#utility.yul\":25904:25928   */\n      tag_521\n        /* \"#utility.yul\":25922:25927   */\n      dup3\n        /* \"#utility.yul\":25904:25928   */\n      tag_241\n      jump\t// in\n    tag_521:\n        /* \"#utility.yul\":25884:25929   */\n      tag_276\n      jump\t// in\n    tag_520:\n        /* \"#utility.yul\":25879:25882   */\n      dup3\n        /* \"#utility.yul\":25872:25930   */\n      mstore\n        /* \"#utility.yul\":25779:25936   */\n      pop\n      pop\n      jump\t// out\n        /* \"#utility.yul\":25942:26339   */\n    tag_206:\n        /* \"#utility.yul\":26082:26085   */\n      0x00\n        /* \"#utility.yul\":26097:26172   */\n      tag_523\n        /* \"#utility.yul\":26168:26171   */\n      dup3\n        /* \"#utility.yul\":26159:26165   */\n      dup6\n        /* \"#utility.yul\":26097:26172   */\n      tag_277\n      jump\t// in\n    tag_523:\n        /* \"#utility.yul\":26197:26199   */\n      0x20\n        /* \"#utility.yul\":26192:26195   */\n      dup3\n        /* \"#utility.yul\":26188:26200   */\n      add\n        /* \"#utility.yul\":26181:26200   */\n      swap2\n      pop\n        /* \"#utility.yul\":26210:26285   */\n      tag_524\n        /* \"#utility.yul\":26281:26284   */\n      dup3\n        /* \"#utility.yul\":26272:26278   */\n      dup5\n        /* \"#utility.yul\":26210:26285   */\n      tag_277\n      jump\t// in\n    tag_524:\n        /* \"#utility.yul\":26310:26312   */\n      0x20\n        /* \"#utility.yul\":26305:26308   */\n      dup3\n        /* \"#utility.yul\":26301:26313   */\n      add\n        /* \"#utility.yul\":26294:26313   */\n      swap2\n      pop\n        /* \"#utility.yul\":26330:26333   */\n      dup2\n        /* \"#utility.yul\":26323:26333   */\n      swap1\n      pop\n        /* \"#utility.yul\":25942:26339   */\n      swap4\n      swap3\n      pop\n      pop\n      pop\n      jump\t// out\n\n    auxdata: 0xa2646970667358221220844dfb049ccab5048cb6970cbbdf0a499f0f2d9dd195cd975a3368f4d657e43364736f6c634300081a0033\n}\n",
				"bytecode": {
					"linkReferences": {},
					"object": "60a0604052348015600e575f80fd5b506040516122ed3803806122ed8339818101604052810190602e9190606d565b8060808181525050506093565b5f80fd5b5f819050919050565b604f81603f565b81146058575f80fd5b50565b5f815190506067816048565b92915050565b5f60208284031215607f57607e603b565b5b5f608a84828501605b565b91505092915050565b60805161223b6100b25f395f8181610e6f01526112dd015261223b5ff3fe608060405234801561000f575f80fd5b50600436106100f3575f3560e01c8063630303c611610095578063a22cb46511610064578063a22cb4651461028f578063b88d4fde146102ab578063e985e9c5146102c7578063ebf0c717146102f7576100f3565b8063630303c6146101e35780636352211e14610213578063641ce1401461024357806370a082311461025f576100f3565b806323b872dd116100d157806323b872dd1461017357806340c10f191461018f57806342842e0e146101ab57806342966c68146101c7576100f3565b806301ffc9a7146100f7578063081812fc14610127578063095ea7b314610157575b5f80fd5b610111600480360381019061010c91906115aa565b610315565b60405161011e91906115ef565b60405180910390f35b610141600480360381019061013c919061163b565b6103e6565b60405161014e91906116a5565b60405180910390f35b610171600480360381019061016c91906116e8565b6104bc565b005b61018d60048036038101906101889190611726565b6105f9565b005b6101a960048036038101906101a491906116e8565b610661565b005b6101c560048036038101906101c09190611726565b61086c565b005b6101e160048036038101906101dc919061163b565b61088b565b005b6101fd60048036038101906101f89190611776565b610986565b60405161020a91906115ef565b60405180910390f35b61022d6004803603810190610228919061163b565b6109a3565b60405161023a91906116a5565b60405180910390f35b61025d60048036038101906102589190611802565b610a49565b005b61027960048036038101906102749190611776565b610bc9565b6040516102869190611882565b60405180910390f35b6102a960048036038101906102a491906118c5565b610c7d565b005b6102c560048036038101906102c09190611a3b565b610d75565b005b6102e160048036038101906102dc9190611abb565b610ddf565b6040516102ee91906115ef565b60405180910390f35b6102ff610e6d565b60405161030c9190611b11565b60405180910390f35b5f7f80ac58cd000000000000000000000000000000000000000000000000000000007bffffffffffffffffffffffffffffffffffffffffffffffffffffffff1916827bffffffffffffffffffffffffffffffffffffffffffffffffffffffff191614806103df57507f01ffc9a7000000000000000000000000000000000000000000000000000000007bffffffffffffffffffffffffffffffffffffffffffffffffffffffff1916827bffffffffffffffffffffffffffffffffffffffffffffffffffffffff1916145b9050919050565b5f8073ffffffffffffffffffffffffffffffffffffffff165f808481526020019081526020015f205f9054906101000a900473ffffffffffffffffffffffffffffffffffffffff1673ffffffffffffffffffffffffffffffffffffffff1603610484576040517f08c379a000000000000000000000000000000000000000000000000000000000815260040161047b90611b84565b60405180910390fd5b60025f8381526020019081526020015f205f9054906101000a900473ffffffffffffffffffffffffffffffffffffffff169050919050565b5f805f8381526020019081526020015f205f9054906101000a900473ffffffffffffffffffffffffffffffffffffffff1690508073ffffffffffffffffffffffffffffffffffffffff163373ffffffffffffffffffffffffffffffffffffffff1614806105aa575060035f8273ffffffffffffffffffffffffffffffffffffffff1673ffffffffffffffffffffffffffffffffffffffff1681526020019081526020015f205f3373ffffffffffffffffffffffffffffffffffffffff1673ffffffffffffffffffffffffffffffffffffffff1681526020019081526020015f205f9054906101000a900460ff165b6105e9576040517f08c379a00000000000000000000000000000000000000000000000000000000081526004016105e090611bec565b60405180910390fd5b6105f4818484610e91565b505050565b5f610603826109a3565b9050610610813384610f40565b61064f576040517f08c379a000000000000000000000000000000000000000000000000000000000815260040161064690611c54565b60405180910390fd5b61065b8185858561106b565b50505050565b5f73ffffffffffffffffffffffffffffffffffffffff168273ffffffffffffffffffffffffffffffffffffffff16036106cf576040517f08c379a00000000000000000000000000000000000000000000000000000000081526004016106c690611cbc565b60405180910390fd5b5f73ffffffffffffffffffffffffffffffffffffffff165f808381526020019081526020015f205f9054906101000a900473ffffffffffffffffffffffffffffffffffffffff1673ffffffffffffffffffffffffffffffffffffffff161461076c576040517f08c379a000000000000000000000000000000000000000000000000000000000815260040161076390611d24565b60405180910390fd5b6001805f8473ffffffffffffffffffffffffffffffffffffffff1673ffffffffffffffffffffffffffffffffffffffff1681526020019081526020015f205f8282546107b89190611d6f565b92505081905550815f808381526020019081526020015f205f6101000a81548173ffffffffffffffffffffffffffffffffffffffff021916908373ffffffffffffffffffffffffffffffffffffffff160217905550808273ffffffffffffffffffffffffffffffffffffffff165f73ffffffffffffffffffffffffffffffffffffffff167fddf252ad1be2c89b69c2b068fc378daa952ba7f163c4a11628f55a4df523b3ef60405160405180910390a45050565b61088683838360405180602001604052805f815250610d75565b505050565b5f610895826109a3565b90506108a2815f84610e91565b6001805f8373ffffffffffffffffffffffffffffffffffffffff1673ffffffffffffffffffffffffffffffffffffffff1681526020019081526020015f205f8282546108ee9190611da2565b925050819055505f808381526020019081526020015f205f6101000a81549073ffffffffffffffffffffffffffffffffffffffff0219169055815f73ffffffffffffffffffffffffffffffffffffffff168273ffffffffffffffffffffffffffffffffffffffff167fddf252ad1be2c89b69c2b068fc378daa952ba7f163c4a11628f55a4df523b3ef60405160405180910390a45050565b6004602052805f5260405f205f915054906101000a900460ff1681565b5f805f8381526020019081526020015f205f9054906101000a900473ffffffffffffffffffffffffffffffffffffffff1690505f73ffffffffffffffffffffffffffffffffffffffff168173ffffffffffffffffffffffffffffffffffffffff1603610a44576040517f08c379a0000000000000000000000000000000000000000000000000000000008152600401610a3b90611b84565b60405180910390fd5b919050565b610a9b610a55856112a7565b8383808060200260200160405190810160405280939291908181526020018383602002808284375f81840152601f19601f820116905080830192505050505050506112d6565b610ada576040517f08c379a0000000000000000000000000000000000000000000000000000000008152600401610ad190611e1f565b60405180910390fd5b60045f8573ffffffffffffffffffffffffffffffffffffffff1673ffffffffffffffffffffffffffffffffffffffff1681526020019081526020015f205f9054906101000a900460ff1615610b64576040517f08c379a0000000000000000000000000000000000000000000000000000000008152600401610b5b90611e87565b60405180910390fd5b610b6e8484610661565b600160045f8673ffffffffffffffffffffffffffffffffffffffff1673ffffffffffffffffffffffffffffffffffffffff1681526020019081526020015f205f6101000a81548160ff02191690831515021790555050505050565b5f8073ffffffffffffffffffffffffffffffffffffffff168273ffffffffffffffffffffffffffffffffffffffff1603610c38576040517f08c379a0000000000000000000000000000000000000000000000000000000008152600401610c2f90611eef565b60405180910390fd5b60015f8373ffffffffffffffffffffffffffffffffffffffff1673ffffffffffffffffffffffffffffffffffffffff1681526020019081526020015f20549050919050565b8060035f3373ffffffffffffffffffffffffffffffffffffffff1673ffffffffffffffffffffffffffffffffffffffff1681526020019081526020015f205f8473ffffffffffffffffffffffffffffffffffffffff1673ffffffffffffffffffffffffffffffffffffffff1681526020019081526020015f205f6101000a81548160ff0219169083151502179055508173ffffffffffffffffffffffffffffffffffffffff163373ffffffffffffffffffffffffffffffffffffffff167f17307eab39ab6107e8899845ad3d59bd9653f200f220920489ca2b5937696c3183604051610d6991906115ef565b60405180910390a35050565b5f610d7f836109a3565b9050610d8c813385610f40565b610dcb576040517f08c379a0000000000000000000000000000000000000000000000000000000008152600401610dc290611c54565b60405180910390fd5b610dd8818686868661130a565b5050505050565b5f60035f8473ffffffffffffffffffffffffffffffffffffffff1673ffffffffffffffffffffffffffffffffffffffff1681526020019081526020015f205f8373ffffffffffffffffffffffffffffffffffffffff1673ffffffffffffffffffffffffffffffffffffffff1681526020019081526020015f205f9054906101000a900460ff16905092915050565b7f000000000000000000000000000000000000000000000000000000000000000081565b8160025f8381526020019081526020015f205f6101000a81548173ffffffffffffffffffffffffffffffffffffffff021916908373ffffffffffffffffffffffffffffffffffffffff160217905550808273ffffffffffffffffffffffffffffffffffffffff168473ffffffffffffffffffffffffffffffffffffffff167f8c5be1e5ebec7d5bd14f71427d1e84f3dd0314c0f7b2291e5b200ac8c7c3b92560405160405180910390a4505050565b5f8373ffffffffffffffffffffffffffffffffffffffff168373ffffffffffffffffffffffffffffffffffffffff161480610fd657508273ffffffffffffffffffffffffffffffffffffffff1660025f8481526020019081526020015f205f9054906101000a900473ffffffffffffffffffffffffffffffffffffffff1673ffffffffffffffffffffffffffffffffffffffff16145b80611062575060035f8573ffffffffffffffffffffffffffffffffffffffff1673ffffffffffffffffffffffffffffffffffffffff1681526020019081526020015f205f8473ffffffffffffffffffffffffffffffffffffffff1673ffffffffffffffffffffffffffffffffffffffff1681526020019081526020015f205f9054906101000a900460ff165b90509392505050565b8373ffffffffffffffffffffffffffffffffffffffff168373ffffffffffffffffffffffffffffffffffffffff16146110d9576040517f08c379a00000000000000000000000000000000000000000000000000000000081526004016110d090611f57565b60405180910390fd5b5f73ffffffffffffffffffffffffffffffffffffffff168273ffffffffffffffffffffffffffffffffffffffff1603611147576040517f08c379a000000000000000000000000000000000000000000000000000000000815260040161113e90611fbf565b60405180910390fd5b611152845f83610e91565b6001805f8573ffffffffffffffffffffffffffffffffffffffff1673ffffffffffffffffffffffffffffffffffffffff1681526020019081526020015f205f82825461119e9190611da2565b925050819055506001805f8473ffffffffffffffffffffffffffffffffffffffff1673ffffffffffffffffffffffffffffffffffffffff1681526020019081526020015f205f8282546111f19190611d6f565b92505081905550815f808381526020019081526020015f205f6101000a81548173ffffffffffffffffffffffffffffffffffffffff021916908373ffffffffffffffffffffffffffffffffffffffff160217905550808273ffffffffffffffffffffffffffffffffffffffff168473ffffffffffffffffffffffffffffffffffffffff167fddf252ad1be2c89b69c2b068fc378daa952ba7f163c4a11628f55a4df523b3ef60405160405180910390a450505050565b5f816040516020016112b99190612022565b604051602081830303815290604052805190602001209050919050565b5f611302827f000000000000000000000000000000000000000000000000000000000000000085611368565b905092915050565b6113168585858561106b565b6113228484848461137e565b611361576040517f08c379a000000000000000000000000000000000000000000000000000000000815260040161135890612086565b60405180910390fd5b5050505050565b5f82611374858461147d565b1490509392505050565b5f61139e8473ffffffffffffffffffffffffffffffffffffffff166114cb565b156114705763150b7a0260e01b7bffffffffffffffffffffffffffffffffffffffffffffffffffffffff19168473ffffffffffffffffffffffffffffffffffffffff1663150b7a02338887876040518563ffffffff1660e01b81526004016114099493929190612104565b6020604051808303815f875af1158015611425573d5f803e3d5ffd5b505050506040513d601f19601f820116820180604052508101906114499190612162565b7bffffffffffffffffffffffffffffffffffffffffffffffffffffffff1916149050611475565b600190505b949350505050565b5f808290505f5b84518110156114c0576114b1828683815181106114a4576114a361218d565b5b60200260200101516114dc565b91508080600101915050611484565b508091505092915050565b5f80823b90505f8111915050919050565b5f8183106115125781836040516020016114f79291906121da565b6040516020818303038152906040528051906020012061153c565b82826040516020016115259291906121da565b604051602081830303815290604052805190602001205b905092915050565b5f604051905090565b5f80fd5b5f80fd5b5f7fffffffff0000000000000000000000000000000000000000000000000000000082169050919050565b61158981611555565b8114611593575f80fd5b50565b5f813590506115a481611580565b92915050565b5f602082840312156115bf576115be61154d565b5b5f6115cc84828501611596565b91505092915050565b5f8115159050919050565b6115e9816115d5565b82525050565b5f6020820190506116025f8301846115e0565b92915050565b5f819050919050565b61161a81611608565b8114611624575f80fd5b50565b5f8135905061163581611611565b92915050565b5f602082840312156116505761164f61154d565b5b5f61165d84828501611627565b91505092915050565b5f73ffffffffffffffffffffffffffffffffffffffff82169050919050565b5f61168f82611666565b9050919050565b61169f81611685565b82525050565b5f6020820190506116b85f830184611696565b92915050565b6116c781611685565b81146116d1575f80fd5b50565b5f813590506116e2816116be565b92915050565b5f80604083850312156116fe576116fd61154d565b5b5f61170b858286016116d4565b925050602061171c85828601611627565b9150509250929050565b5f805f6060848603121561173d5761173c61154d565b5b5f61174a868287016116d4565b935050602061175b868287016116d4565b925050604061176c86828701611627565b9150509250925092565b5f6020828403121561178b5761178a61154d565b5b5f611798848285016116d4565b91505092915050565b5f80fd5b5f80fd5b5f80fd5b5f8083601f8401126117c2576117c16117a1565b5b8235905067ffffffffffffffff8111156117df576117de6117a5565b5b6020830191508360208202830111156117fb576117fa6117a9565b5b9250929050565b5f805f806060858703121561181a5761181961154d565b5b5f611827878288016116d4565b945050602061183887828801611627565b935050604085013567ffffffffffffffff81111561185957611858611551565b5b611865878288016117ad565b925092505092959194509250565b61187c81611608565b82525050565b5f6020820190506118955f830184611873565b92915050565b6118a4816115d5565b81146118ae575f80fd5b50565b5f813590506118bf8161189b565b92915050565b5f80604083850312156118db576118da61154d565b5b5f6118e8858286016116d4565b92505060206118f9858286016118b1565b9150509250929050565b5f80fd5b5f601f19601f8301169050919050565b7f4e487b71000000000000000000000000000000000000000000000000000000005f52604160045260245ffd5b61194d82611907565b810181811067ffffffffffffffff8211171561196c5761196b611917565b5b80604052505050565b5f61197e611544565b905061198a8282611944565b919050565b5f67ffffffffffffffff8211156119a9576119a8611917565b5b6119b282611907565b9050602081019050919050565b828183375f83830152505050565b5f6119df6119da8461198f565b611975565b9050828152602081018484840111156119fb576119fa611903565b5b611a068482856119bf565b509392505050565b5f82601f830112611a2257611a216117a1565b5b8135611a328482602086016119cd565b91505092915050565b5f805f8060808587031215611a5357611a5261154d565b5b5f611a60878288016116d4565b9450506020611a71878288016116d4565b9350506040611a8287828801611627565b925050606085013567ffffffffffffffff811115611aa357611aa2611551565b5b611aaf87828801611a0e565b91505092959194509250565b5f8060408385031215611ad157611ad061154d565b5b5f611ade858286016116d4565b9250506020611aef858286016116d4565b9150509250929050565b5f819050919050565b611b0b81611af9565b82525050565b5f602082019050611b245f830184611b02565b92915050565b5f82825260208201905092915050565b7f746f6b656e20646f65736e2774206578697374000000000000000000000000005f82015250565b5f611b6e601383611b2a565b9150611b7982611b3a565b602082019050919050565b5f6020820190508181035f830152611b9b81611b62565b9050919050565b7f6e6f74206f776e6572206e6f7220617070726f76656420666f7220616c6c00005f82015250565b5f611bd6601e83611b2a565b9150611be182611ba2565b602082019050919050565b5f6020820190508181035f830152611c0381611bca565b9050919050565b7f6e6f74206f776e6572206e6f7220617070726f766564000000000000000000005f82015250565b5f611c3e601683611b2a565b9150611c4982611c0a565b602082019050919050565b5f6020820190508181035f830152611c6b81611c32565b9050919050565b7f6d696e7420746f207a65726f20616464726573730000000000000000000000005f82015250565b5f611ca6601483611b2a565b9150611cb182611c72565b602082019050919050565b5f6020820190508181035f830152611cd381611c9a565b9050919050565b7f746f6b656e20616c7265616479206d696e7465640000000000000000000000005f82015250565b5f611d0e601483611b2a565b9150611d1982611cda565b602082019050919050565b5f6020820190508181035f830152611d3b81611d02565b9050919050565b7f4e487b71000000000000000000000000000000000000000000000000000000005f52601160045260245ffd5b5f611d7982611608565b9150611d8483611608565b9250828201905080821115611d9c57611d9b611d42565b5b92915050565b5f611dac82611608565b9150611db783611608565b9250828203905081811115611dcf57611dce611d42565b5b92915050565b7f496e76616c6964206d65726b6c652070726f6f660000000000000000000000005f82015250565b5f611e09601483611b2a565b9150611e1482611dd5565b602082019050919050565b5f6020820190508181035f830152611e3681611dfd565b9050919050565b7f416c7265616479206d696e7465642100000000000000000000000000000000005f82015250565b5f611e71600f83611b2a565b9150611e7c82611e3d565b602082019050919050565b5f6020820190508181035f830152611e9e81611e65565b9050919050565b7f6f776e6572203d207a65726f20616464726573730000000000000000000000005f82015250565b5f611ed9601483611b2a565b9150611ee482611ea5565b602082019050919050565b5f6020820190508181035f830152611f0681611ecd565b9050919050565b7f6e6f74206f776e657200000000000000000000000000000000000000000000005f82015250565b5f611f41600983611b2a565b9150611f4c82611f0d565b602082019050919050565b5f6020820190508181035f830152611f6e81611f35565b9050919050565b7f7472616e7366657220746f20746865207a65726f2061646472657373000000005f82015250565b5f611fa9601c83611b2a565b9150611fb482611f75565b602082019050919050565b5f6020820190508181035f830152611fd681611f9d565b9050919050565b5f8160601b9050919050565b5f611ff382611fdd565b9050919050565b5f61200482611fe9565b9050919050565b61201c61201782611685565b611ffa565b82525050565b5f61202d828461200b565b60148201915081905092915050565b7f6e6f7420455243373231526563656976657200000000000000000000000000005f82015250565b5f612070601283611b2a565b915061207b8261203c565b602082019050919050565b5f6020820190508181035f83015261209d81612064565b9050919050565b5f81519050919050565b5f82825260208201905092915050565b8281835e5f83830152505050565b5f6120d6826120a4565b6120e081856120ae565b93506120f08185602086016120be565b6120f981611907565b840191505092915050565b5f6080820190506121175f830187611696565b6121246020830186611696565b6121316040830185611873565b818103606083015261214381846120cc565b905095945050505050565b5f8151905061215c81611580565b92915050565b5f602082840312156121775761217661154d565b5b5f6121848482850161214e565b91505092915050565b7f4e487b71000000000000000000000000000000000000000000000000000000005f52603260045260245ffd5b5f819050919050565b6121d46121cf82611af9565b6121ba565b82525050565b5f6121e582856121c3565b6020820191506121f582846121c3565b602082019150819050939250505056fea2646970667358221220844dfb049ccab5048cb6970cbbdf0a499f0f2d9dd195cd975a3368f4d657e43364736f6c634300081a0033",
					"opcodes": "PUSH1 0xA0 PUSH1 0x40 MSTORE CALLVALUE DUP1 ISZERO PUSH1 0xE JUMPI PUSH0 DUP1 REVERT JUMPDEST POP PUSH1 0x40 MLOAD PUSH2 0x22ED CODESIZE SUB DUP1 PUSH2 0x22ED DUP4 CODECOPY DUP2 DUP2 ADD PUSH1 0x40 MSTORE DUP2 ADD SWAP1 PUSH1 0x2E SWAP2 SWAP1 PUSH1 0x6D JUMP JUMPDEST DUP1 PUSH1 0x80 DUP2 DUP2 MSTORE POP POP POP PUSH1 0x93 JUMP JUMPDEST PUSH0 DUP1 REVERT JUMPDEST PUSH0 DUP2 SWAP1 POP SWAP2 SWAP1 POP JUMP JUMPDEST PUSH1 0x4F DUP2 PUSH1 0x3F JUMP JUMPDEST DUP2 EQ PUSH1 0x58 JUMPI PUSH0 DUP1 REVERT JUMPDEST POP JUMP JUMPDEST PUSH0 DUP2 MLOAD SWAP1 POP PUSH1 0x67 DUP2 PUSH1 0x48 JUMP JUMPDEST SWAP3 SWAP2 POP POP JUMP JUMPDEST PUSH0 PUSH1 0x20 DUP3 DUP5 SUB SLT ISZERO PUSH1 0x7F JUMPI PUSH1 0x7E PUSH1 0x3B JUMP JUMPDEST JUMPDEST PUSH0 PUSH1 0x8A DUP5 DUP3 DUP6 ADD PUSH1 0x5B JUMP JUMPDEST SWAP2 POP POP SWAP3 SWAP2 POP POP JUMP JUMPDEST PUSH1 0x80 MLOAD PUSH2 0x223B PUSH2 0xB2 PUSH0 CODECOPY PUSH0 DUP2 DUP2 PUSH2 0xE6F ADD MSTORE PUSH2 0x12DD ADD MSTORE PUSH2 0x223B PUSH0 RETURN INVALID PUSH1 0x80 PUSH1 0x40 MSTORE CALLVALUE DUP1 ISZERO PUSH2 0xF JUMPI PUSH0 DUP1 REVERT JUMPDEST POP PUSH1 0x4 CALLDATASIZE LT PUSH2 0xF3 JUMPI PUSH0 CALLDATALOAD PUSH1 0xE0 SHR DUP1 PUSH4 0x630303C6 GT PUSH2 0x95 JUMPI DUP1 PUSH4 0xA22CB465 GT PUSH2 0x64 JUMPI DUP1 PUSH4 0xA22CB465 EQ PUSH2 0x28F JUMPI DUP1 PUSH4 0xB88D4FDE EQ PUSH2 0x2AB JUMPI DUP1 PUSH4 0xE985E9C5 EQ PUSH2 0x2C7 JUMPI DUP1 PUSH4 0xEBF0C717 EQ PUSH2 0x2F7 JUMPI PUSH2 0xF3 JUMP JUMPDEST DUP1 PUSH4 0x630303C6 EQ PUSH2 0x1E3 JUMPI DUP1 PUSH4 0x6352211E EQ PUSH2 0x213 JUMPI DUP1 PUSH4 0x641CE140 EQ PUSH2 0x243 JUMPI DUP1 PUSH4 0x70A08231 EQ PUSH2 0x25F JUMPI PUSH2 0xF3 JUMP JUMPDEST DUP1 PUSH4 0x23B872DD GT PUSH2 0xD1 JUMPI DUP1 PUSH4 0x23B872DD EQ PUSH2 0x173 JUMPI DUP1 PUSH4 0x40C10F19 EQ PUSH2 0x18F JUMPI DUP1 PUSH4 0x42842E0E EQ PUSH2 0x1AB JUMPI DUP1 PUSH4 0x42966C68 EQ PUSH2 0x1C7 JUMPI PUSH2 0xF3 JUMP JUMPDEST DUP1 PUSH4 0x1FFC9A7 EQ PUSH2 0xF7 JUMPI DUP1 PUSH4 0x81812FC EQ PUSH2 0x127 JUMPI DUP1 PUSH4 0x95EA7B3 EQ PUSH2 0x157 JUMPI JUMPDEST PUSH0 DUP1 REVERT JUMPDEST PUSH2 0x111 PUSH1 0x4 DUP1 CALLDATASIZE SUB DUP2 ADD SWAP1 PUSH2 0x10C SWAP2 SWAP1 PUSH2 0x15AA JUMP JUMPDEST PUSH2 0x315 JUMP JUMPDEST PUSH1 0x40 MLOAD PUSH2 0x11E SWAP2 SWAP1 PUSH2 0x15EF JUMP JUMPDEST PUSH1 0x40 MLOAD DUP1 SWAP2 SUB SWAP1 RETURN JUMPDEST PUSH2 0x141 PUSH1 0x4 DUP1 CALLDATASIZE SUB DUP2 ADD SWAP1 PUSH2 0x13C SWAP2 SWAP1 PUSH2 0x163B JUMP JUMPDEST PUSH2 0x3E6 JUMP JUMPDEST PUSH1 0x40 MLOAD PUSH2 0x14E SWAP2 SWAP1 PUSH2 0x16A5 JUMP JUMPDEST PUSH1 0x40 MLOAD DUP1 SWAP2 SUB SWAP1 RETURN JUMPDEST PUSH2 0x171 PUSH1 0x4 DUP1 CALLDATASIZE SUB DUP2 ADD SWAP1 PUSH2 0x16C SWAP2 SWAP1 PUSH2 0x16E8 JUMP JUMPDEST PUSH2 0x4BC JUMP JUMPDEST STOP JUMPDEST PUSH2 0x18D PUSH1 0x4 DUP1 CALLDATASIZE SUB DUP2 ADD SWAP1 PUSH2 0x188 SWAP2 SWAP1 PUSH2 0x1726 JUMP JUMPDEST PUSH2 0x5F9 JUMP JUMPDEST STOP JUMPDEST PUSH2 0x1A9 PUSH1 0x4 DUP1 CALLDATASIZE SUB DUP2 ADD SWAP1 PUSH2 0x1A4 SWAP2 SWAP1 PUSH2 0x16E8 JUMP JUMPDEST PUSH2 0x661 JUMP JUMPDEST STOP JUMPDEST PUSH2 0x1C5 PUSH1 0x4 DUP1 CALLDATASIZE SUB DUP2 ADD SWAP1 PUSH2 0x1C0 SWAP2 SWAP1 PUSH2 0x1726 JUMP JUMPDEST PUSH2 0x86C JUMP JUMPDEST STOP JUMPDEST PUSH2 0x1E1 PUSH1 0x4 DUP1 CALLDATASIZE SUB DUP2 ADD SWAP1 PUSH2 0x1DC SWAP2 SWAP1 PUSH2 0x163B JUMP JUMPDEST PUSH2 0x88B JUMP JUMPDEST STOP JUMPDEST PUSH2 0x1FD PUSH1 0x4 DUP1 CALLDATASIZE SUB DUP2 ADD SWAP1 PUSH2 0x1F8 SWAP2 SWAP1 PUSH2 0x1776 JUMP JUMPDEST PUSH2 0x986 JUMP JUMPDEST PUSH1 0x40 MLOAD PUSH2 0x20A SWAP2 SWAP1 PUSH2 0x15EF JUMP JUMPDEST PUSH1 0x40 MLOAD DUP1 SWAP2 SUB SWAP1 RETURN JUMPDEST PUSH2 0x22D PUSH1 0x4 DUP1 CALLDATASIZE SUB DUP2 ADD SWAP1 PUSH2 0x228 SWAP2 SWAP1 PUSH2 0x163B JUMP JUMPDEST PUSH2 0x9A3 JUMP JUMPDEST PUSH1 0x40 MLOAD PUSH2 0x23A SWAP2 SWAP1 PUSH2 0x16A5 JUMP JUMPDEST PUSH1 0x40 MLOAD DUP1 SWAP2 SUB SWAP1 RETURN JUMPDEST PUSH2 0x25D PUSH1 0x4 DUP1 CALLDATASIZE SUB DUP2 ADD SWAP1 PUSH2 0x258 SWAP2 SWAP1 PUSH2 0x1802 JUMP JUMPDEST PUSH2 0xA49 JUMP JUMPDEST STOP JUMPDEST PUSH2 0x279 PUSH1 0x4 DUP1 CALLDATASIZE SUB DUP2 ADD SWAP1 PUSH2 0x274 SWAP2 SWAP1 PUSH2 0x1776 JUMP JUMPDEST PUSH2 0xBC9 JUMP JUMPDEST PUSH1 0x40 MLOAD PUSH2 0x286 SWAP2 SWAP1 PUSH2 0x1882 JUMP JUMPDEST PUSH1 0x40 MLOAD DUP1 SWAP2 SUB SWAP1 RETURN JUMPDEST PUSH2 0x2A9 PUSH1 0x4 DUP1 CALLDATASIZE SUB DUP2 ADD SWAP1 PUSH2 0x2A4 SWAP2 SWAP1 PUSH2 0x18C5 JUMP JUMPDEST PUSH2 0xC7D JUMP JUMPDEST STOP JUMPDEST PUSH2 0x2C5 PUSH1 0x4 DUP1 CALLDATASIZE SUB DUP2 ADD SWAP1 PUSH2 0x2C0 SWAP2 SWAP1 PUSH2 0x1A3B JUMP JUMPDEST PUSH2 0xD75 JUMP JUMPDEST STOP JUMPDEST PUSH2 0x2E1 PUSH1 0x4 DUP1 CALLDATASIZE SUB DUP2 ADD SWAP1 PUSH2 0x2DC SWAP2 SWAP1 PUSH2 0x1ABB JUMP JUMPDEST PUSH2 0xDDF JUMP JUMPDEST PUSH1 0x40 MLOAD PUSH2 0x2EE SWAP2 SWAP1 PUSH2 0x15EF JUMP JUMPDEST PUSH1 0x40 MLOAD DUP1 SWAP2 SUB SWAP1 RETURN JUMPDEST PUSH2 0x2FF PUSH2 0xE6D JUMP JUMPDEST PUSH1 0x40 MLOAD PUSH2 0x30C SWAP2 SWAP1 PUSH2 0x1B11 JUMP JUMPDEST PUSH1 0x40 MLOAD DUP1 SWAP2 SUB SWAP1 RETURN JUMPDEST PUSH0 PUSH32 0x80AC58CD00000000000000000000000000000000000000000000000000000000 PUSH28 0xFFFFFFFFFFFFFFFFFFFFFFFFFFFFFFFFFFFFFFFFFFFFFFFFFFFFFFFF NOT AND DUP3 PUSH28 0xFFFFFFFFFFFFFFFFFFFFFFFFFFFFFFFFFFFFFFFFFFFFFFFFFFFFFFFF NOT AND EQ DUP1 PUSH2 0x3DF JUMPI POP PUSH32 0x1FFC9A700000000000000000000000000000000000000000000000000000000 PUSH28 0xFFFFFFFFFFFFFFFFFFFFFFFFFFFFFFFFFFFFFFFFFFFFFFFFFFFFFFFF NOT AND DUP3 PUSH28 0xFFFFFFFFFFFFFFFFFFFFFFFFFFFFFFFFFFFFFFFFFFFFFFFFFFFFFFFF NOT AND EQ JUMPDEST SWAP1 POP SWAP2 SWAP1 POP JUMP JUMPDEST PUSH0 DUP1 PUSH20 0xFFFFFFFFFFFFFFFFFFFFFFFFFFFFFFFFFFFFFFFF AND PUSH0 DUP1 DUP5 DUP2 MSTORE PUSH1 0x20 ADD SWAP1 DUP2 MSTORE PUSH1 0x20 ADD PUSH0 KECCAK256 PUSH0 SWAP1 SLOAD SWAP1 PUSH2 0x100 EXP SWAP1 DIV PUSH20 0xFFFFFFFFFFFFFFFFFFFFFFFFFFFFFFFFFFFFFFFF AND PUSH20 0xFFFFFFFFFFFFFFFFFFFFFFFFFFFFFFFFFFFFFFFF AND SUB PUSH2 0x484 JUMPI PUSH1 0x40 MLOAD PUSH32 0x8C379A000000000000000000000000000000000000000000000000000000000 DUP2 MSTORE PUSH1 0x4 ADD PUSH2 0x47B SWAP1 PUSH2 0x1B84 JUMP JUMPDEST PUSH1 0x40 MLOAD DUP1 SWAP2 SUB SWAP1 REVERT JUMPDEST PUSH1 0x2 PUSH0 DUP4 DUP2 MSTORE PUSH1 0x20 ADD SWAP1 DUP2 MSTORE PUSH1 0x20 ADD PUSH0 KECCAK256 PUSH0 SWAP1 SLOAD SWAP1 PUSH2 0x100 EXP SWAP1 DIV PUSH20 0xFFFFFFFFFFFFFFFFFFFFFFFFFFFFFFFFFFFFFFFF AND SWAP1 POP SWAP2 SWAP1 POP JUMP JUMPDEST PUSH0 DUP1 PUSH0 DUP4 DUP2 MSTORE PUSH1 0x20 ADD SWAP1 DUP2 MSTORE PUSH1 0x20 ADD PUSH0 KECCAK256 PUSH0 SWAP1 SLOAD SWAP1 PUSH2 0x100 EXP SWAP1 DIV PUSH20 0xFFFFFFFFFFFFFFFFFFFFFFFFFFFFFFFFFFFFFFFF AND SWAP1 POP DUP1 PUSH20 0xFFFFFFFFFFFFFFFFFFFFFFFFFFFFFFFFFFFFFFFF AND CALLER PUSH20 0xFFFFFFFFFFFFFFFFFFFFFFFFFFFFFFFFFFFFFFFF AND EQ DUP1 PUSH2 0x5AA JUMPI POP PUSH1 0x3 PUSH0 DUP3 PUSH20 0xFFFFFFFFFFFFFFFFFFFFFFFFFFFFFFFFFFFFFFFF AND PUSH20 0xFFFFFFFFFFFFFFFFFFFFFFFFFFFFFFFFFFFFFFFF AND DUP2 MSTORE PUSH1 0x20 ADD SWAP1 DUP2 MSTORE PUSH1 0x20 ADD PUSH0 KECCAK256 PUSH0 CALLER PUSH20 0xFFFFFFFFFFFFFFFFFFFFFFFFFFFFFFFFFFFFFFFF AND PUSH20 0xFFFFFFFFFFFFFFFFFFFFFFFFFFFFFFFFFFFFFFFF AND DUP2 MSTORE PUSH1 0x20 ADD SWAP1 DUP2 MSTORE PUSH1 0x20 ADD PUSH0 KECCAK256 PUSH0 SWAP1 SLOAD SWAP1 PUSH2 0x100 EXP SWAP1 DIV PUSH1 0xFF AND JUMPDEST PUSH2 0x5E9 JUMPI PUSH1 0x40 MLOAD PUSH32 0x8C379A000000000000000000000000000000000000000000000000000000000 DUP2 MSTORE PUSH1 0x4 ADD PUSH2 0x5E0 SWAP1 PUSH2 0x1BEC JUMP JUMPDEST PUSH1 0x40 MLOAD DUP1 SWAP2 SUB SWAP1 REVERT JUMPDEST PUSH2 0x5F4 DUP2 DUP5 DUP5 PUSH2 0xE91 JUMP JUMPDEST POP POP POP JUMP JUMPDEST PUSH0 PUSH2 0x603 DUP3 PUSH2 0x9A3 JUMP JUMPDEST SWAP1 POP PUSH2 0x610 DUP2 CALLER DUP5 PUSH2 0xF40 JUMP JUMPDEST PUSH2 0x64F JUMPI PUSH1 0x40 MLOAD PUSH32 0x8C379A000000000000000000000000000000000000000000000000000000000 DUP2 MSTORE PUSH1 0x4 ADD PUSH2 0x646 SWAP1 PUSH2 0x1C54 JUMP JUMPDEST PUSH1 0x40 MLOAD DUP1 SWAP2 SUB SWAP1 REVERT JUMPDEST PUSH2 0x65B DUP2 DUP6 DUP6 DUP6 PUSH2 0x106B JUMP JUMPDEST POP POP POP POP JUMP JUMPDEST PUSH0 PUSH20 0xFFFFFFFFFFFFFFFFFFFFFFFFFFFFFFFFFFFFFFFF AND DUP3 PUSH20 0xFFFFFFFFFFFFFFFFFFFFFFFFFFFFFFFFFFFFFFFF AND SUB PUSH2 0x6CF JUMPI PUSH1 0x40 MLOAD PUSH32 0x8C379A000000000000000000000000000000000000000000000000000000000 DUP2 MSTORE PUSH1 0x4 ADD PUSH2 0x6C6 SWAP1 PUSH2 0x1CBC JUMP JUMPDEST PUSH1 0x40 MLOAD DUP1 SWAP2 SUB SWAP1 REVERT JUMPDEST PUSH0 PUSH20 0xFFFFFFFFFFFFFFFFFFFFFFFFFFFFFFFFFFFFFFFF AND PUSH0 DUP1 DUP4 DUP2 MSTORE PUSH1 0x20 ADD SWAP1 DUP2 MSTORE PUSH1 0x20 ADD PUSH0 KECCAK256 PUSH0 SWAP1 SLOAD SWAP1 PUSH2 0x100 EXP SWAP1 DIV PUSH20 0xFFFFFFFFFFFFFFFFFFFFFFFFFFFFFFFFFFFFFFFF AND PUSH20 0xFFFFFFFFFFFFFFFFFFFFFFFFFFFFFFFFFFFFFFFF AND EQ PUSH2 0x76C JUMPI PUSH1 0x40 MLOAD PUSH32 0x8C379A000000000000000000000000000000000000000000000000000000000 DUP2 MSTORE PUSH1 0x4 ADD PUSH2 0x763 SWAP1 PUSH2 0x1D24 JUMP JUMPDEST PUSH1 0x40 MLOAD DUP1 SWAP2 SUB SWAP1 REVERT JUMPDEST PUSH1 0x1 DUP1 PUSH0 DUP5 PUSH20 0xFFFFFFFFFFFFFFFFFFFFFFFFFFFFFFFFFFFFFFFF AND PUSH20 0xFFFFFFFFFFFFFFFFFFFFFFFFFFFFFFFFFFFFFFFF AND DUP2 MSTORE PUSH1 0x20 ADD SWAP1 DUP2 MSTORE PUSH1 0x20 ADD PUSH0 KECCAK256 PUSH0 DUP3 DUP3 SLOAD PUSH2 0x7B8 SWAP2 SWAP1 PUSH2 0x1D6F JUMP JUMPDEST SWAP3 POP POP DUP2 SWAP1 SSTORE POP DUP2 PUSH0 DUP1 DUP4 DUP2 MSTORE PUSH1 0x20 ADD SWAP1 DUP2 MSTORE PUSH1 0x20 ADD PUSH0 KECCAK256 PUSH0 PUSH2 0x100 EXP DUP2 SLOAD DUP2 PUSH20 0xFFFFFFFFFFFFFFFFFFFFFFFFFFFFFFFFFFFFFFFF MUL NOT AND SWAP1 DUP4 PUSH20 0xFFFFFFFFFFFFFFFFFFFFFFFFFFFFFFFFFFFFFFFF AND MUL OR SWAP1 SSTORE POP DUP1 DUP3 PUSH20 0xFFFFFFFFFFFFFFFFFFFFFFFFFFFFFFFFFFFFFFFF AND PUSH0 PUSH20 0xFFFFFFFFFFFFFFFFFFFFFFFFFFFFFFFFFFFFFFFF AND PUSH32 0xDDF252AD1BE2C89B69C2B068FC378DAA952BA7F163C4A11628F55A4DF523B3EF PUSH1 0x40 MLOAD PUSH1 0x40 MLOAD DUP1 SWAP2 SUB SWAP1 LOG4 POP POP JUMP JUMPDEST PUSH2 0x886 DUP4 DUP4 DUP4 PUSH1 0x40 MLOAD DUP1 PUSH1 0x20 ADD PUSH1 0x40 MSTORE DUP1 PUSH0 DUP2 MSTORE POP PUSH2 0xD75 JUMP JUMPDEST POP POP POP JUMP JUMPDEST PUSH0 PUSH2 0x895 DUP3 PUSH2 0x9A3 JUMP JUMPDEST SWAP1 POP PUSH2 0x8A2 DUP2 PUSH0 DUP5 PUSH2 0xE91 JUMP JUMPDEST PUSH1 0x1 DUP1 PUSH0 DUP4 PUSH20 0xFFFFFFFFFFFFFFFFFFFFFFFFFFFFFFFFFFFFFFFF AND PUSH20 0xFFFFFFFFFFFFFFFFFFFFFFFFFFFFFFFFFFFFFFFF AND DUP2 MSTORE PUSH1 0x20 ADD SWAP1 DUP2 MSTORE PUSH1 0x20 ADD PUSH0 KECCAK256 PUSH0 DUP3 DUP3 SLOAD PUSH2 0x8EE SWAP2 SWAP1 PUSH2 0x1DA2 JUMP JUMPDEST SWAP3 POP POP DUP2 SWAP1 SSTORE POP PUSH0 DUP1 DUP4 DUP2 MSTORE PUSH1 0x20 ADD SWAP1 DUP2 MSTORE PUSH1 0x20 ADD PUSH0 KECCAK256 PUSH0 PUSH2 0x100 EXP DUP2 SLOAD SWAP1 PUSH20 0xFFFFFFFFFFFFFFFFFFFFFFFFFFFFFFFFFFFFFFFF MUL NOT AND SWAP1 SSTORE DUP2 PUSH0 PUSH20 0xFFFFFFFFFFFFFFFFFFFFFFFFFFFFFFFFFFFFFFFF AND DUP3 PUSH20 0xFFFFFFFFFFFFFFFFFFFFFFFFFFFFFFFFFFFFFFFF AND PUSH32 0xDDF252AD1BE2C89B69C2B068FC378DAA952BA7F163C4A11628F55A4DF523B3EF PUSH1 0x40 MLOAD PUSH1 0x40 MLOAD DUP1 SWAP2 SUB SWAP1 LOG4 POP POP JUMP JUMPDEST PUSH1 0x4 PUSH1 0x20 MSTORE DUP1 PUSH0 MSTORE PUSH1 0x40 PUSH0 KECCAK256 PUSH0 SWAP2 POP SLOAD SWAP1 PUSH2 0x100 EXP SWAP1 DIV PUSH1 0xFF AND DUP2 JUMP JUMPDEST PUSH0 DUP1 PUSH0 DUP4 DUP2 MSTORE PUSH1 0x20 ADD SWAP1 DUP2 MSTORE PUSH1 0x20 ADD PUSH0 KECCAK256 PUSH0 SWAP1 SLOAD SWAP1 PUSH2 0x100 EXP SWAP1 DIV PUSH20 0xFFFFFFFFFFFFFFFFFFFFFFFFFFFFFFFFFFFFFFFF AND SWAP1 POP PUSH0 PUSH20 0xFFFFFFFFFFFFFFFFFFFFFFFFFFFFFFFFFFFFFFFF AND DUP2 PUSH20 0xFFFFFFFFFFFFFFFFFFFFFFFFFFFFFFFFFFFFFFFF AND SUB PUSH2 0xA44 JUMPI PUSH1 0x40 MLOAD PUSH32 0x8C379A000000000000000000000000000000000000000000000000000000000 DUP2 MSTORE PUSH1 0x4 ADD PUSH2 0xA3B SWAP1 PUSH2 0x1B84 JUMP JUMPDEST PUSH1 0x40 MLOAD DUP1 SWAP2 SUB SWAP1 REVERT JUMPDEST SWAP2 SWAP1 POP JUMP JUMPDEST PUSH2 0xA9B PUSH2 0xA55 DUP6 PUSH2 0x12A7 JUMP JUMPDEST DUP4 DUP4 DUP1 DUP1 PUSH1 0x20 MUL PUSH1 0x20 ADD PUSH1 0x40 MLOAD SWAP1 DUP2 ADD PUSH1 0x40 MSTORE DUP1 SWAP4 SWAP3 SWAP2 SWAP1 DUP2 DUP2 MSTORE PUSH1 0x20 ADD DUP4 DUP4 PUSH1 0x20 MUL DUP1 DUP3 DUP5 CALLDATACOPY PUSH0 DUP2 DUP5 ADD MSTORE PUSH1 0x1F NOT PUSH1 0x1F DUP3 ADD AND SWAP1 POP DUP1 DUP4 ADD SWAP3 POP POP POP POP POP POP POP PUSH2 0x12D6 JUMP JUMPDEST PUSH2 0xADA JUMPI PUSH1 0x40 MLOAD PUSH32 0x8C379A000000000000000000000000000000000000000000000000000000000 DUP2 MSTORE PUSH1 0x4 ADD PUSH2 0xAD1 SWAP1 PUSH2 0x1E1F JUMP JUMPDEST PUSH1 0x40 MLOAD DUP1 SWAP2 SUB SWAP1 REVERT JUMPDEST PUSH1 0x4 PUSH0 DUP6 PUSH20 0xFFFFFFFFFFFFFFFFFFFFFFFFFFFFFFFFFFFFFFFF AND PUSH20 0xFFFFFFFFFFFFFFFFFFFFFFFFFFFFFFFFFFFFFFFF AND DUP2 MSTORE PUSH1 0x20 ADD SWAP1 DUP2 MSTORE PUSH1 0x20 ADD PUSH0 KECCAK256 PUSH0 SWAP1 SLOAD SWAP1 PUSH2 0x100 EXP SWAP1 DIV PUSH1 0xFF AND ISZERO PUSH2 0xB64 JUMPI PUSH1 0x40 MLOAD PUSH32 0x8C379A000000000000000000000000000000000000000000000000000000000 DUP2 MSTORE PUSH1 0x4 ADD PUSH2 0xB5B SWAP1 PUSH2 0x1E87 JUMP JUMPDEST PUSH1 0x40 MLOAD DUP1 SWAP2 SUB SWAP1 REVERT JUMPDEST PUSH2 0xB6E DUP5 DUP5 PUSH2 0x661 JUMP JUMPDEST PUSH1 0x1 PUSH1 0x4 PUSH0 DUP7 PUSH20 0xFFFFFFFFFFFFFFFFFFFFFFFFFFFFFFFFFFFFFFFF AND PUSH20 0xFFFFFFFFFFFFFFFFFFFFFFFFFFFFFFFFFFFFFFFF AND DUP2 MSTORE PUSH1 0x20 ADD SWAP1 DUP2 MSTORE PUSH1 0x20 ADD PUSH0 KECCAK256 PUSH0 PUSH2 0x100 EXP DUP2 SLOAD DUP2 PUSH1 0xFF MUL NOT AND SWAP1 DUP4 ISZERO ISZERO MUL OR SWAP1 SSTORE POP POP POP POP POP JUMP JUMPDEST PUSH0 DUP1 PUSH20 0xFFFFFFFFFFFFFFFFFFFFFFFFFFFFFFFFFFFFFFFF AND DUP3 PUSH20 0xFFFFFFFFFFFFFFFFFFFFFFFFFFFFFFFFFFFFFFFF AND SUB PUSH2 0xC38 JUMPI PUSH1 0x40 MLOAD PUSH32 0x8C379A000000000000000000000000000000000000000000000000000000000 DUP2 MSTORE PUSH1 0x4 ADD PUSH2 0xC2F SWAP1 PUSH2 0x1EEF JUMP JUMPDEST PUSH1 0x40 MLOAD DUP1 SWAP2 SUB SWAP1 REVERT JUMPDEST PUSH1 0x1 PUSH0 DUP4 PUSH20 0xFFFFFFFFFFFFFFFFFFFFFFFFFFFFFFFFFFFFFFFF AND PUSH20 0xFFFFFFFFFFFFFFFFFFFFFFFFFFFFFFFFFFFFFFFF AND DUP2 MSTORE PUSH1 0x20 ADD SWAP1 DUP2 MSTORE PUSH1 0x20 ADD PUSH0 KECCAK256 SLOAD SWAP1 POP SWAP2 SWAP1 POP JUMP JUMPDEST DUP1 PUSH1 0x3 PUSH0 CALLER PUSH20 0xFFFFFFFFFFFFFFFFFFFFFFFFFFFFFFFFFFFFFFFF AND PUSH20 0xFFFFFFFFFFFFFFFFFFFFFFFFFFFFFFFFFFFFFFFF AND DUP2 MSTORE PUSH1 0x20 ADD SWAP1 DUP2 MSTORE PUSH1 0x20 ADD PUSH0 KECCAK256 PUSH0 DUP5 PUSH20 0xFFFFFFFFFFFFFFFFFFFFFFFFFFFFFFFFFFFFFFFF AND PUSH20 0xFFFFFFFFFFFFFFFFFFFFFFFFFFFFFFFFFFFFFFFF AND DUP2 MSTORE PUSH1 0x20 ADD SWAP1 DUP2 MSTORE PUSH1 0x20 ADD PUSH0 KECCAK256 PUSH0 PUSH2 0x100 EXP DUP2 SLOAD DUP2 PUSH1 0xFF MUL NOT AND SWAP1 DUP4 ISZERO ISZERO MUL OR SWAP1 SSTORE POP DUP2 PUSH20 0xFFFFFFFFFFFFFFFFFFFFFFFFFFFFFFFFFFFFFFFF AND CALLER PUSH20 0xFFFFFFFFFFFFFFFFFFFFFFFFFFFFFFFFFFFFFFFF AND PUSH32 0x17307EAB39AB6107E8899845AD3D59BD9653F200F220920489CA2B5937696C31 DUP4 PUSH1 0x40 MLOAD PUSH2 0xD69 SWAP2 SWAP1 PUSH2 0x15EF JUMP JUMPDEST PUSH1 0x40 MLOAD DUP1 SWAP2 SUB SWAP1 LOG3 POP POP JUMP JUMPDEST PUSH0 PUSH2 0xD7F DUP4 PUSH2 0x9A3 JUMP JUMPDEST SWAP1 POP PUSH2 0xD8C DUP2 CALLER DUP6 PUSH2 0xF40 JUMP JUMPDEST PUSH2 0xDCB JUMPI PUSH1 0x40 MLOAD PUSH32 0x8C379A000000000000000000000000000000000000000000000000000000000 DUP2 MSTORE PUSH1 0x4 ADD PUSH2 0xDC2 SWAP1 PUSH2 0x1C54 JUMP JUMPDEST PUSH1 0x40 MLOAD DUP1 SWAP2 SUB SWAP1 REVERT JUMPDEST PUSH2 0xDD8 DUP2 DUP7 DUP7 DUP7 DUP7 PUSH2 0x130A JUMP JUMPDEST POP POP POP POP POP JUMP JUMPDEST PUSH0 PUSH1 0x3 PUSH0 DUP5 PUSH20 0xFFFFFFFFFFFFFFFFFFFFFFFFFFFFFFFFFFFFFFFF AND PUSH20 0xFFFFFFFFFFFFFFFFFFFFFFFFFFFFFFFFFFFFFFFF AND DUP2 MSTORE PUSH1 0x20 ADD SWAP1 DUP2 MSTORE PUSH1 0x20 ADD PUSH0 KECCAK256 PUSH0 DUP4 PUSH20 0xFFFFFFFFFFFFFFFFFFFFFFFFFFFFFFFFFFFFFFFF AND PUSH20 0xFFFFFFFFFFFFFFFFFFFFFFFFFFFFFFFFFFFFFFFF AND DUP2 MSTORE PUSH1 0x20 ADD SWAP1 DUP2 MSTORE PUSH1 0x20 ADD PUSH0 KECCAK256 PUSH0 SWAP1 SLOAD SWAP1 PUSH2 0x100 EXP SWAP1 DIV PUSH1 0xFF AND SWAP1 POP SWAP3 SWAP2 POP POP JUMP JUMPDEST PUSH32 0x0 DUP2 JUMP JUMPDEST DUP2 PUSH1 0x2 PUSH0 DUP4 DUP2 MSTORE PUSH1 0x20 ADD SWAP1 DUP2 MSTORE PUSH1 0x20 ADD PUSH0 KECCAK256 PUSH0 PUSH2 0x100 EXP DUP2 SLOAD DUP2 PUSH20 0xFFFFFFFFFFFFFFFFFFFFFFFFFFFFFFFFFFFFFFFF MUL NOT AND SWAP1 DUP4 PUSH20 0xFFFFFFFFFFFFFFFFFFFFFFFFFFFFFFFFFFFFFFFF AND MUL OR SWAP1 SSTORE POP DUP1 DUP3 PUSH20 0xFFFFFFFFFFFFFFFFFFFFFFFFFFFFFFFFFFFFFFFF AND DUP5 PUSH20 0xFFFFFFFFFFFFFFFFFFFFFFFFFFFFFFFFFFFFFFFF AND PUSH32 0x8C5BE1E5EBEC7D5BD14F71427D1E84F3DD0314C0F7B2291E5B200AC8C7C3B925 PUSH1 0x40 MLOAD PUSH1 0x40 MLOAD DUP1 SWAP2 SUB SWAP1 LOG4 POP POP POP JUMP JUMPDEST PUSH0 DUP4 PUSH20 0xFFFFFFFFFFFFFFFFFFFFFFFFFFFFFFFFFFFFFFFF AND DUP4 PUSH20 0xFFFFFFFFFFFFFFFFFFFFFFFFFFFFFFFFFFFFFFFF AND EQ DUP1 PUSH2 0xFD6 JUMPI POP DUP3 PUSH20 0xFFFFFFFFFFFFFFFFFFFFFFFFFFFFFFFFFFFFFFFF AND PUSH1 0x2 PUSH0 DUP5 DUP2 MSTORE PUSH1 0x20 ADD SWAP1 DUP2 MSTORE PUSH1 0x20 ADD PUSH0 KECCAK256 PUSH0 SWAP1 SLOAD SWAP1 PUSH2 0x100 EXP SWAP1 DIV PUSH20 0xFFFFFFFFFFFFFFFFFFFFFFFFFFFFFFFFFFFFFFFF AND PUSH20 0xFFFFFFFFFFFFFFFFFFFFFFFFFFFFFFFFFFFFFFFF AND EQ JUMPDEST DUP1 PUSH2 0x1062 JUMPI POP PUSH1 0x3 PUSH0 DUP6 PUSH20 0xFFFFFFFFFFFFFFFFFFFFFFFFFFFFFFFFFFFFFFFF AND PUSH20 0xFFFFFFFFFFFFFFFFFFFFFFFFFFFFFFFFFFFFFFFF AND DUP2 MSTORE PUSH1 0x20 ADD SWAP1 DUP2 MSTORE PUSH1 0x20 ADD PUSH0 KECCAK256 PUSH0 DUP5 PUSH20 0xFFFFFFFFFFFFFFFFFFFFFFFFFFFFFFFFFFFFFFFF AND PUSH20 0xFFFFFFFFFFFFFFFFFFFFFFFFFFFFFFFFFFFFFFFF AND DUP2 MSTORE PUSH1 0x20 ADD SWAP1 DUP2 MSTORE PUSH1 0x20 ADD PUSH0 KECCAK256 PUSH0 SWAP1 SLOAD SWAP1 PUSH2 0x100 EXP SWAP1 DIV PUSH1 0xFF AND JUMPDEST SWAP1 POP SWAP4 SWAP3 POP POP POP JUMP JUMPDEST DUP4 PUSH20 0xFFFFFFFFFFFFFFFFFFFFFFFFFFFFFFFFFFFFFFFF AND DUP4 PUSH20 0xFFFFFFFFFFFFFFFFFFFFFFFFFFFFFFFFFFFFFFFF AND EQ PUSH2 0x10D9 JUMPI PUSH1 0x40 MLOAD PUSH32 0x8C379A000000000000000000000000000000000000000000000000000000000 DUP2 MSTORE PUSH1 0x4 ADD PUSH2 0x10D0 SWAP1 PUSH2 0x1F57 JUMP JUMPDEST PUSH1 0x40 MLOAD DUP1 SWAP2 SUB SWAP1 REVERT JUMPDEST PUSH0 PUSH20 0xFFFFFFFFFFFFFFFFFFFFFFFFFFFFFFFFFFFFFFFF AND DUP3 PUSH20 0xFFFFFFFFFFFFFFFFFFFFFFFFFFFFFFFFFFFFFFFF AND SUB PUSH2 0x1147 JUMPI PUSH1 0x40 MLOAD PUSH32 0x8C379A000000000000000000000000000000000000000000000000000000000 DUP2 MSTORE PUSH1 0x4 ADD PUSH2 0x113E SWAP1 PUSH2 0x1FBF JUMP JUMPDEST PUSH1 0x40 MLOAD DUP1 SWAP2 SUB SWAP1 REVERT JUMPDEST PUSH2 0x1152 DUP5 PUSH0 DUP4 PUSH2 0xE91 JUMP JUMPDEST PUSH1 0x1 DUP1 PUSH0 DUP6 PUSH20 0xFFFFFFFFFFFFFFFFFFFFFFFFFFFFFFFFFFFFFFFF AND PUSH20 0xFFFFFFFFFFFFFFFFFFFFFFFFFFFFFFFFFFFFFFFF AND DUP2 MSTORE PUSH1 0x20 ADD SWAP1 DUP2 MSTORE PUSH1 0x20 ADD PUSH0 KECCAK256 PUSH0 DUP3 DUP3 SLOAD PUSH2 0x119E SWAP2 SWAP1 PUSH2 0x1DA2 JUMP JUMPDEST SWAP3 POP POP DUP2 SWAP1 SSTORE POP PUSH1 0x1 DUP1 PUSH0 DUP5 PUSH20 0xFFFFFFFFFFFFFFFFFFFFFFFFFFFFFFFFFFFFFFFF AND PUSH20 0xFFFFFFFFFFFFFFFFFFFFFFFFFFFFFFFFFFFFFFFF AND DUP2 MSTORE PUSH1 0x20 ADD SWAP1 DUP2 MSTORE PUSH1 0x20 ADD PUSH0 KECCAK256 PUSH0 DUP3 DUP3 SLOAD PUSH2 0x11F1 SWAP2 SWAP1 PUSH2 0x1D6F JUMP JUMPDEST SWAP3 POP POP DUP2 SWAP1 SSTORE POP DUP2 PUSH0 DUP1 DUP4 DUP2 MSTORE PUSH1 0x20 ADD SWAP1 DUP2 MSTORE PUSH1 0x20 ADD PUSH0 KECCAK256 PUSH0 PUSH2 0x100 EXP DUP2 SLOAD DUP2 PUSH20 0xFFFFFFFFFFFFFFFFFFFFFFFFFFFFFFFFFFFFFFFF MUL NOT AND SWAP1 DUP4 PUSH20 0xFFFFFFFFFFFFFFFFFFFFFFFFFFFFFFFFFFFFFFFF AND MUL OR SWAP1 SSTORE POP DUP1 DUP3 PUSH20 0xFFFFFFFFFFFFFFFFFFFFFFFFFFFFFFFFFFFFFFFF AND DUP5 PUSH20 0xFFFFFFFFFFFFFFFFFFFFFFFFFFFFFFFFFFFFFFFF AND PUSH32 0xDDF252AD1BE2C89B69C2B068FC378DAA952BA7F163C4A11628F55A4DF523B3EF PUSH1 0x40 MLOAD PUSH1 0x40 MLOAD DUP1 SWAP2 SUB SWAP1 LOG4 POP POP POP POP JUMP JUMPDEST PUSH0 DUP2 PUSH1 0x40 MLOAD PUSH1 0x20 ADD PUSH2 0x12B9 SWAP2 SWAP1 PUSH2 0x2022 JUMP JUMPDEST PUSH1 0x40 MLOAD PUSH1 0x20 DUP2 DUP4 SUB SUB DUP2 MSTORE SWAP1 PUSH1 0x40 MSTORE DUP1 MLOAD SWAP1 PUSH1 0x20 ADD KECCAK256 SWAP1 POP SWAP2 SWAP1 POP JUMP JUMPDEST PUSH0 PUSH2 0x1302 DUP3 PUSH32 0x0 DUP6 PUSH2 0x1368 JUMP JUMPDEST SWAP1 POP SWAP3 SWAP2 POP POP JUMP JUMPDEST PUSH2 0x1316 DUP6 DUP6 DUP6 DUP6 PUSH2 0x106B JUMP JUMPDEST PUSH2 0x1322 DUP5 DUP5 DUP5 DUP5 PUSH2 0x137E JUMP JUMPDEST PUSH2 0x1361 JUMPI PUSH1 0x40 MLOAD PUSH32 0x8C379A000000000000000000000000000000000000000000000000000000000 DUP2 MSTORE PUSH1 0x4 ADD PUSH2 0x1358 SWAP1 PUSH2 0x2086 JUMP JUMPDEST PUSH1 0x40 MLOAD DUP1 SWAP2 SUB SWAP1 REVERT JUMPDEST POP POP POP POP POP JUMP JUMPDEST PUSH0 DUP3 PUSH2 0x1374 DUP6 DUP5 PUSH2 0x147D JUMP JUMPDEST EQ SWAP1 POP SWAP4 SWAP3 POP POP POP JUMP JUMPDEST PUSH0 PUSH2 0x139E DUP5 PUSH20 0xFFFFFFFFFFFFFFFFFFFFFFFFFFFFFFFFFFFFFFFF AND PUSH2 0x14CB JUMP JUMPDEST ISZERO PUSH2 0x1470 JUMPI PUSH4 0x150B7A02 PUSH1 0xE0 SHL PUSH28 0xFFFFFFFFFFFFFFFFFFFFFFFFFFFFFFFFFFFFFFFFFFFFFFFFFFFFFFFF NOT AND DUP5 PUSH20 0xFFFFFFFFFFFFFFFFFFFFFFFFFFFFFFFFFFFFFFFF AND PUSH4 0x150B7A02 CALLER DUP9 DUP8 DUP8 PUSH1 0x40 MLOAD DUP6 PUSH4 0xFFFFFFFF AND PUSH1 0xE0 SHL DUP2 MSTORE PUSH1 0x4 ADD PUSH2 0x1409 SWAP5 SWAP4 SWAP3 SWAP2 SWAP1 PUSH2 0x2104 JUMP JUMPDEST PUSH1 0x20 PUSH1 0x40 MLOAD DUP1 DUP4 SUB DUP2 PUSH0 DUP8 GAS CALL ISZERO DUP1 ISZERO PUSH2 0x1425 JUMPI RETURNDATASIZE PUSH0 DUP1 RETURNDATACOPY RETURNDATASIZE PUSH0 REVERT JUMPDEST POP POP POP POP PUSH1 0x40 MLOAD RETURNDATASIZE PUSH1 0x1F NOT PUSH1 0x1F DUP3 ADD AND DUP3 ADD DUP1 PUSH1 0x40 MSTORE POP DUP2 ADD SWAP1 PUSH2 0x1449 SWAP2 SWAP1 PUSH2 0x2162 JUMP JUMPDEST PUSH28 0xFFFFFFFFFFFFFFFFFFFFFFFFFFFFFFFFFFFFFFFFFFFFFFFFFFFFFFFF NOT AND EQ SWAP1 POP PUSH2 0x1475 JUMP JUMPDEST PUSH1 0x1 SWAP1 POP JUMPDEST SWAP5 SWAP4 POP POP POP POP JUMP JUMPDEST PUSH0 DUP1 DUP3 SWAP1 POP PUSH0 JUMPDEST DUP5 MLOAD DUP2 LT ISZERO PUSH2 0x14C0 JUMPI PUSH2 0x14B1 DUP3 DUP7 DUP4 DUP2 MLOAD DUP2 LT PUSH2 0x14A4 JUMPI PUSH2 0x14A3 PUSH2 0x218D JUMP JUMPDEST JUMPDEST PUSH1 0x20 MUL PUSH1 0x20 ADD ADD MLOAD PUSH2 0x14DC JUMP JUMPDEST SWAP2 POP DUP1 DUP1 PUSH1 0x1 ADD SWAP2 POP POP PUSH2 0x1484 JUMP JUMPDEST POP DUP1 SWAP2 POP POP SWAP3 SWAP2 POP POP JUMP JUMPDEST PUSH0 DUP1 DUP3 EXTCODESIZE SWAP1 POP PUSH0 DUP2 GT SWAP2 POP POP SWAP2 SWAP1 POP JUMP JUMPDEST PUSH0 DUP2 DUP4 LT PUSH2 0x1512 JUMPI DUP2 DUP4 PUSH1 0x40 MLOAD PUSH1 0x20 ADD PUSH2 0x14F7 SWAP3 SWAP2 SWAP1 PUSH2 0x21DA JUMP JUMPDEST PUSH1 0x40 MLOAD PUSH1 0x20 DUP2 DUP4 SUB SUB DUP2 MSTORE SWAP1 PUSH1 0x40 MSTORE DUP1 MLOAD SWAP1 PUSH1 0x20 ADD KECCAK256 PUSH2 0x153C JUMP JUMPDEST DUP3 DUP3 PUSH1 0x40 MLOAD PUSH1 0x20 ADD PUSH2 0x1525 SWAP3 SWAP2 SWAP1 PUSH2 0x21DA JUMP JUMPDEST PUSH1 0x40 MLOAD PUSH1 0x20 DUP2 DUP4 SUB SUB DUP2 MSTORE SWAP1 PUSH1 0x40 MSTORE DUP1 MLOAD SWAP1 PUSH1 0x20 ADD KECCAK256 JUMPDEST SWAP1 POP SWAP3 SWAP2 POP POP JUMP JUMPDEST PUSH0 PUSH1 0x40 MLOAD SWAP1 POP SWAP1 JUMP JUMPDEST PUSH0 DUP1 REVERT JUMPDEST PUSH0 DUP1 REVERT JUMPDEST PUSH0 PUSH32 0xFFFFFFFF00000000000000000000000000000000000000000000000000000000 DUP3 AND SWAP1 POP SWAP2 SWAP1 POP JUMP JUMPDEST PUSH2 0x1589 DUP2 PUSH2 0x1555 JUMP JUMPDEST DUP2 EQ PUSH2 0x1593 JUMPI PUSH0 DUP1 REVERT JUMPDEST POP JUMP JUMPDEST PUSH0 DUP2 CALLDATALOAD SWAP1 POP PUSH2 0x15A4 DUP2 PUSH2 0x1580 JUMP JUMPDEST SWAP3 SWAP2 POP POP JUMP JUMPDEST PUSH0 PUSH1 0x20 DUP3 DUP5 SUB SLT ISZERO PUSH2 0x15BF JUMPI PUSH2 0x15BE PUSH2 0x154D JUMP JUMPDEST JUMPDEST PUSH0 PUSH2 0x15CC DUP5 DUP3 DUP6 ADD PUSH2 0x1596 JUMP JUMPDEST SWAP2 POP POP SWAP3 SWAP2 POP POP JUMP JUMPDEST PUSH0 DUP2 ISZERO ISZERO SWAP1 POP SWAP2 SWAP1 POP JUMP JUMPDEST PUSH2 0x15E9 DUP2 PUSH2 0x15D5 JUMP JUMPDEST DUP3 MSTORE POP POP JUMP JUMPDEST PUSH0 PUSH1 0x20 DUP3 ADD SWAP1 POP PUSH2 0x1602 PUSH0 DUP4 ADD DUP5 PUSH2 0x15E0 JUMP JUMPDEST SWAP3 SWAP2 POP POP JUMP JUMPDEST PUSH0 DUP2 SWAP1 POP SWAP2 SWAP1 POP JUMP JUMPDEST PUSH2 0x161A DUP2 PUSH2 0x1608 JUMP JUMPDEST DUP2 EQ PUSH2 0x1624 JUMPI PUSH0 DUP1 REVERT JUMPDEST POP JUMP JUMPDEST PUSH0 DUP2 CALLDATALOAD SWAP1 POP PUSH2 0x1635 DUP2 PUSH2 0x1611 JUMP JUMPDEST SWAP3 SWAP2 POP POP JUMP JUMPDEST PUSH0 PUSH1 0x20 DUP3 DUP5 SUB SLT ISZERO PUSH2 0x1650 JUMPI PUSH2 0x164F PUSH2 0x154D JUMP JUMPDEST JUMPDEST PUSH0 PUSH2 0x165D DUP5 DUP3 DUP6 ADD PUSH2 0x1627 JUMP JUMPDEST SWAP2 POP POP SWAP3 SWAP2 POP POP JUMP JUMPDEST PUSH0 PUSH20 0xFFFFFFFFFFFFFFFFFFFFFFFFFFFFFFFFFFFFFFFF DUP3 AND SWAP1 POP SWAP2 SWAP1 POP JUMP JUMPDEST PUSH0 PUSH2 0x168F DUP3 PUSH2 0x1666 JUMP JUMPDEST SWAP1 POP SWAP2 SWAP1 POP JUMP JUMPDEST PUSH2 0x169F DUP2 PUSH2 0x1685 JUMP JUMPDEST DUP3 MSTORE POP POP JUMP JUMPDEST PUSH0 PUSH1 0x20 DUP3 ADD SWAP1 POP PUSH2 0x16B8 PUSH0 DUP4 ADD DUP5 PUSH2 0x1696 JUMP JUMPDEST SWAP3 SWAP2 POP POP JUMP JUMPDEST PUSH2 0x16C7 DUP2 PUSH2 0x1685 JUMP JUMPDEST DUP2 EQ PUSH2 0x16D1 JUMPI PUSH0 DUP1 REVERT JUMPDEST POP JUMP JUMPDEST PUSH0 DUP2 CALLDATALOAD SWAP1 POP PUSH2 0x16E2 DUP2 PUSH2 0x16BE JUMP JUMPDEST SWAP3 SWAP2 POP POP JUMP JUMPDEST PUSH0 DUP1 PUSH1 0x40 DUP4 DUP6 SUB SLT ISZERO PUSH2 0x16FE JUMPI PUSH2 0x16FD PUSH2 0x154D JUMP JUMPDEST JUMPDEST PUSH0 PUSH2 0x170B DUP6 DUP3 DUP7 ADD PUSH2 0x16D4 JUMP JUMPDEST SWAP3 POP POP PUSH1 0x20 PUSH2 0x171C DUP6 DUP3 DUP7 ADD PUSH2 0x1627 JUMP JUMPDEST SWAP2 POP POP SWAP3 POP SWAP3 SWAP1 POP JUMP JUMPDEST PUSH0 DUP1 PUSH0 PUSH1 0x60 DUP5 DUP7 SUB SLT ISZERO PUSH2 0x173D JUMPI PUSH2 0x173C PUSH2 0x154D JUMP JUMPDEST JUMPDEST PUSH0 PUSH2 0x174A DUP7 DUP3 DUP8 ADD PUSH2 0x16D4 JUMP JUMPDEST SWAP4 POP POP PUSH1 0x20 PUSH2 0x175B DUP7 DUP3 DUP8 ADD PUSH2 0x16D4 JUMP JUMPDEST SWAP3 POP POP PUSH1 0x40 PUSH2 0x176C DUP7 DUP3 DUP8 ADD PUSH2 0x1627 JUMP JUMPDEST SWAP2 POP POP SWAP3 POP SWAP3 POP SWAP3 JUMP JUMPDEST PUSH0 PUSH1 0x20 DUP3 DUP5 SUB SLT ISZERO PUSH2 0x178B JUMPI PUSH2 0x178A PUSH2 0x154D JUMP JUMPDEST JUMPDEST PUSH0 PUSH2 0x1798 DUP5 DUP3 DUP6 ADD PUSH2 0x16D4 JUMP JUMPDEST SWAP2 POP POP SWAP3 SWAP2 POP POP JUMP JUMPDEST PUSH0 DUP1 REVERT JUMPDEST PUSH0 DUP1 REVERT JUMPDEST PUSH0 DUP1 REVERT JUMPDEST PUSH0 DUP1 DUP4 PUSH1 0x1F DUP5 ADD SLT PUSH2 0x17C2 JUMPI PUSH2 0x17C1 PUSH2 0x17A1 JUMP JUMPDEST JUMPDEST DUP3 CALLDATALOAD SWAP1 POP PUSH8 0xFFFFFFFFFFFFFFFF DUP2 GT ISZERO PUSH2 0x17DF JUMPI PUSH2 0x17DE PUSH2 0x17A5 JUMP JUMPDEST JUMPDEST PUSH1 0x20 DUP4 ADD SWAP2 POP DUP4 PUSH1 0x20 DUP3 MUL DUP4 ADD GT ISZERO PUSH2 0x17FB JUMPI PUSH2 0x17FA PUSH2 0x17A9 JUMP JUMPDEST JUMPDEST SWAP3 POP SWAP3 SWAP1 POP JUMP JUMPDEST PUSH0 DUP1 PUSH0 DUP1 PUSH1 0x60 DUP6 DUP8 SUB SLT ISZERO PUSH2 0x181A JUMPI PUSH2 0x1819 PUSH2 0x154D JUMP JUMPDEST JUMPDEST PUSH0 PUSH2 0x1827 DUP8 DUP3 DUP9 ADD PUSH2 0x16D4 JUMP JUMPDEST SWAP5 POP POP PUSH1 0x20 PUSH2 0x1838 DUP8 DUP3 DUP9 ADD PUSH2 0x1627 JUMP JUMPDEST SWAP4 POP POP PUSH1 0x40 DUP6 ADD CALLDATALOAD PUSH8 0xFFFFFFFFFFFFFFFF DUP2 GT ISZERO PUSH2 0x1859 JUMPI PUSH2 0x1858 PUSH2 0x1551 JUMP JUMPDEST JUMPDEST PUSH2 0x1865 DUP8 DUP3 DUP9 ADD PUSH2 0x17AD JUMP JUMPDEST SWAP3 POP SWAP3 POP POP SWAP3 SWAP6 SWAP2 SWAP5 POP SWAP3 POP JUMP JUMPDEST PUSH2 0x187C DUP2 PUSH2 0x1608 JUMP JUMPDEST DUP3 MSTORE POP POP JUMP JUMPDEST PUSH0 PUSH1 0x20 DUP3 ADD SWAP1 POP PUSH2 0x1895 PUSH0 DUP4 ADD DUP5 PUSH2 0x1873 JUMP JUMPDEST SWAP3 SWAP2 POP POP JUMP JUMPDEST PUSH2 0x18A4 DUP2 PUSH2 0x15D5 JUMP JUMPDEST DUP2 EQ PUSH2 0x18AE JUMPI PUSH0 DUP1 REVERT JUMPDEST POP JUMP JUMPDEST PUSH0 DUP2 CALLDATALOAD SWAP1 POP PUSH2 0x18BF DUP2 PUSH2 0x189B JUMP JUMPDEST SWAP3 SWAP2 POP POP JUMP JUMPDEST PUSH0 DUP1 PUSH1 0x40 DUP4 DUP6 SUB SLT ISZERO PUSH2 0x18DB JUMPI PUSH2 0x18DA PUSH2 0x154D JUMP JUMPDEST JUMPDEST PUSH0 PUSH2 0x18E8 DUP6 DUP3 DUP7 ADD PUSH2 0x16D4 JUMP JUMPDEST SWAP3 POP POP PUSH1 0x20 PUSH2 0x18F9 DUP6 DUP3 DUP7 ADD PUSH2 0x18B1 JUMP JUMPDEST SWAP2 POP POP SWAP3 POP SWAP3 SWAP1 POP JUMP JUMPDEST PUSH0 DUP1 REVERT JUMPDEST PUSH0 PUSH1 0x1F NOT PUSH1 0x1F DUP4 ADD AND SWAP1 POP SWAP2 SWAP1 POP JUMP JUMPDEST PUSH32 0x4E487B7100000000000000000000000000000000000000000000000000000000 PUSH0 MSTORE PUSH1 0x41 PUSH1 0x4 MSTORE PUSH1 0x24 PUSH0 REVERT JUMPDEST PUSH2 0x194D DUP3 PUSH2 0x1907 JUMP JUMPDEST DUP2 ADD DUP2 DUP2 LT PUSH8 0xFFFFFFFFFFFFFFFF DUP3 GT OR ISZERO PUSH2 0x196C JUMPI PUSH2 0x196B PUSH2 0x1917 JUMP JUMPDEST JUMPDEST DUP1 PUSH1 0x40 MSTORE POP POP POP JUMP JUMPDEST PUSH0 PUSH2 0x197E PUSH2 0x1544 JUMP JUMPDEST SWAP1 POP PUSH2 0x198A DUP3 DUP3 PUSH2 0x1944 JUMP JUMPDEST SWAP2 SWAP1 POP JUMP JUMPDEST PUSH0 PUSH8 0xFFFFFFFFFFFFFFFF DUP3 GT ISZERO PUSH2 0x19A9 JUMPI PUSH2 0x19A8 PUSH2 0x1917 JUMP JUMPDEST JUMPDEST PUSH2 0x19B2 DUP3 PUSH2 0x1907 JUMP JUMPDEST SWAP1 POP PUSH1 0x20 DUP2 ADD SWAP1 POP SWAP2 SWAP1 POP JUMP JUMPDEST DUP3 DUP2 DUP4 CALLDATACOPY PUSH0 DUP4 DUP4 ADD MSTORE POP POP POP JUMP JUMPDEST PUSH0 PUSH2 0x19DF PUSH2 0x19DA DUP5 PUSH2 0x198F JUMP JUMPDEST PUSH2 0x1975 JUMP JUMPDEST SWAP1 POP DUP3 DUP2 MSTORE PUSH1 0x20 DUP2 ADD DUP5 DUP5 DUP5 ADD GT ISZERO PUSH2 0x19FB JUMPI PUSH2 0x19FA PUSH2 0x1903 JUMP JUMPDEST JUMPDEST PUSH2 0x1A06 DUP5 DUP3 DUP6 PUSH2 0x19BF JUMP JUMPDEST POP SWAP4 SWAP3 POP POP POP JUMP JUMPDEST PUSH0 DUP3 PUSH1 0x1F DUP4 ADD SLT PUSH2 0x1A22 JUMPI PUSH2 0x1A21 PUSH2 0x17A1 JUMP JUMPDEST JUMPDEST DUP2 CALLDATALOAD PUSH2 0x1A32 DUP5 DUP3 PUSH1 0x20 DUP7 ADD PUSH2 0x19CD JUMP JUMPDEST SWAP2 POP POP SWAP3 SWAP2 POP POP JUMP JUMPDEST PUSH0 DUP1 PUSH0 DUP1 PUSH1 0x80 DUP6 DUP8 SUB SLT ISZERO PUSH2 0x1A53 JUMPI PUSH2 0x1A52 PUSH2 0x154D JUMP JUMPDEST JUMPDEST PUSH0 PUSH2 0x1A60 DUP8 DUP3 DUP9 ADD PUSH2 0x16D4 JUMP JUMPDEST SWAP5 POP POP PUSH1 0x20 PUSH2 0x1A71 DUP8 DUP3 DUP9 ADD PUSH2 0x16D4 JUMP JUMPDEST SWAP4 POP POP PUSH1 0x40 PUSH2 0x1A82 DUP8 DUP3 DUP9 ADD PUSH2 0x1627 JUMP JUMPDEST SWAP3 POP POP PUSH1 0x60 DUP6 ADD CALLDATALOAD PUSH8 0xFFFFFFFFFFFFFFFF DUP2 GT ISZERO PUSH2 0x1AA3 JUMPI PUSH2 0x1AA2 PUSH2 0x1551 JUMP JUMPDEST JUMPDEST PUSH2 0x1AAF DUP8 DUP3 DUP9 ADD PUSH2 0x1A0E JUMP JUMPDEST SWAP2 POP POP SWAP3 SWAP6 SWAP2 SWAP5 POP SWAP3 POP JUMP JUMPDEST PUSH0 DUP1 PUSH1 0x40 DUP4 DUP6 SUB SLT ISZERO PUSH2 0x1AD1 JUMPI PUSH2 0x1AD0 PUSH2 0x154D JUMP JUMPDEST JUMPDEST PUSH0 PUSH2 0x1ADE DUP6 DUP3 DUP7 ADD PUSH2 0x16D4 JUMP JUMPDEST SWAP3 POP POP PUSH1 0x20 PUSH2 0x1AEF DUP6 DUP3 DUP7 ADD PUSH2 0x16D4 JUMP JUMPDEST SWAP2 POP POP SWAP3 POP SWAP3 SWAP1 POP JUMP JUMPDEST PUSH0 DUP2 SWAP1 POP SWAP2 SWAP1 POP JUMP JUMPDEST PUSH2 0x1B0B DUP2 PUSH2 0x1AF9 JUMP JUMPDEST DUP3 MSTORE POP POP JUMP JUMPDEST PUSH0 PUSH1 0x20 DUP3 ADD SWAP1 POP PUSH2 0x1B24 PUSH0 DUP4 ADD DUP5 PUSH2 0x1B02 JUMP JUMPDEST SWAP3 SWAP2 POP POP JUMP JUMPDEST PUSH0 DUP3 DUP3 MSTORE PUSH1 0x20 DUP3 ADD SWAP1 POP SWAP3 SWAP2 POP POP JUMP JUMPDEST PUSH32 0x746F6B656E20646F65736E277420657869737400000000000000000000000000 PUSH0 DUP3 ADD MSTORE POP JUMP JUMPDEST PUSH0 PUSH2 0x1B6E PUSH1 0x13 DUP4 PUSH2 0x1B2A JUMP JUMPDEST SWAP2 POP PUSH2 0x1B79 DUP3 PUSH2 0x1B3A JUMP JUMPDEST PUSH1 0x20 DUP3 ADD SWAP1 POP SWAP2 SWAP1 POP JUMP JUMPDEST PUSH0 PUSH1 0x20 DUP3 ADD SWAP1 POP DUP2 DUP2 SUB PUSH0 DUP4 ADD MSTORE PUSH2 0x1B9B DUP2 PUSH2 0x1B62 JUMP JUMPDEST SWAP1 POP SWAP2 SWAP1 POP JUMP JUMPDEST PUSH32 0x6E6F74206F776E6572206E6F7220617070726F76656420666F7220616C6C0000 PUSH0 DUP3 ADD MSTORE POP JUMP JUMPDEST PUSH0 PUSH2 0x1BD6 PUSH1 0x1E DUP4 PUSH2 0x1B2A JUMP JUMPDEST SWAP2 POP PUSH2 0x1BE1 DUP3 PUSH2 0x1BA2 JUMP JUMPDEST PUSH1 0x20 DUP3 ADD SWAP1 POP SWAP2 SWAP1 POP JUMP JUMPDEST PUSH0 PUSH1 0x20 DUP3 ADD SWAP1 POP DUP2 DUP2 SUB PUSH0 DUP4 ADD MSTORE PUSH2 0x1C03 DUP2 PUSH2 0x1BCA JUMP JUMPDEST SWAP1 POP SWAP2 SWAP1 POP JUMP JUMPDEST PUSH32 0x6E6F74206F776E6572206E6F7220617070726F76656400000000000000000000 PUSH0 DUP3 ADD MSTORE POP JUMP JUMPDEST PUSH0 PUSH2 0x1C3E PUSH1 0x16 DUP4 PUSH2 0x1B2A JUMP JUMPDEST SWAP2 POP PUSH2 0x1C49 DUP3 PUSH2 0x1C0A JUMP JUMPDEST PUSH1 0x20 DUP3 ADD SWAP1 POP SWAP2 SWAP1 POP JUMP JUMPDEST PUSH0 PUSH1 0x20 DUP3 ADD SWAP1 POP DUP2 DUP2 SUB PUSH0 DUP4 ADD MSTORE PUSH2 0x1C6B DUP2 PUSH2 0x1C32 JUMP JUMPDEST SWAP1 POP SWAP2 SWAP1 POP JUMP JUMPDEST PUSH32 0x6D696E7420746F207A65726F2061646472657373000000000000000000000000 PUSH0 DUP3 ADD MSTORE POP JUMP JUMPDEST PUSH0 PUSH2 0x1CA6 PUSH1 0x14 DUP4 PUSH2 0x1B2A JUMP JUMPDEST SWAP2 POP PUSH2 0x1CB1 DUP3 PUSH2 0x1C72 JUMP JUMPDEST PUSH1 0x20 DUP3 ADD SWAP1 POP SWAP2 SWAP1 POP JUMP JUMPDEST PUSH0 PUSH1 0x20 DUP3 ADD SWAP1 POP DUP2 DUP2 SUB PUSH0 DUP4 ADD MSTORE PUSH2 0x1CD3 DUP2 PUSH2 0x1C9A JUMP JUMPDEST SWAP1 POP SWAP2 SWAP1 POP JUMP JUMPDEST PUSH32 0x746F6B656E20616C7265616479206D696E746564000000000000000000000000 PUSH0 DUP3 ADD MSTORE POP JUMP JUMPDEST PUSH0 PUSH2 0x1D0E PUSH1 0x14 DUP4 PUSH2 0x1B2A JUMP JUMPDEST SWAP2 POP PUSH2 0x1D19 DUP3 PUSH2 0x1CDA JUMP JUMPDEST PUSH1 0x20 DUP3 ADD SWAP1 POP SWAP2 SWAP1 POP JUMP JUMPDEST PUSH0 PUSH1 0x20 DUP3 ADD SWAP1 POP DUP2 DUP2 SUB PUSH0 DUP4 ADD MSTORE PUSH2 0x1D3B DUP2 PUSH2 0x1D02 JUMP JUMPDEST SWAP1 POP SWAP2 SWAP1 POP JUMP JUMPDEST PUSH32 0x4E487B7100000000000000000000000000000000000000000000000000000000 PUSH0 MSTORE PUSH1 0x11 PUSH1 0x4 MSTORE PUSH1 0x24 PUSH0 REVERT JUMPDEST PUSH0 PUSH2 0x1D79 DUP3 PUSH2 0x1608 JUMP JUMPDEST SWAP2 POP PUSH2 0x1D84 DUP4 PUSH2 0x1608 JUMP JUMPDEST SWAP3 POP DUP3 DUP3 ADD SWAP1 POP DUP1 DUP3 GT ISZERO PUSH2 0x1D9C JUMPI PUSH2 0x1D9B PUSH2 0x1D42 JUMP JUMPDEST JUMPDEST SWAP3 SWAP2 POP POP JUMP JUMPDEST PUSH0 PUSH2 0x1DAC DUP3 PUSH2 0x1608 JUMP JUMPDEST SWAP2 POP PUSH2 0x1DB7 DUP4 PUSH2 0x1608 JUMP JUMPDEST SWAP3 POP DUP3 DUP3 SUB SWAP1 POP DUP2 DUP2 GT ISZERO PUSH2 0x1DCF JUMPI PUSH2 0x1DCE PUSH2 0x1D42 JUMP JUMPDEST JUMPDEST SWAP3 SWAP2 POP POP JUMP JUMPDEST PUSH32 0x496E76616C6964206D65726B6C652070726F6F66000000000000000000000000 PUSH0 DUP3 ADD MSTORE POP JUMP JUMPDEST PUSH0 PUSH2 0x1E09 PUSH1 0x14 DUP4 PUSH2 0x1B2A JUMP JUMPDEST SWAP2 POP PUSH2 0x1E14 DUP3 PUSH2 0x1DD5 JUMP JUMPDEST PUSH1 0x20 DUP3 ADD SWAP1 POP SWAP2 SWAP1 POP JUMP JUMPDEST PUSH0 PUSH1 0x20 DUP3 ADD SWAP1 POP DUP2 DUP2 SUB PUSH0 DUP4 ADD MSTORE PUSH2 0x1E36 DUP2 PUSH2 0x1DFD JUMP JUMPDEST SWAP1 POP SWAP2 SWAP1 POP JUMP JUMPDEST PUSH32 0x416C7265616479206D696E746564210000000000000000000000000000000000 PUSH0 DUP3 ADD MSTORE POP JUMP JUMPDEST PUSH0 PUSH2 0x1E71 PUSH1 0xF DUP4 PUSH2 0x1B2A JUMP JUMPDEST SWAP2 POP PUSH2 0x1E7C DUP3 PUSH2 0x1E3D JUMP JUMPDEST PUSH1 0x20 DUP3 ADD SWAP1 POP SWAP2 SWAP1 POP JUMP JUMPDEST PUSH0 PUSH1 0x20 DUP3 ADD SWAP1 POP DUP2 DUP2 SUB PUSH0 DUP4 ADD MSTORE PUSH2 0x1E9E DUP2 PUSH2 0x1E65 JUMP JUMPDEST SWAP1 POP SWAP2 SWAP1 POP JUMP JUMPDEST PUSH32 0x6F776E6572203D207A65726F2061646472657373000000000000000000000000 PUSH0 DUP3 ADD MSTORE POP JUMP JUMPDEST PUSH0 PUSH2 0x1ED9 PUSH1 0x14 DUP4 PUSH2 0x1B2A JUMP JUMPDEST SWAP2 POP PUSH2 0x1EE4 DUP3 PUSH2 0x1EA5 JUMP JUMPDEST PUSH1 0x20 DUP3 ADD SWAP1 POP SWAP2 SWAP1 POP JUMP JUMPDEST PUSH0 PUSH1 0x20 DUP3 ADD SWAP1 POP DUP2 DUP2 SUB PUSH0 DUP4 ADD MSTORE PUSH2 0x1F06 DUP2 PUSH2 0x1ECD JUMP JUMPDEST SWAP1 POP SWAP2 SWAP1 POP JUMP JUMPDEST PUSH32 0x6E6F74206F776E65720000000000000000000000000000000000000000000000 PUSH0 DUP3 ADD MSTORE POP JUMP JUMPDEST PUSH0 PUSH2 0x1F41 PUSH1 0x9 DUP4 PUSH2 0x1B2A JUMP JUMPDEST SWAP2 POP PUSH2 0x1F4C DUP3 PUSH2 0x1F0D JUMP JUMPDEST PUSH1 0x20 DUP3 ADD SWAP1 POP SWAP2 SWAP1 POP JUMP JUMPDEST PUSH0 PUSH1 0x20 DUP3 ADD SWAP1 POP DUP2 DUP2 SUB PUSH0 DUP4 ADD MSTORE PUSH2 0x1F6E DUP2 PUSH2 0x1F35 JUMP JUMPDEST SWAP1 POP SWAP2 SWAP1 POP JUMP JUMPDEST PUSH32 0x7472616E7366657220746F20746865207A65726F206164647265737300000000 PUSH0 DUP3 ADD MSTORE POP JUMP JUMPDEST PUSH0 PUSH2 0x1FA9 PUSH1 0x1C DUP4 PUSH2 0x1B2A JUMP JUMPDEST SWAP2 POP PUSH2 0x1FB4 DUP3 PUSH2 0x1F75 JUMP JUMPDEST PUSH1 0x20 DUP3 ADD SWAP1 POP SWAP2 SWAP1 POP JUMP JUMPDEST PUSH0 PUSH1 0x20 DUP3 ADD SWAP1 POP DUP2 DUP2 SUB PUSH0 DUP4 ADD MSTORE PUSH2 0x1FD6 DUP2 PUSH2 0x1F9D JUMP JUMPDEST SWAP1 POP SWAP2 SWAP1 POP JUMP JUMPDEST PUSH0 DUP2 PUSH1 0x60 SHL SWAP1 POP SWAP2 SWAP1 POP JUMP JUMPDEST PUSH0 PUSH2 0x1FF3 DUP3 PUSH2 0x1FDD JUMP JUMPDEST SWAP1 POP SWAP2 SWAP1 POP JUMP JUMPDEST PUSH0 PUSH2 0x2004 DUP3 PUSH2 0x1FE9 JUMP JUMPDEST SWAP1 POP SWAP2 SWAP1 POP JUMP JUMPDEST PUSH2 0x201C PUSH2 0x2017 DUP3 PUSH2 0x1685 JUMP JUMPDEST PUSH2 0x1FFA JUMP JUMPDEST DUP3 MSTORE POP POP JUMP JUMPDEST PUSH0 PUSH2 0x202D DUP3 DUP5 PUSH2 0x200B JUMP JUMPDEST PUSH1 0x14 DUP3 ADD SWAP2 POP DUP2 SWAP1 POP SWAP3 SWAP2 POP POP JUMP JUMPDEST PUSH32 0x6E6F742045524337323152656365697665720000000000000000000000000000 PUSH0 DUP3 ADD MSTORE POP JUMP JUMPDEST PUSH0 PUSH2 0x2070 PUSH1 0x12 DUP4 PUSH2 0x1B2A JUMP JUMPDEST SWAP2 POP PUSH2 0x207B DUP3 PUSH2 0x203C JUMP JUMPDEST PUSH1 0x20 DUP3 ADD SWAP1 POP SWAP2 SWAP1 POP JUMP JUMPDEST PUSH0 PUSH1 0x20 DUP3 ADD SWAP1 POP DUP2 DUP2 SUB PUSH0 DUP4 ADD MSTORE PUSH2 0x209D DUP2 PUSH2 0x2064 JUMP JUMPDEST SWAP1 POP SWAP2 SWAP1 POP JUMP JUMPDEST PUSH0 DUP2 MLOAD SWAP1 POP SWAP2 SWAP1 POP JUMP JUMPDEST PUSH0 DUP3 DUP3 MSTORE PUSH1 0x20 DUP3 ADD SWAP1 POP SWAP3 SWAP2 POP POP JUMP JUMPDEST DUP3 DUP2 DUP4 MCOPY PUSH0 DUP4 DUP4 ADD MSTORE POP POP POP JUMP JUMPDEST PUSH0 PUSH2 0x20D6 DUP3 PUSH2 0x20A4 JUMP JUMPDEST PUSH2 0x20E0 DUP2 DUP6 PUSH2 0x20AE JUMP JUMPDEST SWAP4 POP PUSH2 0x20F0 DUP2 DUP6 PUSH1 0x20 DUP7 ADD PUSH2 0x20BE JUMP JUMPDEST PUSH2 0x20F9 DUP2 PUSH2 0x1907 JUMP JUMPDEST DUP5 ADD SWAP2 POP POP SWAP3 SWAP2 POP POP JUMP JUMPDEST PUSH0 PUSH1 0x80 DUP3 ADD SWAP1 POP PUSH2 0x2117 PUSH0 DUP4 ADD DUP8 PUSH2 0x1696 JUMP JUMPDEST PUSH2 0x2124 PUSH1 0x20 DUP4 ADD DUP7 PUSH2 0x1696 JUMP JUMPDEST PUSH2 0x2131 PUSH1 0x40 DUP4 ADD DUP6 PUSH2 0x1873 JUMP JUMPDEST DUP2 DUP2 SUB PUSH1 0x60 DUP4 ADD MSTORE PUSH2 0x2143 DUP2 DUP5 PUSH2 0x20CC JUMP JUMPDEST SWAP1 POP SWAP6 SWAP5 POP POP POP POP POP JUMP JUMPDEST PUSH0 DUP2 MLOAD SWAP1 POP PUSH2 0x215C DUP2 PUSH2 0x1580 JUMP JUMPDEST SWAP3 SWAP2 POP POP JUMP JUMPDEST PUSH0 PUSH1 0x20 DUP3 DUP5 SUB SLT ISZERO PUSH2 0x2177 JUMPI PUSH2 0x2176 PUSH2 0x154D JUMP JUMPDEST JUMPDEST PUSH0 PUSH2 0x2184 DUP5 DUP3 DUP6 ADD PUSH2 0x214E JUMP JUMPDEST SWAP2 POP POP SWAP3 SWAP2 POP POP JUMP JUMPDEST PUSH32 0x4E487B7100000000000000000000000000000000000000000000000000000000 PUSH0 MSTORE PUSH1 0x32 PUSH1 0x4 MSTORE PUSH1 0x24 PUSH0 REVERT JUMPDEST PUSH0 DUP2 SWAP1 POP SWAP2 SWAP1 POP JUMP JUMPDEST PUSH2 0x21D4 PUSH2 0x21CF DUP3 PUSH2 0x1AF9 JUMP JUMPDEST PUSH2 0x21BA JUMP JUMPDEST DUP3 MSTORE POP POP JUMP JUMPDEST PUSH0 PUSH2 0x21E5 DUP3 DUP6 PUSH2 0x21C3 JUMP JUMPDEST PUSH1 0x20 DUP3 ADD SWAP2 POP PUSH2 0x21F5 DUP3 DUP5 PUSH2 0x21C3 JUMP JUMPDEST PUSH1 0x20 DUP3 ADD SWAP2 POP DUP2 SWAP1 POP SWAP4 SWAP3 POP POP POP JUMP INVALID LOG2 PUSH5 0x6970667358 0x22 SLT KECCAK256 DUP5 0x4D 0xFB DIV SWAP13 0xCA 0xB5 DIV DUP13 0xB6 SWAP8 0xC 0xBB 0xDF EXP BLOBHASH SWAP16 0xF 0x2D SWAP14 0xD1 SWAP6 0xCD SWAP8 GAS CALLER PUSH9 0xF4D657E43364736F6C PUSH4 0x4300081A STOP CALLER "
				},
				"gasEstimates": {
					"creation": {
						"codeDepositCost": "1752600",
						"executionCost": "infinite",
						"totalCost": "infinite"
					},
					"external": {
						"approve(address,uint256)": "31581",
						"balanceOf(address)": "2953",
						"burn(uint256)": "infinite",
						"getApproved(uint256)": "5144",
						"isApprovedForAll(address,address)": "infinite",
						"mint(address,uint256)": "infinite",
						"mint(address,uint256,bytes32[])": "infinite",
						"mintedAddress(address)": "2856",
						"ownerOf(uint256)": "2983",
						"root()": "infinite",
						"safeTransferFrom(address,address,uint256)": "infinite",
						"safeTransferFrom(address,address,uint256,bytes)": "infinite",
						"setApprovalForAll(address,bool)": "infinite",
						"supportsInterface(bytes4)": "699",
						"transferFrom(address,address,uint256)": "infinite"
					},
					"internal": {
						"_leaf(address)": "infinite",
						"_verify(bytes32,bytes32[] memory)": "infinite"
					}
				},
				"methodIdentifiers": {
					"approve(address,uint256)": "095ea7b3",
					"balanceOf(address)": "70a08231",
					"burn(uint256)": "42966c68",
					"getApproved(uint256)": "081812fc",
					"isApprovedForAll(address,address)": "e985e9c5",
					"mint(address,uint256)": "40c10f19",
					"mint(address,uint256,bytes32[])": "641ce140",
					"mintedAddress(address)": "630303c6",
					"ownerOf(uint256)": "6352211e",
					"root()": "ebf0c717",
					"safeTransferFrom(address,address,uint256)": "42842e0e",
					"safeTransferFrom(address,address,uint256,bytes)": "b88d4fde",
					"setApprovalForAll(address,bool)": "a22cb465",
					"supportsInterface(bytes4)": "01ffc9a7",
					"transferFrom(address,address,uint256)": "23b872dd"
				}
			},
			"storageLayout": {
				"storage": [
					{
						"astId": 132,
						"contract": "contracts/MerkleTree.sol:MerkleTree",
						"label": "_owners",
						"offset": 0,
						"slot": "0",
						"type": "t_mapping(t_uint256,t_address)"
					},
					{
						"astId": 136,
						"contract": "contracts/MerkleTree.sol:MerkleTree",
						"label": "_balances",
						"offset": 0,
						"slot": "1",
						"type": "t_mapping(t_address,t_uint256)"
					},
					{
						"astId": 140,
						"contract": "contracts/MerkleTree.sol:MerkleTree",
						"label": "_tokenApprovals",
						"offset": 0,
						"slot": "2",
						"type": "t_mapping(t_uint256,t_address)"
					},
					{
						"astId": 146,
						"contract": "contracts/MerkleTree.sol:MerkleTree",
						"label": "_operatorApprovals",
						"offset": 0,
						"slot": "3",
						"type": "t_mapping(t_address,t_mapping(t_address,t_bool))"
					},
					{
						"astId": 714,
						"contract": "contracts/MerkleTree.sol:MerkleTree",
						"label": "mintedAddress",
						"offset": 0,
						"slot": "4",
						"type": "t_mapping(t_address,t_bool)"
					}
				],
				"types": {
					"t_address": {
						"encoding": "inplace",
						"label": "address",
						"numberOfBytes": "20"
					},
					"t_bool": {
						"encoding": "inplace",
						"label": "bool",
						"numberOfBytes": "1"
					},
					"t_mapping(t_address,t_bool)": {
						"encoding": "mapping",
						"key": "t_address",
						"label": "mapping(address => bool)",
						"numberOfBytes": "32",
						"value": "t_bool"
					},
					"t_mapping(t_address,t_mapping(t_address,t_bool))": {
						"encoding": "mapping",
						"key": "t_address",
						"label": "mapping(address => mapping(address => bool))",
						"numberOfBytes": "32",
						"value": "t_mapping(t_address,t_bool)"
					},
					"t_mapping(t_address,t_uint256)": {
						"encoding": "mapping",
						"key": "t_address",
						"label": "mapping(address => uint256)",
						"numberOfBytes": "32",
						"value": "t_uint256"
					},
					"t_mapping(t_uint256,t_address)": {
						"encoding": "mapping",
						"key": "t_uint256",
						"label": "mapping(uint256 => address)",
						"numberOfBytes": "32",
						"value": "t_address"
					},
					"t_uint256": {
						"encoding": "inplace",
						"label": "uint256",
						"numberOfBytes": "32"
					}
				}
			},
			"userdoc": {
				"kind": "user",
				"methods": {},
				"version": 1
			}
		}
	}
}