{
	"contracts/DutchAuction.sol": {
		"DutchAuction": {
			"abi": [
				{
					"inputs": [
						{
							"internalType": "address",
							"name": "_nft",
							"type": "address"
						},
						{
							"internalType": "uint256",
							"name": "_nftId",
							"type": "uint256"
						},
						{
							"internalType": "uint256",
							"name": "_startingPrice",
							"type": "uint256"
						},
						{
							"internalType": "uint256",
							"name": "_discountRate",
							"type": "uint256"
						}
					],
					"stateMutability": "nonpayable",
					"type": "constructor"
				},
				{
					"inputs": [],
					"name": "DURATION",
					"outputs": [
						{
							"internalType": "uint256",
							"name": "",
							"type": "uint256"
						}
					],
					"stateMutability": "view",
					"type": "function"
				},
				{
					"inputs": [],
					"name": "buy",
					"outputs": [],
					"stateMutability": "payable",
					"type": "function"
				},
				{
					"inputs": [],
					"name": "discountRate",
					"outputs": [
						{
							"internalType": "uint256",
							"name": "",
							"type": "uint256"
						}
					],
					"stateMutability": "view",
					"type": "function"
				},
				{
					"inputs": [],
					"name": "expireAt",
					"outputs": [
						{
							"internalType": "uint256",
							"name": "",
							"type": "uint256"
						}
					],
					"stateMutability": "view",
					"type": "function"
				},
				{
					"inputs": [],
					"name": "getPrice",
					"outputs": [
						{
							"internalType": "uint256",
							"name": "",
							"type": "uint256"
						}
					],
					"stateMutability": "view",
					"type": "function"
				},
				{
					"inputs": [],
					"name": "nft",
					"outputs": [
						{
							"internalType": "contract IERC721",
							"name": "",
							"type": "address"
						}
					],
					"stateMutability": "view",
					"type": "function"
				},
				{
					"inputs": [],
					"name": "nftId",
					"outputs": [
						{
							"internalType": "uint256",
							"name": "",
							"type": "uint256"
						}
					],
					"stateMutability": "view",
					"type": "function"
				},
				{
					"inputs": [],
					"name": "seller",
					"outputs": [
						{
							"internalType": "address payable",
							"name": "",
							"type": "address"
						}
					],
					"stateMutability": "view",
					"type": "function"
				},
				{
					"inputs": [],
					"name": "startAt",
					"outputs": [
						{
							"internalType": "uint256",
							"name": "",
							"type": "uint256"
						}
					],
					"stateMutability": "view",
					"type": "function"
				},
				{
					"inputs": [],
					"name": "startingPrice",
					"outputs": [
						{
							"internalType": "uint256",
							"name": "",
							"type": "uint256"
						}
					],
					"stateMutability": "view",
					"type": "function"
				}
			],
			"devdoc": {
				"kind": "dev",
				"methods": {},
				"version": 1
			},
			"evm": {
				"assembly": "    /* \"contracts/DutchAuction.sol\":170:1779  contract DutchAuction {... */\n  mstore(0x40, 0x0180)\n    /* \"contracts/DutchAuction.sol\":470:476  7 days */\n  0x093a80\n    /* \"contracts/DutchAuction.sol\":437:476  uint public immutable DURATION = 7 days */\n  0x0140\n  swap1\n  dup2\n  mstore\n  pop\n    /* \"contracts/DutchAuction.sol\":522:1010  constructor(address _nft,uint _nftId,uint _startingPrice, uint  _discountRate){... */\n  callvalue\n  dup1\n  iszero\n  tag_1\n  jumpi\n  0x00\n  dup1\n  revert\ntag_1:\n  pop\n  mload(0x40)\n  sub(codesize, bytecodeSize)\n  dup1\n  bytecodeSize\n  dup4\n  codecopy\n  dup2\n  dup2\n  add\n  0x40\n  mstore\n  dup2\n  add\n  swap1\n  tag_2\n  swap2\n  swap1\n  tag_3\n  jump\t// in\ntag_2:\n    /* \"contracts/DutchAuction.sol\":625:629  _nft */\n  dup4\n    /* \"contracts/DutchAuction.sol\":611:630  nft = IERC721(_nft) */\n  0xffffffffffffffffffffffffffffffffffffffff\n  and\n  0x80\n  dup2\n  0xffffffffffffffffffffffffffffffffffffffff\n  and\n  dup2\n  mstore\n  pop\n  pop\n    /* \"contracts/DutchAuction.sol\":649:655  _nftId */\n  dup3\n    /* \"contracts/DutchAuction.sol\":641:655  nftId = _nftId */\n  0xa0\n  dup2\n  dup2\n  mstore\n  pop\n  pop\n    /* \"contracts/DutchAuction.sol\":729:739  msg.sender */\n  caller\n    /* \"contracts/DutchAuction.sol\":712:740  seller = payable(msg.sender) */\n  0xffffffffffffffffffffffffffffffffffffffff\n  and\n  0xc0\n  dup2\n  0xffffffffffffffffffffffffffffffffffffffff\n  and\n  dup2\n  mstore\n  pop\n  pop\n    /* \"contracts/DutchAuction.sol\":769:783  _startingPrice */\n  dup2\n    /* \"contracts/DutchAuction.sol\":753:783  startingPrice = _startingPrice */\n  0xe0\n  dup2\n  dup2\n  mstore\n  pop\n  pop\n    /* \"contracts/DutchAuction.sol\":809:822  _discountRate */\n  dup1\n    /* \"contracts/DutchAuction.sol\":794:822  discountRate = _discountRate */\n  0x0100\n  dup2\n  dup2\n  mstore\n  pop\n  pop\n    /* \"contracts/DutchAuction.sol\":873:881  DURATION */\n  mload(0x0140)\n    /* \"contracts/DutchAuction.sol\":860:872  discountRate */\n  mload(0x0100)\n    /* \"contracts/DutchAuction.sol\":860:881  discountRate*DURATION */\n  tag_6\n  swap2\n  swap1\n  tag_7\n  jump\t// in\ntag_6:\n    /* \"contracts/DutchAuction.sol\":843:856  startingPrice */\n  mload(0xe0)\n    /* \"contracts/DutchAuction.sol\":843:881  startingPrice >= discountRate*DURATION */\n  lt\n  iszero\n    /* \"contracts/DutchAuction.sol\":835:922  require(startingPrice >= discountRate*DURATION,\"startingPrice < discountRate*DURATION\") */\n  tag_8\n  jumpi\n  mload(0x40)\n  0x08c379a000000000000000000000000000000000000000000000000000000000\n  dup2\n  mstore\n  0x04\n  add\n  tag_9\n  swap1\n  tag_10\n  jump\t// in\ntag_9:\n  mload(0x40)\n  dup1\n  swap2\n  sub\n  swap1\n  revert\ntag_8:\n    /* \"contracts/DutchAuction.sol\":945:960  block.timestamp */\n  timestamp\n    /* \"contracts/DutchAuction.sol\":935:960  startAt = block.timestamp */\n  0x0120\n  dup2\n  dup2\n  mstore\n  pop\n  pop\n    /* \"contracts/DutchAuction.sol\":992:1000  DURATION */\n  mload(0x0140)\n    /* \"contracts/DutchAuction.sol\":982:989  startAt */\n  mload(0x0120)\n    /* \"contracts/DutchAuction.sol\":982:1000  startAt + DURATION */\n  tag_11\n  swap2\n  swap1\n  tag_12\n  jump\t// in\ntag_11:\n    /* \"contracts/DutchAuction.sol\":971:1000  expireAt = startAt + DURATION */\n  0x0160\n  dup2\n  dup2\n  mstore\n  pop\n  pop\n    /* \"contracts/DutchAuction.sol\":522:1010  constructor(address _nft,uint _nftId,uint _startingPrice, uint  _discountRate){... */\n  pop\n  pop\n  pop\n  pop\n    /* \"contracts/DutchAuction.sol\":170:1779  contract DutchAuction {... */\n  jump(tag_13)\n    /* \"#utility.yul\":88:205   */\ntag_15:\n    /* \"#utility.yul\":197:198   */\n  0x00\n    /* \"#utility.yul\":194:195   */\n  dup1\n    /* \"#utility.yul\":187:199   */\n  revert\n    /* \"#utility.yul\":334:460   */\ntag_17:\n    /* \"#utility.yul\":371:378   */\n  0x00\n    /* \"#utility.yul\":411:453   */\n  0xffffffffffffffffffffffffffffffffffffffff\n    /* \"#utility.yul\":404:409   */\n  dup3\n    /* \"#utility.yul\":400:454   */\n  and\n    /* \"#utility.yul\":389:454   */\n  swap1\n  pop\n    /* \"#utility.yul\":334:460   */\n  swap2\n  swap1\n  pop\n  jump\t// out\n    /* \"#utility.yul\":466:562   */\ntag_18:\n    /* \"#utility.yul\":503:510   */\n  0x00\n    /* \"#utility.yul\":532:556   */\n  tag_34\n    /* \"#utility.yul\":550:555   */\n  dup3\n    /* \"#utility.yul\":532:556   */\n  tag_17\n  jump\t// in\ntag_34:\n    /* \"#utility.yul\":521:556   */\n  swap1\n  pop\n    /* \"#utility.yul\":466:562   */\n  swap2\n  swap1\n  pop\n  jump\t// out\n    /* \"#utility.yul\":568:690   */\ntag_19:\n    /* \"#utility.yul\":641:665   */\n  tag_36\n    /* \"#utility.yul\":659:664   */\n  dup2\n    /* \"#utility.yul\":641:665   */\n  tag_18\n  jump\t// in\ntag_36:\n    /* \"#utility.yul\":634:639   */\n  dup2\n    /* \"#utility.yul\":631:666   */\n  eq\n    /* \"#utility.yul\":621:684   */\n  tag_37\n  jumpi\n    /* \"#utility.yul\":680:681   */\n  0x00\n    /* \"#utility.yul\":677:678   */\n  dup1\n    /* \"#utility.yul\":670:682   */\n  revert\n    /* \"#utility.yul\":621:684   */\ntag_37:\n    /* \"#utility.yul\":568:690   */\n  pop\n  jump\t// out\n    /* \"#utility.yul\":696:839   */\ntag_20:\n    /* \"#utility.yul\":753:758   */\n  0x00\n    /* \"#utility.yul\":784:790   */\n  dup2\n    /* \"#utility.yul\":778:791   */\n  mload\n    /* \"#utility.yul\":769:791   */\n  swap1\n  pop\n    /* \"#utility.yul\":800:833   */\n  tag_39\n    /* \"#utility.yul\":827:832   */\n  dup2\n    /* \"#utility.yul\":800:833   */\n  tag_19\n  jump\t// in\ntag_39:\n    /* \"#utility.yul\":696:839   */\n  swap3\n  swap2\n  pop\n  pop\n  jump\t// out\n    /* \"#utility.yul\":845:922   */\ntag_21:\n    /* \"#utility.yul\":882:889   */\n  0x00\n    /* \"#utility.yul\":911:916   */\n  dup2\n    /* \"#utility.yul\":900:916   */\n  swap1\n  pop\n    /* \"#utility.yul\":845:922   */\n  swap2\n  swap1\n  pop\n  jump\t// out\n    /* \"#utility.yul\":928:1050   */\ntag_22:\n    /* \"#utility.yul\":1001:1025   */\n  tag_42\n    /* \"#utility.yul\":1019:1024   */\n  dup2\n    /* \"#utility.yul\":1001:1025   */\n  tag_21\n  jump\t// in\ntag_42:\n    /* \"#utility.yul\":994:999   */\n  dup2\n    /* \"#utility.yul\":991:1026   */\n  eq\n    /* \"#utility.yul\":981:1044   */\n  tag_43\n  jumpi\n    /* \"#utility.yul\":1040:1041   */\n  0x00\n    /* \"#utility.yul\":1037:1038   */\n  dup1\n    /* \"#utility.yul\":1030:1042   */\n  revert\n    /* \"#utility.yul\":981:1044   */\ntag_43:\n    /* \"#utility.yul\":928:1050   */\n  pop\n  jump\t// out\n    /* \"#utility.yul\":1056:1199   */\ntag_23:\n    /* \"#utility.yul\":1113:1118   */\n  0x00\n    /* \"#utility.yul\":1144:1150   */\n  dup2\n    /* \"#utility.yul\":1138:1151   */\n  mload\n    /* \"#utility.yul\":1129:1151   */\n  swap1\n  pop\n    /* \"#utility.yul\":1160:1193   */\n  tag_45\n    /* \"#utility.yul\":1187:1192   */\n  dup2\n    /* \"#utility.yul\":1160:1193   */\n  tag_22\n  jump\t// in\ntag_45:\n    /* \"#utility.yul\":1056:1199   */\n  swap3\n  swap2\n  pop\n  pop\n  jump\t// out\n    /* \"#utility.yul\":1205:2025   */\ntag_3:\n    /* \"#utility.yul\":1302:1308   */\n  0x00\n    /* \"#utility.yul\":1310:1316   */\n  dup1\n    /* \"#utility.yul\":1318:1324   */\n  0x00\n    /* \"#utility.yul\":1326:1332   */\n  dup1\n    /* \"#utility.yul\":1375:1378   */\n  0x80\n    /* \"#utility.yul\":1363:1372   */\n  dup6\n    /* \"#utility.yul\":1354:1361   */\n  dup8\n    /* \"#utility.yul\":1350:1373   */\n  sub\n    /* \"#utility.yul\":1346:1379   */\n  slt\n    /* \"#utility.yul\":1343:1463   */\n  iszero\n  tag_47\n  jumpi\n    /* \"#utility.yul\":1382:1461   */\n  tag_48\n  tag_15\n  jump\t// in\ntag_48:\n    /* \"#utility.yul\":1343:1463   */\ntag_47:\n    /* \"#utility.yul\":1502:1503   */\n  0x00\n    /* \"#utility.yul\":1527:1591   */\n  tag_49\n    /* \"#utility.yul\":1583:1590   */\n  dup8\n    /* \"#utility.yul\":1574:1580   */\n  dup3\n    /* \"#utility.yul\":1563:1572   */\n  dup9\n    /* \"#utility.yul\":1559:1581   */\n  add\n    /* \"#utility.yul\":1527:1591   */\n  tag_20\n  jump\t// in\ntag_49:\n    /* \"#utility.yul\":1517:1591   */\n  swap5\n  pop\n    /* \"#utility.yul\":1473:1601   */\n  pop\n    /* \"#utility.yul\":1640:1642   */\n  0x20\n    /* \"#utility.yul\":1666:1730   */\n  tag_50\n    /* \"#utility.yul\":1722:1729   */\n  dup8\n    /* \"#utility.yul\":1713:1719   */\n  dup3\n    /* \"#utility.yul\":1702:1711   */\n  dup9\n    /* \"#utility.yul\":1698:1720   */\n  add\n    /* \"#utility.yul\":1666:1730   */\n  tag_23\n  jump\t// in\ntag_50:\n    /* \"#utility.yul\":1656:1730   */\n  swap4\n  pop\n    /* \"#utility.yul\":1611:1740   */\n  pop\n    /* \"#utility.yul\":1779:1781   */\n  0x40\n    /* \"#utility.yul\":1805:1869   */\n  tag_51\n    /* \"#utility.yul\":1861:1868   */\n  dup8\n    /* \"#utility.yul\":1852:1858   */\n  dup3\n    /* \"#utility.yul\":1841:1850   */\n  dup9\n    /* \"#utility.yul\":1837:1859   */\n  add\n    /* \"#utility.yul\":1805:1869   */\n  tag_23\n  jump\t// in\ntag_51:\n    /* \"#utility.yul\":1795:1869   */\n  swap3\n  pop\n    /* \"#utility.yul\":1750:1879   */\n  pop\n    /* \"#utility.yul\":1918:1920   */\n  0x60\n    /* \"#utility.yul\":1944:2008   */\n  tag_52\n    /* \"#utility.yul\":2000:2007   */\n  dup8\n    /* \"#utility.yul\":1991:1997   */\n  dup3\n    /* \"#utility.yul\":1980:1989   */\n  dup9\n    /* \"#utility.yul\":1976:1998   */\n  add\n    /* \"#utility.yul\":1944:2008   */\n  tag_23\n  jump\t// in\ntag_52:\n    /* \"#utility.yul\":1934:2008   */\n  swap2\n  pop\n    /* \"#utility.yul\":1889:2018   */\n  pop\n    /* \"#utility.yul\":1205:2025   */\n  swap3\n  swap6\n  swap2\n  swap5\n  pop\n  swap3\n  pop\n  jump\t// out\n    /* \"#utility.yul\":2031:2211   */\ntag_24:\n    /* \"#utility.yul\":2079:2156   */\n  0x4e487b7100000000000000000000000000000000000000000000000000000000\n    /* \"#utility.yul\":2076:2077   */\n  0x00\n    /* \"#utility.yul\":2069:2157   */\n  mstore\n    /* \"#utility.yul\":2176:2180   */\n  0x11\n    /* \"#utility.yul\":2173:2174   */\n  0x04\n    /* \"#utility.yul\":2166:2181   */\n  mstore\n    /* \"#utility.yul\":2200:2204   */\n  0x24\n    /* \"#utility.yul\":2197:2198   */\n  0x00\n    /* \"#utility.yul\":2190:2205   */\n  revert\n    /* \"#utility.yul\":2217:2627   */\ntag_7:\n    /* \"#utility.yul\":2257:2264   */\n  0x00\n    /* \"#utility.yul\":2280:2300   */\n  tag_55\n    /* \"#utility.yul\":2298:2299   */\n  dup3\n    /* \"#utility.yul\":2280:2300   */\n  tag_21\n  jump\t// in\ntag_55:\n    /* \"#utility.yul\":2275:2300   */\n  swap2\n  pop\n    /* \"#utility.yul\":2314:2334   */\n  tag_56\n    /* \"#utility.yul\":2332:2333   */\n  dup4\n    /* \"#utility.yul\":2314:2334   */\n  tag_21\n  jump\t// in\ntag_56:\n    /* \"#utility.yul\":2309:2334   */\n  swap3\n  pop\n    /* \"#utility.yul\":2369:2370   */\n  dup3\n    /* \"#utility.yul\":2366:2367   */\n  dup3\n    /* \"#utility.yul\":2362:2371   */\n  mul\n    /* \"#utility.yul\":2391:2421   */\n  tag_57\n    /* \"#utility.yul\":2409:2420   */\n  dup2\n    /* \"#utility.yul\":2391:2421   */\n  tag_21\n  jump\t// in\ntag_57:\n    /* \"#utility.yul\":2380:2421   */\n  swap2\n  pop\n    /* \"#utility.yul\":2570:2571   */\n  dup3\n    /* \"#utility.yul\":2561:2568   */\n  dup3\n    /* \"#utility.yul\":2557:2572   */\n  div\n    /* \"#utility.yul\":2554:2555   */\n  dup5\n    /* \"#utility.yul\":2551:2573   */\n  eq\n    /* \"#utility.yul\":2531:2532   */\n  dup4\n    /* \"#utility.yul\":2524:2533   */\n  iszero\n    /* \"#utility.yul\":2504:2587   */\n  or\n    /* \"#utility.yul\":2481:2620   */\n  tag_58\n  jumpi\n    /* \"#utility.yul\":2600:2618   */\n  tag_59\n  tag_24\n  jump\t// in\ntag_59:\n    /* \"#utility.yul\":2481:2620   */\ntag_58:\n    /* \"#utility.yul\":2265:2627   */\n  pop\n    /* \"#utility.yul\":2217:2627   */\n  swap3\n  swap2\n  pop\n  pop\n  jump\t// out\n    /* \"#utility.yul\":2633:2802   */\ntag_25:\n    /* \"#utility.yul\":2717:2728   */\n  0x00\n    /* \"#utility.yul\":2751:2757   */\n  dup3\n    /* \"#utility.yul\":2746:2749   */\n  dup3\n    /* \"#utility.yul\":2739:2758   */\n  mstore\n    /* \"#utility.yul\":2791:2795   */\n  0x20\n    /* \"#utility.yul\":2786:2789   */\n  dup3\n    /* \"#utility.yul\":2782:2796   */\n  add\n    /* \"#utility.yul\":2767:2796   */\n  swap1\n  pop\n    /* \"#utility.yul\":2633:2802   */\n  swap3\n  swap2\n  pop\n  pop\n  jump\t// out\n    /* \"#utility.yul\":2808:3032   */\ntag_26:\n    /* \"#utility.yul\":2948:2982   */\n  0x7374617274696e675072696365203c20646973636f756e74526174652a445552\n    /* \"#utility.yul\":2944:2945   */\n  0x00\n    /* \"#utility.yul\":2936:2942   */\n  dup3\n    /* \"#utility.yul\":2932:2946   */\n  add\n    /* \"#utility.yul\":2925:2983   */\n  mstore\n    /* \"#utility.yul\":3017:3024   */\n  0x4154494f4e000000000000000000000000000000000000000000000000000000\n    /* \"#utility.yul\":3012:3014   */\n  0x20\n    /* \"#utility.yul\":3004:3010   */\n  dup3\n    /* \"#utility.yul\":3000:3015   */\n  add\n    /* \"#utility.yul\":2993:3025   */\n  mstore\n    /* \"#utility.yul\":2808:3032   */\n  pop\n  jump\t// out\n    /* \"#utility.yul\":3038:3404   */\ntag_27:\n    /* \"#utility.yul\":3180:3183   */\n  0x00\n    /* \"#utility.yul\":3201:3268   */\n  tag_63\n    /* \"#utility.yul\":3265:3267   */\n  0x25\n    /* \"#utility.yul\":3260:3263   */\n  dup4\n    /* \"#utility.yul\":3201:3268   */\n  tag_25\n  jump\t// in\ntag_63:\n    /* \"#utility.yul\":3194:3268   */\n  swap2\n  pop\n    /* \"#utility.yul\":3277:3370   */\n  tag_64\n    /* \"#utility.yul\":3366:3369   */\n  dup3\n    /* \"#utility.yul\":3277:3370   */\n  tag_26\n  jump\t// in\ntag_64:\n    /* \"#utility.yul\":3395:3397   */\n  0x40\n    /* \"#utility.yul\":3390:3393   */\n  dup3\n    /* \"#utility.yul\":3386:3398   */\n  add\n    /* \"#utility.yul\":3379:3398   */\n  swap1\n  pop\n    /* \"#utility.yul\":3038:3404   */\n  swap2\n  swap1\n  pop\n  jump\t// out\n    /* \"#utility.yul\":3410:3829   */\ntag_10:\n    /* \"#utility.yul\":3576:3580   */\n  0x00\n    /* \"#utility.yul\":3614:3616   */\n  0x20\n    /* \"#utility.yul\":3603:3612   */\n  dup3\n    /* \"#utility.yul\":3599:3617   */\n  add\n    /* \"#utility.yul\":3591:3617   */\n  swap1\n  pop\n    /* \"#utility.yul\":3663:3672   */\n  dup2\n    /* \"#utility.yul\":3657:3661   */\n  dup2\n    /* \"#utility.yul\":3653:3673   */\n  sub\n    /* \"#utility.yul\":3649:3650   */\n  0x00\n    /* \"#utility.yul\":3638:3647   */\n  dup4\n    /* \"#utility.yul\":3634:3651   */\n  add\n    /* \"#utility.yul\":3627:3674   */\n  mstore\n    /* \"#utility.yul\":3691:3822   */\n  tag_66\n    /* \"#utility.yul\":3817:3821   */\n  dup2\n    /* \"#utility.yul\":3691:3822   */\n  tag_27\n  jump\t// in\ntag_66:\n    /* \"#utility.yul\":3683:3822   */\n  swap1\n  pop\n    /* \"#utility.yul\":3410:3829   */\n  swap2\n  swap1\n  pop\n  jump\t// out\n    /* \"#utility.yul\":3835:4026   */\ntag_12:\n    /* \"#utility.yul\":3875:3878   */\n  0x00\n    /* \"#utility.yul\":3894:3914   */\n  tag_68\n    /* \"#utility.yul\":3912:3913   */\n  dup3\n    /* \"#utility.yul\":3894:3914   */\n  tag_21\n  jump\t// in\ntag_68:\n    /* \"#utility.yul\":3889:3914   */\n  swap2\n  pop\n    /* \"#utility.yul\":3928:3948   */\n  tag_69\n    /* \"#utility.yul\":3946:3947   */\n  dup4\n    /* \"#utility.yul\":3928:3948   */\n  tag_21\n  jump\t// in\ntag_69:\n    /* \"#utility.yul\":3923:3948   */\n  swap3\n  pop\n    /* \"#utility.yul\":3971:3972   */\n  dup3\n    /* \"#utility.yul\":3968:3969   */\n  dup3\n    /* \"#utility.yul\":3964:3973   */\n  add\n    /* \"#utility.yul\":3957:3973   */\n  swap1\n  pop\n    /* \"#utility.yul\":3992:3995   */\n  dup1\n    /* \"#utility.yul\":3989:3990   */\n  dup3\n    /* \"#utility.yul\":3986:3996   */\n  gt\n    /* \"#utility.yul\":3983:4019   */\n  iszero\n  tag_70\n  jumpi\n    /* \"#utility.yul\":3999:4017   */\n  tag_71\n  tag_24\n  jump\t// in\ntag_71:\n    /* \"#utility.yul\":3983:4019   */\ntag_70:\n    /* \"#utility.yul\":3835:4026   */\n  swap3\n  swap2\n  pop\n  pop\n  jump\t// out\n    /* \"contracts/DutchAuction.sol\":170:1779  contract DutchAuction {... */\ntag_13:\n  mload(0x80)\n  mload(0xa0)\n  mload(0xc0)\n  mload(0xe0)\n  mload(0x0100)\n  mload(0x0120)\n  mload(0x0140)\n  mload(0x0160)\n  codecopy(0x00, dataOffset(sub_0), dataSize(sub_0))\n  0x00\n  assignImmutable(\"0x7749cc8014201da2069c21d93ba99c584b6f62d393fde534ed47eac227e31561\")\n  0x00\n  assignImmutable(\"0x58a280f74f57bf051c40f060139dc747e015be52f68c57e2c4ab2e4bd4146f43\")\n  0x00\n  assignImmutable(\"0x6585423cb6456b1d4957f6454d2f004f0c4f58d53a00082412d5c2ef4b1b31fd\")\n  0x00\n  assignImmutable(\"0xd4d1a59767271eefdc7830a772b9732a11d503531d972ab8c981a6b1c0e666e5\")\n  0x00\n  assignImmutable(\"0x731dc163f73d31d8c68f9917ce4ff967753939f70432973c04fd2c2a48148607\")\n  0x00\n  assignImmutable(\"0x8fef2229291b68be841adf029e58b87f39ba144b2d3b0af1760243d0a9bc6a1c\")\n  0x00\n  assignImmutable(\"0x277ab82e5a4641341820a4a2933a62c1de997e42e92548657ae21b3728d580fe\")\n  0x00\n  assignImmutable(\"0x5c4c6aa067b6f8e6cb38e6ab843832a94d1712d661a04d73c517d6a1931a9e5d\")\n  return(0x00, dataSize(sub_0))\nstop\n\nsub_0: assembly {\n        /* \"contracts/DutchAuction.sol\":170:1779  contract DutchAuction {... */\n      mstore(0x40, 0x80)\n      jumpi(tag_1, lt(calldatasize, 0x04))\n      shr(0xe0, calldataload(0x00))\n      dup1\n      0xa6f2ae3a\n      gt\n      tag_12\n      jumpi\n      dup1\n      0xa6f2ae3a\n      eq\n      tag_7\n      jumpi\n      dup1\n      0xc6bc5182\n      eq\n      tag_8\n      jumpi\n      dup1\n      0xc7446565\n      eq\n      tag_9\n      jumpi\n      dup1\n      0xd6fbf202\n      eq\n      tag_10\n      jumpi\n      dup1\n      0xe6c0e6d5\n      eq\n      tag_11\n      jumpi\n      jump(tag_1)\n    tag_12:\n      dup1\n      0x08551a53\n      eq\n      tag_2\n      jumpi\n      dup1\n      0x1be05289\n      eq\n      tag_3\n      jumpi\n      dup1\n      0x47ccca02\n      eq\n      tag_4\n      jumpi\n      dup1\n      0x748ef72e\n      eq\n      tag_5\n      jumpi\n      dup1\n      0x98d5fdca\n      eq\n      tag_6\n      jumpi\n    tag_1:\n      0x00\n      dup1\n      revert\n        /* \"contracts/DutchAuction.sol\":268:307  address payable public immutable seller */\n    tag_2:\n      callvalue\n      dup1\n      iszero\n      tag_13\n      jumpi\n      0x00\n      dup1\n      revert\n    tag_13:\n      pop\n      tag_14\n      tag_15\n      jump\t// in\n    tag_14:\n      mload(0x40)\n      tag_16\n      swap2\n      swap1\n      tag_17\n      jump\t// in\n    tag_16:\n      mload(0x40)\n      dup1\n      swap2\n      sub\n      swap1\n      return\n        /* \"contracts/DutchAuction.sol\":437:476  uint public immutable DURATION = 7 days */\n    tag_3:\n      callvalue\n      dup1\n      iszero\n      tag_18\n      jumpi\n      0x00\n      dup1\n      revert\n    tag_18:\n      pop\n      tag_19\n      tag_20\n      jump\t// in\n    tag_19:\n      mload(0x40)\n      tag_21\n      swap2\n      swap1\n      tag_22\n      jump\t// in\n    tag_21:\n      mload(0x40)\n      dup1\n      swap2\n      sub\n      swap1\n      return\n        /* \"contracts/DutchAuction.sol\":199:227  IERC721 public immutable nft */\n    tag_4:\n      callvalue\n      dup1\n      iszero\n      tag_23\n      jumpi\n      0x00\n      dup1\n      revert\n    tag_23:\n      pop\n      tag_24\n      tag_25\n      jump\t// in\n    tag_24:\n      mload(0x40)\n      tag_26\n      swap2\n      swap1\n      tag_27\n      jump\t// in\n    tag_26:\n      mload(0x40)\n      dup1\n      swap2\n      sub\n      swap1\n      return\n        /* \"contracts/DutchAuction.sol\":483:513  uint public immutable expireAt */\n    tag_5:\n      callvalue\n      dup1\n      iszero\n      tag_28\n      jumpi\n      0x00\n      dup1\n      revert\n    tag_28:\n      pop\n      tag_29\n      tag_30\n      jump\t// in\n    tag_29:\n      mload(0x40)\n      tag_31\n      swap2\n      swap1\n      tag_22\n      jump\t// in\n    tag_31:\n      mload(0x40)\n      dup1\n      swap2\n      sub\n      swap1\n      return\n        /* \"contracts/DutchAuction.sol\":1018:1213  function getPrice() public view returns (uint) {... */\n    tag_6:\n      callvalue\n      dup1\n      iszero\n      tag_32\n      jumpi\n      0x00\n      dup1\n      revert\n    tag_32:\n      pop\n      tag_33\n      tag_34\n      jump\t// in\n    tag_33:\n      mload(0x40)\n      tag_35\n      swap2\n      swap1\n      tag_22\n      jump\t// in\n    tag_35:\n      mload(0x40)\n      dup1\n      swap2\n      sub\n      swap1\n      return\n        /* \"contracts/DutchAuction.sol\":1257:1776  function buy() external payable {... */\n    tag_7:\n      tag_36\n      tag_37\n      jump\t// in\n    tag_36:\n      stop\n        /* \"contracts/DutchAuction.sol\":234:261  uint public immutable nftId */\n    tag_8:\n      callvalue\n      dup1\n      iszero\n      tag_38\n      jumpi\n      0x00\n      dup1\n      revert\n    tag_38:\n      pop\n      tag_39\n      tag_40\n      jump\t// in\n    tag_39:\n      mload(0x40)\n      tag_41\n      swap2\n      swap1\n      tag_22\n      jump\t// in\n    tag_41:\n      mload(0x40)\n      dup1\n      swap2\n      sub\n      swap1\n      return\n        /* \"contracts/DutchAuction.sol\":401:430  uint public immutable startAt */\n    tag_9:\n      callvalue\n      dup1\n      iszero\n      tag_42\n      jumpi\n      0x00\n      dup1\n      revert\n    tag_42:\n      pop\n      tag_43\n      tag_44\n      jump\t// in\n    tag_43:\n      mload(0x40)\n      tag_45\n      swap2\n      swap1\n      tag_22\n      jump\t// in\n    tag_45:\n      mload(0x40)\n      dup1\n      swap2\n      sub\n      swap1\n      return\n        /* \"contracts/DutchAuction.sol\":316:351  uint public immutable startingPrice */\n    tag_10:\n      callvalue\n      dup1\n      iszero\n      tag_46\n      jumpi\n      0x00\n      dup1\n      revert\n    tag_46:\n      pop\n      tag_47\n      tag_48\n      jump\t// in\n    tag_47:\n      mload(0x40)\n      tag_49\n      swap2\n      swap1\n      tag_22\n      jump\t// in\n    tag_49:\n      mload(0x40)\n      dup1\n      swap2\n      sub\n      swap1\n      return\n        /* \"contracts/DutchAuction.sol\":358:392  uint public immutable discountRate */\n    tag_11:\n      callvalue\n      dup1\n      iszero\n      tag_50\n      jumpi\n      0x00\n      dup1\n      revert\n    tag_50:\n      pop\n      tag_51\n      tag_52\n      jump\t// in\n    tag_51:\n      mload(0x40)\n      tag_53\n      swap2\n      swap1\n      tag_22\n      jump\t// in\n    tag_53:\n      mload(0x40)\n      dup1\n      swap2\n      sub\n      swap1\n      return\n        /* \"contracts/DutchAuction.sol\":268:307  address payable public immutable seller */\n    tag_15:\n      immutable(\"0x8fef2229291b68be841adf029e58b87f39ba144b2d3b0af1760243d0a9bc6a1c\")\n      dup2\n      jump\t// out\n        /* \"contracts/DutchAuction.sol\":437:476  uint public immutable DURATION = 7 days */\n    tag_20:\n      immutable(\"0x58a280f74f57bf051c40f060139dc747e015be52f68c57e2c4ab2e4bd4146f43\")\n      dup2\n      jump\t// out\n        /* \"contracts/DutchAuction.sol\":199:227  IERC721 public immutable nft */\n    tag_25:\n      immutable(\"0x5c4c6aa067b6f8e6cb38e6ab843832a94d1712d661a04d73c517d6a1931a9e5d\")\n      dup2\n      jump\t// out\n        /* \"contracts/DutchAuction.sol\":483:513  uint public immutable expireAt */\n    tag_30:\n      immutable(\"0x7749cc8014201da2069c21d93ba99c584b6f62d393fde534ed47eac227e31561\")\n      dup2\n      jump\t// out\n        /* \"contracts/DutchAuction.sol\":1018:1213  function getPrice() public view returns (uint) {... */\n    tag_34:\n        /* \"contracts/DutchAuction.sol\":1059:1063  uint */\n      0x00\n        /* \"contracts/DutchAuction.sol\":1095:1110  block.timestamp */\n      timestamp\n        /* \"contracts/DutchAuction.sol\":1084:1092  expireAt */\n      immutable(\"0x7749cc8014201da2069c21d93ba99c584b6f62d393fde534ed47eac227e31561\")\n        /* \"contracts/DutchAuction.sol\":1084:1110  expireAt > block.timestamp */\n      gt\n        /* \"contracts/DutchAuction.sol\":1076:1129  require(expireAt > block.timestamp,\"already expired\") */\n      tag_55\n      jumpi\n      mload(0x40)\n      0x08c379a000000000000000000000000000000000000000000000000000000000\n      dup2\n      mstore\n      0x04\n      add\n      tag_56\n      swap1\n      tag_57\n      jump\t// in\n    tag_56:\n      mload(0x40)\n      dup1\n      swap2\n      sub\n      swap1\n      revert\n    tag_55:\n        /* \"contracts/DutchAuction.sol\":1197:1204  startAt */\n      immutable(\"0x6585423cb6456b1d4957f6454d2f004f0c4f58d53a00082412d5c2ef4b1b31fd\")\n        /* \"contracts/DutchAuction.sol\":1179:1194  block.timestamp */\n      timestamp\n        /* \"contracts/DutchAuction.sol\":1179:1204  block.timestamp - startAt */\n      tag_58\n      swap2\n      swap1\n      tag_59\n      jump\t// in\n    tag_58:\n        /* \"contracts/DutchAuction.sol\":1163:1175  discountRate */\n      immutable(\"0xd4d1a59767271eefdc7830a772b9732a11d503531d972ab8c981a6b1c0e666e5\")\n        /* \"contracts/DutchAuction.sol\":1163:1205  discountRate * (block.timestamp - startAt) */\n      tag_60\n      swap2\n      swap1\n      tag_61\n      jump\t// in\n    tag_60:\n        /* \"contracts/DutchAuction.sol\":1147:1160  startingPrice */\n      immutable(\"0x731dc163f73d31d8c68f9917ce4ff967753939f70432973c04fd2c2a48148607\")\n        /* \"contracts/DutchAuction.sol\":1147:1205  startingPrice - discountRate * (block.timestamp - startAt) */\n      tag_62\n      swap2\n      swap1\n      tag_59\n      jump\t// in\n    tag_62:\n        /* \"contracts/DutchAuction.sol\":1140:1205  return startingPrice - discountRate * (block.timestamp - startAt) */\n      swap1\n      pop\n        /* \"contracts/DutchAuction.sol\":1018:1213  function getPrice() public view returns (uint) {... */\n      swap1\n      jump\t// out\n        /* \"contracts/DutchAuction.sol\":1257:1776  function buy() external payable {... */\n    tag_37:\n        /* \"contracts/DutchAuction.sol\":1326:1334  expireAt */\n      immutable(\"0x7749cc8014201da2069c21d93ba99c584b6f62d393fde534ed47eac227e31561\")\n        /* \"contracts/DutchAuction.sol\":1308:1323  block.timestamp */\n      timestamp\n        /* \"contracts/DutchAuction.sol\":1308:1334  block.timestamp < expireAt */\n      lt\n        /* \"contracts/DutchAuction.sol\":1300:1353  require(block.timestamp < expireAt,\"auction expired\") */\n      tag_64\n      jumpi\n      mload(0x40)\n      0x08c379a000000000000000000000000000000000000000000000000000000000\n      dup2\n      mstore\n      0x04\n      add\n      tag_65\n      swap1\n      tag_66\n      jump\t// in\n    tag_65:\n      mload(0x40)\n      dup1\n      swap2\n      sub\n      swap1\n      revert\n    tag_64:\n        /* \"contracts/DutchAuction.sol\":1364:1374  uint price */\n      0x00\n        /* \"contracts/DutchAuction.sol\":1377:1387  getPrice() */\n      tag_67\n        /* \"contracts/DutchAuction.sol\":1377:1385  getPrice */\n      tag_34\n        /* \"contracts/DutchAuction.sol\":1377:1387  getPrice() */\n      jump\t// in\n    tag_67:\n        /* \"contracts/DutchAuction.sol\":1364:1387  uint price = getPrice() */\n      swap1\n      pop\n        /* \"contracts/DutchAuction.sol\":1418:1423  price */\n      dup1\n        /* \"contracts/DutchAuction.sol\":1406:1415  msg.value */\n      callvalue\n        /* \"contracts/DutchAuction.sol\":1406:1423  msg.value > price */\n      gt\n        /* \"contracts/DutchAuction.sol\":1398:1445  require(msg.value > price,\"ETH < target price\") */\n      tag_68\n      jumpi\n      mload(0x40)\n      0x08c379a000000000000000000000000000000000000000000000000000000000\n      dup2\n      mstore\n      0x04\n      add\n      tag_69\n      swap1\n      tag_70\n      jump\t// in\n    tag_69:\n      mload(0x40)\n      dup1\n      swap2\n      sub\n      swap1\n      revert\n    tag_68:\n        /* \"contracts/DutchAuction.sol\":1456:1459  nft */\n      immutable(\"0x5c4c6aa067b6f8e6cb38e6ab843832a94d1712d661a04d73c517d6a1931a9e5d\")\n        /* \"contracts/DutchAuction.sol\":1456:1472  nft.transferFrom */\n      0xffffffffffffffffffffffffffffffffffffffff\n      and\n      0x23b872dd\n        /* \"contracts/DutchAuction.sol\":1473:1479  seller */\n      immutable(\"0x8fef2229291b68be841adf029e58b87f39ba144b2d3b0af1760243d0a9bc6a1c\")\n        /* \"contracts/DutchAuction.sol\":1481:1491  msg.sender */\n      caller\n        /* \"contracts/DutchAuction.sol\":1493:1498  nftId */\n      immutable(\"0x277ab82e5a4641341820a4a2933a62c1de997e42e92548657ae21b3728d580fe\")\n        /* \"contracts/DutchAuction.sol\":1456:1499  nft.transferFrom(seller, msg.sender, nftId) */\n      mload(0x40)\n      dup5\n      0xffffffff\n      and\n      0xe0\n      shl\n      dup2\n      mstore\n      0x04\n      add\n      tag_71\n      swap4\n      swap3\n      swap2\n      swap1\n      tag_72\n      jump\t// in\n    tag_71:\n      0x00\n      mload(0x40)\n      dup1\n      dup4\n      sub\n      dup2\n      0x00\n      dup8\n      dup1\n      extcodesize\n      iszero\n      dup1\n      iszero\n      tag_73\n      jumpi\n      0x00\n      dup1\n      revert\n    tag_73:\n      pop\n      gas\n      call\n      iszero\n      dup1\n      iszero\n      tag_75\n      jumpi\n      returndatasize\n      0x00\n      dup1\n      returndatacopy\n      revert(0x00, returndatasize)\n    tag_75:\n      pop\n      pop\n      pop\n      pop\n        /* \"contracts/DutchAuction.sol\":1520:1531  uint refund */\n      0x00\n        /* \"contracts/DutchAuction.sol\":1546:1551  price */\n      dup2\n        /* \"contracts/DutchAuction.sol\":1534:1543  msg.value */\n      callvalue\n        /* \"contracts/DutchAuction.sol\":1534:1551  msg.value - price */\n      tag_76\n      swap2\n      swap1\n      tag_59\n      jump\t// in\n    tag_76:\n        /* \"contracts/DutchAuction.sol\":1520:1551  uint refund = msg.value - price */\n      swap1\n      pop\n        /* \"contracts/DutchAuction.sol\":1574:1575  0 */\n      0x00\n        /* \"contracts/DutchAuction.sol\":1565:1571  refund */\n      dup2\n        /* \"contracts/DutchAuction.sol\":1565:1575  refund > 0 */\n      gt\n        /* \"contracts/DutchAuction.sol\":1562:1640  if(refund > 0) {... */\n      iszero\n      tag_77\n      jumpi\n        /* \"contracts/DutchAuction.sol\":1600:1610  msg.sender */\n      caller\n        /* \"contracts/DutchAuction.sol\":1592:1620  payable(msg.sender).transfer */\n      0xffffffffffffffffffffffffffffffffffffffff\n      and\n        /* \"contracts/DutchAuction.sol\":1592:1628  payable(msg.sender).transfer(refund) */\n      0x08fc\n        /* \"contracts/DutchAuction.sol\":1621:1627  refund */\n      dup3\n        /* \"contracts/DutchAuction.sol\":1592:1628  payable(msg.sender).transfer(refund) */\n      swap1\n      dup2\n      iszero\n      mul\n      swap1\n      mload(0x40)\n      0x00\n      mload(0x40)\n      dup1\n      dup4\n      sub\n      dup2\n      dup6\n      dup9\n      dup9\n      call\n      swap4\n      pop\n      pop\n      pop\n      pop\n      iszero\n      dup1\n      iszero\n      tag_79\n      jumpi\n      returndatasize\n      0x00\n      dup1\n      returndatacopy\n      revert(0x00, returndatasize)\n    tag_79:\n      pop\n        /* \"contracts/DutchAuction.sol\":1562:1640  if(refund > 0) {... */\n    tag_77:\n        /* \"contracts/DutchAuction.sol\":1726:1732  seller */\n      immutable(\"0x8fef2229291b68be841adf029e58b87f39ba144b2d3b0af1760243d0a9bc6a1c\")\n        /* \"contracts/DutchAuction.sol\":1726:1741  seller.transfer */\n      0xffffffffffffffffffffffffffffffffffffffff\n      and\n        /* \"contracts/DutchAuction.sol\":1726:1764  seller.transfer(address(this).balance) */\n      0x08fc\n        /* \"contracts/DutchAuction.sol\":1742:1763  address(this).balance */\n      selfbalance\n        /* \"contracts/DutchAuction.sol\":1726:1764  seller.transfer(address(this).balance) */\n      swap1\n      dup2\n      iszero\n      mul\n      swap1\n      mload(0x40)\n      0x00\n      mload(0x40)\n      dup1\n      dup4\n      sub\n      dup2\n      dup6\n      dup9\n      dup9\n      call\n      swap4\n      pop\n      pop\n      pop\n      pop\n      iszero\n      dup1\n      iszero\n      tag_81\n      jumpi\n      returndatasize\n      0x00\n      dup1\n      returndatacopy\n      revert(0x00, returndatasize)\n    tag_81:\n      pop\n        /* \"contracts/DutchAuction.sol\":1289:1776  {... */\n      pop\n      pop\n        /* \"contracts/DutchAuction.sol\":1257:1776  function buy() external payable {... */\n      jump\t// out\n        /* \"contracts/DutchAuction.sol\":234:261  uint public immutable nftId */\n    tag_40:\n      immutable(\"0x277ab82e5a4641341820a4a2933a62c1de997e42e92548657ae21b3728d580fe\")\n      dup2\n      jump\t// out\n        /* \"contracts/DutchAuction.sol\":401:430  uint public immutable startAt */\n    tag_44:\n      immutable(\"0x6585423cb6456b1d4957f6454d2f004f0c4f58d53a00082412d5c2ef4b1b31fd\")\n      dup2\n      jump\t// out\n        /* \"contracts/DutchAuction.sol\":316:351  uint public immutable startingPrice */\n    tag_48:\n      immutable(\"0x731dc163f73d31d8c68f9917ce4ff967753939f70432973c04fd2c2a48148607\")\n      dup2\n      jump\t// out\n        /* \"contracts/DutchAuction.sol\":358:392  uint public immutable discountRate */\n    tag_52:\n      immutable(\"0xd4d1a59767271eefdc7830a772b9732a11d503531d972ab8c981a6b1c0e666e5\")\n      dup2\n      jump\t// out\n        /* \"#utility.yul\":7:133   */\n    tag_82:\n        /* \"#utility.yul\":44:51   */\n      0x00\n        /* \"#utility.yul\":84:126   */\n      0xffffffffffffffffffffffffffffffffffffffff\n        /* \"#utility.yul\":77:82   */\n      dup3\n        /* \"#utility.yul\":73:127   */\n      and\n        /* \"#utility.yul\":62:127   */\n      swap1\n      pop\n        /* \"#utility.yul\":7:133   */\n      swap2\n      swap1\n      pop\n      jump\t// out\n        /* \"#utility.yul\":139:243   */\n    tag_83:\n        /* \"#utility.yul\":184:191   */\n      0x00\n        /* \"#utility.yul\":213:237   */\n      tag_107\n        /* \"#utility.yul\":231:236   */\n      dup3\n        /* \"#utility.yul\":213:237   */\n      tag_82\n      jump\t// in\n    tag_107:\n        /* \"#utility.yul\":202:237   */\n      swap1\n      pop\n        /* \"#utility.yul\":139:243   */\n      swap2\n      swap1\n      pop\n      jump\t// out\n        /* \"#utility.yul\":249:391   */\n    tag_84:\n        /* \"#utility.yul\":352:384   */\n      tag_109\n        /* \"#utility.yul\":378:383   */\n      dup2\n        /* \"#utility.yul\":352:384   */\n      tag_83\n      jump\t// in\n    tag_109:\n        /* \"#utility.yul\":347:350   */\n      dup3\n        /* \"#utility.yul\":340:385   */\n      mstore\n        /* \"#utility.yul\":249:391   */\n      pop\n      pop\n      jump\t// out\n        /* \"#utility.yul\":397:651   */\n    tag_17:\n        /* \"#utility.yul\":506:510   */\n      0x00\n        /* \"#utility.yul\":544:546   */\n      0x20\n        /* \"#utility.yul\":533:542   */\n      dup3\n        /* \"#utility.yul\":529:547   */\n      add\n        /* \"#utility.yul\":521:547   */\n      swap1\n      pop\n        /* \"#utility.yul\":557:644   */\n      tag_111\n        /* \"#utility.yul\":641:642   */\n      0x00\n        /* \"#utility.yul\":630:639   */\n      dup4\n        /* \"#utility.yul\":626:643   */\n      add\n        /* \"#utility.yul\":617:623   */\n      dup5\n        /* \"#utility.yul\":557:644   */\n      tag_84\n      jump\t// in\n    tag_111:\n        /* \"#utility.yul\":397:651   */\n      swap3\n      swap2\n      pop\n      pop\n      jump\t// out\n        /* \"#utility.yul\":657:734   */\n    tag_85:\n        /* \"#utility.yul\":694:701   */\n      0x00\n        /* \"#utility.yul\":723:728   */\n      dup2\n        /* \"#utility.yul\":712:728   */\n      swap1\n      pop\n        /* \"#utility.yul\":657:734   */\n      swap2\n      swap1\n      pop\n      jump\t// out\n        /* \"#utility.yul\":740:858   */\n    tag_86:\n        /* \"#utility.yul\":827:851   */\n      tag_114\n        /* \"#utility.yul\":845:850   */\n      dup2\n        /* \"#utility.yul\":827:851   */\n      tag_85\n      jump\t// in\n    tag_114:\n        /* \"#utility.yul\":822:825   */\n      dup3\n        /* \"#utility.yul\":815:852   */\n      mstore\n        /* \"#utility.yul\":740:858   */\n      pop\n      pop\n      jump\t// out\n        /* \"#utility.yul\":864:1086   */\n    tag_22:\n        /* \"#utility.yul\":957:961   */\n      0x00\n        /* \"#utility.yul\":995:997   */\n      0x20\n        /* \"#utility.yul\":984:993   */\n      dup3\n        /* \"#utility.yul\":980:998   */\n      add\n        /* \"#utility.yul\":972:998   */\n      swap1\n      pop\n        /* \"#utility.yul\":1008:1079   */\n      tag_116\n        /* \"#utility.yul\":1076:1077   */\n      0x00\n        /* \"#utility.yul\":1065:1074   */\n      dup4\n        /* \"#utility.yul\":1061:1078   */\n      add\n        /* \"#utility.yul\":1052:1058   */\n      dup5\n        /* \"#utility.yul\":1008:1079   */\n      tag_86\n      jump\t// in\n    tag_116:\n        /* \"#utility.yul\":864:1086   */\n      swap3\n      swap2\n      pop\n      pop\n      jump\t// out\n        /* \"#utility.yul\":1092:1152   */\n    tag_87:\n        /* \"#utility.yul\":1120:1123   */\n      0x00\n        /* \"#utility.yul\":1141:1146   */\n      dup2\n        /* \"#utility.yul\":1134:1146   */\n      swap1\n      pop\n        /* \"#utility.yul\":1092:1152   */\n      swap2\n      swap1\n      pop\n      jump\t// out\n        /* \"#utility.yul\":1158:1300   */\n    tag_88:\n        /* \"#utility.yul\":1208:1217   */\n      0x00\n        /* \"#utility.yul\":1241:1294   */\n      tag_119\n        /* \"#utility.yul\":1259:1293   */\n      tag_120\n        /* \"#utility.yul\":1268:1292   */\n      tag_121\n        /* \"#utility.yul\":1286:1291   */\n      dup5\n        /* \"#utility.yul\":1268:1292   */\n      tag_82\n      jump\t// in\n    tag_121:\n        /* \"#utility.yul\":1259:1293   */\n      tag_87\n      jump\t// in\n    tag_120:\n        /* \"#utility.yul\":1241:1294   */\n      tag_82\n      jump\t// in\n    tag_119:\n        /* \"#utility.yul\":1228:1294   */\n      swap1\n      pop\n        /* \"#utility.yul\":1158:1300   */\n      swap2\n      swap1\n      pop\n      jump\t// out\n        /* \"#utility.yul\":1306:1432   */\n    tag_89:\n        /* \"#utility.yul\":1356:1365   */\n      0x00\n        /* \"#utility.yul\":1389:1426   */\n      tag_123\n        /* \"#utility.yul\":1420:1425   */\n      dup3\n        /* \"#utility.yul\":1389:1426   */\n      tag_88\n      jump\t// in\n    tag_123:\n        /* \"#utility.yul\":1376:1426   */\n      swap1\n      pop\n        /* \"#utility.yul\":1306:1432   */\n      swap2\n      swap1\n      pop\n      jump\t// out\n        /* \"#utility.yul\":1438:1578   */\n    tag_90:\n        /* \"#utility.yul\":1502:1511   */\n      0x00\n        /* \"#utility.yul\":1535:1572   */\n      tag_125\n        /* \"#utility.yul\":1566:1571   */\n      dup3\n        /* \"#utility.yul\":1535:1572   */\n      tag_89\n      jump\t// in\n    tag_125:\n        /* \"#utility.yul\":1522:1572   */\n      swap1\n      pop\n        /* \"#utility.yul\":1438:1578   */\n      swap2\n      swap1\n      pop\n      jump\t// out\n        /* \"#utility.yul\":1584:1743   */\n    tag_91:\n        /* \"#utility.yul\":1685:1736   */\n      tag_127\n        /* \"#utility.yul\":1730:1735   */\n      dup2\n        /* \"#utility.yul\":1685:1736   */\n      tag_90\n      jump\t// in\n    tag_127:\n        /* \"#utility.yul\":1680:1683   */\n      dup3\n        /* \"#utility.yul\":1673:1737   */\n      mstore\n        /* \"#utility.yul\":1584:1743   */\n      pop\n      pop\n      jump\t// out\n        /* \"#utility.yul\":1749:1999   */\n    tag_27:\n        /* \"#utility.yul\":1856:1860   */\n      0x00\n        /* \"#utility.yul\":1894:1896   */\n      0x20\n        /* \"#utility.yul\":1883:1892   */\n      dup3\n        /* \"#utility.yul\":1879:1897   */\n      add\n        /* \"#utility.yul\":1871:1897   */\n      swap1\n      pop\n        /* \"#utility.yul\":1907:1992   */\n      tag_129\n        /* \"#utility.yul\":1989:1990   */\n      0x00\n        /* \"#utility.yul\":1978:1987   */\n      dup4\n        /* \"#utility.yul\":1974:1991   */\n      add\n        /* \"#utility.yul\":1965:1971   */\n      dup5\n        /* \"#utility.yul\":1907:1992   */\n      tag_91\n      jump\t// in\n    tag_129:\n        /* \"#utility.yul\":1749:1999   */\n      swap3\n      swap2\n      pop\n      pop\n      jump\t// out\n        /* \"#utility.yul\":2005:2174   */\n    tag_92:\n        /* \"#utility.yul\":2089:2100   */\n      0x00\n        /* \"#utility.yul\":2123:2129   */\n      dup3\n        /* \"#utility.yul\":2118:2121   */\n      dup3\n        /* \"#utility.yul\":2111:2130   */\n      mstore\n        /* \"#utility.yul\":2163:2167   */\n      0x20\n        /* \"#utility.yul\":2158:2161   */\n      dup3\n        /* \"#utility.yul\":2154:2168   */\n      add\n        /* \"#utility.yul\":2139:2168   */\n      swap1\n      pop\n        /* \"#utility.yul\":2005:2174   */\n      swap3\n      swap2\n      pop\n      pop\n      jump\t// out\n        /* \"#utility.yul\":2180:2345   */\n    tag_93:\n        /* \"#utility.yul\":2320:2337   */\n      0x616c726561647920657870697265640000000000000000000000000000000000\n        /* \"#utility.yul\":2316:2317   */\n      0x00\n        /* \"#utility.yul\":2308:2314   */\n      dup3\n        /* \"#utility.yul\":2304:2318   */\n      add\n        /* \"#utility.yul\":2297:2338   */\n      mstore\n        /* \"#utility.yul\":2180:2345   */\n      pop\n      jump\t// out\n        /* \"#utility.yul\":2351:2717   */\n    tag_94:\n        /* \"#utility.yul\":2493:2496   */\n      0x00\n        /* \"#utility.yul\":2514:2581   */\n      tag_133\n        /* \"#utility.yul\":2578:2580   */\n      0x0f\n        /* \"#utility.yul\":2573:2576   */\n      dup4\n        /* \"#utility.yul\":2514:2581   */\n      tag_92\n      jump\t// in\n    tag_133:\n        /* \"#utility.yul\":2507:2581   */\n      swap2\n      pop\n        /* \"#utility.yul\":2590:2683   */\n      tag_134\n        /* \"#utility.yul\":2679:2682   */\n      dup3\n        /* \"#utility.yul\":2590:2683   */\n      tag_93\n      jump\t// in\n    tag_134:\n        /* \"#utility.yul\":2708:2710   */\n      0x20\n        /* \"#utility.yul\":2703:2706   */\n      dup3\n        /* \"#utility.yul\":2699:2711   */\n      add\n        /* \"#utility.yul\":2692:2711   */\n      swap1\n      pop\n        /* \"#utility.yul\":2351:2717   */\n      swap2\n      swap1\n      pop\n      jump\t// out\n        /* \"#utility.yul\":2723:3142   */\n    tag_57:\n        /* \"#utility.yul\":2889:2893   */\n      0x00\n        /* \"#utility.yul\":2927:2929   */\n      0x20\n        /* \"#utility.yul\":2916:2925   */\n      dup3\n        /* \"#utility.yul\":2912:2930   */\n      add\n        /* \"#utility.yul\":2904:2930   */\n      swap1\n      pop\n        /* \"#utility.yul\":2976:2985   */\n      dup2\n        /* \"#utility.yul\":2970:2974   */\n      dup2\n        /* \"#utility.yul\":2966:2986   */\n      sub\n        /* \"#utility.yul\":2962:2963   */\n      0x00\n        /* \"#utility.yul\":2951:2960   */\n      dup4\n        /* \"#utility.yul\":2947:2964   */\n      add\n        /* \"#utility.yul\":2940:2987   */\n      mstore\n        /* \"#utility.yul\":3004:3135   */\n      tag_136\n        /* \"#utility.yul\":3130:3134   */\n      dup2\n        /* \"#utility.yul\":3004:3135   */\n      tag_94\n      jump\t// in\n    tag_136:\n        /* \"#utility.yul\":2996:3135   */\n      swap1\n      pop\n        /* \"#utility.yul\":2723:3142   */\n      swap2\n      swap1\n      pop\n      jump\t// out\n        /* \"#utility.yul\":3148:3328   */\n    tag_95:\n        /* \"#utility.yul\":3196:3273   */\n      0x4e487b7100000000000000000000000000000000000000000000000000000000\n        /* \"#utility.yul\":3193:3194   */\n      0x00\n        /* \"#utility.yul\":3186:3274   */\n      mstore\n        /* \"#utility.yul\":3293:3297   */\n      0x11\n        /* \"#utility.yul\":3290:3291   */\n      0x04\n        /* \"#utility.yul\":3283:3298   */\n      mstore\n        /* \"#utility.yul\":3317:3321   */\n      0x24\n        /* \"#utility.yul\":3314:3315   */\n      0x00\n        /* \"#utility.yul\":3307:3322   */\n      revert\n        /* \"#utility.yul\":3334:3528   */\n    tag_59:\n        /* \"#utility.yul\":3374:3378   */\n      0x00\n        /* \"#utility.yul\":3394:3414   */\n      tag_139\n        /* \"#utility.yul\":3412:3413   */\n      dup3\n        /* \"#utility.yul\":3394:3414   */\n      tag_85\n      jump\t// in\n    tag_139:\n        /* \"#utility.yul\":3389:3414   */\n      swap2\n      pop\n        /* \"#utility.yul\":3428:3448   */\n      tag_140\n        /* \"#utility.yul\":3446:3447   */\n      dup4\n        /* \"#utility.yul\":3428:3448   */\n      tag_85\n      jump\t// in\n    tag_140:\n        /* \"#utility.yul\":3423:3448   */\n      swap3\n      pop\n        /* \"#utility.yul\":3472:3473   */\n      dup3\n        /* \"#utility.yul\":3469:3470   */\n      dup3\n        /* \"#utility.yul\":3465:3474   */\n      sub\n        /* \"#utility.yul\":3457:3474   */\n      swap1\n      pop\n        /* \"#utility.yul\":3496:3497   */\n      dup2\n        /* \"#utility.yul\":3490:3494   */\n      dup2\n        /* \"#utility.yul\":3487:3498   */\n      gt\n        /* \"#utility.yul\":3484:3521   */\n      iszero\n      tag_141\n      jumpi\n        /* \"#utility.yul\":3501:3519   */\n      tag_142\n      tag_95\n      jump\t// in\n    tag_142:\n        /* \"#utility.yul\":3484:3521   */\n    tag_141:\n        /* \"#utility.yul\":3334:3528   */\n      swap3\n      swap2\n      pop\n      pop\n      jump\t// out\n        /* \"#utility.yul\":3534:3944   */\n    tag_61:\n        /* \"#utility.yul\":3574:3581   */\n      0x00\n        /* \"#utility.yul\":3597:3617   */\n      tag_144\n        /* \"#utility.yul\":3615:3616   */\n      dup3\n        /* \"#utility.yul\":3597:3617   */\n      tag_85\n      jump\t// in\n    tag_144:\n        /* \"#utility.yul\":3592:3617   */\n      swap2\n      pop\n        /* \"#utility.yul\":3631:3651   */\n      tag_145\n        /* \"#utility.yul\":3649:3650   */\n      dup4\n        /* \"#utility.yul\":3631:3651   */\n      tag_85\n      jump\t// in\n    tag_145:\n        /* \"#utility.yul\":3626:3651   */\n      swap3\n      pop\n        /* \"#utility.yul\":3686:3687   */\n      dup3\n        /* \"#utility.yul\":3683:3684   */\n      dup3\n        /* \"#utility.yul\":3679:3688   */\n      mul\n        /* \"#utility.yul\":3708:3738   */\n      tag_146\n        /* \"#utility.yul\":3726:3737   */\n      dup2\n        /* \"#utility.yul\":3708:3738   */\n      tag_85\n      jump\t// in\n    tag_146:\n        /* \"#utility.yul\":3697:3738   */\n      swap2\n      pop\n        /* \"#utility.yul\":3887:3888   */\n      dup3\n        /* \"#utility.yul\":3878:3885   */\n      dup3\n        /* \"#utility.yul\":3874:3889   */\n      div\n        /* \"#utility.yul\":3871:3872   */\n      dup5\n        /* \"#utility.yul\":3868:3890   */\n      eq\n        /* \"#utility.yul\":3848:3849   */\n      dup4\n        /* \"#utility.yul\":3841:3850   */\n      iszero\n        /* \"#utility.yul\":3821:3904   */\n      or\n        /* \"#utility.yul\":3798:3937   */\n      tag_147\n      jumpi\n        /* \"#utility.yul\":3917:3935   */\n      tag_148\n      tag_95\n      jump\t// in\n    tag_148:\n        /* \"#utility.yul\":3798:3937   */\n    tag_147:\n        /* \"#utility.yul\":3582:3944   */\n      pop\n        /* \"#utility.yul\":3534:3944   */\n      swap3\n      swap2\n      pop\n      pop\n      jump\t// out\n        /* \"#utility.yul\":3950:4115   */\n    tag_96:\n        /* \"#utility.yul\":4090:4107   */\n      0x61756374696f6e20657870697265640000000000000000000000000000000000\n        /* \"#utility.yul\":4086:4087   */\n      0x00\n        /* \"#utility.yul\":4078:4084   */\n      dup3\n        /* \"#utility.yul\":4074:4088   */\n      add\n        /* \"#utility.yul\":4067:4108   */\n      mstore\n        /* \"#utility.yul\":3950:4115   */\n      pop\n      jump\t// out\n        /* \"#utility.yul\":4121:4487   */\n    tag_97:\n        /* \"#utility.yul\":4263:4266   */\n      0x00\n        /* \"#utility.yul\":4284:4351   */\n      tag_151\n        /* \"#utility.yul\":4348:4350   */\n      0x0f\n        /* \"#utility.yul\":4343:4346   */\n      dup4\n        /* \"#utility.yul\":4284:4351   */\n      tag_92\n      jump\t// in\n    tag_151:\n        /* \"#utility.yul\":4277:4351   */\n      swap2\n      pop\n        /* \"#utility.yul\":4360:4453   */\n      tag_152\n        /* \"#utility.yul\":4449:4452   */\n      dup3\n        /* \"#utility.yul\":4360:4453   */\n      tag_96\n      jump\t// in\n    tag_152:\n        /* \"#utility.yul\":4478:4480   */\n      0x20\n        /* \"#utility.yul\":4473:4476   */\n      dup3\n        /* \"#utility.yul\":4469:4481   */\n      add\n        /* \"#utility.yul\":4462:4481   */\n      swap1\n      pop\n        /* \"#utility.yul\":4121:4487   */\n      swap2\n      swap1\n      pop\n      jump\t// out\n        /* \"#utility.yul\":4493:4912   */\n    tag_66:\n        /* \"#utility.yul\":4659:4663   */\n      0x00\n        /* \"#utility.yul\":4697:4699   */\n      0x20\n        /* \"#utility.yul\":4686:4695   */\n      dup3\n        /* \"#utility.yul\":4682:4700   */\n      add\n        /* \"#utility.yul\":4674:4700   */\n      swap1\n      pop\n        /* \"#utility.yul\":4746:4755   */\n      dup2\n        /* \"#utility.yul\":4740:4744   */\n      dup2\n        /* \"#utility.yul\":4736:4756   */\n      sub\n        /* \"#utility.yul\":4732:4733   */\n      0x00\n        /* \"#utility.yul\":4721:4730   */\n      dup4\n        /* \"#utility.yul\":4717:4734   */\n      add\n        /* \"#utility.yul\":4710:4757   */\n      mstore\n        /* \"#utility.yul\":4774:4905   */\n      tag_154\n        /* \"#utility.yul\":4900:4904   */\n      dup2\n        /* \"#utility.yul\":4774:4905   */\n      tag_97\n      jump\t// in\n    tag_154:\n        /* \"#utility.yul\":4766:4905   */\n      swap1\n      pop\n        /* \"#utility.yul\":4493:4912   */\n      swap2\n      swap1\n      pop\n      jump\t// out\n        /* \"#utility.yul\":4918:5086   */\n    tag_98:\n        /* \"#utility.yul\":5058:5078   */\n      0x455448203c207461726765742070726963650000000000000000000000000000\n        /* \"#utility.yul\":5054:5055   */\n      0x00\n        /* \"#utility.yul\":5046:5052   */\n      dup3\n        /* \"#utility.yul\":5042:5056   */\n      add\n        /* \"#utility.yul\":5035:5079   */\n      mstore\n        /* \"#utility.yul\":4918:5086   */\n      pop\n      jump\t// out\n        /* \"#utility.yul\":5092:5458   */\n    tag_99:\n        /* \"#utility.yul\":5234:5237   */\n      0x00\n        /* \"#utility.yul\":5255:5322   */\n      tag_157\n        /* \"#utility.yul\":5319:5321   */\n      0x12\n        /* \"#utility.yul\":5314:5317   */\n      dup4\n        /* \"#utility.yul\":5255:5322   */\n      tag_92\n      jump\t// in\n    tag_157:\n        /* \"#utility.yul\":5248:5322   */\n      swap2\n      pop\n        /* \"#utility.yul\":5331:5424   */\n      tag_158\n        /* \"#utility.yul\":5420:5423   */\n      dup3\n        /* \"#utility.yul\":5331:5424   */\n      tag_98\n      jump\t// in\n    tag_158:\n        /* \"#utility.yul\":5449:5451   */\n      0x20\n        /* \"#utility.yul\":5444:5447   */\n      dup3\n        /* \"#utility.yul\":5440:5452   */\n      add\n        /* \"#utility.yul\":5433:5452   */\n      swap1\n      pop\n        /* \"#utility.yul\":5092:5458   */\n      swap2\n      swap1\n      pop\n      jump\t// out\n        /* \"#utility.yul\":5464:5883   */\n    tag_70:\n        /* \"#utility.yul\":5630:5634   */\n      0x00\n        /* \"#utility.yul\":5668:5670   */\n      0x20\n        /* \"#utility.yul\":5657:5666   */\n      dup3\n        /* \"#utility.yul\":5653:5671   */\n      add\n        /* \"#utility.yul\":5645:5671   */\n      swap1\n      pop\n        /* \"#utility.yul\":5717:5726   */\n      dup2\n        /* \"#utility.yul\":5711:5715   */\n      dup2\n        /* \"#utility.yul\":5707:5727   */\n      sub\n        /* \"#utility.yul\":5703:5704   */\n      0x00\n        /* \"#utility.yul\":5692:5701   */\n      dup4\n        /* \"#utility.yul\":5688:5705   */\n      add\n        /* \"#utility.yul\":5681:5728   */\n      mstore\n        /* \"#utility.yul\":5745:5876   */\n      tag_160\n        /* \"#utility.yul\":5871:5875   */\n      dup2\n        /* \"#utility.yul\":5745:5876   */\n      tag_99\n      jump\t// in\n    tag_160:\n        /* \"#utility.yul\":5737:5876   */\n      swap1\n      pop\n        /* \"#utility.yul\":5464:5883   */\n      swap2\n      swap1\n      pop\n      jump\t// out\n        /* \"#utility.yul\":5889:6023   */\n    tag_100:\n        /* \"#utility.yul\":5947:5956   */\n      0x00\n        /* \"#utility.yul\":5980:6017   */\n      tag_162\n        /* \"#utility.yul\":6011:6016   */\n      dup3\n        /* \"#utility.yul\":5980:6017   */\n      tag_89\n      jump\t// in\n    tag_162:\n        /* \"#utility.yul\":5967:6017   */\n      swap1\n      pop\n        /* \"#utility.yul\":5889:6023   */\n      swap2\n      swap1\n      pop\n      jump\t// out\n        /* \"#utility.yul\":6029:6176   */\n    tag_101:\n        /* \"#utility.yul\":6124:6169   */\n      tag_164\n        /* \"#utility.yul\":6163:6168   */\n      dup2\n        /* \"#utility.yul\":6124:6169   */\n      tag_100\n      jump\t// in\n    tag_164:\n        /* \"#utility.yul\":6119:6122   */\n      dup3\n        /* \"#utility.yul\":6112:6170   */\n      mstore\n        /* \"#utility.yul\":6029:6176   */\n      pop\n      pop\n      jump\t// out\n        /* \"#utility.yul\":6182:6278   */\n    tag_102:\n        /* \"#utility.yul\":6219:6226   */\n      0x00\n        /* \"#utility.yul\":6248:6272   */\n      tag_166\n        /* \"#utility.yul\":6266:6271   */\n      dup3\n        /* \"#utility.yul\":6248:6272   */\n      tag_82\n      jump\t// in\n    tag_166:\n        /* \"#utility.yul\":6237:6272   */\n      swap1\n      pop\n        /* \"#utility.yul\":6182:6278   */\n      swap2\n      swap1\n      pop\n      jump\t// out\n        /* \"#utility.yul\":6284:6402   */\n    tag_103:\n        /* \"#utility.yul\":6371:6395   */\n      tag_168\n        /* \"#utility.yul\":6389:6394   */\n      dup2\n        /* \"#utility.yul\":6371:6395   */\n      tag_102\n      jump\t// in\n    tag_168:\n        /* \"#utility.yul\":6366:6369   */\n      dup3\n        /* \"#utility.yul\":6359:6396   */\n      mstore\n        /* \"#utility.yul\":6284:6402   */\n      pop\n      pop\n      jump\t// out\n        /* \"#utility.yul\":6408:6866   */\n    tag_72:\n        /* \"#utility.yul\":6565:6569   */\n      0x00\n        /* \"#utility.yul\":6603:6605   */\n      0x60\n        /* \"#utility.yul\":6592:6601   */\n      dup3\n        /* \"#utility.yul\":6588:6606   */\n      add\n        /* \"#utility.yul\":6580:6606   */\n      swap1\n      pop\n        /* \"#utility.yul\":6616:6695   */\n      tag_170\n        /* \"#utility.yul\":6692:6693   */\n      0x00\n        /* \"#utility.yul\":6681:6690   */\n      dup4\n        /* \"#utility.yul\":6677:6694   */\n      add\n        /* \"#utility.yul\":6668:6674   */\n      dup7\n        /* \"#utility.yul\":6616:6695   */\n      tag_101\n      jump\t// in\n    tag_170:\n        /* \"#utility.yul\":6705:6777   */\n      tag_171\n        /* \"#utility.yul\":6773:6775   */\n      0x20\n        /* \"#utility.yul\":6762:6771   */\n      dup4\n        /* \"#utility.yul\":6758:6776   */\n      add\n        /* \"#utility.yul\":6749:6755   */\n      dup6\n        /* \"#utility.yul\":6705:6777   */\n      tag_103\n      jump\t// in\n    tag_171:\n        /* \"#utility.yul\":6787:6859   */\n      tag_172\n        /* \"#utility.yul\":6855:6857   */\n      0x40\n        /* \"#utility.yul\":6844:6853   */\n      dup4\n        /* \"#utility.yul\":6840:6858   */\n      add\n        /* \"#utility.yul\":6831:6837   */\n      dup5\n        /* \"#utility.yul\":6787:6859   */\n      tag_86\n      jump\t// in\n    tag_172:\n        /* \"#utility.yul\":6408:6866   */\n      swap5\n      swap4\n      pop\n      pop\n      pop\n      pop\n      jump\t// out\n\n    auxdata: 0xa2646970667358221220859c9a84f79b9057473cd25f1538d3ffd0093061cb2e4355038228b0827f10ce64736f6c634300081a0033\n}\n",
				"bytecode": {
					"linkReferences": {},
					"object": "61018060405262093a806101409081525034801561001b575f80fd5b50604051610dfe380380610dfe833981810160405281019061003d91906101d1565b8373ffffffffffffffffffffffffffffffffffffffff1660808173ffffffffffffffffffffffffffffffffffffffff16815250508260a081815250503373ffffffffffffffffffffffffffffffffffffffff1660c08173ffffffffffffffffffffffffffffffffffffffff16815250508160e0818152505080610100818152505061014051610100516100d09190610262565b60e0511015610114576040517f08c379a000000000000000000000000000000000000000000000000000000000815260040161010b90610323565b60405180910390fd5b426101208181525050610140516101205161012f9190610341565b610160818152505050505050610374565b5f80fd5b5f73ffffffffffffffffffffffffffffffffffffffff82169050919050565b5f61016d82610144565b9050919050565b61017d81610163565b8114610187575f80fd5b50565b5f8151905061019881610174565b92915050565b5f819050919050565b6101b08161019e565b81146101ba575f80fd5b50565b5f815190506101cb816101a7565b92915050565b5f805f80608085870312156101e9576101e8610140565b5b5f6101f68782880161018a565b9450506020610207878288016101bd565b9350506040610218878288016101bd565b9250506060610229878288016101bd565b91505092959194509250565b7f4e487b71000000000000000000000000000000000000000000000000000000005f52601160045260245ffd5b5f61026c8261019e565b91506102778361019e565b92508282026102858161019e565b9150828204841483151761029c5761029b610235565b5b5092915050565b5f82825260208201905092915050565b7f7374617274696e675072696365203c20646973636f756e74526174652a4455525f8201527f4154494f4e000000000000000000000000000000000000000000000000000000602082015250565b5f61030d6025836102a3565b9150610318826102b3565b604082019050919050565b5f6020820190508181035f83015261033a81610301565b9050919050565b5f61034b8261019e565b91506103568361019e565b925082820190508082111561036e5761036d610235565b5b92915050565b60805160a05160c05160e051610100516101205161014051610160516109f061040e5f395f8181610286015281816102ac015261039401525f61023e01525f818161030d01526105f501525f8181610339015261063d01525f8181610364015261061901525f818161021a0152818161047f015261056901525f81816104a101526105d101525f8181610262015261044301526109f05ff3fe608060405260043610610090575f3560e01c8063a6f2ae3a11610058578063a6f2ae3a14610166578063c6bc518214610170578063c74465651461019a578063d6fbf202146101c4578063e6c0e6d5146101ee57610090565b806308551a53146100945780631be05289146100be57806347ccca02146100e8578063748ef72e1461011257806398d5fdca1461013c575b5f80fd5b34801561009f575f80fd5b506100a8610218565b6040516100b5919061069e565b60405180910390f35b3480156100c9575f80fd5b506100d261023c565b6040516100df91906106cf565b60405180910390f35b3480156100f3575f80fd5b506100fc610260565b6040516101099190610743565b60405180910390f35b34801561011d575f80fd5b50610126610284565b60405161013391906106cf565b60405180910390f35b348015610147575f80fd5b506101506102a8565b60405161015d91906106cf565b60405180910390f35b61016e610392565b005b34801561017b575f80fd5b506101846105cf565b60405161019191906106cf565b60405180910390f35b3480156101a5575f80fd5b506101ae6105f3565b6040516101bb91906106cf565b60405180910390f35b3480156101cf575f80fd5b506101d8610617565b6040516101e591906106cf565b60405180910390f35b3480156101f9575f80fd5b5061020261063b565b60405161020f91906106cf565b60405180910390f35b7f000000000000000000000000000000000000000000000000000000000000000081565b7f000000000000000000000000000000000000000000000000000000000000000081565b7f000000000000000000000000000000000000000000000000000000000000000081565b7f000000000000000000000000000000000000000000000000000000000000000081565b5f427f00000000000000000000000000000000000000000000000000000000000000001161030b576040517f08c379a0000000000000000000000000000000000000000000000000000000008152600401610302906107b6565b60405180910390fd5b7f0000000000000000000000000000000000000000000000000000000000000000426103379190610801565b7f00000000000000000000000000000000000000000000000000000000000000006103629190610834565b7f000000000000000000000000000000000000000000000000000000000000000061038d9190610801565b905090565b7f000000000000000000000000000000000000000000000000000000000000000042106103f4576040517f08c379a00000000000000000000000000000000000000000000000000000000081526004016103eb906108bf565b60405180910390fd5b5f6103fd6102a8565b9050803411610441576040517f08c379a000000000000000000000000000000000000000000000000000000000815260040161043890610927565b60405180910390fd5b7f000000000000000000000000000000000000000000000000000000000000000073ffffffffffffffffffffffffffffffffffffffff166323b872dd7f0000000000000000000000000000000000000000000000000000000000000000337f00000000000000000000000000000000000000000000000000000000000000006040518463ffffffff1660e01b81526004016104de93929190610985565b5f604051808303815f87803b1580156104f5575f80fd5b505af1158015610507573d5f803e3d5ffd5b505050505f81346105189190610801565b90505f811115610567573373ffffffffffffffffffffffffffffffffffffffff166108fc8290811502906040515f60405180830381858888f19350505050158015610565573d5f803e3d5ffd5b505b7f000000000000000000000000000000000000000000000000000000000000000073ffffffffffffffffffffffffffffffffffffffff166108fc4790811502906040515f60405180830381858888f193505050501580156105ca573d5f803e3d5ffd5b505050565b7f000000000000000000000000000000000000000000000000000000000000000081565b7f000000000000000000000000000000000000000000000000000000000000000081565b7f000000000000000000000000000000000000000000000000000000000000000081565b7f000000000000000000000000000000000000000000000000000000000000000081565b5f73ffffffffffffffffffffffffffffffffffffffff82169050919050565b5f6106888261065f565b9050919050565b6106988161067e565b82525050565b5f6020820190506106b15f83018461068f565b92915050565b5f819050919050565b6106c9816106b7565b82525050565b5f6020820190506106e25f8301846106c0565b92915050565b5f819050919050565b5f61070b6107066107018461065f565b6106e8565b61065f565b9050919050565b5f61071c826106f1565b9050919050565b5f61072d82610712565b9050919050565b61073d81610723565b82525050565b5f6020820190506107565f830184610734565b92915050565b5f82825260208201905092915050565b7f616c7265616479206578706972656400000000000000000000000000000000005f82015250565b5f6107a0600f8361075c565b91506107ab8261076c565b602082019050919050565b5f6020820190508181035f8301526107cd81610794565b9050919050565b7f4e487b71000000000000000000000000000000000000000000000000000000005f52601160045260245ffd5b5f61080b826106b7565b9150610816836106b7565b925082820390508181111561082e5761082d6107d4565b5b92915050565b5f61083e826106b7565b9150610849836106b7565b9250828202610857816106b7565b9150828204841483151761086e5761086d6107d4565b5b5092915050565b7f61756374696f6e206578706972656400000000000000000000000000000000005f82015250565b5f6108a9600f8361075c565b91506108b482610875565b602082019050919050565b5f6020820190508181035f8301526108d68161089d565b9050919050565b7f455448203c2074617267657420707269636500000000000000000000000000005f82015250565b5f61091160128361075c565b915061091c826108dd565b602082019050919050565b5f6020820190508181035f83015261093e81610905565b9050919050565b5f61094f82610712565b9050919050565b61095f81610945565b82525050565b5f61096f8261065f565b9050919050565b61097f81610965565b82525050565b5f6060820190506109985f830186610956565b6109a56020830185610976565b6109b260408301846106c0565b94935050505056fea2646970667358221220859c9a84f79b9057473cd25f1538d3ffd0093061cb2e4355038228b0827f10ce64736f6c634300081a0033",
					"opcodes": "PUSH2 0x180 PUSH1 0x40 MSTORE PUSH3 0x93A80 PUSH2 0x140 SWAP1 DUP2 MSTORE POP CALLVALUE DUP1 ISZERO PUSH2 0x1B JUMPI PUSH0 DUP1 REVERT JUMPDEST POP PUSH1 0x40 MLOAD PUSH2 0xDFE CODESIZE SUB DUP1 PUSH2 0xDFE DUP4 CODECOPY DUP2 DUP2 ADD PUSH1 0x40 MSTORE DUP2 ADD SWAP1 PUSH2 0x3D SWAP2 SWAP1 PUSH2 0x1D1 JUMP JUMPDEST DUP4 PUSH20 0xFFFFFFFFFFFFFFFFFFFFFFFFFFFFFFFFFFFFFFFF AND PUSH1 0x80 DUP2 PUSH20 0xFFFFFFFFFFFFFFFFFFFFFFFFFFFFFFFFFFFFFFFF AND DUP2 MSTORE POP POP DUP3 PUSH1 0xA0 DUP2 DUP2 MSTORE POP POP CALLER PUSH20 0xFFFFFFFFFFFFFFFFFFFFFFFFFFFFFFFFFFFFFFFF AND PUSH1 0xC0 DUP2 PUSH20 0xFFFFFFFFFFFFFFFFFFFFFFFFFFFFFFFFFFFFFFFF AND DUP2 MSTORE POP POP DUP2 PUSH1 0xE0 DUP2 DUP2 MSTORE POP POP DUP1 PUSH2 0x100 DUP2 DUP2 MSTORE POP POP PUSH2 0x140 MLOAD PUSH2 0x100 MLOAD PUSH2 0xD0 SWAP2 SWAP1 PUSH2 0x262 JUMP JUMPDEST PUSH1 0xE0 MLOAD LT ISZERO PUSH2 0x114 JUMPI PUSH1 0x40 MLOAD PUSH32 0x8C379A000000000000000000000000000000000000000000000000000000000 DUP2 MSTORE PUSH1 0x4 ADD PUSH2 0x10B SWAP1 PUSH2 0x323 JUMP JUMPDEST PUSH1 0x40 MLOAD DUP1 SWAP2 SUB SWAP1 REVERT JUMPDEST TIMESTAMP PUSH2 0x120 DUP2 DUP2 MSTORE POP POP PUSH2 0x140 MLOAD PUSH2 0x120 MLOAD PUSH2 0x12F SWAP2 SWAP1 PUSH2 0x341 JUMP JUMPDEST PUSH2 0x160 DUP2 DUP2 MSTORE POP POP POP POP POP POP PUSH2 0x374 JUMP JUMPDEST PUSH0 DUP1 REVERT JUMPDEST PUSH0 PUSH20 0xFFFFFFFFFFFFFFFFFFFFFFFFFFFFFFFFFFFFFFFF DUP3 AND SWAP1 POP SWAP2 SWAP1 POP JUMP JUMPDEST PUSH0 PUSH2 0x16D DUP3 PUSH2 0x144 JUMP JUMPDEST SWAP1 POP SWAP2 SWAP1 POP JUMP JUMPDEST PUSH2 0x17D DUP2 PUSH2 0x163 JUMP JUMPDEST DUP2 EQ PUSH2 0x187 JUMPI PUSH0 DUP1 REVERT JUMPDEST POP JUMP JUMPDEST PUSH0 DUP2 MLOAD SWAP1 POP PUSH2 0x198 DUP2 PUSH2 0x174 JUMP JUMPDEST SWAP3 SWAP2 POP POP JUMP JUMPDEST PUSH0 DUP2 SWAP1 POP SWAP2 SWAP1 POP JUMP JUMPDEST PUSH2 0x1B0 DUP2 PUSH2 0x19E JUMP JUMPDEST DUP2 EQ PUSH2 0x1BA JUMPI PUSH0 DUP1 REVERT JUMPDEST POP JUMP JUMPDEST PUSH0 DUP2 MLOAD SWAP1 POP PUSH2 0x1CB DUP2 PUSH2 0x1A7 JUMP JUMPDEST SWAP3 SWAP2 POP POP JUMP JUMPDEST PUSH0 DUP1 PUSH0 DUP1 PUSH1 0x80 DUP6 DUP8 SUB SLT ISZERO PUSH2 0x1E9 JUMPI PUSH2 0x1E8 PUSH2 0x140 JUMP JUMPDEST JUMPDEST PUSH0 PUSH2 0x1F6 DUP8 DUP3 DUP9 ADD PUSH2 0x18A JUMP JUMPDEST SWAP5 POP POP PUSH1 0x20 PUSH2 0x207 DUP8 DUP3 DUP9 ADD PUSH2 0x1BD JUMP JUMPDEST SWAP4 POP POP PUSH1 0x40 PUSH2 0x218 DUP8 DUP3 DUP9 ADD PUSH2 0x1BD JUMP JUMPDEST SWAP3 POP POP PUSH1 0x60 PUSH2 0x229 DUP8 DUP3 DUP9 ADD PUSH2 0x1BD JUMP JUMPDEST SWAP2 POP POP SWAP3 SWAP6 SWAP2 SWAP5 POP SWAP3 POP JUMP JUMPDEST PUSH32 0x4E487B7100000000000000000000000000000000000000000000000000000000 PUSH0 MSTORE PUSH1 0x11 PUSH1 0x4 MSTORE PUSH1 0x24 PUSH0 REVERT JUMPDEST PUSH0 PUSH2 0x26C DUP3 PUSH2 0x19E JUMP JUMPDEST SWAP2 POP PUSH2 0x277 DUP4 PUSH2 0x19E JUMP JUMPDEST SWAP3 POP DUP3 DUP3 MUL PUSH2 0x285 DUP2 PUSH2 0x19E JUMP JUMPDEST SWAP2 POP DUP3 DUP3 DIV DUP5 EQ DUP4 ISZERO OR PUSH2 0x29C JUMPI PUSH2 0x29B PUSH2 0x235 JUMP JUMPDEST JUMPDEST POP SWAP3 SWAP2 POP POP JUMP JUMPDEST PUSH0 DUP3 DUP3 MSTORE PUSH1 0x20 DUP3 ADD SWAP1 POP SWAP3 SWAP2 POP POP JUMP JUMPDEST PUSH32 0x7374617274696E675072696365203C20646973636F756E74526174652A445552 PUSH0 DUP3 ADD MSTORE PUSH32 0x4154494F4E000000000000000000000000000000000000000000000000000000 PUSH1 0x20 DUP3 ADD MSTORE POP JUMP JUMPDEST PUSH0 PUSH2 0x30D PUSH1 0x25 DUP4 PUSH2 0x2A3 JUMP JUMPDEST SWAP2 POP PUSH2 0x318 DUP3 PUSH2 0x2B3 JUMP JUMPDEST PUSH1 0x40 DUP3 ADD SWAP1 POP SWAP2 SWAP1 POP JUMP JUMPDEST PUSH0 PUSH1 0x20 DUP3 ADD SWAP1 POP DUP2 DUP2 SUB PUSH0 DUP4 ADD MSTORE PUSH2 0x33A DUP2 PUSH2 0x301 JUMP JUMPDEST SWAP1 POP SWAP2 SWAP1 POP JUMP JUMPDEST PUSH0 PUSH2 0x34B DUP3 PUSH2 0x19E JUMP JUMPDEST SWAP2 POP PUSH2 0x356 DUP4 PUSH2 0x19E JUMP JUMPDEST SWAP3 POP DUP3 DUP3 ADD SWAP1 POP DUP1 DUP3 GT ISZERO PUSH2 0x36E JUMPI PUSH2 0x36D PUSH2 0x235 JUMP JUMPDEST JUMPDEST SWAP3 SWAP2 POP POP JUMP JUMPDEST PUSH1 0x80 MLOAD PUSH1 0xA0 MLOAD PUSH1 0xC0 MLOAD PUSH1 0xE0 MLOAD PUSH2 0x100 MLOAD PUSH2 0x120 MLOAD PUSH2 0x140 MLOAD PUSH2 0x160 MLOAD PUSH2 0x9F0 PUSH2 0x40E PUSH0 CODECOPY PUSH0 DUP2 DUP2 PUSH2 0x286 ADD MSTORE DUP2 DUP2 PUSH2 0x2AC ADD MSTORE PUSH2 0x394 ADD MSTORE PUSH0 PUSH2 0x23E ADD MSTORE PUSH0 DUP2 DUP2 PUSH2 0x30D ADD MSTORE PUSH2 0x5F5 ADD MSTORE PUSH0 DUP2 DUP2 PUSH2 0x339 ADD MSTORE PUSH2 0x63D ADD MSTORE PUSH0 DUP2 DUP2 PUSH2 0x364 ADD MSTORE PUSH2 0x619 ADD MSTORE PUSH0 DUP2 DUP2 PUSH2 0x21A ADD MSTORE DUP2 DUP2 PUSH2 0x47F ADD MSTORE PUSH2 0x569 ADD MSTORE PUSH0 DUP2 DUP2 PUSH2 0x4A1 ADD MSTORE PUSH2 0x5D1 ADD MSTORE PUSH0 DUP2 DUP2 PUSH2 0x262 ADD MSTORE PUSH2 0x443 ADD MSTORE PUSH2 0x9F0 PUSH0 RETURN INVALID PUSH1 0x80 PUSH1 0x40 MSTORE PUSH1 0x4 CALLDATASIZE LT PUSH2 0x90 JUMPI PUSH0 CALLDATALOAD PUSH1 0xE0 SHR DUP1 PUSH4 0xA6F2AE3A GT PUSH2 0x58 JUMPI DUP1 PUSH4 0xA6F2AE3A EQ PUSH2 0x166 JUMPI DUP1 PUSH4 0xC6BC5182 EQ PUSH2 0x170 JUMPI DUP1 PUSH4 0xC7446565 EQ PUSH2 0x19A JUMPI DUP1 PUSH4 0xD6FBF202 EQ PUSH2 0x1C4 JUMPI DUP1 PUSH4 0xE6C0E6D5 EQ PUSH2 0x1EE JUMPI PUSH2 0x90 JUMP JUMPDEST DUP1 PUSH4 0x8551A53 EQ PUSH2 0x94 JUMPI DUP1 PUSH4 0x1BE05289 EQ PUSH2 0xBE JUMPI DUP1 PUSH4 0x47CCCA02 EQ PUSH2 0xE8 JUMPI DUP1 PUSH4 0x748EF72E EQ PUSH2 0x112 JUMPI DUP1 PUSH4 0x98D5FDCA EQ PUSH2 0x13C JUMPI JUMPDEST PUSH0 DUP1 REVERT JUMPDEST CALLVALUE DUP1 ISZERO PUSH2 0x9F JUMPI PUSH0 DUP1 REVERT JUMPDEST POP PUSH2 0xA8 PUSH2 0x218 JUMP JUMPDEST PUSH1 0x40 MLOAD PUSH2 0xB5 SWAP2 SWAP1 PUSH2 0x69E JUMP JUMPDEST PUSH1 0x40 MLOAD DUP1 SWAP2 SUB SWAP1 RETURN JUMPDEST CALLVALUE DUP1 ISZERO PUSH2 0xC9 JUMPI PUSH0 DUP1 REVERT JUMPDEST POP PUSH2 0xD2 PUSH2 0x23C JUMP JUMPDEST PUSH1 0x40 MLOAD PUSH2 0xDF SWAP2 SWAP1 PUSH2 0x6CF JUMP JUMPDEST PUSH1 0x40 MLOAD DUP1 SWAP2 SUB SWAP1 RETURN JUMPDEST CALLVALUE DUP1 ISZERO PUSH2 0xF3 JUMPI PUSH0 DUP1 REVERT JUMPDEST POP PUSH2 0xFC PUSH2 0x260 JUMP JUMPDEST PUSH1 0x40 MLOAD PUSH2 0x109 SWAP2 SWAP1 PUSH2 0x743 JUMP JUMPDEST PUSH1 0x40 MLOAD DUP1 SWAP2 SUB SWAP1 RETURN JUMPDEST CALLVALUE DUP1 ISZERO PUSH2 0x11D JUMPI PUSH0 DUP1 REVERT JUMPDEST POP PUSH2 0x126 PUSH2 0x284 JUMP JUMPDEST PUSH1 0x40 MLOAD PUSH2 0x133 SWAP2 SWAP1 PUSH2 0x6CF JUMP JUMPDEST PUSH1 0x40 MLOAD DUP1 SWAP2 SUB SWAP1 RETURN JUMPDEST CALLVALUE DUP1 ISZERO PUSH2 0x147 JUMPI PUSH0 DUP1 REVERT JUMPDEST POP PUSH2 0x150 PUSH2 0x2A8 JUMP JUMPDEST PUSH1 0x40 MLOAD PUSH2 0x15D SWAP2 SWAP1 PUSH2 0x6CF JUMP JUMPDEST PUSH1 0x40 MLOAD DUP1 SWAP2 SUB SWAP1 RETURN JUMPDEST PUSH2 0x16E PUSH2 0x392 JUMP JUMPDEST STOP JUMPDEST CALLVALUE DUP1 ISZERO PUSH2 0x17B JUMPI PUSH0 DUP1 REVERT JUMPDEST POP PUSH2 0x184 PUSH2 0x5CF JUMP JUMPDEST PUSH1 0x40 MLOAD PUSH2 0x191 SWAP2 SWAP1 PUSH2 0x6CF JUMP JUMPDEST PUSH1 0x40 MLOAD DUP1 SWAP2 SUB SWAP1 RETURN JUMPDEST CALLVALUE DUP1 ISZERO PUSH2 0x1A5 JUMPI PUSH0 DUP1 REVERT JUMPDEST POP PUSH2 0x1AE PUSH2 0x5F3 JUMP JUMPDEST PUSH1 0x40 MLOAD PUSH2 0x1BB SWAP2 SWAP1 PUSH2 0x6CF JUMP JUMPDEST PUSH1 0x40 MLOAD DUP1 SWAP2 SUB SWAP1 RETURN JUMPDEST CALLVALUE DUP1 ISZERO PUSH2 0x1CF JUMPI PUSH0 DUP1 REVERT JUMPDEST POP PUSH2 0x1D8 PUSH2 0x617 JUMP JUMPDEST PUSH1 0x40 MLOAD PUSH2 0x1E5 SWAP2 SWAP1 PUSH2 0x6CF JUMP JUMPDEST PUSH1 0x40 MLOAD DUP1 SWAP2 SUB SWAP1 RETURN JUMPDEST CALLVALUE DUP1 ISZERO PUSH2 0x1F9 JUMPI PUSH0 DUP1 REVERT JUMPDEST POP PUSH2 0x202 PUSH2 0x63B JUMP JUMPDEST PUSH1 0x40 MLOAD PUSH2 0x20F SWAP2 SWAP1 PUSH2 0x6CF JUMP JUMPDEST PUSH1 0x40 MLOAD DUP1 SWAP2 SUB SWAP1 RETURN JUMPDEST PUSH32 0x0 DUP2 JUMP JUMPDEST PUSH32 0x0 DUP2 JUMP JUMPDEST PUSH32 0x0 DUP2 JUMP JUMPDEST PUSH32 0x0 DUP2 JUMP JUMPDEST PUSH0 TIMESTAMP PUSH32 0x0 GT PUSH2 0x30B JUMPI PUSH1 0x40 MLOAD PUSH32 0x8C379A000000000000000000000000000000000000000000000000000000000 DUP2 MSTORE PUSH1 0x4 ADD PUSH2 0x302 SWAP1 PUSH2 0x7B6 JUMP JUMPDEST PUSH1 0x40 MLOAD DUP1 SWAP2 SUB SWAP1 REVERT JUMPDEST PUSH32 0x0 TIMESTAMP PUSH2 0x337 SWAP2 SWAP1 PUSH2 0x801 JUMP JUMPDEST PUSH32 0x0 PUSH2 0x362 SWAP2 SWAP1 PUSH2 0x834 JUMP JUMPDEST PUSH32 0x0 PUSH2 0x38D SWAP2 SWAP1 PUSH2 0x801 JUMP JUMPDEST SWAP1 POP SWAP1 JUMP JUMPDEST PUSH32 0x0 TIMESTAMP LT PUSH2 0x3F4 JUMPI PUSH1 0x40 MLOAD PUSH32 0x8C379A000000000000000000000000000000000000000000000000000000000 DUP2 MSTORE PUSH1 0x4 ADD PUSH2 0x3EB SWAP1 PUSH2 0x8BF JUMP JUMPDEST PUSH1 0x40 MLOAD DUP1 SWAP2 SUB SWAP1 REVERT JUMPDEST PUSH0 PUSH2 0x3FD PUSH2 0x2A8 JUMP JUMPDEST SWAP1 POP DUP1 CALLVALUE GT PUSH2 0x441 JUMPI PUSH1 0x40 MLOAD PUSH32 0x8C379A000000000000000000000000000000000000000000000000000000000 DUP2 MSTORE PUSH1 0x4 ADD PUSH2 0x438 SWAP1 PUSH2 0x927 JUMP JUMPDEST PUSH1 0x40 MLOAD DUP1 SWAP2 SUB SWAP1 REVERT JUMPDEST PUSH32 0x0 PUSH20 0xFFFFFFFFFFFFFFFFFFFFFFFFFFFFFFFFFFFFFFFF AND PUSH4 0x23B872DD PUSH32 0x0 CALLER PUSH32 0x0 PUSH1 0x40 MLOAD DUP5 PUSH4 0xFFFFFFFF AND PUSH1 0xE0 SHL DUP2 MSTORE PUSH1 0x4 ADD PUSH2 0x4DE SWAP4 SWAP3 SWAP2 SWAP1 PUSH2 0x985 JUMP JUMPDEST PUSH0 PUSH1 0x40 MLOAD DUP1 DUP4 SUB DUP2 PUSH0 DUP8 DUP1 EXTCODESIZE ISZERO DUP1 ISZERO PUSH2 0x4F5 JUMPI PUSH0 DUP1 REVERT JUMPDEST POP GAS CALL ISZERO DUP1 ISZERO PUSH2 0x507 JUMPI RETURNDATASIZE PUSH0 DUP1 RETURNDATACOPY RETURNDATASIZE PUSH0 REVERT JUMPDEST POP POP POP POP PUSH0 DUP2 CALLVALUE PUSH2 0x518 SWAP2 SWAP1 PUSH2 0x801 JUMP JUMPDEST SWAP1 POP PUSH0 DUP2 GT ISZERO PUSH2 0x567 JUMPI CALLER PUSH20 0xFFFFFFFFFFFFFFFFFFFFFFFFFFFFFFFFFFFFFFFF AND PUSH2 0x8FC DUP3 SWAP1 DUP2 ISZERO MUL SWAP1 PUSH1 0x40 MLOAD PUSH0 PUSH1 0x40 MLOAD DUP1 DUP4 SUB DUP2 DUP6 DUP9 DUP9 CALL SWAP4 POP POP POP POP ISZERO DUP1 ISZERO PUSH2 0x565 JUMPI RETURNDATASIZE PUSH0 DUP1 RETURNDATACOPY RETURNDATASIZE PUSH0 REVERT JUMPDEST POP JUMPDEST PUSH32 0x0 PUSH20 0xFFFFFFFFFFFFFFFFFFFFFFFFFFFFFFFFFFFFFFFF AND PUSH2 0x8FC SELFBALANCE SWAP1 DUP2 ISZERO MUL SWAP1 PUSH1 0x40 MLOAD PUSH0 PUSH1 0x40 MLOAD DUP1 DUP4 SUB DUP2 DUP6 DUP9 DUP9 CALL SWAP4 POP POP POP POP ISZERO DUP1 ISZERO PUSH2 0x5CA JUMPI RETURNDATASIZE PUSH0 DUP1 RETURNDATACOPY RETURNDATASIZE PUSH0 REVERT JUMPDEST POP POP POP JUMP JUMPDEST PUSH32 0x0 DUP2 JUMP JUMPDEST PUSH32 0x0 DUP2 JUMP JUMPDEST PUSH32 0x0 DUP2 JUMP JUMPDEST PUSH32 0x0 DUP2 JUMP JUMPDEST PUSH0 PUSH20 0xFFFFFFFFFFFFFFFFFFFFFFFFFFFFFFFFFFFFFFFF DUP3 AND SWAP1 POP SWAP2 SWAP1 POP JUMP JUMPDEST PUSH0 PUSH2 0x688 DUP3 PUSH2 0x65F JUMP JUMPDEST SWAP1 POP SWAP2 SWAP1 POP JUMP JUMPDEST PUSH2 0x698 DUP2 PUSH2 0x67E JUMP JUMPDEST DUP3 MSTORE POP POP JUMP JUMPDEST PUSH0 PUSH1 0x20 DUP3 ADD SWAP1 POP PUSH2 0x6B1 PUSH0 DUP4 ADD DUP5 PUSH2 0x68F JUMP JUMPDEST SWAP3 SWAP2 POP POP JUMP JUMPDEST PUSH0 DUP2 SWAP1 POP SWAP2 SWAP1 POP JUMP JUMPDEST PUSH2 0x6C9 DUP2 PUSH2 0x6B7 JUMP JUMPDEST DUP3 MSTORE POP POP JUMP JUMPDEST PUSH0 PUSH1 0x20 DUP3 ADD SWAP1 POP PUSH2 0x6E2 PUSH0 DUP4 ADD DUP5 PUSH2 0x6C0 JUMP JUMPDEST SWAP3 SWAP2 POP POP JUMP JUMPDEST PUSH0 DUP2 SWAP1 POP SWAP2 SWAP1 POP JUMP JUMPDEST PUSH0 PUSH2 0x70B PUSH2 0x706 PUSH2 0x701 DUP5 PUSH2 0x65F JUMP JUMPDEST PUSH2 0x6E8 JUMP JUMPDEST PUSH2 0x65F JUMP JUMPDEST SWAP1 POP SWAP2 SWAP1 POP JUMP JUMPDEST PUSH0 PUSH2 0x71C DUP3 PUSH2 0x6F1 JUMP JUMPDEST SWAP1 POP SWAP2 SWAP1 POP JUMP JUMPDEST PUSH0 PUSH2 0x72D DUP3 PUSH2 0x712 JUMP JUMPDEST SWAP1 POP SWAP2 SWAP1 POP JUMP JUMPDEST PUSH2 0x73D DUP2 PUSH2 0x723 JUMP JUMPDEST DUP3 MSTORE POP POP JUMP JUMPDEST PUSH0 PUSH1 0x20 DUP3 ADD SWAP1 POP PUSH2 0x756 PUSH0 DUP4 ADD DUP5 PUSH2 0x734 JUMP JUMPDEST SWAP3 SWAP2 POP POP JUMP JUMPDEST PUSH0 DUP3 DUP3 MSTORE PUSH1 0x20 DUP3 ADD SWAP1 POP SWAP3 SWAP2 POP POP JUMP JUMPDEST PUSH32 0x616C726561647920657870697265640000000000000000000000000000000000 PUSH0 DUP3 ADD MSTORE POP JUMP JUMPDEST PUSH0 PUSH2 0x7A0 PUSH1 0xF DUP4 PUSH2 0x75C JUMP JUMPDEST SWAP2 POP PUSH2 0x7AB DUP3 PUSH2 0x76C JUMP JUMPDEST PUSH1 0x20 DUP3 ADD SWAP1 POP SWAP2 SWAP1 POP JUMP JUMPDEST PUSH0 PUSH1 0x20 DUP3 ADD SWAP1 POP DUP2 DUP2 SUB PUSH0 DUP4 ADD MSTORE PUSH2 0x7CD DUP2 PUSH2 0x794 JUMP JUMPDEST SWAP1 POP SWAP2 SWAP1 POP JUMP JUMPDEST PUSH32 0x4E487B7100000000000000000000000000000000000000000000000000000000 PUSH0 MSTORE PUSH1 0x11 PUSH1 0x4 MSTORE PUSH1 0x24 PUSH0 REVERT JUMPDEST PUSH0 PUSH2 0x80B DUP3 PUSH2 0x6B7 JUMP JUMPDEST SWAP2 POP PUSH2 0x816 DUP4 PUSH2 0x6B7 JUMP JUMPDEST SWAP3 POP DUP3 DUP3 SUB SWAP1 POP DUP2 DUP2 GT ISZERO PUSH2 0x82E JUMPI PUSH2 0x82D PUSH2 0x7D4 JUMP JUMPDEST JUMPDEST SWAP3 SWAP2 POP POP JUMP JUMPDEST PUSH0 PUSH2 0x83E DUP3 PUSH2 0x6B7 JUMP JUMPDEST SWAP2 POP PUSH2 0x849 DUP4 PUSH2 0x6B7 JUMP JUMPDEST SWAP3 POP DUP3 DUP3 MUL PUSH2 0x857 DUP2 PUSH2 0x6B7 JUMP JUMPDEST SWAP2 POP DUP3 DUP3 DIV DUP5 EQ DUP4 ISZERO OR PUSH2 0x86E JUMPI PUSH2 0x86D PUSH2 0x7D4 JUMP JUMPDEST JUMPDEST POP SWAP3 SWAP2 POP POP JUMP JUMPDEST PUSH32 0x61756374696F6E20657870697265640000000000000000000000000000000000 PUSH0 DUP3 ADD MSTORE POP JUMP JUMPDEST PUSH0 PUSH2 0x8A9 PUSH1 0xF DUP4 PUSH2 0x75C JUMP JUMPDEST SWAP2 POP PUSH2 0x8B4 DUP3 PUSH2 0x875 JUMP JUMPDEST PUSH1 0x20 DUP3 ADD SWAP1 POP SWAP2 SWAP1 POP JUMP JUMPDEST PUSH0 PUSH1 0x20 DUP3 ADD SWAP1 POP DUP2 DUP2 SUB PUSH0 DUP4 ADD MSTORE PUSH2 0x8D6 DUP2 PUSH2 0x89D JUMP JUMPDEST SWAP1 POP SWAP2 SWAP1 POP JUMP JUMPDEST PUSH32 0x455448203C207461726765742070726963650000000000000000000000000000 PUSH0 DUP3 ADD MSTORE POP JUMP JUMPDEST PUSH0 PUSH2 0x911 PUSH1 0x12 DUP4 PUSH2 0x75C JUMP JUMPDEST SWAP2 POP PUSH2 0x91C DUP3 PUSH2 0x8DD JUMP JUMPDEST PUSH1 0x20 DUP3 ADD SWAP1 POP SWAP2 SWAP1 POP JUMP JUMPDEST PUSH0 PUSH1 0x20 DUP3 ADD SWAP1 POP DUP2 DUP2 SUB PUSH0 DUP4 ADD MSTORE PUSH2 0x93E DUP2 PUSH2 0x905 JUMP JUMPDEST SWAP1 POP SWAP2 SWAP1 POP JUMP JUMPDEST PUSH0 PUSH2 0x94F DUP3 PUSH2 0x712 JUMP JUMPDEST SWAP1 POP SWAP2 SWAP1 POP JUMP JUMPDEST PUSH2 0x95F DUP2 PUSH2 0x945 JUMP JUMPDEST DUP3 MSTORE POP POP JUMP JUMPDEST PUSH0 PUSH2 0x96F DUP3 PUSH2 0x65F JUMP JUMPDEST SWAP1 POP SWAP2 SWAP1 POP JUMP JUMPDEST PUSH2 0x97F DUP2 PUSH2 0x965 JUMP JUMPDEST DUP3 MSTORE POP POP JUMP JUMPDEST PUSH0 PUSH1 0x60 DUP3 ADD SWAP1 POP PUSH2 0x998 PUSH0 DUP4 ADD DUP7 PUSH2 0x956 JUMP JUMPDEST PUSH2 0x9A5 PUSH1 0x20 DUP4 ADD DUP6 PUSH2 0x976 JUMP JUMPDEST PUSH2 0x9B2 PUSH1 0x40 DUP4 ADD DUP5 PUSH2 0x6C0 JUMP JUMPDEST SWAP5 SWAP4 POP POP POP POP JUMP INVALID LOG2 PUSH5 0x6970667358 0x22 SLT KECCAK256 DUP6 SWAP13 SWAP11 DUP5 0xF7 SWAP12 SWAP1 JUMPI SELFBALANCE EXTCODECOPY 0xD2 PUSH0 ISZERO CODESIZE 0xD3 SELFDESTRUCT 0xD0 MULMOD ADDRESS PUSH2 0xCB2E NUMBER SSTORE SUB DUP3 0x28 0xB0 DUP3 PUSH32 0x10CE64736F6C634300081A003300000000000000000000000000000000000000 "
				},
				"gasEstimates": {
					"creation": {
						"codeDepositCost": "508800",
						"executionCost": "infinite",
						"totalCost": "infinite"
					},
					"external": {
						"DURATION()": "infinite",
						"buy()": "infinite",
						"discountRate()": "infinite",
						"expireAt()": "infinite",
						"getPrice()": "infinite",
						"nft()": "infinite",
						"nftId()": "infinite",
						"seller()": "infinite",
						"startAt()": "infinite",
						"startingPrice()": "infinite"
					}
				},
				"methodIdentifiers": {
					"DURATION()": "1be05289",
					"buy()": "a6f2ae3a",
					"discountRate()": "e6c0e6d5",
					"expireAt()": "748ef72e",
					"getPrice()": "98d5fdca",
					"nft()": "47ccca02",
					"nftId()": "c6bc5182",
					"seller()": "08551a53",
					"startAt()": "c7446565",
					"startingPrice()": "d6fbf202"
				}
			},
			"storageLayout": {
				"storage": [],
				"types": null
			},
			"userdoc": {
				"kind": "user",
				"methods": {},
				"version": 1
			}
		}
	}
}