{
	"contracts/AbiDecode.sol": {
		"ABIDecode": {
			"abi": [
				{
					"inputs": [
						{
							"internalType": "bytes",
							"name": "data",
							"type": "bytes"
						}
					],
					"name": "decode",
					"outputs": [
						{
							"internalType": "uint256",
							"name": "x",
							"type": "uint256"
						},
						{
							"internalType": "address",
							"name": "addr",
							"type": "address"
						},
						{
							"internalType": "uint256[]",
							"name": "arr",
							"type": "uint256[]"
						},
						{
							"components": [
								{
									"internalType": "string",
									"name": "name",
									"type": "string"
								},
								{
									"internalType": "uint256[]",
									"name": "arr",
									"type": "uint256[]"
								}
							],
							"internalType": "struct ABIDecode.MyStruct",
							"name": "myStruct",
							"type": "tuple"
						}
					],
					"stateMutability": "pure",
					"type": "function"
				},
				{
					"inputs": [
						{
							"internalType": "uint256",
							"name": "x",
							"type": "uint256"
						},
						{
							"internalType": "address",
							"name": "addr",
							"type": "address"
						},
						{
							"internalType": "uint256[]",
							"name": "arr",
							"type": "uint256[]"
						},
						{
							"components": [
								{
									"internalType": "string",
									"name": "name",
									"type": "string"
								},
								{
									"internalType": "uint256[]",
									"name": "arr",
									"type": "uint256[]"
								}
							],
							"internalType": "struct ABIDecode.MyStruct",
							"name": "myStruct",
							"type": "tuple"
						}
					],
					"name": "encode",
					"outputs": [
						{
							"internalType": "bytes",
							"name": "",
							"type": "bytes"
						}
					],
					"stateMutability": "pure",
					"type": "function"
				}
			],
			"devdoc": {
				"kind": "dev",
				"methods": {},
				"version": 1
			},
			"evm": {
				"assembly": "    /* \"contracts/AbiDecode.sol\":60:564  contract ABIDecode {... */\n  mstore(0x40, 0x80)\n  callvalue\n  dup1\n  iszero\n  tag_1\n  jumpi\n  0x00\n  dup1\n  revert\ntag_1:\n  pop\n  dataSize(sub_0)\n  dup1\n  dataOffset(sub_0)\n  0x00\n  codecopy\n  0x00\n  return\nstop\n\nsub_0: assembly {\n        /* \"contracts/AbiDecode.sol\":60:564  contract ABIDecode {... */\n      mstore(0x40, 0x80)\n      callvalue\n      dup1\n      iszero\n      tag_1\n      jumpi\n      0x00\n      dup1\n      revert\n    tag_1:\n      pop\n      jumpi(tag_2, lt(calldatasize, 0x04))\n      shr(0xe0, calldataload(0x00))\n      dup1\n      0xb9ff2f08\n      eq\n      tag_3\n      jumpi\n      dup1\n      0xe5c5e9a3\n      eq\n      tag_4\n      jumpi\n    tag_2:\n      0x00\n      dup1\n      revert\n        /* \"contracts/AbiDecode.sol\":165:338  function encode(uint x,address addr,uint[] memory arr,MyStruct memory myStruct) external pure returns(bytes memory) {... */\n    tag_3:\n      tag_5\n      0x04\n      dup1\n      calldatasize\n      sub\n      dup2\n      add\n      swap1\n      tag_6\n      swap2\n      swap1\n      tag_7\n      jump\t// in\n    tag_6:\n      tag_8\n      jump\t// in\n    tag_5:\n      mload(0x40)\n      tag_9\n      swap2\n      swap1\n      tag_10\n      jump\t// in\n    tag_9:\n      mload(0x40)\n      dup1\n      swap2\n      sub\n      swap1\n      return\n        /* \"contracts/AbiDecode.sol\":346:557  function decode(bytes memory data) external pure returns(uint x,address addr,uint[] memory arr,MyStruct memory myStruct) {... */\n    tag_4:\n      tag_11\n      0x04\n      dup1\n      calldatasize\n      sub\n      dup2\n      add\n      swap1\n      tag_12\n      swap2\n      swap1\n      tag_13\n      jump\t// in\n    tag_12:\n      tag_14\n      jump\t// in\n    tag_11:\n      mload(0x40)\n      tag_15\n      swap5\n      swap4\n      swap3\n      swap2\n      swap1\n      tag_16\n      jump\t// in\n    tag_15:\n      mload(0x40)\n      dup1\n      swap2\n      sub\n      swap1\n      return\n        /* \"contracts/AbiDecode.sol\":165:338  function encode(uint x,address addr,uint[] memory arr,MyStruct memory myStruct) external pure returns(bytes memory) {... */\n    tag_8:\n        /* \"contracts/AbiDecode.sol\":267:279  bytes memory */\n      0x60\n        /* \"contracts/AbiDecode.sol\":310:311  x */\n      dup5\n        /* \"contracts/AbiDecode.sol\":312:316  addr */\n      dup5\n        /* \"contracts/AbiDecode.sol\":317:320  arr */\n      dup5\n        /* \"contracts/AbiDecode.sol\":321:329  myStruct */\n      dup5\n        /* \"contracts/AbiDecode.sol\":299:330  abi.encode(x,addr,arr,myStruct) */\n      add(0x20, mload(0x40))\n      tag_18\n      swap5\n      swap4\n      swap3\n      swap2\n      swap1\n      tag_16\n      jump\t// in\n    tag_18:\n      mload(0x40)\n      0x20\n      dup2\n      dup4\n      sub\n      sub\n      dup2\n      mstore\n      swap1\n      0x40\n      mstore\n        /* \"contracts/AbiDecode.sol\":292:330  return abi.encode(x,addr,arr,myStruct) */\n      swap1\n      pop\n        /* \"contracts/AbiDecode.sol\":165:338  function encode(uint x,address addr,uint[] memory arr,MyStruct memory myStruct) external pure returns(bytes memory) {... */\n      swap5\n      swap4\n      pop\n      pop\n      pop\n      pop\n      jump\t// out\n        /* \"contracts/AbiDecode.sol\":346:557  function decode(bytes memory data) external pure returns(uint x,address addr,uint[] memory arr,MyStruct memory myStruct) {... */\n    tag_14:\n        /* \"contracts/AbiDecode.sol\":403:409  uint x */\n      0x00\n        /* \"contracts/AbiDecode.sol\":410:422  address addr */\n      dup1\n        /* \"contracts/AbiDecode.sol\":423:440  uint[] memory arr */\n      0x60\n        /* \"contracts/AbiDecode.sol\":441:465  MyStruct memory myStruct */\n      tag_19\n      tag_20\n      jump\t// in\n    tag_19:\n        /* \"contracts/AbiDecode.sol\":513:517  data */\n      dup5\n        /* \"contracts/AbiDecode.sol\":502:549  abi.decode(data,(uint,address,uint[],MyStruct)) */\n      dup1\n      0x20\n      add\n      swap1\n      mload\n      dup2\n      add\n      swap1\n      tag_22\n      swap2\n      swap1\n      tag_23\n      jump\t// in\n    tag_22:\n        /* \"contracts/AbiDecode.sol\":478:549  (x,addr,arr,myStruct) = abi.decode(data,(uint,address,uint[],MyStruct)) */\n      dup1\n      swap5\n      pop\n      dup2\n      swap6\n      pop\n      dup3\n      swap7\n      pop\n      dup4\n      swap8\n      pop\n      pop\n      pop\n      pop\n      pop\n        /* \"contracts/AbiDecode.sol\":346:557  function decode(bytes memory data) external pure returns(uint x,address addr,uint[] memory arr,MyStruct memory myStruct) {... */\n      swap2\n      swap4\n      pop\n      swap2\n      swap4\n      jump\t// out\n    tag_20:\n      mload(0x40)\n      dup1\n      0x40\n      add\n      0x40\n      mstore\n      dup1\n      0x60\n      dup2\n      mstore\n      0x20\n      add\n      0x60\n      dup2\n      mstore\n      pop\n      swap1\n      jump\t// out\n        /* \"#utility.yul\":7:82   */\n    tag_24:\n        /* \"#utility.yul\":40:46   */\n      0x00\n        /* \"#utility.yul\":73:75   */\n      0x40\n        /* \"#utility.yul\":67:76   */\n      mload\n        /* \"#utility.yul\":57:76   */\n      swap1\n      pop\n        /* \"#utility.yul\":7:82   */\n      swap1\n      jump\t// out\n        /* \"#utility.yul\":88:205   */\n    tag_25:\n        /* \"#utility.yul\":197:198   */\n      0x00\n        /* \"#utility.yul\":194:195   */\n      dup1\n        /* \"#utility.yul\":187:199   */\n      revert\n        /* \"#utility.yul\":211:328   */\n    tag_26:\n        /* \"#utility.yul\":320:321   */\n      0x00\n        /* \"#utility.yul\":317:318   */\n      dup1\n        /* \"#utility.yul\":310:322   */\n      revert\n        /* \"#utility.yul\":334:411   */\n    tag_27:\n        /* \"#utility.yul\":371:378   */\n      0x00\n        /* \"#utility.yul\":400:405   */\n      dup2\n        /* \"#utility.yul\":389:405   */\n      swap1\n      pop\n        /* \"#utility.yul\":334:411   */\n      swap2\n      swap1\n      pop\n      jump\t// out\n        /* \"#utility.yul\":417:539   */\n    tag_28:\n        /* \"#utility.yul\":490:514   */\n      tag_88\n        /* \"#utility.yul\":508:513   */\n      dup2\n        /* \"#utility.yul\":490:514   */\n      tag_27\n      jump\t// in\n    tag_88:\n        /* \"#utility.yul\":483:488   */\n      dup2\n        /* \"#utility.yul\":480:515   */\n      eq\n        /* \"#utility.yul\":470:533   */\n      tag_89\n      jumpi\n        /* \"#utility.yul\":529:530   */\n      0x00\n        /* \"#utility.yul\":526:527   */\n      dup1\n        /* \"#utility.yul\":519:531   */\n      revert\n        /* \"#utility.yul\":470:533   */\n    tag_89:\n        /* \"#utility.yul\":417:539   */\n      pop\n      jump\t// out\n        /* \"#utility.yul\":545:684   */\n    tag_29:\n        /* \"#utility.yul\":591:596   */\n      0x00\n        /* \"#utility.yul\":629:635   */\n      dup2\n        /* \"#utility.yul\":616:636   */\n      calldataload\n        /* \"#utility.yul\":607:636   */\n      swap1\n      pop\n        /* \"#utility.yul\":645:678   */\n      tag_91\n        /* \"#utility.yul\":672:677   */\n      dup2\n        /* \"#utility.yul\":645:678   */\n      tag_28\n      jump\t// in\n    tag_91:\n        /* \"#utility.yul\":545:684   */\n      swap3\n      swap2\n      pop\n      pop\n      jump\t// out\n        /* \"#utility.yul\":690:816   */\n    tag_30:\n        /* \"#utility.yul\":727:734   */\n      0x00\n        /* \"#utility.yul\":767:809   */\n      0xffffffffffffffffffffffffffffffffffffffff\n        /* \"#utility.yul\":760:765   */\n      dup3\n        /* \"#utility.yul\":756:810   */\n      and\n        /* \"#utility.yul\":745:810   */\n      swap1\n      pop\n        /* \"#utility.yul\":690:816   */\n      swap2\n      swap1\n      pop\n      jump\t// out\n        /* \"#utility.yul\":822:918   */\n    tag_31:\n        /* \"#utility.yul\":859:866   */\n      0x00\n        /* \"#utility.yul\":888:912   */\n      tag_94\n        /* \"#utility.yul\":906:911   */\n      dup3\n        /* \"#utility.yul\":888:912   */\n      tag_30\n      jump\t// in\n    tag_94:\n        /* \"#utility.yul\":877:912   */\n      swap1\n      pop\n        /* \"#utility.yul\":822:918   */\n      swap2\n      swap1\n      pop\n      jump\t// out\n        /* \"#utility.yul\":924:1046   */\n    tag_32:\n        /* \"#utility.yul\":997:1021   */\n      tag_96\n        /* \"#utility.yul\":1015:1020   */\n      dup2\n        /* \"#utility.yul\":997:1021   */\n      tag_31\n      jump\t// in\n    tag_96:\n        /* \"#utility.yul\":990:995   */\n      dup2\n        /* \"#utility.yul\":987:1022   */\n      eq\n        /* \"#utility.yul\":977:1040   */\n      tag_97\n      jumpi\n        /* \"#utility.yul\":1036:1037   */\n      0x00\n        /* \"#utility.yul\":1033:1034   */\n      dup1\n        /* \"#utility.yul\":1026:1038   */\n      revert\n        /* \"#utility.yul\":977:1040   */\n    tag_97:\n        /* \"#utility.yul\":924:1046   */\n      pop\n      jump\t// out\n        /* \"#utility.yul\":1052:1191   */\n    tag_33:\n        /* \"#utility.yul\":1098:1103   */\n      0x00\n        /* \"#utility.yul\":1136:1142   */\n      dup2\n        /* \"#utility.yul\":1123:1143   */\n      calldataload\n        /* \"#utility.yul\":1114:1143   */\n      swap1\n      pop\n        /* \"#utility.yul\":1152:1185   */\n      tag_99\n        /* \"#utility.yul\":1179:1184   */\n      dup2\n        /* \"#utility.yul\":1152:1185   */\n      tag_32\n      jump\t// in\n    tag_99:\n        /* \"#utility.yul\":1052:1191   */\n      swap3\n      swap2\n      pop\n      pop\n      jump\t// out\n        /* \"#utility.yul\":1197:1314   */\n    tag_34:\n        /* \"#utility.yul\":1306:1307   */\n      0x00\n        /* \"#utility.yul\":1303:1304   */\n      dup1\n        /* \"#utility.yul\":1296:1308   */\n      revert\n        /* \"#utility.yul\":1320:1422   */\n    tag_35:\n        /* \"#utility.yul\":1361:1367   */\n      0x00\n        /* \"#utility.yul\":1412:1414   */\n      0x1f\n        /* \"#utility.yul\":1408:1415   */\n      not\n        /* \"#utility.yul\":1403:1405   */\n      0x1f\n        /* \"#utility.yul\":1396:1401   */\n      dup4\n        /* \"#utility.yul\":1392:1406   */\n      add\n        /* \"#utility.yul\":1388:1416   */\n      and\n        /* \"#utility.yul\":1378:1416   */\n      swap1\n      pop\n        /* \"#utility.yul\":1320:1422   */\n      swap2\n      swap1\n      pop\n      jump\t// out\n        /* \"#utility.yul\":1428:1608   */\n    tag_36:\n        /* \"#utility.yul\":1476:1553   */\n      0x4e487b7100000000000000000000000000000000000000000000000000000000\n        /* \"#utility.yul\":1473:1474   */\n      0x00\n        /* \"#utility.yul\":1466:1554   */\n      mstore\n        /* \"#utility.yul\":1573:1577   */\n      0x41\n        /* \"#utility.yul\":1570:1571   */\n      0x04\n        /* \"#utility.yul\":1563:1578   */\n      mstore\n        /* \"#utility.yul\":1597:1601   */\n      0x24\n        /* \"#utility.yul\":1594:1595   */\n      0x00\n        /* \"#utility.yul\":1587:1602   */\n      revert\n        /* \"#utility.yul\":1614:1895   */\n    tag_37:\n        /* \"#utility.yul\":1697:1724   */\n      tag_104\n        /* \"#utility.yul\":1719:1723   */\n      dup3\n        /* \"#utility.yul\":1697:1724   */\n      tag_35\n      jump\t// in\n    tag_104:\n        /* \"#utility.yul\":1689:1695   */\n      dup2\n        /* \"#utility.yul\":1685:1725   */\n      add\n        /* \"#utility.yul\":1827:1833   */\n      dup2\n        /* \"#utility.yul\":1815:1825   */\n      dup2\n        /* \"#utility.yul\":1812:1834   */\n      lt\n        /* \"#utility.yul\":1791:1809   */\n      0xffffffffffffffff\n        /* \"#utility.yul\":1779:1789   */\n      dup3\n        /* \"#utility.yul\":1776:1810   */\n      gt\n        /* \"#utility.yul\":1773:1835   */\n      or\n        /* \"#utility.yul\":1770:1858   */\n      iszero\n      tag_105\n      jumpi\n        /* \"#utility.yul\":1838:1856   */\n      tag_106\n      tag_36\n      jump\t// in\n    tag_106:\n        /* \"#utility.yul\":1770:1858   */\n    tag_105:\n        /* \"#utility.yul\":1878:1888   */\n      dup1\n        /* \"#utility.yul\":1874:1876   */\n      0x40\n        /* \"#utility.yul\":1867:1889   */\n      mstore\n        /* \"#utility.yul\":1657:1895   */\n      pop\n        /* \"#utility.yul\":1614:1895   */\n      pop\n      pop\n      jump\t// out\n        /* \"#utility.yul\":1901:2030   */\n    tag_38:\n        /* \"#utility.yul\":1935:1941   */\n      0x00\n        /* \"#utility.yul\":1962:1982   */\n      tag_108\n      tag_24\n      jump\t// in\n    tag_108:\n        /* \"#utility.yul\":1952:1982   */\n      swap1\n      pop\n        /* \"#utility.yul\":1991:2024   */\n      tag_109\n        /* \"#utility.yul\":2019:2023   */\n      dup3\n        /* \"#utility.yul\":2011:2017   */\n      dup3\n        /* \"#utility.yul\":1991:2024   */\n      tag_37\n      jump\t// in\n    tag_109:\n        /* \"#utility.yul\":1901:2030   */\n      swap2\n      swap1\n      pop\n      jump\t// out\n        /* \"#utility.yul\":2036:2347   */\n    tag_39:\n        /* \"#utility.yul\":2113:2117   */\n      0x00\n        /* \"#utility.yul\":2203:2221   */\n      0xffffffffffffffff\n        /* \"#utility.yul\":2195:2201   */\n      dup3\n        /* \"#utility.yul\":2192:2222   */\n      gt\n        /* \"#utility.yul\":2189:2245   */\n      iszero\n      tag_111\n      jumpi\n        /* \"#utility.yul\":2225:2243   */\n      tag_112\n      tag_36\n      jump\t// in\n    tag_112:\n        /* \"#utility.yul\":2189:2245   */\n    tag_111:\n        /* \"#utility.yul\":2275:2279   */\n      0x20\n        /* \"#utility.yul\":2267:2273   */\n      dup3\n        /* \"#utility.yul\":2263:2280   */\n      mul\n        /* \"#utility.yul\":2255:2280   */\n      swap1\n      pop\n        /* \"#utility.yul\":2335:2339   */\n      0x20\n        /* \"#utility.yul\":2329:2333   */\n      dup2\n        /* \"#utility.yul\":2325:2340   */\n      add\n        /* \"#utility.yul\":2317:2340   */\n      swap1\n      pop\n        /* \"#utility.yul\":2036:2347   */\n      swap2\n      swap1\n      pop\n      jump\t// out\n        /* \"#utility.yul\":2353:2470   */\n    tag_40:\n        /* \"#utility.yul\":2462:2463   */\n      0x00\n        /* \"#utility.yul\":2459:2460   */\n      dup1\n        /* \"#utility.yul\":2452:2464   */\n      revert\n        /* \"#utility.yul\":2493:3203   */\n    tag_41:\n        /* \"#utility.yul\":2589:2594   */\n      0x00\n        /* \"#utility.yul\":2614:2695   */\n      tag_115\n        /* \"#utility.yul\":2630:2694   */\n      tag_116\n        /* \"#utility.yul\":2687:2693   */\n      dup5\n        /* \"#utility.yul\":2630:2694   */\n      tag_39\n      jump\t// in\n    tag_116:\n        /* \"#utility.yul\":2614:2695   */\n      tag_38\n      jump\t// in\n    tag_115:\n        /* \"#utility.yul\":2605:2695   */\n      swap1\n      pop\n        /* \"#utility.yul\":2715:2720   */\n      dup1\n        /* \"#utility.yul\":2744:2750   */\n      dup4\n        /* \"#utility.yul\":2737:2742   */\n      dup3\n        /* \"#utility.yul\":2730:2751   */\n      mstore\n        /* \"#utility.yul\":2778:2782   */\n      0x20\n        /* \"#utility.yul\":2771:2776   */\n      dup3\n        /* \"#utility.yul\":2767:2783   */\n      add\n        /* \"#utility.yul\":2760:2783   */\n      swap1\n      pop\n        /* \"#utility.yul\":2831:2835   */\n      0x20\n        /* \"#utility.yul\":2823:2829   */\n      dup5\n        /* \"#utility.yul\":2819:2836   */\n      mul\n        /* \"#utility.yul\":2811:2817   */\n      dup4\n        /* \"#utility.yul\":2807:2837   */\n      add\n        /* \"#utility.yul\":2860:2863   */\n      dup6\n        /* \"#utility.yul\":2852:2858   */\n      dup2\n        /* \"#utility.yul\":2849:2864   */\n      gt\n        /* \"#utility.yul\":2846:2968   */\n      iszero\n      tag_117\n      jumpi\n        /* \"#utility.yul\":2879:2958   */\n      tag_118\n      tag_40\n      jump\t// in\n    tag_118:\n        /* \"#utility.yul\":2846:2968   */\n    tag_117:\n        /* \"#utility.yul\":2994:3000   */\n      dup4\n        /* \"#utility.yul\":2977:3197   */\n    tag_119:\n        /* \"#utility.yul\":3011:3017   */\n      dup2\n        /* \"#utility.yul\":3006:3009   */\n      dup2\n        /* \"#utility.yul\":3003:3018   */\n      lt\n        /* \"#utility.yul\":2977:3197   */\n      iszero\n      tag_121\n      jumpi\n        /* \"#utility.yul\":3086:3089   */\n      dup1\n        /* \"#utility.yul\":3115:3152   */\n      tag_122\n        /* \"#utility.yul\":3148:3151   */\n      dup9\n        /* \"#utility.yul\":3136:3146   */\n      dup3\n        /* \"#utility.yul\":3115:3152   */\n      tag_29\n      jump\t// in\n    tag_122:\n        /* \"#utility.yul\":3110:3113   */\n      dup5\n        /* \"#utility.yul\":3103:3153   */\n      mstore\n        /* \"#utility.yul\":3182:3186   */\n      0x20\n        /* \"#utility.yul\":3177:3180   */\n      dup5\n        /* \"#utility.yul\":3173:3187   */\n      add\n        /* \"#utility.yul\":3166:3187   */\n      swap4\n      pop\n        /* \"#utility.yul\":3053:3197   */\n      pop\n        /* \"#utility.yul\":3037:3041   */\n      0x20\n        /* \"#utility.yul\":3032:3035   */\n      dup2\n        /* \"#utility.yul\":3028:3042   */\n      add\n        /* \"#utility.yul\":3021:3042   */\n      swap1\n      pop\n        /* \"#utility.yul\":2977:3197   */\n      jump(tag_119)\n    tag_121:\n        /* \"#utility.yul\":2981:3002   */\n      pop\n        /* \"#utility.yul\":2595:3203   */\n      pop\n      pop\n        /* \"#utility.yul\":2493:3203   */\n      swap4\n      swap3\n      pop\n      pop\n      pop\n      jump\t// out\n        /* \"#utility.yul\":3226:3596   */\n    tag_42:\n        /* \"#utility.yul\":3297:3302   */\n      0x00\n        /* \"#utility.yul\":3346:3349   */\n      dup3\n        /* \"#utility.yul\":3339:3343   */\n      0x1f\n        /* \"#utility.yul\":3331:3337   */\n      dup4\n        /* \"#utility.yul\":3327:3344   */\n      add\n        /* \"#utility.yul\":3323:3350   */\n      slt\n        /* \"#utility.yul\":3313:3435   */\n      tag_124\n      jumpi\n        /* \"#utility.yul\":3354:3433   */\n      tag_125\n      tag_34\n      jump\t// in\n    tag_125:\n        /* \"#utility.yul\":3313:3435   */\n    tag_124:\n        /* \"#utility.yul\":3471:3477   */\n      dup2\n        /* \"#utility.yul\":3458:3478   */\n      calldataload\n        /* \"#utility.yul\":3496:3590   */\n      tag_126\n        /* \"#utility.yul\":3586:3589   */\n      dup5\n        /* \"#utility.yul\":3578:3584   */\n      dup3\n        /* \"#utility.yul\":3571:3575   */\n      0x20\n        /* \"#utility.yul\":3563:3569   */\n      dup7\n        /* \"#utility.yul\":3559:3576   */\n      add\n        /* \"#utility.yul\":3496:3590   */\n      tag_41\n      jump\t// in\n    tag_126:\n        /* \"#utility.yul\":3487:3590   */\n      swap2\n      pop\n        /* \"#utility.yul\":3303:3596   */\n      pop\n        /* \"#utility.yul\":3226:3596   */\n      swap3\n      swap2\n      pop\n      pop\n      jump\t// out\n        /* \"#utility.yul\":3602:3719   */\n    tag_43:\n        /* \"#utility.yul\":3711:3712   */\n      0x00\n        /* \"#utility.yul\":3708:3709   */\n      dup1\n        /* \"#utility.yul\":3701:3713   */\n      revert\n        /* \"#utility.yul\":3725:3842   */\n    tag_44:\n        /* \"#utility.yul\":3834:3835   */\n      0x00\n        /* \"#utility.yul\":3831:3832   */\n      dup1\n        /* \"#utility.yul\":3824:3836   */\n      revert\n        /* \"#utility.yul\":3848:3965   */\n    tag_45:\n        /* \"#utility.yul\":3957:3958   */\n      0x00\n        /* \"#utility.yul\":3954:3955   */\n      dup1\n        /* \"#utility.yul\":3947:3959   */\n      revert\n        /* \"#utility.yul\":3971:4279   */\n    tag_46:\n        /* \"#utility.yul\":4033:4037   */\n      0x00\n        /* \"#utility.yul\":4123:4141   */\n      0xffffffffffffffff\n        /* \"#utility.yul\":4115:4121   */\n      dup3\n        /* \"#utility.yul\":4112:4142   */\n      gt\n        /* \"#utility.yul\":4109:4165   */\n      iszero\n      tag_131\n      jumpi\n        /* \"#utility.yul\":4145:4163   */\n      tag_132\n      tag_36\n      jump\t// in\n    tag_132:\n        /* \"#utility.yul\":4109:4165   */\n    tag_131:\n        /* \"#utility.yul\":4183:4212   */\n      tag_133\n        /* \"#utility.yul\":4205:4211   */\n      dup3\n        /* \"#utility.yul\":4183:4212   */\n      tag_35\n      jump\t// in\n    tag_133:\n        /* \"#utility.yul\":4175:4212   */\n      swap1\n      pop\n        /* \"#utility.yul\":4267:4271   */\n      0x20\n        /* \"#utility.yul\":4261:4265   */\n      dup2\n        /* \"#utility.yul\":4257:4272   */\n      add\n        /* \"#utility.yul\":4249:4272   */\n      swap1\n      pop\n        /* \"#utility.yul\":3971:4279   */\n      swap2\n      swap1\n      pop\n      jump\t// out\n        /* \"#utility.yul\":4285:4433   */\n    tag_47:\n        /* \"#utility.yul\":4383:4389   */\n      dup3\n        /* \"#utility.yul\":4378:4381   */\n      dup2\n        /* \"#utility.yul\":4373:4376   */\n      dup4\n        /* \"#utility.yul\":4360:4390   */\n      calldatacopy\n        /* \"#utility.yul\":4424:4425   */\n      0x00\n        /* \"#utility.yul\":4415:4421   */\n      dup4\n        /* \"#utility.yul\":4410:4413   */\n      dup4\n        /* \"#utility.yul\":4406:4422   */\n      add\n        /* \"#utility.yul\":4399:4426   */\n      mstore\n        /* \"#utility.yul\":4285:4433   */\n      pop\n      pop\n      pop\n      jump\t// out\n        /* \"#utility.yul\":4439:4864   */\n    tag_48:\n        /* \"#utility.yul\":4517:4522   */\n      0x00\n        /* \"#utility.yul\":4542:4608   */\n      tag_136\n        /* \"#utility.yul\":4558:4607   */\n      tag_137\n        /* \"#utility.yul\":4600:4606   */\n      dup5\n        /* \"#utility.yul\":4558:4607   */\n      tag_46\n      jump\t// in\n    tag_137:\n        /* \"#utility.yul\":4542:4608   */\n      tag_38\n      jump\t// in\n    tag_136:\n        /* \"#utility.yul\":4533:4608   */\n      swap1\n      pop\n        /* \"#utility.yul\":4631:4637   */\n      dup3\n        /* \"#utility.yul\":4624:4629   */\n      dup2\n        /* \"#utility.yul\":4617:4638   */\n      mstore\n        /* \"#utility.yul\":4669:4673   */\n      0x20\n        /* \"#utility.yul\":4662:4667   */\n      dup2\n        /* \"#utility.yul\":4658:4674   */\n      add\n        /* \"#utility.yul\":4707:4710   */\n      dup5\n        /* \"#utility.yul\":4698:4704   */\n      dup5\n        /* \"#utility.yul\":4693:4696   */\n      dup5\n        /* \"#utility.yul\":4689:4705   */\n      add\n        /* \"#utility.yul\":4686:4711   */\n      gt\n        /* \"#utility.yul\":4683:4795   */\n      iszero\n      tag_138\n      jumpi\n        /* \"#utility.yul\":4714:4793   */\n      tag_139\n      tag_45\n      jump\t// in\n    tag_139:\n        /* \"#utility.yul\":4683:4795   */\n    tag_138:\n        /* \"#utility.yul\":4804:4858   */\n      tag_140\n        /* \"#utility.yul\":4851:4857   */\n      dup5\n        /* \"#utility.yul\":4846:4849   */\n      dup3\n        /* \"#utility.yul\":4841:4844   */\n      dup6\n        /* \"#utility.yul\":4804:4858   */\n      tag_47\n      jump\t// in\n    tag_140:\n        /* \"#utility.yul\":4523:4864   */\n      pop\n        /* \"#utility.yul\":4439:4864   */\n      swap4\n      swap3\n      pop\n      pop\n      pop\n      jump\t// out\n        /* \"#utility.yul\":4884:5224   */\n    tag_49:\n        /* \"#utility.yul\":4940:4945   */\n      0x00\n        /* \"#utility.yul\":4989:4992   */\n      dup3\n        /* \"#utility.yul\":4982:4986   */\n      0x1f\n        /* \"#utility.yul\":4974:4980   */\n      dup4\n        /* \"#utility.yul\":4970:4987   */\n      add\n        /* \"#utility.yul\":4966:4993   */\n      slt\n        /* \"#utility.yul\":4956:5078   */\n      tag_142\n      jumpi\n        /* \"#utility.yul\":4997:5076   */\n      tag_143\n      tag_34\n      jump\t// in\n    tag_143:\n        /* \"#utility.yul\":4956:5078   */\n    tag_142:\n        /* \"#utility.yul\":5114:5120   */\n      dup2\n        /* \"#utility.yul\":5101:5121   */\n      calldataload\n        /* \"#utility.yul\":5139:5218   */\n      tag_144\n        /* \"#utility.yul\":5214:5217   */\n      dup5\n        /* \"#utility.yul\":5206:5212   */\n      dup3\n        /* \"#utility.yul\":5199:5203   */\n      0x20\n        /* \"#utility.yul\":5191:5197   */\n      dup7\n        /* \"#utility.yul\":5187:5204   */\n      add\n        /* \"#utility.yul\":5139:5218   */\n      tag_48\n      jump\t// in\n    tag_144:\n        /* \"#utility.yul\":5130:5218   */\n      swap2\n      pop\n        /* \"#utility.yul\":4946:5224   */\n      pop\n        /* \"#utility.yul\":4884:5224   */\n      swap3\n      swap2\n      pop\n      pop\n      jump\t// out\n        /* \"#utility.yul\":5263:6189   */\n    tag_50:\n        /* \"#utility.yul\":5335:5340   */\n      0x00\n        /* \"#utility.yul\":5379:5383   */\n      0x40\n        /* \"#utility.yul\":5367:5376   */\n      dup3\n        /* \"#utility.yul\":5362:5365   */\n      dup5\n        /* \"#utility.yul\":5358:5377   */\n      sub\n        /* \"#utility.yul\":5354:5384   */\n      slt\n        /* \"#utility.yul\":5351:5468   */\n      iszero\n      tag_146\n      jumpi\n        /* \"#utility.yul\":5387:5466   */\n      tag_147\n      tag_43\n      jump\t// in\n    tag_147:\n        /* \"#utility.yul\":5351:5468   */\n    tag_146:\n        /* \"#utility.yul\":5486:5507   */\n      tag_148\n        /* \"#utility.yul\":5502:5506   */\n      0x40\n        /* \"#utility.yul\":5486:5507   */\n      tag_38\n      jump\t// in\n    tag_148:\n        /* \"#utility.yul\":5477:5507   */\n      swap1\n      pop\n        /* \"#utility.yul\":5594:5595   */\n      0x00\n        /* \"#utility.yul\":5583:5592   */\n      dup3\n        /* \"#utility.yul\":5579:5596   */\n      add\n        /* \"#utility.yul\":5566:5597   */\n      calldataload\n        /* \"#utility.yul\":5624:5642   */\n      0xffffffffffffffff\n        /* \"#utility.yul\":5616:5622   */\n      dup2\n        /* \"#utility.yul\":5613:5643   */\n      gt\n        /* \"#utility.yul\":5610:5727   */\n      iszero\n      tag_149\n      jumpi\n        /* \"#utility.yul\":5646:5725   */\n      tag_150\n      tag_44\n      jump\t// in\n    tag_150:\n        /* \"#utility.yul\":5610:5727   */\n    tag_149:\n        /* \"#utility.yul\":5766:5825   */\n      tag_151\n        /* \"#utility.yul\":5821:5824   */\n      dup5\n        /* \"#utility.yul\":5812:5818   */\n      dup3\n        /* \"#utility.yul\":5801:5810   */\n      dup6\n        /* \"#utility.yul\":5797:5819   */\n      add\n        /* \"#utility.yul\":5766:5825   */\n      tag_49\n      jump\t// in\n    tag_151:\n        /* \"#utility.yul\":5759:5763   */\n      0x00\n        /* \"#utility.yul\":5752:5757   */\n      dup4\n        /* \"#utility.yul\":5748:5764   */\n      add\n        /* \"#utility.yul\":5741:5826   */\n      mstore\n        /* \"#utility.yul\":5517:5837   */\n      pop\n        /* \"#utility.yul\":5923:5925   */\n      0x20\n        /* \"#utility.yul\":5912:5921   */\n      dup3\n        /* \"#utility.yul\":5908:5926   */\n      add\n        /* \"#utility.yul\":5895:5927   */\n      calldataload\n        /* \"#utility.yul\":5954:5972   */\n      0xffffffffffffffff\n        /* \"#utility.yul\":5946:5952   */\n      dup2\n        /* \"#utility.yul\":5943:5973   */\n      gt\n        /* \"#utility.yul\":5940:6057   */\n      iszero\n      tag_152\n      jumpi\n        /* \"#utility.yul\":5976:6055   */\n      tag_153\n      tag_44\n      jump\t// in\n    tag_153:\n        /* \"#utility.yul\":5940:6057   */\n    tag_152:\n        /* \"#utility.yul\":6096:6170   */\n      tag_154\n        /* \"#utility.yul\":6166:6169   */\n      dup5\n        /* \"#utility.yul\":6157:6163   */\n      dup3\n        /* \"#utility.yul\":6146:6155   */\n      dup6\n        /* \"#utility.yul\":6142:6164   */\n      add\n        /* \"#utility.yul\":6096:6170   */\n      tag_42\n      jump\t// in\n    tag_154:\n        /* \"#utility.yul\":6089:6093   */\n      0x20\n        /* \"#utility.yul\":6082:6087   */\n      dup4\n        /* \"#utility.yul\":6078:6094   */\n      add\n        /* \"#utility.yul\":6071:6171   */\n      mstore\n        /* \"#utility.yul\":5847:6182   */\n      pop\n        /* \"#utility.yul\":5263:6189   */\n      swap3\n      swap2\n      pop\n      pop\n      jump\t// out\n        /* \"#utility.yul\":6195:7376   */\n    tag_7:\n        /* \"#utility.yul\":6329:6335   */\n      0x00\n        /* \"#utility.yul\":6337:6343   */\n      dup1\n        /* \"#utility.yul\":6345:6351   */\n      0x00\n        /* \"#utility.yul\":6353:6359   */\n      dup1\n        /* \"#utility.yul\":6402:6405   */\n      0x80\n        /* \"#utility.yul\":6390:6399   */\n      dup6\n        /* \"#utility.yul\":6381:6388   */\n      dup8\n        /* \"#utility.yul\":6377:6400   */\n      sub\n        /* \"#utility.yul\":6373:6406   */\n      slt\n        /* \"#utility.yul\":6370:6490   */\n      iszero\n      tag_156\n      jumpi\n        /* \"#utility.yul\":6409:6488   */\n      tag_157\n      tag_25\n      jump\t// in\n    tag_157:\n        /* \"#utility.yul\":6370:6490   */\n    tag_156:\n        /* \"#utility.yul\":6529:6530   */\n      0x00\n        /* \"#utility.yul\":6554:6607   */\n      tag_158\n        /* \"#utility.yul\":6599:6606   */\n      dup8\n        /* \"#utility.yul\":6590:6596   */\n      dup3\n        /* \"#utility.yul\":6579:6588   */\n      dup9\n        /* \"#utility.yul\":6575:6597   */\n      add\n        /* \"#utility.yul\":6554:6607   */\n      tag_29\n      jump\t// in\n    tag_158:\n        /* \"#utility.yul\":6544:6607   */\n      swap5\n      pop\n        /* \"#utility.yul\":6500:6617   */\n      pop\n        /* \"#utility.yul\":6656:6658   */\n      0x20\n        /* \"#utility.yul\":6682:6735   */\n      tag_159\n        /* \"#utility.yul\":6727:6734   */\n      dup8\n        /* \"#utility.yul\":6718:6724   */\n      dup3\n        /* \"#utility.yul\":6707:6716   */\n      dup9\n        /* \"#utility.yul\":6703:6725   */\n      add\n        /* \"#utility.yul\":6682:6735   */\n      tag_33\n      jump\t// in\n    tag_159:\n        /* \"#utility.yul\":6672:6735   */\n      swap4\n      pop\n        /* \"#utility.yul\":6627:6745   */\n      pop\n        /* \"#utility.yul\":6812:6814   */\n      0x40\n        /* \"#utility.yul\":6801:6810   */\n      dup6\n        /* \"#utility.yul\":6797:6815   */\n      add\n        /* \"#utility.yul\":6784:6816   */\n      calldataload\n        /* \"#utility.yul\":6843:6861   */\n      0xffffffffffffffff\n        /* \"#utility.yul\":6835:6841   */\n      dup2\n        /* \"#utility.yul\":6832:6862   */\n      gt\n        /* \"#utility.yul\":6829:6946   */\n      iszero\n      tag_160\n      jumpi\n        /* \"#utility.yul\":6865:6944   */\n      tag_161\n      tag_26\n      jump\t// in\n    tag_161:\n        /* \"#utility.yul\":6829:6946   */\n    tag_160:\n        /* \"#utility.yul\":6970:7048   */\n      tag_162\n        /* \"#utility.yul\":7040:7047   */\n      dup8\n        /* \"#utility.yul\":7031:7037   */\n      dup3\n        /* \"#utility.yul\":7020:7029   */\n      dup9\n        /* \"#utility.yul\":7016:7038   */\n      add\n        /* \"#utility.yul\":6970:7048   */\n      tag_42\n      jump\t// in\n    tag_162:\n        /* \"#utility.yul\":6960:7048   */\n      swap3\n      pop\n        /* \"#utility.yul\":6755:7058   */\n      pop\n        /* \"#utility.yul\":7125:7127   */\n      0x60\n        /* \"#utility.yul\":7114:7123   */\n      dup6\n        /* \"#utility.yul\":7110:7128   */\n      add\n        /* \"#utility.yul\":7097:7129   */\n      calldataload\n        /* \"#utility.yul\":7156:7174   */\n      0xffffffffffffffff\n        /* \"#utility.yul\":7148:7154   */\n      dup2\n        /* \"#utility.yul\":7145:7175   */\n      gt\n        /* \"#utility.yul\":7142:7259   */\n      iszero\n      tag_163\n      jumpi\n        /* \"#utility.yul\":7178:7257   */\n      tag_164\n      tag_26\n      jump\t// in\n    tag_164:\n        /* \"#utility.yul\":7142:7259   */\n    tag_163:\n        /* \"#utility.yul\":7283:7359   */\n      tag_165\n        /* \"#utility.yul\":7351:7358   */\n      dup8\n        /* \"#utility.yul\":7342:7348   */\n      dup3\n        /* \"#utility.yul\":7331:7340   */\n      dup9\n        /* \"#utility.yul\":7327:7349   */\n      add\n        /* \"#utility.yul\":7283:7359   */\n      tag_50\n      jump\t// in\n    tag_165:\n        /* \"#utility.yul\":7273:7359   */\n      swap2\n      pop\n        /* \"#utility.yul\":7068:7369   */\n      pop\n        /* \"#utility.yul\":6195:7376   */\n      swap3\n      swap6\n      swap2\n      swap5\n      pop\n      swap3\n      pop\n      jump\t// out\n        /* \"#utility.yul\":7382:7480   */\n    tag_51:\n        /* \"#utility.yul\":7433:7439   */\n      0x00\n        /* \"#utility.yul\":7467:7472   */\n      dup2\n        /* \"#utility.yul\":7461:7473   */\n      mload\n        /* \"#utility.yul\":7451:7473   */\n      swap1\n      pop\n        /* \"#utility.yul\":7382:7480   */\n      swap2\n      swap1\n      pop\n      jump\t// out\n        /* \"#utility.yul\":7486:7654   */\n    tag_52:\n        /* \"#utility.yul\":7569:7580   */\n      0x00\n        /* \"#utility.yul\":7603:7609   */\n      dup3\n        /* \"#utility.yul\":7598:7601   */\n      dup3\n        /* \"#utility.yul\":7591:7610   */\n      mstore\n        /* \"#utility.yul\":7643:7647   */\n      0x20\n        /* \"#utility.yul\":7638:7641   */\n      dup3\n        /* \"#utility.yul\":7634:7648   */\n      add\n        /* \"#utility.yul\":7619:7648   */\n      swap1\n      pop\n        /* \"#utility.yul\":7486:7654   */\n      swap3\n      swap2\n      pop\n      pop\n      jump\t// out\n        /* \"#utility.yul\":7660:7799   */\n    tag_53:\n        /* \"#utility.yul\":7749:7755   */\n      dup3\n        /* \"#utility.yul\":7744:7747   */\n      dup2\n        /* \"#utility.yul\":7739:7742   */\n      dup4\n        /* \"#utility.yul\":7733:7756   */\n      mcopy\n        /* \"#utility.yul\":7790:7791   */\n      0x00\n        /* \"#utility.yul\":7781:7787   */\n      dup4\n        /* \"#utility.yul\":7776:7779   */\n      dup4\n        /* \"#utility.yul\":7772:7788   */\n      add\n        /* \"#utility.yul\":7765:7792   */\n      mstore\n        /* \"#utility.yul\":7660:7799   */\n      pop\n      pop\n      pop\n      jump\t// out\n        /* \"#utility.yul\":7805:8178   */\n    tag_54:\n        /* \"#utility.yul\":7891:7894   */\n      0x00\n        /* \"#utility.yul\":7919:7957   */\n      tag_170\n        /* \"#utility.yul\":7951:7956   */\n      dup3\n        /* \"#utility.yul\":7919:7957   */\n      tag_51\n      jump\t// in\n    tag_170:\n        /* \"#utility.yul\":7973:8043   */\n      tag_171\n        /* \"#utility.yul\":8036:8042   */\n      dup2\n        /* \"#utility.yul\":8031:8034   */\n      dup6\n        /* \"#utility.yul\":7973:8043   */\n      tag_52\n      jump\t// in\n    tag_171:\n        /* \"#utility.yul\":7966:8043   */\n      swap4\n      pop\n        /* \"#utility.yul\":8052:8117   */\n      tag_172\n        /* \"#utility.yul\":8110:8116   */\n      dup2\n        /* \"#utility.yul\":8105:8108   */\n      dup6\n        /* \"#utility.yul\":8098:8102   */\n      0x20\n        /* \"#utility.yul\":8091:8096   */\n      dup7\n        /* \"#utility.yul\":8087:8103   */\n      add\n        /* \"#utility.yul\":8052:8117   */\n      tag_53\n      jump\t// in\n    tag_172:\n        /* \"#utility.yul\":8142:8171   */\n      tag_173\n        /* \"#utility.yul\":8164:8170   */\n      dup2\n        /* \"#utility.yul\":8142:8171   */\n      tag_35\n      jump\t// in\n    tag_173:\n        /* \"#utility.yul\":8137:8140   */\n      dup5\n        /* \"#utility.yul\":8133:8172   */\n      add\n        /* \"#utility.yul\":8126:8172   */\n      swap2\n      pop\n        /* \"#utility.yul\":7895:8178   */\n      pop\n        /* \"#utility.yul\":7805:8178   */\n      swap3\n      swap2\n      pop\n      pop\n      jump\t// out\n        /* \"#utility.yul\":8184:8493   */\n    tag_10:\n        /* \"#utility.yul\":8295:8299   */\n      0x00\n        /* \"#utility.yul\":8333:8335   */\n      0x20\n        /* \"#utility.yul\":8322:8331   */\n      dup3\n        /* \"#utility.yul\":8318:8336   */\n      add\n        /* \"#utility.yul\":8310:8336   */\n      swap1\n      pop\n        /* \"#utility.yul\":8382:8391   */\n      dup2\n        /* \"#utility.yul\":8376:8380   */\n      dup2\n        /* \"#utility.yul\":8372:8392   */\n      sub\n        /* \"#utility.yul\":8368:8369   */\n      0x00\n        /* \"#utility.yul\":8357:8366   */\n      dup4\n        /* \"#utility.yul\":8353:8370   */\n      add\n        /* \"#utility.yul\":8346:8393   */\n      mstore\n        /* \"#utility.yul\":8410:8486   */\n      tag_175\n        /* \"#utility.yul\":8481:8485   */\n      dup2\n        /* \"#utility.yul\":8472:8478   */\n      dup5\n        /* \"#utility.yul\":8410:8486   */\n      tag_54\n      jump\t// in\n    tag_175:\n        /* \"#utility.yul\":8402:8486   */\n      swap1\n      pop\n        /* \"#utility.yul\":8184:8493   */\n      swap3\n      swap2\n      pop\n      pop\n      jump\t// out\n        /* \"#utility.yul\":8499:8806   */\n    tag_55:\n        /* \"#utility.yul\":8560:8564   */\n      0x00\n        /* \"#utility.yul\":8650:8668   */\n      0xffffffffffffffff\n        /* \"#utility.yul\":8642:8648   */\n      dup3\n        /* \"#utility.yul\":8639:8669   */\n      gt\n        /* \"#utility.yul\":8636:8692   */\n      iszero\n      tag_177\n      jumpi\n        /* \"#utility.yul\":8672:8690   */\n      tag_178\n      tag_36\n      jump\t// in\n    tag_178:\n        /* \"#utility.yul\":8636:8692   */\n    tag_177:\n        /* \"#utility.yul\":8710:8739   */\n      tag_179\n        /* \"#utility.yul\":8732:8738   */\n      dup3\n        /* \"#utility.yul\":8710:8739   */\n      tag_35\n      jump\t// in\n    tag_179:\n        /* \"#utility.yul\":8702:8739   */\n      swap1\n      pop\n        /* \"#utility.yul\":8794:8798   */\n      0x20\n        /* \"#utility.yul\":8788:8792   */\n      dup2\n        /* \"#utility.yul\":8784:8799   */\n      add\n        /* \"#utility.yul\":8776:8799   */\n      swap1\n      pop\n        /* \"#utility.yul\":8499:8806   */\n      swap2\n      swap1\n      pop\n      jump\t// out\n        /* \"#utility.yul\":8812:9235   */\n    tag_56:\n        /* \"#utility.yul\":8889:8894   */\n      0x00\n        /* \"#utility.yul\":8914:8979   */\n      tag_181\n        /* \"#utility.yul\":8930:8978   */\n      tag_182\n        /* \"#utility.yul\":8971:8977   */\n      dup5\n        /* \"#utility.yul\":8930:8978   */\n      tag_55\n      jump\t// in\n    tag_182:\n        /* \"#utility.yul\":8914:8979   */\n      tag_38\n      jump\t// in\n    tag_181:\n        /* \"#utility.yul\":8905:8979   */\n      swap1\n      pop\n        /* \"#utility.yul\":9002:9008   */\n      dup3\n        /* \"#utility.yul\":8995:9000   */\n      dup2\n        /* \"#utility.yul\":8988:9009   */\n      mstore\n        /* \"#utility.yul\":9040:9044   */\n      0x20\n        /* \"#utility.yul\":9033:9038   */\n      dup2\n        /* \"#utility.yul\":9029:9045   */\n      add\n        /* \"#utility.yul\":9078:9081   */\n      dup5\n        /* \"#utility.yul\":9069:9075   */\n      dup5\n        /* \"#utility.yul\":9064:9067   */\n      dup5\n        /* \"#utility.yul\":9060:9076   */\n      add\n        /* \"#utility.yul\":9057:9082   */\n      gt\n        /* \"#utility.yul\":9054:9166   */\n      iszero\n      tag_183\n      jumpi\n        /* \"#utility.yul\":9085:9164   */\n      tag_184\n      tag_45\n      jump\t// in\n    tag_184:\n        /* \"#utility.yul\":9054:9166   */\n    tag_183:\n        /* \"#utility.yul\":9175:9229   */\n      tag_185\n        /* \"#utility.yul\":9222:9228   */\n      dup5\n        /* \"#utility.yul\":9217:9220   */\n      dup3\n        /* \"#utility.yul\":9212:9215   */\n      dup6\n        /* \"#utility.yul\":9175:9229   */\n      tag_47\n      jump\t// in\n    tag_185:\n        /* \"#utility.yul\":8895:9235   */\n      pop\n        /* \"#utility.yul\":8812:9235   */\n      swap4\n      swap3\n      pop\n      pop\n      pop\n      jump\t// out\n        /* \"#utility.yul\":9254:9592   */\n    tag_57:\n        /* \"#utility.yul\":9309:9314   */\n      0x00\n        /* \"#utility.yul\":9358:9361   */\n      dup3\n        /* \"#utility.yul\":9351:9355   */\n      0x1f\n        /* \"#utility.yul\":9343:9349   */\n      dup4\n        /* \"#utility.yul\":9339:9356   */\n      add\n        /* \"#utility.yul\":9335:9362   */\n      slt\n        /* \"#utility.yul\":9325:9447   */\n      tag_187\n      jumpi\n        /* \"#utility.yul\":9366:9445   */\n      tag_188\n      tag_34\n      jump\t// in\n    tag_188:\n        /* \"#utility.yul\":9325:9447   */\n    tag_187:\n        /* \"#utility.yul\":9483:9489   */\n      dup2\n        /* \"#utility.yul\":9470:9490   */\n      calldataload\n        /* \"#utility.yul\":9508:9586   */\n      tag_189\n        /* \"#utility.yul\":9582:9585   */\n      dup5\n        /* \"#utility.yul\":9574:9580   */\n      dup3\n        /* \"#utility.yul\":9567:9571   */\n      0x20\n        /* \"#utility.yul\":9559:9565   */\n      dup7\n        /* \"#utility.yul\":9555:9572   */\n      add\n        /* \"#utility.yul\":9508:9586   */\n      tag_56\n      jump\t// in\n    tag_189:\n        /* \"#utility.yul\":9499:9586   */\n      swap2\n      pop\n        /* \"#utility.yul\":9315:9592   */\n      pop\n        /* \"#utility.yul\":9254:9592   */\n      swap3\n      swap2\n      pop\n      pop\n      jump\t// out\n        /* \"#utility.yul\":9598:10105   */\n    tag_13:\n        /* \"#utility.yul\":9666:9672   */\n      0x00\n        /* \"#utility.yul\":9715:9717   */\n      0x20\n        /* \"#utility.yul\":9703:9712   */\n      dup3\n        /* \"#utility.yul\":9694:9701   */\n      dup5\n        /* \"#utility.yul\":9690:9713   */\n      sub\n        /* \"#utility.yul\":9686:9718   */\n      slt\n        /* \"#utility.yul\":9683:9802   */\n      iszero\n      tag_191\n      jumpi\n        /* \"#utility.yul\":9721:9800   */\n      tag_192\n      tag_25\n      jump\t// in\n    tag_192:\n        /* \"#utility.yul\":9683:9802   */\n    tag_191:\n        /* \"#utility.yul\":9869:9870   */\n      0x00\n        /* \"#utility.yul\":9858:9867   */\n      dup3\n        /* \"#utility.yul\":9854:9871   */\n      add\n        /* \"#utility.yul\":9841:9872   */\n      calldataload\n        /* \"#utility.yul\":9899:9917   */\n      0xffffffffffffffff\n        /* \"#utility.yul\":9891:9897   */\n      dup2\n        /* \"#utility.yul\":9888:9918   */\n      gt\n        /* \"#utility.yul\":9885:10002   */\n      iszero\n      tag_193\n      jumpi\n        /* \"#utility.yul\":9921:10000   */\n      tag_194\n      tag_26\n      jump\t// in\n    tag_194:\n        /* \"#utility.yul\":9885:10002   */\n    tag_193:\n        /* \"#utility.yul\":10026:10088   */\n      tag_195\n        /* \"#utility.yul\":10080:10087   */\n      dup5\n        /* \"#utility.yul\":10071:10077   */\n      dup3\n        /* \"#utility.yul\":10060:10069   */\n      dup6\n        /* \"#utility.yul\":10056:10078   */\n      add\n        /* \"#utility.yul\":10026:10088   */\n      tag_57\n      jump\t// in\n    tag_195:\n        /* \"#utility.yul\":10016:10088   */\n      swap2\n      pop\n        /* \"#utility.yul\":9812:10098   */\n      pop\n        /* \"#utility.yul\":9598:10105   */\n      swap3\n      swap2\n      pop\n      pop\n      jump\t// out\n        /* \"#utility.yul\":10111:10229   */\n    tag_58:\n        /* \"#utility.yul\":10198:10222   */\n      tag_197\n        /* \"#utility.yul\":10216:10221   */\n      dup2\n        /* \"#utility.yul\":10198:10222   */\n      tag_27\n      jump\t// in\n    tag_197:\n        /* \"#utility.yul\":10193:10196   */\n      dup3\n        /* \"#utility.yul\":10186:10223   */\n      mstore\n        /* \"#utility.yul\":10111:10229   */\n      pop\n      pop\n      jump\t// out\n        /* \"#utility.yul\":10235:10353   */\n    tag_59:\n        /* \"#utility.yul\":10322:10346   */\n      tag_199\n        /* \"#utility.yul\":10340:10345   */\n      dup2\n        /* \"#utility.yul\":10322:10346   */\n      tag_31\n      jump\t// in\n    tag_199:\n        /* \"#utility.yul\":10317:10320   */\n      dup3\n        /* \"#utility.yul\":10310:10347   */\n      mstore\n        /* \"#utility.yul\":10235:10353   */\n      pop\n      pop\n      jump\t// out\n        /* \"#utility.yul\":10359:10473   */\n    tag_60:\n        /* \"#utility.yul\":10426:10432   */\n      0x00\n        /* \"#utility.yul\":10460:10465   */\n      dup2\n        /* \"#utility.yul\":10454:10466   */\n      mload\n        /* \"#utility.yul\":10444:10466   */\n      swap1\n      pop\n        /* \"#utility.yul\":10359:10473   */\n      swap2\n      swap1\n      pop\n      jump\t// out\n        /* \"#utility.yul\":10479:10663   */\n    tag_61:\n        /* \"#utility.yul\":10578:10589   */\n      0x00\n        /* \"#utility.yul\":10612:10618   */\n      dup3\n        /* \"#utility.yul\":10607:10610   */\n      dup3\n        /* \"#utility.yul\":10600:10619   */\n      mstore\n        /* \"#utility.yul\":10652:10656   */\n      0x20\n        /* \"#utility.yul\":10647:10650   */\n      dup3\n        /* \"#utility.yul\":10643:10657   */\n      add\n        /* \"#utility.yul\":10628:10657   */\n      swap1\n      pop\n        /* \"#utility.yul\":10479:10663   */\n      swap3\n      swap2\n      pop\n      pop\n      jump\t// out\n        /* \"#utility.yul\":10669:10801   */\n    tag_62:\n        /* \"#utility.yul\":10736:10740   */\n      0x00\n        /* \"#utility.yul\":10759:10762   */\n      dup2\n        /* \"#utility.yul\":10751:10762   */\n      swap1\n      pop\n        /* \"#utility.yul\":10789:10793   */\n      0x20\n        /* \"#utility.yul\":10784:10787   */\n      dup3\n        /* \"#utility.yul\":10780:10794   */\n      add\n        /* \"#utility.yul\":10772:10794   */\n      swap1\n      pop\n        /* \"#utility.yul\":10669:10801   */\n      swap2\n      swap1\n      pop\n      jump\t// out\n        /* \"#utility.yul\":10807:10915   */\n    tag_63:\n        /* \"#utility.yul\":10884:10908   */\n      tag_204\n        /* \"#utility.yul\":10902:10907   */\n      dup2\n        /* \"#utility.yul\":10884:10908   */\n      tag_27\n      jump\t// in\n    tag_204:\n        /* \"#utility.yul\":10879:10882   */\n      dup3\n        /* \"#utility.yul\":10872:10909   */\n      mstore\n        /* \"#utility.yul\":10807:10915   */\n      pop\n      pop\n      jump\t// out\n        /* \"#utility.yul\":10921:11100   */\n    tag_64:\n        /* \"#utility.yul\":10990:11000   */\n      0x00\n        /* \"#utility.yul\":11011:11057   */\n      tag_206\n        /* \"#utility.yul\":11053:11056   */\n      dup4\n        /* \"#utility.yul\":11045:11051   */\n      dup4\n        /* \"#utility.yul\":11011:11057   */\n      tag_63\n      jump\t// in\n    tag_206:\n        /* \"#utility.yul\":11089:11093   */\n      0x20\n        /* \"#utility.yul\":11084:11087   */\n      dup4\n        /* \"#utility.yul\":11080:11094   */\n      add\n        /* \"#utility.yul\":11066:11094   */\n      swap1\n      pop\n        /* \"#utility.yul\":10921:11100   */\n      swap3\n      swap2\n      pop\n      pop\n      jump\t// out\n        /* \"#utility.yul\":11106:11219   */\n    tag_65:\n        /* \"#utility.yul\":11176:11180   */\n      0x00\n        /* \"#utility.yul\":11208:11212   */\n      0x20\n        /* \"#utility.yul\":11203:11206   */\n      dup3\n        /* \"#utility.yul\":11199:11213   */\n      add\n        /* \"#utility.yul\":11191:11213   */\n      swap1\n      pop\n        /* \"#utility.yul\":11106:11219   */\n      swap2\n      swap1\n      pop\n      jump\t// out\n        /* \"#utility.yul\":11255:11987   */\n    tag_66:\n        /* \"#utility.yul\":11374:11377   */\n      0x00\n        /* \"#utility.yul\":11403:11457   */\n      tag_209\n        /* \"#utility.yul\":11451:11456   */\n      dup3\n        /* \"#utility.yul\":11403:11457   */\n      tag_60\n      jump\t// in\n    tag_209:\n        /* \"#utility.yul\":11473:11559   */\n      tag_210\n        /* \"#utility.yul\":11552:11558   */\n      dup2\n        /* \"#utility.yul\":11547:11550   */\n      dup6\n        /* \"#utility.yul\":11473:11559   */\n      tag_61\n      jump\t// in\n    tag_210:\n        /* \"#utility.yul\":11466:11559   */\n      swap4\n      pop\n        /* \"#utility.yul\":11583:11639   */\n      tag_211\n        /* \"#utility.yul\":11633:11638   */\n      dup4\n        /* \"#utility.yul\":11583:11639   */\n      tag_62\n      jump\t// in\n    tag_211:\n        /* \"#utility.yul\":11662:11669   */\n      dup1\n        /* \"#utility.yul\":11693:11694   */\n      0x00\n        /* \"#utility.yul\":11678:11962   */\n    tag_212:\n        /* \"#utility.yul\":11703:11709   */\n      dup4\n        /* \"#utility.yul\":11700:11701   */\n      dup2\n        /* \"#utility.yul\":11697:11710   */\n      lt\n        /* \"#utility.yul\":11678:11962   */\n      iszero\n      tag_214\n      jumpi\n        /* \"#utility.yul\":11779:11785   */\n      dup2\n        /* \"#utility.yul\":11773:11786   */\n      mload\n        /* \"#utility.yul\":11806:11869   */\n      tag_215\n        /* \"#utility.yul\":11865:11868   */\n      dup9\n        /* \"#utility.yul\":11850:11863   */\n      dup3\n        /* \"#utility.yul\":11806:11869   */\n      tag_64\n      jump\t// in\n    tag_215:\n        /* \"#utility.yul\":11799:11869   */\n      swap8\n      pop\n        /* \"#utility.yul\":11892:11952   */\n      tag_216\n        /* \"#utility.yul\":11945:11951   */\n      dup4\n        /* \"#utility.yul\":11892:11952   */\n      tag_65\n      jump\t// in\n    tag_216:\n        /* \"#utility.yul\":11882:11952   */\n      swap3\n      pop\n        /* \"#utility.yul\":11738:11962   */\n      pop\n        /* \"#utility.yul\":11725:11726   */\n      0x01\n        /* \"#utility.yul\":11722:11723   */\n      dup2\n        /* \"#utility.yul\":11718:11727   */\n      add\n        /* \"#utility.yul\":11713:11727   */\n      swap1\n      pop\n        /* \"#utility.yul\":11678:11962   */\n      jump(tag_212)\n    tag_214:\n        /* \"#utility.yul\":11682:11696   */\n      pop\n        /* \"#utility.yul\":11978:11981   */\n      dup6\n        /* \"#utility.yul\":11971:11981   */\n      swap4\n      pop\n        /* \"#utility.yul\":11379:11987   */\n      pop\n      pop\n      pop\n        /* \"#utility.yul\":11255:11987   */\n      swap3\n      swap2\n      pop\n      pop\n      jump\t// out\n        /* \"#utility.yul\":11993:12092   */\n    tag_67:\n        /* \"#utility.yul\":12045:12051   */\n      0x00\n        /* \"#utility.yul\":12079:12084   */\n      dup2\n        /* \"#utility.yul\":12073:12085   */\n      mload\n        /* \"#utility.yul\":12063:12085   */\n      swap1\n      pop\n        /* \"#utility.yul\":11993:12092   */\n      swap2\n      swap1\n      pop\n      jump\t// out\n        /* \"#utility.yul\":12098:12257   */\n    tag_68:\n        /* \"#utility.yul\":12172:12183   */\n      0x00\n        /* \"#utility.yul\":12206:12212   */\n      dup3\n        /* \"#utility.yul\":12201:12204   */\n      dup3\n        /* \"#utility.yul\":12194:12213   */\n      mstore\n        /* \"#utility.yul\":12246:12250   */\n      0x20\n        /* \"#utility.yul\":12241:12244   */\n      dup3\n        /* \"#utility.yul\":12237:12251   */\n      add\n        /* \"#utility.yul\":12222:12251   */\n      swap1\n      pop\n        /* \"#utility.yul\":12098:12257   */\n      swap3\n      swap2\n      pop\n      pop\n      jump\t// out\n        /* \"#utility.yul\":12263:12620   */\n    tag_69:\n        /* \"#utility.yul\":12341:12344   */\n      0x00\n        /* \"#utility.yul\":12369:12408   */\n      tag_220\n        /* \"#utility.yul\":12402:12407   */\n      dup3\n        /* \"#utility.yul\":12369:12408   */\n      tag_67\n      jump\t// in\n    tag_220:\n        /* \"#utility.yul\":12424:12485   */\n      tag_221\n        /* \"#utility.yul\":12478:12484   */\n      dup2\n        /* \"#utility.yul\":12473:12476   */\n      dup6\n        /* \"#utility.yul\":12424:12485   */\n      tag_68\n      jump\t// in\n    tag_221:\n        /* \"#utility.yul\":12417:12485   */\n      swap4\n      pop\n        /* \"#utility.yul\":12494:12559   */\n      tag_222\n        /* \"#utility.yul\":12552:12558   */\n      dup2\n        /* \"#utility.yul\":12547:12550   */\n      dup6\n        /* \"#utility.yul\":12540:12544   */\n      0x20\n        /* \"#utility.yul\":12533:12538   */\n      dup7\n        /* \"#utility.yul\":12529:12545   */\n      add\n        /* \"#utility.yul\":12494:12559   */\n      tag_53\n      jump\t// in\n    tag_222:\n        /* \"#utility.yul\":12584:12613   */\n      tag_223\n        /* \"#utility.yul\":12606:12612   */\n      dup2\n        /* \"#utility.yul\":12584:12613   */\n      tag_35\n      jump\t// in\n    tag_223:\n        /* \"#utility.yul\":12579:12582   */\n      dup5\n        /* \"#utility.yul\":12575:12614   */\n      add\n        /* \"#utility.yul\":12568:12614   */\n      swap2\n      pop\n        /* \"#utility.yul\":12345:12620   */\n      pop\n        /* \"#utility.yul\":12263:12620   */\n      swap3\n      swap2\n      pop\n      pop\n      jump\t// out\n        /* \"#utility.yul\":12626:12800   */\n    tag_70:\n        /* \"#utility.yul\":12715:12726   */\n      0x00\n        /* \"#utility.yul\":12749:12755   */\n      dup3\n        /* \"#utility.yul\":12744:12747   */\n      dup3\n        /* \"#utility.yul\":12737:12756   */\n      mstore\n        /* \"#utility.yul\":12789:12793   */\n      0x20\n        /* \"#utility.yul\":12784:12787   */\n      dup3\n        /* \"#utility.yul\":12780:12794   */\n      add\n        /* \"#utility.yul\":12765:12794   */\n      swap1\n      pop\n        /* \"#utility.yul\":12626:12800   */\n      swap3\n      swap2\n      pop\n      pop\n      jump\t// out\n        /* \"#utility.yul\":12836:13548   */\n    tag_71:\n        /* \"#utility.yul\":12945:12948   */\n      0x00\n        /* \"#utility.yul\":12974:13028   */\n      tag_226\n        /* \"#utility.yul\":13022:13027   */\n      dup3\n        /* \"#utility.yul\":12974:13028   */\n      tag_60\n      jump\t// in\n    tag_226:\n        /* \"#utility.yul\":13044:13120   */\n      tag_227\n        /* \"#utility.yul\":13113:13119   */\n      dup2\n        /* \"#utility.yul\":13108:13111   */\n      dup6\n        /* \"#utility.yul\":13044:13120   */\n      tag_70\n      jump\t// in\n    tag_227:\n        /* \"#utility.yul\":13037:13120   */\n      swap4\n      pop\n        /* \"#utility.yul\":13144:13200   */\n      tag_228\n        /* \"#utility.yul\":13194:13199   */\n      dup4\n        /* \"#utility.yul\":13144:13200   */\n      tag_62\n      jump\t// in\n    tag_228:\n        /* \"#utility.yul\":13223:13230   */\n      dup1\n        /* \"#utility.yul\":13254:13255   */\n      0x00\n        /* \"#utility.yul\":13239:13523   */\n    tag_229:\n        /* \"#utility.yul\":13264:13270   */\n      dup4\n        /* \"#utility.yul\":13261:13262   */\n      dup2\n        /* \"#utility.yul\":13258:13271   */\n      lt\n        /* \"#utility.yul\":13239:13523   */\n      iszero\n      tag_231\n      jumpi\n        /* \"#utility.yul\":13340:13346   */\n      dup2\n        /* \"#utility.yul\":13334:13347   */\n      mload\n        /* \"#utility.yul\":13367:13430   */\n      tag_232\n        /* \"#utility.yul\":13426:13429   */\n      dup9\n        /* \"#utility.yul\":13411:13424   */\n      dup3\n        /* \"#utility.yul\":13367:13430   */\n      tag_64\n      jump\t// in\n    tag_232:\n        /* \"#utility.yul\":13360:13430   */\n      swap8\n      pop\n        /* \"#utility.yul\":13453:13513   */\n      tag_233\n        /* \"#utility.yul\":13506:13512   */\n      dup4\n        /* \"#utility.yul\":13453:13513   */\n      tag_65\n      jump\t// in\n    tag_233:\n        /* \"#utility.yul\":13443:13513   */\n      swap3\n      pop\n        /* \"#utility.yul\":13299:13523   */\n      pop\n        /* \"#utility.yul\":13286:13287   */\n      0x01\n        /* \"#utility.yul\":13283:13284   */\n      dup2\n        /* \"#utility.yul\":13279:13288   */\n      add\n        /* \"#utility.yul\":13274:13288   */\n      swap1\n      pop\n        /* \"#utility.yul\":13239:13523   */\n      jump(tag_229)\n    tag_231:\n        /* \"#utility.yul\":13243:13257   */\n      pop\n        /* \"#utility.yul\":13539:13542   */\n      dup6\n        /* \"#utility.yul\":13532:13542   */\n      swap4\n      pop\n        /* \"#utility.yul\":12950:13548   */\n      pop\n      pop\n      pop\n        /* \"#utility.yul\":12836:13548   */\n      swap3\n      swap2\n      pop\n      pop\n      jump\t// out\n        /* \"#utility.yul\":13616:14318   */\n    tag_72:\n        /* \"#utility.yul\":13731:13734   */\n      0x00\n        /* \"#utility.yul\":13767:13771   */\n      0x40\n        /* \"#utility.yul\":13762:13765   */\n      dup4\n        /* \"#utility.yul\":13758:13772   */\n      add\n        /* \"#utility.yul\":13854:13858   */\n      0x00\n        /* \"#utility.yul\":13847:13852   */\n      dup4\n        /* \"#utility.yul\":13843:13859   */\n      add\n        /* \"#utility.yul\":13837:13860   */\n      mload\n        /* \"#utility.yul\":13907:13910   */\n      dup5\n        /* \"#utility.yul\":13901:13905   */\n      dup3\n        /* \"#utility.yul\":13897:13911   */\n      sub\n        /* \"#utility.yul\":13890:13894   */\n      0x00\n        /* \"#utility.yul\":13885:13888   */\n      dup7\n        /* \"#utility.yul\":13881:13895   */\n      add\n        /* \"#utility.yul\":13874:13912   */\n      mstore\n        /* \"#utility.yul\":13933:14006   */\n      tag_235\n        /* \"#utility.yul\":14001:14005   */\n      dup3\n        /* \"#utility.yul\":13987:13999   */\n      dup3\n        /* \"#utility.yul\":13933:14006   */\n      tag_69\n      jump\t// in\n    tag_235:\n        /* \"#utility.yul\":13925:14006   */\n      swap2\n      pop\n        /* \"#utility.yul\":13782:14017   */\n      pop\n        /* \"#utility.yul\":14098:14102   */\n      0x20\n        /* \"#utility.yul\":14091:14096   */\n      dup4\n        /* \"#utility.yul\":14087:14103   */\n      add\n        /* \"#utility.yul\":14081:14104   */\n      mload\n        /* \"#utility.yul\":14151:14154   */\n      dup5\n        /* \"#utility.yul\":14145:14149   */\n      dup3\n        /* \"#utility.yul\":14141:14155   */\n      sub\n        /* \"#utility.yul\":14134:14138   */\n      0x20\n        /* \"#utility.yul\":14129:14132   */\n      dup7\n        /* \"#utility.yul\":14125:14139   */\n      add\n        /* \"#utility.yul\":14118:14156   */\n      mstore\n        /* \"#utility.yul\":14177:14280   */\n      tag_236\n        /* \"#utility.yul\":14275:14279   */\n      dup3\n        /* \"#utility.yul\":14261:14273   */\n      dup3\n        /* \"#utility.yul\":14177:14280   */\n      tag_71\n      jump\t// in\n    tag_236:\n        /* \"#utility.yul\":14169:14280   */\n      swap2\n      pop\n        /* \"#utility.yul\":14027:14291   */\n      pop\n        /* \"#utility.yul\":14308:14312   */\n      dup1\n        /* \"#utility.yul\":14301:14312   */\n      swap2\n      pop\n        /* \"#utility.yul\":13736:14318   */\n      pop\n        /* \"#utility.yul\":13616:14318   */\n      swap3\n      swap2\n      pop\n      pop\n      jump\t// out\n        /* \"#utility.yul\":14324:15171   */\n    tag_16:\n        /* \"#utility.yul\":14597:14601   */\n      0x00\n        /* \"#utility.yul\":14635:14638   */\n      0x80\n        /* \"#utility.yul\":14624:14633   */\n      dup3\n        /* \"#utility.yul\":14620:14639   */\n      add\n        /* \"#utility.yul\":14612:14639   */\n      swap1\n      pop\n        /* \"#utility.yul\":14649:14720   */\n      tag_238\n        /* \"#utility.yul\":14717:14718   */\n      0x00\n        /* \"#utility.yul\":14706:14715   */\n      dup4\n        /* \"#utility.yul\":14702:14719   */\n      add\n        /* \"#utility.yul\":14693:14699   */\n      dup8\n        /* \"#utility.yul\":14649:14720   */\n      tag_58\n      jump\t// in\n    tag_238:\n        /* \"#utility.yul\":14730:14802   */\n      tag_239\n        /* \"#utility.yul\":14798:14800   */\n      0x20\n        /* \"#utility.yul\":14787:14796   */\n      dup4\n        /* \"#utility.yul\":14783:14801   */\n      add\n        /* \"#utility.yul\":14774:14780   */\n      dup7\n        /* \"#utility.yul\":14730:14802   */\n      tag_59\n      jump\t// in\n    tag_239:\n        /* \"#utility.yul\":14849:14858   */\n      dup2\n        /* \"#utility.yul\":14843:14847   */\n      dup2\n        /* \"#utility.yul\":14839:14859   */\n      sub\n        /* \"#utility.yul\":14834:14836   */\n      0x40\n        /* \"#utility.yul\":14823:14832   */\n      dup4\n        /* \"#utility.yul\":14819:14837   */\n      add\n        /* \"#utility.yul\":14812:14860   */\n      mstore\n        /* \"#utility.yul\":14877:14985   */\n      tag_240\n        /* \"#utility.yul\":14980:14984   */\n      dup2\n        /* \"#utility.yul\":14971:14977   */\n      dup6\n        /* \"#utility.yul\":14877:14985   */\n      tag_66\n      jump\t// in\n    tag_240:\n        /* \"#utility.yul\":14869:14985   */\n      swap1\n      pop\n        /* \"#utility.yul\":15032:15041   */\n      dup2\n        /* \"#utility.yul\":15026:15030   */\n      dup2\n        /* \"#utility.yul\":15022:15042   */\n      sub\n        /* \"#utility.yul\":15017:15019   */\n      0x60\n        /* \"#utility.yul\":15006:15015   */\n      dup4\n        /* \"#utility.yul\":15002:15020   */\n      add\n        /* \"#utility.yul\":14995:15043   */\n      mstore\n        /* \"#utility.yul\":15060:15164   */\n      tag_241\n        /* \"#utility.yul\":15159:15163   */\n      dup2\n        /* \"#utility.yul\":15150:15156   */\n      dup5\n        /* \"#utility.yul\":15060:15164   */\n      tag_72\n      jump\t// in\n    tag_241:\n        /* \"#utility.yul\":15052:15164   */\n      swap1\n      pop\n        /* \"#utility.yul\":14324:15171   */\n      swap6\n      swap5\n      pop\n      pop\n      pop\n      pop\n      pop\n      jump\t// out\n        /* \"#utility.yul\":15177:15320   */\n    tag_73:\n        /* \"#utility.yul\":15234:15239   */\n      0x00\n        /* \"#utility.yul\":15265:15271   */\n      dup2\n        /* \"#utility.yul\":15259:15272   */\n      mload\n        /* \"#utility.yul\":15250:15272   */\n      swap1\n      pop\n        /* \"#utility.yul\":15281:15314   */\n      tag_243\n        /* \"#utility.yul\":15308:15313   */\n      dup2\n        /* \"#utility.yul\":15281:15314   */\n      tag_28\n      jump\t// in\n    tag_243:\n        /* \"#utility.yul\":15177:15320   */\n      swap3\n      swap2\n      pop\n      pop\n      jump\t// out\n        /* \"#utility.yul\":15326:15430   */\n    tag_74:\n        /* \"#utility.yul\":15371:15378   */\n      0x00\n        /* \"#utility.yul\":15400:15424   */\n      tag_245\n        /* \"#utility.yul\":15418:15423   */\n      dup3\n        /* \"#utility.yul\":15400:15424   */\n      tag_30\n      jump\t// in\n    tag_245:\n        /* \"#utility.yul\":15389:15424   */\n      swap1\n      pop\n        /* \"#utility.yul\":15326:15430   */\n      swap2\n      swap1\n      pop\n      jump\t// out\n        /* \"#utility.yul\":15436:15574   */\n    tag_75:\n        /* \"#utility.yul\":15517:15549   */\n      tag_247\n        /* \"#utility.yul\":15543:15548   */\n      dup2\n        /* \"#utility.yul\":15517:15549   */\n      tag_74\n      jump\t// in\n    tag_247:\n        /* \"#utility.yul\":15510:15515   */\n      dup2\n        /* \"#utility.yul\":15507:15550   */\n      eq\n        /* \"#utility.yul\":15497:15568   */\n      tag_248\n      jumpi\n        /* \"#utility.yul\":15564:15565   */\n      0x00\n        /* \"#utility.yul\":15561:15562   */\n      dup1\n        /* \"#utility.yul\":15554:15566   */\n      revert\n        /* \"#utility.yul\":15497:15568   */\n    tag_248:\n        /* \"#utility.yul\":15436:15574   */\n      pop\n      jump\t// out\n        /* \"#utility.yul\":15580:15739   */\n    tag_76:\n        /* \"#utility.yul\":15645:15650   */\n      0x00\n        /* \"#utility.yul\":15676:15682   */\n      dup2\n        /* \"#utility.yul\":15670:15683   */\n      mload\n        /* \"#utility.yul\":15661:15683   */\n      swap1\n      pop\n        /* \"#utility.yul\":15692:15733   */\n      tag_250\n        /* \"#utility.yul\":15727:15732   */\n      dup2\n        /* \"#utility.yul\":15692:15733   */\n      tag_75\n      jump\t// in\n    tag_250:\n        /* \"#utility.yul\":15580:15739   */\n      swap3\n      swap2\n      pop\n      pop\n      jump\t// out\n        /* \"#utility.yul\":15762:16494   */\n    tag_77:\n        /* \"#utility.yul\":15869:15874   */\n      0x00\n        /* \"#utility.yul\":15894:15975   */\n      tag_252\n        /* \"#utility.yul\":15910:15974   */\n      tag_253\n        /* \"#utility.yul\":15967:15973   */\n      dup5\n        /* \"#utility.yul\":15910:15974   */\n      tag_39\n      jump\t// in\n    tag_253:\n        /* \"#utility.yul\":15894:15975   */\n      tag_38\n      jump\t// in\n    tag_252:\n        /* \"#utility.yul\":15885:15975   */\n      swap1\n      pop\n        /* \"#utility.yul\":15995:16000   */\n      dup1\n        /* \"#utility.yul\":16024:16030   */\n      dup4\n        /* \"#utility.yul\":16017:16022   */\n      dup3\n        /* \"#utility.yul\":16010:16031   */\n      mstore\n        /* \"#utility.yul\":16058:16062   */\n      0x20\n        /* \"#utility.yul\":16051:16056   */\n      dup3\n        /* \"#utility.yul\":16047:16063   */\n      add\n        /* \"#utility.yul\":16040:16063   */\n      swap1\n      pop\n        /* \"#utility.yul\":16111:16115   */\n      0x20\n        /* \"#utility.yul\":16103:16109   */\n      dup5\n        /* \"#utility.yul\":16099:16116   */\n      mul\n        /* \"#utility.yul\":16091:16097   */\n      dup4\n        /* \"#utility.yul\":16087:16117   */\n      add\n        /* \"#utility.yul\":16140:16143   */\n      dup6\n        /* \"#utility.yul\":16132:16138   */\n      dup2\n        /* \"#utility.yul\":16129:16144   */\n      gt\n        /* \"#utility.yul\":16126:16248   */\n      iszero\n      tag_254\n      jumpi\n        /* \"#utility.yul\":16159:16238   */\n      tag_255\n      tag_40\n      jump\t// in\n    tag_255:\n        /* \"#utility.yul\":16126:16248   */\n    tag_254:\n        /* \"#utility.yul\":16274:16280   */\n      dup4\n        /* \"#utility.yul\":16257:16488   */\n    tag_256:\n        /* \"#utility.yul\":16291:16297   */\n      dup2\n        /* \"#utility.yul\":16286:16289   */\n      dup2\n        /* \"#utility.yul\":16283:16298   */\n      lt\n        /* \"#utility.yul\":16257:16488   */\n      iszero\n      tag_258\n      jumpi\n        /* \"#utility.yul\":16366:16369   */\n      dup1\n        /* \"#utility.yul\":16395:16443   */\n      tag_259\n        /* \"#utility.yul\":16439:16442   */\n      dup9\n        /* \"#utility.yul\":16427:16437   */\n      dup3\n        /* \"#utility.yul\":16395:16443   */\n      tag_73\n      jump\t// in\n    tag_259:\n        /* \"#utility.yul\":16390:16393   */\n      dup5\n        /* \"#utility.yul\":16383:16444   */\n      mstore\n        /* \"#utility.yul\":16473:16477   */\n      0x20\n        /* \"#utility.yul\":16468:16471   */\n      dup5\n        /* \"#utility.yul\":16464:16478   */\n      add\n        /* \"#utility.yul\":16457:16478   */\n      swap4\n      pop\n        /* \"#utility.yul\":16333:16488   */\n      pop\n        /* \"#utility.yul\":16317:16321   */\n      0x20\n        /* \"#utility.yul\":16312:16315   */\n      dup2\n        /* \"#utility.yul\":16308:16322   */\n      add\n        /* \"#utility.yul\":16301:16322   */\n      swap1\n      pop\n        /* \"#utility.yul\":16257:16488   */\n      jump(tag_256)\n    tag_258:\n        /* \"#utility.yul\":16261:16282   */\n      pop\n        /* \"#utility.yul\":15875:16494   */\n      pop\n      pop\n        /* \"#utility.yul\":15762:16494   */\n      swap4\n      swap3\n      pop\n      pop\n      pop\n      jump\t// out\n        /* \"#utility.yul\":16517:16902   */\n    tag_78:\n        /* \"#utility.yul\":16599:16604   */\n      0x00\n        /* \"#utility.yul\":16648:16651   */\n      dup3\n        /* \"#utility.yul\":16641:16645   */\n      0x1f\n        /* \"#utility.yul\":16633:16639   */\n      dup4\n        /* \"#utility.yul\":16629:16646   */\n      add\n        /* \"#utility.yul\":16625:16652   */\n      slt\n        /* \"#utility.yul\":16615:16737   */\n      tag_261\n      jumpi\n        /* \"#utility.yul\":16656:16735   */\n      tag_262\n      tag_34\n      jump\t// in\n    tag_262:\n        /* \"#utility.yul\":16615:16737   */\n    tag_261:\n        /* \"#utility.yul\":16766:16772   */\n      dup2\n        /* \"#utility.yul\":16760:16773   */\n      mload\n        /* \"#utility.yul\":16791:16896   */\n      tag_263\n        /* \"#utility.yul\":16892:16895   */\n      dup5\n        /* \"#utility.yul\":16884:16890   */\n      dup3\n        /* \"#utility.yul\":16877:16881   */\n      0x20\n        /* \"#utility.yul\":16869:16875   */\n      dup7\n        /* \"#utility.yul\":16865:16882   */\n      add\n        /* \"#utility.yul\":16791:16896   */\n      tag_77\n      jump\t// in\n    tag_263:\n        /* \"#utility.yul\":16782:16896   */\n      swap2\n      pop\n        /* \"#utility.yul\":16605:16902   */\n      pop\n        /* \"#utility.yul\":16517:16902   */\n      swap3\n      swap2\n      pop\n      pop\n      jump\t// out\n        /* \"#utility.yul\":16908:17342   */\n    tag_79:\n        /* \"#utility.yul\":16997:17002   */\n      0x00\n        /* \"#utility.yul\":17022:17088   */\n      tag_265\n        /* \"#utility.yul\":17038:17087   */\n      tag_266\n        /* \"#utility.yul\":17080:17086   */\n      dup5\n        /* \"#utility.yul\":17038:17087   */\n      tag_46\n      jump\t// in\n    tag_266:\n        /* \"#utility.yul\":17022:17088   */\n      tag_38\n      jump\t// in\n    tag_265:\n        /* \"#utility.yul\":17013:17088   */\n      swap1\n      pop\n        /* \"#utility.yul\":17111:17117   */\n      dup3\n        /* \"#utility.yul\":17104:17109   */\n      dup2\n        /* \"#utility.yul\":17097:17118   */\n      mstore\n        /* \"#utility.yul\":17149:17153   */\n      0x20\n        /* \"#utility.yul\":17142:17147   */\n      dup2\n        /* \"#utility.yul\":17138:17154   */\n      add\n        /* \"#utility.yul\":17187:17190   */\n      dup5\n        /* \"#utility.yul\":17178:17184   */\n      dup5\n        /* \"#utility.yul\":17173:17176   */\n      dup5\n        /* \"#utility.yul\":17169:17185   */\n      add\n        /* \"#utility.yul\":17166:17191   */\n      gt\n        /* \"#utility.yul\":17163:17275   */\n      iszero\n      tag_267\n      jumpi\n        /* \"#utility.yul\":17194:17273   */\n      tag_268\n      tag_45\n      jump\t// in\n    tag_268:\n        /* \"#utility.yul\":17163:17275   */\n    tag_267:\n        /* \"#utility.yul\":17284:17336   */\n      tag_269\n        /* \"#utility.yul\":17329:17335   */\n      dup5\n        /* \"#utility.yul\":17324:17327   */\n      dup3\n        /* \"#utility.yul\":17319:17322   */\n      dup6\n        /* \"#utility.yul\":17284:17336   */\n      tag_53\n      jump\t// in\n    tag_269:\n        /* \"#utility.yul\":17003:17342   */\n      pop\n        /* \"#utility.yul\":16908:17342   */\n      swap4\n      swap3\n      pop\n      pop\n      pop\n      jump\t// out\n        /* \"#utility.yul\":17362:17717   */\n    tag_80:\n        /* \"#utility.yul\":17429:17434   */\n      0x00\n        /* \"#utility.yul\":17478:17481   */\n      dup3\n        /* \"#utility.yul\":17471:17475   */\n      0x1f\n        /* \"#utility.yul\":17463:17469   */\n      dup4\n        /* \"#utility.yul\":17459:17476   */\n      add\n        /* \"#utility.yul\":17455:17482   */\n      slt\n        /* \"#utility.yul\":17445:17567   */\n      tag_271\n      jumpi\n        /* \"#utility.yul\":17486:17565   */\n      tag_272\n      tag_34\n      jump\t// in\n    tag_272:\n        /* \"#utility.yul\":17445:17567   */\n    tag_271:\n        /* \"#utility.yul\":17596:17602   */\n      dup2\n        /* \"#utility.yul\":17590:17603   */\n      mload\n        /* \"#utility.yul\":17621:17711   */\n      tag_273\n        /* \"#utility.yul\":17707:17710   */\n      dup5\n        /* \"#utility.yul\":17699:17705   */\n      dup3\n        /* \"#utility.yul\":17692:17696   */\n      0x20\n        /* \"#utility.yul\":17684:17690   */\n      dup7\n        /* \"#utility.yul\":17680:17697   */\n      add\n        /* \"#utility.yul\":17621:17711   */\n      tag_79\n      jump\t// in\n    tag_273:\n        /* \"#utility.yul\":17612:17711   */\n      swap2\n      pop\n        /* \"#utility.yul\":17435:17717   */\n      pop\n        /* \"#utility.yul\":17362:17717   */\n      swap3\n      swap2\n      pop\n      pop\n      jump\t// out\n        /* \"#utility.yul\":17756:18701   */\n    tag_81:\n        /* \"#utility.yul\":17839:17844   */\n      0x00\n        /* \"#utility.yul\":17883:17887   */\n      0x40\n        /* \"#utility.yul\":17871:17880   */\n      dup3\n        /* \"#utility.yul\":17866:17869   */\n      dup5\n        /* \"#utility.yul\":17862:17881   */\n      sub\n        /* \"#utility.yul\":17858:17888   */\n      slt\n        /* \"#utility.yul\":17855:17972   */\n      iszero\n      tag_275\n      jumpi\n        /* \"#utility.yul\":17891:17970   */\n      tag_276\n      tag_43\n      jump\t// in\n    tag_276:\n        /* \"#utility.yul\":17855:17972   */\n    tag_275:\n        /* \"#utility.yul\":17990:18011   */\n      tag_277\n        /* \"#utility.yul\":18006:18010   */\n      0x40\n        /* \"#utility.yul\":17990:18011   */\n      tag_38\n      jump\t// in\n    tag_277:\n        /* \"#utility.yul\":17981:18011   */\n      swap1\n      pop\n        /* \"#utility.yul\":18091:18092   */\n      0x00\n        /* \"#utility.yul\":18080:18089   */\n      dup3\n        /* \"#utility.yul\":18076:18093   */\n      add\n        /* \"#utility.yul\":18070:18094   */\n      mload\n        /* \"#utility.yul\":18121:18139   */\n      0xffffffffffffffff\n        /* \"#utility.yul\":18113:18119   */\n      dup2\n        /* \"#utility.yul\":18110:18140   */\n      gt\n        /* \"#utility.yul\":18107:18224   */\n      iszero\n      tag_278\n      jumpi\n        /* \"#utility.yul\":18143:18222   */\n      tag_279\n      tag_44\n      jump\t// in\n    tag_279:\n        /* \"#utility.yul\":18107:18224   */\n    tag_278:\n        /* \"#utility.yul\":18263:18333   */\n      tag_280\n        /* \"#utility.yul\":18329:18332   */\n      dup5\n        /* \"#utility.yul\":18320:18326   */\n      dup3\n        /* \"#utility.yul\":18309:18318   */\n      dup6\n        /* \"#utility.yul\":18305:18327   */\n      add\n        /* \"#utility.yul\":18263:18333   */\n      tag_80\n      jump\t// in\n    tag_280:\n        /* \"#utility.yul\":18256:18260   */\n      0x00\n        /* \"#utility.yul\":18249:18254   */\n      dup4\n        /* \"#utility.yul\":18245:18261   */\n      add\n        /* \"#utility.yul\":18238:18334   */\n      mstore\n        /* \"#utility.yul\":18021:18345   */\n      pop\n        /* \"#utility.yul\":18424:18426   */\n      0x20\n        /* \"#utility.yul\":18413:18422   */\n      dup3\n        /* \"#utility.yul\":18409:18427   */\n      add\n        /* \"#utility.yul\":18403:18428   */\n      mload\n        /* \"#utility.yul\":18455:18473   */\n      0xffffffffffffffff\n        /* \"#utility.yul\":18447:18453   */\n      dup2\n        /* \"#utility.yul\":18444:18474   */\n      gt\n        /* \"#utility.yul\":18441:18558   */\n      iszero\n      tag_281\n      jumpi\n        /* \"#utility.yul\":18477:18556   */\n      tag_282\n      tag_44\n      jump\t// in\n    tag_282:\n        /* \"#utility.yul\":18441:18558   */\n    tag_281:\n        /* \"#utility.yul\":18597:18682   */\n      tag_283\n        /* \"#utility.yul\":18678:18681   */\n      dup5\n        /* \"#utility.yul\":18669:18675   */\n      dup3\n        /* \"#utility.yul\":18658:18667   */\n      dup6\n        /* \"#utility.yul\":18654:18676   */\n      add\n        /* \"#utility.yul\":18597:18682   */\n      tag_78\n      jump\t// in\n    tag_283:\n        /* \"#utility.yul\":18590:18594   */\n      0x20\n        /* \"#utility.yul\":18583:18588   */\n      dup4\n        /* \"#utility.yul\":18579:18595   */\n      add\n        /* \"#utility.yul\":18572:18683   */\n      mstore\n        /* \"#utility.yul\":18355:18694   */\n      pop\n        /* \"#utility.yul\":17756:18701   */\n      swap3\n      swap2\n      pop\n      pop\n      jump\t// out\n        /* \"#utility.yul\":18707:19945   */\n    tag_23:\n        /* \"#utility.yul\":18860:18866   */\n      0x00\n        /* \"#utility.yul\":18868:18874   */\n      dup1\n        /* \"#utility.yul\":18876:18882   */\n      0x00\n        /* \"#utility.yul\":18884:18890   */\n      dup1\n        /* \"#utility.yul\":18933:18936   */\n      0x80\n        /* \"#utility.yul\":18921:18930   */\n      dup6\n        /* \"#utility.yul\":18912:18919   */\n      dup8\n        /* \"#utility.yul\":18908:18931   */\n      sub\n        /* \"#utility.yul\":18904:18937   */\n      slt\n        /* \"#utility.yul\":18901:19021   */\n      iszero\n      tag_285\n      jumpi\n        /* \"#utility.yul\":18940:19019   */\n      tag_286\n      tag_25\n      jump\t// in\n    tag_286:\n        /* \"#utility.yul\":18901:19021   */\n    tag_285:\n        /* \"#utility.yul\":19060:19061   */\n      0x00\n        /* \"#utility.yul\":19085:19149   */\n      tag_287\n        /* \"#utility.yul\":19141:19148   */\n      dup8\n        /* \"#utility.yul\":19132:19138   */\n      dup3\n        /* \"#utility.yul\":19121:19130   */\n      dup9\n        /* \"#utility.yul\":19117:19139   */\n      add\n        /* \"#utility.yul\":19085:19149   */\n      tag_73\n      jump\t// in\n    tag_287:\n        /* \"#utility.yul\":19075:19149   */\n      swap5\n      pop\n        /* \"#utility.yul\":19031:19159   */\n      pop\n        /* \"#utility.yul\":19198:19200   */\n      0x20\n        /* \"#utility.yul\":19224:19296   */\n      tag_288\n        /* \"#utility.yul\":19288:19295   */\n      dup8\n        /* \"#utility.yul\":19279:19285   */\n      dup3\n        /* \"#utility.yul\":19268:19277   */\n      dup9\n        /* \"#utility.yul\":19264:19286   */\n      add\n        /* \"#utility.yul\":19224:19296   */\n      tag_76\n      jump\t// in\n    tag_288:\n        /* \"#utility.yul\":19214:19296   */\n      swap4\n      pop\n        /* \"#utility.yul\":19169:19306   */\n      pop\n        /* \"#utility.yul\":19366:19368   */\n      0x40\n        /* \"#utility.yul\":19355:19364   */\n      dup6\n        /* \"#utility.yul\":19351:19369   */\n      add\n        /* \"#utility.yul\":19345:19370   */\n      mload\n        /* \"#utility.yul\":19397:19415   */\n      0xffffffffffffffff\n        /* \"#utility.yul\":19389:19395   */\n      dup2\n        /* \"#utility.yul\":19386:19416   */\n      gt\n        /* \"#utility.yul\":19383:19500   */\n      iszero\n      tag_289\n      jumpi\n        /* \"#utility.yul\":19419:19498   */\n      tag_290\n      tag_26\n      jump\t// in\n    tag_290:\n        /* \"#utility.yul\":19383:19500   */\n    tag_289:\n        /* \"#utility.yul\":19524:19613   */\n      tag_291\n        /* \"#utility.yul\":19605:19612   */\n      dup8\n        /* \"#utility.yul\":19596:19602   */\n      dup3\n        /* \"#utility.yul\":19585:19594   */\n      dup9\n        /* \"#utility.yul\":19581:19603   */\n      add\n        /* \"#utility.yul\":19524:19613   */\n      tag_78\n      jump\t// in\n    tag_291:\n        /* \"#utility.yul\":19514:19613   */\n      swap3\n      pop\n        /* \"#utility.yul\":19316:19623   */\n      pop\n        /* \"#utility.yul\":19683:19685   */\n      0x60\n        /* \"#utility.yul\":19672:19681   */\n      dup6\n        /* \"#utility.yul\":19668:19686   */\n      add\n        /* \"#utility.yul\":19662:19687   */\n      mload\n        /* \"#utility.yul\":19714:19732   */\n      0xffffffffffffffff\n        /* \"#utility.yul\":19706:19712   */\n      dup2\n        /* \"#utility.yul\":19703:19733   */\n      gt\n        /* \"#utility.yul\":19700:19817   */\n      iszero\n      tag_292\n      jumpi\n        /* \"#utility.yul\":19736:19815   */\n      tag_293\n      tag_26\n      jump\t// in\n    tag_293:\n        /* \"#utility.yul\":19700:19817   */\n    tag_292:\n        /* \"#utility.yul\":19841:19928   */\n      tag_294\n        /* \"#utility.yul\":19920:19927   */\n      dup8\n        /* \"#utility.yul\":19911:19917   */\n      dup3\n        /* \"#utility.yul\":19900:19909   */\n      dup9\n        /* \"#utility.yul\":19896:19918   */\n      add\n        /* \"#utility.yul\":19841:19928   */\n      tag_81\n      jump\t// in\n    tag_294:\n        /* \"#utility.yul\":19831:19928   */\n      swap2\n      pop\n        /* \"#utility.yul\":19633:19938   */\n      pop\n        /* \"#utility.yul\":18707:19945   */\n      swap3\n      swap6\n      swap2\n      swap5\n      pop\n      swap3\n      pop\n      jump\t// out\n\n    auxdata: 0xa26469706673582212202429f5b090750a89ae80b82a0ba57a208f38fce50210e72ecaad05e0304309f964736f6c634300081a0033\n}\n",
				"bytecode": {
					"linkReferences": {},
					"object": "6080604052348015600e575f80fd5b50610b188061001c5f395ff3fe608060405234801561000f575f80fd5b5060043610610034575f3560e01c8063b9ff2f0814610038578063e5c5e9a314610068575b5f80fd5b610052600480360381019061004d9190610449565b61009b565b60405161005f9190610545565b60405180910390f35b610082600480360381019061007d9190610603565b6100cd565b604051610092949392919061081e565b60405180910390f35b6060848484846040516020016100b4949392919061081e565b6040516020818303038152906040529050949350505050565b5f8060606100d9610104565b848060200190518101906100ed9190610a46565b809450819550829650839750505050509193509193565b604051806040016040528060608152602001606081525090565b5f604051905090565b5f80fd5b5f80fd5b5f819050919050565b6101418161012f565b811461014b575f80fd5b50565b5f8135905061015c81610138565b92915050565b5f73ffffffffffffffffffffffffffffffffffffffff82169050919050565b5f61018b82610162565b9050919050565b61019b81610181565b81146101a5575f80fd5b50565b5f813590506101b681610192565b92915050565b5f80fd5b5f601f19601f8301169050919050565b7f4e487b71000000000000000000000000000000000000000000000000000000005f52604160045260245ffd5b610206826101c0565b810181811067ffffffffffffffff82111715610225576102246101d0565b5b80604052505050565b5f61023761011e565b905061024382826101fd565b919050565b5f67ffffffffffffffff821115610262576102616101d0565b5b602082029050602081019050919050565b5f80fd5b5f61028961028484610248565b61022e565b905080838252602082019050602084028301858111156102ac576102ab610273565b5b835b818110156102d557806102c1888261014e565b8452602084019350506020810190506102ae565b5050509392505050565b5f82601f8301126102f3576102f26101bc565b5b8135610303848260208601610277565b91505092915050565b5f80fd5b5f80fd5b5f80fd5b5f67ffffffffffffffff821115610332576103316101d0565b5b61033b826101c0565b9050602081019050919050565b828183375f83830152505050565b5f61036861036384610318565b61022e565b90508281526020810184848401111561038457610383610314565b5b61038f848285610348565b509392505050565b5f82601f8301126103ab576103aa6101bc565b5b81356103bb848260208601610356565b91505092915050565b5f604082840312156103d9576103d861030c565b5b6103e3604061022e565b90505f82013567ffffffffffffffff81111561040257610401610310565b5b61040e84828501610397565b5f83015250602082013567ffffffffffffffff81111561043157610430610310565b5b61043d848285016102df565b60208301525092915050565b5f805f806080858703121561046157610460610127565b5b5f61046e8782880161014e565b945050602061047f878288016101a8565b935050604085013567ffffffffffffffff8111156104a05761049f61012b565b5b6104ac878288016102df565b925050606085013567ffffffffffffffff8111156104cd576104cc61012b565b5b6104d9878288016103c4565b91505092959194509250565b5f81519050919050565b5f82825260208201905092915050565b8281835e5f83830152505050565b5f610517826104e5565b61052181856104ef565b93506105318185602086016104ff565b61053a816101c0565b840191505092915050565b5f6020820190508181035f83015261055d818461050d565b905092915050565b5f67ffffffffffffffff82111561057f5761057e6101d0565b5b610588826101c0565b9050602081019050919050565b5f6105a76105a284610565565b61022e565b9050828152602081018484840111156105c3576105c2610314565b5b6105ce848285610348565b509392505050565b5f82601f8301126105ea576105e96101bc565b5b81356105fa848260208601610595565b91505092915050565b5f6020828403121561061857610617610127565b5b5f82013567ffffffffffffffff8111156106355761063461012b565b5b610641848285016105d6565b91505092915050565b6106538161012f565b82525050565b61066281610181565b82525050565b5f81519050919050565b5f82825260208201905092915050565b5f819050602082019050919050565b61069a8161012f565b82525050565b5f6106ab8383610691565b60208301905092915050565b5f602082019050919050565b5f6106cd82610668565b6106d78185610672565b93506106e283610682565b805f5b838110156107125781516106f988826106a0565b9750610704836106b7565b9250506001810190506106e5565b5085935050505092915050565b5f81519050919050565b5f82825260208201905092915050565b5f6107438261071f565b61074d8185610729565b935061075d8185602086016104ff565b610766816101c0565b840191505092915050565b5f82825260208201905092915050565b5f61078b82610668565b6107958185610771565b93506107a083610682565b805f5b838110156107d05781516107b788826106a0565b97506107c2836106b7565b9250506001810190506107a3565b5085935050505092915050565b5f604083015f8301518482035f8601526107f78282610739565b915050602083015184820360208601526108118282610781565b9150508091505092915050565b5f6080820190506108315f83018761064a565b61083e6020830186610659565b818103604083015261085081856106c3565b9050818103606083015261086481846107dd565b905095945050505050565b5f8151905061087d81610138565b92915050565b5f61088d82610162565b9050919050565b61089d81610883565b81146108a7575f80fd5b50565b5f815190506108b881610894565b92915050565b5f6108d06108cb84610248565b61022e565b905080838252602082019050602084028301858111156108f3576108f2610273565b5b835b8181101561091c5780610908888261086f565b8452602084019350506020810190506108f5565b5050509392505050565b5f82601f83011261093a576109396101bc565b5b815161094a8482602086016108be565b91505092915050565b5f61096561096084610318565b61022e565b90508281526020810184848401111561098157610980610314565b5b61098c8482856104ff565b509392505050565b5f82601f8301126109a8576109a76101bc565b5b81516109b8848260208601610953565b91505092915050565b5f604082840312156109d6576109d561030c565b5b6109e0604061022e565b90505f82015167ffffffffffffffff8111156109ff576109fe610310565b5b610a0b84828501610994565b5f83015250602082015167ffffffffffffffff811115610a2e57610a2d610310565b5b610a3a84828501610926565b60208301525092915050565b5f805f8060808587031215610a5e57610a5d610127565b5b5f610a6b8782880161086f565b9450506020610a7c878288016108aa565b935050604085015167ffffffffffffffff811115610a9d57610a9c61012b565b5b610aa987828801610926565b925050606085015167ffffffffffffffff811115610aca57610ac961012b565b5b610ad6878288016109c1565b9150509295919450925056fea26469706673582212202429f5b090750a89ae80b82a0ba57a208f38fce50210e72ecaad05e0304309f964736f6c634300081a0033",
					"opcodes": "PUSH1 0x80 PUSH1 0x40 MSTORE CALLVALUE DUP1 ISZERO PUSH1 0xE JUMPI PUSH0 DUP1 REVERT JUMPDEST POP PUSH2 0xB18 DUP1 PUSH2 0x1C PUSH0 CODECOPY PUSH0 RETURN INVALID PUSH1 0x80 PUSH1 0x40 MSTORE CALLVALUE DUP1 ISZERO PUSH2 0xF JUMPI PUSH0 DUP1 REVERT JUMPDEST POP PUSH1 0x4 CALLDATASIZE LT PUSH2 0x34 JUMPI PUSH0 CALLDATALOAD PUSH1 0xE0 SHR DUP1 PUSH4 0xB9FF2F08 EQ PUSH2 0x38 JUMPI DUP1 PUSH4 0xE5C5E9A3 EQ PUSH2 0x68 JUMPI JUMPDEST PUSH0 DUP1 REVERT JUMPDEST PUSH2 0x52 PUSH1 0x4 DUP1 CALLDATASIZE SUB DUP2 ADD SWAP1 PUSH2 0x4D SWAP2 SWAP1 PUSH2 0x449 JUMP JUMPDEST PUSH2 0x9B JUMP JUMPDEST PUSH1 0x40 MLOAD PUSH2 0x5F SWAP2 SWAP1 PUSH2 0x545 JUMP JUMPDEST PUSH1 0x40 MLOAD DUP1 SWAP2 SUB SWAP1 RETURN JUMPDEST PUSH2 0x82 PUSH1 0x4 DUP1 CALLDATASIZE SUB DUP2 ADD SWAP1 PUSH2 0x7D SWAP2 SWAP1 PUSH2 0x603 JUMP JUMPDEST PUSH2 0xCD JUMP JUMPDEST PUSH1 0x40 MLOAD PUSH2 0x92 SWAP5 SWAP4 SWAP3 SWAP2 SWAP1 PUSH2 0x81E JUMP JUMPDEST PUSH1 0x40 MLOAD DUP1 SWAP2 SUB SWAP1 RETURN JUMPDEST PUSH1 0x60 DUP5 DUP5 DUP5 DUP5 PUSH1 0x40 MLOAD PUSH1 0x20 ADD PUSH2 0xB4 SWAP5 SWAP4 SWAP3 SWAP2 SWAP1 PUSH2 0x81E JUMP JUMPDEST PUSH1 0x40 MLOAD PUSH1 0x20 DUP2 DUP4 SUB SUB DUP2 MSTORE SWAP1 PUSH1 0x40 MSTORE SWAP1 POP SWAP5 SWAP4 POP POP POP POP JUMP JUMPDEST PUSH0 DUP1 PUSH1 0x60 PUSH2 0xD9 PUSH2 0x104 JUMP JUMPDEST DUP5 DUP1 PUSH1 0x20 ADD SWAP1 MLOAD DUP2 ADD SWAP1 PUSH2 0xED SWAP2 SWAP1 PUSH2 0xA46 JUMP JUMPDEST DUP1 SWAP5 POP DUP2 SWAP6 POP DUP3 SWAP7 POP DUP4 SWAP8 POP POP POP POP POP SWAP2 SWAP4 POP SWAP2 SWAP4 JUMP JUMPDEST PUSH1 0x40 MLOAD DUP1 PUSH1 0x40 ADD PUSH1 0x40 MSTORE DUP1 PUSH1 0x60 DUP2 MSTORE PUSH1 0x20 ADD PUSH1 0x60 DUP2 MSTORE POP SWAP1 JUMP JUMPDEST PUSH0 PUSH1 0x40 MLOAD SWAP1 POP SWAP1 JUMP JUMPDEST PUSH0 DUP1 REVERT JUMPDEST PUSH0 DUP1 REVERT JUMPDEST PUSH0 DUP2 SWAP1 POP SWAP2 SWAP1 POP JUMP JUMPDEST PUSH2 0x141 DUP2 PUSH2 0x12F JUMP JUMPDEST DUP2 EQ PUSH2 0x14B JUMPI PUSH0 DUP1 REVERT JUMPDEST POP JUMP JUMPDEST PUSH0 DUP2 CALLDATALOAD SWAP1 POP PUSH2 0x15C DUP2 PUSH2 0x138 JUMP JUMPDEST SWAP3 SWAP2 POP POP JUMP JUMPDEST PUSH0 PUSH20 0xFFFFFFFFFFFFFFFFFFFFFFFFFFFFFFFFFFFFFFFF DUP3 AND SWAP1 POP SWAP2 SWAP1 POP JUMP JUMPDEST PUSH0 PUSH2 0x18B DUP3 PUSH2 0x162 JUMP JUMPDEST SWAP1 POP SWAP2 SWAP1 POP JUMP JUMPDEST PUSH2 0x19B DUP2 PUSH2 0x181 JUMP JUMPDEST DUP2 EQ PUSH2 0x1A5 JUMPI PUSH0 DUP1 REVERT JUMPDEST POP JUMP JUMPDEST PUSH0 DUP2 CALLDATALOAD SWAP1 POP PUSH2 0x1B6 DUP2 PUSH2 0x192 JUMP JUMPDEST SWAP3 SWAP2 POP POP JUMP JUMPDEST PUSH0 DUP1 REVERT JUMPDEST PUSH0 PUSH1 0x1F NOT PUSH1 0x1F DUP4 ADD AND SWAP1 POP SWAP2 SWAP1 POP JUMP JUMPDEST PUSH32 0x4E487B7100000000000000000000000000000000000000000000000000000000 PUSH0 MSTORE PUSH1 0x41 PUSH1 0x4 MSTORE PUSH1 0x24 PUSH0 REVERT JUMPDEST PUSH2 0x206 DUP3 PUSH2 0x1C0 JUMP JUMPDEST DUP2 ADD DUP2 DUP2 LT PUSH8 0xFFFFFFFFFFFFFFFF DUP3 GT OR ISZERO PUSH2 0x225 JUMPI PUSH2 0x224 PUSH2 0x1D0 JUMP JUMPDEST JUMPDEST DUP1 PUSH1 0x40 MSTORE POP POP POP JUMP JUMPDEST PUSH0 PUSH2 0x237 PUSH2 0x11E JUMP JUMPDEST SWAP1 POP PUSH2 0x243 DUP3 DUP3 PUSH2 0x1FD JUMP JUMPDEST SWAP2 SWAP1 POP JUMP JUMPDEST PUSH0 PUSH8 0xFFFFFFFFFFFFFFFF DUP3 GT ISZERO PUSH2 0x262 JUMPI PUSH2 0x261 PUSH2 0x1D0 JUMP JUMPDEST JUMPDEST PUSH1 0x20 DUP3 MUL SWAP1 POP PUSH1 0x20 DUP2 ADD SWAP1 POP SWAP2 SWAP1 POP JUMP JUMPDEST PUSH0 DUP1 REVERT JUMPDEST PUSH0 PUSH2 0x289 PUSH2 0x284 DUP5 PUSH2 0x248 JUMP JUMPDEST PUSH2 0x22E JUMP JUMPDEST SWAP1 POP DUP1 DUP4 DUP3 MSTORE PUSH1 0x20 DUP3 ADD SWAP1 POP PUSH1 0x20 DUP5 MUL DUP4 ADD DUP6 DUP2 GT ISZERO PUSH2 0x2AC JUMPI PUSH2 0x2AB PUSH2 0x273 JUMP JUMPDEST JUMPDEST DUP4 JUMPDEST DUP2 DUP2 LT ISZERO PUSH2 0x2D5 JUMPI DUP1 PUSH2 0x2C1 DUP9 DUP3 PUSH2 0x14E JUMP JUMPDEST DUP5 MSTORE PUSH1 0x20 DUP5 ADD SWAP4 POP POP PUSH1 0x20 DUP2 ADD SWAP1 POP PUSH2 0x2AE JUMP JUMPDEST POP POP POP SWAP4 SWAP3 POP POP POP JUMP JUMPDEST PUSH0 DUP3 PUSH1 0x1F DUP4 ADD SLT PUSH2 0x2F3 JUMPI PUSH2 0x2F2 PUSH2 0x1BC JUMP JUMPDEST JUMPDEST DUP2 CALLDATALOAD PUSH2 0x303 DUP5 DUP3 PUSH1 0x20 DUP7 ADD PUSH2 0x277 JUMP JUMPDEST SWAP2 POP POP SWAP3 SWAP2 POP POP JUMP JUMPDEST PUSH0 DUP1 REVERT JUMPDEST PUSH0 DUP1 REVERT JUMPDEST PUSH0 DUP1 REVERT JUMPDEST PUSH0 PUSH8 0xFFFFFFFFFFFFFFFF DUP3 GT ISZERO PUSH2 0x332 JUMPI PUSH2 0x331 PUSH2 0x1D0 JUMP JUMPDEST JUMPDEST PUSH2 0x33B DUP3 PUSH2 0x1C0 JUMP JUMPDEST SWAP1 POP PUSH1 0x20 DUP2 ADD SWAP1 POP SWAP2 SWAP1 POP JUMP JUMPDEST DUP3 DUP2 DUP4 CALLDATACOPY PUSH0 DUP4 DUP4 ADD MSTORE POP POP POP JUMP JUMPDEST PUSH0 PUSH2 0x368 PUSH2 0x363 DUP5 PUSH2 0x318 JUMP JUMPDEST PUSH2 0x22E JUMP JUMPDEST SWAP1 POP DUP3 DUP2 MSTORE PUSH1 0x20 DUP2 ADD DUP5 DUP5 DUP5 ADD GT ISZERO PUSH2 0x384 JUMPI PUSH2 0x383 PUSH2 0x314 JUMP JUMPDEST JUMPDEST PUSH2 0x38F DUP5 DUP3 DUP6 PUSH2 0x348 JUMP JUMPDEST POP SWAP4 SWAP3 POP POP POP JUMP JUMPDEST PUSH0 DUP3 PUSH1 0x1F DUP4 ADD SLT PUSH2 0x3AB JUMPI PUSH2 0x3AA PUSH2 0x1BC JUMP JUMPDEST JUMPDEST DUP2 CALLDATALOAD PUSH2 0x3BB DUP5 DUP3 PUSH1 0x20 DUP7 ADD PUSH2 0x356 JUMP JUMPDEST SWAP2 POP POP SWAP3 SWAP2 POP POP JUMP JUMPDEST PUSH0 PUSH1 0x40 DUP3 DUP5 SUB SLT ISZERO PUSH2 0x3D9 JUMPI PUSH2 0x3D8 PUSH2 0x30C JUMP JUMPDEST JUMPDEST PUSH2 0x3E3 PUSH1 0x40 PUSH2 0x22E JUMP JUMPDEST SWAP1 POP PUSH0 DUP3 ADD CALLDATALOAD PUSH8 0xFFFFFFFFFFFFFFFF DUP2 GT ISZERO PUSH2 0x402 JUMPI PUSH2 0x401 PUSH2 0x310 JUMP JUMPDEST JUMPDEST PUSH2 0x40E DUP5 DUP3 DUP6 ADD PUSH2 0x397 JUMP JUMPDEST PUSH0 DUP4 ADD MSTORE POP PUSH1 0x20 DUP3 ADD CALLDATALOAD PUSH8 0xFFFFFFFFFFFFFFFF DUP2 GT ISZERO PUSH2 0x431 JUMPI PUSH2 0x430 PUSH2 0x310 JUMP JUMPDEST JUMPDEST PUSH2 0x43D DUP5 DUP3 DUP6 ADD PUSH2 0x2DF JUMP JUMPDEST PUSH1 0x20 DUP4 ADD MSTORE POP SWAP3 SWAP2 POP POP JUMP JUMPDEST PUSH0 DUP1 PUSH0 DUP1 PUSH1 0x80 DUP6 DUP8 SUB SLT ISZERO PUSH2 0x461 JUMPI PUSH2 0x460 PUSH2 0x127 JUMP JUMPDEST JUMPDEST PUSH0 PUSH2 0x46E DUP8 DUP3 DUP9 ADD PUSH2 0x14E JUMP JUMPDEST SWAP5 POP POP PUSH1 0x20 PUSH2 0x47F DUP8 DUP3 DUP9 ADD PUSH2 0x1A8 JUMP JUMPDEST SWAP4 POP POP PUSH1 0x40 DUP6 ADD CALLDATALOAD PUSH8 0xFFFFFFFFFFFFFFFF DUP2 GT ISZERO PUSH2 0x4A0 JUMPI PUSH2 0x49F PUSH2 0x12B JUMP JUMPDEST JUMPDEST PUSH2 0x4AC DUP8 DUP3 DUP9 ADD PUSH2 0x2DF JUMP JUMPDEST SWAP3 POP POP PUSH1 0x60 DUP6 ADD CALLDATALOAD PUSH8 0xFFFFFFFFFFFFFFFF DUP2 GT ISZERO PUSH2 0x4CD JUMPI PUSH2 0x4CC PUSH2 0x12B JUMP JUMPDEST JUMPDEST PUSH2 0x4D9 DUP8 DUP3 DUP9 ADD PUSH2 0x3C4 JUMP JUMPDEST SWAP2 POP POP SWAP3 SWAP6 SWAP2 SWAP5 POP SWAP3 POP JUMP JUMPDEST PUSH0 DUP2 MLOAD SWAP1 POP SWAP2 SWAP1 POP JUMP JUMPDEST PUSH0 DUP3 DUP3 MSTORE PUSH1 0x20 DUP3 ADD SWAP1 POP SWAP3 SWAP2 POP POP JUMP JUMPDEST DUP3 DUP2 DUP4 MCOPY PUSH0 DUP4 DUP4 ADD MSTORE POP POP POP JUMP JUMPDEST PUSH0 PUSH2 0x517 DUP3 PUSH2 0x4E5 JUMP JUMPDEST PUSH2 0x521 DUP2 DUP6 PUSH2 0x4EF JUMP JUMPDEST SWAP4 POP PUSH2 0x531 DUP2 DUP6 PUSH1 0x20 DUP7 ADD PUSH2 0x4FF JUMP JUMPDEST PUSH2 0x53A DUP2 PUSH2 0x1C0 JUMP JUMPDEST DUP5 ADD SWAP2 POP POP SWAP3 SWAP2 POP POP JUMP JUMPDEST PUSH0 PUSH1 0x20 DUP3 ADD SWAP1 POP DUP2 DUP2 SUB PUSH0 DUP4 ADD MSTORE PUSH2 0x55D DUP2 DUP5 PUSH2 0x50D JUMP JUMPDEST SWAP1 POP SWAP3 SWAP2 POP POP JUMP JUMPDEST PUSH0 PUSH8 0xFFFFFFFFFFFFFFFF DUP3 GT ISZERO PUSH2 0x57F JUMPI PUSH2 0x57E PUSH2 0x1D0 JUMP JUMPDEST JUMPDEST PUSH2 0x588 DUP3 PUSH2 0x1C0 JUMP JUMPDEST SWAP1 POP PUSH1 0x20 DUP2 ADD SWAP1 POP SWAP2 SWAP1 POP JUMP JUMPDEST PUSH0 PUSH2 0x5A7 PUSH2 0x5A2 DUP5 PUSH2 0x565 JUMP JUMPDEST PUSH2 0x22E JUMP JUMPDEST SWAP1 POP DUP3 DUP2 MSTORE PUSH1 0x20 DUP2 ADD DUP5 DUP5 DUP5 ADD GT ISZERO PUSH2 0x5C3 JUMPI PUSH2 0x5C2 PUSH2 0x314 JUMP JUMPDEST JUMPDEST PUSH2 0x5CE DUP5 DUP3 DUP6 PUSH2 0x348 JUMP JUMPDEST POP SWAP4 SWAP3 POP POP POP JUMP JUMPDEST PUSH0 DUP3 PUSH1 0x1F DUP4 ADD SLT PUSH2 0x5EA JUMPI PUSH2 0x5E9 PUSH2 0x1BC JUMP JUMPDEST JUMPDEST DUP2 CALLDATALOAD PUSH2 0x5FA DUP5 DUP3 PUSH1 0x20 DUP7 ADD PUSH2 0x595 JUMP JUMPDEST SWAP2 POP POP SWAP3 SWAP2 POP POP JUMP JUMPDEST PUSH0 PUSH1 0x20 DUP3 DUP5 SUB SLT ISZERO PUSH2 0x618 JUMPI PUSH2 0x617 PUSH2 0x127 JUMP JUMPDEST JUMPDEST PUSH0 DUP3 ADD CALLDATALOAD PUSH8 0xFFFFFFFFFFFFFFFF DUP2 GT ISZERO PUSH2 0x635 JUMPI PUSH2 0x634 PUSH2 0x12B JUMP JUMPDEST JUMPDEST PUSH2 0x641 DUP5 DUP3 DUP6 ADD PUSH2 0x5D6 JUMP JUMPDEST SWAP2 POP POP SWAP3 SWAP2 POP POP JUMP JUMPDEST PUSH2 0x653 DUP2 PUSH2 0x12F JUMP JUMPDEST DUP3 MSTORE POP POP JUMP JUMPDEST PUSH2 0x662 DUP2 PUSH2 0x181 JUMP JUMPDEST DUP3 MSTORE POP POP JUMP JUMPDEST PUSH0 DUP2 MLOAD SWAP1 POP SWAP2 SWAP1 POP JUMP JUMPDEST PUSH0 DUP3 DUP3 MSTORE PUSH1 0x20 DUP3 ADD SWAP1 POP SWAP3 SWAP2 POP POP JUMP JUMPDEST PUSH0 DUP2 SWAP1 POP PUSH1 0x20 DUP3 ADD SWAP1 POP SWAP2 SWAP1 POP JUMP JUMPDEST PUSH2 0x69A DUP2 PUSH2 0x12F JUMP JUMPDEST DUP3 MSTORE POP POP JUMP JUMPDEST PUSH0 PUSH2 0x6AB DUP4 DUP4 PUSH2 0x691 JUMP JUMPDEST PUSH1 0x20 DUP4 ADD SWAP1 POP SWAP3 SWAP2 POP POP JUMP JUMPDEST PUSH0 PUSH1 0x20 DUP3 ADD SWAP1 POP SWAP2 SWAP1 POP JUMP JUMPDEST PUSH0 PUSH2 0x6CD DUP3 PUSH2 0x668 JUMP JUMPDEST PUSH2 0x6D7 DUP2 DUP6 PUSH2 0x672 JUMP JUMPDEST SWAP4 POP PUSH2 0x6E2 DUP4 PUSH2 0x682 JUMP JUMPDEST DUP1 PUSH0 JUMPDEST DUP4 DUP2 LT ISZERO PUSH2 0x712 JUMPI DUP2 MLOAD PUSH2 0x6F9 DUP9 DUP3 PUSH2 0x6A0 JUMP JUMPDEST SWAP8 POP PUSH2 0x704 DUP4 PUSH2 0x6B7 JUMP JUMPDEST SWAP3 POP POP PUSH1 0x1 DUP2 ADD SWAP1 POP PUSH2 0x6E5 JUMP JUMPDEST POP DUP6 SWAP4 POP POP POP POP SWAP3 SWAP2 POP POP JUMP JUMPDEST PUSH0 DUP2 MLOAD SWAP1 POP SWAP2 SWAP1 POP JUMP JUMPDEST PUSH0 DUP3 DUP3 MSTORE PUSH1 0x20 DUP3 ADD SWAP1 POP SWAP3 SWAP2 POP POP JUMP JUMPDEST PUSH0 PUSH2 0x743 DUP3 PUSH2 0x71F JUMP JUMPDEST PUSH2 0x74D DUP2 DUP6 PUSH2 0x729 JUMP JUMPDEST SWAP4 POP PUSH2 0x75D DUP2 DUP6 PUSH1 0x20 DUP7 ADD PUSH2 0x4FF JUMP JUMPDEST PUSH2 0x766 DUP2 PUSH2 0x1C0 JUMP JUMPDEST DUP5 ADD SWAP2 POP POP SWAP3 SWAP2 POP POP JUMP JUMPDEST PUSH0 DUP3 DUP3 MSTORE PUSH1 0x20 DUP3 ADD SWAP1 POP SWAP3 SWAP2 POP POP JUMP JUMPDEST PUSH0 PUSH2 0x78B DUP3 PUSH2 0x668 JUMP JUMPDEST PUSH2 0x795 DUP2 DUP6 PUSH2 0x771 JUMP JUMPDEST SWAP4 POP PUSH2 0x7A0 DUP4 PUSH2 0x682 JUMP JUMPDEST DUP1 PUSH0 JUMPDEST DUP4 DUP2 LT ISZERO PUSH2 0x7D0 JUMPI DUP2 MLOAD PUSH2 0x7B7 DUP9 DUP3 PUSH2 0x6A0 JUMP JUMPDEST SWAP8 POP PUSH2 0x7C2 DUP4 PUSH2 0x6B7 JUMP JUMPDEST SWAP3 POP POP PUSH1 0x1 DUP2 ADD SWAP1 POP PUSH2 0x7A3 JUMP JUMPDEST POP DUP6 SWAP4 POP POP POP POP SWAP3 SWAP2 POP POP JUMP JUMPDEST PUSH0 PUSH1 0x40 DUP4 ADD PUSH0 DUP4 ADD MLOAD DUP5 DUP3 SUB PUSH0 DUP7 ADD MSTORE PUSH2 0x7F7 DUP3 DUP3 PUSH2 0x739 JUMP JUMPDEST SWAP2 POP POP PUSH1 0x20 DUP4 ADD MLOAD DUP5 DUP3 SUB PUSH1 0x20 DUP7 ADD MSTORE PUSH2 0x811 DUP3 DUP3 PUSH2 0x781 JUMP JUMPDEST SWAP2 POP POP DUP1 SWAP2 POP POP SWAP3 SWAP2 POP POP JUMP JUMPDEST PUSH0 PUSH1 0x80 DUP3 ADD SWAP1 POP PUSH2 0x831 PUSH0 DUP4 ADD DUP8 PUSH2 0x64A JUMP JUMPDEST PUSH2 0x83E PUSH1 0x20 DUP4 ADD DUP7 PUSH2 0x659 JUMP JUMPDEST DUP2 DUP2 SUB PUSH1 0x40 DUP4 ADD MSTORE PUSH2 0x850 DUP2 DUP6 PUSH2 0x6C3 JUMP JUMPDEST SWAP1 POP DUP2 DUP2 SUB PUSH1 0x60 DUP4 ADD MSTORE PUSH2 0x864 DUP2 DUP5 PUSH2 0x7DD JUMP JUMPDEST SWAP1 POP SWAP6 SWAP5 POP POP POP POP POP JUMP JUMPDEST PUSH0 DUP2 MLOAD SWAP1 POP PUSH2 0x87D DUP2 PUSH2 0x138 JUMP JUMPDEST SWAP3 SWAP2 POP POP JUMP JUMPDEST PUSH0 PUSH2 0x88D DUP3 PUSH2 0x162 JUMP JUMPDEST SWAP1 POP SWAP2 SWAP1 POP JUMP JUMPDEST PUSH2 0x89D DUP2 PUSH2 0x883 JUMP JUMPDEST DUP2 EQ PUSH2 0x8A7 JUMPI PUSH0 DUP1 REVERT JUMPDEST POP JUMP JUMPDEST PUSH0 DUP2 MLOAD SWAP1 POP PUSH2 0x8B8 DUP2 PUSH2 0x894 JUMP JUMPDEST SWAP3 SWAP2 POP POP JUMP JUMPDEST PUSH0 PUSH2 0x8D0 PUSH2 0x8CB DUP5 PUSH2 0x248 JUMP JUMPDEST PUSH2 0x22E JUMP JUMPDEST SWAP1 POP DUP1 DUP4 DUP3 MSTORE PUSH1 0x20 DUP3 ADD SWAP1 POP PUSH1 0x20 DUP5 MUL DUP4 ADD DUP6 DUP2 GT ISZERO PUSH2 0x8F3 JUMPI PUSH2 0x8F2 PUSH2 0x273 JUMP JUMPDEST JUMPDEST DUP4 JUMPDEST DUP2 DUP2 LT ISZERO PUSH2 0x91C JUMPI DUP1 PUSH2 0x908 DUP9 DUP3 PUSH2 0x86F JUMP JUMPDEST DUP5 MSTORE PUSH1 0x20 DUP5 ADD SWAP4 POP POP PUSH1 0x20 DUP2 ADD SWAP1 POP PUSH2 0x8F5 JUMP JUMPDEST POP POP POP SWAP4 SWAP3 POP POP POP JUMP JUMPDEST PUSH0 DUP3 PUSH1 0x1F DUP4 ADD SLT PUSH2 0x93A JUMPI PUSH2 0x939 PUSH2 0x1BC JUMP JUMPDEST JUMPDEST DUP2 MLOAD PUSH2 0x94A DUP5 DUP3 PUSH1 0x20 DUP7 ADD PUSH2 0x8BE JUMP JUMPDEST SWAP2 POP POP SWAP3 SWAP2 POP POP JUMP JUMPDEST PUSH0 PUSH2 0x965 PUSH2 0x960 DUP5 PUSH2 0x318 JUMP JUMPDEST PUSH2 0x22E JUMP JUMPDEST SWAP1 POP DUP3 DUP2 MSTORE PUSH1 0x20 DUP2 ADD DUP5 DUP5 DUP5 ADD GT ISZERO PUSH2 0x981 JUMPI PUSH2 0x980 PUSH2 0x314 JUMP JUMPDEST JUMPDEST PUSH2 0x98C DUP5 DUP3 DUP6 PUSH2 0x4FF JUMP JUMPDEST POP SWAP4 SWAP3 POP POP POP JUMP JUMPDEST PUSH0 DUP3 PUSH1 0x1F DUP4 ADD SLT PUSH2 0x9A8 JUMPI PUSH2 0x9A7 PUSH2 0x1BC JUMP JUMPDEST JUMPDEST DUP2 MLOAD PUSH2 0x9B8 DUP5 DUP3 PUSH1 0x20 DUP7 ADD PUSH2 0x953 JUMP JUMPDEST SWAP2 POP POP SWAP3 SWAP2 POP POP JUMP JUMPDEST PUSH0 PUSH1 0x40 DUP3 DUP5 SUB SLT ISZERO PUSH2 0x9D6 JUMPI PUSH2 0x9D5 PUSH2 0x30C JUMP JUMPDEST JUMPDEST PUSH2 0x9E0 PUSH1 0x40 PUSH2 0x22E JUMP JUMPDEST SWAP1 POP PUSH0 DUP3 ADD MLOAD PUSH8 0xFFFFFFFFFFFFFFFF DUP2 GT ISZERO PUSH2 0x9FF JUMPI PUSH2 0x9FE PUSH2 0x310 JUMP JUMPDEST JUMPDEST PUSH2 0xA0B DUP5 DUP3 DUP6 ADD PUSH2 0x994 JUMP JUMPDEST PUSH0 DUP4 ADD MSTORE POP PUSH1 0x20 DUP3 ADD MLOAD PUSH8 0xFFFFFFFFFFFFFFFF DUP2 GT ISZERO PUSH2 0xA2E JUMPI PUSH2 0xA2D PUSH2 0x310 JUMP JUMPDEST JUMPDEST PUSH2 0xA3A DUP5 DUP3 DUP6 ADD PUSH2 0x926 JUMP JUMPDEST PUSH1 0x20 DUP4 ADD MSTORE POP SWAP3 SWAP2 POP POP JUMP JUMPDEST PUSH0 DUP1 PUSH0 DUP1 PUSH1 0x80 DUP6 DUP8 SUB SLT ISZERO PUSH2 0xA5E JUMPI PUSH2 0xA5D PUSH2 0x127 JUMP JUMPDEST JUMPDEST PUSH0 PUSH2 0xA6B DUP8 DUP3 DUP9 ADD PUSH2 0x86F JUMP JUMPDEST SWAP5 POP POP PUSH1 0x20 PUSH2 0xA7C DUP8 DUP3 DUP9 ADD PUSH2 0x8AA JUMP JUMPDEST SWAP4 POP POP PUSH1 0x40 DUP6 ADD MLOAD PUSH8 0xFFFFFFFFFFFFFFFF DUP2 GT ISZERO PUSH2 0xA9D JUMPI PUSH2 0xA9C PUSH2 0x12B JUMP JUMPDEST JUMPDEST PUSH2 0xAA9 DUP8 DUP3 DUP9 ADD PUSH2 0x926 JUMP JUMPDEST SWAP3 POP POP PUSH1 0x60 DUP6 ADD MLOAD PUSH8 0xFFFFFFFFFFFFFFFF DUP2 GT ISZERO PUSH2 0xACA JUMPI PUSH2 0xAC9 PUSH2 0x12B JUMP JUMPDEST JUMPDEST PUSH2 0xAD6 DUP8 DUP3 DUP9 ADD PUSH2 0x9C1 JUMP JUMPDEST SWAP2 POP POP SWAP3 SWAP6 SWAP2 SWAP5 POP SWAP3 POP JUMP INVALID LOG2 PUSH5 0x6970667358 0x22 SLT KECCAK256 0x24 0x29 CREATE2 0xB0 SWAP1 PUSH22 0xA89AE80B82A0BA57A208F38FCE50210E72ECAAD05E0 ADDRESS NUMBER MULMOD 0xF9 PUSH5 0x736F6C6343 STOP ADDMOD BYTE STOP CALLER "
				},
				"gasEstimates": {
					"creation": {
						"codeDepositCost": "568000",
						"executionCost": "598",
						"totalCost": "568598"
					},
					"external": {
						"decode(bytes)": "infinite",
						"encode(uint256,address,uint256[],(string,uint256[]))": "infinite"
					}
				},
				"methodIdentifiers": {
					"decode(bytes)": "e5c5e9a3",
					"encode(uint256,address,uint256[],(string,uint256[]))": "b9ff2f08"
				}
			},
			"storageLayout": {
				"storage": [],
				"types": null
			},
			"userdoc": {
				"kind": "user",
				"methods": {},
				"version": 1
			}
		}
	}
}