{
	"data": {
		"bytecode": {
			"linkReferences": {},
			"object": "6080604052348015600e575f80fd5b506040518060200160405280600181525060015f606f81526020019081526020015f205f820151815f01559050506040518060200160405280600281525060015f60de81526020019081526020015f205f820151815f0155905050610599806100765f395ff3fe608060405234801561000f575f80fd5b506004361061004a575f3560e01c8063946644cd1461004e578063b19b876e14610058578063b8dda9c714610088578063df90c8d3146100b8575b5f80fd5b6100566100e8565b005b610072600480360381019061006d91906102d6565b61013f565b60405161007f91906103e1565b60405180910390f35b6100a2600480360381019061009d919061042b565b6101d3565b6040516100af9190610495565b60405180910390f35b6100d260048036038101906100cd919061042b565b610202565b6040516100df91906104bd565b60405180910390f35b5f60015f606f81526020019081526020015f20905061014d815f01819055505f60015f60de81526020019081526020015f206040518060200160405290815f8201548152505090506101bc815f0181815250505050565b606061018a8383808060200260200160405190810160405280939291908181526020018383602002808284375f81840152601f19601f8201169050808301925050505050505061021c565b8282808060200260200160405190810160405280939291908181526020018383602002808284375f81840152601f19601f82011690508083019250505050505050905092915050565b5f602052805f5260405f205f915054906101000a900473ffffffffffffffffffffffffffffffffffffffff1681565b6001602052805f5260405f205f91509050805f0154905081565b5f6001825f81518110610232576102316104d6565b5b60200260200101516102449190610530565b905061029a8260018151811061025d5761025c6104d6565b5b6020026020010181815250505050565b5f80fd5b5f80fd5b5f80fd5b5f80fd5b5f80fd5b5f8083601f84011261029657610295610275565b5b8235905067ffffffffffffffff8111156102b3576102b2610279565b5b6020830191508360208202830111156102cf576102ce61027d565b5b9250929050565b5f80602083850312156102ec576102eb61026d565b5b5f83013567ffffffffffffffff81111561030957610308610271565b5b61031585828601610281565b92509250509250929050565b5f81519050919050565b5f82825260208201905092915050565b5f819050602082019050919050565b5f819050919050565b61035c8161034a565b82525050565b5f61036d8383610353565b60208301905092915050565b5f602082019050919050565b5f61038f82610321565b610399818561032b565b93506103a48361033b565b805f5b838110156103d45781516103bb8882610362565b97506103c683610379565b9250506001810190506103a7565b5085935050505092915050565b5f6020820190508181035f8301526103f98184610385565b905092915050565b61040a8161034a565b8114610414575f80fd5b50565b5f8135905061042581610401565b92915050565b5f602082840312156104405761043f61026d565b5b5f61044d84828501610417565b91505092915050565b5f73ffffffffffffffffffffffffffffffffffffffff82169050919050565b5f61047f82610456565b9050919050565b61048f81610475565b82525050565b5f6020820190506104a85f830184610486565b92915050565b6104b78161034a565b82525050565b5f6020820190506104d05f8301846104ae565b92915050565b7f4e487b71000000000000000000000000000000000000000000000000000000005f52603260045260245ffd5b7f4e487b71000000000000000000000000000000000000000000000000000000005f52601160045260245ffd5b5f61053a8261034a565b91506105458361034a565b925082820190508082111561055d5761055c610503565b5b9291505056fea2646970667358221220327dfaba370dd7d7dc2675b2c9676c20882eff66fba729f32ba61b68fba7d61164736f6c634300081a0033",
			"opcodes": "PUSH1 0x80 PUSH1 0x40 MSTORE CALLVALUE DUP1 ISZERO PUSH1 0xE JUMPI PUSH0 DUP1 REVERT JUMPDEST POP PUSH1 0x40 MLOAD DUP1 PUSH1 0x20 ADD PUSH1 0x40 MSTORE DUP1 PUSH1 0x1 DUP2 MSTORE POP PUSH1 0x1 PUSH0 PUSH1 0x6F DUP2 MSTORE PUSH1 0x20 ADD SWAP1 DUP2 MSTORE PUSH1 0x20 ADD PUSH0 KECCAK256 PUSH0 DUP3 ADD MLOAD DUP2 PUSH0 ADD SSTORE SWAP1 POP POP PUSH1 0x40 MLOAD DUP1 PUSH1 0x20 ADD PUSH1 0x40 MSTORE DUP1 PUSH1 0x2 DUP2 MSTORE POP PUSH1 0x1 PUSH0 PUSH1 0xDE DUP2 MSTORE PUSH1 0x20 ADD SWAP1 DUP2 MSTORE PUSH1 0x20 ADD PUSH0 KECCAK256 PUSH0 DUP3 ADD MLOAD DUP2 PUSH0 ADD SSTORE SWAP1 POP POP PUSH2 0x599 DUP1 PUSH2 0x76 PUSH0 CODECOPY PUSH0 RETURN INVALID PUSH1 0x80 PUSH1 0x40 MSTORE CALLVALUE DUP1 ISZERO PUSH2 0xF JUMPI PUSH0 DUP1 REVERT JUMPDEST POP PUSH1 0x4 CALLDATASIZE LT PUSH2 0x4A JUMPI PUSH0 CALLDATALOAD PUSH1 0xE0 SHR DUP1 PUSH4 0x946644CD EQ PUSH2 0x4E JUMPI DUP1 PUSH4 0xB19B876E EQ PUSH2 0x58 JUMPI DUP1 PUSH4 0xB8DDA9C7 EQ PUSH2 0x88 JUMPI DUP1 PUSH4 0xDF90C8D3 EQ PUSH2 0xB8 JUMPI JUMPDEST PUSH0 DUP1 REVERT JUMPDEST PUSH2 0x56 PUSH2 0xE8 JUMP JUMPDEST STOP JUMPDEST PUSH2 0x72 PUSH1 0x4 DUP1 CALLDATASIZE SUB DUP2 ADD SWAP1 PUSH2 0x6D SWAP2 SWAP1 PUSH2 0x2D6 JUMP JUMPDEST PUSH2 0x13F JUMP JUMPDEST PUSH1 0x40 MLOAD PUSH2 0x7F SWAP2 SWAP1 PUSH2 0x3E1 JUMP JUMPDEST PUSH1 0x40 MLOAD DUP1 SWAP2 SUB SWAP1 RETURN JUMPDEST PUSH2 0xA2 PUSH1 0x4 DUP1 CALLDATASIZE SUB DUP2 ADD SWAP1 PUSH2 0x9D SWAP2 SWAP1 PUSH2 0x42B JUMP JUMPDEST PUSH2 0x1D3 JUMP JUMPDEST PUSH1 0x40 MLOAD PUSH2 0xAF SWAP2 SWAP1 PUSH2 0x495 JUMP JUMPDEST PUSH1 0x40 MLOAD DUP1 SWAP2 SUB SWAP1 RETURN JUMPDEST PUSH2 0xD2 PUSH1 0x4 DUP1 CALLDATASIZE SUB DUP2 ADD SWAP1 PUSH2 0xCD SWAP2 SWAP1 PUSH2 0x42B JUMP JUMPDEST PUSH2 0x202 JUMP JUMPDEST PUSH1 0x40 MLOAD PUSH2 0xDF SWAP2 SWAP1 PUSH2 0x4BD JUMP JUMPDEST PUSH1 0x40 MLOAD DUP1 SWAP2 SUB SWAP1 RETURN JUMPDEST PUSH0 PUSH1 0x1 PUSH0 PUSH1 0x6F DUP2 MSTORE PUSH1 0x20 ADD SWAP1 DUP2 MSTORE PUSH1 0x20 ADD PUSH0 KECCAK256 SWAP1 POP PUSH2 0x14D DUP2 PUSH0 ADD DUP2 SWAP1 SSTORE POP PUSH0 PUSH1 0x1 PUSH0 PUSH1 0xDE DUP2 MSTORE PUSH1 0x20 ADD SWAP1 DUP2 MSTORE PUSH1 0x20 ADD PUSH0 KECCAK256 PUSH1 0x40 MLOAD DUP1 PUSH1 0x20 ADD PUSH1 0x40 MSTORE SWAP1 DUP2 PUSH0 DUP3 ADD SLOAD DUP2 MSTORE POP POP SWAP1 POP PUSH2 0x1BC DUP2 PUSH0 ADD DUP2 DUP2 MSTORE POP POP POP POP JUMP JUMPDEST PUSH1 0x60 PUSH2 0x18A DUP4 DUP4 DUP1 DUP1 PUSH1 0x20 MUL PUSH1 0x20 ADD PUSH1 0x40 MLOAD SWAP1 DUP2 ADD PUSH1 0x40 MSTORE DUP1 SWAP4 SWAP3 SWAP2 SWAP1 DUP2 DUP2 MSTORE PUSH1 0x20 ADD DUP4 DUP4 PUSH1 0x20 MUL DUP1 DUP3 DUP5 CALLDATACOPY PUSH0 DUP2 DUP5 ADD MSTORE PUSH1 0x1F NOT PUSH1 0x1F DUP3 ADD AND SWAP1 POP DUP1 DUP4 ADD SWAP3 POP POP POP POP POP POP POP PUSH2 0x21C JUMP JUMPDEST DUP3 DUP3 DUP1 DUP1 PUSH1 0x20 MUL PUSH1 0x20 ADD PUSH1 0x40 MLOAD SWAP1 DUP2 ADD PUSH1 0x40 MSTORE DUP1 SWAP4 SWAP3 SWAP2 SWAP1 DUP2 DUP2 MSTORE PUSH1 0x20 ADD DUP4 DUP4 PUSH1 0x20 MUL DUP1 DUP3 DUP5 CALLDATACOPY PUSH0 DUP2 DUP5 ADD MSTORE PUSH1 0x1F NOT PUSH1 0x1F DUP3 ADD AND SWAP1 POP DUP1 DUP4 ADD SWAP3 POP POP POP POP POP POP POP SWAP1 POP SWAP3 SWAP2 POP POP JUMP JUMPDEST PUSH0 PUSH1 0x20 MSTORE DUP1 PUSH0 MSTORE PUSH1 0x40 PUSH0 KECCAK256 PUSH0 SWAP2 POP SLOAD SWAP1 PUSH2 0x100 EXP SWAP1 DIV PUSH20 0xFFFFFFFFFFFFFFFFFFFFFFFFFFFFFFFFFFFFFFFF AND DUP2 JUMP JUMPDEST PUSH1 0x1 PUSH1 0x20 MSTORE DUP1 PUSH0 MSTORE PUSH1 0x40 PUSH0 KECCAK256 PUSH0 SWAP2 POP SWAP1 POP DUP1 PUSH0 ADD SLOAD SWAP1 POP DUP2 JUMP JUMPDEST PUSH0 PUSH1 0x1 DUP3 PUSH0 DUP2 MLOAD DUP2 LT PUSH2 0x232 JUMPI PUSH2 0x231 PUSH2 0x4D6 JUMP JUMPDEST JUMPDEST PUSH1 0x20 MUL PUSH1 0x20 ADD ADD MLOAD PUSH2 0x244 SWAP2 SWAP1 PUSH2 0x530 JUMP JUMPDEST SWAP1 POP PUSH2 0x29A DUP3 PUSH1 0x1 DUP2 MLOAD DUP2 LT PUSH2 0x25D JUMPI PUSH2 0x25C PUSH2 0x4D6 JUMP JUMPDEST JUMPDEST PUSH1 0x20 MUL PUSH1 0x20 ADD ADD DUP2 DUP2 MSTORE POP POP POP POP JUMP JUMPDEST PUSH0 DUP1 REVERT JUMPDEST PUSH0 DUP1 REVERT JUMPDEST PUSH0 DUP1 REVERT JUMPDEST PUSH0 DUP1 REVERT JUMPDEST PUSH0 DUP1 REVERT JUMPDEST PUSH0 DUP1 DUP4 PUSH1 0x1F DUP5 ADD SLT PUSH2 0x296 JUMPI PUSH2 0x295 PUSH2 0x275 JUMP JUMPDEST JUMPDEST DUP3 CALLDATALOAD SWAP1 POP PUSH8 0xFFFFFFFFFFFFFFFF DUP2 GT ISZERO PUSH2 0x2B3 JUMPI PUSH2 0x2B2 PUSH2 0x279 JUMP JUMPDEST JUMPDEST PUSH1 0x20 DUP4 ADD SWAP2 POP DUP4 PUSH1 0x20 DUP3 MUL DUP4 ADD GT ISZERO PUSH2 0x2CF JUMPI PUSH2 0x2CE PUSH2 0x27D JUMP JUMPDEST JUMPDEST SWAP3 POP SWAP3 SWAP1 POP JUMP JUMPDEST PUSH0 DUP1 PUSH1 0x20 DUP4 DUP6 SUB SLT ISZERO PUSH2 0x2EC JUMPI PUSH2 0x2EB PUSH2 0x26D JUMP JUMPDEST JUMPDEST PUSH0 DUP4 ADD CALLDATALOAD PUSH8 0xFFFFFFFFFFFFFFFF DUP2 GT ISZERO PUSH2 0x309 JUMPI PUSH2 0x308 PUSH2 0x271 JUMP JUMPDEST JUMPDEST PUSH2 0x315 DUP6 DUP3 DUP7 ADD PUSH2 0x281 JUMP JUMPDEST SWAP3 POP SWAP3 POP POP SWAP3 POP SWAP3 SWAP1 POP JUMP JUMPDEST PUSH0 DUP2 MLOAD SWAP1 POP SWAP2 SWAP1 POP JUMP JUMPDEST PUSH0 DUP3 DUP3 MSTORE PUSH1 0x20 DUP3 ADD SWAP1 POP SWAP3 SWAP2 POP POP JUMP JUMPDEST PUSH0 DUP2 SWAP1 POP PUSH1 0x20 DUP3 ADD SWAP1 POP SWAP2 SWAP1 POP JUMP JUMPDEST PUSH0 DUP2 SWAP1 POP SWAP2 SWAP1 POP JUMP JUMPDEST PUSH2 0x35C DUP2 PUSH2 0x34A JUMP JUMPDEST DUP3 MSTORE POP POP JUMP JUMPDEST PUSH0 PUSH2 0x36D DUP4 DUP4 PUSH2 0x353 JUMP JUMPDEST PUSH1 0x20 DUP4 ADD SWAP1 POP SWAP3 SWAP2 POP POP JUMP JUMPDEST PUSH0 PUSH1 0x20 DUP3 ADD SWAP1 POP SWAP2 SWAP1 POP JUMP JUMPDEST PUSH0 PUSH2 0x38F DUP3 PUSH2 0x321 JUMP JUMPDEST PUSH2 0x399 DUP2 DUP6 PUSH2 0x32B JUMP JUMPDEST SWAP4 POP PUSH2 0x3A4 DUP4 PUSH2 0x33B JUMP JUMPDEST DUP1 PUSH0 JUMPDEST DUP4 DUP2 LT ISZERO PUSH2 0x3D4 JUMPI DUP2 MLOAD PUSH2 0x3BB DUP9 DUP3 PUSH2 0x362 JUMP JUMPDEST SWAP8 POP PUSH2 0x3C6 DUP4 PUSH2 0x379 JUMP JUMPDEST SWAP3 POP POP PUSH1 0x1 DUP2 ADD SWAP1 POP PUSH2 0x3A7 JUMP JUMPDEST POP DUP6 SWAP4 POP POP POP POP SWAP3 SWAP2 POP POP JUMP JUMPDEST PUSH0 PUSH1 0x20 DUP3 ADD SWAP1 POP DUP2 DUP2 SUB PUSH0 DUP4 ADD MSTORE PUSH2 0x3F9 DUP2 DUP5 PUSH2 0x385 JUMP JUMPDEST SWAP1 POP SWAP3 SWAP2 POP POP JUMP JUMPDEST PUSH2 0x40A DUP2 PUSH2 0x34A JUMP JUMPDEST DUP2 EQ PUSH2 0x414 JUMPI PUSH0 DUP1 REVERT JUMPDEST POP JUMP JUMPDEST PUSH0 DUP2 CALLDATALOAD SWAP1 POP PUSH2 0x425 DUP2 PUSH2 0x401 JUMP JUMPDEST SWAP3 SWAP2 POP POP JUMP JUMPDEST PUSH0 PUSH1 0x20 DUP3 DUP5 SUB SLT ISZERO PUSH2 0x440 JUMPI PUSH2 0x43F PUSH2 0x26D JUMP JUMPDEST JUMPDEST PUSH0 PUSH2 0x44D DUP5 DUP3 DUP6 ADD PUSH2 0x417 JUMP JUMPDEST SWAP2 POP POP SWAP3 SWAP2 POP POP JUMP JUMPDEST PUSH0 PUSH20 0xFFFFFFFFFFFFFFFFFFFFFFFFFFFFFFFFFFFFFFFF DUP3 AND SWAP1 POP SWAP2 SWAP1 POP JUMP JUMPDEST PUSH0 PUSH2 0x47F DUP3 PUSH2 0x456 JUMP JUMPDEST SWAP1 POP SWAP2 SWAP1 POP JUMP JUMPDEST PUSH2 0x48F DUP2 PUSH2 0x475 JUMP JUMPDEST DUP3 MSTORE POP POP JUMP JUMPDEST PUSH0 PUSH1 0x20 DUP3 ADD SWAP1 POP PUSH2 0x4A8 PUSH0 DUP4 ADD DUP5 PUSH2 0x486 JUMP JUMPDEST SWAP3 SWAP2 POP POP JUMP JUMPDEST PUSH2 0x4B7 DUP2 PUSH2 0x34A JUMP JUMPDEST DUP3 MSTORE POP POP JUMP JUMPDEST PUSH0 PUSH1 0x20 DUP3 ADD SWAP1 POP PUSH2 0x4D0 PUSH0 DUP4 ADD DUP5 PUSH2 0x4AE JUMP JUMPDEST SWAP3 SWAP2 POP POP JUMP JUMPDEST PUSH32 0x4E487B7100000000000000000000000000000000000000000000000000000000 PUSH0 MSTORE PUSH1 0x32 PUSH1 0x4 MSTORE PUSH1 0x24 PUSH0 REVERT JUMPDEST PUSH32 0x4E487B7100000000000000000000000000000000000000000000000000000000 PUSH0 MSTORE PUSH1 0x11 PUSH1 0x4 MSTORE PUSH1 0x24 PUSH0 REVERT JUMPDEST PUSH0 PUSH2 0x53A DUP3 PUSH2 0x34A JUMP JUMPDEST SWAP2 POP PUSH2 0x545 DUP4 PUSH2 0x34A JUMP JUMPDEST SWAP3 POP DUP3 DUP3 ADD SWAP1 POP DUP1 DUP3 GT ISZERO PUSH2 0x55D JUMPI PUSH2 0x55C PUSH2 0x503 JUMP JUMPDEST JUMPDEST SWAP3 SWAP2 POP POP JUMP INVALID LOG2 PUSH5 0x6970667358 0x22 SLT KECCAK256 ORIGIN PUSH30 0xFABA370DD7D7DC2675B2C9676C20882EFF66FBA729F32BA61B68FBA7D611 PUSH5 0x736F6C6343 STOP ADDMOD BYTE STOP CALLER "
		},
		"gasEstimates": {
			"creation": {
				"codeDepositCost": "286600",
				"executionCost": "44802",
				"totalCost": "331402"
			},
			"external": {
				"callDataFun(uint256[])": "infinite",
				"fun()": "24591",
				"map(uint256)": "2848",
				"myStructs(uint256)": "infinite"
			},
			"internal": {
				"_internal(uint256[] memory)": "infinite"
			}
		},
		"methodIdentifiers": {
			"callDataFun(uint256[])": "b19b876e",
			"fun()": "946644cd",
			"map(uint256)": "b8dda9c7",
			"myStructs(uint256)": "df90c8d3"
		}
	},
	"abi": [
		{
			"inputs": [],
			"stateMutability": "nonpayable",
			"type": "constructor"
		},
		{
			"inputs": [
				{
					"internalType": "uint256[]",
					"name": "arr",
					"type": "uint256[]"
				}
			],
			"name": "callDataFun",
			"outputs": [
				{
					"internalType": "uint256[]",
					"name": "",
					"type": "uint256[]"
				}
			],
			"stateMutability": "nonpayable",
			"type": "function"
		},
		{
			"inputs": [],
			"name": "fun",
			"outputs": [],
			"stateMutability": "nonpayable",
			"type": "function"
		},
		{
			"inputs": [
				{
					"internalType": "uint256",
					"name": "",
					"type": "uint256"
				}
			],
			"name": "map",
			"outputs": [
				{
					"internalType": "address",
					"name": "",
					"type": "address"
				}
			],
			"stateMutability": "view",
			"type": "function"
		},
		{
			"inputs": [
				{
					"internalType": "uint256",
					"name": "",
					"type": "uint256"
				}
			],
			"name": "myStructs",
			"outputs": [
				{
					"internalType": "uint256",
					"name": "foo",
					"type": "uint256"
				}
			],
			"stateMutability": "view",
			"type": "function"
		}
	]
}