{
	"data": {
		"bytecode": {
			"linkReferences": {},
			"object": "608060405234801561000f575f80fd5b50604051612015380380612015833981810160405281019061003191906104a2565b5f825111610074576040517f08c379a000000000000000000000000000000000000000000000000000000000815260040161006b90610556565b60405180910390fd5b5f81118015610084575081518111155b6100c3576040517f08c379a00000000000000000000000000000000000000000000000000000000081526004016100ba906105be565b60405180910390fd5b5f5b82518110156102a5575f8382815181106100e2576100e16105dc565b5b602002602001015190505f73ffffffffffffffffffffffffffffffffffffffff168173ffffffffffffffffffffffffffffffffffffffff160361015a576040517f08c379a000000000000000000000000000000000000000000000000000000000815260040161015190610653565b60405180910390fd5b60015f8273ffffffffffffffffffffffffffffffffffffffff1673ffffffffffffffffffffffffffffffffffffffff1681526020019081526020015f205f9054906101000a900460ff16156101e4576040517f08c379a00000000000000000000000000000000000000000000000000000000081526004016101db906106bb565b60405180910390fd5b5f81908060018154018082558091505060019003905f5260205f20015f9091909190916101000a81548173ffffffffffffffffffffffffffffffffffffffff021916908373ffffffffffffffffffffffffffffffffffffffff1602179055506001805f8373ffffffffffffffffffffffffffffffffffffffff1673ffffffffffffffffffffffffffffffffffffffff1681526020019081526020015f205f6101000a81548160ff0219169083151502179055505080806001019150506100c5565b508060028190555050506106d9565b5f604051905090565b5f80fd5b5f80fd5b5f80fd5b5f601f19601f8301169050919050565b7f4e487b71000000000000000000000000000000000000000000000000000000005f52604160045260245ffd5b61030f826102c9565b810181811067ffffffffffffffff8211171561032e5761032d6102d9565b5b80604052505050565b5f6103406102b4565b905061034c8282610306565b919050565b5f67ffffffffffffffff82111561036b5761036a6102d9565b5b602082029050602081019050919050565b5f80fd5b5f73ffffffffffffffffffffffffffffffffffffffff82169050919050565b5f6103a982610380565b9050919050565b6103b98161039f565b81146103c3575f80fd5b50565b5f815190506103d4816103b0565b92915050565b5f6103ec6103e784610351565b610337565b9050808382526020820190506020840283018581111561040f5761040e61037c565b5b835b81811015610438578061042488826103c6565b845260208401935050602081019050610411565b5050509392505050565b5f82601f830112610456576104556102c5565b5b81516104668482602086016103da565b91505092915050565b5f819050919050565b6104818161046f565b811461048b575f80fd5b50565b5f8151905061049c81610478565b92915050565b5f80604083850312156104b8576104b76102bd565b5b5f83015167ffffffffffffffff8111156104d5576104d46102c1565b5b6104e185828601610442565b92505060206104f28582860161048e565b9150509250929050565b5f82825260208201905092915050565b7f5f6f776e65727320696e76616c696400000000000000000000000000000000005f82015250565b5f610540600f836104fc565b915061054b8261050c565b602082019050919050565b5f6020820190508181035f83015261056d81610534565b9050919050565b7f5f72657175697265644e756d20696e76616c69640000000000000000000000005f82015250565b5f6105a86014836104fc565b91506105b382610574565b602082019050919050565b5f6020820190508181035f8301526105d58161059c565b9050919050565b7f4e487b71000000000000000000000000000000000000000000000000000000005f52603260045260245ffd5b7f6861766520696e76616c6964206f776e657200000000000000000000000000005f82015250565b5f61063d6012836104fc565b915061064882610609565b602082019050919050565b5f6020820190508181035f83015261066a81610631565b9050919050565b7f6f776e65722065786973747300000000000000000000000000000000000000005f82015250565b5f6106a5600c836104fc565b91506106b082610671565b602082019050919050565b5f6020820190508181035f8301526106d281610699565b9050919050565b61192f806106e65f395ff3fe60806040526004361061007e575f3560e01c80639ace38c21161004d5780639ace38c21461019f578063b759f954146101de578063d5d0f21e14610206578063fe0d94c114610230576100d3565b8063025e7c27146100d757806314de327f1461011357806320c5429b1461013b5780632f54bf6e14610163576100d3565b366100d3573373ffffffffffffffffffffffffffffffffffffffff167f67d0e209d76ed24370106b1fd0fc1c82de411f7b72ba3d92736b75fe4add443a346040516100c99190610e23565b60405180910390a2005b5f80fd5b3480156100e2575f80fd5b506100fd60048036038101906100f89190610e77565b610258565b60405161010a9190610ee1565b60405180910390f35b34801561011e575f80fd5b5061013960048036038101906101349190611060565b610292565b005b348015610146575f80fd5b50610161600480360381019061015c9190610e77565b610444565b005b34801561016e575f80fd5b50610189600480360381019061018491906110cc565b6106cc565b6040516101969190611111565b60405180910390f35b3480156101aa575f80fd5b506101c560048036038101906101c09190610e77565b6106e9565b6040516101d5949392919061118a565b60405180910390f35b3480156101e9575f80fd5b5061020460048036038101906101ff9190610e77565b6107d5565b005b348015610211575f80fd5b5061021a610a5f565b6040516102279190610e23565b60405180910390f35b34801561023b575f80fd5b5061025660048036038101906102519190610e77565b610a65565b005b5f8181548110610266575f80fd5b905f5260205f20015f915054906101000a900473ffffffffffffffffffffffffffffffffffffffff1681565b60015f3373ffffffffffffffffffffffffffffffffffffffff1673ffffffffffffffffffffffffffffffffffffffff1681526020019081526020015f205f9054906101000a900460ff1661031b576040517f08c379a00000000000000000000000000000000000000000000000000000000081526004016103129061122e565b60405180910390fd5b600360405180608001604052808573ffffffffffffffffffffffffffffffffffffffff1681526020018481526020018381526020015f1515815250908060018154018082558091505060019003905f5260205f2090600402015f909190919091505f820151815f015f6101000a81548173ffffffffffffffffffffffffffffffffffffffff021916908373ffffffffffffffffffffffffffffffffffffffff1602179055506020820151816001015560408201518160020190816103df9190611446565b506060820151816003015f6101000a81548160ff021916908315150217905550505060016003805490506104139190611542565b7fe1ee5918c9af6faae786abdb0660429c171854f925645943036443d8244269cc60405160405180910390a2505050565b60015f3373ffffffffffffffffffffffffffffffffffffffff1673ffffffffffffffffffffffffffffffffffffffff1681526020019081526020015f205f9054906101000a900460ff166104cd576040517f08c379a00000000000000000000000000000000000000000000000000000000081526004016104c49061122e565b60405180910390fd5b806003805490508110610515576040517f08c379a000000000000000000000000000000000000000000000000000000000815260040161050c906115bf565b60405180910390fd5b8160045f8281526020019081526020015f205f3373ffffffffffffffffffffffffffffffffffffffff1673ffffffffffffffffffffffffffffffffffffffff1681526020019081526020015f205f9054906101000a900460ff166105ae576040517f08c379a00000000000000000000000000000000000000000000000000000000081526004016105a590611627565b60405180910390fd5b82600381815481106105c3576105c2611645565b5b905f5260205f2090600402016003015f9054906101000a900460ff161561061f576040517f08c379a0000000000000000000000000000000000000000000000000000000008152600401610616906116bc565b60405180910390fd5b5f60045f8681526020019081526020015f205f3373ffffffffffffffffffffffffffffffffffffffff1673ffffffffffffffffffffffffffffffffffffffff1681526020019081526020015f205f6101000a81548160ff021916908315150217905550833373ffffffffffffffffffffffffffffffffffffffff167fec9ab91322523c899ede7830ec9bfc992b5981cdcc27b91162fb23de5791117b60405160405180910390a350505050565b6001602052805f5260405f205f915054906101000a900460ff1681565b600381815481106106f8575f80fd5b905f5260205f2090600402015f91509050805f015f9054906101000a900473ffffffffffffffffffffffffffffffffffffffff169080600101549080600201805461074290611279565b80601f016020809104026020016040519081016040528092919081815260200182805461076e90611279565b80156107b95780601f10610790576101008083540402835291602001916107b9565b820191905f5260205f20905b81548152906001019060200180831161079c57829003601f168201915b505050505090806003015f9054906101000a900460ff16905084565b60015f3373ffffffffffffffffffffffffffffffffffffffff1673ffffffffffffffffffffffffffffffffffffffff1681526020019081526020015f205f9054906101000a900460ff1661085e576040517f08c379a00000000000000000000000000000000000000000000000000000000081526004016108559061122e565b60405180910390fd5b8060038054905081106108a6576040517f08c379a000000000000000000000000000000000000000000000000000000000815260040161089d906115bf565b60405180910390fd5b8160045f8281526020019081526020015f205f3373ffffffffffffffffffffffffffffffffffffffff1673ffffffffffffffffffffffffffffffffffffffff1681526020019081526020015f205f9054906101000a900460ff1615610940576040517f08c379a000000000000000000000000000000000000000000000000000000000815260040161093790611724565b60405180910390fd5b826003818154811061095557610954611645565b5b905f5260205f2090600402016003015f9054906101000a900460ff16156109b1576040517f08c379a00000000000000000000000000000000000000000000000000000000081526004016109a8906116bc565b60405180910390fd5b600160045f8681526020019081526020015f205f3373ffffffffffffffffffffffffffffffffffffffff1673ffffffffffffffffffffffffffffffffffffffff1681526020019081526020015f205f6101000a81548160ff021916908315150217905550833373ffffffffffffffffffffffffffffffffffffffff167ff13bfe0b6ec5df39265dccb0a01a09aa4162489c7a083dc6670bde0255d02ca760405160405180910390a350505050565b60025481565b60015f3373ffffffffffffffffffffffffffffffffffffffff1673ffffffffffffffffffffffffffffffffffffffff1681526020019081526020015f205f9054906101000a900460ff16610aee576040517f08c379a0000000000000000000000000000000000000000000000000000000008152600401610ae59061122e565b60405180910390fd5b806003805490508110610b36576040517f08c379a0000000000000000000000000000000000000000000000000000000008152600401610b2d906115bf565b60405180910390fd5b8160038181548110610b4b57610b4a611645565b5b905f5260205f2090600402016003015f9054906101000a900460ff1615610ba7576040517f08c379a0000000000000000000000000000000000000000000000000000000008152600401610b9e906116bc565b60405180910390fd5b600254610bb384610d3a565b1015610bf4576040517f08c379a0000000000000000000000000000000000000000000000000000000008152600401610beb9061178c565b60405180910390fd5b5f60038481548110610c0957610c08611645565b5b905f5260205f20906004020190506001816003015f6101000a81548160ff0219169083151502179055505f815f015f9054906101000a900473ffffffffffffffffffffffffffffffffffffffff1673ffffffffffffffffffffffffffffffffffffffff16826001015483600201604051610c839190611834565b5f6040518083038185875af1925050503d805f8114610cbd576040519150601f19603f3d011682016040523d82523d5f602084013e610cc2565b606091505b5050905080610d06576040517f08c379a0000000000000000000000000000000000000000000000000000000008152600401610cfd90611894565b60405180910390fd5b847fddb556f1d2c1ec821e910b019d3685b229db152a0ecd517ca7e24b8bd713928960405160405180910390a25050505050565b5f805f90505f5b5f80549050811015610e015760045f8581526020019081526020015f205f808381548110610d7257610d71611645565b5b905f5260205f20015f9054906101000a900473ffffffffffffffffffffffffffffffffffffffff1673ffffffffffffffffffffffffffffffffffffffff1673ffffffffffffffffffffffffffffffffffffffff1681526020019081526020015f205f9054906101000a900460ff1615610df4578180610df0906118b2565b9250505b8080600101915050610d41565b5080915050919050565b5f819050919050565b610e1d81610e0b565b82525050565b5f602082019050610e365f830184610e14565b92915050565b5f604051905090565b5f80fd5b5f80fd5b610e5681610e0b565b8114610e60575f80fd5b50565b5f81359050610e7181610e4d565b92915050565b5f60208284031215610e8c57610e8b610e45565b5b5f610e9984828501610e63565b91505092915050565b5f73ffffffffffffffffffffffffffffffffffffffff82169050919050565b5f610ecb82610ea2565b9050919050565b610edb81610ec1565b82525050565b5f602082019050610ef45f830184610ed2565b92915050565b610f0381610ec1565b8114610f0d575f80fd5b50565b5f81359050610f1e81610efa565b92915050565b5f80fd5b5f80fd5b5f601f19601f8301169050919050565b7f4e487b71000000000000000000000000000000000000000000000000000000005f52604160045260245ffd5b610f7282610f2c565b810181811067ffffffffffffffff82111715610f9157610f90610f3c565b5b80604052505050565b5f610fa3610e3c565b9050610faf8282610f69565b919050565b5f67ffffffffffffffff821115610fce57610fcd610f3c565b5b610fd782610f2c565b9050602081019050919050565b828183375f83830152505050565b5f611004610fff84610fb4565b610f9a565b9050828152602081018484840111156110205761101f610f28565b5b61102b848285610fe4565b509392505050565b5f82601f83011261104757611046610f24565b5b8135611057848260208601610ff2565b91505092915050565b5f805f6060848603121561107757611076610e45565b5b5f61108486828701610f10565b935050602061109586828701610e63565b925050604084013567ffffffffffffffff8111156110b6576110b5610e49565b5b6110c286828701611033565b9150509250925092565b5f602082840312156110e1576110e0610e45565b5b5f6110ee84828501610f10565b91505092915050565b5f8115159050919050565b61110b816110f7565b82525050565b5f6020820190506111245f830184611102565b92915050565b5f81519050919050565b5f82825260208201905092915050565b8281835e5f83830152505050565b5f61115c8261112a565b6111668185611134565b9350611176818560208601611144565b61117f81610f2c565b840191505092915050565b5f60808201905061119d5f830187610ed2565b6111aa6020830186610e14565b81810360408301526111bc8185611152565b90506111cb6060830184611102565b95945050505050565b5f82825260208201905092915050565b7f6e6f74206f776e65722c63616e27742063616c6c0000000000000000000000005f82015250565b5f6112186014836111d4565b9150611223826111e4565b602082019050919050565b5f6020820190508181035f8301526112458161120c565b9050919050565b7f4e487b71000000000000000000000000000000000000000000000000000000005f52602260045260245ffd5b5f600282049050600182168061129057607f821691505b6020821081036112a3576112a261124c565b5b50919050565b5f819050815f5260205f209050919050565b5f6020601f8301049050919050565b5f82821b905092915050565b5f600883026113057fffffffffffffffffffffffffffffffffffffffffffffffffffffffffffffffff826112ca565b61130f86836112ca565b95508019841693508086168417925050509392505050565b5f819050919050565b5f61134a61134561134084610e0b565b611327565b610e0b565b9050919050565b5f819050919050565b61136383611330565b61137761136f82611351565b8484546112d6565b825550505050565b5f90565b61138b61137f565b61139681848461135a565b505050565b5b818110156113b9576113ae5f82611383565b60018101905061139c565b5050565b601f8211156113fe576113cf816112a9565b6113d8846112bb565b810160208510156113e7578190505b6113fb6113f3856112bb565b83018261139b565b50505b505050565b5f82821c905092915050565b5f61141e5f1984600802611403565b1980831691505092915050565b5f611436838361140f565b9150826002028217905092915050565b61144f8261112a565b67ffffffffffffffff81111561146857611467610f3c565b5b6114728254611279565b61147d8282856113bd565b5f60209050601f8311600181146114ae575f841561149c578287015190505b6114a6858261142b565b86555061150d565b601f1984166114bc866112a9565b5f5b828110156114e3578489015182556001820191506020850194506020810190506114be565b8683101561150057848901516114fc601f89168261140f565b8355505b6001600288020188555050505b505050505050565b7f4e487b71000000000000000000000000000000000000000000000000000000005f52601160045260245ffd5b5f61154c82610e0b565b915061155783610e0b565b925082820390508181111561156f5761156e611515565b5b92915050565b7f7478206e6f7420657869737473000000000000000000000000000000000000005f82015250565b5f6115a9600d836111d4565b91506115b482611575565b602082019050919050565b5f6020820190508181035f8301526115d68161159d565b9050919050565b7f7478206973206e6f7420617070726f76656400000000000000000000000000005f82015250565b5f6116116012836111d4565b915061161c826115dd565b602082019050919050565b5f6020820190508181035f83015261163e81611605565b9050919050565b7f4e487b71000000000000000000000000000000000000000000000000000000005f52603260045260245ffd5b7f74782069734578636563757465642100000000000000000000000000000000005f82015250565b5f6116a6600f836111d4565b91506116b182611672565b602082019050919050565b5f6020820190508181035f8301526116d38161169a565b9050919050565b7f747820616c726561647920617070726f766564000000000000000000000000005f82015250565b5f61170e6013836111d4565b9150611719826116da565b602082019050919050565b5f6020820190508181035f83015261173b81611702565b9050919050565b7f617070726f766573203c2072657175697265644e756d000000000000000000005f82015250565b5f6117766016836111d4565b915061178182611742565b602082019050919050565b5f6020820190508181035f8301526117a38161176a565b9050919050565b5f81905092915050565b5f81546117c081611279565b6117ca81866117aa565b9450600182165f81146117e457600181146117f95761182b565b60ff198316865281151582028601935061182b565b611802856112a9565b5f5b8381101561182357815481890152600182019150602081019050611804565b838801955050505b50505092915050565b5f61183f82846117b4565b915081905092915050565b7f74782063616c6c206661696c00000000000000000000000000000000000000005f82015250565b5f61187e600c836111d4565b91506118898261184a565b602082019050919050565b5f6020820190508181035f8301526118ab81611872565b9050919050565b5f6118bc82610e0b565b91507fffffffffffffffffffffffffffffffffffffffffffffffffffffffffffffffff82036118ee576118ed611515565b5b60018201905091905056fea2646970667358221220751eb3d8cab42209be9138b73c1040a8b5ea4bc79dd35aa57b57ce6bbc543c0a64736f6c634300081a0033",
			"opcodes": "PUSH1 0x80 PUSH1 0x40 MSTORE CALLVALUE DUP1 ISZERO PUSH2 0xF JUMPI PUSH0 DUP1 REVERT JUMPDEST POP PUSH1 0x40 MLOAD PUSH2 0x2015 CODESIZE SUB DUP1 PUSH2 0x2015 DUP4 CODECOPY DUP2 DUP2 ADD PUSH1 0x40 MSTORE DUP2 ADD SWAP1 PUSH2 0x31 SWAP2 SWAP1 PUSH2 0x4A2 JUMP JUMPDEST PUSH0 DUP3 MLOAD GT PUSH2 0x74 JUMPI PUSH1 0x40 MLOAD PUSH32 0x8C379A000000000000000000000000000000000000000000000000000000000 DUP2 MSTORE PUSH1 0x4 ADD PUSH2 0x6B SWAP1 PUSH2 0x556 JUMP JUMPDEST PUSH1 0x40 MLOAD DUP1 SWAP2 SUB SWAP1 REVERT JUMPDEST PUSH0 DUP2 GT DUP1 ISZERO PUSH2 0x84 JUMPI POP DUP2 MLOAD DUP2 GT ISZERO JUMPDEST PUSH2 0xC3 JUMPI PUSH1 0x40 MLOAD PUSH32 0x8C379A000000000000000000000000000000000000000000000000000000000 DUP2 MSTORE PUSH1 0x4 ADD PUSH2 0xBA SWAP1 PUSH2 0x5BE JUMP JUMPDEST PUSH1 0x40 MLOAD DUP1 SWAP2 SUB SWAP1 REVERT JUMPDEST PUSH0 JUMPDEST DUP3 MLOAD DUP2 LT ISZERO PUSH2 0x2A5 JUMPI PUSH0 DUP4 DUP3 DUP2 MLOAD DUP2 LT PUSH2 0xE2 JUMPI PUSH2 0xE1 PUSH2 0x5DC JUMP JUMPDEST JUMPDEST PUSH1 0x20 MUL PUSH1 0x20 ADD ADD MLOAD SWAP1 POP PUSH0 PUSH20 0xFFFFFFFFFFFFFFFFFFFFFFFFFFFFFFFFFFFFFFFF AND DUP2 PUSH20 0xFFFFFFFFFFFFFFFFFFFFFFFFFFFFFFFFFFFFFFFF AND SUB PUSH2 0x15A JUMPI PUSH1 0x40 MLOAD PUSH32 0x8C379A000000000000000000000000000000000000000000000000000000000 DUP2 MSTORE PUSH1 0x4 ADD PUSH2 0x151 SWAP1 PUSH2 0x653 JUMP JUMPDEST PUSH1 0x40 MLOAD DUP1 SWAP2 SUB SWAP1 REVERT JUMPDEST PUSH1 0x1 PUSH0 DUP3 PUSH20 0xFFFFFFFFFFFFFFFFFFFFFFFFFFFFFFFFFFFFFFFF AND PUSH20 0xFFFFFFFFFFFFFFFFFFFFFFFFFFFFFFFFFFFFFFFF AND DUP2 MSTORE PUSH1 0x20 ADD SWAP1 DUP2 MSTORE PUSH1 0x20 ADD PUSH0 KECCAK256 PUSH0 SWAP1 SLOAD SWAP1 PUSH2 0x100 EXP SWAP1 DIV PUSH1 0xFF AND ISZERO PUSH2 0x1E4 JUMPI PUSH1 0x40 MLOAD PUSH32 0x8C379A000000000000000000000000000000000000000000000000000000000 DUP2 MSTORE PUSH1 0x4 ADD PUSH2 0x1DB SWAP1 PUSH2 0x6BB JUMP JUMPDEST PUSH1 0x40 MLOAD DUP1 SWAP2 SUB SWAP1 REVERT JUMPDEST PUSH0 DUP2 SWAP1 DUP1 PUSH1 0x1 DUP2 SLOAD ADD DUP1 DUP3 SSTORE DUP1 SWAP2 POP POP PUSH1 0x1 SWAP1 SUB SWAP1 PUSH0 MSTORE PUSH1 0x20 PUSH0 KECCAK256 ADD PUSH0 SWAP1 SWAP2 SWAP1 SWAP2 SWAP1 SWAP2 PUSH2 0x100 EXP DUP2 SLOAD DUP2 PUSH20 0xFFFFFFFFFFFFFFFFFFFFFFFFFFFFFFFFFFFFFFFF MUL NOT AND SWAP1 DUP4 PUSH20 0xFFFFFFFFFFFFFFFFFFFFFFFFFFFFFFFFFFFFFFFF AND MUL OR SWAP1 SSTORE POP PUSH1 0x1 DUP1 PUSH0 DUP4 PUSH20 0xFFFFFFFFFFFFFFFFFFFFFFFFFFFFFFFFFFFFFFFF AND PUSH20 0xFFFFFFFFFFFFFFFFFFFFFFFFFFFFFFFFFFFFFFFF AND DUP2 MSTORE PUSH1 0x20 ADD SWAP1 DUP2 MSTORE PUSH1 0x20 ADD PUSH0 KECCAK256 PUSH0 PUSH2 0x100 EXP DUP2 SLOAD DUP2 PUSH1 0xFF MUL NOT AND SWAP1 DUP4 ISZERO ISZERO MUL OR SWAP1 SSTORE POP POP DUP1 DUP1 PUSH1 0x1 ADD SWAP2 POP POP PUSH2 0xC5 JUMP JUMPDEST POP DUP1 PUSH1 0x2 DUP2 SWAP1 SSTORE POP POP POP PUSH2 0x6D9 JUMP JUMPDEST PUSH0 PUSH1 0x40 MLOAD SWAP1 POP SWAP1 JUMP JUMPDEST PUSH0 DUP1 REVERT JUMPDEST PUSH0 DUP1 REVERT JUMPDEST PUSH0 DUP1 REVERT JUMPDEST PUSH0 PUSH1 0x1F NOT PUSH1 0x1F DUP4 ADD AND SWAP1 POP SWAP2 SWAP1 POP JUMP JUMPDEST PUSH32 0x4E487B7100000000000000000000000000000000000000000000000000000000 PUSH0 MSTORE PUSH1 0x41 PUSH1 0x4 MSTORE PUSH1 0x24 PUSH0 REVERT JUMPDEST PUSH2 0x30F DUP3 PUSH2 0x2C9 JUMP JUMPDEST DUP2 ADD DUP2 DUP2 LT PUSH8 0xFFFFFFFFFFFFFFFF DUP3 GT OR ISZERO PUSH2 0x32E JUMPI PUSH2 0x32D PUSH2 0x2D9 JUMP JUMPDEST JUMPDEST DUP1 PUSH1 0x40 MSTORE POP POP POP JUMP JUMPDEST PUSH0 PUSH2 0x340 PUSH2 0x2B4 JUMP JUMPDEST SWAP1 POP PUSH2 0x34C DUP3 DUP3 PUSH2 0x306 JUMP JUMPDEST SWAP2 SWAP1 POP JUMP JUMPDEST PUSH0 PUSH8 0xFFFFFFFFFFFFFFFF DUP3 GT ISZERO PUSH2 0x36B JUMPI PUSH2 0x36A PUSH2 0x2D9 JUMP JUMPDEST JUMPDEST PUSH1 0x20 DUP3 MUL SWAP1 POP PUSH1 0x20 DUP2 ADD SWAP1 POP SWAP2 SWAP1 POP JUMP JUMPDEST PUSH0 DUP1 REVERT JUMPDEST PUSH0 PUSH20 0xFFFFFFFFFFFFFFFFFFFFFFFFFFFFFFFFFFFFFFFF DUP3 AND SWAP1 POP SWAP2 SWAP1 POP JUMP JUMPDEST PUSH0 PUSH2 0x3A9 DUP3 PUSH2 0x380 JUMP JUMPDEST SWAP1 POP SWAP2 SWAP1 POP JUMP JUMPDEST PUSH2 0x3B9 DUP2 PUSH2 0x39F JUMP JUMPDEST DUP2 EQ PUSH2 0x3C3 JUMPI PUSH0 DUP1 REVERT JUMPDEST POP JUMP JUMPDEST PUSH0 DUP2 MLOAD SWAP1 POP PUSH2 0x3D4 DUP2 PUSH2 0x3B0 JUMP JUMPDEST SWAP3 SWAP2 POP POP JUMP JUMPDEST PUSH0 PUSH2 0x3EC PUSH2 0x3E7 DUP5 PUSH2 0x351 JUMP JUMPDEST PUSH2 0x337 JUMP JUMPDEST SWAP1 POP DUP1 DUP4 DUP3 MSTORE PUSH1 0x20 DUP3 ADD SWAP1 POP PUSH1 0x20 DUP5 MUL DUP4 ADD DUP6 DUP2 GT ISZERO PUSH2 0x40F JUMPI PUSH2 0x40E PUSH2 0x37C JUMP JUMPDEST JUMPDEST DUP4 JUMPDEST DUP2 DUP2 LT ISZERO PUSH2 0x438 JUMPI DUP1 PUSH2 0x424 DUP9 DUP3 PUSH2 0x3C6 JUMP JUMPDEST DUP5 MSTORE PUSH1 0x20 DUP5 ADD SWAP4 POP POP PUSH1 0x20 DUP2 ADD SWAP1 POP PUSH2 0x411 JUMP JUMPDEST POP POP POP SWAP4 SWAP3 POP POP POP JUMP JUMPDEST PUSH0 DUP3 PUSH1 0x1F DUP4 ADD SLT PUSH2 0x456 JUMPI PUSH2 0x455 PUSH2 0x2C5 JUMP JUMPDEST JUMPDEST DUP2 MLOAD PUSH2 0x466 DUP5 DUP3 PUSH1 0x20 DUP7 ADD PUSH2 0x3DA JUMP JUMPDEST SWAP2 POP POP SWAP3 SWAP2 POP POP JUMP JUMPDEST PUSH0 DUP2 SWAP1 POP SWAP2 SWAP1 POP JUMP JUMPDEST PUSH2 0x481 DUP2 PUSH2 0x46F JUMP JUMPDEST DUP2 EQ PUSH2 0x48B JUMPI PUSH0 DUP1 REVERT JUMPDEST POP JUMP JUMPDEST PUSH0 DUP2 MLOAD SWAP1 POP PUSH2 0x49C DUP2 PUSH2 0x478 JUMP JUMPDEST SWAP3 SWAP2 POP POP JUMP JUMPDEST PUSH0 DUP1 PUSH1 0x40 DUP4 DUP6 SUB SLT ISZERO PUSH2 0x4B8 JUMPI PUSH2 0x4B7 PUSH2 0x2BD JUMP JUMPDEST JUMPDEST PUSH0 DUP4 ADD MLOAD PUSH8 0xFFFFFFFFFFFFFFFF DUP2 GT ISZERO PUSH2 0x4D5 JUMPI PUSH2 0x4D4 PUSH2 0x2C1 JUMP JUMPDEST JUMPDEST PUSH2 0x4E1 DUP6 DUP3 DUP7 ADD PUSH2 0x442 JUMP JUMPDEST SWAP3 POP POP PUSH1 0x20 PUSH2 0x4F2 DUP6 DUP3 DUP7 ADD PUSH2 0x48E JUMP JUMPDEST SWAP2 POP POP SWAP3 POP SWAP3 SWAP1 POP JUMP JUMPDEST PUSH0 DUP3 DUP3 MSTORE PUSH1 0x20 DUP3 ADD SWAP1 POP SWAP3 SWAP2 POP POP JUMP JUMPDEST PUSH32 0x5F6F776E65727320696E76616C69640000000000000000000000000000000000 PUSH0 DUP3 ADD MSTORE POP JUMP JUMPDEST PUSH0 PUSH2 0x540 PUSH1 0xF DUP4 PUSH2 0x4FC JUMP JUMPDEST SWAP2 POP PUSH2 0x54B DUP3 PUSH2 0x50C JUMP JUMPDEST PUSH1 0x20 DUP3 ADD SWAP1 POP SWAP2 SWAP1 POP JUMP JUMPDEST PUSH0 PUSH1 0x20 DUP3 ADD SWAP1 POP DUP2 DUP2 SUB PUSH0 DUP4 ADD MSTORE PUSH2 0x56D DUP2 PUSH2 0x534 JUMP JUMPDEST SWAP1 POP SWAP2 SWAP1 POP JUMP JUMPDEST PUSH32 0x5F72657175697265644E756D20696E76616C6964000000000000000000000000 PUSH0 DUP3 ADD MSTORE POP JUMP JUMPDEST PUSH0 PUSH2 0x5A8 PUSH1 0x14 DUP4 PUSH2 0x4FC JUMP JUMPDEST SWAP2 POP PUSH2 0x5B3 DUP3 PUSH2 0x574 JUMP JUMPDEST PUSH1 0x20 DUP3 ADD SWAP1 POP SWAP2 SWAP1 POP JUMP JUMPDEST PUSH0 PUSH1 0x20 DUP3 ADD SWAP1 POP DUP2 DUP2 SUB PUSH0 DUP4 ADD MSTORE PUSH2 0x5D5 DUP2 PUSH2 0x59C JUMP JUMPDEST SWAP1 POP SWAP2 SWAP1 POP JUMP JUMPDEST PUSH32 0x4E487B7100000000000000000000000000000000000000000000000000000000 PUSH0 MSTORE PUSH1 0x32 PUSH1 0x4 MSTORE PUSH1 0x24 PUSH0 REVERT JUMPDEST PUSH32 0x6861766520696E76616C6964206F776E65720000000000000000000000000000 PUSH0 DUP3 ADD MSTORE POP JUMP JUMPDEST PUSH0 PUSH2 0x63D PUSH1 0x12 DUP4 PUSH2 0x4FC JUMP JUMPDEST SWAP2 POP PUSH2 0x648 DUP3 PUSH2 0x609 JUMP JUMPDEST PUSH1 0x20 DUP3 ADD SWAP1 POP SWAP2 SWAP1 POP JUMP JUMPDEST PUSH0 PUSH1 0x20 DUP3 ADD SWAP1 POP DUP2 DUP2 SUB PUSH0 DUP4 ADD MSTORE PUSH2 0x66A DUP2 PUSH2 0x631 JUMP JUMPDEST SWAP1 POP SWAP2 SWAP1 POP JUMP JUMPDEST PUSH32 0x6F776E6572206578697374730000000000000000000000000000000000000000 PUSH0 DUP3 ADD MSTORE POP JUMP JUMPDEST PUSH0 PUSH2 0x6A5 PUSH1 0xC DUP4 PUSH2 0x4FC JUMP JUMPDEST SWAP2 POP PUSH2 0x6B0 DUP3 PUSH2 0x671 JUMP JUMPDEST PUSH1 0x20 DUP3 ADD SWAP1 POP SWAP2 SWAP1 POP JUMP JUMPDEST PUSH0 PUSH1 0x20 DUP3 ADD SWAP1 POP DUP2 DUP2 SUB PUSH0 DUP4 ADD MSTORE PUSH2 0x6D2 DUP2 PUSH2 0x699 JUMP JUMPDEST SWAP1 POP SWAP2 SWAP1 POP JUMP JUMPDEST PUSH2 0x192F DUP1 PUSH2 0x6E6 PUSH0 CODECOPY PUSH0 RETURN INVALID PUSH1 0x80 PUSH1 0x40 MSTORE PUSH1 0x4 CALLDATASIZE LT PUSH2 0x7E JUMPI PUSH0 CALLDATALOAD PUSH1 0xE0 SHR DUP1 PUSH4 0x9ACE38C2 GT PUSH2 0x4D JUMPI DUP1 PUSH4 0x9ACE38C2 EQ PUSH2 0x19F JUMPI DUP1 PUSH4 0xB759F954 EQ PUSH2 0x1DE JUMPI DUP1 PUSH4 0xD5D0F21E EQ PUSH2 0x206 JUMPI DUP1 PUSH4 0xFE0D94C1 EQ PUSH2 0x230 JUMPI PUSH2 0xD3 JUMP JUMPDEST DUP1 PUSH4 0x25E7C27 EQ PUSH2 0xD7 JUMPI DUP1 PUSH4 0x14DE327F EQ PUSH2 0x113 JUMPI DUP1 PUSH4 0x20C5429B EQ PUSH2 0x13B JUMPI DUP1 PUSH4 0x2F54BF6E EQ PUSH2 0x163 JUMPI PUSH2 0xD3 JUMP JUMPDEST CALLDATASIZE PUSH2 0xD3 JUMPI CALLER PUSH20 0xFFFFFFFFFFFFFFFFFFFFFFFFFFFFFFFFFFFFFFFF AND PUSH32 0x67D0E209D76ED24370106B1FD0FC1C82DE411F7B72BA3D92736B75FE4ADD443A CALLVALUE PUSH1 0x40 MLOAD PUSH2 0xC9 SWAP2 SWAP1 PUSH2 0xE23 JUMP JUMPDEST PUSH1 0x40 MLOAD DUP1 SWAP2 SUB SWAP1 LOG2 STOP JUMPDEST PUSH0 DUP1 REVERT JUMPDEST CALLVALUE DUP1 ISZERO PUSH2 0xE2 JUMPI PUSH0 DUP1 REVERT JUMPDEST POP PUSH2 0xFD PUSH1 0x4 DUP1 CALLDATASIZE SUB DUP2 ADD SWAP1 PUSH2 0xF8 SWAP2 SWAP1 PUSH2 0xE77 JUMP JUMPDEST PUSH2 0x258 JUMP JUMPDEST PUSH1 0x40 MLOAD PUSH2 0x10A SWAP2 SWAP1 PUSH2 0xEE1 JUMP JUMPDEST PUSH1 0x40 MLOAD DUP1 SWAP2 SUB SWAP1 RETURN JUMPDEST CALLVALUE DUP1 ISZERO PUSH2 0x11E JUMPI PUSH0 DUP1 REVERT JUMPDEST POP PUSH2 0x139 PUSH1 0x4 DUP1 CALLDATASIZE SUB DUP2 ADD SWAP1 PUSH2 0x134 SWAP2 SWAP1 PUSH2 0x1060 JUMP JUMPDEST PUSH2 0x292 JUMP JUMPDEST STOP JUMPDEST CALLVALUE DUP1 ISZERO PUSH2 0x146 JUMPI PUSH0 DUP1 REVERT JUMPDEST POP PUSH2 0x161 PUSH1 0x4 DUP1 CALLDATASIZE SUB DUP2 ADD SWAP1 PUSH2 0x15C SWAP2 SWAP1 PUSH2 0xE77 JUMP JUMPDEST PUSH2 0x444 JUMP JUMPDEST STOP JUMPDEST CALLVALUE DUP1 ISZERO PUSH2 0x16E JUMPI PUSH0 DUP1 REVERT JUMPDEST POP PUSH2 0x189 PUSH1 0x4 DUP1 CALLDATASIZE SUB DUP2 ADD SWAP1 PUSH2 0x184 SWAP2 SWAP1 PUSH2 0x10CC JUMP JUMPDEST PUSH2 0x6CC JUMP JUMPDEST PUSH1 0x40 MLOAD PUSH2 0x196 SWAP2 SWAP1 PUSH2 0x1111 JUMP JUMPDEST PUSH1 0x40 MLOAD DUP1 SWAP2 SUB SWAP1 RETURN JUMPDEST CALLVALUE DUP1 ISZERO PUSH2 0x1AA JUMPI PUSH0 DUP1 REVERT JUMPDEST POP PUSH2 0x1C5 PUSH1 0x4 DUP1 CALLDATASIZE SUB DUP2 ADD SWAP1 PUSH2 0x1C0 SWAP2 SWAP1 PUSH2 0xE77 JUMP JUMPDEST PUSH2 0x6E9 JUMP JUMPDEST PUSH1 0x40 MLOAD PUSH2 0x1D5 SWAP5 SWAP4 SWAP3 SWAP2 SWAP1 PUSH2 0x118A JUMP JUMPDEST PUSH1 0x40 MLOAD DUP1 SWAP2 SUB SWAP1 RETURN JUMPDEST CALLVALUE DUP1 ISZERO PUSH2 0x1E9 JUMPI PUSH0 DUP1 REVERT JUMPDEST POP PUSH2 0x204 PUSH1 0x4 DUP1 CALLDATASIZE SUB DUP2 ADD SWAP1 PUSH2 0x1FF SWAP2 SWAP1 PUSH2 0xE77 JUMP JUMPDEST PUSH2 0x7D5 JUMP JUMPDEST STOP JUMPDEST CALLVALUE DUP1 ISZERO PUSH2 0x211 JUMPI PUSH0 DUP1 REVERT JUMPDEST POP PUSH2 0x21A PUSH2 0xA5F JUMP JUMPDEST PUSH1 0x40 MLOAD PUSH2 0x227 SWAP2 SWAP1 PUSH2 0xE23 JUMP JUMPDEST PUSH1 0x40 MLOAD DUP1 SWAP2 SUB SWAP1 RETURN JUMPDEST CALLVALUE DUP1 ISZERO PUSH2 0x23B JUMPI PUSH0 DUP1 REVERT JUMPDEST POP PUSH2 0x256 PUSH1 0x4 DUP1 CALLDATASIZE SUB DUP2 ADD SWAP1 PUSH2 0x251 SWAP2 SWAP1 PUSH2 0xE77 JUMP JUMPDEST PUSH2 0xA65 JUMP JUMPDEST STOP JUMPDEST PUSH0 DUP2 DUP2 SLOAD DUP2 LT PUSH2 0x266 JUMPI PUSH0 DUP1 REVERT JUMPDEST SWAP1 PUSH0 MSTORE PUSH1 0x20 PUSH0 KECCAK256 ADD PUSH0 SWAP2 POP SLOAD SWAP1 PUSH2 0x100 EXP SWAP1 DIV PUSH20 0xFFFFFFFFFFFFFFFFFFFFFFFFFFFFFFFFFFFFFFFF AND DUP2 JUMP JUMPDEST PUSH1 0x1 PUSH0 CALLER PUSH20 0xFFFFFFFFFFFFFFFFFFFFFFFFFFFFFFFFFFFFFFFF AND PUSH20 0xFFFFFFFFFFFFFFFFFFFFFFFFFFFFFFFFFFFFFFFF AND DUP2 MSTORE PUSH1 0x20 ADD SWAP1 DUP2 MSTORE PUSH1 0x20 ADD PUSH0 KECCAK256 PUSH0 SWAP1 SLOAD SWAP1 PUSH2 0x100 EXP SWAP1 DIV PUSH1 0xFF AND PUSH2 0x31B JUMPI PUSH1 0x40 MLOAD PUSH32 0x8C379A000000000000000000000000000000000000000000000000000000000 DUP2 MSTORE PUSH1 0x4 ADD PUSH2 0x312 SWAP1 PUSH2 0x122E JUMP JUMPDEST PUSH1 0x40 MLOAD DUP1 SWAP2 SUB SWAP1 REVERT JUMPDEST PUSH1 0x3 PUSH1 0x40 MLOAD DUP1 PUSH1 0x80 ADD PUSH1 0x40 MSTORE DUP1 DUP6 PUSH20 0xFFFFFFFFFFFFFFFFFFFFFFFFFFFFFFFFFFFFFFFF AND DUP2 MSTORE PUSH1 0x20 ADD DUP5 DUP2 MSTORE PUSH1 0x20 ADD DUP4 DUP2 MSTORE PUSH1 0x20 ADD PUSH0 ISZERO ISZERO DUP2 MSTORE POP SWAP1 DUP1 PUSH1 0x1 DUP2 SLOAD ADD DUP1 DUP3 SSTORE DUP1 SWAP2 POP POP PUSH1 0x1 SWAP1 SUB SWAP1 PUSH0 MSTORE PUSH1 0x20 PUSH0 KECCAK256 SWAP1 PUSH1 0x4 MUL ADD PUSH0 SWAP1 SWAP2 SWAP1 SWAP2 SWAP1 SWAP2 POP PUSH0 DUP3 ADD MLOAD DUP2 PUSH0 ADD PUSH0 PUSH2 0x100 EXP DUP2 SLOAD DUP2 PUSH20 0xFFFFFFFFFFFFFFFFFFFFFFFFFFFFFFFFFFFFFFFF MUL NOT AND SWAP1 DUP4 PUSH20 0xFFFFFFFFFFFFFFFFFFFFFFFFFFFFFFFFFFFFFFFF AND MUL OR SWAP1 SSTORE POP PUSH1 0x20 DUP3 ADD MLOAD DUP2 PUSH1 0x1 ADD SSTORE PUSH1 0x40 DUP3 ADD MLOAD DUP2 PUSH1 0x2 ADD SWAP1 DUP2 PUSH2 0x3DF SWAP2 SWAP1 PUSH2 0x1446 JUMP JUMPDEST POP PUSH1 0x60 DUP3 ADD MLOAD DUP2 PUSH1 0x3 ADD PUSH0 PUSH2 0x100 EXP DUP2 SLOAD DUP2 PUSH1 0xFF MUL NOT AND SWAP1 DUP4 ISZERO ISZERO MUL OR SWAP1 SSTORE POP POP POP PUSH1 0x1 PUSH1 0x3 DUP1 SLOAD SWAP1 POP PUSH2 0x413 SWAP2 SWAP1 PUSH2 0x1542 JUMP JUMPDEST PUSH32 0xE1EE5918C9AF6FAAE786ABDB0660429C171854F925645943036443D8244269CC PUSH1 0x40 MLOAD PUSH1 0x40 MLOAD DUP1 SWAP2 SUB SWAP1 LOG2 POP POP POP JUMP JUMPDEST PUSH1 0x1 PUSH0 CALLER PUSH20 0xFFFFFFFFFFFFFFFFFFFFFFFFFFFFFFFFFFFFFFFF AND PUSH20 0xFFFFFFFFFFFFFFFFFFFFFFFFFFFFFFFFFFFFFFFF AND DUP2 MSTORE PUSH1 0x20 ADD SWAP1 DUP2 MSTORE PUSH1 0x20 ADD PUSH0 KECCAK256 PUSH0 SWAP1 SLOAD SWAP1 PUSH2 0x100 EXP SWAP1 DIV PUSH1 0xFF AND PUSH2 0x4CD JUMPI PUSH1 0x40 MLOAD PUSH32 0x8C379A000000000000000000000000000000000000000000000000000000000 DUP2 MSTORE PUSH1 0x4 ADD PUSH2 0x4C4 SWAP1 PUSH2 0x122E JUMP JUMPDEST PUSH1 0x40 MLOAD DUP1 SWAP2 SUB SWAP1 REVERT JUMPDEST DUP1 PUSH1 0x3 DUP1 SLOAD SWAP1 POP DUP2 LT PUSH2 0x515 JUMPI PUSH1 0x40 MLOAD PUSH32 0x8C379A000000000000000000000000000000000000000000000000000000000 DUP2 MSTORE PUSH1 0x4 ADD PUSH2 0x50C SWAP1 PUSH2 0x15BF JUMP JUMPDEST PUSH1 0x40 MLOAD DUP1 SWAP2 SUB SWAP1 REVERT JUMPDEST DUP2 PUSH1 0x4 PUSH0 DUP3 DUP2 MSTORE PUSH1 0x20 ADD SWAP1 DUP2 MSTORE PUSH1 0x20 ADD PUSH0 KECCAK256 PUSH0 CALLER PUSH20 0xFFFFFFFFFFFFFFFFFFFFFFFFFFFFFFFFFFFFFFFF AND PUSH20 0xFFFFFFFFFFFFFFFFFFFFFFFFFFFFFFFFFFFFFFFF AND DUP2 MSTORE PUSH1 0x20 ADD SWAP1 DUP2 MSTORE PUSH1 0x20 ADD PUSH0 KECCAK256 PUSH0 SWAP1 SLOAD SWAP1 PUSH2 0x100 EXP SWAP1 DIV PUSH1 0xFF AND PUSH2 0x5AE JUMPI PUSH1 0x40 MLOAD PUSH32 0x8C379A000000000000000000000000000000000000000000000000000000000 DUP2 MSTORE PUSH1 0x4 ADD PUSH2 0x5A5 SWAP1 PUSH2 0x1627 JUMP JUMPDEST PUSH1 0x40 MLOAD DUP1 SWAP2 SUB SWAP1 REVERT JUMPDEST DUP3 PUSH1 0x3 DUP2 DUP2 SLOAD DUP2 LT PUSH2 0x5C3 JUMPI PUSH2 0x5C2 PUSH2 0x1645 JUMP JUMPDEST JUMPDEST SWAP1 PUSH0 MSTORE PUSH1 0x20 PUSH0 KECCAK256 SWAP1 PUSH1 0x4 MUL ADD PUSH1 0x3 ADD PUSH0 SWAP1 SLOAD SWAP1 PUSH2 0x100 EXP SWAP1 DIV PUSH1 0xFF AND ISZERO PUSH2 0x61F JUMPI PUSH1 0x40 MLOAD PUSH32 0x8C379A000000000000000000000000000000000000000000000000000000000 DUP2 MSTORE PUSH1 0x4 ADD PUSH2 0x616 SWAP1 PUSH2 0x16BC JUMP JUMPDEST PUSH1 0x40 MLOAD DUP1 SWAP2 SUB SWAP1 REVERT JUMPDEST PUSH0 PUSH1 0x4 PUSH0 DUP7 DUP2 MSTORE PUSH1 0x20 ADD SWAP1 DUP2 MSTORE PUSH1 0x20 ADD PUSH0 KECCAK256 PUSH0 CALLER PUSH20 0xFFFFFFFFFFFFFFFFFFFFFFFFFFFFFFFFFFFFFFFF AND PUSH20 0xFFFFFFFFFFFFFFFFFFFFFFFFFFFFFFFFFFFFFFFF AND DUP2 MSTORE PUSH1 0x20 ADD SWAP1 DUP2 MSTORE PUSH1 0x20 ADD PUSH0 KECCAK256 PUSH0 PUSH2 0x100 EXP DUP2 SLOAD DUP2 PUSH1 0xFF MUL NOT AND SWAP1 DUP4 ISZERO ISZERO MUL OR SWAP1 SSTORE POP DUP4 CALLER PUSH20 0xFFFFFFFFFFFFFFFFFFFFFFFFFFFFFFFFFFFFFFFF AND PUSH32 0xEC9AB91322523C899EDE7830EC9BFC992B5981CDCC27B91162FB23DE5791117B PUSH1 0x40 MLOAD PUSH1 0x40 MLOAD DUP1 SWAP2 SUB SWAP1 LOG3 POP POP POP POP JUMP JUMPDEST PUSH1 0x1 PUSH1 0x20 MSTORE DUP1 PUSH0 MSTORE PUSH1 0x40 PUSH0 KECCAK256 PUSH0 SWAP2 POP SLOAD SWAP1 PUSH2 0x100 EXP SWAP1 DIV PUSH1 0xFF AND DUP2 JUMP JUMPDEST PUSH1 0x3 DUP2 DUP2 SLOAD DUP2 LT PUSH2 0x6F8 JUMPI PUSH0 DUP1 REVERT JUMPDEST SWAP1 PUSH0 MSTORE PUSH1 0x20 PUSH0 KECCAK256 SWAP1 PUSH1 0x4 MUL ADD PUSH0 SWAP2 POP SWAP1 POP DUP1 PUSH0 ADD PUSH0 SWAP1 SLOAD SWAP1 PUSH2 0x100 EXP SWAP1 DIV PUSH20 0xFFFFFFFFFFFFFFFFFFFFFFFFFFFFFFFFFFFFFFFF AND SWAP1 DUP1 PUSH1 0x1 ADD SLOAD SWAP1 DUP1 PUSH1 0x2 ADD DUP1 SLOAD PUSH2 0x742 SWAP1 PUSH2 0x1279 JUMP JUMPDEST DUP1 PUSH1 0x1F ADD PUSH1 0x20 DUP1 SWAP2 DIV MUL PUSH1 0x20 ADD PUSH1 0x40 MLOAD SWAP1 DUP2 ADD PUSH1 0x40 MSTORE DUP1 SWAP3 SWAP2 SWAP1 DUP2 DUP2 MSTORE PUSH1 0x20 ADD DUP3 DUP1 SLOAD PUSH2 0x76E SWAP1 PUSH2 0x1279 JUMP JUMPDEST DUP1 ISZERO PUSH2 0x7B9 JUMPI DUP1 PUSH1 0x1F LT PUSH2 0x790 JUMPI PUSH2 0x100 DUP1 DUP4 SLOAD DIV MUL DUP4 MSTORE SWAP2 PUSH1 0x20 ADD SWAP2 PUSH2 0x7B9 JUMP JUMPDEST DUP3 ADD SWAP2 SWAP1 PUSH0 MSTORE PUSH1 0x20 PUSH0 KECCAK256 SWAP1 JUMPDEST DUP2 SLOAD DUP2 MSTORE SWAP1 PUSH1 0x1 ADD SWAP1 PUSH1 0x20 ADD DUP1 DUP4 GT PUSH2 0x79C JUMPI DUP3 SWAP1 SUB PUSH1 0x1F AND DUP3 ADD SWAP2 JUMPDEST POP POP POP POP POP SWAP1 DUP1 PUSH1 0x3 ADD PUSH0 SWAP1 SLOAD SWAP1 PUSH2 0x100 EXP SWAP1 DIV PUSH1 0xFF AND SWAP1 POP DUP5 JUMP JUMPDEST PUSH1 0x1 PUSH0 CALLER PUSH20 0xFFFFFFFFFFFFFFFFFFFFFFFFFFFFFFFFFFFFFFFF AND PUSH20 0xFFFFFFFFFFFFFFFFFFFFFFFFFFFFFFFFFFFFFFFF AND DUP2 MSTORE PUSH1 0x20 ADD SWAP1 DUP2 MSTORE PUSH1 0x20 ADD PUSH0 KECCAK256 PUSH0 SWAP1 SLOAD SWAP1 PUSH2 0x100 EXP SWAP1 DIV PUSH1 0xFF AND PUSH2 0x85E JUMPI PUSH1 0x40 MLOAD PUSH32 0x8C379A000000000000000000000000000000000000000000000000000000000 DUP2 MSTORE PUSH1 0x4 ADD PUSH2 0x855 SWAP1 PUSH2 0x122E JUMP JUMPDEST PUSH1 0x40 MLOAD DUP1 SWAP2 SUB SWAP1 REVERT JUMPDEST DUP1 PUSH1 0x3 DUP1 SLOAD SWAP1 POP DUP2 LT PUSH2 0x8A6 JUMPI PUSH1 0x40 MLOAD PUSH32 0x8C379A000000000000000000000000000000000000000000000000000000000 DUP2 MSTORE PUSH1 0x4 ADD PUSH2 0x89D SWAP1 PUSH2 0x15BF JUMP JUMPDEST PUSH1 0x40 MLOAD DUP1 SWAP2 SUB SWAP1 REVERT JUMPDEST DUP2 PUSH1 0x4 PUSH0 DUP3 DUP2 MSTORE PUSH1 0x20 ADD SWAP1 DUP2 MSTORE PUSH1 0x20 ADD PUSH0 KECCAK256 PUSH0 CALLER PUSH20 0xFFFFFFFFFFFFFFFFFFFFFFFFFFFFFFFFFFFFFFFF AND PUSH20 0xFFFFFFFFFFFFFFFFFFFFFFFFFFFFFFFFFFFFFFFF AND DUP2 MSTORE PUSH1 0x20 ADD SWAP1 DUP2 MSTORE PUSH1 0x20 ADD PUSH0 KECCAK256 PUSH0 SWAP1 SLOAD SWAP1 PUSH2 0x100 EXP SWAP1 DIV PUSH1 0xFF AND ISZERO PUSH2 0x940 JUMPI PUSH1 0x40 MLOAD PUSH32 0x8C379A000000000000000000000000000000000000000000000000000000000 DUP2 MSTORE PUSH1 0x4 ADD PUSH2 0x937 SWAP1 PUSH2 0x1724 JUMP JUMPDEST PUSH1 0x40 MLOAD DUP1 SWAP2 SUB SWAP1 REVERT JUMPDEST DUP3 PUSH1 0x3 DUP2 DUP2 SLOAD DUP2 LT PUSH2 0x955 JUMPI PUSH2 0x954 PUSH2 0x1645 JUMP JUMPDEST JUMPDEST SWAP1 PUSH0 MSTORE PUSH1 0x20 PUSH0 KECCAK256 SWAP1 PUSH1 0x4 MUL ADD PUSH1 0x3 ADD PUSH0 SWAP1 SLOAD SWAP1 PUSH2 0x100 EXP SWAP1 DIV PUSH1 0xFF AND ISZERO PUSH2 0x9B1 JUMPI PUSH1 0x40 MLOAD PUSH32 0x8C379A000000000000000000000000000000000000000000000000000000000 DUP2 MSTORE PUSH1 0x4 ADD PUSH2 0x9A8 SWAP1 PUSH2 0x16BC JUMP JUMPDEST PUSH1 0x40 MLOAD DUP1 SWAP2 SUB SWAP1 REVERT JUMPDEST PUSH1 0x1 PUSH1 0x4 PUSH0 DUP7 DUP2 MSTORE PUSH1 0x20 ADD SWAP1 DUP2 MSTORE PUSH1 0x20 ADD PUSH0 KECCAK256 PUSH0 CALLER PUSH20 0xFFFFFFFFFFFFFFFFFFFFFFFFFFFFFFFFFFFFFFFF AND PUSH20 0xFFFFFFFFFFFFFFFFFFFFFFFFFFFFFFFFFFFFFFFF AND DUP2 MSTORE PUSH1 0x20 ADD SWAP1 DUP2 MSTORE PUSH1 0x20 ADD PUSH0 KECCAK256 PUSH0 PUSH2 0x100 EXP DUP2 SLOAD DUP2 PUSH1 0xFF MUL NOT AND SWAP1 DUP4 ISZERO ISZERO MUL OR SWAP1 SSTORE POP DUP4 CALLER PUSH20 0xFFFFFFFFFFFFFFFFFFFFFFFFFFFFFFFFFFFFFFFF AND PUSH32 0xF13BFE0B6EC5DF39265DCCB0A01A09AA4162489C7A083DC6670BDE0255D02CA7 PUSH1 0x40 MLOAD PUSH1 0x40 MLOAD DUP1 SWAP2 SUB SWAP1 LOG3 POP POP POP POP JUMP JUMPDEST PUSH1 0x2 SLOAD DUP2 JUMP JUMPDEST PUSH1 0x1 PUSH0 CALLER PUSH20 0xFFFFFFFFFFFFFFFFFFFFFFFFFFFFFFFFFFFFFFFF AND PUSH20 0xFFFFFFFFFFFFFFFFFFFFFFFFFFFFFFFFFFFFFFFF AND DUP2 MSTORE PUSH1 0x20 ADD SWAP1 DUP2 MSTORE PUSH1 0x20 ADD PUSH0 KECCAK256 PUSH0 SWAP1 SLOAD SWAP1 PUSH2 0x100 EXP SWAP1 DIV PUSH1 0xFF AND PUSH2 0xAEE JUMPI PUSH1 0x40 MLOAD PUSH32 0x8C379A000000000000000000000000000000000000000000000000000000000 DUP2 MSTORE PUSH1 0x4 ADD PUSH2 0xAE5 SWAP1 PUSH2 0x122E JUMP JUMPDEST PUSH1 0x40 MLOAD DUP1 SWAP2 SUB SWAP1 REVERT JUMPDEST DUP1 PUSH1 0x3 DUP1 SLOAD SWAP1 POP DUP2 LT PUSH2 0xB36 JUMPI PUSH1 0x40 MLOAD PUSH32 0x8C379A000000000000000000000000000000000000000000000000000000000 DUP2 MSTORE PUSH1 0x4 ADD PUSH2 0xB2D SWAP1 PUSH2 0x15BF JUMP JUMPDEST PUSH1 0x40 MLOAD DUP1 SWAP2 SUB SWAP1 REVERT JUMPDEST DUP2 PUSH1 0x3 DUP2 DUP2 SLOAD DUP2 LT PUSH2 0xB4B JUMPI PUSH2 0xB4A PUSH2 0x1645 JUMP JUMPDEST JUMPDEST SWAP1 PUSH0 MSTORE PUSH1 0x20 PUSH0 KECCAK256 SWAP1 PUSH1 0x4 MUL ADD PUSH1 0x3 ADD PUSH0 SWAP1 SLOAD SWAP1 PUSH2 0x100 EXP SWAP1 DIV PUSH1 0xFF AND ISZERO PUSH2 0xBA7 JUMPI PUSH1 0x40 MLOAD PUSH32 0x8C379A000000000000000000000000000000000000000000000000000000000 DUP2 MSTORE PUSH1 0x4 ADD PUSH2 0xB9E SWAP1 PUSH2 0x16BC JUMP JUMPDEST PUSH1 0x40 MLOAD DUP1 SWAP2 SUB SWAP1 REVERT JUMPDEST PUSH1 0x2 SLOAD PUSH2 0xBB3 DUP5 PUSH2 0xD3A JUMP JUMPDEST LT ISZERO PUSH2 0xBF4 JUMPI PUSH1 0x40 MLOAD PUSH32 0x8C379A000000000000000000000000000000000000000000000000000000000 DUP2 MSTORE PUSH1 0x4 ADD PUSH2 0xBEB SWAP1 PUSH2 0x178C JUMP JUMPDEST PUSH1 0x40 MLOAD DUP1 SWAP2 SUB SWAP1 REVERT JUMPDEST PUSH0 PUSH1 0x3 DUP5 DUP2 SLOAD DUP2 LT PUSH2 0xC09 JUMPI PUSH2 0xC08 PUSH2 0x1645 JUMP JUMPDEST JUMPDEST SWAP1 PUSH0 MSTORE PUSH1 0x20 PUSH0 KECCAK256 SWAP1 PUSH1 0x4 MUL ADD SWAP1 POP PUSH1 0x1 DUP2 PUSH1 0x3 ADD PUSH0 PUSH2 0x100 EXP DUP2 SLOAD DUP2 PUSH1 0xFF MUL NOT AND SWAP1 DUP4 ISZERO ISZERO MUL OR SWAP1 SSTORE POP PUSH0 DUP2 PUSH0 ADD PUSH0 SWAP1 SLOAD SWAP1 PUSH2 0x100 EXP SWAP1 DIV PUSH20 0xFFFFFFFFFFFFFFFFFFFFFFFFFFFFFFFFFFFFFFFF AND PUSH20 0xFFFFFFFFFFFFFFFFFFFFFFFFFFFFFFFFFFFFFFFF AND DUP3 PUSH1 0x1 ADD SLOAD DUP4 PUSH1 0x2 ADD PUSH1 0x40 MLOAD PUSH2 0xC83 SWAP2 SWAP1 PUSH2 0x1834 JUMP JUMPDEST PUSH0 PUSH1 0x40 MLOAD DUP1 DUP4 SUB DUP2 DUP6 DUP8 GAS CALL SWAP3 POP POP POP RETURNDATASIZE DUP1 PUSH0 DUP2 EQ PUSH2 0xCBD JUMPI PUSH1 0x40 MLOAD SWAP2 POP PUSH1 0x1F NOT PUSH1 0x3F RETURNDATASIZE ADD AND DUP3 ADD PUSH1 0x40 MSTORE RETURNDATASIZE DUP3 MSTORE RETURNDATASIZE PUSH0 PUSH1 0x20 DUP5 ADD RETURNDATACOPY PUSH2 0xCC2 JUMP JUMPDEST PUSH1 0x60 SWAP2 POP JUMPDEST POP POP SWAP1 POP DUP1 PUSH2 0xD06 JUMPI PUSH1 0x40 MLOAD PUSH32 0x8C379A000000000000000000000000000000000000000000000000000000000 DUP2 MSTORE PUSH1 0x4 ADD PUSH2 0xCFD SWAP1 PUSH2 0x1894 JUMP JUMPDEST PUSH1 0x40 MLOAD DUP1 SWAP2 SUB SWAP1 REVERT JUMPDEST DUP5 PUSH32 0xDDB556F1D2C1EC821E910B019D3685B229DB152A0ECD517CA7E24B8BD7139289 PUSH1 0x40 MLOAD PUSH1 0x40 MLOAD DUP1 SWAP2 SUB SWAP1 LOG2 POP POP POP POP POP JUMP JUMPDEST PUSH0 DUP1 PUSH0 SWAP1 POP PUSH0 JUMPDEST PUSH0 DUP1 SLOAD SWAP1 POP DUP2 LT ISZERO PUSH2 0xE01 JUMPI PUSH1 0x4 PUSH0 DUP6 DUP2 MSTORE PUSH1 0x20 ADD SWAP1 DUP2 MSTORE PUSH1 0x20 ADD PUSH0 KECCAK256 PUSH0 DUP1 DUP4 DUP2 SLOAD DUP2 LT PUSH2 0xD72 JUMPI PUSH2 0xD71 PUSH2 0x1645 JUMP JUMPDEST JUMPDEST SWAP1 PUSH0 MSTORE PUSH1 0x20 PUSH0 KECCAK256 ADD PUSH0 SWAP1 SLOAD SWAP1 PUSH2 0x100 EXP SWAP1 DIV PUSH20 0xFFFFFFFFFFFFFFFFFFFFFFFFFFFFFFFFFFFFFFFF AND PUSH20 0xFFFFFFFFFFFFFFFFFFFFFFFFFFFFFFFFFFFFFFFF AND PUSH20 0xFFFFFFFFFFFFFFFFFFFFFFFFFFFFFFFFFFFFFFFF AND DUP2 MSTORE PUSH1 0x20 ADD SWAP1 DUP2 MSTORE PUSH1 0x20 ADD PUSH0 KECCAK256 PUSH0 SWAP1 SLOAD SWAP1 PUSH2 0x100 EXP SWAP1 DIV PUSH1 0xFF AND ISZERO PUSH2 0xDF4 JUMPI DUP2 DUP1 PUSH2 0xDF0 SWAP1 PUSH2 0x18B2 JUMP JUMPDEST SWAP3 POP POP JUMPDEST DUP1 DUP1 PUSH1 0x1 ADD SWAP2 POP POP PUSH2 0xD41 JUMP JUMPDEST POP DUP1 SWAP2 POP POP SWAP2 SWAP1 POP JUMP JUMPDEST PUSH0 DUP2 SWAP1 POP SWAP2 SWAP1 POP JUMP JUMPDEST PUSH2 0xE1D DUP2 PUSH2 0xE0B JUMP JUMPDEST DUP3 MSTORE POP POP JUMP JUMPDEST PUSH0 PUSH1 0x20 DUP3 ADD SWAP1 POP PUSH2 0xE36 PUSH0 DUP4 ADD DUP5 PUSH2 0xE14 JUMP JUMPDEST SWAP3 SWAP2 POP POP JUMP JUMPDEST PUSH0 PUSH1 0x40 MLOAD SWAP1 POP SWAP1 JUMP JUMPDEST PUSH0 DUP1 REVERT JUMPDEST PUSH0 DUP1 REVERT JUMPDEST PUSH2 0xE56 DUP2 PUSH2 0xE0B JUMP JUMPDEST DUP2 EQ PUSH2 0xE60 JUMPI PUSH0 DUP1 REVERT JUMPDEST POP JUMP JUMPDEST PUSH0 DUP2 CALLDATALOAD SWAP1 POP PUSH2 0xE71 DUP2 PUSH2 0xE4D JUMP JUMPDEST SWAP3 SWAP2 POP POP JUMP JUMPDEST PUSH0 PUSH1 0x20 DUP3 DUP5 SUB SLT ISZERO PUSH2 0xE8C JUMPI PUSH2 0xE8B PUSH2 0xE45 JUMP JUMPDEST JUMPDEST PUSH0 PUSH2 0xE99 DUP5 DUP3 DUP6 ADD PUSH2 0xE63 JUMP JUMPDEST SWAP2 POP POP SWAP3 SWAP2 POP POP JUMP JUMPDEST PUSH0 PUSH20 0xFFFFFFFFFFFFFFFFFFFFFFFFFFFFFFFFFFFFFFFF DUP3 AND SWAP1 POP SWAP2 SWAP1 POP JUMP JUMPDEST PUSH0 PUSH2 0xECB DUP3 PUSH2 0xEA2 JUMP JUMPDEST SWAP1 POP SWAP2 SWAP1 POP JUMP JUMPDEST PUSH2 0xEDB DUP2 PUSH2 0xEC1 JUMP JUMPDEST DUP3 MSTORE POP POP JUMP JUMPDEST PUSH0 PUSH1 0x20 DUP3 ADD SWAP1 POP PUSH2 0xEF4 PUSH0 DUP4 ADD DUP5 PUSH2 0xED2 JUMP JUMPDEST SWAP3 SWAP2 POP POP JUMP JUMPDEST PUSH2 0xF03 DUP2 PUSH2 0xEC1 JUMP JUMPDEST DUP2 EQ PUSH2 0xF0D JUMPI PUSH0 DUP1 REVERT JUMPDEST POP JUMP JUMPDEST PUSH0 DUP2 CALLDATALOAD SWAP1 POP PUSH2 0xF1E DUP2 PUSH2 0xEFA JUMP JUMPDEST SWAP3 SWAP2 POP POP JUMP JUMPDEST PUSH0 DUP1 REVERT JUMPDEST PUSH0 DUP1 REVERT JUMPDEST PUSH0 PUSH1 0x1F NOT PUSH1 0x1F DUP4 ADD AND SWAP1 POP SWAP2 SWAP1 POP JUMP JUMPDEST PUSH32 0x4E487B7100000000000000000000000000000000000000000000000000000000 PUSH0 MSTORE PUSH1 0x41 PUSH1 0x4 MSTORE PUSH1 0x24 PUSH0 REVERT JUMPDEST PUSH2 0xF72 DUP3 PUSH2 0xF2C JUMP JUMPDEST DUP2 ADD DUP2 DUP2 LT PUSH8 0xFFFFFFFFFFFFFFFF DUP3 GT OR ISZERO PUSH2 0xF91 JUMPI PUSH2 0xF90 PUSH2 0xF3C JUMP JUMPDEST JUMPDEST DUP1 PUSH1 0x40 MSTORE POP POP POP JUMP JUMPDEST PUSH0 PUSH2 0xFA3 PUSH2 0xE3C JUMP JUMPDEST SWAP1 POP PUSH2 0xFAF DUP3 DUP3 PUSH2 0xF69 JUMP JUMPDEST SWAP2 SWAP1 POP JUMP JUMPDEST PUSH0 PUSH8 0xFFFFFFFFFFFFFFFF DUP3 GT ISZERO PUSH2 0xFCE JUMPI PUSH2 0xFCD PUSH2 0xF3C JUMP JUMPDEST JUMPDEST PUSH2 0xFD7 DUP3 PUSH2 0xF2C JUMP JUMPDEST SWAP1 POP PUSH1 0x20 DUP2 ADD SWAP1 POP SWAP2 SWAP1 POP JUMP JUMPDEST DUP3 DUP2 DUP4 CALLDATACOPY PUSH0 DUP4 DUP4 ADD MSTORE POP POP POP JUMP JUMPDEST PUSH0 PUSH2 0x1004 PUSH2 0xFFF DUP5 PUSH2 0xFB4 JUMP JUMPDEST PUSH2 0xF9A JUMP JUMPDEST SWAP1 POP DUP3 DUP2 MSTORE PUSH1 0x20 DUP2 ADD DUP5 DUP5 DUP5 ADD GT ISZERO PUSH2 0x1020 JUMPI PUSH2 0x101F PUSH2 0xF28 JUMP JUMPDEST JUMPDEST PUSH2 0x102B DUP5 DUP3 DUP6 PUSH2 0xFE4 JUMP JUMPDEST POP SWAP4 SWAP3 POP POP POP JUMP JUMPDEST PUSH0 DUP3 PUSH1 0x1F DUP4 ADD SLT PUSH2 0x1047 JUMPI PUSH2 0x1046 PUSH2 0xF24 JUMP JUMPDEST JUMPDEST DUP2 CALLDATALOAD PUSH2 0x1057 DUP5 DUP3 PUSH1 0x20 DUP7 ADD PUSH2 0xFF2 JUMP JUMPDEST SWAP2 POP POP SWAP3 SWAP2 POP POP JUMP JUMPDEST PUSH0 DUP1 PUSH0 PUSH1 0x60 DUP5 DUP7 SUB SLT ISZERO PUSH2 0x1077 JUMPI PUSH2 0x1076 PUSH2 0xE45 JUMP JUMPDEST JUMPDEST PUSH0 PUSH2 0x1084 DUP7 DUP3 DUP8 ADD PUSH2 0xF10 JUMP JUMPDEST SWAP4 POP POP PUSH1 0x20 PUSH2 0x1095 DUP7 DUP3 DUP8 ADD PUSH2 0xE63 JUMP JUMPDEST SWAP3 POP POP PUSH1 0x40 DUP5 ADD CALLDATALOAD PUSH8 0xFFFFFFFFFFFFFFFF DUP2 GT ISZERO PUSH2 0x10B6 JUMPI PUSH2 0x10B5 PUSH2 0xE49 JUMP JUMPDEST JUMPDEST PUSH2 0x10C2 DUP7 DUP3 DUP8 ADD PUSH2 0x1033 JUMP JUMPDEST SWAP2 POP POP SWAP3 POP SWAP3 POP SWAP3 JUMP JUMPDEST PUSH0 PUSH1 0x20 DUP3 DUP5 SUB SLT ISZERO PUSH2 0x10E1 JUMPI PUSH2 0x10E0 PUSH2 0xE45 JUMP JUMPDEST JUMPDEST PUSH0 PUSH2 0x10EE DUP5 DUP3 DUP6 ADD PUSH2 0xF10 JUMP JUMPDEST SWAP2 POP POP SWAP3 SWAP2 POP POP JUMP JUMPDEST PUSH0 DUP2 ISZERO ISZERO SWAP1 POP SWAP2 SWAP1 POP JUMP JUMPDEST PUSH2 0x110B DUP2 PUSH2 0x10F7 JUMP JUMPDEST DUP3 MSTORE POP POP JUMP JUMPDEST PUSH0 PUSH1 0x20 DUP3 ADD SWAP1 POP PUSH2 0x1124 PUSH0 DUP4 ADD DUP5 PUSH2 0x1102 JUMP JUMPDEST SWAP3 SWAP2 POP POP JUMP JUMPDEST PUSH0 DUP2 MLOAD SWAP1 POP SWAP2 SWAP1 POP JUMP JUMPDEST PUSH0 DUP3 DUP3 MSTORE PUSH1 0x20 DUP3 ADD SWAP1 POP SWAP3 SWAP2 POP POP JUMP JUMPDEST DUP3 DUP2 DUP4 MCOPY PUSH0 DUP4 DUP4 ADD MSTORE POP POP POP JUMP JUMPDEST PUSH0 PUSH2 0x115C DUP3 PUSH2 0x112A JUMP JUMPDEST PUSH2 0x1166 DUP2 DUP6 PUSH2 0x1134 JUMP JUMPDEST SWAP4 POP PUSH2 0x1176 DUP2 DUP6 PUSH1 0x20 DUP7 ADD PUSH2 0x1144 JUMP JUMPDEST PUSH2 0x117F DUP2 PUSH2 0xF2C JUMP JUMPDEST DUP5 ADD SWAP2 POP POP SWAP3 SWAP2 POP POP JUMP JUMPDEST PUSH0 PUSH1 0x80 DUP3 ADD SWAP1 POP PUSH2 0x119D PUSH0 DUP4 ADD DUP8 PUSH2 0xED2 JUMP JUMPDEST PUSH2 0x11AA PUSH1 0x20 DUP4 ADD DUP7 PUSH2 0xE14 JUMP JUMPDEST DUP2 DUP2 SUB PUSH1 0x40 DUP4 ADD MSTORE PUSH2 0x11BC DUP2 DUP6 PUSH2 0x1152 JUMP JUMPDEST SWAP1 POP PUSH2 0x11CB PUSH1 0x60 DUP4 ADD DUP5 PUSH2 0x1102 JUMP JUMPDEST SWAP6 SWAP5 POP POP POP POP POP JUMP JUMPDEST PUSH0 DUP3 DUP3 MSTORE PUSH1 0x20 DUP3 ADD SWAP1 POP SWAP3 SWAP2 POP POP JUMP JUMPDEST PUSH32 0x6E6F74206F776E65722C63616E27742063616C6C000000000000000000000000 PUSH0 DUP3 ADD MSTORE POP JUMP JUMPDEST PUSH0 PUSH2 0x1218 PUSH1 0x14 DUP4 PUSH2 0x11D4 JUMP JUMPDEST SWAP2 POP PUSH2 0x1223 DUP3 PUSH2 0x11E4 JUMP JUMPDEST PUSH1 0x20 DUP3 ADD SWAP1 POP SWAP2 SWAP1 POP JUMP JUMPDEST PUSH0 PUSH1 0x20 DUP3 ADD SWAP1 POP DUP2 DUP2 SUB PUSH0 DUP4 ADD MSTORE PUSH2 0x1245 DUP2 PUSH2 0x120C JUMP JUMPDEST SWAP1 POP SWAP2 SWAP1 POP JUMP JUMPDEST PUSH32 0x4E487B7100000000000000000000000000000000000000000000000000000000 PUSH0 MSTORE PUSH1 0x22 PUSH1 0x4 MSTORE PUSH1 0x24 PUSH0 REVERT JUMPDEST PUSH0 PUSH1 0x2 DUP3 DIV SWAP1 POP PUSH1 0x1 DUP3 AND DUP1 PUSH2 0x1290 JUMPI PUSH1 0x7F DUP3 AND SWAP2 POP JUMPDEST PUSH1 0x20 DUP3 LT DUP2 SUB PUSH2 0x12A3 JUMPI PUSH2 0x12A2 PUSH2 0x124C JUMP JUMPDEST JUMPDEST POP SWAP2 SWAP1 POP JUMP JUMPDEST PUSH0 DUP2 SWAP1 POP DUP2 PUSH0 MSTORE PUSH1 0x20 PUSH0 KECCAK256 SWAP1 POP SWAP2 SWAP1 POP JUMP JUMPDEST PUSH0 PUSH1 0x20 PUSH1 0x1F DUP4 ADD DIV SWAP1 POP SWAP2 SWAP1 POP JUMP JUMPDEST PUSH0 DUP3 DUP3 SHL SWAP1 POP SWAP3 SWAP2 POP POP JUMP JUMPDEST PUSH0 PUSH1 0x8 DUP4 MUL PUSH2 0x1305 PUSH32 0xFFFFFFFFFFFFFFFFFFFFFFFFFFFFFFFFFFFFFFFFFFFFFFFFFFFFFFFFFFFFFFFF DUP3 PUSH2 0x12CA JUMP JUMPDEST PUSH2 0x130F DUP7 DUP4 PUSH2 0x12CA JUMP JUMPDEST SWAP6 POP DUP1 NOT DUP5 AND SWAP4 POP DUP1 DUP7 AND DUP5 OR SWAP3 POP POP POP SWAP4 SWAP3 POP POP POP JUMP JUMPDEST PUSH0 DUP2 SWAP1 POP SWAP2 SWAP1 POP JUMP JUMPDEST PUSH0 PUSH2 0x134A PUSH2 0x1345 PUSH2 0x1340 DUP5 PUSH2 0xE0B JUMP JUMPDEST PUSH2 0x1327 JUMP JUMPDEST PUSH2 0xE0B JUMP JUMPDEST SWAP1 POP SWAP2 SWAP1 POP JUMP JUMPDEST PUSH0 DUP2 SWAP1 POP SWAP2 SWAP1 POP JUMP JUMPDEST PUSH2 0x1363 DUP4 PUSH2 0x1330 JUMP JUMPDEST PUSH2 0x1377 PUSH2 0x136F DUP3 PUSH2 0x1351 JUMP JUMPDEST DUP5 DUP5 SLOAD PUSH2 0x12D6 JUMP JUMPDEST DUP3 SSTORE POP POP POP POP JUMP JUMPDEST PUSH0 SWAP1 JUMP JUMPDEST PUSH2 0x138B PUSH2 0x137F JUMP JUMPDEST PUSH2 0x1396 DUP2 DUP5 DUP5 PUSH2 0x135A JUMP JUMPDEST POP POP POP JUMP JUMPDEST JUMPDEST DUP2 DUP2 LT ISZERO PUSH2 0x13B9 JUMPI PUSH2 0x13AE PUSH0 DUP3 PUSH2 0x1383 JUMP JUMPDEST PUSH1 0x1 DUP2 ADD SWAP1 POP PUSH2 0x139C JUMP JUMPDEST POP POP JUMP JUMPDEST PUSH1 0x1F DUP3 GT ISZERO PUSH2 0x13FE JUMPI PUSH2 0x13CF DUP2 PUSH2 0x12A9 JUMP JUMPDEST PUSH2 0x13D8 DUP5 PUSH2 0x12BB JUMP JUMPDEST DUP2 ADD PUSH1 0x20 DUP6 LT ISZERO PUSH2 0x13E7 JUMPI DUP2 SWAP1 POP JUMPDEST PUSH2 0x13FB PUSH2 0x13F3 DUP6 PUSH2 0x12BB JUMP JUMPDEST DUP4 ADD DUP3 PUSH2 0x139B JUMP JUMPDEST POP POP JUMPDEST POP POP POP JUMP JUMPDEST PUSH0 DUP3 DUP3 SHR SWAP1 POP SWAP3 SWAP2 POP POP JUMP JUMPDEST PUSH0 PUSH2 0x141E PUSH0 NOT DUP5 PUSH1 0x8 MUL PUSH2 0x1403 JUMP JUMPDEST NOT DUP1 DUP4 AND SWAP2 POP POP SWAP3 SWAP2 POP POP JUMP JUMPDEST PUSH0 PUSH2 0x1436 DUP4 DUP4 PUSH2 0x140F JUMP JUMPDEST SWAP2 POP DUP3 PUSH1 0x2 MUL DUP3 OR SWAP1 POP SWAP3 SWAP2 POP POP JUMP JUMPDEST PUSH2 0x144F DUP3 PUSH2 0x112A JUMP JUMPDEST PUSH8 0xFFFFFFFFFFFFFFFF DUP2 GT ISZERO PUSH2 0x1468 JUMPI PUSH2 0x1467 PUSH2 0xF3C JUMP JUMPDEST JUMPDEST PUSH2 0x1472 DUP3 SLOAD PUSH2 0x1279 JUMP JUMPDEST PUSH2 0x147D DUP3 DUP3 DUP6 PUSH2 0x13BD JUMP JUMPDEST PUSH0 PUSH1 0x20 SWAP1 POP PUSH1 0x1F DUP4 GT PUSH1 0x1 DUP2 EQ PUSH2 0x14AE JUMPI PUSH0 DUP5 ISZERO PUSH2 0x149C JUMPI DUP3 DUP8 ADD MLOAD SWAP1 POP JUMPDEST PUSH2 0x14A6 DUP6 DUP3 PUSH2 0x142B JUMP JUMPDEST DUP7 SSTORE POP PUSH2 0x150D JUMP JUMPDEST PUSH1 0x1F NOT DUP5 AND PUSH2 0x14BC DUP7 PUSH2 0x12A9 JUMP JUMPDEST PUSH0 JUMPDEST DUP3 DUP2 LT ISZERO PUSH2 0x14E3 JUMPI DUP5 DUP10 ADD MLOAD DUP3 SSTORE PUSH1 0x1 DUP3 ADD SWAP2 POP PUSH1 0x20 DUP6 ADD SWAP5 POP PUSH1 0x20 DUP2 ADD SWAP1 POP PUSH2 0x14BE JUMP JUMPDEST DUP7 DUP4 LT ISZERO PUSH2 0x1500 JUMPI DUP5 DUP10 ADD MLOAD PUSH2 0x14FC PUSH1 0x1F DUP10 AND DUP3 PUSH2 0x140F JUMP JUMPDEST DUP4 SSTORE POP JUMPDEST PUSH1 0x1 PUSH1 0x2 DUP9 MUL ADD DUP9 SSTORE POP POP POP JUMPDEST POP POP POP POP POP POP JUMP JUMPDEST PUSH32 0x4E487B7100000000000000000000000000000000000000000000000000000000 PUSH0 MSTORE PUSH1 0x11 PUSH1 0x4 MSTORE PUSH1 0x24 PUSH0 REVERT JUMPDEST PUSH0 PUSH2 0x154C DUP3 PUSH2 0xE0B JUMP JUMPDEST SWAP2 POP PUSH2 0x1557 DUP4 PUSH2 0xE0B JUMP JUMPDEST SWAP3 POP DUP3 DUP3 SUB SWAP1 POP DUP2 DUP2 GT ISZERO PUSH2 0x156F JUMPI PUSH2 0x156E PUSH2 0x1515 JUMP JUMPDEST JUMPDEST SWAP3 SWAP2 POP POP JUMP JUMPDEST PUSH32 0x7478206E6F742065786973747300000000000000000000000000000000000000 PUSH0 DUP3 ADD MSTORE POP JUMP JUMPDEST PUSH0 PUSH2 0x15A9 PUSH1 0xD DUP4 PUSH2 0x11D4 JUMP JUMPDEST SWAP2 POP PUSH2 0x15B4 DUP3 PUSH2 0x1575 JUMP JUMPDEST PUSH1 0x20 DUP3 ADD SWAP1 POP SWAP2 SWAP1 POP JUMP JUMPDEST PUSH0 PUSH1 0x20 DUP3 ADD SWAP1 POP DUP2 DUP2 SUB PUSH0 DUP4 ADD MSTORE PUSH2 0x15D6 DUP2 PUSH2 0x159D JUMP JUMPDEST SWAP1 POP SWAP2 SWAP1 POP JUMP JUMPDEST PUSH32 0x7478206973206E6F7420617070726F7665640000000000000000000000000000 PUSH0 DUP3 ADD MSTORE POP JUMP JUMPDEST PUSH0 PUSH2 0x1611 PUSH1 0x12 DUP4 PUSH2 0x11D4 JUMP JUMPDEST SWAP2 POP PUSH2 0x161C DUP3 PUSH2 0x15DD JUMP JUMPDEST PUSH1 0x20 DUP3 ADD SWAP1 POP SWAP2 SWAP1 POP JUMP JUMPDEST PUSH0 PUSH1 0x20 DUP3 ADD SWAP1 POP DUP2 DUP2 SUB PUSH0 DUP4 ADD MSTORE PUSH2 0x163E DUP2 PUSH2 0x1605 JUMP JUMPDEST SWAP1 POP SWAP2 SWAP1 POP JUMP JUMPDEST PUSH32 0x4E487B7100000000000000000000000000000000000000000000000000000000 PUSH0 MSTORE PUSH1 0x32 PUSH1 0x4 MSTORE PUSH1 0x24 PUSH0 REVERT JUMPDEST PUSH32 0x7478206973457863656375746564210000000000000000000000000000000000 PUSH0 DUP3 ADD MSTORE POP JUMP JUMPDEST PUSH0 PUSH2 0x16A6 PUSH1 0xF DUP4 PUSH2 0x11D4 JUMP JUMPDEST SWAP2 POP PUSH2 0x16B1 DUP3 PUSH2 0x1672 JUMP JUMPDEST PUSH1 0x20 DUP3 ADD SWAP1 POP SWAP2 SWAP1 POP JUMP JUMPDEST PUSH0 PUSH1 0x20 DUP3 ADD SWAP1 POP DUP2 DUP2 SUB PUSH0 DUP4 ADD MSTORE PUSH2 0x16D3 DUP2 PUSH2 0x169A JUMP JUMPDEST SWAP1 POP SWAP2 SWAP1 POP JUMP JUMPDEST PUSH32 0x747820616C726561647920617070726F76656400000000000000000000000000 PUSH0 DUP3 ADD MSTORE POP JUMP JUMPDEST PUSH0 PUSH2 0x170E PUSH1 0x13 DUP4 PUSH2 0x11D4 JUMP JUMPDEST SWAP2 POP PUSH2 0x1719 DUP3 PUSH2 0x16DA JUMP JUMPDEST PUSH1 0x20 DUP3 ADD SWAP1 POP SWAP2 SWAP1 POP JUMP JUMPDEST PUSH0 PUSH1 0x20 DUP3 ADD SWAP1 POP DUP2 DUP2 SUB PUSH0 DUP4 ADD MSTORE PUSH2 0x173B DUP2 PUSH2 0x1702 JUMP JUMPDEST SWAP1 POP SWAP2 SWAP1 POP JUMP JUMPDEST PUSH32 0x617070726F766573203C2072657175697265644E756D00000000000000000000 PUSH0 DUP3 ADD MSTORE POP JUMP JUMPDEST PUSH0 PUSH2 0x1776 PUSH1 0x16 DUP4 PUSH2 0x11D4 JUMP JUMPDEST SWAP2 POP PUSH2 0x1781 DUP3 PUSH2 0x1742 JUMP JUMPDEST PUSH1 0x20 DUP3 ADD SWAP1 POP SWAP2 SWAP1 POP JUMP JUMPDEST PUSH0 PUSH1 0x20 DUP3 ADD SWAP1 POP DUP2 DUP2 SUB PUSH0 DUP4 ADD MSTORE PUSH2 0x17A3 DUP2 PUSH2 0x176A JUMP JUMPDEST SWAP1 POP SWAP2 SWAP1 POP JUMP JUMPDEST PUSH0 DUP2 SWAP1 POP SWAP3 SWAP2 POP POP JUMP JUMPDEST PUSH0 DUP2 SLOAD PUSH2 0x17C0 DUP2 PUSH2 0x1279 JUMP JUMPDEST PUSH2 0x17CA DUP2 DUP7 PUSH2 0x17AA JUMP JUMPDEST SWAP5 POP PUSH1 0x1 DUP3 AND PUSH0 DUP2 EQ PUSH2 0x17E4 JUMPI PUSH1 0x1 DUP2 EQ PUSH2 0x17F9 JUMPI PUSH2 0x182B JUMP JUMPDEST PUSH1 0xFF NOT DUP4 AND DUP7 MSTORE DUP2 ISZERO ISZERO DUP3 MUL DUP7 ADD SWAP4 POP PUSH2 0x182B JUMP JUMPDEST PUSH2 0x1802 DUP6 PUSH2 0x12A9 JUMP JUMPDEST PUSH0 JUMPDEST DUP4 DUP2 LT ISZERO PUSH2 0x1823 JUMPI DUP2 SLOAD DUP2 DUP10 ADD MSTORE PUSH1 0x1 DUP3 ADD SWAP2 POP PUSH1 0x20 DUP2 ADD SWAP1 POP PUSH2 0x1804 JUMP JUMPDEST DUP4 DUP9 ADD SWAP6 POP POP POP JUMPDEST POP POP POP SWAP3 SWAP2 POP POP JUMP JUMPDEST PUSH0 PUSH2 0x183F DUP3 DUP5 PUSH2 0x17B4 JUMP JUMPDEST SWAP2 POP DUP2 SWAP1 POP SWAP3 SWAP2 POP POP JUMP JUMPDEST PUSH32 0x74782063616C6C206661696C0000000000000000000000000000000000000000 PUSH0 DUP3 ADD MSTORE POP JUMP JUMPDEST PUSH0 PUSH2 0x187E PUSH1 0xC DUP4 PUSH2 0x11D4 JUMP JUMPDEST SWAP2 POP PUSH2 0x1889 DUP3 PUSH2 0x184A JUMP JUMPDEST PUSH1 0x20 DUP3 ADD SWAP1 POP SWAP2 SWAP1 POP JUMP JUMPDEST PUSH0 PUSH1 0x20 DUP3 ADD SWAP1 POP DUP2 DUP2 SUB PUSH0 DUP4 ADD MSTORE PUSH2 0x18AB DUP2 PUSH2 0x1872 JUMP JUMPDEST SWAP1 POP SWAP2 SWAP1 POP JUMP JUMPDEST PUSH0 PUSH2 0x18BC DUP3 PUSH2 0xE0B JUMP JUMPDEST SWAP2 POP PUSH32 0xFFFFFFFFFFFFFFFFFFFFFFFFFFFFFFFFFFFFFFFFFFFFFFFFFFFFFFFFFFFFFFFF DUP3 SUB PUSH2 0x18EE JUMPI PUSH2 0x18ED PUSH2 0x1515 JUMP JUMPDEST JUMPDEST PUSH1 0x1 DUP3 ADD SWAP1 POP SWAP2 SWAP1 POP JUMP INVALID LOG2 PUSH5 0x6970667358 0x22 SLT KECCAK256 PUSH22 0x1EB3D8CAB42209BE9138B73C1040A8B5EA4BC79DD35A 0xA5 PUSH28 0x57CE6BBC543C0A64736F6C634300081A003300000000000000000000 "
		},
		"gasEstimates": {
			"creation": {
				"codeDepositCost": "1289400",
				"executionCost": "infinite",
				"totalCost": "infinite"
			},
			"external": {
				"approve(uint256)": "37443",
				"execute(uint256)": "infinite",
				"isOwner(address)": "2900",
				"owners(uint256)": "4944",
				"requiredNum()": "2469",
				"revoke(uint256)": "37462",
				"submit(address,uint256,bytes)": "infinite",
				"transactions(uint256)": "infinite"
			},
			"internal": {
				"getApprovals(uint256)": "infinite"
			}
		},
		"methodIdentifiers": {
			"approve(uint256)": "b759f954",
			"execute(uint256)": "fe0d94c1",
			"isOwner(address)": "2f54bf6e",
			"owners(uint256)": "025e7c27",
			"requiredNum()": "d5d0f21e",
			"revoke(uint256)": "20c5429b",
			"submit(address,uint256,bytes)": "14de327f",
			"transactions(uint256)": "9ace38c2"
		}
	},
	"abi": [
		{
			"inputs": [
				{
					"internalType": "address[]",
					"name": "_owners",
					"type": "address[]"
				},
				{
					"internalType": "uint256",
					"name": "_requiredNum",
					"type": "uint256"
				}
			],
			"stateMutability": "nonpayable",
			"type": "constructor"
		},
		{
			"anonymous": false,
			"inputs": [
				{
					"indexed": true,
					"internalType": "address",
					"name": "owner",
					"type": "address"
				},
				{
					"indexed": true,
					"internalType": "uint256",
					"name": "txId",
					"type": "uint256"
				}
			],
			"name": "Approved",
			"type": "event"
		},
		{
			"anonymous": false,
			"inputs": [
				{
					"indexed": true,
					"internalType": "address",
					"name": "sender",
					"type": "address"
				},
				{
					"indexed": false,
					"internalType": "uint256",
					"name": "amount",
					"type": "uint256"
				}
			],
			"name": "Deposite",
			"type": "event"
		},
		{
			"anonymous": false,
			"inputs": [
				{
					"indexed": true,
					"internalType": "uint256",
					"name": "txId",
					"type": "uint256"
				}
			],
			"name": "Execute",
			"type": "event"
		},
		{
			"anonymous": false,
			"inputs": [
				{
					"indexed": true,
					"internalType": "address",
					"name": "owner",
					"type": "address"
				},
				{
					"indexed": true,
					"internalType": "uint256",
					"name": "txId",
					"type": "uint256"
				}
			],
			"name": "Revoke",
			"type": "event"
		},
		{
			"anonymous": false,
			"inputs": [
				{
					"indexed": true,
					"internalType": "uint256",
					"name": "txId",
					"type": "uint256"
				}
			],
			"name": "Subimit",
			"type": "event"
		},
		{
			"inputs": [
				{
					"internalType": "uint256",
					"name": "_txId",
					"type": "uint256"
				}
			],
			"name": "approve",
			"outputs": [],
			"stateMutability": "nonpayable",
			"type": "function"
		},
		{
			"inputs": [
				{
					"internalType": "uint256",
					"name": "_txId",
					"type": "uint256"
				}
			],
			"name": "execute",
			"outputs": [],
			"stateMutability": "nonpayable",
			"type": "function"
		},
		{
			"inputs": [
				{
					"internalType": "address",
					"name": "",
					"type": "address"
				}
			],
			"name": "isOwner",
			"outputs": [
				{
					"internalType": "bool",
					"name": "",
					"type": "bool"
				}
			],
			"stateMutability": "view",
			"type": "function"
		},
		{
			"inputs": [
				{
					"internalType": "uint256",
					"name": "",
					"type": "uint256"
				}
			],
			"name": "owners",
			"outputs": [
				{
					"internalType": "address",
					"name": "",
					"type": "address"
				}
			],
			"stateMutability": "view",
			"type": "function"
		},
		{
			"inputs": [],
			"name": "requiredNum",
			"outputs": [
				{
					"internalType": "uint256",
					"name": "",
					"type": "uint256"
				}
			],
			"stateMutability": "view",
			"type": "function"
		},
		{
			"inputs": [
				{
					"internalType": "uint256",
					"name": "_txId",
					"type": "uint256"
				}
			],
			"name": "revoke",
			"outputs": [],
			"stateMutability": "nonpayable",
			"type": "function"
		},
		{
			"inputs": [
				{
					"internalType": "address",
					"name": "_to",
					"type": "address"
				},
				{
					"internalType": "uint256",
					"name": "_value",
					"type": "uint256"
				},
				{
					"internalType": "bytes",
					"name": "_data",
					"type": "bytes"
				}
			],
			"name": "submit",
			"outputs": [],
			"stateMutability": "nonpayable",
			"type": "function"
		},
		{
			"inputs": [
				{
					"internalType": "uint256",
					"name": "",
					"type": "uint256"
				}
			],
			"name": "transactions",
			"outputs": [
				{
					"internalType": "address",
					"name": "to",
					"type": "address"
				},
				{
					"internalType": "uint256",
					"name": "value",
					"type": "uint256"
				},
				{
					"internalType": "bytes",
					"name": "data",
					"type": "bytes"
				},
				{
					"internalType": "bool",
					"name": "isExecuted",
					"type": "bool"
				}
			],
			"stateMutability": "view",
			"type": "function"
		},
		{
			"stateMutability": "payable",
			"type": "receive"
		}
	]
}